:100000000C943A010C9457010C9457010C9457012D
:100010000C9457010C9457010C9457010C94570100
:100020000C9457010C9457010C9457010C945701F0
:100030000C9457010C9457010C9457010C945701E0
:100040000C9457010C9457010C9488070C94570199
:100050000C94C40D0C94F90D0C9457010C94570199
:100060000C9457010C9457010C9457010C945701B0
:100070000C9457010C9457010C94570198109A1046
:100080009C109E10A010A210A410A910A910A910D5
:10009000A610A910A910A910A610AB10AD10AF1092
:1000A000B110B310B61EBB1EC01EC51ECA1ECF1E89
:1000B000D41ED91E191F211F291F311F391F411F8F
:1000C000491F521F001F000000001F00001F1010DA
:1000D00010101F00001F181818181F00001F1C1CEC
:1000E0001C1C1F00001F1E1E1E1E1F00001F1F1FA6
:1000F0001F1F1F0003070F1F0F070300181C1E1FE1
:100100001E1C18003C214532332054696D65723144
:100110002076616C75650A0D003C21453232205312
:100120006572766F32206D61780A0D003C21453290
:100130003120536572766F31206D61780A0D003C75
:100140002145323020536572766F32206D696E0A18
:100150000D003C2145313920536572766F31206D99
:10016000696E0A0D003C2145323520504944322049
:100170004D41580A0D003C21453138205049443248
:1001800020440A0D003C214531372050494432209B
:10019000490A0D003C214531362050494432205057
:1001A0000A0D003C214532342050494431204D4154
:1001B000580A0D003C214531352050494431204436
:1001C0000A0D003C21453134205049443120490A70
:1001D0000D003C21453133205049443120500A0D57
:1001E000003C2145313220536572766F320A0D0092
:1001F0003C2145313120536572766F310A0D003C48
:10020000214531302056616C7665320A0D003C2163
:1002100045392056616C7665310A0D003C21453820
:100220002048656C69756D0A0D003C214537204FEB
:10023000787967656E0A0D003C21453620456D656D
:100240007267656E6379204F320A0D003C21453597
:1002500020436F6E74726173740A0D003C4F4B0A39
:100260000D003C214534204272696768746E6573E5
:10027000730A0D0011241FBECFEFD0E1DEBFCDBF4A
:1002800015E0A0E0B1E0EEEEF5E502C005900D92BC
:10029000A83CB107D9F727E0A8ECB5E001C01D9252
:1002A000A239B207E1F70E94CA250C94F52A0C94F2
:1002B000000082B9299A289A8FEF91E10197F1F70E
:1002C00000C00000289829988FEF91E10197F1F77D
:1002D00000C00000089582B9289A8FEF91E101973C
:1002E000F1F700C0000028988FEF91E10197F1F736
:1002F00000C00000089581E00C946B0182E00C9432
:100300006B01EF92FF921F93CF93DF931F92CDB7B4
:10031000DEB7009771F0182F7C018E2D811B861798
:1003200040F4F70181917F0169830E94590169813D
:10033000F4CF0F90DF91CF911F91FF90EF90089530
:10034000623031F0633031F0613029F4805C03C0F9
:100350008C5E01C08C5A80680C946B011F93CF9304
:10036000DF93EC01862F642F0E94A00110E0FE01B4
:10037000E10FF11D8491882329F084910E94590195
:100380001F5FF5CFDF91CF911F910895EF92FF92FC
:100390000F931F93CF93DF938C0188E0689FB00188
:1003A0001124862F8064E82EC0E0D0E0F801EC0F25
:1003B000FD1FF4908C2F8E0D0E946B018F2D0E94DB
:1003C00059012196C830D10589F7DF91CF911F914E
:1003D0000F91FF90EF9008951F93CF93DF932FEF2E
:1003E00087ED90E0215080409040E1F700C0000090
:1003F00012B815B881B18FEF81B984B1836084B927
:1004000080E382B9289A8FEF91E10197F1F700C05C
:10041000000028988FEF91E10197F1F700C00000EC
:1004200080E382B9289A8FEF91E10197F1F700C03C
:10043000000028988FEF91E10197F1F700C00000CC
:1004400080E382B9289A8FEF91E10197F1F700C01C
:10045000000028988FEF91E10197F1F700C00000AC
:1004600088E382B9289A8FEF91E10197F1F700C0F4
:10047000000028988FEF91E10197F1F700C000008C
:100480008CE082B9289A8FEF91E10197F1F700C0D3
:10049000000028988FEF99E50197F1F700C0000060
:1004A000C4ECD0E060E011E0160FCE010E94C6015E
:1004B0002896183011F0612FF6CFDF91CF911F9160
:1004C0000895CF93DF93D82FC0E0CD1729F08EE1A8
:1004D0000E946B01CF5FF9CFDF91CF910895CF9349
:1004E000DF93D82FC0E0CD1729F088E10E946B017F
:1004F000CF5FF9CFDF91CF9108958EE00C946B011F
:100500008FE00C946B018CE00C946B0188E00C94F0
:100510006B018CE00C946B01CF93DF93D82FC0E07C
:10052000CD1729F080E10E946B01CF5FF9CFDF91F9
:10053000CF910895CF93DF93D82FC0E0CD1729F046
:1005400084E10E946B01CF5FF9CFDF91CF910895D5
:10055000CF92DF92EF92FF920F931F93CF93DF938F
:100560001F92CDB7DEB756E0459F90011124E82FCA
:10057000E29FC001E39F900D112470E00E94F525D9
:100580008B01CB0166E070E00E94E125E82EC12CD2
:10059000D12CF12CF416B9F096012B5F3F4F0217C6
:1005A000130728F40C151D0520F08E2D03C085E0DF
:1005B00001C080E049830E945901F394F6E0CF0E18
:1005C000D11C4981E7CF0F90DF91CF911F910F91FF
:1005D000FF90EF90DF90CF9008950F931F9394B109
:1005E0009F7094B994B1906B94B994E0099F800185
:1005F0001124016598E0299F90011124022B20E22B
:10060000829FC0011124082B0CBD81E01F910F9126
:100610000895CF93DF9300D000D0CDB7DEB7FC01B3
:10062000819119821A821B821C829E012F5F3F4F8B
:10063000D901422F9A2F921B961718F491919D93EE
:10064000F9CF813009F42C98F9019E2F941B96174D
:1006500030F491919EBD0DB407FEFDCFF6CF8130F1
:1006600009F42C9A862F0F900F900F900F90DF9126
:10067000CF910895CF93DF93CDB7DEB728970FB60C
:10068000F894DEBF0FBECDBFFC0171911D821E82AA
:100690001F82188619821A821B821C82AE014B5F50
:1006A0005F4FDA012A2F241B261718F421912D936E
:1006B000F9CF713009F42C989E012F5F3F4FDA017A
:1006C000F901422F5E2F521B561740F45D915EBD1B
:1006D0000DB407FEFDCF5EB55193F4CF713009F430
:1006E0002C9AFC01D9018A2F841B861718F48D914E
:1006F0008193F9CF862F28960FB6F894DEBF0FBEF0
:10070000CDBFDF91CF9108958091C805882371F006
:100710008091C8058F5F8093C8058091C80582339A
:1007200028F081E08093C9051092C80508950F93C1
:10073000CF93DF9300D000D01F92CDB7DEB785E016
:10074000E2E0F1E0DE01119601900D928A95E1F769
:1007500001E021E040E452E46FE070E080E00E94BC
:10076000ED0264E0CE0101960E9409030F900F9004
:100770000F900F900F90DF91CF910F910895FF92FE
:100780000F931F93CF93DF9300D000D01F92CDB76C
:10079000DEB7F62E8E010F5F1F4F95E0F801119224
:1007A0009A95E9F749838770F8E08F9FC00111247B
:1007B00080648A8361E06F0DC8010E943A03E1E022
:1007C00060E070E0CB014F2D50E02E2F30E042175B
:1007D000530774F0982F872F762F6627D801A20F22
:1007E000B31F2C91620F711D811D911DEF5FEDCF25
:1007F0000F900F900F900F900F90DF91CF911F915E
:100800000F91FF90089541E061E084E00E94BF03F2
:100810001092C8051092C9056F7081E06B3009F025
:1008200080E008950F93CF93DF93CDB7DEB729977C
:100830000FB6F894DEBF0FBECDBF4E835F836887CF
:100840007987FE01319695E0DF011D929A95E9F7CF
:100850002F5F09838770880F880F880F8A83322F54
:10086000BE016A5F7F4F323050F0CF01830F911D80
:10087000DB014D91BD01DC014C933150F4CF622F6F
:10088000CF010E94090329960FB6F894DEBF0FBE70
:10089000CDBFDF91CF910F9108951E99FECF08959E
:1008A000CF92DF92EF92FF920F936B017C0141E0B8
:1008B00062E081E00E94BF03AB01BC015F7166276B
:1008C0007727D701C6010DE0880F991FAA1FBB1F0C
:1008D0000A95D1F7AA27BB27482B592B6A2B7B2BCC
:1008E00001E022E081E00E9412040F91FF90EF905E
:1008F000DF90CF900895CF92DF92EF92FF920F9307
:100900006B017C0141E062E082E00E94BF03AB0129
:10091000BC01487F87E0C822DD24EE24FF244C2957
:100920005D296E297F2901E022E082E00E94120405
:100930000F91FF90EF90DF90CF900895CF92DF92CC
:10094000EF92FF920F936B017C0141E062E082E045
:100950000E94BF03AB01BC01587F87E0C822DD24A1
:10096000EE24FF24FE2CED2CDC2CCC244C295D291C
:100970006E297F2901E022E082E00E9412040F919B
:10098000FF90EF90DF90CF9008950F93CF93C82FF3
:1009900041E062E082E00E94BF03AB01BC014F77FF
:1009A00020E8C29FC00111249927AA2797FDA0958E
:1009B000BA2F482B592B6A2B7B2B01E022E082E0D7
:1009C0000E941204CF910F9108950F93CF93C82FD7
:1009D00070E080E090E00E947B0441E062E081E012
:1009E0000E94BF034C2F50E0542F44275295550FBF
:1009F000507E60E070E001E022E081E00E9412049D
:100A0000CF910F910C944D040F932C9800E022E0AD
:100A100040E050E260E070E081E00E9412040E9439
:100A20004D0440E063E083E00E94BF032C9A0F91E5
:100A30000895CF92DF92EF92FF920F93CF93DF93BF
:100A4000C82F01E022E040E050E0BA0181E00E94BE
:100A50001204D0E0C12CD12C7601DC1759F041E012
:100A600063E083E00E94BF03C60ED71EE81EF91E96
:100A7000DF5FF3CF2D2F30E040E050E0C701B6013B
:100A80000E940926CA01B901DF91CF910F91FF9011
:100A9000EF90DF90CF9008950F931F93613029F06E
:100AA00000E810E020E030E004C000E810E420E0BE
:100AB00030E0482F477050E060E070E040615C60DB
:100AC000402B512B622B732B01E022E082E00E942D
:100AD00012041F910F9108950F93CF93C82F61E0D7
:100AE0000E944C05369B13C00E944D046C2F84E07D
:100AF0000E94E5046C2F85E00E94E50401E022E0FD
:100B000043E050E060E070E081E00E941204CF9189
:100B10000F91089560E00E944C0581E08093C80524
:100B20001092C90508953F924F925F926F927F9203
:100B30008F929F92AF92BF92CF92DF92EF92FF92ED
:100B40000F931F93CF93DF938091C905882309F4F6
:100B5000CDC181E00E941905DC01CB019C01AD01F2
:100B600060E070E080E090E040585109610971094F
:100B70008109910959016A017B01E82F192F02E0CF
:100B80000E94A9270E2F0E94E02759016A017B01CC
:100B9000E82F192F04E00E94A9270E2F0E94E927B1
:100BA00059016A017B01E82F192F04E00E94A9274F
:100BB0000E2F0E94E9274901D42FC52FB62FA72F4A
:100BC000F82FE92F06E00E94A92759016A017B014D
:100BD0008C0194014D2F5C2F6B2F7A2F8F2F9E2F1E
:100BE0000E94E027922EA32EB42ED52FC62FB72F0A
:100BF000F82FE92FA0E00E94F22784F42150310958
:100C000040485F4F6F4F7F4F8F4F9F4F922EA32EC5
:100C1000B42ED52FC62FB72FF82FE92F292D3A2D17
:100C20004B2D5D2F6C2F7B2F8F2F9E2F07E10E9466
:100C3000C227C22FB32FF42FE52F362E472E982E22
:100C4000D92FA0E00E94F22754F40E946227C22FFD
:100C5000B32FF42FE52F362E472E982ED92F8091C3
:100C6000CA05811192C05C2E6B2E7F2E8E2EC093F2
:100C70009A06B0939B06F0939C06E0939D06A09085
:100C8000AA06B090AB06C090AC06D090AD06E0903E
:100C9000AE06F090AF060091B0061091B1062C2F71
:100CA0003B2F4F2F5E2F632D742D892D9D2F0E947A
:100CB0007926B0E1AB2EC7E2BC2EC12CD12CE12CA1
:100CC000F12C00E010E00E94D4262093A20630937D
:100CD000A3064093A4065093A506E091CE0684E0B7
:100CE000E89FF0011124ED51F94F50826182728228
:100CF000838281E08093CA050E94A91F8B30D1F5C1
:100D000060917E0670917F068091800690918106A9
:100D1000A4E64A2E512C612C712CA30192010E9451
:100D2000092649015A016091A2067091A30680919B
:100D3000A4069091A506A30192010E940926CA016A
:100D4000B901390143E357E0C4010E94FA0C209134
:100D50007A0630917B062817390724F46814790441
:100D600008F0C90190937B0680937A06BC0180E06D
:100D70000E94920A8091CE068F5F8093CE068A30C1
:100D800008F49FC01092CE069CC08B2E6F2E5E2E54
:100D9000C0939E06B0939F06F093A006E093A10631
:100DA000A090B206B090B306C090B406D090B5063D
:100DB000E090B606F090B7060091B8061091B9061B
:100DC0002C2F3B2F4F2F5E2F632D742D892D9D2FA0
:100DD0000E947926E0E1AE2EF7E2BF2EC12CD12C85
:100DE000E12CF12C00E010E00E94D4262093A6060E
:100DF0003093A7064093A8065093A906E091CF062A
:100E000084E0E89FF0011124E55FF84FC083818200
:100E1000628253821092CA050E94A91F8B3009F08A
:100E200047C06091820670918306809184069091FC
:100E3000850680907E0690907F06A0908006B090F8
:100E4000810686169706A806B90691F124E6822E39
:100E5000912CA12CB12CA50194010E9409262901F5
:100E60003A016091A6067091A7068091A80690911C
:100E7000A906A50194010E940926CA01B9015901D8
:100E80004AEB56E0C2010E94FA0C20917C06309198
:100E90007D062817390724F44A145B0408F0C901B9
:100EA00090937D0680937C06BC0181E00E94920AAB
:100EB0008091CF068F5F8093CF068A3010F010921A
:100EC000CF068091CA05DF91CF911F910F91FF90BE
:100ED000EF90DF90CF90BF90AF909F908F907F90DA
:100EE0006F905F904F903F900C948A05DF91CF9167
:100EF0001F910F91FF90EF90DF90CF90BF90AF9038
:100F00009F908F907F906F905F904F903F9008954B
:100F10001F920F920FB60F9211242F933F934F936E
:100F20005F936F937F938F939F93AF93BF93EF9351
:100F3000FF9380914B078930D0F08091E00690912B
:100F4000E10601969093E1068093E00610924B072C
:100F50000E9484038091E0069091E10662E370E0D4
:100F60000E94E125892BB9F50E94DE0E34C08091E4
:100F70004B07813081F58091E0069091E10664E6AF
:100F800070E00E94E125892B31F58091E006909177
:100F9000E10664EF71E00E94E125892BC9F480919C
:100FA000E0069091E10668EE73E00E94E125892B4E
:100FB00049F480914C0790914D07019690934D070D
:100FC00080934C079091CD0581E0891B8093CD05DE
:100FD00081E08093E20680914B078F5F80934B07FF
:100FE000FF91EF91BF91AF919F918F917F916F9101
:100FF0005F914F913F912F910F900FBE0F901F90D7
:1010000018957F928F929F92AF92BF92CF92DF926C
:10101000EF92FF920F931F93CF93DF937C01A62E45
:10102000FA01690111821082BB24B394DC018C9116
:101030008D3209F0B12CC0E0D0E099249A949A0C3A
:101040008C2E8B0C8A1430F5D701A80DB11D2C9174
:1010500080ED820F8A3010F08FEF30C0332727FDEC
:10106000309520533109442737FD4095542F792C72
:10107000781441F0AAE0B0E00E9466269B01AC0122
:101080007A94F6CF80819181820F931F9183808320
:101090002196D6CFBB2039F08081918191958195A1
:1010A0009109918380832081318102171307A4F273
:1010B00081E02C153D050CF080E08195DF91CF910A
:1010C0001F910F91FF90EF90DF90CF90BF90AF9066
:1010D0009F908F907F9008958091CD050895809185
:1010E000CD05882351F08091CC058111419A8091E2
:1010F000CB05882321F0439A089541984398089599
:101100008091CC0508958091CB0508951092CC056F
:1011100008951092CB0508958093CC056093CB057C
:1011200008958091E20608951092E2060895809154
:101130004C0790914D0708954EE050E06CE170E04F
:1011400088E896E00E94272A4CE050E060E170E0D9
:1011500084E797E00E94272A40E150E060E070E0D9
:1011600080E597E00E94272A809174079091750787
:10117000A0E0B0E080937E0690937F06A093800667
:10118000B09381068093820690938306A093840691
:10119000B093850608954EE050E06CE170E080E881
:1011A00097E00E94272A2091880630918906809135
:1011B0008007909181072817390709F043C02091D3
:1011C0008A0630918B0680918207909183072817B9
:1011D0003907C1F520918C0630918D0680918407E6
:1011E000909185072817390769F520918E0630916F
:1011F0008F0680918607909187072817390711F588
:1012000020919006309191068091880790918907EE
:1012100028173907B9F49091920680918A0798139C
:1012200011C09091930680918B0798130BC0209169
:1012300094063091950680918C0790918D07281720
:10124000390741F04EE050E06CE170E088E896E04C
:101250000C94372A08954CE050E060E170E080ED96
:1012600096E00E94272A2091D0063091D1068091E5
:1012700074079091750728173907A9F44091D20691
:101280005091D3066091D4067091D506809176076F
:1012900090917707A0917807B0917907481759077F
:1012A0006A077B0741F04CE050E060E170E084E7C2
:1012B00097E00C94372A089540E150E060E070E038
:1012C00084E697E00E94272A209164073091650701
:1012D00080915007909151072817390709F04EC0A7
:1012E00020916607309167078091520790915307CC
:1012F0002817390709F042C0209168073091690723
:10130000809154079091550728173907B9F5209116
:101310006A0730916B0780915607909157072817FD
:10132000390761F520916C0730916D07809158075E
:10133000909159072817390709F520916E073091C8
:101340006F0780915A0790915B0728173907B1F40E
:10135000209170073091710780915C0790915D0733
:101360002817390759F4209172073091730780913B
:101370005E0790915F072817390741F040E150E080
:1013800060E070E080E597E00C94372A089584B11E
:101390008C6084B987B18F6087B98AB1806C8AB953
:1013A000529853985A9A5B9A3C983D983E983F9829
:1013B000449A459A469A479AE0EBF0E08081836A26
:1013C0008083E1EBF0E080818660808380919206EB
:1013D0008093B300809193068093B40085B58260BA
:1013E00085BD16BCEEE6F0E0808181608083E0E898
:1013F000F0E08081826A8083E1E8F0E080818B61A7
:1014000080838091900690919106909387008093BD
:1014100086008AB180638AB9809188069091890696
:10142000909389008093880080918A0690918B0622
:1014300090938B0080938A0008958093B300089561
:101440008093B40008950E949C080E94C7090E94DE
:10145000EC010E947B010E947B0160E083E00E941E
:10146000A0016AE087E091E00E9481010E94970359
:101470000E94030481110CC00E947B0160E082E0A5
:101480000E94A0016AE082E191E00E94810121C0F6
:1014900061E080E00E94A00165E08DE191E00E94A2
:1014A000810180E00E946C0569E083E291E00E9486
:1014B000810181E00E946C0562E08DE291E00E9472
:1014C00081011092CA058091CA050E948A050E9476
:1014D0007B0189E090E00E94250E80917407909135
:1014E000750781349C4930F080E49CE9909375073E
:1014F00080937407349BFECF359BFCCF369BFACF8D
:10150000379BF8CF8FEF9FE628E081509040204036
:10151000E1F700C0000078948AE00E94AC1F8FE0E1
:101520000C94B90ECF93DF93DB016F3F710509F087
:101530002CF477FF05C0A0E0B0E002C0AFEFB0E050
:1015400081111DC0A0938606C0918806D09189069E
:1015500020918C0630918D062C1B3D0B0E945F263E
:101560002FEF30E040E050E00E9409262C0F3D1F95
:10157000411D511D30938B0020938A001CC0A09305
:101580008706C0918A06D0918B0620918E063091F5
:101590008F062C1B3D0B0E945F262FEF30E040E0B2
:1015A00050E00E9409262C0F3D1F411D511D309314
:1015B000890020938800DF91CF91089560E070E06A
:1015C00080E00E94920A60E070E081E00E94920A4E
:1015D0002FEF8FE19CE1215080409040E1F700C067
:1015E00000006FEF70E080E00E94920A6FEF70E001
:1015F00081E00E94920A2FEF8FE398E32150804010
:101600009040E1F700C0000060E070E080E00E94E0
:10161000920A2FEF8FE398E3215080409040E1F74A
:1016200000C0000060E070E081E00E94920A2FEFAD
:101630008FE398E3215080409040E1F700C0000024
:101640002A9A429A2FEF8FE19CE1215080409040EE
:10165000E1F700C000002B9A409A2FEF8FE19CE148
:10166000215080409040E1F700C00000419A439A29
:101670002FEF8FE19CE1215080409040E1F700C0C6
:1016800000002A982B9842984098419843980895D2
:101690000F931F9380917A0790917B072091740795
:1016A00030917507A90148515C4F4817590748F414
:1016B000E1E048515C4F4817590708F0E0E0F1E0DD
:1016C00002C0E0E0F0E0A901485E534084179507AE
:1016D00038F4205D37408217930708F4E1E0F1E029
:1016E00040917E0650917F06609180067091810640
:1016F0008091820690918306A0918406B091850620
:10170000481759076A077B07F1F180917C07909190
:101710007D07A0917E07B0917F0740917607509199
:10172000770760917807709179078A019B010851CA
:101730001C4F2F4F3F4F081719072A073B0768F424
:101740008A019B010053184F2F4F3F4F081719076D
:101750002A073B0708F4E1E0F1E08A019B01085EFB
:1017600013402109310980179107A207B30758F4E4
:10177000405D57406109710984179507A607B707AF
:1017800008F4E1E0F1E0F093CC05E093CB051F9184
:101790000F9108950F931F934A9928C04091940682
:1017A00050919506CA018053984FA0E0B0E0009197
:1017B000A2061091A3062091A4063091A5068017D9
:1017C0009107A207B30790F060E070E081E000911C
:1017D000A6061091A7062091A8063091A9064017E9
:1017E00051076207730718F080E001C081E01F9184
:1017F0000F9108954F925F926F927F928F929F9276
:10180000AF92BF92CF92DF92EF92FF920F931F930E
:101810000091E3061091E4062091E5063091E6067A
:101820004801590140910B0750910C0760910D0739
:1018300070910E07E3EEF6E0ABE0B7E06A017B01E2
:101840004190519061907190401651066206730666
:1018500010F49301820184149504A604B70410F4D3
:10186000530142014D905D906D907D904416550658
:101870006606770610F4B301A201C414D504E60489
:10188000F70410F47301620187E0EB30F807C1F64A
:101890000093960610939706209398063093990626
:1018A0008092DC069092DD06A092DE06B092DF0602
:1018B00040934707509348076093490770934A073E
:1018C000C0926007D0926107E0926207F0926307CE
:1018D000801A910AA20AB30A97018601041B150B0C
:1018E000260B370BC901B801081519052A053B0558
:1018F00010F4C501B4011F910F91FF90EF90DF909C
:10190000CF90BF90AF909F908F907F906F905F909F
:101910004F9008950E94FA0B653671058105910577
:10192000A8F58091960690919706A0919806B0919F
:10193000990680379741A105B10540F1809147078D
:1019400090914807A0914907B0914A078037974185
:10195000A105B105D8F08091DC069091DD06A0913B
:10196000DE06B091DF0689349147A105B10570F418
:1019700081E040916007509161076091620770912A
:101980006307493451476105710508F080E0089507
:101990000F931F93CF93DF93EB01F8011282138211
:1019A00014821582118210829783868371876087E3
:1019B00053874287BC016F5F7F4F8FEF9FE70E9485
:1019C000F52575876487BE016F5F7F4F8FEF9FE3BB
:1019D0000E94F525CB01AA2797FDA095BA2F8687EF
:1019E0009787A08BB18B338B228BDF91CF911F9187
:1019F0000F9108958F929F92AF92BF92CF92DF92F4
:101A0000EF92FF92CF93DF93FB01EA016C01E12C8F
:101A1000F12CC61AD70AE108F1082C853D85C901C9
:101A2000AA2797FDA095BA2F8C159D05AE05BF0579
:101A3000B4F088279927821B930BAA2797FDA095BE
:101A4000BA2FC816D906EA06FB0684F0AE81BF811C
:101A5000A70196010E9471264B015C010EC08824EB
:101A60008A949FE7992EA12CB12C07C088248394D7
:101A700080E8982EAA24AA94BA2C2A813B814C8112
:101A80005D812C0D3D1D4E1D5F1D8E859F85A88996
:101A9000B98982179307A407B5074CF48A839B83FF
:101AA000AC83BD836FEF7FE380E090E01DC0B09515
:101AB000A095909581959F4FAF4FBF4F281739073D
:101AC0004A075B074CF48A839B83AC83BD8361E048
:101AD00070EC8FEF9FEF08C02A833B834C835D83BC
:101AE000A885B9850E947126288139812E1B3F0B5C
:101AF0004A855B85249F6001259FD00C349FD00CC4
:101B00001124EE24D7FCE094FE2CF983E883680DC1
:101B1000791D8A1D9B1D6C0D7D1D8E1D9F1D20E84E
:101B200030E040E050E00E942B266A897B89CB019F
:101B3000AA2797FDA095BA2F82179307A407B50788
:101B400094F088279927861B970B6C01EE24D7FC0D
:101B5000E094FE2CDA01C9012C153D054E055F0508
:101B600014F4D701C601DF91CF91FF90EF90DF9081
:101B7000CF90BF90AF909F908F900895FC011282FC
:101B800013821482158208951F920F920FB60F923E
:101B900011242F933F934F935F938F939F93EF93D2
:101BA000FF934091C0005091C60048718091D005CC
:101BB00090E001968F7099272091CF0530E0821731
:101BC000930739F08093D005FC01ED52FA4F508312
:101BD00001C042E04093CE05FF91EF919F918F911C
:101BE0005F914F913F912F910F900FBE0F901F90DB
:101BF00018951F920F920FB60F9211248F939F93F7
:101C0000EF93FF939091D2058091D105981779F0C9
:101C10008091D10590E001968F7799278093D10527
:101C2000FC01ED51FA4F80818093C60005C0809180
:101C3000C1008F7D8093C100FF91EF919F918F91A3
:101C40000F900FBE0F901F9018951092D205109212
:101C5000D1051092D0051092CF0597FF04C022E065
:101C60002093C0009F779093C5008093C40088E9BB
:101C70008093C10086E08093C20008959091D005C2
:101C80008091CF059817A1F08091CF0590E0019643
:101C90008F7099278093CF05FC01ED52FA4F208178
:101CA0008091CE0590E0982F8827820F911D08958E
:101CB00080E091E008959091D0058091CF0598172C
:101CC00089F0E091CF05F0E03196EF70FF27ED52FB
:101CD000FA4F20818091CE0590E0982F8827820FBF
:101CE000911D089580E091E008952091D20530E0A3
:101CF0002F5F3F4F2F7733274091D10550E02417B6
:101D00003507D1F3F901ED51FA4F80832093D205C5
:101D10008091C10080628093C1000895CF93DF93CA
:101D2000EC018991882319F00E94750EFACFDF919A
:101D3000CF910895CF93DF93FC018491EF01219619
:101D4000882321F00E94750EFE01F7CFDF91CF911D
:101D500008958091D0052091CF0590E04096821B98
:101D600091098F70992708958091CF058093D005B0
:101D70000895CF93C82F0E9497088C0F911D9093C0
:101D8000650680936406CF910895CF93DF93C09149
:101D90006406D09165060E9497088C179D0750F441
:101DA000C0916406D09165060E9497089C2F981BED
:101DB000892F01C080E0DF91CF910895349908C048
:101DC00080914E078F3F31F0815F80934E0702C0B4
:101DD00010924E07359908C080914F078F3F31F020
:101DE000815F80934F07089510924F07089585E013
:101DF000809301018093000186E4809379062A98FC
:101E00002B984298409860E080E00E94A00160E139
:101E100080E391E00E94810161E080E00E94A001E6
:101E200060E181E491E00C94810187E4809379067C
:101E30002A982B984298409860E080E00E94A00188
:101E400060E182E591E00E94810161E080E00E9412
:101E5000A00160E181E491E00C94810184E1809330
:101E600079062A982B984298409860E080E00E947A
:101E70008C0860E070E080E00E94920A60E070E010
:101E800081E00E94920A60E080E00E94A00160E18F
:101E900083E691E00E94810161E080E00E94A00160
:101EA00060E184E791E00C94810185E180937906FB
:101EB0002A982B984298409860E080E00E94A00108
:101EC00060E185E891E00E94810161E080E00E948C
:101ED000A00160E186E991E00C94810182E38093A6
:101EE00079062A982B984298409860E080E00E94FA
:101EF000A00160E187EA91E00E94810161E080E059
:101F00000E94A00160E188EB91E00C94810183E3E1
:101F1000809379062A982B984298409860E080E058
:101F20000E94A00160E189EC91E00E94810161E0E2
:101F300080E00E94A00160E188EB91E00C948101B7
:101F400084E3809379062A982B984298409860E021
:101F500080E00E94A00160E18AED91E00E94810191
:101F600061E080E00E94A00160E188EB91E00C94C8
:101F700081018CE3809379062A9A2B98429A4098A3
:101F800060E080E00E94A00160E18BEE91E00E94A1
:101F9000810161E080E00E94A00160E188EB91E0B6
:101FA0000C9481018DE3809379062A982B9A4298AC
:101FB000409A60E080E00E94A00160E18CEF91E037
:101FC0000E94810161E080E00E94A00160E188EB55
:101FD00091E00C948101CF93C82F81E5809379061D
:101FE0002A982B984298409860E080E00E94A001D7
:101FF00060E1CC2319F08DE092E002C08EE192E026
:102000000E94810161E080E00E94A00160E188EB14
:1020100091E0CF910C9481018BE5809379062A9809
:102020002B984298409860E080E00E94A00160E117
:102030008FE292E00E94810161E080E00E94A001B5
:1020400060E188EB91E00C9481018CE58093790646
:102050002A982B984298409860E080E00E94A00166
:1020600060E180E492E00E94810161E080E00E94F2
:10207000A00160E188EB91E00C9481018DE58093F3
:1020800079062A982B984298409860E080E00E9458
:10209000A00160E181E592E00E94810161E080E0C1
:1020A0000E94A00160E188EB91E00C9481018EE533
:1020B000809379062A982B984298409860E080E0B7
:1020C0000E94A00160E182E692E00E94810161E04D
:1020D00080E00E94A00160E188EB91E00C94810116
:1020E0008FE5809379062A982B984298409860E073
:1020F00080E00E94A00160E183E792E00E948101FC
:1021000061E080E00E94A00160E188EB91E00C9426
:10211000810180910101992787FD9095A92FB92F01
:102120008431910510F5FC01E25CFF4F0C944A26C6
:102130000C94150F0C94A00F0C94F70E0C946E0FCA
:102140000C94870F0C94B90F0C94D20F81E00C946F
:10215000EB0F80E0FCCF0C940C100C9425100C9429
:102160003E100C9457100C94701008950F931F9309
:102170008091A6069091A706A091A806B091A90605
:1021800090937B0780937A0700917E0610917F06DB
:1021900020918006309181064091820650918306FD
:1021A0006091840670918506041715072607370786
:1021B00049F410927C0710927D0710927E071092CE
:1021C0007F072DC09C01AD0144275527A0E1B7E250
:1021D0000E9466262091A2063091A3064091A40693
:1021E0005091A5060E940926AAE0B0E00E9466264A
:1021F000613A26E8720721E082079105D0F600EAED
:1022000016E821E030E0061B170B280B390B009372
:102210007C0710937D0720937E0730937F071F91E3
:102220000F9108950F931F932091740730917507B4
:10223000A0E1B7E20E9450262091940630919506C5
:10224000205D374040E050E00E940926AAE0B0E05F
:102250000E9466268B019C01013A86E8180781E0FE
:102260002807310548F460EA76E881E090E0601BD9
:10227000710B820B930B03C060E070E0CB011F91E8
:102280000F910895A0917407B0917507A83082E569
:10229000B80700F520E639E74EEF5FEF0E946626AB
:1022A0007B58844D924828E032E540E050E00E949F
:1022B0000926CA01B90128EE33E040E050E00E944F
:1022C00009262F5F3F4F4F4F5F4FA8EEB3E00E94AC
:1022D0006626089560E070E0CB010895CF92DF920A
:1022E000EF92FF920F931F93CF93DF938091940609
:1022F00090919506209174073091750728573C4EB0
:102300008217930730F48858934190937507809310
:102310007407C0907607D0907707E0907807F09028
:1023200079070E944211C616D706E806F90640F45E
:102330006093760770937707809378079093790777
:10234000C0907607D0907707E0907807F0907907F3
:102350000E9412116C157D058E059F0540F4609357
:1023600076077093770780937807909379070091A9
:102370007E0610917F062091800630918106409163
:102380008206509183066091840670918506C09103
:102390007407D0917507041715072607370761F4EE
:1023A000CE01A0E0B0E080937E0690937F06A093DC
:1023B0008006B09381062EC09E01A4E6B0E00E9484
:1023C00050266B017C0160917607709177078091B0
:1023D00078079091790728EE33E040E050E00E94C2
:1023E0000926DA01C90124E630E040E050E0281B6C
:1023F000390B4A0B5B0BC701B6010E9409262093DB
:102400007E0630937F064093800650938106CE016E
:10241000A0E0B0E08093820690938306A0938406A8
:10242000B0938506DF91CF911F910F91FF90EF90B0
:10243000DF90CF9008952F923F924F925F926F92CC
:102440007F928F929F92AF92BF92CF92DF92EF9244
:10245000FF920F931F93CF93DF93CDB7DEB76697AD
:102460000FB6F894DEBF0FBECDBF6091A606709187
:10247000A7068091A8069091A9064090A2065090C8
:10248000A3066090A4067090A50628EEC22E23E055
:10249000D22EE12CF12CA70196010E940926122FC1
:1024A000032F342E252E34E6832E912CA12CB12C13
:1024B000A50194010E9409265F934F933F932F93A8
:1024C0002F923F920F931F93C301B201A701960170
:1024D0000E940926122F032F742E652EA501940148
:1024E0000E9409265F934F933F932F936F927F92A1
:1024F0000F931F9384E892E09F938F938E010F5F59
:102500001F4F1F930F930E9433280E94B610809193
:1025100074079091750728EE33E0B9010E94E12518
:10252000762E672E8090760790907707A090780798
:10253000B090790780917A0790917B07B9010E944A
:10254000E1256D8B7E8B60917C0770917D0780917A
:102550007E0790917F070FB6F894DEBF0FBECDBF08
:1025600081149104A104B104A1F120907E06309061
:102570007F0640908006509081062091820630911F
:102580008306409184065091850622163306440640
:102590005506F9F0409A2B9AA70196010E94092648
:1025A0001F922F933E893F938D898F93C501B4016C
:1025B000A70196010E9409261F922F936F927F9286
:1025C00082EA92E09F938F931F930F930E94332888
:1025D0000EC03E893F938D898F936F927F9287EBD8
:1025E00092E09F938F931F930F930E9433280FB60F
:1025F000F894DEBF0FBECDBF60E080E00E94A00176
:1026000060E1C8010E94810166960FB6F894DEBFB2
:102610000FBECDBFDF91CF911F910F91FF90EF9033
:10262000DF90CF90BF90AF909F908F907F906F90F2
:102630005F904F903F902F9008950F931F939BE0D2
:1026400090937906429A2A9A882371F10E94CB08C6
:102650000E942B090E945C09209156073091570770
:10266000409154075091550760915207709153075C
:1026700003E317E080915007909151070E94C80C26
:1026800020915E0730915F0740915C0750915D0794
:1026900060915A0770915B070AEB16E0809158072A
:1026A000909159070E94C80C1F910F910C941B1216
:1026B0008F929F92AF92BF92CF92DF92EF92FF9252
:1026C0000F931F93CF93DF93CDB7DEB765970FB608
:1026D000F894DEBF0FBECDBF80917407909175074F
:1026E00068EE73E00E94E125062FB72E6091A206E6
:1026F0007091A3068091A4069091A50648EEC42E81
:1027000043E0D42EE12CF12CA70196010E9409266A
:10271000A22E60917E0670917F0680918006909136
:102720008106A70196010E940926922E60917607E4
:10273000709177078091780790917907A7019601AA
:102740000E940926122F6091A6067091A70680911B
:10275000A8069091A906A70196010E940926822E3B
:10276000609182067091830680918406909185061F
:10277000A70196010E94092660E080E02D8B0E944F
:10278000A001809186061F928F931F929F921F92A5
:10279000AF92BF920F935AECC52E52E0D52EDF9226
:1027A000CF92CE0101967C01FF928F930E94332835
:1027B00060E1C7010E94810161E080E00E94A00108
:1027C000809187061F928F931F922D892F931F92BE
:1027D0008F921F921F93DF92CF92FF92EF920E94EF
:1027E000332860E1C7010E9481010FB6F894DEBF73
:1027F0000FBECDBF65960FB6F894DEBF0FBECDBF3E
:10280000DF91CF911F910F91FF90EF90DF90CF90CC
:10281000BF90AF909F908F900895419A60E080E0C4
:102820000E94A00160E182EE92E00E94810161E0DD
:1028300080E00E94A00160E183EF92E00C948101AE
:102840000F931F93CF93DF93CDB7DEB764970FB687
:10285000F894DEBF0FBECDBF809179069CEE980F35
:10286000923058F44A9914C04B9912C081E00E94EA
:102870001D138EE10E94B90E08C08B3049F44A99AD
:1028800002C04B9B05C00E942E0F81E080938E07F3
:1028900080918E07811183C0809179068A3009F07A
:1028A0007EC04A997CC0349936C060E080E00E94C6
:1028B000A00160E184E093E00E94810161E080E09A
:1028C0000E94A0010E94FA0B7F936F9385E193E031
:1028D0009F938F938E010F5F1F4F1F930F930E9443
:1028E000332860E1C8010E9481012FEF8FE790E754
:1028F000215080409040E1F700C000000E948A0C07
:102900000F900F900F900F900F900F90882329F148
:102910000E942E0F0EC0359BC8CF369BC6CF379B6B
:10292000C4CF0E94C50E882309F4BFCF38C03599A3
:1029300003C0349BFECFFBCF369BFBCF379BF9CF39
:102940002FEF8FE995E0215080409040E1F700C0E3
:10295000000081E080938E0722C00E940D142FEFAB
:102960008FE790E7215080409040E1F700C00000E1
:10297000439A2FEF8FEB98EA215080409040E1F787
:1029800000C00000349BFECF359BFCCF369BFACFB6
:10299000379BF8CF4198439884E10E94B90E80910B
:1029A0008E0781113AC0349B06C0359B04C0369B0C
:1029B00002C0379932C080917906843129F4369962
:1029C0000AC00E94550F1AC0853129F4379903C0F7
:1029D0000E942E0F13C08091010187FD12C036990D
:1029E00006C08F5F843144F01092010107C037990F
:1029F00008C0815008F483E18093010181E0809355
:102A00008E079091000180910101981731F00E948A
:102A100089108091010180930001349B09C0359B8E
:102A200007C0369B05C0379B03C010928E073BC082
:102A300080918E078130B1F480917906823390F0D5
:102A4000379910C036990EC08FEF809301018093A3
:102A500000010E942E0F0E946E110E94CB0882E09E
:102A600080938E0780918E07813081F48091790662
:102A70008451823058F4379909C0369907C01092B2
:102A800001010E94891082E080938E0780918E0759
:102A9000882349F02FEF8FEC92E021508040904046
:102AA000E1F700C0000064960FB6F894DEBF0FBED9
:102AB000CDBFDF91CF911F910F91089560E08FE01E
:102AC0000E94A00161E080E591E00E94810161E047
:102AD00080E00E94A00160E185E293E00E94810114
:102AE0000E94DE0A61E080E00E94A00160E186E3CE
:102AF00093E00E9481012FEF8FE398E32150804003
:102B00009040E1F700C000000C94F70E9F92AF9246
:102B1000BF92CF92DF92EF92FF920F931F93CF93CA
:102B2000DF93CDB7DEB766970FB6F894DEBF0FBE62
:102B3000CDBF162FD82EC22EB32EA42E952E60E018
:102B400080E04A9946C07D8B9E8B0E94A0010E9426
:102B50008A0C9E012F5F3F4F79017D899E898823D2
:102B600039F09F93DF927F931F9387E493E006C031
:102B70009F93DF927F931F9387E593E09F938F93BB
:102B8000FF92EF920E9433280FB6F894DEBF0FBE7B
:102B9000CDBF60E1C7010E9481011F920F939F92F8
:102BA000AF92BF92CF9287E693E09F938F93FF926D
:102BB000EF920E94332861E080E00E94A00160E172
:102BC000C7010E9481010FB6F894DEBF0FBECDBFD2
:102BD00013C00E94A00160E188E793E00E94810198
:102BE00061E080E00E94A00160E189E893E00E943A
:102BF000810184E10E94B90E66960FB6F894DEBF9B
:102C00000FBECDBFDF91CF911F910F91FF90EF903D
:102C1000DF90CF90BF90AF909F9008950F931F9338
:102C2000CF93DF93CDB7DEB72A970FB6F894DEBF08
:102C30000FBECDBF80914F07882381F08F3F11F4E5
:102C40009AE001C091E080919206981720F4891BC8
:102C50008093920603C081111092920680914E07D4
:102C60008823C9F08F3F11F45AE001C051E0409130
:102C70009206242F30E08FEF90E0851B91092817F2
:102C8000390724F4450F4093920605C04F3F19F0D1
:102C90008FEF80939206809192061F928F938AE91C
:102CA00093E09F938F938E010F5F1F4F1F930F939E
:102CB0000E94332861E080E00E94A00164E0C80126
:102CC0000E94810161E084E00E94A0014AE06FEF70
:102CD000809192060E94A80261E08EE00E94A0010D
:102CE00062E086EC91E00E948101809192060E9450
:102CF0001D0A0F900F900F900F900F900F902A9633
:102D00000FB6F894DEBF0FBECDBFDF91CF911F91FC
:102D10000F9108950F931F93CF93DF93CDB7DEB735
:102D20002A970FB6F894DEBF0FBECDBF80914F0734
:102D3000882381F08F3F11F49AE001C091E08091E7
:102D40009306981720F4891B8093930603C0811182
:102D50001092930680914E078823C9F08F3F11F49B
:102D60005AE001C051E040919306242F30E08FEFEC
:102D700090E0851B91092817390724F4450F4093EB
:102D8000930605C04F3F19F08FEF80939306809113
:102D900093061F928F938AE993E09F938F938E01FE
:102DA0000F5F1F4F1F930F930E94332861E080E055
:102DB0000E94A00164E0C8010E94810161E084E0FA
:102DC0000E94A0014AE06FEF809193060E94A80242
:102DD00061E08EE00E94A00162E086EC91E00E943A
:102DE0008101809193060E94200A0F900F900F900E
:102DF0000F900F900F902A960FB6F894DEBF0FBE7B
:102E0000CDBFDF91CF911F910F9108950F931F9325
:102E1000CF93DF93CDB7DEB72A970FB6F894DEBF16
:102E20000FBECDBF80914F078823F1F08F3F19F47B
:102E300080ED97E002C088EE93E0209194063091F7
:102E40009506AC0140575A494217530738F4281BDE
:102E5000390B309395062093940606C080E995E6D9
:102E6000909395068093940680914E07882341F1B4
:102E70008F3F19F420ED37E002C028EE33E0E091F7
:102E80009406F0919506AF0160E070E088ED96ED54
:102E9000A0E0B0E0821B930BA109B10948175907C4
:102EA0006A077B073CF42E0F3F1F30939506209353
:102EB000940606C088ED96ED90939506809394064F
:102EC000809194069091950668EE73E00E94E1254A
:102ED0007F936F9380EA93E09F938F938E010F5FB0
:102EE0001F4F1F930F930E94332861E087E00E94D9
:102EF000A00163E0C8010E9481010F900F900F9024
:102F00000F900F900F902A960FB6F894DEBF0FBE69
:102F1000CDBFDF91CF911F910F9108950F931F9314
:102F2000CF93DF93CDB7DEB72A970FB6F894DEBF05
:102F30000FBECDBF80914F07882379F08F3F11F4EA
:102F40008AE001C081E090919107891720F4981BD5
:102F50009093910702C01092910780914E078823A9
:102F6000B9F08F3F11F44AE001C041E05091910760
:102F7000252F30E08FEF90E0841B91092817390747
:102F800024F4450F4093910703C08FEF809391077E
:102F9000809191071F928F9387EA93E09F938F937D
:102FA0008E010F5F1F4F1F930F930E94332861E024
:102FB00080E00E94A00164E0C8010E94810161E0FC
:102FC00084E00E94A0014AE06FEF809191070E9487
:102FD000A80261E08EE00E94A00162E086EC91E030
:102FE0000E9481016091910770E080E00E94920A46
:102FF0000F900F900F900F900F900F902A960FB692
:10300000F894DEBF0FBECDBFDF91CF911F910F911E
:1030100008950F931F93CF93DF93CDB7DEB72A9711
:103020000FB6F894DEBF0FBECDBF80914F07882347
:1030300079F08F3F11F48AE001C081E090918F0711
:10304000891720F4981B90938F0702C010928F0766
:1030500080914E078823B9F08F3F11F44AE001C0F8
:1030600041E050918F07252F30E08FEF90E0841BD7
:1030700091092817390724F4450F40938F0703C09F
:103080008FEF80938F0780918F071F928F9387EA2E
:1030900093E09F938F938E010F5F1F4F1F930F93AA
:1030A0000E94332861E080E00E94A00164E0C80132
:1030B0000E94810161E084E00E94A0014AE06FEF7C
:1030C00080918F070E94A80261E08EE00E94A0011B
:1030D00062E086EC91E00E94810160918F0770E0D0
:1030E00081E00E94920A0F900F900F900F900F9026
:1030F0000F902A960FB6F894DEBF0FBECDBFDF91BA
:10310000CF911F910F9108950F931F93CF93DF934A
:10311000CDB7DEB72A970FB6F894DEBF0FBECDBF8E
:1031200080914F078823F1F08F3F19F480ED97E0ED
:1031300002C088EE93E02091740730917507AC01CE
:103140004053584F4217530738F4281B390B30931C
:1031500075072093740706C080ED97E0909375077C
:103160008093740780914E07882311F18F3F19F4E3
:1031700080ED97E002C088EE93E040917407509193
:103180007507209194063091950628583341B9016E
:10319000681B790B4617570738F4840F951F9093D7
:1031A00075078093740704C03093750720937407E4
:1031B000809174079091750768EE73E00E94E12595
:1031C0007F936F9380EA93E09F938F938E010F5FBD
:1031D0001F4F1F930F930E94332861E087E00E94E6
:1031E000A00163E0C8010E9481010E946E110F904E
:1031F0000F900F900F900F900F902A960FB6F894A3
:10320000DEBF0FBECDBFDF91CF911F910F9108950B
:1032100080914F078823D9F08F3F19F420ED37E0D4
:1032200002C028EE33E08091740790917507A901E0
:10323000485F5D4A4817590718F4821B930B02C078
:1032400088E092E5909375078093740702C020E0B0
:1032500030E080914E07882311F18F3F19F420ED63
:1032600037E002C028EE33E04091740750917507B3
:10327000809194069091950688589341BC01621BF9
:10328000730B4617570738F4420F531F50937507B7
:103290004093740704C090937507809374078091DE
:1032A000740790917507A0E0B0E080937E0690933C
:1032B0007F06A0938006B093810680938206909348
:1032C0008306A0938406B0938506232B51F080E0FB
:1032D0000E941D1360E080E00E948C088AE00C943C
:1032E000B90E08954F925F926F927F928F929F9244
:1032F000AF92BF92EF92FF920F931F93CF93DF9302
:10330000CDB7DEB72A970FB6F894DEBF0FBECDBF9C
:1033100080914F07882399F18F3F19F400ED17E052
:1033200002C008EE13E08090760790907707A09097
:103330007807B09079070E94421120E030E0280120
:103340003901460E571E681E791E481459046A0436
:103350007B0468F4801A910AA20AB30A8092760765
:1033600090927707A0927807B092790708C060938F
:103370007607709377078093780790937907809109
:103380004E07882399F18F3F19F400ED17E002C032
:1033900008EE13E08090760790907707A09078076A
:1033A000B09079070E94121120E030E02B013C011F
:1033B000401A510A620A730A84149504A604B704D9
:1033C00068F4800E911EA21EB31E80927607909222
:1033D0007707A0927807B092790708C060937607C4
:1033E00070937707809378079093790760917607B9
:1033F000709177078091780790917907E8EE8E2E8B
:10340000E3E09E2EA12CB12CA50194010E94092677
:103410001F922F9380EA93E09F938F938E010F5F0B
:103420001F4F1F930F930E94332861E087E00E9493
:10343000A00163E0C8010E948101E0907407F09050
:1034400075079701A4E6B0E00E9450262B013C01CD
:10345000609176077091770780917807909179074E
:10346000A50194010E940926DA01C90124E630E091
:1034700040E050E0281B390B4A0B5B0BC301B20143
:103480000E94092620937E0630937F064093800693
:1034900050938106C701A0E0B0E08093820690932C
:1034A0008306A0938406B09385060F900F900F902B
:1034B0000F900F900F902A960FB6F894DEBF0FBEB4
:1034C000CDBFDF91CF911F910F91FF90EF90BF90F3
:1034D000AF909F908F907F906F905F904F900895E6
:1034E0002F923F924F925F926F927F928F929F9214
:1034F000AF92BF92CF92DF92EF92FF920F931F9302
:10350000CF93DF93CDB7DEB764970FB6F894DEBFE5
:103510000FBECDBF0E94CA0B882309F181E08093C2
:103520007906419A439A2A982B984298409860E0ED
:1035300080E00E94A00160E18CEA93E00E9481019A
:1035400061E080E00E94A00160E14A9903C08DEB38
:1035500093E002C08EEC93E00E9481016CC08091E8
:103560009007811160C00E941B126091A6067091A5
:10357000A7068091A8069091A9064090A2065090B7
:10358000A3066090A4067090A506F8EE8F2EF3E0D7
:103590009F2EA12CB12CA50194010E940926122F67
:1035A000032F342E252EA4E6CA2ED12CE12CF12C8B
:1035B000A70196010E9409265F934F933F932F9393
:1035C0002F923F920F931F93C301B201A501940163
:1035D0000E940926122F032FB42EA52EA7019601B3
:1035E0000E9409265F934F933F932F93AF92BF9210
:1035F0000F931F9384E892E09F938F938E010F5F48
:103600001F4F1F930F930E94332861E080E00E94B8
:10361000A00160E1C8010E9481010FB6F894DEBFED
:103620000FBECDBF02C00E9458130E94C50E81116B
:1036300002C00E94480B64960FB6F894DEBF0FBE1E
:10364000CDBFDF91CF911F910F91FF90EF90DF9051
:10365000CF90BF90AF909F908F907F906F905F9032
:103660004F903F902F9008950F931F93CF93DF9328
:10367000CDB7DEB72A970FB6F894DEBF0FBECDBF29
:1036800080914F078823C9F08F3F19F48AE090E0BA
:1036900002C081E090E0209188063091890682176F
:1036A000930738F4281B390B30938906209388063A
:1036B00004C0109289061092880680914E078823D4
:1036C00001F18F3F19F48AE090E002C081E090E0C0
:1036D000409188065091890620918C0630918D0684
:1036E000B901681B790B4617570738F4840F951FEB
:1036F000909389068093880604C0309389062093AE
:103700008806809189068F93809188068F938FED2C
:1037100093E09F938F938E010F5F1F4F1F930F9323
:103720000E94332861E086E00E94A00164E0C801A5
:103730000E9481010E94C70960E070E080E00E9461
:10374000920A60E070E081E00E94920A0F900F9070
:103750000F900F900F900F902A960FB6F894DEBF3F
:103760000FBECDBFDF91CF911F910F9108950F93A1
:103770001F93CF93DF93CDB7DEB72A970FB6F89498
:10378000DEBF0FBECDBF80914F07882301F18F3F71
:1037900019F48AE090E002C081E090E040918C064C
:1037A00050918D062091880630918906B901681BD9
:1037B000790B6417750738F4481B590B50938D0625
:1037C00040938C0604C030938D0620938C06809124
:1037D0004E078823F1F08F3F19F48AE090E002C091
:1037E00081E090E040918C0650918D0620E137E217
:1037F000B901681B790B4617570738F4840F951FDA
:1038000090938D0680938C0604C030938D06209390
:103810008C0680918D068F9380918C068F938FED0F
:1038200093E09F938F938E010F5F1F4F1F930F9312
:103830000E94332861E086E00E94A00164E0C80194
:103840000E9481010E94C7096FEF70E080E00E9432
:10385000920A60E070E081E00E94920A0F900F905F
:103860000F900F900F900F902A960FB6F894DEBF2E
:103870000FBECDBFDF91CF911F910F9108950F9390
:103880001F93CF93DF93CDB7DEB72A970FB6F89487
:10389000DEBF0FBECDBF80914F078823C9F08F3F99
:1038A00019F48AE090E002C081E090E020918A065D
:1038B00030918B068217930738F4281B390B30930D
:1038C0008B0620938A0604C010928B0610928A06FB
:1038D00080914E07882301F18F3F19F48AE090E030
:1038E00002C081E090E040918A0650918B062091C1
:1038F0008E0630918F06B901681B790B4617570762
:1039000038F4840F951F90938B0680938A0604C029
:1039100030938B0620938A0680918B068F9380913B
:103920008A068F938FED93E09F938F938E010F5FA5
:103930001F4F1F930F930E94332861E086E00E947F
:10394000A00164E0C8010E9481010E94C70960E0F3
:1039500070E080E00E94920A60E070E081E00E94E6
:10396000920A0F900F900F900F900F900F902A9641
:103970000FB6F894DEBF0FBECDBFDF91CF911F9180
:103980000F9108950F931F93CF93DF93CDB7DEB7B9
:103990002A970FB6F894DEBF0FBECDBF80914F07B8
:1039A000882301F18F3F19F48AE090E002C081E0A2
:1039B00090E040918E0650918F0620918A063091BA
:1039C0008B06B901681B790B6417750738F4481B1F
:1039D000590B50938F0640938E0604C030938F0688
:1039E00020938E0680914E078823F1F08F3F19F4C3
:1039F0008AE090E002C081E090E040918E06509114
:103A00008F0620E137E2B901681B790B461757078B
:103A100038F4840F951F90938F0680938E0604C010
:103A200030938F0620938E0680918F068F9380911E
:103A30008E068F938FED93E09F938F938E010F5F90
:103A40001F4F1F930F930E94332861E086E00E946E
:103A5000A00164E0C8010E9481010E94C70960E0E2
:103A600070E080E00E94920A6FEF70E081E00E94B7
:103A7000920A0F900F900F900F900F900F902A9630
:103A80000FB6F894DEBF0FBECDBFDF91CF911F916F
:103A90000F9108950F931F93CF93DF93CDB7DEB7A8
:103AA0002A970FB6F894DEBF0FBECDBF80914F07A7
:103AB0008823C9F08F3F19F48AE090E002C081E0CA
:103AC00090E020919006309191068217930738F488
:103AD000281B390B309391062093900604C0109256
:103AE00091061092900680914E078823F1F08F3F47
:103AF00019F48AE090E002C081E090E040919006E5
:103B00005091910620E83EE3B901681B790B4617F6
:103B1000570738F4840F951F909391068093900671
:103B200004C03093910620939006809191068F9364
:103B3000809190068F938FED93E09F938F938E01EA
:103B40000F5F1F4F1F930F930E94332861E086E0A1
:103B50000E94A00164E0C8010E9481010E94C7097F
:103B600060E070E080E00E94920A60E070E081E036
:103B70000E94920A0F900F900F900F900F900F904D
:103B80002A960FB6F894DEBF0FBECDBFDF91CF915E
:103B90001F910F910895CF92DF92EF92FF920F93B2
:103BA0001F93CF93DF93CDB7DEB76B970FB6F89423
:103BB000DEBF0FBECDBF809179068A3009F05AC0B2
:103BC000B0E2CB2EBBE1DB2EBCE7EB2EBCE0FB2E44
:103BD00020919A0630919B0640919C0650919D063B
:103BE000C701B6010E94092689019A010093AA061D
:103BF0001093AB062093AC063093AD061092AE0640
:103C00001092AF061092B0061092B10620919E0657
:103C100030919F064091A0065091A106C701B601C0
:103C20000E94092689019A010093B2061093B306F7
:103C30002093B4063093B5061092B6061092B706DC
:103C40001092B8061092B9060E94C50E082F209156
:103C50009E0630919F064091A0065091A10660916A
:103C60009A0670919B0680919C0690919D060E94F9
:103C700086155AC1863429F4349956C10E945E15BE
:103C800053C1873489F434994FC18AE0809379060F
:103C9000349BFECF359BFCCF369BFACF379BF8CFBA
:103CA0008EE10E94B90E40C1823319F40E940E16B3
:103CB0003BC1833319F40E948A1636C1843319F448
:103CC0000E94061731C18C3319F40E948E172CC143
:103CD0008D3319F40E94091827C1843119F40E9408
:103CE000841822C18B3071F5349B02C0359918C0FD
:103CF00040917E0650917F0660918006709181060A
:103D00008091820690918306A0918406B0918506E9
:103D1000481759076A077B0719F40E94081904C15C
:103D2000369906C0379904C081E080939007FCC0A3
:103D30003799FAC0369BF8C01092900780E00E9435
:103D40001D13F2C0853119F40E947219EDC081353E
:103D500009F0D2C080910101875090E08830910530
:103D600068F5FC01EE5AFF4F0C944A26209150074B
:103D70003091510725C0209152073091530720C040
:103D800020915407309155071BC020915607309160
:103D9000570716C0209158073091590711C020913C
:103DA0005A0730915B070CC020915C0730915D078A
:103DB00007C020915E0730915F0702C020E030E02D
:103DC00040914F07442391F04F3F19F44AE050E0EF
:103DD00002C041E050E0BA016E5F7F472617370707
:103DE0001CF0241B350B02C021E030E840914E0747
:103DF000442399F04F3F19F44AE050E002C041E0FB
:103E000050E06FEF7FE7641B750B261737071CF434
:103E1000240F351F02C02FEF3FE7AE014B5E5F4F0F
:103E20008830910508F04BC0FC01E65AFF4F0C9416
:103E30004A26309351072093500785E0E4EEF3E0E3
:103E40002FC0309353072093520785E0E9EEF3E04B
:103E500027C0309355072093540785E0EEEEF3E03A
:103E60001FC0309357072093560787E0E0E1F4E046
:103E700020C0309359072093580785E0E3EFF3E023
:103E80000FC030935B0720935A0785E0E8EFF3E01B
:103E900007C030935D0720935C0785E0EDEFF3E00A
:103EA000DA0109C030935F0720935E0787E0E7E1FE
:103EB000F4E0DE01559601900D928A95E1F73F936B
:103EC0002F935F934F9382E094E09F938F938E01A3
:103ED0000F5F1F4F1F930F930E94332861E080E014
:103EE0000E94A00160E1C8010E9481010FB6F89410
:103EF000DEBF0FBECDBF18C08B3519F40E94341B36
:103F000013C08C3519F40E94B71B0EC08D3519F4FF
:103F10000E943F1C09C08E3519F40E94C21C04C0C7
:103F20008F3511F40E944A1D809179068B3011F46F
:103F30000E94701A6B960FB6F894DEBF0FBECDBF0D
:103F4000DF91CF911F910F91FF90EF90DF90CF9075
:103F50000895809179060895809379060895CF9306
:103F6000DF93FC018491EF012196882321F00E94C8
:103F7000750EFE01F7CFDF91CF9108958CE592E0A9
:103F80000C94AF1F4F925F926F927F928F929F928D
:103F9000AF92BF92CF92DF92EF92FF920F931F9357
:103FA000CF93DF93CDB7DEB7C458D1090FB6F894DD
:103FB000DEBF0FBECDBF0E943E0EF82E082F192F78
:103FC00010FDD0C513FF04C08EE194E00E948E0E58
:103FD00012FF04C089E294E00E948E0E11FF04C01B
:103FE00086E394E00E948E0E8EE3F8120EC08FE0FE
:103FF000E82FF0E0E959F94F10828150C9F781E0CC
:1040000080936606F09267069FC5E09166060115EB
:10401000110521F00D30110509F08EC5EE2EF12CA1
:1040200090E1E916F10408F044C0809167068E33F0
:1040300009F03FC060E571E087E696E00E94FE2748
:104040008C010097B1F1E2E0EE16F10490F180915D
:104050006806833509F02EC464E474E0C8010E9448
:104060000328892B49F560E571E080E090E00E942B
:10407000FE27FC0101900020E9F7BF0161507109A2
:10408000681B790B0FEF10E020E030E0AE014F5FCE
:104090005F4F0E94010887FF03C082E692E09BC049
:1040A0008981809392060E941D0A0E94CB080E947B
:1040B000BE1FE7E6F6E03AC568E474E0C8010E9476
:1040C0000328892B19F560E571E080E090E00E94FB
:1040D000FE27FC0101900020E9F7BF016150710942
:1040E000681B790B0FEF10E020E030E0AE014F5F6E
:1040F0005F4F0E94010887FF03C08CE492E06BC011
:104100008981809393060E94200ACFCF6CE474E0EB
:10411000C8010E940328892B89F560E571E080E0E1
:1041200090E00E94FE27FC0101900020E9F7BF010A
:1041300061507109681B790B01E410E025E130E062
:10414000AE014F5F5F4F0E94010887FF03C088E305
:1041500092E041C049815A8128EE33E0429FC0017C
:10416000439F900D529F900D11249093950680933C
:1041700094060E94CB080E946E1199CF60E574E00E
:10418000C8010E940328892BC9F560E571E080E031
:1041900090E00E94FE277C01FC0101900020E9F7DD
:1041A0003197E81BF90B809194069091950668EE83
:1041B00073E00E94E125655071098B0125E130E033
:1041C000AE014F5F5F4F6E2FC7010E94010887FF4E
:1041D00005C08AE292E00E94AF1F6BCF49815A81ED
:1041E00028EE33E0429FC001439F900D529F900DF7
:1041F000112490937507809374075BC065E574E0A4
:10420000C8010E940328892B09F058C060E571E0BD
:1042100080E090E00E94FE275C010E9412112B01B9
:104220003C010E944211CF57DF4F688379838A8314
:104230009B83C158D040F50101900020E9F7CF01E0
:1042400001974C018A189B0848EEC42E43E0D42EF7
:10425000E12CF12CC301B201A70196010E940926AD
:1042600029013A01CF57DF4F688179818A819B818B
:10427000C158D040A70196010E9409268201AE01D3
:104280004F5F5F4F682DC5010E94010887FF03C083
:104290008CE192E0A0CFA981BA8128EE33E00E94A0
:1042A0005F266093760770937707809378079093E3
:1042B00079070E946E110E942B09F9CE6AE574E01D
:1042C000C8010E940328892B39F560E571E080E080
:1042D00090E00E94FE27FC0101900020E9F7BF0159
:1042E00061507109681B790B01E010E020E030E0BB
:1042F000AE014F5F5F4F0E94010887FF03C08EE051
:1043000092E069CF89819A81892B19F42A98429881
:10431000CECE2A9A429ACBCE6FE574E0C8010E94B5
:104320000328892B39F560E571E080E090E00E9478
:10433000FE27FC0101900020E9F7BF0161507109DF
:10434000681B790B01E010E020E030E0AE014F5F28
:104350005F4F0E94010887FF03C08FEF91E03BCFC2
:1043600089819A81892B19F42B984098A0CE2B9A99
:10437000409A9DCE64E674E0C8010E940328892B10
:1043800009F560E571E080E090E00E94FE27FC0105
:1043900001900020E9F7BF0161507109681B790B9A
:1043A0000FEF10E020E030E0AE014F5F5F4F0E9462
:1043B000010887FF03C080EF91E00DCF69817A810A
:1043C00080E075C269E674E0C8010E940328892B69
:1043D00001F560E571E080E090E00E94FE27FC01BD
:1043E00001900020E9F7BF0161507109681B790B4A
:1043F0000FEF10E020E030E0AE014F5F5F4F0E9412
:10440000010887FF03C081EE91E0E5CE69817A81E2
:104410004DC26EE674E0C8010E940328892B21F585
:1044200060E571E080E090E00E94FE27FC010190D1
:104430000020E9F7BF0161507109681B790B0FEF8C
:104440001FE722E030E8AE014F5F5F4F0E94010896
:1044500087FF03C082ED91E0BECE89819A8190935F
:104460005107809350072CC164E774E0C8010E9493
:104470000328892B21F560E571E080E090E00E943F
:10448000FE27FC0101900020E9F7BF01615071098E
:10449000681B790B0FEF1FE722E030E8AE014F5F9A
:1044A0005F4F0E94010887FF03C083EC91E093CE29
:1044B00089819A81909353078093520701C16AE7DB
:1044C00074E0C8010E940328892B21F560E571E0A2
:1044D00080E090E00E94FE27FC0101900020E9F7B7
:1044E000BF0161507109681B790B0FEF1FE722E0D4
:1044F00030E8AE014F5F5F4F0E94010887FF03C0A5
:1045000084EB91E068CE89819A81909355078093DE
:104510005407D6C060E874E0C8010E940328892BC4
:1045200021F560E571E080E090E00E94FE27FC014B
:1045300001900020E9F7BF0161507109681B790BF8
:104540000FEF10E020E030E0AE014F5F5F4F0E94C0
:10455000010887FF03C083EA91E03DCE89819A81FB
:104560009093570780935607ABC066E874E0C80184
:104570000E940328892B21F560E571E080E090E03E
:104580000E94FE27FC0101900020E9F7BF01615065
:104590007109681B790B0FEF1FE722E030E8AE01CD
:1045A0004F5F5F4F0E94010887FF03C084E991E0DD
:1045B00012CE89819A81909359078093580780C0C1
:1045C0006CE874E0C8010E940328892B21F560E59E
:1045D00071E080E090E00E94FE27FC010190002045
:1045E000E9F7BF0161507109681B790B0FEF1FE7F5
:1045F00022E030E8AE014F5F5F4F0E94010887FF65
:1046000003C085E891E0E7CD89819A8190935B07AB
:1046100080935A0755C062E974E0C8010E940328DC
:10462000892B21F560E571E080E090E00E94FE2793
:10463000FC0101900020E9F7BF0161507109681B7E
:10464000790B0FEF1FE722E030E8AE014F5F5F4FBD
:104650000E94010887FF03C086E791E0BCCD8981F5
:104660009A8190935D0780935C072AC068E974E0A3
:10467000C8010E940328892B31F560E571E080E0D4
:1046800090E00E94FE27FC0101900020E9F7BF01A5
:1046900061507109681B790B0FEF10E020E030E0EA
:1046A000AE014F5F5F4F0E94010887FF03C085E6A0
:1046B00091E091CD89819A8190935F0780935E0705
:1046C0000E945C09F4CC6EE974E0C8010E940328E2
:1046D000892B21F560E571E080E090E00E94FE27E3
:1046E000FC0101900020E9F7BF0161507109681BCE
:1046F000790B00E81EE320E030E0AE014F5F5F4F32
:104700000E94010887FF03C082E591E064CD8981A2
:104710009A819093890680938806BDC066EA74E00A
:10472000C8010E940328892B21F560E571E080E033
:1047300090E00E94FE27FC0101900020E9F7BF01F4
:1047400061507109681B790B00E81EE320E030E03E
:10475000AE014F5F5F4F0E94010887FF03C08FE3E8
:1047600091E039CD89819A8190938B0680938A0656
:1047700092C06EEA74E0C8010E940328892B51F5AB
:1047800060E571E080E090E00E94FE27FC0101906E
:104790000020E9F7BF0161507109681B790B00E83F
:1047A0001EE320E030E0AE014F5F5F4F0E94010842
:1047B00087FF03C08CE291E00ECD89819A819093AE
:1047C0008D0680938C060E94CB080E94C7096FEF6C
:1047D00070E067C066EB74E0C8010E940328892B73
:1047E00079F560E571E080E090E00E94FE27FC0131
:1047F00001900020E9F7BF0161507109681B790B36
:1048000000E81EE320E030E0AE014F5F5F4F0E9402
:10481000010887FF03C089E191E0DDCC89819A819D
:1048200090938F0680938E060E94CB080E94C70942
:1048300060E070E080E00E94920A6FEF70E036C0A6
:104840006EEB74E0C8010E940328892B09F031CC7B
:1048500060E571E080E090E00E94FE27FC0101909D
:104860000020E9F7BF0161507109681B790B00E86E
:104870001EE320E030E0AE014F5F5F4F0E94010871
:1048800087FF03C084E091E0A6CC89819A81909350
:104890009106809390060E94CB080E94C70960E0B1
:1048A00070E080E00E94920A60E070E081E00E9487
:1048B000920AFDCB64EC74E0C8010E940328892BA6
:1048C000E1F5809194069091950668EE73E00E9460
:1048D000E1257F936F93809193061F928F93809130
:1048E00092061F928F93809191068F9380919006EC
:1048F0008F9380918F068F9380918E068F938091F6
:104900008D068F9380918C068F9380918B068F9369
:1049100080918A068F93809189068F938091880673
:104920008F938BEC94E09F938F938E010F5F1F4FBB
:104930001F930F930E943328D5C06DE275E0C80124
:104940000E940328892B81F580915D078F938091C8
:104950005C078F9380915B078F9380915A078F93A9
:10496000809159078F93809158078F9380915507B5
:104970008F93809154078F93809153078F938091E9
:1049800052078F93809151078F93809150078F9397
:1049900083E395E09F938F938E010F5F1F4F1F93CB
:1049A0000F930E9433289EC066E775E0C8010E94FD
:1049B0000328892B09F09FC06091A2067091A3067D
:1049C0008091A4069091A50624E6C22ED12CE12C5C
:1049D000F12CA70196010E94092649015A01609114
:1049E000A6067091A7068091A8069091A906A70136
:1049F00096010E940926809187061F928F938091CD
:104A000086061F928F93EAE0F0E0C901BF010E9481
:104A1000E1259F938F937F936F93C401BF010E9401
:104A2000E1259F938F937F936F936091820670919E
:104A30008306809184069091850638EEC32E33E07C
:104A4000D32EE12CF12CA70196010E9409261F927A
:104A50002F9360917E0670917F06809180069091E1
:104A60008106A70196010E9409261F922F9360914B
:104A70007C0770917D0780917E0790917F07A70149
:104A800096010E9409261F922F9380917A07909198
:104A90007B0708EE13E0B8010E94E1257F936F9336
:104AA00060917607709177078091780790917907E8
:104AB000A70196010E9409261F922F9380917407E7
:104AC00090917507B8010E94E1257F936F9389E764
:104AD00095E09F938F938E010F5F1F4F1F930F934E
:104AE0000E943328C8010E948E0E0FB6F894DEBFD4
:104AF0000FBECDBFDECA60EC75E0C8010E9403287E
:104B0000892B29F40E94F70E0E945E15D0CA64EC2E
:104B100075E0C8010E940328892B09F0CACA8AE0FF
:104B20000E94AC1F8EE10E94B90EC1CA119296E09C
:104B3000E737F907D9F708C081E08E0F8093660642
:104B4000F0E0E959F94FF08280916606803151F426
:104B50008FE0E82FF0E0E959F94F10828150C9F752
:104B600010926606CC57DF4F0FB6F894DEBF0FBE2B
:104B7000CDBFDF91CF911F910F91FF90EF90DF900C
:104B8000CF90BF90AF909F908F907F906F905F90ED
:104B90004F9008950E94230A0E94C21F0E9493050D
:104BA0000E9420140E949108882321F00E94CB1DAE
:104BB0000E94940880917906813071F30E946F08F9
:104BC000EBCFAA1BBB1B51E107C0AA1FBB1FA61737
:104BD000B70710F0A61BB70B881F991F5A95A9F7A6
:104BE00080959095BC01CD01089597FB072E16F492
:104BF000009407D077FD09D00E94E12507FC05D07D
:104C00003EF4909581959F4F0895709561957F4FE3
:104C10000895A1E21A2EAA1BBB1BFD010DC0AA1FFD
:104C2000BB1FEE1FFF1FA217B307E407F50720F015
:104C3000A21BB30BE40BF50B661F771F881F991F90
:104C40001A9469F760957095809590959B01AC01D9
:104C5000BD01CF010895052E97FB1EF400940E941C
:104C6000422657FD07D00E94092607FC03D04EF4C8
:104C70000C94422650954095309521953F4F4F4FCB
:104C80005F4F089590958095709561957F4F8F4FF8
:104C90009F4F0895EE0FFF1F0590F491E02D0994AA
:104CA000A29FB001B39FC001A39F700D811D11246D
:104CB000911DB29F700D811D1124911D08950E94B8
:104CC0005026B7FF0895821B930B08950E9450262B
:104CD000A59F900DB49F900DA49F800D911D112450
:104CE0000895B7FF0C9466260E946626821B930BDC
:104CF0000895DF93CF931F930F939A9DF02D219FDB
:104D0000F00D8B9DF00D8A9DE02DF10D039FF00DB0
:104D1000029FE00DF11D4E9DE00DF11D5E9DF00D19
:104D20004F9DF00D7F936F93BF92AF925F934F9320
:104D3000D5010E9450268B01AC01D7010E9450265C
:104D4000EB01E80FF91FD6010E94C9262F913F9170
:104D5000D6010E945026C60FD71FE81FF91FAF913A
:104D6000BF910E94C9262F913F910E945026C60FE5
:104D7000D71FE81FF91FD6010E945026E60FF71F24
:104D80009801BE01CF0111240F911F91CF91DF91A6
:104D900008950E945026460F571FC81FD91F08F4B8
:104DA00031960895689401C0E894F92FF12B12F020
:104DB0000C940627A0E0B0E0E0EEF6E20C94782731
:104DC000092E059422F40E946227112392F4F0E840
:104DD0000F26FFEFE094F09400951095B094C094E6
:104DE000D094A194BF0ACF0ADF0AEF0AFF0A0F0B83
:104DF0001F0B0E94112707FC0E946227CDB7DEB768
:104E0000ECE00C949427689401C0E8948F929F92F0
:104E1000CF93DF930E941127DF91CF919F908F90C6
:104E2000089588249924F401E401B0E49F93AA270B
:104E30009A158B049C04ED05FE05CF05D007A1074C
:104E400098F4AD2FDC2FCF2FFE2FE92D982C892E33
:104E5000982F872F762F652F542F432F322F2227FD
:104E6000B85031F7BF9127C01B2EBF91BB27220F2F
:104E7000331F441F551F661F771F881F991F881CEB
:104E8000991CEE1FFF1FCC1FDD1FAA1FBB1F8A141A
:104E90009B04EC05FD05CE05DF05A007B10748F032
:104EA0008A189B08EC09FD09CE09DF09A00BB10B9C
:104EB00021601A94E1F62EF49401AF01BE01CD01F8
:104EC000000C08956095709580959095309540956B
:104ED000509521953F4F4F4F5F4F6F4F7F4F8F4FF3
:104EE0009F4F08952F923F924F925F926F927F92C1
:104EF0008F929F92AF92BF92CF92DF92EF92FF92EA
:104F00000F931F93CF93DF93CDB7DEB7CA1BDB0B95
:104F10000FB6F894DEBF0FBECDBF09942A8839883A
:104F200048885F846E847D848C849B84AA84B98441
:104F3000C884DF80EE80FD800C811B81AA81B9814D
:104F4000CE0FD11D0FB6F894DEBF0FBECDBFED0161
:104F500008950F93083090F0982F872F762F652FA4
:104F6000542F432F322F22270850F4CF220F331F04
:104F7000441F551F661F771F881F991F0A95B2F798
:104F80000F91089597FB10F8169400080F930830BE
:104F900098F00850232F342F452F562F672F782F46
:104FA000892F902DF4CF05949795879577956795E0
:104FB00057954795379527950A95AAF70F91089524
:104FC0002A0D3B1D4C1D5D1D6E1D7F1D801F911FF9
:104FD00008952A193B094C095D096E097F09800B68
:104FE000910B08950024A7FD00942A173005400571
:104FF00050056005700580059005089547E756E067
:105000000E940C280895FB01DC018D91019080190C
:105010000110D9F3990B0895FA01A191B08100977D
:1050200019F41097E1F0CD01DC01CD010D900020C5
:1050300011F4C00113C0FB012191222319F02015A6
:10504000D9F7F3CFFB012191201519F41E92119687
:1050500006C02223C1F70D900020A1F7D001FA016C
:10506000A193B0830895AEE0B0E0E9E3F8E20C94D8
:1050700080270D891E8986E08C831A8309838FEF30
:105080009FE79E838D83AE01475E5F4F6F89788D6A
:10509000CE0101960E945528EF81F885E00FF11F9F
:1050A00010822E96E4E00C949C27ACE0B0E0EBE597
:1050B000F8E20C9472277C016B018A01FC011782D3
:1050C0001682838181FFBDC1CE0101964C01F7019B
:1050D0009381F60193FD859193FF81916F01882360
:1050E00009F4ABC1853239F493FD859193FF819129
:1050F0006F01853229F4B70190E00E94652AE7CF5D
:10510000512C312C20E02032A0F48B3269F030F4A5
:10511000803259F0833269F420612CC08D3239F02D
:10512000803339F4216026C02260246023C02860C7
:1051300021C027FD27C030ED380F3A3078F426FF24
:1051400006C0FAE05F9E300D1124532E13C08AE092
:10515000389E300D1124332E20620CC08E3221F483
:1051600026FD6BC1206406C08C3611F4206802C095
:10517000883641F4F60193FD859193FF81916F018B
:105180008111C1CF982F9F7D9554933028F40C5FE7
:105190001F4FFFE3F9830DC0833631F0833771F081
:1051A000833509F05BC022C0F801808189830E5FDE
:1051B0001F4F44244394512C540115C03801F2E090
:1051C0006F0E711CF801A080B18026FF03C0652D11
:1051D00070E002C06FEF7FEFC5012C870E945A2A52
:1051E0002C0183012C852F77222E17C03801F2E085
:1051F0006F0E711CF801A080B18026FF03C0652DE1
:1052000070E002C06FEF7FEFC5012C870E944F2A2C
:105210002C012C852068222E830123FC1BC0832DAA
:1052200090E048165906B0F4B70180E290E00E9481
:10523000652A3A94F4CFF50127FC859127FE8191E8
:105240005F01B70190E00E94652A31103A94F1E0C5
:105250004F1A51084114510471F7E5C0843611F01A
:10526000893639F5F80127FF07C060817181828195
:1052700093810C5F1F4F08C060817181882777FD83
:105280008095982F0E5F1F4F2F76B22E97FF09C083
:1052900090958095709561957F4F8F4F9F4F2068B7
:1052A000B22E2AE030E0A4010E94972AA82EA81866
:1052B00044C0853729F42F7EB22E2AE030E025C085
:1052C000F22FF97FBF2E8F36C1F018F4883579F0B0
:1052D000B4C0803719F0883721F0AFC02F2F20617C
:1052E000B22EB4FE0DC08B2D8460B82E09C024FFF1
:1052F0000AC09F2F9660B92E06C028E030E005C096
:1053000020E130E002C020E132E0F801B7FE07C042
:1053100060817181828193810C5F1F4F06C0608123
:10532000718180E090E00E5F1F4FA4010E94972AD8
:10533000A82EA818FB2DFF77BF2EB6FE0BC02B2D75
:105340002E7FA51450F4B4FE0AC0B2FC08C02B2D69
:105350002E7E05C07A2C2B2D03C07A2C01C0752C13
:1053600024FF0DC0FE01EA0DF11D8081803311F490
:10537000297E09C022FF06C07394739404C0822F53
:10538000867809F0739423FD13C020FF06C05A2CC1
:10539000731418F4530C5718732C731468F4B70172
:1053A00080E290E02C870E94652A73942C85F5CFCB
:1053B000731410F4371801C0312C24FF12C0B70148
:1053C00080E390E02C870E94652A2C8522FF17C07D
:1053D00021FF03C088E590E002C088E790E0B701B4
:1053E0000CC0822F867859F021FD02C080E201C0F6
:1053F0008BE227FD8DE2B70190E00E94652AA5149B
:1054000038F4B70180E390E00E94652A5A94F7CF00
:10541000AA94F401EA0DF11D8081B70190E00E9489
:10542000652AA110F5CF332009F451CEB70180E2EF
:1054300090E00E94652A3A94F6CFF7018681978121
:1054400002C08FEF9FEF2C96E2E10C948E27DC01D7
:10545000CB01FC01F999FECF06C0F2BDE1BDF89A7F
:10546000319600B40D9241505040B8F70895DC01D8
:10547000CB0103C02D910E94422A41505040D0F7E9
:105480000895262FF999FECF1FBA92BD81BD20BD88
:105490000FB6F894FA9AF99A0FBE01960895FC0196
:1054A0000590615070400110D8F7809590958E0F4F
:1054B0009F1F0895FC016150704001900110D8F7C2
:1054C000809590958E0F9F1F08950F931F93CF93F4
:1054D000DF93182F092FEB018B8181FD03C08FEF24
:1054E0009FEF20C082FF10C04E815F812C813D81E3
:1054F000421753077CF4E881F9819F012F5F3F4FEA
:1055000039832883108306C0E885F985812F0995A2
:10551000892B29F72E813F812F5F3F4F3F832E83B9
:10552000812F902FDF91CF911F910F910895FA0154
:10553000AA27283051F1203181F1E8946F936E7FD2
:105540006E5F7F4F8F4F9F4FAF4FB1E03ED0B4E0C3
:105550003CD0670F781F891F9A1FA11D680F791F04
:105560008A1F911DA11D6A0F711D811D911DA11D15
:1055700020D009F468943F912AE0269F1124301925
:10558000305D3193DEF6CF010895462F4770405DC0
:105590004193B3E00FD0C9F7F6CF462F4F70405D6F
:1055A0004A3318F0495D31FD4052419302D0A9F7CA
:1055B000EACFB4E0A6959795879577956795BA95C4
:1055C000C9F700976105710508959B01AC010A2E8A
:1055D00006945795479537952795BA95C9F7620F61
:0E55E000731F841F951FA01D0895F894FFCF20
:1055EE00FFFF01FFFFFFFF496E6974696E672E2E84
:1055FE002E00414443204572726F72210053312EAA
:10560E002E2E004F4B202053322E2E2E004F4B00AD
:10561E002020202052756E20546573742020203E69
:10562E00002020202020202020202020202020208C
:10563E00200020202043616C696272617465202015
:10564E00203E004F323C20204F787967656E202037
:10565E0020202B00486520202020202020202020E4
:10566E002020202D004F3220202048656C69756D5A
:10567E00202020202B0048653C20202020202020A8
:10568E0020202020202D0020204272696768746E31
:10569E006573732020202B00202020202020202026
:1056AE00202020202020202D0020202020436F6E3F
:1056BE0074726173742020202B002020456D65725A
:1056CE0067656E6379204F32202B0020205365745E
:1056DE00204F322076616C7665202B00202053659A
:1056EE00742048652076616C7665202B0050494405
:1056FE00207365747570204D415820202B00504941
:10570E00442073657475702078313238202B002058
:10571E0020536572766F31204D494E2020202B008C
:10572E002020536572766F31204D41582020202B5A
:10573E00002020536572766F32204D494E20202076
:10574E002B002020536572766F32204D4158202059
:10575E00202B002020202054696D657231202020DE
:10576E0020202B0053313A25326C692E2530316CB6
:10577E00692053323A25326C692E2530316C6920FE
:10578E002000544D582532752F253275203E253276
:10579E00752F2532753C0045414E2532752020204F
:1057AE00203E45414E2532753C00742530327563DE
:1057BE0025303275207374253032752076253033BE
:1057CE00750043616E27742063616C696272617447
:1057DE0065210053656E736F7273206661696C7517
:1057EE0072652100204D6178206465766961746967
:1057FE006F6E3A200020202020253575207556200A
:10580E002020202000202020436865636B696E678E
:10581E002E2E2E202000202020202020444F4E45CA
:10582E002120202020200053313A2025356C697527
:10583E0056202020203E0053313A2025356C6975C4
:10584E005620202020200053323A2025356C6975D1
:10585E005620202532647300506C656173652C20D0
:10586E007475726E206F6E2000796F757220636F83
:10587E006D70726573736F72210025303375200061
:10588E002530327525250025337520002020204532
:10589E006D657267656E6379212020200020204F90
:1058AE003220746F6F206869676821202000436F73
:1058BE006D70726573736F723A20204F46460025E5
:1058CE003034750053315F500053315F490053310E
:1058DE005F440053325F500053325F490053325FD2
:1058EE0044002573202020253035642020202D00F3
:1058FE0053315F4D41580053325F4D4158003C21AA
:10590E004531204672616D65003C214532204F764F
:10591E00657272756E003C214533204F7665726656
:10592E006C6F77003E5342003E5343003E5345009A
:10593E003E534F32003E534865003E535631003EB3
:10594E00535632003E535331003E535332003E53B2
:10595E00503150003E53503149003E5350314400B7
:10596E003E5350314D003E53503250003E53503254
:10597E0049003E53503244003E5350324D003E5388
:10598E0053314D494E003E5353324D494E003E5316
:10599E0053314D4158003E5353324D4158003E5302
:1059AE00544D52003E47434F4E46003C53314D49F5
:1059BE004E3A253034640D0A3C53324D494E3A2549
:1059CE003034640D0A3C53314D41583A253034641D
:1059DE000D0A3C53324D41583A253034640D0A3C81
:1059EE0054494D45523A253035640D0A3C42523ADF
:1059FE00253033640D0A3C43543A253033640D0A86
:105A0E003C4F32454D3A253032640D0A003E475028
:105A1E004944003C5031703A253033640D0A3C50F5
:105A2E0031693A253033640D0A3C5031643A2530E1
:105A3E0033640D0A3C5032703A253033640D0A3C03
:105A4E005032693A253033640D0A3C5032643A259F
:105A5E003033640D0A003E3F003C20253032752F56
:105A6E00253032752C20253032752F253032752C8D
:105A7E0020253032752C20253032752C20253032E1
:105A8E00752E253031752C20253032752E2530316E
:105A9E00752C20253033642C20253033640D0A00FC
:085AAE003E5254003E52430039
:00000001FF
