:100000000C945E000C947B000C947B000C947B00A1
:100010000C947B000C947B000C947B000C947B0074
:100020000C947B000C947B000C947B000C947B0064
:100030000C947B000C947B000C947B000C947B0054
:100040000C947B000C947B000C9410070C947B00A8
:100050000C94320C0C94670C0C947B000C947B0079
:100060000C947B000C947B000C947B000C947B0024
:100070000C947B000C947B000C947B00001F000010
:1000800000001F00001F101010101F00001F181884
:1000900018181F00001F1C1C1C1C1F00001F1E1E08
:1000A0001E1E1F00001F1F1F1F1F1F0003070F1F03
:1000B0000F070300181C1E1F1E1C180011241FBE52
:1000C000CFEFD0E1DEBFCDBF13E0A0E0B1E0EEE6C0
:1000D000FCE302C005900D92A43CB107D9F715E0EE
:1000E000A4ECB3E001C01D92A83DB107E1F70E9466
:1000F000C1180C94351E0C9400003F924F925F92F1
:100100006F927F928F929F92AF92BF92CF92DF9227
:10011000EF92FF920F931F93CF93DF9381E00E94A2
:100120009606DC01CB019C01AD0160E070E080E04F
:1001300090E04058510961097109810991095901FB
:100140006A017B01E82F192F02E00E941E1B0E2F6F
:100150000E94551B59016A017B01E82F192F04E009
:100160000E941E1B0E2F0E945E1B59016A017B011B
:10017000E82F192F04E00E941E1B0E2F0E945E1B09
:100180004901D42FC52FB62FA72FF82FE92F06E04E
:100190000E941E1B59016A017B018C0194014D2FA5
:1001A0005C2F6B2F7A2F8F2F9E2F0E94551BD22EE4
:1001B000E32EF42ED52FC62FB72FF82FE92FA0E06E
:1001C0000E94671B84F42150310940485F4F6F4FF4
:1001D0007F4F8F4F9F4FD22EE32EF42ED52FC62F59
:1001E000B72FF82FE92F2D2D3E2D4F2D5D2F6C2F82
:1001F0007B2F8F2F9E2F07E10E94371BC22FB32F1B
:10020000F42FE52F362E472E982ED92FA0E00E94EE
:10021000671B54F40E94D71AC22FB32FF42FE52F77
:10022000362E472E982ED92F8091C603811183C078
:100230005C2E6B2E7F2E8E2EC0932B05B0932C053B
:10024000F0932D05E0932E05A0903B05B0903C0562
:10025000C0903D05D0903E05E0903F05F0904005F0
:1002600000914105109142052C2F3B2F4F2F5E2FFF
:10027000632D742D892D9D2F0E94251AB0E1AB2E80
:10028000C7E2BC2EC12CD12CE12CF12C00E010E0F7
:100290000E94E819209333053093340540933505C7
:1002A00050933605E0914B0584E0E89FF00111245E
:1002B000EF59FA4F508261827282838281E080938B
:1002C000C6030E94BB188B3051F5609133057091C5
:1002D00034058091350590913605AAE08A2E912C3F
:1002E000A12CB12CA50194010E94AD1969017A01DC
:1002F00060910F0570911005809111059091120584
:10030000A50194010E94AD19DA01C9014CEF54E036
:10031000B6010E94730BBC0180E00E944C098091E1
:100320004B0591E0980F90934B058A3008F491C0EB
:1003300010924B058EC08B2E6F2E5E2EC0932F0514
:10034000B0933005F0933105E0933205A09043055A
:10035000B0904405C0904505D0904605E090470513
:10036000F09048050091490510914A052C2F3B2F2C
:100370004F2F5E2F632D742D892D9D2F0E94251ADE
:10038000E0E1AE2EF7E2BF2EC12CD12CE12CF12CF6
:1003900000E010E00E94E8192093370530933805FB
:1003A0004093390550933A05E0914C0584E0E89F6D
:1003B000F0011124E757FA4FC08381826282538291
:1003C0001092C6030E94BB188B30C9F580901305AC
:1003D00090901405A0901505B090160580910F051A
:1003E00090911005A0911105B091120588159905FD
:1003F000AA05BB0521F16091370570913805809100
:10040000390590913A052AE0422E512C612C712C2D
:10041000A30192010E94AD1969017A01C501B401DD
:10042000A30192010E94AD19DA01C9014AEE54E01C
:10043000B6010E94730BBC0181E00E944C098091BF
:100440004C0591E0980F90934C058A3010F0109273
:100450004C058091C603DF91CF911F910F91FF90C2
:10046000EF90DF90CF90BF90AF909F908F907F9054
:100470006F905F904F903F900C9407071F93CF931E
:10048000DF930E94AC0C182FEC01D0FD1EC0D3FFEF
:1004900004C085E091E00E94FC0CD2FF04C088E11A
:1004A00091E00E94FC0CD1FF04C08DE291E00E941B
:1004B000FC0C1F3321F485E491E00E94FC0C812F99
:1004C000DF91CF911F910C94E30CDF91CF911F919D
:1004D000089582B9299A289A8FEF91E10197F1F74F
:1004E00000C00000289829988FEF91E10197F1F75B
:1004F00000C00000089582B9289A8FEF91E101971A
:10050000F1F700C0000028988FEF91E10197F1F713
:1005100000C00000089581E00C947B0282E00C94FE
:100520007B02EF92FF921F93CF93DF931F92CDB781
:10053000DEB7009771F0182F7C018E2D811B861776
:1005400040F4F70181917F0169830E94690269810A
:10055000F4CF0F90DF91CF911F91FF90EF9008950E
:10056000623031F0633031F0613029F4805C03C0D7
:100570008C5E01C08C5A80680C947B021F93CF93D1
:10058000DF93EC01862F642F0E94B00210E0FE0181
:10059000E10FF11D8491882321F00E9469021F5F01
:1005A000F6CFDF91CF911F910895EF92FF920F93B5
:1005B0001F93CF93DF938C0188E0689FB0011124D3
:1005C000862F8064E82EC0E0D0E0F801EC0FFD1F1C
:1005D000F4908C2F8E0D0E947B028F2D0E94690259
:1005E0002196C830D10589F7DF91CF911F910F91E6
:1005F000FF90EF9008951F93CF93DF932FEF87ED38
:1006000090E0215080409040E1F700C0000012B817
:1006100015B881B18FEF81B984B1836084B980E36B
:1006200082B9289A8FEF91E10197F1F700C000009D
:1006300028988FEF91E10197F1F700C0000080E367
:1006400082B9289A8FEF91E10197F1F700C000007D
:1006500028988FEF91E10197F1F700C0000080E347
:1006600082B9289A8FEF91E10197F1F700C000005D
:1006700028988FEF91E10197F1F700C0000088E31F
:1006800082B9289A8FEF91E10197F1F700C000003D
:1006900028988FEF91E10197F1F700C000008CE0FE
:1006A00082B9289A8FEF91E10197F1F700C000001D
:1006B00028988FEF99E50197F1F700C00000CCE78B
:1006C000D0E060E011E0160FCE010E94D50228961E
:1006D000183011F0612FF6CFDF91CF911F9108955F
:1006E000CF93DF93D82FC0E0CD1729F08EE10E9481
:1006F0007B02CF5FF9CFDF91CF910895CF93DF9346
:10070000D82FC0E0CD1729F088E10E947B02CF5F8F
:10071000F9CFDF91CF9108958EE00C947B028FE0AA
:100720000C947B028CE00C947B0288E00C947B029E
:100730008CE00C947B02CF93DF93D82FC0E0CD17D1
:1007400029F080E10E947B02CF5FF9CFDF91CF914A
:100750000895CF93DF93D82FC0E0CD1729F084E11F
:100760000E947B02CF5FF9CFDF91CF910895CF92A6
:10077000DF92EF92FF920F931F93CF93DF931F921D
:10078000CDB7DEB756E0459F90011124E82FE29FD8
:10079000C001E39F900D112470E00E9499198B0114
:1007A000CB0166E070E00E948519E82EC12CD12CA7
:1007B000F12CF416B9F096012B5F3F4F0217130787
:1007C00028F40C151D0520F08E2D03C085E001C016
:1007D00080E049830E946902F394F6E0CF0ED11CB9
:1007E0004981E7CF0F90DF91CF911F910F91FF903B
:1007F000EF90DF90CF900895EF92FF920F93CF93F9
:10080000DF93CDB7DEB76B970FB6F894DEBF0FBEA0
:10081000CDBFF82E80E84A993EC0288F398F4A8F85
:100820005B8F6D8B7E8B9F8B0E947B029F899F933A
:10083000FF927E897F936D896F9384E991E09F9306
:100840008F93CE0101967C01FF928F930E94731BC0
:1008500060E1C7010E9491021F920F935B8D5F932D
:100860004A8D4F93398D3F93288D2F9384EA91E0E1
:100870009F938F93FF92EF920E94731B80EC0E94D4
:100880007B0260E1C7010E9491020FB6F894DEBFBF
:100890000FBECDBF13C00E947B0260E185EB91E0EB
:1008A0000E94910280EC0E947B0260E186EC91E064
:1008B0000E9491028FE090E00E94280D6B960FB687
:1008C000F894DEBF0FBECDBFDF91CF910F91FF90A7
:1008D000EF9008950F931F9394B19F7094B994B1C2
:1008E000906B94B994E0099F80011124016598E010
:1008F000299F90011124022B20E2829FC001112424
:10090000082B0CBD81E01F910F910895CF93DF93C9
:1009100000D000D0CDB7DEB7FC01819119821A82D8
:100920001B821C829E012F5F3F4FD901422F9A2FBD
:10093000921B961718F491919D93F9CF813009F489
:100940002C98F9019E2F941B961730F491919EBD1F
:100950000DB407FEFDCFF6CF813009F42C9A862F17
:100960000F900F900F900F90DF91CF910895CF933C
:10097000DF93CDB7DEB728970FB6F894DEBF0FBE72
:10098000CDBFFC0171911D821E821F8218861982C3
:100990001A821B821C82AE014B5F5F4FDA012A2F45
:1009A000241B261718F421912D93F9CF713009F4E7
:1009B0002C989E012F5F3F4FDA01F901422F5E2FE5
:1009C000521B561740F45D915EBD0DB407FEFDCF7E
:1009D0005EB55193F4CF713009F42C9AFC01D90122
:1009E0008A2F841B861718F48D918193F9CF862F57
:1009F00028960FB6F894DEBF0FBECDBFDF91CF9122
:100A000008958091C403882371F08091C4038F5F9F
:100A10008093C4038091C4038C3728F081E08093D5
:100A2000C5031092C40308950F93CF93DF9300D0B2
:100A300000D01F92CDB7DEB785E0E0E0F1E0DE0147
:100A4000119601900D928A95E1F701E021E040E4D2
:100A500052E46FE070E080E00E946A0464E0CE013E
:100A600001960E9486040F900F900F900F900F90A8
:100A7000DF91CF910F910895FF920F931F93CF9322
:100A8000DF9300D000D01F92CDB7DEB7F62E8E01D7
:100A90000F5F1F4F95E0F80111929A95E9F749838E
:100AA0008770F8E08F9FC001112480648A8361E021
:100AB0006F0DC8010E94B704E1E060E070E0CB0177
:100AC0004F2D50E02E2F30E04217530774F0982F2F
:100AD000872F762F6627D801A20FB31F2C91620FA4
:100AE000711D811D911DEF5FEDCF0F900F900F9045
:100AF0000F900F90DF91CF911F910F91FF9008956C
:100B000041E061E084E00E943C051092C403109231
:100B1000C5036F7081E06B3009F080E008950F939A
:100B2000CF93DF93CDB7DEB729970FB6F894DEBF2A
:100B30000FBECDBF4E835F8368877987FE013196F4
:100B400095E0DF011D929A95E9F72F5F0983877081
:100B5000880F880F880F8A83322FBE016A5F7F4F0C
:100B6000323050F0CF01830F911DDB014D91BD015B
:100B7000DC014C933150F4CF622FCF010E948604E8
:100B800029960FB6F894DEBF0FBECDBFDF91CF918F
:100B90000F9108951E99FECF0895CF92DF92EF92A4
:100BA000FF920F936B017C0141E062E081E00E94C3
:100BB0003C05AB01BC015F7166277727D701C601F1
:100BC0000DE0880F991FAA1FBB1F0A95D1F7AA270E
:100BD000BB27482B592B6A2B7B2B01E022E081E0BD
:100BE0000E948F050F91FF90EF90DF90CF900895B6
:100BF000CF92DF92EF92FF920F936B017C0141E065
:100C000062E082E00E943C05AB01BC01487F87E0C6
:100C1000C822DD24EE24FF244C295D296E297F297A
:100C200001E022E082E00E948F050F91FF90EF909B
:100C3000DF90CF900895CF92DF92EF92FF920F93C3
:100C40006B017C0141E062E082E00E943C05AB0167
:100C5000BC01587F87E0C822DD24EE24FF24FE2C4F
:100C6000ED2CDC2CCC244C295D296E297F2901E058
:100C700022E082E00E948F050F91FF90EF90DF90BD
:100C8000CF9008950F93CF93C82F41E062E082E0A8
:100C90000E943C05AB01BC014F7720E8C29FC00118
:100CA00011249927AA2797FDA095BA2F482B592BD5
:100CB0006A2B7B2B01E022E082E00E948F05CF911E
:100CC0000F9108950F93CF93C82F70E080E090E0CC
:100CD0000E94F80541E062E081E00E943C054C2F53
:100CE00050E0542F44275295550F507E60E070E03D
:100CF00001E022E081E00E948F05CF910F910C94DA
:100D0000CA050F932C9800E022E040E050E260E03A
:100D100070E081E00E948F050E94CA0540E063E018
:100D200083E00E943C052C9A0F910895CF92DF92A8
:100D3000EF92FF920F93CF93DF93C82F01E022E051
:100D400040E050E0BA0181E00E948F05D0E0C12C64
:100D5000D12C7601DC1759F041E063E083E00E947A
:100D60003C05C60ED71EE81EF91EDF5FF3CF2D2F00
:100D700030E040E050E0C701B6010E94AD19CA0161
:100D8000B901DF91CF910F91FF90EF90DF90CF905D
:100D900008950F931F93613029F000E810E020E0E0
:100DA00030E004C000E810E420E030E0482F477055
:100DB00050E060E070E040615C60402B512B622BA2
:100DC000732B01E022E082E00E948F051F910F91BA
:100DD00008950F93CF93C82F61E00E94C906369BF8
:100DE00013C00E94CA056C2F84E00E9462066C2F1B
:100DF00085E00E94620601E022E049E050E060E008
:100E000070E081E00E948F05CF910F91089560E01E
:100E10000E94C90681E08093C4031092C50308951F
:100E20001F920F920FB60F9211242F933F934F935F
:100E30005F936F937F938F939F93AF93BF93EF9342
:100E4000FF938091B505893040F180915D059091C7
:100E50005E05019690935E0580935D051092B50541
:100E60000E94010580915D0590915E0562E370E04E
:100E70000E948519892B09F044C080915D059091ED
:100E80005E056AEF70E00E948519892B19F481E0F4
:100E900080935F050E944D0D34C08091B50581306F
:100EA00081F580915D0590915E0564E670E00E9499
:100EB0008519892B31F580915D0590915E0564EF70
:100EC00071E00E948519892BC9F480915D0590918C
:100ED0005E0568EE73E00E948519892B49F48091C4
:100EE000B6059091B70501969093B7058093B60526
:100EF0009091C90381E0891B8093C90381E08093AD
:100F000060058091B5058F5F8093B505FF91EF91E6
:100F1000BF91AF919F918F917F916F915F914F9111
:100F20003F912F910F900FBE0F901F9018958091B9
:100F3000C90308958091C903882351F08091C803A3
:100F40008111419A8091C703882321F0439A089523
:100F50004198439808958091C80308958091C703EC
:100F600008951092C80308951092C70308958093BE
:100F7000C8036093C7030895809160050895109297
:100F80005F05089510926005089580915F050895AA
:100F90008091B6059091B70508954EE050E06CE061
:100FA00070E089E195E00E94671D4CE050E060E050
:100FB00070E08EEB95E00E94671D8091BE059091D8
:100FC000BF05A0E0B0E080930F0590931005A093BB
:100FD0001105B09312058093130590931405A09307
:100FE0001505B093160508954EE050E06CE070E0F2
:100FF0008AEC95E00E94671D2091190530911A0531
:101000008091CA059091CB052817390709F043C094
:1010100020911B0530911C058091CC059091CD0548
:1010200028173907C1F520911D0530911E058091C3
:10103000CE059091CF052817390769F520911F0536
:10104000309120058091D0059091D105281739075E
:1010500011F520912105309122058091D2059091C2
:10106000D30528173907B9F4909123058091D40549
:10107000981311C0909124058091D50598130BC049
:1010800020912505309126058091D6059091D705B0
:101090002817390741F04EE050E06CE070E089E13C
:1010A00095E00C94771D08954CE050E060E070E00E
:1010B0008DE495E00E94671D20914D0530914E050D
:1010C0008091BE059091BF0528173907A9F440917A
:1010D0004F055091500560915105709152058091D6
:1010E000C0059091C105A091C205B091C3054817F4
:1010F00059076A077B0741F04CE050E060E070E080
:101100008EEB95E00C94771D089584B18C6084B9C2
:1011100087B18F6087B98AB1806C8AB95298539829
:101120005A9A5B9A3C983D983E983F98449A459AC3
:10113000469A479AE0EBF0E08081836A8083E1EB96
:10114000F0E0808186608083809123058093B300E6
:10115000809124058093B40085B5826085BD16BC5E
:10116000EEE6F0E0808181608083E0E8F0E080815D
:10117000826A8083E1E8F0E080818B6180838091E6
:1011800021059091220590938700809386008AB173
:1011900080638AB98091190590911A05909389000E
:1011A0008093880080911B0590911C0590938B0083
:1011B00080938A0008958093B30008958093B400CB
:1011C00008950E948B0260E083E00E94B0026AE012
:1011D00087ED91E00E9491020E9414050E94800513
:1011E00081110BC00E948B0260E082E00E94B0027D
:1011F0006AE082EE91E00C94910261E080E00E944E
:10120000B00265E08DEE91E00E94910280E00E94C4
:10121000E90669E083EF91E00E94910281E00E947B
:10122000E90662E08DEF91E00E9491021092C60300
:101230008091C6030E9407070C948B020E94CD0781
:101240000E9485080E94FB020E948B020E94E10816
:1012500089E090E00E94930C8091BE059091BF05BB
:1012600081349C4930F080E49CE99093BF058093E1
:10127000BE05349BFECF359BFCCF369BFACF379B08
:10128000F8CF8FEF9FE628E0815090402040E1F7B3
:1012900000C0000078940895CF93DF93DB016F3F87
:1012A000710509F02CF477FF05C0A0E0B0E002C0A2
:1012B000AFEFB0E081111DC0A0931705C0911905D3
:1012C000D0911A0520911D0530911E052C1B3D0B58
:1012D0000E946B192FEF30E040E050E00E94AD1902
:1012E0002C0F3D1F411D511D309389002093880014
:1012F0001CC0A0931805C0911B05D0911C0520911E
:101300001F05309120052C1B3D0B0E946B192FEF00
:1013100030E040E050E00E94AD192C0F3D1F411D10
:10132000511D30938B0020938A00DF91CF91089557
:1013300060E070E080E00E944C0960E070E081E0D5
:101340000E944C092FEF8FE19CE12150804090409A
:10135000E1F700C000006FEF70E080E00E944C09F0
:101360006FEF70E081E00E944C092FEF8FE398E36C
:10137000215080409040E1F700C0000060E070E044
:1013800080E00E944C092FEF8FE398E321508040CA
:101390009040E1F700C0000060E070E081E00E9452
:1013A0004C092FEF8FE398E3215080409040E1F704
:1013B00000C000002A9A429A2FEF8FE19CE1215051
:1013C00080409040E1F700C000002B9A409A2FEF38
:1013D0008FE19CE1215080409040E1F700C0000087
:1013E000419A439A2FEF8FE19CE121508040904039
:1013F000E1F700C000002A982B9842984098419845
:10140000439808950F931F938091C4059091C5054B
:101410002091BE053091BF05A90148515C4F481786
:10142000590750F4E1E0A9014053584F48175907B4
:1014300008F0E0E0F1E002C0E0E0F0E0A901485E81
:1014400053408417950738F4205D3740821793077F
:1014500008F4E1E0F1E040910F0550911005609132
:101460001105709112058091130590911405A091BA
:101470001505B0911605481759076A077B07F1F162
:101480008091C6059091C705A091C805B091C90586
:101490004091C0055091C1056091C2057091C3058E
:1014A0008A019B0108511C4F2F4F3F4F0817190706
:1014B0002A073B0768F48A019B010053184F2F4FFE
:1014C0003F4F081719072A073B0708F4E1E0F1E04E
:1014D0008A019B01085E1340210931098017910799
:1014E000A207B30758F4405D57406109710984179A
:1014F0009507A607B70708F4E1E0F1E0F093C80309
:10150000E093C7031F910F9108954A9913C040912A
:10151000250550912605E4E6E49F9001E59F300DF6
:1015200011242817390730F081E02617370718F003
:1015300080E0089581E008954F925F926F927F92CC
:101540008F929F92AF92BF92CF92DF92EF92FF92D3
:101550000F931F93CF93DF934091610550916205E4
:1015600060916305709164054A015B018091890572
:1015700090918A05A0918B05B0918C05E1E6F5E08C
:10158000C9E8D5E06C017D01019111912191319162
:10159000041715072607370710F4B901A8018016AC
:1015A0009106A206B30610F44801590149905990DA
:1015B00069907990481659066A067B0610F4D9019D
:1015C000C801C414D504E604F70410F468017901D5
:1015D00025E0E938F207C1F6409327055093280526
:1015E0006093290570932A058092590590925A05B7
:1015F000A0925B05B0925C058093B1059093B20513
:10160000A093B305B093B405C092BA05D092BB05C0
:10161000E092BC05F092BD05841A950AA60AB70AA5
:10162000E9EE8E16E3E09E06A104B104E8F497010A
:101630008601081B190B2A0B3B0B093E13402105A1
:10164000310590F4403757416105710568F08037E6
:101650009741A105B10540F081E029E4C21621E7D8
:10166000D206E104F10408F080E0DF91CF911F91F0
:101670000F91FF90EF90DF90CF90BF90AF909F9031
:101680008F907F906F905F904F900895CF93DF93EE
:10169000FB01E9011A821B821C821D8219821882B9
:1016A0009F838E83798768875B874A87BC016F5FDA
:1016B0007F4F8FEF9FE70E9499197D876C879F016D
:1016C0002F5F3F4F442737FD4095542F6FEF7FEF3B
:1016D0008FEF9FE30E94CF192E873F87488B598B4E
:1016E000DF91CF9108958F929F92AF92BF92CF9248
:1016F000DF92EF92FF92CF93DF93EB01FA016C013F
:10170000E12CF12CC61AD70AE108F10824853585A9
:10171000C901AA2797FDA095BA2F8C159D05AE0586
:10172000BF05B4F088279927821B930BAA2797FD42
:10173000A095BA2FC816D906EA06FB0684F0A68142
:10174000B781A70196010E947D194B015C010EC073
:1017500088248A949FE7992EA12CB12C07C0882455
:10176000839480E8982EAA24AA94BA2C22813381EB
:10177000448155812C0D3D1D4E1D5F1D868597852D
:10178000A089B18982179307A407B5074CF4828317
:101790009383A483B5836FEF7FEF8FEF9FE31DC02B
:1017A000B095A095909581959F4FAF4FBF4F28174B
:1017B00039074A075B074CF482839383A483B5837C
:1017C00061E070E080E090EC08C0228333834483C2
:1017D0005583A085B1850E947D19408151814C1BA4
:1017E0005D0BA285B3854A9F90014B9F300D5A9F98
:1017F000300D1124D183C083680D791D8A1D9B1D76
:10180000620F731F811D911D20E830E040E050E021
:101810000E94CF19213080E838078FEF480758071A
:1018200024F421E030E84FEF5FEFDA01C9018115C0
:1018300020E89207A105B10524F08FEF9FE7A0E013
:10184000B0E0DF91CF91FF90EF90DF90CF90BF900D
:10185000AF909F908F900895FC01128213821482A2
:10186000158208951F920F920FB60F9211242F9395
:101870003F934F935F938F939F93EF93FF93409189
:10188000C0005091C60048718091CC0390E0019651
:101890008F7799272091CB0330E08217930739F097
:1018A0008093CC03FC01E153FC4F508301C042E024
:1018B0004093CA03FF91EF919F918F915F914F9158
:1018C0003F912F910F900FBE0F901F9018951F9270
:1018D0000F920FB60F9211248F939F93EF93FF9364
:1018E0009091CE038091CD03981779F08091CD032C
:1018F00090E001968F7799278093CD03FC01E15BFF
:10190000FB4F80818093C60005C08091C1008F7D10
:101910008093C100FF91EF919F918F910F900FBE27
:101920000F901F9018951092CE031092CD03109235
:10193000CC031092CB0397FF04C022E02093C00099
:101940009F779093C5008093C40088E98093C1007D
:1019500086E08093C20008959091CC038091CB03E0
:101960009817A1F08091CB0390E001968F7799278B
:101970008093CB03FC01E153FC4F20818091CA038B
:1019800090E0982F8827820F911D089580E091E0C4
:1019900008959091CC038091CB03981789F0E09142
:1019A000CB03F0E03196EF77FF27E153FC4F208126
:1019B0008091CA0390E0982F8827820F911D089587
:1019C00080E091E008952091CE0330E02F5F3F4FFB
:1019D0002F7733274091CD0350E024173507D1F3FB
:1019E000F901E15BFB4F80832093CE038091C1001E
:1019F00080628093C1000895CF93DF93EC018991B9
:101A0000882319F00E94E30CFACFDF91CF9108955B
:101A1000CF93DF93FC018491EF012196882321F07D
:101A20000E94E30CFE01F7CFDF91CF9108958091E2
:101A3000CC032091CB0390E080589F4F821B9109EB
:101A40008F77992708958091CB038093CC030895D5
:101A5000CF93C82F0E94C8078C0F911D9093D1047B
:101A60008093D004CF910895CF93DF93C091D00499
:101A7000D091D1040E94C8078C179D0750F4C091E3
:101A8000D004D091D1040E94C8079C2F981B892FA5
:101A900001C080E0DF91CF910895349908C0809112
:101AA000B8058F3F31F0815F8093B80502C0109276
:101AB000B805359908C08091B9058F3F31F0815F35
:101AC0008093B90508951092B905089586E480932E
:101AD0000E052A982B984298409860E080E00E947A
:101AE000B00260E180E092E00E94910261E080E05B
:101AF0000E94B00260E181E192E00C94910287E4DF
:101B000080930E052A982B984298409860E080E0D8
:101B10000E94B00260E182E292E00E94910261E0E4
:101B200080E00E94B00260E181E192E00C949102B9
:101B300084E180930E052A982B984298409860E0A3
:101B400080E00E94B70760E070E080E00E944C09EE
:101B500060E070E081E00E944C0960E080E00E945B
:101B6000B00260E183E392E00E94910261E080E0D4
:101B70000E94B00260E184E492E00C94910285E15D
:101B800080930E052A982B984298409860E080E058
:101B90000E94B00260E185E592E00E94910261E05E
:101BA00080E00E94B00260E186E692E00C9491022F
:101BB00082E380930E052A982B984298409860E023
:101BC00080E00E94B00260E187E792E00E9491020B
:101BD00061E080E00E94B00260E189E992E00C944B
:101BE000910283E380930E052A982B98429840989F
:101BF00060E080E00E94B00260E187E892E00E942D
:101C0000910261E080E00E94B00260E188E992E028
:101C10000C94910284E380930E052A982B984298A5
:101C2000409860E080E00E94B00260E189EA92E0C2
:101C30000E94910261E080E00E94B00260E188E9C8
:101C400092E00C9491028CE380930E052A9A2B98D3
:101C5000429A409860E080E00E94B00260E18AEB26
:101C600092E00E94910261E080E00E94B00260E197
:101C700088E992E00C9491028DE380930E052A98F6
:101C80002B9A4298409A60E080E00E94B00260E1A6
:101C90008BEC92E00E94910261E080E00E94B00231
:101CA00060E188E992E00C9491020F931F93809178
:101CB000370590913805A0913905B0913A05909378
:101CC000C5058093C40500910F0510911005209162
:101CD0001105309112054091130550911405609142
:101CE000150570911605041715072607370749F4DF
:101CF0001092C6051092C7051092C8051092C9052A
:101D00002DC09C01AD0144275527A0E1B7E20E94F8
:101D10007219209133053091340540913505509169
:101D200036050E94AD19AAE0B0E00E947219613A2E
:101D300026E8720721E082079105D0F600EA16E84E
:101D400021E030E0061B170B280B390B0093C6056A
:101D50001093C7052093C8053093C9051F910F91B3
:101D600008950F931F932091BE053091BF05A0E108
:101D7000B7E20E945C192091250530912605205D6F
:101D8000374040E050E00E94AD19AAE0B0E00E9468
:101D900072198B019C01013A86E8180781E0280737
:101DA000310548F460EA76E881E090E0601B710B51
:101DB000820B930B03C060E070E0CB011F910F9189
:101DC0000895CF92DF92EF92FF920F931F93CF93DC
:101DD000DF9380912505909126052091BE053091D5
:101DE000BF0528573C4E8217930730F4885893411B
:101DF0009093BF058093BE05C090C005D090C105EB
:101E0000E090C205F090C3050E94B10E6C157D05EF
:101E10008E059F0540F46093C0057093C1058093C3
:101E2000C2059093C30500910F05109110052091F4
:101E300011053091120540911305509114056091E0
:101E4000150570911605C091BE05D091BF05041708
:101E500015072607370761F4CE01A0E0B0E08093B4
:101E60000F0590931005A0931105B09312052EC095
:101E70009E01A4E6B0E00E945C196B017C016091B8
:101E8000C0057091C1058091C2059091C30528EEEF
:101E900033E040E050E00E94AD19DA01C90124E6C8
:101EA00030E040E050E0281B390B4A0B5B0BC701C8
:101EB000B6010E94AD1920930F0530931005409391
:101EC000110550931205CE01A0E0B0E080931305F8
:101ED00090931405A0931505B0931605DF91CF914B
:101EE0001F910F91FF90EF90DF90CF9008952F9268
:101EF0003F924F925F926F927F928F929F92AF929A
:101F0000BF92CF92DF92EF92FF920F931F93CF93E6
:101F1000DF93CDB7DEB766970FB6F894DEBF0FBE7E
:101F2000CDBF60913705709138058091390590914A
:101F30003A05409033055090340560903505709017
:101F4000360528EEC22E23E0D22EE12CF12CA7017B
:101F500096010E94AD19122F032F342E252E34E640
:101F6000832E912CA12CB12CA50194010E94AD19B6
:101F70005F934F933F932F932F923F920F931F9313
:101F8000C301B201A70196010E94AD19122F032FC0
:101F9000742E652EA50194010E94AD195F934F9395
:101FA0003F932F936F927F920F931F938CED92E04C
:101FB0009F938F938E010F5F1F4F1F930F930E946C
:101FC000731B0E94550E8091BE059091BF0528EEAF
:101FD00033E0B9010E948519762E672E8090C005E6
:101FE0009090C105A090C205B090C3058091C40532
:101FF0009091C505B9010E9485196D8B7E8B60910A
:10200000C6057091C7058091C8059091C9050FB6A6
:10201000F894DEBF0FBECDBF81149104A104B104BA
:10202000A1F120900F0530901005409011055090BF
:10203000120520911305309114054091150550911A
:1020400016052216330644065506F9F0409A2B9AD7
:10205000A70196010E94AD191F922F933E893F93CD
:102060008D898F93C501B401A70196010E94AD1916
:102070001F922F936F927F928AEF92E09F938F939C
:102080001F930F930E94731B0EC03E893F938D894F
:102090008F936F927F928FE093E09F938F931F9324
:1020A0000F930E94731B0FB6F894DEBF0FBECDBF17
:1020B00060E080E00E94B00260E1C8010E949102ED
:1020C00066960FB6F894DEBF0FBECDBFDF91CF91FD
:1020D0001F910F91FF90EF90DF90CF90BF90AF9046
:1020E0009F908F907F906F905F904F903F902F9038
:1020F00008958BE080930E05429A2A9A0E94F40775
:102100000E9454080C94770F2F923F924F925F9247
:102110006F927F928F929F92AF92BF92CF92DF92F7
:10212000EF92FF920F931F93CF93DF93CDB7DEB75C
:1021300069970FB6F894DEBF0FBECDBF8091BE0584
:102140009091BF0568EE73E00E948519362E072F27
:102150006091330570913405809135059091360575
:1021600048EEC42E43E0D42EE12CF12CA7019601B9
:102170000E94AD19122F60910F057091100580918A
:10218000110590911205A70196010E94AD1980904A
:10219000C0059090C105A090C205B090C3054090C5
:1021A0003705509038056090390570903A05809158
:1021B000130590911405A0911505B09116058D8B0E
:1021C0009E8BAF8BB88F60E080E0298F0E94B002B9
:1021D000809117051F928F931F92298D2F931F9225
:1021E0001F930F933F9252E2252E53E0352E3F92DC
:1021F0002F928E010F5F1F4F1F930F930E94731B2F
:1022000060E1C8010E94910261E080E00E94B0029A
:102210000FB6F894DEBF0FBECDBF40910F055091B1
:102220001005609111057091120580911305909130
:102230001405A0911505B0911605481759076A07AE
:102240007B0771F1809118051F928F936D897E89AC
:102250008F89988DA70196010E94AD191F922F9327
:10226000C301B201A70196010E94AD191F922F93DD
:10227000C501B401A70196010E94AD191F922F93C9
:102280003F922F921F930F930E94731B60E1C8012E
:102290000E9491020FB6F894DEBF0FBECDBF05C0FD
:1022A00060E181E192E00E94910269960FB6F89494
:1022B000DEBF0FBECDBFDF91CF911F910F91FF9079
:1022C000EF90DF90CF90BF90AF909F908F907F90D6
:1022D0006F905F904F903F902F900895419A60E0EB
:1022E00080E00E94B00260E18AE393E00E949102E4
:1022F00061E080E00E94B00260E18BE493E00C9426
:10230000910280910E059CEE980F923050F44A99FC
:1023100013C04B9911C00E9479108EE10E94280DC4
:1023200008C08B3049F44A9902C04B9B05C00E94FB
:10233000980D81E08093D4048091D404811153C01E
:1023400080910E058A3009F04EC04A994CC03499EC
:1023500007C00E949C0A882321F10E94980D0DC09D
:10236000359BF7CF369BF5CF379BF3CF0E94340DCB
:10237000882379F338C0359903C0349BFECFFBCF57
:10238000369BFBCF379BF9CF2FEF8FE995E021509C
:1023900080409040E1F700C0000081E08093D404C9
:1023A00022C00E946E112FEF8FE790E721508040EE
:1023B0009040E1F700C00000439A2FEF8FEB98EABE
:1023C000215080409040E1F700C00000349BFECFD8
:1023D000359BFCCF369BFACF379BF8CF419843987B
:1023E0008FE00E94280D8091D40481115EC0349B3F
:1023F00006C0359B04C0369B02C0379956C08091F9
:102400000E05843129F4369950C00E94BF0D19C0C1
:10241000853129F4379949C00E94980D12C0823342
:1024200051F4369903C00E94F10D0BC037993DC09D
:102430000E947F0D06C0833369F4369906C00E945E
:102440000A0E81E08093D40430C037992EC00E94D8
:10245000D80DF7CF843341F4369903C00E94230E80
:10246000F0CF379BE0CF21C08C3341F4369903C0C5
:102470000E943C0EE6CF379BE2CF17C08D3341F46C
:10248000369903C00E94660DDCCF379BE7CF0DC0A5
:10249000863429F4369BCCCF379BEACF06C08734ED
:1024A00021F4369BD4CF379BEDCF349B09C0359BAD
:1024B00007C0369B05C0379B03C01092D404089513
:1024C0008091D404813089F480910E05823368F0C4
:1024D00037990BC0369909C00E94980D0E94E10EF1
:1024E0000E94F40782E08093D4048091D404813068
:1024F00071F480910E058451823048F4379907C0F9
:10250000369905C00E94D80D82E08093D404809152
:10251000D404882349F02FEF8FEC92E021508040C3
:102520009040E1F700C00000089560E08FE00E9455
:10253000B00261E080E292E00E94910261E080E0FE
:102540000E94B00260E18CE593E00E9491020E943B
:10255000980961E080E00E94B00260E18DE693E0BE
:102560000E9491022FEF8FE398E32150804090402A
:10257000E1F700C000000C94660D8091B905882336
:1025800081F08F3F11F49AE001C091E08091230522
:10259000981720F4891B8093230503C081111092A2
:1025A00023058091B8058823C9F08F3F11F45AE0C4
:1025B00001C051E040912305242F30E08FEF90E0DF
:1025C000851B91092817390724F4450F40932305EB
:1025D00005C04F3F19F08FEF8093230580912305AD
:1025E0001F928F938EE793E09F938F9386ED94E0F5
:1025F0009F938F930E94731B61E080E00E94B00262
:1026000064E086ED94E00E94910261E084E00E9423
:10261000B0024AE06FEF809123050E94B70361E0AA
:102620008EE00E94B00262E086EA92E00E9491028F
:102630000F900F900F900F900F900F9080912305A7
:102640000C94DB088091B905882381F08F3F11F449
:102650009AE001C091E080912405981720F4891B2D
:102660008093240503C08111109224058091B80540
:102670008823C9F08F3F11F45AE001C051E0409126
:102680002405242F30E08FEF90E0851B9109281757
:10269000390724F4450F4093240505C04F3F19F036
:1026A0008FEF80932405809124051F928F938EE7EE
:1026B00093E09F938F9386ED94E09F938F930E9476
:1026C000731B61E080E00E94B00264E086ED94E05C
:1026D0000E94910261E084E00E94B0024AE06FEF44
:1026E000809124050E94B70361E08EE00E94B00251
:1026F00062E086EA92E00E9491020F900F900F90A4
:102700000F900F900F90809124050C94DE0880911B
:10271000B9058823F1F08F3F19F480ED97E002C0EE
:1027200088EE93E02091250530912605AC01485FA5
:102730005D4A4217530738F4281B390B309326059E
:102740002093250506C088E092E5909326058093A6
:1027500025058091B805882341F18F3F19F420EDBC
:1027600037E002C028EE33E0E0912505F091260520
:10277000AF0160E070E088EE9DEFA0E0B0E0821B6A
:10278000930BA109B109481759076A077B073CF465
:102790002E0F3F1F309326052093250506C088EE97
:1027A0009DEF9093260580932505809125059091B6
:1027B000260568EE73E00E9485197F936F9384E885
:1027C00093E09F938F9386ED94E09F938F930E9465
:1027D000731B61E087E00E94B0020F900F900F9092
:1027E0000F900F900F9063E086ED94E00C949102AF
:1027F0008091B905882379F08F3F11F48AE001C0F8
:1028000081E09091D304891720F4981B9093D3040E
:1028100002C01092D3048091B8058823B9F08F3F8D
:1028200011F44AE001C041E05091D304252F30E07B
:102830008FEF90E0841B91092817390724F4450F86
:102840004093D30403C08FEF8093D3048091D304CB
:102850001F928F938BE893E09F938F9386ED94E084
:102860009F938F930E94731B61E080E00E94B002EF
:1028700064E086ED94E00E94910261E084E00E94B1
:10288000B0024AE06FEF8091D3040E94B70361E089
:102890008EE00E94B00262E086EA92E00E9491021D
:1028A0000F900F900F900F900F900F906091D304A6
:1028B00070E080E00C944C098091B905882379F090
:1028C0008F3F11F48AE001C081E09091D204891712
:1028D00020F4981B9093D20402C01092D2048091ED
:1028E000B8058823B9F08F3F11F44AE001C041E0F8
:1028F0005091D204252F30E08FEF90E0841B910996
:102900002817390724F4450F4093D20403C08FEFF2
:102910008093D2048091D2041F928F938BE893E02E
:102920009F938F9386ED94E09F938F930E94731BE8
:1029300061E080E00E94B00264E086ED94E00E94D5
:10294000910261E084E00E94B0024AE06FEF809162
:10295000D2040E94B70361E08EE00E94B00262E000
:1029600086EA92E00E9491020F900F900F900F90D4
:102970000F900F906091D20470E081E00C944C09AC
:10298000CF92DF92EF92FF920F931F93CF93DF933B
:102990008091B9058823F1F08F3F19F480ED97E01D
:1029A00002C088EE93E02091BE053091BF05AC01D6
:1029B0004053584F4217530738F4281B390B3093B4
:1029C000BF052093BE0506C080ED97E09093BF053C
:1029D0008093BE058091B805882311F18F3F19F4CB
:1029E00080ED97E002C088EE93E04091BE055091E3
:1029F000BF05209125053091260528583341B9019E
:102A0000681B790B4617570738F4840F951F90936E
:102A1000BF058093BE0504C03093BF052093BE055B
:102A20008091BE059091BF0568EE73E00E94851904
:102A30007F936F9384E893E09F938F9386ED94E068
:102A40009F938F930E94731B61E087E00E94B00206
:102A500063E086ED94E00E949102C090C005D090A2
:102A6000C105E090C205F090C3050E94B10E0F9021
:102A70000F900F900F900F900F906C157D058E05A5
:102A80009F0540F46093C0057093C1058093C20513
:102A90009093C30500910F05109110052091110529
:102AA0003091120540911305509114056091150560
:102AB00070911605C091BE05D091BF05041715078A
:102AC0002607370761F4CE01A0E0B0E080930F0540
:102AD00090931005A0931105B09312052EC09E018E
:102AE000A4E6B0E00E945C196B017C016091C00516
:102AF0007091C1058091C2059091C30528EE33E025
:102B000040E050E00E94AD19DA01C90124E630E04E
:102B100040E050E0281B390B4A0B5B0BC701B601A4
:102B20000E94AD1920930F053093100540931105B5
:102B300050931205CE01A0E0B0E08093130590936E
:102B40001405A0931505B0931605DF91CF911F9141
:102B50000F91FF90EF90DF90CF9008958091B9058D
:102B60008823D9F08F3F19F420ED37E002C028EE1A
:102B700033E08091BE059091BF05A901485F5D4A91
:102B80004817590718F4821B930B02C088E092E59E
:102B90009093BF058093BE0502C020E030E0809195
:102BA000B805882311F18F3F19F420ED37E002C0FA
:102BB00028EE33E04091BE055091BF058091250578
:102BC0009091260588589341BC01621B730B4617F0
:102BD000570738F4420F531F5093BF054093BE056B
:102BE00004C09093BF058093BE058091BE0590916F
:102BF000BF05A0E0B0E080930F0590931005A0936F
:102C00001105B09312058093130590931405A093BA
:102C10001505B0931605232B49F00E94791060E04A
:102C200080E00E94B7078AE00C94280D08958F92E7
:102C30009F92AF92BF92CF92DF92EF92FF920F934B
:102C40001F93CF93DF938091B905882359F18F3F6C
:102C500019F480ED97E002C088EE93E04091C00542
:102C60005091C1056091C2057091C305A0E0B0E02C
:102C700084179507A607B70768F4481B590B6A0B1A
:102C80007B0B4093C0055093C1056093C2057093C0
:102C9000C30508C01092C0051092C1051092C2056C
:102CA0001092C3058091B805882399F18F3F19F4DC
:102CB00000ED17E002C008EE13E0C090C005D09010
:102CC000C105E090C205F090C3050E94B10E20E05E
:102CD00030E04B015C01801A910AA20AB30AC814C1
:102CE000D904EA04FB0468F4C00ED11EE21EF31EF0
:102CF000C092C005D092C105E092C205F092C30512
:102D000008C06093C0057093C1058093C20590937D
:102D1000C3056091C0057091C1058091C205909175
:102D2000C305E8EECE2EE3E0DE2EE12CF12CA70168
:102D300096010E94AD191F922F9384E893E09F9310
:102D40008F9386ED94E09F938F930E94731B61E0B5
:102D500087E00E94B00263E086ED94E00E94910259
:102D6000C091BE05D091BF059E01A4E6B0E00E94CF
:102D70005C194B015C016091C0057091C1058091A7
:102D8000C2059091C305A70196010E94AD19DA0111
:102D9000C90124E630E040E050E0281B390B4A0B23
:102DA0005B0BC501B4010E94AD1920930F05309350
:102DB00010054093110550931205CE01A0E0B0E03C
:102DC0008093130590931405A0931505B0931605F1
:102DD0000F900F900F900F900F900F90DF91CF9169
:102DE0001F910F91FF90EF90DF90CF90BF90AF9029
:102DF0009F908F9008954F925F926F927F928F92E3
:102E00009F92AF92BF92CF92DF92EF92FF920F9379
:102E10001F93CF93DF9360913705709138058091B0
:102E20003305909134050E94850A882381F181E061
:102E300080930E05419A439A2A982B98429840987D
:102E400060E080E00E94B00260E180E993E00E94CF
:102E5000910261E080E00E94B00260E14A9903C003
:102E600081EA93E002C082EB93E0DF91CF911F9162
:102E70000F91FF90EF90DF90CF90BF90AF909F9019
:102E80008F907F906F905F904F900C949102809103
:102E9000D504811161C00E94770F60913705709150
:102EA00038058091390590913A054090330550904E
:102EB00034056090350570903605F8EE8F2EF3E0FE
:102EC0009F2EA12CB12CA50194010E94AD19E901FE
:102ED000142F052FA4E6CA2ED12CE12CF12CA7012A
:102EE00096010E94AD195F934F933F932F930F93D9
:102EF0001F93DF93CF93C301B201A50194010E94F8
:102F0000AD19E901142F052FA70196010E94AD19F3
:102F10005F934F933F932F930F931F93DF93CF9321
:102F20008CED92E09F938F9386ED94E09F938F9327
:102F30000E94731B61E080E00E94B00260E186EDB8
:102F400094E00E9491028DB79EB744960FB6F89414
:102F50009EBF0FBE8DBF02C00E9484100E94340D20
:102F6000811112C0DF91CF911F910F91FF90EF90CF
:102F7000DF90CF90BF90AF909F908F907F906F9099
:102F80005F904F900C94020ADF91CF911F910F91A7
:102F9000FF90EF90DF90CF90BF90AF909F908F9079
:102FA0007F906F905F904F900895CF92DF92EF9255
:102FB000FF920F93CF93DF9380910E058A3009F033
:102FC0005AC0B0E2CB2EBBE1DB2EBCE7EB2EBCE05F
:102FD000FB2E20912B0530912C0540912D05509111
:102FE0002E05C701B6010E94AD19DA01C90120936F
:102FF0003B0590933C05A0933D05B0933E05109290
:103000003F05109240051092410510924205209113
:103010002F05309130054091310550913205C7019F
:10302000B6010E94AD19DA01C901209343059093BE
:103030004405A0934505B0934605109247051092AC
:1030400048051092490510924A050E94340D082F38
:1030500020912F0530913005409131055091320576
:1030600060912B0570912C0580912D0590912E0576
:103070000E94FC036BC0863429F4349967C00E9417
:10308000951264C0873489F4349960C08AE08093D3
:103090000E05349BFECF359BFCCF369BFACF379B7A
:1030A000F8CF8FE00E94280D51C0823319F40E949E
:1030B000BD124CC0833319F40E94221347C08433DD
:1030C00019F40E94871342C08C3319F40E94F8133C
:1030D0003DC08D3319F40E945C1438C0843119F45A
:1030E0000E94C01433C08B3069F5349B02C03599FF
:1030F00018C040910F055091100560911105709115
:1031000012058091130590911405A0911505B091B9
:103110001605481759076A077B0719F40E94AE1570
:1031200015C0369906C0379904C081E08093D50454
:103130000DC037990BC0369B09C01092D5040E9470
:10314000791004C0853111F40E94171680910E0584
:103150008B3049F4DF91CF910F91FF90EF90DF908A
:10316000CF900C94FB16DF91CF910F91FF90EF90D1
:10317000DF90CF90089580910E05089580930E05FD
:103180000895CF93DF93CDB7DEB76A970FB6F89463
:10319000DEBF0FBECDBF0E941E098AE00E94BE188E
:1031A0008FE00E94280D8FE591E00E94FC0C2CEF2F
:1031B00034E040E050E060E070E080E890E00E94A1
:1031C000460B2AEE34E040E050E060E070E080E83A
:1031D00090E00E94460B18EE812E13E0912E08EE2F
:1031E000C02E03E0D02EE12CF12C87E7A82E81E041
:1031F000B82E8E010F5F1F4F0E943E028091C503C3
:1032000081110E947D000E9481110E94BC078823C9
:1032100021F00E94D5170E94C2070E94C50788238B
:1032200009F442C08091BE059091BF05B4010E948F
:103230008519762E672E6091330570913405809143
:10324000350590913605A70196010E94AD19522EC1
:1032500060910F05709110058091110590911205F4
:10326000A70196010E94AD1960E080E02A8F0E94BC
:10327000B002809117051F928F931F922A8D2F9372
:103280001F925F926F927F92BF92AF921F930F93A4
:103290000E94731BC8010E94FC0C0E94BF070FB65E
:1032A000F894DEBF0FBECDBF0E94BB188B3009F073
:1032B000A3CF0E949A07A0CFA29FB001B39FC001E5
:1032C000A39F700D811D1124911DB29F700D811D52
:1032D0001124911D08950E945C19B7FF0895821B67
:1032E000930B08950E945C19A59F900DB49F900DBB
:1032F000A49F800D911D11240895B7FF0C9472199D
:103300000E947219821B930B0895AA1BBB1B51E1EB
:1033100007C0AA1FBB1FA617B70710F0A61BB70B45
:10332000881F991F5A95A9F780959095BC01CD01EA
:10333000089597FB072E16F4009407D077FD09D067
:103340000E94851907FC05D03EF4909581959F4F0A
:103350000895709561957F4F0895A1E21A2EAA1BDA
:10336000BB1BFD010DC0AA1FBB1FEE1FFF1FA21735
:10337000B307E407F50720F0A21BB30BE40BF50B32
:10338000661F771F881F991F1A9469F760957095BB
:10339000809590959B01AC01BD01CF010895052E4C
:1033A00097FB1EF400940E94CF1A57FD07D00E948D
:1033B000AD1907FC03D04EF40C94CF1A50954095EC
:1033C000309521953F4F4F4F5F4F0895689401C04E
:1033D000E894F92FF12B12F00C941A1AA0E0B0E047
:1033E000E4EFF9E10C94ED1A092E059422F40E9401
:1033F000D71A112392F4F0E80F26FFEFE094F0942F
:1034000000951095B094C094D094A194BF0ACF0AAF
:10341000DF0AEF0AFF0A0F0B1F0B0E947E1A07FC40
:103420000E94D71ACDB7DEB7ECE00C94091B689464
:1034300001C0E8948F929F92CF93DF930E947E1AEF
:10344000DF91CF919F908F900895DF93CF931F933B
:103450000F939A9DF02D219FF00D8B9DF00D8A9D6D
:10346000E02DF10D039FF00D029FE00DF11D4E9D2B
:10347000E00DF11D5E9DF00D4F9DF00D7F936F935C
:10348000BF92AF925F934F93D5010E945C198B015D
:10349000AC01D7010E945C19EB01E80FF91FD601BE
:1034A0000E94751A2F913F91D6010E945C19C60F98
:1034B000D71FE81FF91FAF91BF910E94751A2F9176
:1034C0003F910E945C19C60FD71FE81FF91FD60154
:1034D0000E945C19E60FF71F9801BE01CF0111246D
:1034E0000F911F91CF91DF9108950E945C19460FB3
:1034F000571FC81FD91F08F43196089588249924AE
:10350000F401E401B0E49F93AA279A158B049C046C
:10351000ED05FE05CF05D007A10798F4AD2FDC2FF0
:10352000CF2FFE2FE92D982C892E982F872F762FBD
:10353000652F542F432F322F2227B85031F7BF91D8
:1035400027C01B2EBF91BB27220F331F441F551FBF
:10355000661F771F881F991F881C991CEE1FFF1F6D
:10356000CC1FDD1FAA1FBB1F8A149B04EC05FD05A1
:10357000CE05DF05A007B10748F08A189B08EC09C3
:10358000FD09CE09DF09A00BB10B21601A94E1F609
:103590002EF49401AF01BE01CD01000C0895909569
:1035A0008095709561957F4F8F4F9F4F08956095DF
:1035B00070958095909530954095509521953F4F09
:1035C0004F4F5F4F6F4F7F4F8F4F9F4F08952F92F9
:1035D0003F924F925F926F927F928F929F92AF92A3
:1035E000BF92CF92DF92EF92FF920F931F93CF93F0
:1035F000DF93CDB7DEB7CA1BDB0B0FB6F894DEBF87
:103600000FBECDBF09942A88398848885F846E84AC
:103610007D848C849B84AA84B984C884DF80EE80F6
:10362000FD800C811B81AA81B981CE0FD11D0FB6FF
:10363000F894DEBF0FBECDBFED0108950F930830A3
:1036400090F0982F872F762F652F542F432F322FEE
:1036500022270850F4CF220F331F441F551F661F27
:10366000771F881F991F0A95B2F70F91089597FB4E
:1036700010F8169400080F93083098F00850232F84
:10368000342F452F562F672F782F892F902DF4CF69
:1036900005949795879577956795579547953795AD
:1036A00027950A95AAF70F9108952A0D3B1D4C1DE9
:1036B0005D1D6E1D7F1D801F911F08952A193B09F6
:1036C0004C095D096E097F09800B910B0895002458
:1036D000A7FD00942A1730054005500560057005C8
:1036E000800590050895AEE0B0E0E9E7FBE10C94B9
:1036F000F51A0D891E8986E08C831A8309838FEF62
:103700009FE79E838D83AE01475E5F4F6F89788D03
:10371000CE0101960E94951BEF81F885E00FF11F05
:1037200010822E96E4E00C94111BACE0B0E0EBE9C3
:10373000FBE10C94E71A7C016B018A01FC01178202
:103740001682838181FFBDC1CE0101964C01F70134
:103750009381F60193FD859193FF81916F018823F9
:1037600009F4ABC1853239F493FD859193FF8191C2
:103770006F01853229F4B70190E00E94A51DE7CFC3
:10378000512C312C20E02032A0F48B3269F030F43F
:10379000803259F0833269F420612CC08D3239F0C7
:1037A000803339F4216026C02260246023C0286061
:1037B00021C027FD27C030ED380F3A3078F426FFBE
:1037C00006C0FAE05F9E300D1124532E13C08AE02C
:1037D000389E300D1124332E20620CC08E3221F41D
:1037E00026FD6BC1206406C08C3611F4206802C02F
:1037F000883641F4F60193FD859193FF81916F0125
:103800008111C1CF982F9F7D9554933028F40C5F80
:103810001F4FFFE3F9830DC0833631F0833771F01A
:10382000833509F05BC022C0F801808189830E5F77
:103830001F4F44244394512C540115C03801F2E029
:103840006F0E711CF801A080B18026FF03C0652DAA
:1038500070E002C06FEF7FEFC5012C870E949A1DB8
:103860002C0183012C852F77222E17C03801F2E01E
:103870006F0E711CF801A080B18026FF03C0652D7A
:1038800070E002C06FEF7FEFC5012C870E948F1D93
:103890002C012C852068222E830123FC1BC0832D44
:1038A00090E048165906B0F4B70180E290E00E941B
:1038B000A51D3A94F4CFF50127FC859127FE81914F
:1038C0005F01B70190E00E94A51D31103A94F1E02C
:1038D0004F1A51084114510471F7E5C0843611F0B4
:1038E000893639F5F80127FF07C06081718182812F
:1038F00093810C5F1F4F08C060817181882777FD1D
:103900008095982F0E5F1F4F2F76B22E97FF09C01C
:1039100090958095709561957F4F8F4F9F4F206850
:10392000B22E2AE030E0A4010E94D71DA82EA818CC
:1039300044C0853729F42F7EB22E2AE030E025C01E
:10394000F22FF97FBF2E8F36C1F018F4883579F049
:10395000B4C0803719F0883721F0AFC02F2F206115
:10396000B22EB4FE0DC08B2D8460B82E09C024FF8A
:103970000AC09F2F9660B92E06C028E030E005C02F
:1039800020E130E002C020E132E0F801B7FE07C0DC
:1039900060817181828193810C5F1F4F06C06081BD
:1039A000718180E090E00E5F1F4FA4010E94D71D3F
:1039B000A82EA818FB2DFF77BF2EB6FE0BC02B2D0F
:1039C0002E7FA51450F4B4FE0AC0B2FC08C02B2D03
:1039D0002E7E05C07A2C2B2D03C07A2C01C0752CAD
:1039E00024FF0DC0FE01EA0DF11D8081803311F42A
:1039F000297E09C022FF06C07394739404C0822FED
:103A0000867809F0739423FD13C020FF06C05A2C5A
:103A1000731418F4530C5718732C731468F4B7010B
:103A200080E290E02C870E94A51D73942C85F5CF31
:103A3000731410F4371801C0312C24FF12C0B701E1
:103A400080E390E02C870E94A51D2C8522FF17C0E3
:103A500021FF03C088E590E002C088E790E0B7014D
:103A60000CC0822F867859F021FD02C080E201C08F
:103A70008BE227FD8DE2B70190E00E94A51DA51401
:103A800038F4B70180E390E00E94A51D5A94F7CF67
:103A9000AA94F401EA0DF11D8081B70190E00E9423
:103AA000A51DA110F5CF332009F451CEB70180E256
:103AB00090E00E94A51D3A94F6CFF7018681978188
:103AC00002C08FEF9FEF2C96E2E10C94031BDC0108
:103AD000CB01FC01F999FECF06C0F2BDE1BDF89A19
:103AE000319600B40D9241505040B8F70895DC0172
:103AF000CB0103C02D910E94821D41505040D0F750
:103B00000895262FF999FECF1FBA92BD81BD20BD21
:103B10000FB6F894FA9AF99A0FBE01960895FC012F
:103B20000590615070400110D8F7809590958E0FE8
:103B30009F1F0895FC016150704001900110D8F75B
:103B4000809590958E0F9F1F08950F931F93CF938D
:103B5000DF93182F092FEB018B8181FD03C08FEFBD
:103B60009FEF20C082FF10C04E815F812C813D817C
:103B7000421753077CF4E881F9819F012F5F3F4F83
:103B800039832883108306C0E885F985812F09953C
:103B9000892B29F72E813F812F5F3F4F3F832E8353
:103BA000812F902FDF91CF911F910F910895FA01EE
:103BB000AA27283051F1203181F1E8946F936E7F6C
:103BC0006E5F7F4F8F4F9F4FAF4FB1E03ED0B4E05D
:103BD0003CD0670F781F891F9A1FA11D680F791F9E
:103BE0008A1F911DA11D6A0F711D811D911DA11DAF
:103BF00020D009F468943F912AE0269F11243019BF
:103C0000305D3193DEF6CF010895462F4770405D59
:103C10004193B3E00FD0C9F7F6CF462F4F70405D08
:103C20004A3318F0495D31FD4052419302D0A9F763
:103C3000EACFB4E0A6959795879577956795BA955D
:103C4000C9F700976105710508959B01AC010A2E23
:103C500006945795479537952795BA95C9F7620FFA
:0E3C6000731F841F951FA01D0895F894FFCFB9
:103C6E0001FFFFFFFF55415254204672616D6520E2
:103C7E004572726F723A200055415254204F76654C
:103C8E007272756E204572726F723A2000427566BE
:103C9E00666572206F766572666C6F7720657272DC
:103CAE006F723A2000544F444F3A2050757420736F
:103CBE006F6D6520646562756720696E666F00576B
:103CCE00656C636F6D6520746F20626C656E6465E4
:103CDE0072203A290D0A0053313A20253032752CC4
:103CEE0020253032752C20253032752C202530338E
:103CFE00750D0A0053313A2025356C697556202012
:103D0E0020203E0053323A2025356C69755620200E
:103D1E002532647300506C656173652C2074757266
:103D2E006E206F6E2000796F757220636F6D7072EA
:103D3E006573736F722100496E6974696E672E2EFA
:103D4E002E00414443204572726F72210053312E72
:103D5E002E2E004F4B202053322E2E2E004F4B0076
:103D6E002020202052756E20546573742020203E32
:103D7E000020202020202020202020202020202055
:103D8E00200020202043616C6962726174652020DE
:103D9E00203E004F323C20204F787967656E202000
:103DAE0020202B00486520202020202020202020AD
:103DBE002020202D004F3220202048656C69756D23
:103DCE00202020202B0048653C2020202020202071
:103DDE0020202020202D0020204272696768746EFA
:103DEE0065737320202B0020202020436F6E747289
:103DFE006173742020202B002020202020202020E2
:103E0E00202020202020202D002020456D65726767
:103E1E00656E6379204F32202B002020536574206D
:103E2E004F322076616C7665202B0020205365740E
:103E3E002048652076616C7665202B0053313A253B
:103E4E00326C692E2530316C692053323A25326C32
:103E5E00692E2530316C69202000546D5820253292
:103E6E00752F25327520202532752F253275004588
:103E7E00414E7825327520205265616C3A25327597
:103E8E002000742530327563253032752073742509
:103E9E003032752076253033750043616E277420DD
:103EAE0063616C696272617465210053656E736F34
:103EBE007273206661696C75726521002020204343
:103ECE006865636B696E672E2E2E202000202020E1
:103EDE00202020444F4E4521202020202000253038
:103EEE0033752000253032752525002533752000C9
:103EFE00202020456D657267656E63792120202034
:103F0E000020204F3220746F6F206869676821206F
:103F1E002000436F6D70726573736F723A20204F7D
:043F2E004646000003
:00000001FF
