:100000000C945E000C947B000C947B000C947B00A1
:100010000C947B000C947B000C947B000C947B0074
:100020000C947B000C947B000C947B000C947B0064
:100030000C947B000C947B000C947B000C947B0054
:100040000C947B000C947B000C949A000C947B0025
:100050000C94010C0C94360C0C947B000C947B00DB
:100060000C947B000C947B000C947B000C947B0024
:100070000C947B000C947B000C947B00001F000010
:1000800000001F00001F101010101F00001F181884
:1000900018181F00001F1C1C1C1C1F00001F1E1E08
:1000A0001E1E1F00001F1F1F1F1F1F0003070F1F03
:1000B0000F070300181C1E1F1E1C180011241FBE52
:1000C000CFEFD0E1DEBFCDBF13E0A0E0B1E0EEE4C2
:1000D000F0E302C005900D92A236B107D9F725E0F2
:1000E000A2E6B3E001C01D92A730B207E1F70E947B
:1000F000F70C0C9425180C94000034990AC08091D8
:10010000AD048F3F41F08091AD048F5F8093AD04CB
:1001100002C01092AD0435990AC08091AE048F3FA1
:1001200041F08091AE048F5F8093AE0408951092E9
:10013000AE0408951F920F920FB60F9211242F93C1
:100140003F934F935F936F937F938F939F93AF935F
:10015000BF93EF93FF938091AC048F5F8093AC04C7
:100160008091AC04893068F080919404909195045A
:10017000019690939504809394041092AC040E948D
:100180007707809194049091950462E370E00E9457
:100190005313892B11F40E947D00FF91EF91BF91C1
:1001A000AF919F918F917F916F915F914F913F910F
:1001B0002F910F900FBE0F901F9018957F928F92E6
:1001C0009F92AF92BF92CF92DF92EF92FF920F93E6
:1001D0001F93CF93DF9381E00E940C09DC01CB01D8
:1001E0009C01AD0160E070E080E090E04058510972
:1001F000610971098109910959016A017B01E82F9F
:10020000192F02E00E9403150E2F0E943A15590182
:100210006A017B01E82F192F04E00E9403150E2FBD
:100220000E94431559016A017B01E82F192F04E050
:100230000E9403150E2F0E9443154901D42FC52F8C
:10024000B62FA72FF82FE92F06E00E9403155901BA
:100250006A017B018C0194014D2F5C2F6B2F7A2F4B
:100260008F2F9E2F0E943A15722E832E942ED52FFB
:10027000C62FB72FF82FE92FA0E00E944C1584F469
:100280002150310940485F4F6F4F7F4F8F4F9F4F35
:10029000722E832E942ED52FC62FB72FF82FE92F2D
:1002A000272D382D492D5D2F6C2F7B2F8F2F9E2FC3
:1002B00007E10E941C15C22FB32FF42FE52F762ED5
:1002C000872E982ED92FA0E00E944C1554F40E943E
:1002D000BC14C22FB32FF42FE52F762E872E982E25
:1002E000D92F8091640381113CC0C0939604B093D0
:1002F0009704F0939804E0939904A090B704B09009
:10030000B804C090B904D090BA04E090BB04F09057
:10031000BC040091BD041091BE042C2F3B2F4F2F25
:100320005E2F672D782D892D9D2F0E94D313A0E17C
:10033000AA2EB7E2BB2EC12CD12CE12CF12C00E06F
:1003400010E00E942E142093AF043093B004409329
:10035000B1045093B20481E0809364038091020160
:1003600038C0C093B304B093B404F093B504E093E1
:10037000B604A0908C04B0908D04C0908E04D090F0
:100380008F04E0909004F0909104009192041091F9
:1003900093042C2F3B2F4F2F5E2F672D782D892D07
:1003A0009D2F0E94D313E0E1AE2EF7E2BF2EC12CA9
:1003B000D12CE12CF12C00E010E00E942E142093AF
:1003C000740430937504409376045093770410922C
:1003D000640380916403DF91CF911F910F91FF908F
:1003E000EF90DF90CF90BF90AF909F908F907F90D5
:1003F0000C94620960E070E080E00E94C20A60E054
:1004000070E081E00E94C20A2FEF8FE19CE1215051
:1004100080409040E1F700C0000064E670E080E0BA
:100420000E94C20A64E670E081E00E94C20A2FEFD7
:100430008FE398E3215080409040E1F700C0000036
:1004400060E070E080E00E94C20A2FEF8FE398E343
:10045000215080409040E1F700C0000060E070E073
:1004600081E00E94C20A2FEF8FE398E32150804081
:100470009040E1F700C000002A9A429A2FEF8FE1E6
:100480009CE1215080409040E1F700C000002B9A91
:10049000409A2FEF8FE19CE1215080409040E1F79E
:1004A00000C00000419A439A2FEF8FE19CE1215058
:1004B00080409040E1F700C000002A982B984298B5
:1004C00040984198439808951F93CF93DF930E94DB
:1004D0007B0C182FEC01D0FD1EC0D3FF04C088E0B8
:1004E00091E00E94CB0CD2FF04C08BE191E00E940E
:1004F000CB0CD1FF04C080E391E00E94CB0C1F33F2
:1005000021F488E491E00E94CB0C812FDF91CF9100
:100510001F910C94B20CDF91CF911F91089586E446
:10052000809302012A982B984298409860E080E0DE
:100530000E94230560E182E691E00E94040561E0EB
:1005400080E00E94230560E183E791E00C940405BC
:1005500084E1809302012A982B984298409860E0A9
:1005600080E00E94230560E184E891E00E94040598
:1005700061E080E00E94230560E185E991E00C9450
:10058000040585E1809302012A982B9842984098AF
:1005900060E080E00E94230560E186EA91E00E942D
:1005A000040561E080E00E94230560E185E991E0B7
:1005B0000C94040582E3809302012A982B984298B8
:1005C000409860E080E00E94230560E187EB91E0C5
:1005D0000E94040561E080E00E94230560E185E956
:1005E00091E00C94040583E3809302012A982B98F0
:1005F0004298409860E080E00E94230560E188EC2A
:1006000091E00E94040561E080E00E94230560E122
:1006100085E991E00C94040584E3809302012A9813
:100620002B984298409860E080E00E94230560E1AA
:1006300089ED91E00E94040561E080E00E942305BD
:1006400060E185E991E00C9404058CE3809302015C
:100650002A9A2B98429A409860E080E00E942305F5
:1006600060E18AEE91E00E94040561E080E00E9472
:10067000230560E185E991E00C9404058DE3809306
:1006800002012A982B9A4298409A60E080E00E94EA
:10069000230560E18BEF91E00E94040561E080E0BA
:1006A0000E94230560E185E991E00C9404056F92B6
:1006B0007F928F929F92AF92BF92CF92DF92EF92F2
:1006C000FF920F931F93CF93DF93CDB7DEB764975D
:1006D0000FB6F894DEBF0FBECDBF8BE08093020152
:1006E0008091F3049091F404892B11F0429A2A9A94
:1006F0008091F3049091F40468EE73E00E94531328
:10070000762E672E6091F5047091F6048091F704BF
:100710009091F8048E010F5F1F4F611571058105DF
:10072000910579F180906A0490906B04A0906C041C
:10073000B0906D04C0906E04D0906F04E09070048F
:10074000F09071048C149D04AE04BF04D1F0409A63
:100750002B9A28EE33E040E050E00E947B131F927A
:100760002F936F927F928CE092E09F938F931F93D1
:100770000F930E9463150FB6F894DEBF0FBECDBF76
:1007800010C06F927F9281E292E09F938F931F93AC
:100790000F930E9463150F900F900F900F900F9082
:1007A0000F900E947B090E94DB0960E080E00E94BC
:1007B000230560E1C8010E94040564960FB6F89411
:1007C000DEBF0FBECDBFDF91CF911F910F91FF9084
:1007D000EF90DF90CF90BF90AF909F908F907F90E1
:1007E0006F9008952F923F924F925F926F927F92F7
:1007F0008F929F92AF92BF92CF92DF92EF92FF9231
:100800000F931F93CF93DF93CDB7DEB769970FB6E2
:10081000F894DEBF0FBECDBF8091F3049091F40435
:1008200068EE73E00E945313362E072F6091AF04D9
:100830007091B0048091B1049091B20418EEC12E71
:1008400013E0D12EE12CF12CA70196010E947B131D
:10085000122F60916A0470916B0480916C049091E6
:100860006D04A70196010E947B138090F50490907F
:10087000F604A090F704B090F804409074045090EF
:100880007504609076047090770480916E04909166
:100890006F04A0917004B09171048D8B9E8BAF8B0F
:1008A000B88F60E080E0298F0E9423058091720458
:1008B0001F928F931F92298D2F931F921F930F9337
:1008C0003F9203E3202E02E0302E3F922F928E01C2
:1008D0000F5F1F4F1F930F930E94631560E1C801C4
:1008E0000E94040561E080E00E9423050FB6F894A1
:1008F000DEBF0FBECDBF40916A0450916B04609182
:100900006C0470916D0480916E0490916F04A091BD
:100910007004B0917104481759076A077B0771F199
:10092000809173041F928F936D897E898F89988D32
:10093000A70196010E947B131F922F93C301B2015E
:10094000A70196010E947B131F922F93C501B4014A
:10095000A70196010E947B131F922F933F922F9223
:100960001F930F930E94631560E1C8010E94040564
:100970000FB6F894DEBF0FBECDBF05C060E18CE4BA
:1009800092E00E94040569960FB6F894DEBF0FBE90
:10099000CDBFDF91CF911F910F91FF90EF90DF902E
:1009A000CF90BF90AF909F908F907F906F905F900F
:1009B0004F903F902F90089582B9299A289A8FEFEF
:1009C00091E10197F1F700C00000289829988FEF76
:1009D00091E10197F1F700C00000089582B9289ACB
:1009E0008FEF91E10197F1F700C0000028988FEF99
:1009F00091E10197F1F700C00000089581E00C94A7
:100A0000EE0482E00C94EE04EF92FF921F93CF93DA
:100A1000DF931F92CDB7DEB7009771F0182F7C01DE
:100A20008E2D811B861740F4F70181917F01698328
:100A30000E94DC046981F4CF0F90DF91CF911F9168
:100A4000FF90EF900895623031F0633031F0613003
:100A500029F4805C03C08C5E01C08C5A80680C94C1
:100A6000EE041F93CF93DF93EC01862F642F0E9437
:100A7000230510E0FE01E10FF11D8491882329F088
:100A800084910E94DC041F5FF5CFDF91CF911F910D
:100A90000895EF92FF920F931F93CF93DF938C01F2
:100AA00088E0689FB0011124862F8064E82EC0E0A2
:100AB000D0E0F801EC0FFD1FF4908C2F8E0D0E94FA
:100AC000EE048F2D0E94DC042196C830D10589F7F1
:100AD000DF91CF911F910F91FF90EF9008951F9399
:100AE000CF93DF932FEF87ED90E02150804090402F
:100AF000E1F700C0000012B815B881B18FEF81B9DD
:100B000084B1836084B980E382B9289A8FEF91E140
:100B10000197F1F700C0000028988FEF91E101974D
:100B2000F1F700C0000080E382B9289A8FEF91E1CD
:100B30000197F1F700C0000028988FEF91E101972D
:100B4000F1F700C0000080E382B9289A8FEF91E1AD
:100B50000197F1F700C0000028988FEF91E101970D
:100B6000F1F700C0000088E382B9289A8FEF91E185
:100B70000197F1F700C0000028988FEF91E10197ED
:100B8000F1F700C000008CE082B9289A8FEF91E164
:100B90000197F1F700C0000028988FEF99E50197C1
:100BA000F1F700C00000CCE7D0E060E011E0160FE4
:100BB000CE010E9449052896183011F0612FF6CF1A
:100BC000DF91CF911F910895CF93DF93D82FC0E08D
:100BD000CD1729F08EE10E94EE04CF5FF9CFDF91AF
:100BE000CF910895CF93DF93D82FC0E0CD1729F090
:100BF00088E10E94EE04CF5FF9CFDF91CF91089595
:100C00008EE00C94EE048FE00C94EE048CE00C94D7
:100C1000EE0488E00C94EE048CE00C94EE04CF9388
:100C2000DF93D82FC0E0CD1729F080E10E94EE04B9
:100C3000CF5FF9CFDF91CF910895CF93DF93D82F76
:100C4000C0E0CD1729F084E10E94EE04CF5FF9CF18
:100C5000DF91CF910895CF92DF92EF92FF920F93A1
:100C60001F93CF93DF931F92CDB7DEB756E0459F1A
:100C700090011124E82FE29FC001E39F900D112401
:100C800070E00E9467138B01CB0166E070E00E9468
:100C90005313E82EC12CD12CF12CF416B9F0960187
:100CA0002B5F3F4F0217130728F40C151D0520F08A
:100CB0008E2D03C085E001C080E049830E94DC04E2
:100CC000F394F6E0CF0ED11C4981E7CF0F90DF916E
:100CD000CF911F910F91FF90EF90DF90CF900895EB
:100CE000EF92FF920F931F93CF93DF93CDB7DEB7B1
:100CF0002D970FB6F894DEBF0FBECDBF162F082F6D
:100D0000F92E80E84A9940C02A873B874C875D8747
:100D100079870E94EE0460E18FEF92E00E94040563
:100D2000FF920F9379857F931F9380E1E82E83E0F4
:100D3000F82EFF92EF928E010F5F1F4F1F930F93BC
:100D40000E94631580EC0E94EE0468E0C8010E94D6
:100D500004055D855F934C854F933B853F932A85C2
:100D60002F93FF92EF921F930F930E94631588ECCD
:100D70000E94EE0468E0C8010E9404050FB6F894D2
:100D8000DEBF0FBECDBF0FC00E94EE0460E187E161
:100D900093E00E94040580EC0E94EE0460E188E28A
:100DA00093E00E9404052D960FB6F894DEBF0FBEA7
:100DB000CDBFDF91CF911F910F91FF90EF900895DC
:100DC0000F931F9394B19F7094B994B1906B94B9A1
:100DD00094E0099F80011124016598E0299F90010A
:100DE0001124022B20E2829FC0011124082B0CBD8C
:100DF00081E01F910F910895CF93DF9300D000D031
:100E0000CDB7DEB7FC01819119821A821B821C8248
:100E10009E012F5F3F4FD901422F9A2F921B9617A9
:100E200018F491919D93F9CF813009F42C98F90130
:100E30009E2F941B961730F491919EBD0DB407FE22
:100E4000FDCFF6CF813009F42C9A862F0F900F90AA
:100E50000F900F90DF91CF910895CF93DF93CDB78F
:100E6000DEB728970FB6F894DEBF0FBECDBFFC01EA
:100E700071911D821E821F82188619821A821B821E
:100E80001C82AE014B5F5F4FDA012A2F241B26170D
:100E900018F421912D93F9CF713009F42C989E010B
:100EA0002F5F3F4FDA01F901422F5E2F521B561779
:100EB00040F45D915EBD0DB407FEFDCF5EB551936C
:100EC000F4CF713009F42C9AFC01D9018A2F841BCC
:100ED000861718F48D918193F9CF862F28960FB637
:100EE000F894DEBF0FBECDBFDF91CF910895809102
:100EF0006203882371F0809162038F5F80936203A5
:100F0000809162038C3728F081E080936303109214
:100F1000620308950F93CF93DF9300D000D01F9208
:100F2000CDB7DEB785E0E3E0F1E0DE011196019098
:100F30000D928A95E1F701E021E040E452E46FE090
:100F400070E080E00E94E00664E0CE0101960E941D
:100F5000FC060F900F900F900F900F90DF91CF91A4
:100F60000F910895FF920F931F93CF93DF9300D0BB
:100F700000D01F92CDB7DEB7F62E8E010F5F1F4F48
:100F800095E0F80111929A95E9F749838770F8E0A6
:100F90008F9FC001112480648A8361E06F0DC801B6
:100FA0000E942D07E1E060E070E0CB014F2D50E0A2
:100FB0002E2F30E04217530774F0982F872F762F8B
:100FC0006627D801A20FB31F2C91620F711D811DDE
:100FD000911DEF5FEDCF0F900F900F900F900F903E
:100FE000DF91CF911F910F91FF90089541E061E053
:100FF00084E00E94B20710926203109263036F7044
:1010000081E06B3009F080E008950F93CF93DF9378
:10101000CDB7DEB729970FB6F894DEBF0FBECDBFB0
:101020004E835F8368877987FE01319695E0DF0103
:101030001D929A95E9F72F5F09838770880F880FB3
:10104000880F8A83322FBE016A5F7F4F323050F0A3
:10105000CF01830F911DDB014D91BD01DC014C934C
:101060003150F4CF622FCF010E94FC0629960FB6B3
:10107000F894DEBF0FBECDBFDF91CF910F910895E1
:101080001E99FECF0895CF92DF92EF92FF920F93B9
:101090006B017C0141E062E081E00E94B207AB019C
:1010A000BC015F7166277727D701C6010DE0880F65
:1010B000991FAA1FBB1F0A95D1F7AA27BB27482B48
:1010C000592B6A2B7B2B01E022E081E00E9405086E
:1010D0000F91FF90EF90DF90CF900895CF92DF9225
:1010E000EF92FF920F936B017C0141E062E082E09E
:1010F0000E94B207AB01BC01487F87E0C822DD2413
:10110000EE24FF244C295D296E297F2901E022E08D
:1011100082E00E9405080F91FF90EF90DF90CF9042
:101120000895CF92DF92EF92FF920F936B017C01B3
:1011300041E062E082E00E94B207AB01BC01587F4F
:1011400087E0C822DD24EE24FF24FE2CED2CDC2CCD
:10115000CC244C295D296E297F2901E022E082E020
:101160000E9405080F91FF90EF90DF90CF900895B7
:101170000F93CF93C82F41E062E082E00E94B20754
:10118000AB01BC014F7720E8C29FC0011124992711
:10119000AA2797FDA095BA2F482B592B6A2B7B2B9A
:1011A00001E022E082E00E940508CF910F910895AE
:1011B0000F93CF93C82F70E080E090E00E946E08FC
:1011C00041E062E081E00E94B2074C2F50E0542FD2
:1011D00044275295550F507E60E070E001E022E018
:1011E00081E00E940508CF910F910C9440080F9365
:1011F0002C9800E022E040E050E260E070E081E006
:101200000E9405080E94400840E063E083E00E94DD
:10121000B2072C9A0F910895CF92DF92EF92FF922E
:101220000F93CF93DF93C82F01E022E040E050E01E
:10123000BA0181E00E940508D0E0C12CD12C7601D2
:10124000DC1759F041E063E083E00E94B207C60E6C
:10125000D71EE81EF91EDF5FF3CF2D2F30E040E0F0
:1012600050E0C701B6010E947B13CA01B901DF91AA
:10127000CF910F91FF90EF90DF90CF9008950F9353
:101280001F93613029F000E810E020E030E004C056
:1012900000E810E420E030E0482F477050E060E0C4
:1012A00070E040615C60402B512B622B732B01E09E
:1012B00022E082E00E9405081F910F91089561E0ED
:1012C0000C943F0960E00E943F0981E08093620333
:1012D0001092630308954EE050E066E070E08FEDF9
:1012E00094E00E94571746E050E060E070E083EF22
:1012F00094E00C9457174EE050E066E070E089EF00
:1013000094E00E9457172091DF043091E00480910F
:10131000F9049091FA042817390709F043C0209185
:10132000E1043091E2048091FB049091FC042817C1
:101330003907C1F52091E3043091E4048091FD0464
:101340009091FE042817390769F52091E504309142
:10135000E6048091FF04909100052817390711F5E4
:101360002091E7043091E8048091010590910205F5
:1013700028173907B9F49091E9048091030598136F
:1013800011C09091EA048091040598130BC020913C
:10139000EB043091EC048091050590910605281727
:1013A000390741F04EE050E066E070E08FED94E0E8
:1013B0000C946717089546E050E060E070E08DEE11
:1013C00094E00E9457172091ED043091EE04809133
:1013D000F3049091F40428173907A9F44091EF041D
:1013E0005091F0046091F1047091F2048091F50441
:1013F0009091F604A091F704B091F80448175907AA
:101400006A077B0741F046E050E060E070E083EF60
:1014100094E00C946717089584B18C6084B987B107
:101420008F6087B98AB1806C8AB9529853985A9A5A
:101430005B9A3C983D983E983F98449A459A469AC4
:10144000479AE0EBF0E08081836A8083E1EBF0E093
:101450008081866080838091E9048093B3008091CD
:10146000EA048093B40085B5826085BD16BCEEE6C3
:10147000F0E0808181608083E0E8F0E08081826A32
:101480008083E1E8F0E080818B6180838091E704D4
:101490009091E80490938700809386008AB18063DE
:1014A0008AB98091DF049091E00490938900809341
:1014B00088008091E1049091E20490938B008093E6
:1014C0008A0008958093B30008958093B40008952E
:1014D0000E94FE0460E083E00E9423056AE089E345
:1014E00093E00E9404050E948A070E94F60781117A
:1014F0000BC00E94FE0460E082E00E9423056AE0C7
:1015000084E493E00C94040561E080E00E942305EC
:1015100065E08FE493E00E94040580E00E945F098B
:1015200069E085E593E00E94040581E00E945F097F
:1015300062E08FE593E00E940405109264038091BD
:1015400064030E9462090C94FE040E946B090E94CD
:101550000C0A0E946F050E94FE040E94680A89E03E
:1015600090E00E94620C8091F3049091F404813425
:101570009C4930F080E49CE99093F4048093F30458
:1015800078940895653671052CF477FF05C060E006
:1015900070E002C064E670E0811119C0E091DF04E0
:1015A000F091E0042091E3043091E4042E1B3F0B02
:1015B00044E6429FC001439F900D11240E945313A3
:1015C0006E0F7F1F70938900609388000895E091EB
:1015D000E104F091E2042091E5043091E6042E1B31
:1015E0003F0B44E6429FC001439F900D11240E948F
:1015F00053136E0F7F1F70938B0060938A000895C2
:101600004A9910C04091EB045091EC0464E6649F49
:101610009001659F300D112441E02817390718F01B
:1016200040E001C041E0842F0895CF93DF93FB0198
:10163000E9011A821B821C821D82198218829F83F3
:101640008E83798768875B874A87BC016F5F7F4F8E
:101650008FEF9FE70E9467137D876C879F012F5F45
:101660003F4F442737FD4095542F6FEF7FEF8FEFAB
:101670009FE30E949D132E873F87488B598BDF91F4
:10168000CF9108958F929F92AF92BF92CF92DF92A7
:10169000EF92FF92CF93DF93EB01FA016C01E12C03
:1016A000F12CC61AD70AE108F10824853585C9014D
:1016B000AA2797FDA095BA2F8C159D05AE05BF05ED
:1016C000B4F088279927821B930BAA2797FDA09532
:1016D000BA2FC816D906EA06FB0684F0A681B781A0
:1016E000A70196010E94CB134B015C010EC0882418
:1016F0008A949FE7992EA12CB12C07C0882483944B
:1017000080E8982EAA24AA94BA2C2281338144819D
:1017100055812C0D3D1D4E1D5F1D86859785A08929
:10172000B18982179307A407B5074CF4828393838A
:10173000A483B5836FEF7FEF8FEF9FE31DC0B0955C
:10174000A095909581959F4FAF4FBF4F28173907B0
:101750004A075B074CF482839383A483B58361E0DB
:1017600070E080E090EC08C022833383448355838B
:10177000A085B1850E94CB13408151814C1B5D0B2C
:10178000A285B3854A9F90014B9F300D5A9F300D23
:101790001124D183C083680D791D8A1D9B1D620FA2
:1017A000731F811D911D20E830E040E050E00E9451
:1017B0009D13213080E838078FEF4807580724F43D
:1017C00021E030E84FEF5FEFDA01C901811520E831
:1017D0009207A105B10524F08FEF9FE7A0E0B0E0EC
:1017E000DF91CF91FF90EF90DF90CF90BF90AF90BF
:1017F0009F908F900895FC011282138214821582AB
:1018000008951F920F920FB60F9211242F933F93BA
:101810004F935F938F939F93EF93FF934091C000FB
:101820005091C60048718091670390E001968F77D0
:1018300099272091660330E08217930739F080934F
:101840006703FC01E659FC4F508301C042E040931E
:101850006503FF91EF919F918F915F914F913F9120
:101860002F910F900FBE0F901F9018951F920F92FF
:101870000FB60F9211248F939F93EF93FF93909144
:10188000690380916803981779F08091680390E06C
:1018900001968F77992780936803FC01E651FC4FEE
:1018A00080818093C60005C08091C1008F7D8093A8
:1018B000C100FF91EF919F918F910F900FBE0F90FC
:1018C0001F90189510926903109268031092670395
:1018D0001092660397FF04C022E02093C0009F7718
:1018E0009093C5008093C40088E98093C10086E08E
:1018F0008093C200089590916703809166039817C2
:10190000A1F08091660390E001968F7799278093EC
:101910006603FC01E659FC4F20818091650390E04D
:10192000982F8827820F911D089580E091E00895F7
:101930009091670380916603981789F0E0916603A0
:10194000F0E03196EF77FF27E659FC4F2081809138
:10195000650390E0982F8827820F911D089580E0FD
:1019600091E008952091690330E02F5F3F4F2F777A
:1019700033274091680350E024173507D1F3F9016C
:10198000E651FC4F8083209369038091C1008062FF
:101990008093C1000895CF93DF93EC018991882350
:1019A00019F00E94B20CFACFDF91CF910895CF9336
:1019B000DF93FC018491EF012196882321F00E949E
:1019C000B20CFE01F7CFDF91CF91089580916703AC
:1019D0002091660390E080589F4F821B91098F777A
:1019E0009927089580916603809367030895CF93A4
:1019F000DF93CDB7DEB764970FB6F894DEBF0FBEA6
:101A0000CDBF0E94A50A8DE592E00E94CB0C2AE989
:101A100034E040E050E060E070E080E890E00E9458
:101A2000150B28E734E040E050E060E070E080E82B
:101A300090E00E94150B10926A0410926B041092B1
:101A40006C0410926D0410926E0410926F04109248
:101A5000700410927104812C912CA12CB12C8E0158
:101A60000F5F1F4FE1EA2E2EE2E03E2E0E9464023D
:101A70008091630381110E94DE0080910201843114
:101A800021F080910201853139F44A9905C04B99C2
:101A900003C00E9457034DC0809102018B3021F496
:101AA0004A991AC04B9918C0B1106FC0349B06C038
:101AB000359B04C0369B02C0379967C080910201F4
:101AC0008A3069F4349B06C0359B04C0369B02C043
:101AD000379905C04A9903C00E94A8022AC0809184
:101AE0000201843129F4369903C00E94C10221C049
:101AF00080910201853111F4379BEECF8091020174
:101B0000823351F4369903C00E94F30212C0379910
:101B10003CC00E948F020DC080910201833361F4AA
:101B2000369903C00E940C0304C037992EC00E944E
:101B3000DA02BB24B39429C080910201843341F4BA
:101B4000369903C00E942503F4CF379BDDCF1DC01B
:101B5000809102018C3341F4369903C00E943E0308
:101B6000E8CF379BDFCF11C0809102018D3329F47C
:101B7000369BCFCF379BE6CF08C0809102018634D9
:101B800021F4369BD4CF379BE9CF349B06C0359BDD
:101B900004C0369B02C037992BC044244394B41030
:101BA0007EC580910201823348F0379907C036998B
:101BB00005C00E94A8020E947B090EC0809102010C
:101BC000853121F080910201843141F4379906C0BA
:101BD000369904C00E94DA0272E0B72E2FEF4FEC64
:101BE00082E0215040408040E1F700C0000001C089
:101BF000B12C809194049091950464E670E00E9469
:101C00005313892B09F032CF809102018A3009F0F9
:101C10004AC0C0909604D0909704E0909804F09049
:101C2000990460E27BE18CE79CE0A70196010E94A9
:101C30007B13BA01A9014093B7045093B804609391
:101C4000B9047093BA041092BB041092BC041092B1
:101C5000BD041092BE044090B3045090B404609050
:101C6000B5047090B60460E27BE18CE79CE0A301D0
:101C700092010E947B13BA01A90140938C045093F6
:101C80008D0460938E0470938F04109290041092D0
:101C900091041092920410929304A3019201C7013F
:101CA000B6010E94700680910201863461F5359B71
:101CB00002C0349928C060E08FE00E94230561E0F3
:101CC0008BE592E00E94040561E080E00E9423051C
:101CD00060E185E792E00E9404050E94FA0161E05C
:101CE00080E00E94230560E186E892E00E940405FE
:101CF0009FEFAFE3B8E39150A040B040E1F700C0E0
:101D000000000E948F0280910201823309F05DC0C1
:101D10008091AE04882391F08091AE048F3F11F43E
:101D20009AE001C091E08091E904981720F4891BA2
:101D30008093E90403C081111092E9048091AD04FD
:101D40008823D9F08091AD048F3F11F45AE001C08F
:101D500051E04091E904242F30E08FEF90E0851BA3
:101D600091092817390724F4450F4093E90405C069
:101D70004F3F19F08FEF8093E9048091E9041F929F
:101D80008F9387E992E09F938F931F930F930E9405
:101D9000631561E080E00E94230564E0C8010E94B1
:101DA000040561E084E00E9423054AE06FEF809122
:101DB000E9040E942B068091E9040E94620A0F90B8
:101DC0000F900F900F900F900F908091020183332E
:101DD00009F05DC08091AE04882391F08091AE043B
:101DE0008F3F11F49AE001C091E08091EA049817C6
:101DF00020F4891B8093EA0403C081111092EA0445
:101E00008091AD048823D9F08091AD048F3F11F407
:101E10005AE001C051E04091EA04242F30E08FEFF6
:101E200090E0851B91092817390724F4450F40934A
:101E3000EA0405C04F3F19F08FEF8093EA048091C8
:101E4000EA041F928F9387E992E09F938F931F93E9
:101E50000F930E94631561E080E00E94230564E017
:101E6000C8010E94040561E084E00E9423054AE065
:101E70006FEF8091EA040E942B068091EA040E9491
:101E8000650A0F900F900F900F900F900F90809118
:101E90000201843309F06EC08091AE04882311F1F1
:101EA0008091AE048F3F19F480ED97E002C088EE78
:101EB00093E02091EB043091EC04AC01485F5D4A63
:101EC0004217530738F4281B390B3093EC04209346
:101ED000EB0408C068E0462E62E5562E5092EC04F2
:101EE0004092EB048091AD04882331F18091AD04E0
:101EF0008F3F19F480ED97E002C088EE93E02091C7
:101F0000EB043091EC046901E12CF12C48EE5DEF1B
:101F100060E070E0481B590B61097109C416D506D1
:101F2000E606F7061CF4820F931F02C088EE9DEFB1
:101F30009093EC048093EB048091EB049091EC047B
:101F400068EE73E00E9453137F936F933F922F923A
:101F50001F930F930E94631561E087E00E942305A1
:101F600063E0C8010E9404050F900F900F900F903E
:101F70000F900F90809102018C3309F04FC0809137
:101F8000AE04882361F08091AE048F3F11F48AE0A3
:101F900001C081E08A1510F4A81A01C0A12C80911B
:101FA000AD048823A1F08091AD048F3F11F44AE085
:101FB00001C041E02A2D30E084E690E0841B9109C5
:101FC0002817390714F4A40E02C054E6A52EEA2CF3
:101FD000F12C1F92AF9288EA92E09F938F931F9308
:101FE0000F930E94631561E080E00E94230564E086
:101FF000C8010E94040561E084E00E9423054AE0D4
:1020000064E68A2D0E942B06B70180E00E94C20A76
:102010000F900F900F900F900F900F9080910201F2
:102020008D3309F04FC08091AE04882361F0809118
:10203000AE048F3F11F48AE001C081E0891510F4ED
:10204000981A01C0912C8091AD048823A1F0809151
:10205000AD048F3F11F44AE001C041E0292D30E08A
:1020600084E690E0841B91092817390714F4940E34
:1020700002C044E6942EE92CF12C1F929F9288EA2C
:1020800092E09F938F931F930F930E94631561E0DB
:1020900080E00E94230564E0C8010E94040561E01D
:1020A00084E00E9423054AE064E6892D0E942B0605
:1020B000B70181E00E94C20A0F900F900F900F901D
:1020C0000F900F9080910201843109F0E4C080915B
:1020D000AE04882311F18091AE048F3F19F480ED96
:1020E00097E002C088EE93E02091F3043091F4046D
:1020F000AC014053584F4217530738F4281B390B93
:102100003093F4042093F30408C030ED632E37E0DD
:10211000732E7092F4046092F3048091AD048823CE
:1021200021F18091AD048F3F19F480ED97E002C05A
:1021300088EE93E04091F3045091F4042091EB0475
:102140003091EC0428583341B901681B790B4617CC
:10215000570738F4840F951F9093F4048093F30489
:1021600004C03093F4042093F3048091F30490911D
:10217000F40468EE73E00E9453137F936F933F92D1
:102180002F921F930F930E94631561E087E00E94D6
:10219000230563E0C8010E9404052091F3043091F7
:1021A000F4046901E12CF12C8091F5049091F6047E
:1021B000A091F704B091F8048C0D9D1DAE1DBF1DBC
:1021C0000F900F900F900F900F900F90813A9648BC
:1021D000A140B10580F080EA96E8A1E0B0E08C195A
:1021E0009D09AE09BF098093F5049093F604A0936E
:1021F000F704B093F80440916A0450916B04609125
:102200006C0470916D0480916E0490916F04A091A4
:102210007004B0917104481759076A077B0749F4A5
:10222000C0926A04D0926B04E0926C04F0926D0448
:102230002AC0A4E6B0E00E94BC132B013C016091CF
:10224000F5047091F6048091F7049091F80428EE5B
:1022500033E040E050E00E947B1384E690E0A0E091
:10226000B0E0821B930BA40BB50B9C01AD01C30125
:10227000B2010E947B1320936A0430936B04409355
:102280006C0450936D04C0926E04D0926F04E0927F
:102290007004F0927104809102018B3009F083C0C8
:1022A000349B02C035997FC040916A0450916B0401
:1022B00060916C0470916D0480916E0490916F0434
:1022C000A0917004B0917104481759076A077B0701
:1022D00009F069C08091AE04882309F18091AE04B1
:1022E0008F3F19F420ED37E002C028EE33E08091F3
:1022F000F3049091F404A901485F5D4A4817590717
:1023000038F4821B930B9093F4048093F30409C078
:10231000A8E0B2E5B093F404A093F30402C020E077
:1023200030E08091AD04882321F18091AD048F3F8E
:1023300019F420ED37E002C028EE33E04091F304B9
:102340005091F4048091EB049091EC0488589341EF
:10235000BC01621B730B4617570738F4420F531F1B
:102360005093F4044093F30404C09093F4048093D6
:10237000F3048091F3049091F404A0E0B0E0809322
:102380006A0490936B04A0936C04B0936D048093E3
:102390006E0490936F04A0937004B0937104232B88
:1023A00011F00E945703809102018B3031F436996D
:1023B00004C0379902C088248394809102018B3035
:1023C00039F4379905C0369B03C00E945703812C0E
:1023D00080910201853109F0D7C08091AE04882335
:1023E00069F18091AE048F3F19F480ED97E002C04F
:1023F00088EE93E04091F5045091F6046091F70463
:102400007091F804A0E0B0E084179507A607B7071D
:1024100068F4481B590B6A0B7B0B4093F5045093EF
:10242000F6046093F7047093F80408C01092F50462
:102430001092F6041092F7041092F8048091AD0403
:10244000882309F443C08091AD048F3F19F480EDD7
:1024500097E002C088EE93E04091F5045091F604B5
:102460006091F7047091F8046C01E12CF12C8091DB
:10247000F3049091F40420EA422E26E8522E6624BA
:102480006394712C481A590A61087108D301C2017A
:102490004C185D086E087F084415550566057705DC
:1024A00068F44C0D5D1D6E1D7F1D4093F504509327
:1024B000F6046093F7047093F80408C08093F50461
:1024C0009093F604A093F704B093F8046091F50498
:1024D0007091F6048091F7049091F80428EE33E0AF
:1024E00040E050E00E947B131F922F933F922F9267
:1024F0001F930F930E94631561E087E00E942305FC
:1025000063E0C8010E940405E090F304F090F40435
:102510009701A4E6B0E00E94BC132B013C0160913E
:10252000F5047091F6048091F7049091F80428EE78
:1025300033E040E050E00E947B1384E690E0A0E0AE
:10254000B0E0821B930BA40BB50B9C01AD01C30142
:10255000B2010E947B1320936A0430936B04409372
:102560006C0450936D04C701A0E0B0E080936E044A
:1025700090936F04A0937004B09371040F900F9028
:102580000F900F900F900F90809102018B3009F007
:102590006DCA80917404909175040E94000B882389
:1025A00009F181E080930201419A439A2A982B987D
:1025B0004298409860E080E00E94230560E18EEA46
:1025C00092E00E94040561E080E00E94230560E142
:1025D0004A9903C08FEB92E002C080ED92E00E9426
:1025E000040544CA811058C0609174047091750448
:1025F0008091760490917704C090AF04D090B0049D
:10260000E090B104F090B20428EE33E040E050E0F6
:102610000E947B13722E632E542E452E24E630E04A
:1026200040E050E00E947B135F934F933F932F93C2
:102630004F925F926F927F92C701B60128EE33E00E
:1026400040E050E00E947B13F22EE32ED42EC52EE4
:1026500024E630E040E050E00E947B135F934F930C
:102660003F932F93CF92DF92EF92FF92A1EEB2E0D1
:10267000BF93AF931F930F930E94631561E080E0B7
:102680000E94230560E1C8010E9404050FB6F8947A
:10269000DEBF0FBECDBFEAC90E94F203E7C9BB206F
:1026A00009F4A7CA9BCAAA1BBB1B51E107C0AA1FFA
:1026B000BB1FA617B70710F0A61BB70B881F991FE3
:1026C0005A95A9F780959095BC01CD01089597FB87
:1026D000072E16F4009407D077FD09D00E945313FB
:1026E00007FC05D03EF4909581959F4F0895709515
:1026F00061957F4F0895A1E21A2EAA1BBB1BFD0115
:102700000DC0AA1FBB1FEE1FFF1FA217B307E407D0
:10271000F50720F0A21BB30BE40BF50B661F771F28
:10272000881F991F1A9469F7609570958095909508
:102730009B01AC01BD01CF010895052E97FB1EF44E
:1027400000940E94B41357FD07D00E947B1307FC2E
:1027500003D04EF40C94B4135095409530952195C8
:102760003F4F4F4F5F4F08959095809570956195BD
:102770007F4F8F4F9F4F0895A29FB001B39FC0011D
:10278000A39F700D811D1124911DB29F700D811D9D
:102790001124911D0895B7FF0C9458150E945815E7
:1027A000821B930B0895DF93CF931F930F939A9DF2
:1027B000F02D219FF00D8B9DF00D8A9DE02DF10DE8
:1027C000039FF00D029FE00DF11D4E9DE00DF11DE8
:1027D0005E9DF00D4F9DF00D7F936F93BF92AF9272
:1027E0005F934F93D5010E94BC138B01AC01D701BD
:1027F0000E94BC13EB01E80FF91FD6010E942314BD
:102800002F913F91D6010E94BC13C60FD71FE81F1E
:10281000F91FAF91BF910E9423142F913F910E9405
:10282000BC13C60FD71FE81FF91FD6010E94BC13A7
:10283000E60FF71F9801BE01CF0111240F911F91E0
:10284000CF91DF9108950E94BC13460F571FC81FF8
:10285000D91F08F431960895689401C0E894F92FBF
:10286000F12B12F00C946014A0E0B0E0EAE3F4E184
:102870000C94D214092E059422F40E94BC14112346
:1028800092F4F0E80F26FFEFE094F0940095109595
:10289000B094C094D094A194BF0ACF0ADF0AEF0A83
:1028A000FF0A0F0B1F0B0E946B1407FC0E94BC1445
:1028B000CDB7DEB7ECE00C94EE14689401C0E89458
:1028C0008F929F92CF93DF930E946B14DF91CF91F1
:1028D0009F908F90089588249924F401E401B0E436
:1028E0009F93AA279A158B049C04ED05FE05CF053E
:1028F000D007A10798F4AD2FDC2FCF2FFE2FE92DA5
:10290000982C892E982F872F762F652F542F432FA1
:10291000322F2227B85031F7BF9127C01B2EBF910D
:10292000BB27220F331F441F551F661F771F881FA9
:10293000991F881C991CEE1FFF1FCC1FDD1FAA1FAB
:10294000BB1F8A149B04EC05FD05CE05DF05A0071F
:10295000B10748F08A189B08EC09FD09CE09DF0988
:10296000A00BB10B21601A94E1F62EF49401AF0193
:10297000BE01CD01000C08956095709580959095ED
:1029800030954095509521953F4F4F4F5F4F6F4F7A
:102990007F4F8F4F9F4F08952F923F924F925F929C
:1029A0006F927F928F929F92AF92BF92CF92DF925F
:1029B000EF92FF920F931F93CF93DF93CDB7DEB7C4
:1029C000CA1BDB0B0FB6F894DEBF0FBECDBF099458
:1029D0002A88398848885F846E847D848C849B84AF
:1029E000AA84B984C884DF80EE80FD800C811B81BD
:1029F000AA81B981CE0FD11D0FB6F894DEBF0FBEEC
:102A0000CDBFED0108950F93083090F0982F872FD8
:102A1000762F652F542F432F322F22270850F4CFC3
:102A2000220F331F441F551F661F771F881F991FD2
:102A30000A95B2F70F91089597FB10F816940008C5
:102A40000F93083098F00850232F342F452F562F1E
:102A5000672F782F892F902DF4CF05949795879520
:102A60007795679557954795379527950A95AAF7CE
:102A70000F9108952A0D3B1D4C1D5D1D6E1D7F1D80
:102A8000801F911F08952A193B094C095D096E09A1
:102A90007F09800B910B08950024A7FD00942A174D
:102AA00030054005500560057005800590050895C6
:102AB0000E94BC13A59F900DB49F900DA49F800D04
:102AC000911D11240895AEE0B0E0E9E6F5E10C9423
:102AD000DA140D891E8986E08C831A8309838FEFAF
:102AE0009FE79E838D83AE01475E5F4F6F89788D30
:102AF000CE0101960E948515EF81F885E00FF11F48
:102B000010822E96E4E00C94F614ACE0B0E0EBE812
:102B1000F5E10C94CC147C016B018A01FC01178255
:102B20001682838181FFBDC1CE0101964C01F70160
:102B30009381F60193FD859193FF81916F01882325
:102B400009F4ABC1853239F493FD859193FF8191EE
:102B50006F01853229F4B70190E00E949517E7CF05
:102B6000512C312C20E02032A0F48B3269F030F46B
:102B7000803259F0833269F420612CC08D3239F0F3
:102B8000803339F4216026C02260246023C028608D
:102B900021C027FD27C030ED380F3A3078F426FFEA
:102BA00006C0FAE05F9E300D1124532E13C08AE058
:102BB000389E300D1124332E20620CC08E3221F449
:102BC00026FD6BC1206406C08C3611F4206802C05B
:102BD000883641F4F60193FD859193FF81916F0151
:102BE0008111C1CF982F9F7D9554933028F40C5FAD
:102BF0001F4FFFE3F9830DC0833631F0833771F047
:102C0000833509F05BC022C0F801808189830E5FA3
:102C10001F4F44244394512C540115C03801F2E055
:102C20006F0E711CF801A080B18026FF03C0652DD6
:102C300070E002C06FEF7FEFC5012C870E948A17FA
:102C40002C0183012C852F77222E17C03801F2E04A
:102C50006F0E711CF801A080B18026FF03C0652DA6
:102C600070E002C06FEF7FEFC5012C870E947F17D5
:102C70002C012C852068222E830123FC1BC0832D70
:102C800090E048165906B0F4B70180E290E00E9447
:102C900095173A94F4CFF50127FC859127FE819191
:102CA0005F01B70190E00E94951731103A94F1E06E
:102CB0004F1A51084114510471F7E5C0843611F0E0
:102CC000893639F5F80127FF07C06081718182815B
:102CD00093810C5F1F4F08C060817181882777FD49
:102CE0008095982F0E5F1F4F2F76B22E97FF09C049
:102CF00090958095709561957F4F8F4F9F4F20687D
:102D0000B22E2AE030E0A4010E94C717A82EA8180E
:102D100044C0853729F42F7EB22E2AE030E025C04A
:102D2000F22FF97FBF2E8F36C1F018F4883579F075
:102D3000B4C0803719F0883721F0AFC02F2F206141
:102D4000B22EB4FE0DC08B2D8460B82E09C024FFB6
:102D50000AC09F2F9660B92E06C028E030E005C05B
:102D600020E130E002C020E132E0F801B7FE07C008
:102D700060817181828193810C5F1F4F06C06081E9
:102D8000718180E090E00E5F1F4FA4010E94C71781
:102D9000A82EA818FB2DFF77BF2EB6FE0BC02B2D3B
:102DA0002E7FA51450F4B4FE0AC0B2FC08C02B2D2F
:102DB0002E7E05C07A2C2B2D03C07A2C01C0752CD9
:102DC00024FF0DC0FE01EA0DF11D8081803311F456
:102DD000297E09C022FF06C07394739404C0822F19
:102DE000867809F0739423FD13C020FF06C05A2C87
:102DF000731418F4530C5718732C731468F4B70138
:102E000080E290E02C870E94951773942C85F5CF73
:102E1000731410F4371801C0312C24FF12C0B7010D
:102E200080E390E02C870E9495172C8522FF17C025
:102E300021FF03C088E590E002C088E790E0B70179
:102E40000CC0822F867859F021FD02C080E201C0BB
:102E50008BE227FD8DE2B70190E00E949517A51443
:102E600038F4B70180E390E00E9495175A94F7CFA9
:102E7000AA94F401EA0DF11D8081B70190E00E944F
:102E80009517A110F5CF332009F451CEB70180E298
:102E900090E00E9495173A94F6CFF70186819781CA
:102EA00002C08FEF9FEF2C96E2E10C94E814DC0156
:102EB000CB01FC01F999FECF06C0F2BDE1BDF89A45
:102EC000319600B40D9241505040B8F70895DC019E
:102ED000CB0103C02D910E94721741505040D0F792
:102EE0000895262FF999FECF1FBA92BD81BD20BD4E
:102EF0000FB6F894FA9AF99A0FBE01960895FC015C
:102F00000590615070400110D8F7809590958E0F14
:102F10009F1F0895FC016150704001900110D8F787
:102F2000809590958E0F9F1F08950F931F93CF93B9
:102F3000DF93182F092FEB018B8181FD03C08FEFE9
:102F40009FEF20C082FF10C04E815F812C813D81A8
:102F5000421753077CF4E881F9819F012F5F3F4FAF
:102F600039832883108306C0E885F985812F099568
:102F7000892B29F72E813F812F5F3F4F3F832E837F
:102F8000812F902FDF91CF911F910F910895FA011A
:102F9000AA27283051F1203181F1E8946F936E7F98
:102FA0006E5F7F4F8F4F9F4FAF4FB1E03ED0B4E089
:102FB0003CD0670F781F891F9A1FA11D680F791FCA
:102FC0008A1F911DA11D6A0F711D811D911DA11DDB
:102FD00020D009F468943F912AE0269F11243019EB
:102FE000305D3193DEF6CF010895462F4770405D86
:102FF0004193B3E00FD0C9F7F6CF462F4F70405D35
:103000004A3318F0495D31FD4052419302D0A9F78F
:10301000EACFB4E0A6959795879577956795BA9589
:10302000C9F700976105710508959B01AC010A2E4F
:1030300006945795479537952795BA95C9F7620F26
:0E304000731F841F951FA01D0895F894FFCFE5
:10304E0008520A01FFFFFFFF55415254204672619C
:10305E006D65204572726F723A20005541525420B0
:10306E004F76657272756E204572726F723A2000DD
:10307E00427566666572206F766572666C6F772034
:10308E006572726F723A2000544F444F3A20507559
:10309E007420736F6D6520646562756720696E6656
:1030AE006F002020202052756E20546573742020EE
:1030BE00203E002020202020202020202020202004
:1030CE0020203E0020202020204F787967656E203A
:1030DE002020202B002020202020202020202020F7
:1030EE00202020202D00202020202048656C69758E
:1030FE006D202020202B00202020427269676874EA
:10310E006E65737320202B0020202020436F6E7479
:10311E00726173742020202B002020456D6572672C
:10312E00656E6379204F32202B002020536574206A
:10313E004F322076616C7665202B0020205365740B
:10314E002048652076616C7665202B004D69786984
:10315E006E6720546D58202532752F25327520202C
:10316E00004D6978696E672045414E78253275208D
:10317E00202000742530327563253032752073742B
:10318E00253032752025303375252500202020204E
:10319E002020202020202020202020200057656C79
:1031AE00636F6D6520746F20626C656E646572204E
:1031BE003A290D0A00202020436865636B696E670B
:1031CE002E2E2E202000202020202020444F4E4541
:1031DE002120202020200025303375202020202083
:1031EE000025303275252500253375252500202034
:1031FE0020456D657267656E637921202020002061
:10320E00204F3220746F6F2068696768212020007C
:10321E00436F6D70726573736F723A20204F46461E
:10322E000053313A25326C692E2530316C692053AA
:10323E00323A25326C692E2530316C6920200020FF
:10324E004F787967656E202048656C69756D200032
:10325E0025366C69755600506C656173652C20744B
:10326E0075726E206F6E2000796F757220636F6DB0
:10327E0070726573736F722100496E6974696E673F
:10328E002E2E2E00414443204572726F7221004350
:10329E00312E2E2E004F4B202043322E2E2E004F3D
:0232AE004B00D3
:00000001FF
