:100000000C945E000C947B000C947B000C947B00A1
:100010000C947B000C947B000C947B000C947B0074
:100020000C947B000C947B000C947B000C947B0064
:100030000C947B000C947B000C947B000C947B0054
:100040000C947B000C947B000C9416070C947B00A2
:100050000C94640C0C94990C0C947B000C947B0015
:100060000C947B000C947B000C947B000C947B0024
:100070000C947B000C947B000C947B00001F000010
:1000800000001F00001F101010101F00001F181884
:1000900018181F00001F1C1C1C1C1F00001F1E1E08
:1000A0001E1E1F00001F1F1F1F1F1F0003070F1F03
:1000B0000F070300181C1E1F1E1C180011241FBE52
:1000C000CFEFD0E1DEBFCDBF13E0A0E0B1E0ECE9BF
:1000D000FCE302C005900D92AA3DB107D9F725E0D7
:1000E000AAEDB3E001C01D92A03FB207E1F70E9464
:1000F000E6180C944C1E0C9400003F924F925F92B5
:100100006F927F928F929F92AF92BF92CF92DF9227
:10011000EF92FF920F931F93CF93DF9381E00E94A2
:100120009C06DC01CB019C01AD0160E070E080E049
:1001300090E04058510961097109810991095901FB
:100140006A017B01E82F192F02E00E94351B0E2F58
:100150000E946C1B59016A017B01E82F192F04E0F2
:100160000E94351B0E2F0E94751B59016A017B01ED
:10017000E82F192F04E00E94351B0E2F0E94751BDB
:100180004901D42FC52FB62FA72FF82FE92F06E04E
:100190000E94351B59016A017B018C0194014D2F8E
:1001A0005C2F6B2F7A2F8F2F9E2F0E946C1BD22ECD
:1001B000E32EF42ED52FC62FB72FF82FE92FA0E06E
:1001C0000E947E1B84F42150310940485F4F6F4FDD
:1001D0007F4F8F4F9F4FD22EE32EF42ED52FC62F59
:1001E000B72FF82FE92F2D2D3E2D4F2D5D2F6C2F82
:1001F0007B2F8F2F9E2F07E10E944E1BC22FB32F04
:10020000F42FE52F362E472E982ED92FA0E00E94EE
:100210007E1B54F40E94EE1AC22FB32FF42FE52F49
:10022000362E472E982ED92F8091DC03811186C05F
:100230005C2E6B2E7F2E8E2EC0934305B09344050B
:10024000F0934505E0934605A0905305B090540502
:10025000C0905505D0905605E0905705F090580590
:100260000091590510915A052C2F3B2F4F2F5E2FCF
:10027000632D742D892D9D2F0E94051AB0E1AB2EA0
:10028000C7E2BC2EC12CD12CE12CF12C00E010E0F7
:100290000E94601A20934B0530934C0540934D0506
:1002A00050934E05E091630584E0E89FF00111242E
:1002B000E758FA4F508261827282838281E0809394
:1002C000DC030E94E0188B3071F560914B05709152
:1002D0004C0580914D0590914E05AAE08A2E912CF7
:1002E000A12CB12CA50194010E949B1969017A01EE
:1002F00060912705709128058091290590912A0524
:10030000A50194010E949B19DA01C90144E155E05D
:10031000B6010E94A20B9093130580931205BC01B5
:1003200080E00E945209809163058F5F809363058E
:100330008A3008F494C01092630591C08B2E6F2E02
:100340005E2EC0934705B0934805F0934905E093AE
:100350004A05A0905B05B0905C05C0905D05D0900B
:100360005E05E0905F05F0906005009161051091D9
:1003700062052C2F3B2F4F2F5E2F632D742D892D5F
:100380009D2F0E94051AE0E1AE2EF7E2BF2EC12C90
:10039000D12CE12CF12C00E010E00E94601A209397
:1003A0004F05309350054093510550935205E0910D
:1003B000640584E0E89FF0011124EF55FA4FC083F3
:1003C0008182628253821092DC030E94E0188B309B
:1003D000E9F580902B0590902C05A0902D05B0900C
:1003E0002E058091270590912805A0912905B091AF
:1003F0002A0588159905AA05BB0541F160914F05AD
:100400007091500580915105909152052AE0422E3D
:10041000512C612C712CA30192010E949B1969013E
:100420007A01C501B401A30192010E949B19DA016E
:10043000C90140E055E0B6010E94A20B909313055C
:1004400080931205BC0181E00E94520980916405ED
:100450008F5F809364058A3010F01092640580915C
:10046000DC03DF91CF911F910F91FF90EF90DF9010
:10047000CF90BF90AF909F908F907F906F905F9044
:100480004F903F900C940D071F93CF93DF930E94E2
:10049000DE0C182FEC01D0FD1EC0D3FF04C085E098
:1004A00091E00E942E0DD2FF04C088E191E00E94ED
:1004B0002E0DD1FF04C08DE291E00E942E0D1F335E
:1004C00021F485E491E00E942E0D812FDF91CF91E0
:1004D0001F910C94150DDF91CF911F91089582B952
:1004E000299A289A8FEF91E10197F1F700C0000057
:1004F000289829988FEF91E10197F1F700C000004B
:10050000089582B9289A8FEF91E10197F1F700C021
:10051000000028988FEF91E10197F1F700C00000EB
:10052000089581E00C94810282E00C948102EF92A4
:10053000FF921F93CF93DF931F92CDB7DEB7009743
:1005400071F0182F7C018E2D811B861740F4F70166
:1005500081917F0169830E946F026981F4CF0F90BE
:10056000DF91CF911F91FF90EF900895623031F0AD
:10057000633031F0613029F4805C03C08C5E01C0CF
:100580008C5A80680C9481021F93CF93DF93EC0107
:10059000862F642F0E94B60210E0FE01E10FF11DCC
:1005A0008491882329F084910E946F021F5FF5CF08
:1005B000DF91CF911F910895EF92FF920F931F93B8
:1005C000CF93DF938C0188E0689FB0011124862FC0
:1005D0008064E82EC0E0D0E0F801EC0FFD1FF4903D
:1005E0008C2F8E0D0E9481028F2D0E946F0221960A
:1005F000C830D10589F7DF91CF911F910F91FF90FE
:10060000EF9008951F93CF93DF932FEF87ED90E046
:10061000215080409040E1F700C0000012B815B8AA
:1006200081B18FEF81B984B1836084B980E382B9ED
:10063000289A8FEF91E10197F1F700C00000289808
:100640008FEF91E10197F1F700C0000080E382B9DC
:10065000289A8FEF91E10197F1F700C000002898E8
:100660008FEF91E10197F1F700C0000080E382B9BC
:10067000289A8FEF91E10197F1F700C000002898C8
:100680008FEF91E10197F1F700C0000088E382B994
:10069000289A8FEF91E10197F1F700C000002898A8
:1006A0008FEF91E10197F1F700C000008CE082B973
:1006B000289A8FEF91E10197F1F700C00000289888
:1006C0008FEF99E50197F1F700C00000CCE7D0E08B
:1006D00060E011E0160FCE010E94DC02289618306F
:1006E00011F0612FF6CFDF91CF911F910895CF9335
:1006F000DF93D82FC0E0CD1729F08EE10E94810250
:10070000CF5FF9CFDF91CF910895CF93DF93D82FAB
:10071000C0E0CD1729F088E10E948102CF5FF9CFB8
:10072000DF91CF9108958EE00C9481028FE00C94BC
:1007300081028CE00C94810288E00C9481028CE0B0
:100740000C948102CF93DF93D82FC0E0CD1729F00E
:1007500080E10E948102CF5FF9CFDF91CF910895B0
:10076000CF93DF93D82FC0E0CD1729F084E10E940A
:100770008102CF5FF9CFDF91CF910895CF92DF92C1
:10078000EF92FF920F931F93CF93DF931F92CDB7FA
:10079000DEB756E0459F90011124E82FE29FC0018B
:1007A000E39F900D112470E00E9487198B01CB010B
:1007B00066E070E00E947319E82EC12CD12CF12C58
:1007C000F416B9F096012B5F3F4F0217130728F478
:1007D0000C151D0520F08E2D03C085E001C080E0C2
:1007E00049830E946F02F394F6E0CF0ED11C498139
:1007F000E7CF0F90DF91CF911F910F91FF90EF9076
:10080000DF90CF900895EF92FF920F93CF93DF93F5
:10081000CDB7DEB76B970FB6F894DEBF0FBECDBF76
:10082000F82E80E84A993EC0288F398F4A8F5B8F17
:100830006D8B7E8B9F8B0E9481029F899F93FF927D
:100840007E897F936D896F9389E891E09F938F9361
:10085000CE0101967C01FF928F930E948A1B60E17A
:10086000C7010E9497021F920F935B8D5F934A8D81
:100870004F93398D3F93288D2F9389E991E09F9372
:100880008F93FF92EF920E948A1B80EC0E9481025C
:1008900060E1C7010E9497020FB6F894DEBF0FBE59
:1008A000CDBF12C00E94810260E18AEA91E00E94FD
:1008B000970280EC0E94810260E18BEB91E00E9444
:1008C00097028FE00E945A0D6B960FB6F894DEBF28
:1008D0000FBECDBFDF91CF910F91FF90EF900895A4
:1008E0000F931F9394B19F7094B994B1906B94B986
:1008F00094E0099F80011124016598E0299F9001EF
:100900001124022B20E2829FC0011124082B0CBD70
:1009100081E01F910F910895CF93DF9300D000D015
:10092000CDB7DEB7FC01819119821A821B821C822D
:100930009E012F5F3F4FD901422F9A2F921B96178E
:1009400018F491919D93F9CF813009F42C98F90115
:100950009E2F941B961730F491919EBD0DB407FE07
:10096000FDCFF6CF813009F42C9A862F0F900F908F
:100970000F900F90DF91CF910895CF93DF93CDB774
:10098000DEB728970FB6F894DEBF0FBECDBFFC01CF
:1009900071911D821E821F82188619821A821B8203
:1009A0001C82AE014B5F5F4FDA012A2F241B2617F2
:1009B00018F421912D93F9CF713009F42C989E01F0
:1009C0002F5F3F4FDA01F901422F5E2F521B56175E
:1009D00040F45D915EBD0DB407FEFDCF5EB5519351
:1009E000F4CF713009F42C9AFC01D9018A2F841BB1
:1009F000861718F48D918193F9CF862F28960FB61C
:100A0000F894DEBF0FBECDBFDF91CF9108958091E6
:100A1000DA03882371F08091DA038F5F8093DA0321
:100A20008091DA03893128F081E08093DB03109212
:100A3000DA0308950F93CF93DF9300D000D01F9275
:100A4000CDB7DEB785E0E0E0F1E0DE011196019080
:100A50000D928A95E1F701E021E040E452E46FE075
:100A600070E080E00E94700464E0CE0101960E9474
:100A70008C040F900F900F900F900F90DF91CF91FB
:100A80000F910895FF920F931F93CF93DF9300D0A0
:100A900000D01F92CDB7DEB7F62E8E010F5F1F4F2D
:100AA00095E0F80111929A95E9F749838770F8E08B
:100AB0008F9FC001112480648A8361E06F0DC8019B
:100AC0000E94BD04E1E060E070E0CB014F2D50E0FA
:100AD0002E2F30E04217530774F0982F872F762F70
:100AE0006627D801A20FB31F2C91620F711D811DC3
:100AF000911DEF5FEDCF0F900F900F900F900F9023
:100B0000DF91CF911F910F91FF90089541E061E037
:100B100084E00E9442051092DA031092DB036F70AA
:100B200081E06B3009F080E008950F93CF93DF935D
:100B3000CDB7DEB729970FB6F894DEBF0FBECDBF95
:100B40004E835F8368877987FE01319695E0DF01E8
:100B50001D929A95E9F72F5F09838770880F880F98
:100B6000880F8A83322FBE016A5F7F4F323050F088
:100B7000CF01830F911DDB014D91BD01DC014C9331
:100B80003150F4CF622FCF010E948C0429960FB60A
:100B9000F894DEBF0FBECDBFDF91CF910F910895C6
:100BA0001E99FECF0895CF92DF92EF92FF920F939E
:100BB0006B017C0141E062E081E00E944205AB01F3
:100BC000BC015F7166277727D701C6010DE0880F4A
:100BD000991FAA1FBB1F0A95D1F7AA27BB27482B2D
:100BE000592B6A2B7B2B01E022E081E00E949505C6
:100BF0000F91FF90EF90DF90CF900895CF92DF920A
:100C0000EF92FF920F936B017C0141E062E082E082
:100C10000E944205AB01BC01487F87E0C822DD2469
:100C2000EE24FF244C295D296E297F2901E022E072
:100C300082E00E9495050F91FF90EF90DF90CF909A
:100C40000895CF92DF92EF92FF920F936B017C0198
:100C500041E062E082E00E944205AB01BC01587FA6
:100C600087E0C822DD24EE24FF24FE2CED2CDC2CB2
:100C7000CC244C295D296E297F2901E022E082E005
:100C80000E9495050F91FF90EF90DF90CF9008950F
:100C90000F93CF93C82F41E062E082E00E944205AB
:100CA000AB01BC014F7720E8C29FC00111249927F6
:100CB000AA2797FDA095BA2F482B592B6A2B7B2B7F
:100CC00001E022E082E00E949505CF910F91089506
:100CD0000F93CF93C82F70E080E090E00E94FE0554
:100CE00041E062E081E00E9442054C2F50E0542F29
:100CF00044275295550F507E60E070E001E022E0FD
:100D000081E00E949505CF910F910C94D0050F932F
:100D10002C9800E022E040E050E260E070E081E0EA
:100D20000E9495050E94D00540E063E083E00E94A8
:100D300042052C9A0F910895CF92DF92EF92FF9285
:100D40000F93CF93DF93C82F01E022E040E050E003
:100D5000BA0181E00E949505D0E0C12CD12C76012A
:100D6000DC1759F041E063E083E00E944205C60EC3
:100D7000D71EE81EF91EDF5FF3CF2D2F30E040E0D5
:100D800050E0C701B6010E949B19CA01B901DF9169
:100D9000CF910F91FF90EF90DF90CF9008950F9338
:100DA0001F93613029F000E810E020E030E004C03B
:100DB00000E810E420E030E0482F477050E060E0A9
:100DC00070E040615C60402B512B622B732B01E083
:100DD00022E082E00E9495051F910F9108950F93E4
:100DE000CF93C82F61E00E94CF06369B13C00E94AC
:100DF000D0056C2F84E00E9468066C2F85E00E946D
:100E0000680601E022E043E050E060E070E081E04D
:100E10000E949505CF910F91089560E00E94CF0642
:100E200081E08093DA031092DB0308951F920F9202
:100E30000FB60F9211242F933F934F935F936F93AD
:100E40007F938F939F93AF93BF93EF93FF93809183
:100E5000CD05893040F18091750590917605019618
:100E600090937605809375051092CD050E94070535
:100E7000809175059091760522E330E0B9010E94DA
:100E80007319892B09F043C08091750590917605FF
:100E9000B9010E947319892B19F481E080937705B9
:100EA0000E947F0D34C08091CD05813081F5809105
:100EB00075059091760564E670E00E947319892BA0
:100EC00031F5809175059091760564EF71E00E948F
:100ED0007319892BC9F4809175059091760568EE98
:100EE00073E00E947319892B49F48091CE0590918B
:100EF000CF0501969093CF058093CE059091DF03A7
:100F000081E0891B8093DF0381E0809378058091E5
:100F1000CD058F5F8093CD05FF91EF91BF91AF918C
:100F20009F918F917F916F915F914F913F912F9101
:100F30000F900FBE0F901F9018958091DF030895BA
:100F40008091DF03882351F08091DE038111419A63
:100F50008091DD03882321F0439A089541984398B6
:100F600008958091DE0308958091DD030895109225
:100F7000DE0308951092DD0308958093DE036093ED
:100F8000DD030895809178050895109277050895FE
:100F90001092780508958091770508958091CE0587
:100FA0009091CF0508954EE050E06CE070E081E351
:100FB00095E00E947E1D4CE050E060E070E086ED20
:100FC00095E00E947E1D8091D6059091D705A0E006
:100FD000B0E08093270590932805A0932905B0934E
:100FE0002A0580932B0590932C05A0932D05B09393
:100FF0002E0508954EE050E06CE070E082EE95E042
:101000000E947E1D20913105309132058091E205CC
:101010009091E3052817390709F043C02091330563
:10102000309134058091E4059091E5052817390742
:10103000C1F520913505309136058091E6059091F6
:10104000E7052817390769F52091370530913805EC
:101050008091E8059091E9052817390711F520914D
:10106000390530913A058091EA059091EB052817F2
:101070003907B9F490913B058091EC05981311C0A4
:1010800090913C058091ED0598130BC020913D0592
:1010900030913E058091EE059091EF0528173907B4
:1010A00041F04EE050E06CE070E081E395E00C949C
:1010B0008E1D08954CE050E060E070E085E695E01C
:1010C0000E947E1D20916505309166058091D605B0
:1010D0009091D70528173907A9F4409167055091D9
:1010E00068056091690570916A058091D8059091B5
:1010F000D905A091DA05B091DB05481759076A07B1
:101100007B0741F04CE050E060E070E086ED95E058
:101110000C948E1D089584B18C6084B987B18F6062
:1011200087B98AB1806C8AB9529853985A9A5B9A57
:101130003C983D983E983F98449A459A469A479ADB
:10114000E0EBF0E08081836A8083E1EBF0E0808176
:101150008660808380913B058093B30080913C053D
:101160008093B40085B5826085BD16BCEEE6F0E0E4
:10117000808181608083E0E8F0E08081826A808302
:10118000E1E8F0E080818B61808380913905909166
:101190003A0590938700809386008AB180638AB96C
:1011A0008091310590913205909389008093880059
:1011B000809133059091340590938B0080938A0041
:1011C00008958093B30008958093B40008950E9419
:1011D000910260E083E00E94B6026AE08CEC91E04C
:1011E0000E9497020E941A050E94860581110BC079
:1011F0000E94910260E082E00E94B6026AE087ED00
:1012000091E00C94970261E080E00E94B60265E0F4
:1012100082EE91E00E94970280E00E94EF0669E072
:1012200088EE91E00E94970281E00E94EF0662E062
:1012300082EF91E00E9497021092DC038091DC0320
:101240000E940D070C9491020E94D3070E948B0804
:101250000E9402030E9491020E94E70889E090E048
:101260000E94C50C8091D6059091D70581349C4988
:1012700030F080E49CE99093D7058093D605349BA9
:10128000FECF359BFCCF369BFACF379BF8CF8FEF45
:101290009FE628E0815090402040E1F700C0000028
:1012A00078940895CF93DF93DB016F3F710509F0C8
:1012B0002CF477FF05C0A0E0B0E002C0AFEFB0E0D3
:1012C00081111DC0A0932F05C0913105D091320529
:1012D00020913505309136052C1B3D0B0E94EB19F2
:1012E0002FEF30E040E050E00E949B192C0F3D1F93
:1012F000411D511D30938B0020938A001CC0A09388
:101300003005C0913305D0913405209137053091D7
:1013100038052C1B3D0B0E94EB192FEF30E040E00D
:1013200050E00E949B192C0F3D1F411D511D309311
:10133000890020938800DF91CF91089560E070E0EC
:1013400080E00E94520960E070E081E00E94520952
:101350002FEF8FE19CE1215080409040E1F700C0E9
:1013600000006FEF70E080E00E9452096FEF70E0C4
:1013700081E00E9452092FEF8FE398E321508040D3
:101380009040E1F700C0000060E070E080E00E9463
:1013900052092FEF8FE398E3215080409040E1F70E
:1013A00000C0000060E070E081E00E9452092FEF71
:1013B0008FE398E3215080409040E1F700C00000A7
:1013C0002A9A429A2FEF8FE19CE121508040904071
:1013D000E1F700C000002B9A409A2FEF8FE19CE1CB
:1013E000215080409040E1F700C00000419A439AAC
:1013F0002FEF8FE19CE1215080409040E1F700C049
:1014000000002A982B984298409841984398089554
:101410000F931F938091DC059091DD052091D605F7
:101420003091D705A90148515C4F4817590748F436
:10143000E1E048515C4F4817590708F0E0E0F1E05F
:1014400002C0E0E0F0E0A901485E53408417950730
:1014500038F4205D37408217930708F4E1E0F1E0AB
:1014600040912705509128056091290570912A0522
:1014700080912B0590912C05A0912D05B0912E0502
:10148000481759076A077B07F1F18091DE059091B3
:10149000DF05A091E005B091E1054091D80550919C
:1014A000D9056091DA057091DB058A019B0108512D
:1014B0001C4F2F4F3F4F081719072A073B0768F4A7
:1014C0008A019B010053184F2F4F3F4F08171907F0
:1014D0002A073B0708F4E1E0F1E08A019B01085E7E
:1014E00013402109310980179107A207B30758F467
:1014F000405D57406109710984179507A607B70732
:1015000008F4E1E0F1E0F093DE03E093DD031F91E6
:101510000F9108950F931F934A9923C040913D0561
:1015200050913E0560E070E080914B0590914C0534
:10153000A0914D05B0914E05481759076A077B07E2
:1015400080F081E000914F051091500520915105E8
:1015500030915205401751076207730718F080E079
:1015600001C081E01F910F9108954F925F926F9299
:101570007F928F929F92AF92BF92CF92DF92EF9223
:10158000FF920F931F930091790510917A05209196
:101590007B0530917C05480159014091A10550918E
:1015A000A2056091A3057091A405E9E7F5E0A1EA21
:1015B000B5E06A017B0141905190619071904016B5
:1015C00051066206730610F4930182018414950497
:1015D000A604B70410F4530142014D905D906D9044
:1015E0007D90441655066606770610F4B301A201F5
:1015F000C414D504E604F70410F47301620185E015
:10160000E13AF807C1F600933F0510934005209397
:101610004105309342058092710590927205A09227
:101620007305B09274054093C9055093CA05609341
:10163000CB057093CC05C092D205D092D305E09231
:10164000D405F092D505801A910AA20AB30A97012F
:101650008601041B150B260B370BC901B8010815B1
:1016600019052A053B0510F4C501B4011F910F911E
:10167000FF90EF90DF90CF90BF90AF909F908F90B2
:101680007F906F905F904F9008950E94B50A653FDC
:1016900071408105910540F580913F05909140058D
:1016A000A0914105B091420580379741A105B10550
:1016B000D8F08091C9059091CA05A091CB05B09151
:1016C000CC0580379741A105B10570F081E04091CC
:1016D000D2055091D3056091D4057091D505493458
:1016E00051476105710508F080E00895CF93DF93BD
:1016F000EB01F90112821382148215821182108289
:10170000978386837187608753874287BC016F5FA9
:101710007F4F8FEF9FE70E94871975876487BE010F
:101720006F5F7F4F8FEF9FE30E948719CB01AA273E
:1017300097FDA095BA2F86879787A08BB18BDF91F5
:10174000CF9108958F929F92AF92BF92CF92DF92E6
:10175000EF92FF92CF93DF93EB01FA016C01E12C42
:10176000F12CC61AD70AE108F10824853585C9018C
:10177000AA2797FDA095BA2F8C159D05AE05BF052C
:10178000B4F088279927821B930BAA2797FDA09571
:10179000BA2FC816D906EA06FB0684F0A681B781DF
:1017A000A70196010E94FD194B015C010EC088241F
:1017B0008A949FE7992EA12CB12C07C0882483948A
:1017C00080E8982EAA24AA94BA2C228133814481DD
:1017D00055812C0D3D1D4E1D5F1D86859785A08969
:1017E000B18982179307A407B5074CF482839383CA
:1017F000A483B5836FEF7FE380E090E01DC0B095D8
:10180000A095909581959F4FAF4FBF4F28173907EF
:101810004A075B074CF482839383A483B58361E01A
:1018200070EC8FEF9FEF08C022833383448355838E
:10183000A085B1850E94FD19208131812C1B3D0BB3
:1018400042855385249F6001259FD00C349FD00C86
:101850001124EE24D7FCE094FE2CD183C083680DC4
:10186000791D8A1D9B1D6C0D7D1D8E1D9F1D20E801
:1018700030E040E050E00E94BD19213080E8380798
:101880008FEF4807580724F421E030E84FEF5FEF6F
:10189000DA01C901253631054105510524F084E6F8
:1018A00090E0A0E0B0E0DF91CF91FF90EF90DF906B
:1018B000CF90BF90AF909F908F900895FC011282BF
:1018C00013821482158208951F920F920FB60F9201
:1018D00011242F933F934F935F938F939F93EF9395
:1018E000FF934091C0005091C60048718091E2037F
:1018F00090E001968F7799272091E10330E08217DD
:10190000930739F08093E203FC01EB51FC4F5083C5
:1019100001C042E04093E003FF91EF919F918F91CE
:101920005F914F913F912F910F900FBE0F901F909D
:1019300018951F920F920FB60F9211248F939F93B9
:10194000EF93FF939091E4038091E303981779F06C
:101950008091E30390E001968F7799278093E303CA
:10196000FC01EB59FB4F80818093C60005C080913C
:10197000C1008F7D8093C100FF91EF919F918F9166
:101980000F900FBE0F901F9018951092E4031092C5
:10199000E3031092E2031092E10397FF04C022E0F8
:1019A0002093C0009F779093C5008093C40088E97E
:1019B0008093C10086E08093C20008959091E20375
:1019C0008091E1039817A1F08091E10390E00196E6
:1019D0008F7799278093E103FC01EB51FC4F208125
:1019E0008091E00390E0982F8827820F911D089541
:1019F00080E091E008959091E2038091E1039817CF
:101A000089F0E091E103F0E03196EF77FF27EB51A9
:101A1000FC4F20818091E00390E0982F8827820F6F
:101A2000911D089580E091E008952091E40330E055
:101A30002F5F3F4F2F7733274091E30350E0241768
:101A40003507D1F3F901EB59FB4F80832093E40371
:101A50008091C10080628093C1000895CF93DF938D
:101A6000EC018991882319F00E94150DFACFDF91BE
:101A7000CF910895CF93DF93FC018491EF012196DC
:101A8000882321F00E94150DFE01F7CFDF91CF9141
:101A900008958091E2032091E10390E080589F4FE8
:101AA000821B91098F77992708958091E103809394
:101AB000E2030895CF93C82F0E94CE078C0F911D8B
:101AC0009093E7048093E604CF910895CF93DF933A
:101AD000C091E604D091E7040E94CE078C179D07C1
:101AE00050F4C091E604D091E7040E94CE079C2FE9
:101AF000981B892F01C080E0DF91CF910895349920
:101B000008C08091D0058F3F31F0815F8093D00570
:101B100002C01092D005359908C08091D1058F3F41
:101B200031F0815F8093D10508951092D105089519
:101B300086E4809326052A982B984298409860E086
:101B400080E00E94B60260E185EF91E00E9497027A
:101B500061E080E00E94B60260E186E092E00C94D1
:101B6000970287E4809326052A982B9842984098FC
:101B700060E080E00E94B60260E187E192E00E94AE
:101B8000970261E080E00E94B60260E186E092E0A8
:101B90000C94970284E1809326052A982B9842980A
:101BA000409860E080E00E94BD0760E070E080E067
:101BB0000E94520960E070E081E00E94520960E0FA
:101BC00080E00E94B60260E188E292E00E94970203
:101BD00061E080E00E94B60260E189E392E00C944B
:101BE000970285E1809326052A982B984298409881
:101BF00060E080E00E94B60260E18AE492E00E9428
:101C0000970261E080E00E94B60260E18BE592E01D
:101C10000C94970282E3809326052A982B98429889
:101C2000409860E080E00E94B60260E18CE692E0BD
:101C30000E94970261E080E00E94B60260E18EE8B7
:101C400092E00C94970283E3809326052A982B98C0
:101C50004298409860E080E00E94B60260E18CE724
:101C600092E00E94970261E080E00E94B60260E18B
:101C70008DE892E00C94970284E3809326052A98DD
:101C80002B984298409860E080E00E94B60260E1A4
:101C90008EE992E00E94970261E080E00E94B60225
:101CA00060E18DE892E00C9497028CE38093260526
:101CB0002A9A2B98429A409860E080E00E94B602EF
:101CC00060E18FEA92E00E94970261E080E00E946A
:101CD000B60260E18DE892E00C9497028DE3809368
:101CE00026052A982B9A4298409A60E080E00E944C
:101CF000B60260E180EC92E00E94970261E080E031
:101D00000E94B60260E18DE892E00C9497020F9376
:101D10001F9380914F0590915005A0915105B0916E
:101D200052059093DD058093DC0500912705109105
:101D300028052091290530912A0540912B055091C5
:101D40002C0560912D0570912E05041715072607A7
:101D5000370749F41092DE051092DF051092E00576
:101D60001092E1052DC09C01AD0144275527A0E14B
:101D7000B7E20E94F21920914B0530914C05409139
:101D80004D0550914E050E949B19AAE0B0E00E94BB
:101D9000F219613A26E8720721E082079105D0F630
:101DA00000EA16E821E030E0061B170B280B390B80
:101DB0000093DE051093DF052093E0053093E105E5
:101DC0001F910F9108950F931F932091D605309185
:101DD000D705A0E1B7E20E94DC1920913D053091C2
:101DE0003E05205D374040E050E00E949B19AAE08C
:101DF000B0E00E94F2198B019C01013A86E81807B5
:101E000081E02807310548F460EA76E881E090E057
:101E1000601B710B820B930B03C060E070E0CB0181
:101E20001F910F910895CF92DF92EF92FF920F933F
:101E30001F93CF93DF9380913D0590913E052091B4
:101E4000D6053091D70528573C4E8217930730F4BA
:101E5000885893419093D7058093D605C090D805B4
:101E6000D090D905E090DA05F090DB050E94E30EF2
:101E70006C157D058E059F0540F46093D805709321
:101E8000D9058093DA059093DB0500912705109121
:101E900028052091290530912A0540912B05509164
:101EA0002C0560912D0570912E05C091D605D0911D
:101EB000D705041715072607370761F4CE01A0E000
:101EC000B0E08093270590932805A0932905B0934F
:101ED0002A052EC09E01A4E6B0E00E94DC196B0129
:101EE0007C016091D8057091D9058091DA059091B7
:101EF000DB0528EE33E040E050E00E949B19DA0158
:101F0000C90124E630E040E050E0281B390B4A0BC1
:101F10005B0BC701B6010E949B19209327053093E4
:101F200028054093290550932A05CE01A0E0B0E092
:101F300080932B0590932C05A0932D05B0932E052F
:101F4000DF91CF911F910F91FF90EF90DF90CF9095
:101F500008952F923F924F925F926F927F928F924D
:101F60009F92AF92BF92CF92DF92EF92FF920F9328
:101F70001F93CF93DF93CDB7DEB766970FB6F89474
:101F8000DEBF0FBECDBF60914F05709150058091AF
:101F900051059091520540904B0550904C05609032
:101FA0004D0570904E0528EEC22E23E0D22EE12C76
:101FB000F12CA70196010E949B19122F032F342E9A
:101FC000252E34E6832E912CA12CB12CA501940151
:101FD0000E949B195F934F933F932F932F923F92B1
:101FE0000F931F93C301B201A70196010E949B1991
:101FF000122F032F742E652EA50194010E949B19A8
:102000005F934F933F932F936F927F920F931F9302
:1020100081ED92E09F938F938E010F5F1F4F1F936F
:102020000F930E948A1B0E94870E8091D605909183
:10203000D70528EE33E0B9010E947319762E672E7A
:102040008090D8059090D905A090DA05B090DB0576
:102050008091DC059091DD05B9010E9473196D8BAB
:102060007E8B6091DE057091DF058091E005909197
:10207000E1050FB6F894DEBF0FBECDBF8114910409
:10208000A104B104A1F120902705309028054090CB
:10209000290550902A0520912B0530912C0540915F
:1020A0002D0550912E052216330644065506F9F0EB
:1020B000409A2B9AA70196010E949B191F922F9379
:1020C0003E893F938D898F93C501B401A701960185
:1020D0000E949B191F922F936F927F928FEE92E036
:1020E0009F938F931F930F930E948A1B0EC03E896C
:1020F0003F938D898F936F927F9284E093E09F93BB
:102100008F931F930F930E948A1B0FB6F894DEBF24
:102110000FBECDBF60E080E00E94B60260E1C80162
:102120000E94970266960FB6F894DEBF0FBECDBF31
:10213000DF91CF911F910F91FF90EF90DF90CF90A3
:10214000BF90AF909F908F907F906F905F904F90D7
:102150003F902F9008958BE080932605429A2A9A0B
:102160000E94FA070E945A080C94A90F8F929F921E
:10217000AF92BF92CF92DF92EF92FF920F931F9395
:10218000CF93DF93CDB7DEB765970FB6F894DEBF78
:102190000FBECDBF8091D6059091D70568EE73E054
:1021A0000E947319062FB72E60914B0570914C0554
:1021B00080914D0590914E0548EEC42E43E0D42EFB
:1021C000E12CF12CA70196010E949B19A22E60918F
:1021D0002705709128058091290590912A05A7016E
:1021E00096010E949B19922E6091D8057091D90595
:1021F0008091DA059091DB05A70196010E949B1959
:10220000122F60914F05709150058091510590916A
:102210005205A70196010E949B19822E60912B0501
:1022200070912C0580912D0590912E05A7019601A6
:102230000E949B1960E080E02D8B0E94B602809185
:102240002F051F928F931F929F921F92AF92BF9262
:102250000F9357E1C52E53E0D52EDF92CF92CE01DA
:1022600001967C01FF928F930E948A1B60E1C70157
:102270000E94970261E080E00E94B60280913005E2
:102280001F928F931F922D892F931F928F921F92CF
:102290001F93DF92CF92FF92EF920E948A1B60E120
:1022A000C7010E9497020FB6F894DEBF0FBECDBFE4
:1022B00065960FB6F894DEBF0FBECDBFDF91CF910C
:1022C0001F910F91FF90EF90DF90CF90BF90AF9054
:1022D0009F908F900895419A60E080E00E94B6023E
:1022E00060E18FE293E00E94970261E080E00E944B
:1022F000B60260E180E493E00C9497028091260599
:102300009CEE980F923050F44A9913C04B9911C02B
:102310000E94AB108EE10E945A0D08C08B3049F428
:102320004A9902C04B9B05C00E94CA0D81E0809370
:10233000EA048091EA04811183C0809126058A30E5
:1023400009F07EC04A997CC0349936C060E080E0D4
:102350000E94B60260E181E593E00E94970261E08D
:1023600080E00E94B6020E94B50A7F936F9382E6D6
:1023700093E09F938F938CEE94E09F938F930E94B2
:102380008A1B60E18CEE94E00E9497022FEF8FE7AA
:1023900090E7215080409040E1F700C000000E948B
:1023A000450B0F900F900F900F900F900F90882378
:1023B00029F10E94CA0D0EC0359BC8CF369BC6CFEF
:1023C000379BC4CF0E94660D882309F4BFCF38C065
:1023D000359903C0349BFECFFBCF369BFBCF379B99
:1023E000F9CF2FEF8FE995E0215080409040E1F741
:1023F00000C0000081E08093EA0422C00E946B11BB
:102400002FEF8FE790E7215080409040E1F700C028
:102410000000439A2FEF8FEB98EA215080409040C4
:10242000E1F700C00000349BFECF359BFCCF369B0C
:10243000FACF379BF8CF419843988FE00E945A0D0E
:102440008091EA0481115EC0349B06C0359B04C0B4
:10245000369B02C0379956C080912605843129F4F5
:10246000369950C00E94F10D19C0853129F4379971
:1024700049C00E94CA0D12C0823351F4369903C07C
:102480000E94230E0BC037993DC00E94B10D06C0BB
:10249000833369F4369906C00E943C0E81E0809334
:1024A000EA0430C037992EC00E940A0EF7CF843359
:1024B00041F4369903C00E94550EF0CF379BE0CF10
:1024C00021C08C3341F4369903C00E946E0EE6CFD2
:1024D000379BE2CF17C08D3341F4369903C00E9479
:1024E000980DDCCF379BE7CF0DC0863429F4369B9F
:1024F000CCCF379BEACF06C0873421F4369BD4CFAC
:10250000379BEDCF349B09C0359B07C0369B05C078
:10251000379B03C01092EA0408958091EA04813049
:1025200089F480912605823368F037990BC036997B
:1025300009C00E94CA0D0E94130F0E94FA0782E090
:102540008093EA048091EA04813071F48091260539
:102550008451823048F4379907C0369905C00E94EB
:102560000A0E82E08093EA048091EA04882349F00D
:102570002FEF8FEC92E0215080409040E1F700C0B7
:102580000000089560E08FE00E94B60261E085E1FE
:1025900092E00E94970261E080E00E94B60260E152
:1025A00082E793E00E9497020E949E0961E080E02A
:1025B0000E94B60260E183E893E00E9497022FEF49
:1025C0008FE398E3215080409040E1F700C0000085
:1025D0000C94980D8091D105882381F08F3F11F4E0
:1025E0009AE001C091E080913B05981720F4891B87
:1025F00080933B0503C0811110923B058091D0056B
:102600008823C9F08F3F11F45AE001C051E0409196
:102610003B05242F30E08FEF90E0851B91092817B0
:10262000390724F4450F40933B0505C04F3F19F08F
:102630008FEF80933B0580913B051F928F9384E938
:1026400093E09F938F938CEE94E09F938F930E94DF
:102650008A1B61E080E00E94B60264E08CEE94E0A8
:102660000E94970261E084E00E94B6024AE06FEFA8
:1026700080913B050E94BE0361E08EE00E94B6029D
:1026800062E08BE992E00E9497020F900F900F900A
:102690000F900F900F9080913B050C94E108809172
:1026A000D105882381F08F3F11F49AE001C091E0B9
:1026B00080913C05981720F4891B80933C0503C04A
:1026C000811110923C058091D0058823C9F08F3F7D
:1026D00011F45AE001C051E040913C05242F30E054
:1026E0008FEF90E0851B91092817390724F4450FD7
:1026F00040933C0505C04F3F19F08FEF80933C0598
:1027000080913C051F928F9384E993E09F938F9370
:102710008CEE94E09F938F930E948A1B61E080E08F
:102720000E94B60264E08CEE94E00E94970261E0A1
:1027300084E00E94B6024AE06FEF80913C050E945F
:10274000BE0361E08EE00E94B60262E08BE992E097
:102750000E9497020F900F900F900F900F900F9084
:1027600080913C050C94E4088091D1058823F1F018
:102770008F3F19F480ED97E002C088EE93E020913E
:102780003D0530913E05AC01485F5D4A4217530755
:1027900038F4281B390B30933E0520933D0506C0C5
:1027A00088E092E590933E0580933D058091D005A9
:1027B000882341F18F3F19F420ED37E002C028EE65
:1027C00033E0E0913D05F0913E05AF0160E070E03F
:1027D00088EE9DEFA0E0B0E0821B930BA109B10948
:1027E000481759076A077B073CF42E0F3F1F3093A9
:1027F0003E0520933D0506C088EE9DEF90933E0573
:1028000080933D0580913D0590913E0568EE73E013
:102810000E9473197F936F938AE993E09F938F933C
:102820008CEE94E09F938F930E948A1B61E087E077
:102830000E94B6020F900F900F900F900F900F9084
:1028400063E08CEE94E00C9497028091D10588238C
:1028500079F08F3F11F48AE001C081E09091E904A2
:10286000891720F4981B9093E90402C01092E904A0
:102870008091D0058823B9F08F3F11F44AE001C060
:1028800041E05091E904252F30E08FEF90E0841B68
:1028900091092817390724F4450F4093E90403C030
:1028A0008FEF8093E9048091E9041F928F9381EA6E
:1028B00093E09F938F938CEE94E09F938F930E946D
:1028C0008A1B61E080E00E94B60264E08CEE94E036
:1028D0000E94970261E084E00E94B6024AE06FEF36
:1028E0008091E9040E94BE0361E08EE00E94B6027E
:1028F00062E08BE992E00E9497020F900F900F9098
:102900000F900F900F906091E90470E080E00C94BC
:1029100052098091D105882379F08F3F11F48AE024
:1029200001C081E09091E804891720F4981B9093EE
:10293000E80402C01092E8048091D0058823B9F021
:102940008F3F11F44AE001C041E05091E804252F87
:1029500030E08FEF90E0841B91092817390724F4A9
:10296000450F4093E80403C08FEF8093E804809103
:10297000E8041F928F9381EA93E09F938F938CEEEC
:1029800094E09F938F930E948A1B61E080E00E94F5
:10299000B60264E08CEE94E00E94970261E084E06D
:1029A0000E94B6024AE06FEF8091E8040E94BE03E5
:1029B00061E08EE00E94B60262E08BE992E00E9444
:1029C00097020F900F900F900F900F900F906091C3
:1029D000E80470E081E00C945209CF92DF92EF920C
:1029E000FF920F931F93CF93DF938091D10588239C
:1029F000F1F08F3F19F480ED97E002C088EE93E08C
:102A00002091D6053091D705AC014053584F42175D
:102A1000530738F4281B390B3093D7052093D6057C
:102A200006C080ED97E09093D7058093D6058091FE
:102A3000D005882311F18F3F19F480ED97E002C093
:102A400088EE93E04091D6055091D70520913D0541
:102A500030913E0528583341B901681B790B461760
:102A6000570738F4840F951F9093D7058093D605A8
:102A700004C03093D7052093D6058091D605909158
:102A8000D70568EE73E00E9473197F936F938AE90C
:102A900093E09F938F938CEE94E09F938F930E948B
:102AA0008A1B61E087E00E94B60263E08CEE94E04E
:102AB0000E949702C090D805D090D905E090DA0521
:102AC000F090DB050E94E30E0F900F900F900F9097
:102AD0000F900F906C157D058E059F0540F4609357
:102AE000D8057093D9058093DA059093DB050091A2
:102AF0002705109128052091290530912A0540913C
:102B00002B0550912C0560912D0570912E05C091DB
:102B1000D605D091D705041715072607370761F4A6
:102B2000CE01A0E0B0E08093270590932805A09304
:102B30002905B0932A052EC09E01A4E6B0E00E94AC
:102B4000DC196B017C016091D8057091D9058091E9
:102B5000DA059091DB0528EE33E040E050E00E947A
:102B60009B19DA01C90124E630E040E050E0281B5F
:102B7000390B4A0B5B0BC701B6010E949B192093CE
:102B80002705309328054093290550932A05CE0147
:102B9000A0E0B0E080932B0590932C05A0932D0529
:102BA000B0932E05DF91CF911F910F91FF90EF9081
:102BB000DF90CF9008958091D1058823D9F08F3F81
:102BC00019F420ED37E002C028EE33E08091D605FD
:102BD0009091D705A901485F5D4A4817590718F435
:102BE000821B930B02C088E092E59093D7058093F7
:102BF000D60502C020E030E08091D005882311F195
:102C00008F3F19F420ED37E002C028EE33E0409109
:102C1000D6055091D70580913D0590913E05885885
:102C20009341BC01621B730B4617570738F4420FE0
:102C3000531F5093D7054093D60504C09093D705F2
:102C40008093D6058091D6059091D705A0E0B0E09D
:102C50008093270590932805A0932905B0932A0512
:102C600080932B0590932C05A0932D05B0932E05F2
:102C7000232B49F00E94AB1060E080E00E94BD076A
:102C80008AE00C945A0D08958F929F92AF92BF9252
:102C9000CF92DF92EF92FF920F931F93CF93DF9328
:102CA0008091D105882359F18F3F19F480ED97E089
:102CB00002C088EE93E04091D8055091D90560910B
:102CC000DA057091DB05A0E0B0E084179507A60750
:102CD000B70768F4481B590B6A0B7B0B4093D80568
:102CE0005093D9056093DA057093DB0508C0109204
:102CF000D8051092D9051092DA051092DB05809163
:102D0000D005882399F18F3F19F400ED17E002C038
:102D100008EE13E0C090D805D090D905E090DA0510
:102D2000F090DB050E94E30E20E030E04B015C01F7
:102D3000801A910AA20AB30AC814D904EA04FB044F
:102D400068F4C00ED11EE21EF31EC092D805D092C8
:102D5000D905E092DA05F092DB0508C06093D8054A
:102D60007093D9058093DA059093DB056091D805BF
:102D70007091D9058091DA059091DB05E8EECE2EB1
:102D8000E3E0DE2EE12CF12CA70196010E949B19B5
:102D90001F922F938AE993E09F938F938CEE94E098
:102DA0009F938F930E948A1B61E087E00E94B60286
:102DB00063E08CEE94E00E949702C091D605D0911A
:102DC000D7059E01A4E6B0E00E94DC194B015C012E
:102DD0006091D8057091D9058091DA059091DB0555
:102DE000A70196010E949B19DA01C90124E630E08F
:102DF00040E050E0281B390B4A0B5B0BC501B401C6
:102E00000E949B192093270530932805409329059C
:102E100050932A05CE01A0E0B0E080932B0590935B
:102E20002C05A0932D05B0932E050F900F900F90B9
:102E30000F900F900F90DF91CF911F910F91FF9006
:102E4000EF90DF90CF90BF90AF909F908F900895BC
:102E50004F925F926F927F928F929F92AF92BF92AA
:102E6000CF92DF92EF92FF920F931F93CF93DF9356
:102E70000E948A0A882381F181E080932605419A85
:102E8000439A2A982B984298409860E080E00E94EC
:102E9000B60260E186EA93E00E94970261E080E07A
:102EA0000E94B60260E14A9903C087EB93E002C03A
:102EB00088EC93E0DF91CF911F910F91FF90EF90FD
:102EC000DF90CF90BF90AF909F908F907F906F904A
:102ED0005F904F900C9497028091EB04811161C038
:102EE0000E94A90F60914F05709150058091510586
:102EF0009091520540904B0550904C0560904D05C7
:102F000070904E05F8EE8F2EF3E09F2EA12CB12C81
:102F1000A50194010E949B19E901142F052FA4E635
:102F2000CA2ED12CE12CF12CA70196010E949B19ED
:102F30005F934F933F932F930F931F93DF93CF9301
:102F4000C301B201A50194010E949B19E901142F4C
:102F5000052FA70196010E949B195F934F933F9302
:102F60002F930F931F93DF93CF9381ED92E09F9365
:102F70008F938CEE94E09F938F930E948A1B61E065
:102F800080E00E94B60260E18CEE94E00E9497021D
:102F90008DB79EB744960FB6F8949EBF0FBE8DBFF7
:102FA00002C00E94B6100E94660D811112C0DF910E
:102FB000CF911F910F91FF90EF90DF90CF90BF9036
:102FC000AF909F908F907F906F905F904F900C94F8
:102FD000080ADF91CF911F910F91FF90EF90DF9042
:102FE000CF90BF90AF909F908F907F906F905F90A9
:102FF0004F900895CF92DF92EF92FF920F93CF936D
:10300000DF93809126058A3009F05AC0B0E2CB2EBA
:10301000BBE1DB2EBCE7EB2EBCE0FB2E2091430591
:10302000309144054091450550914605C701B601D0
:103030000E949B19DA01C90120935305909354050E
:10304000A0935505B0935605109257051092580558
:103050001092590510925A05209147053091480564
:103060004091490550914A05C701B6010E949B193C
:10307000DA01C90120935B0590935C05A0935D057F
:10308000B0935E0510925F05109260051092610585
:10309000109262050E94660D082F2091470530911D
:1030A00048054091490550914A056091430570914A
:1030B000440580914505909146050E9403046BC02C
:1030C000863429F4349967C00E94C21264C08734E0
:1030D00089F4349960C08AE080932605349BFECF42
:1030E000359BFCCF369BFACF379BF8CF8FE00E9401
:1030F0005A0D51C0823319F40E94EA124CC0833336
:1031000019F40E944F1347C0843319F40E94B4137A
:1031100042C08C3319F40E9425143DC08D3319F43C
:103120000E94891438C0843119F40E94ED1433C010
:103130008B3069F5349B02C0359918C04091270542
:10314000509128056091290570912A0580912B05E1
:1031500090912C05A0912D05B0912E054817590787
:103160006A077B0719F40E94DB1515C0369906C063
:10317000379904C081E08093EB040DC037990BC0F0
:10318000369B09C01092EB040E94AB1004C085313D
:1031900011F40E944416809126058B3049F4DF918A
:1031A000CF910F91FF90EF90DF90CF900C94281764
:1031B000DF91CF910F91FF90EF90DF90CF90089526
:1031C000809126050895809326050895CF93DF9377
:1031D000CDB7DEB769970FB6F894DEBF0FBECDBF8F
:1031E0000E9424098AE00E94E3188FE00E945A0D91
:1031F0008FE591E00E942E0D24E135E040E050E0A3
:1032000062E070E08CE090E00E94760B20E035E018
:1032100040E050E062E070E08CE090E00E94760BCD
:1032200018EE812E13E0912E08EEC02E03E0D02E72
:10323000E12CF12C87E7A82E81E0B82E8E010F5FDC
:103240001F4F0E9444028091DB0381110E947D0088
:103250000E947E110E94C207882321F00E94FA1763
:103260000E94C8070E94CB07882399F18091D60558
:103270009091D705B4010E947319762E672E60E0F5
:1032800080E00E94B602809113058F938091120511
:103290008F9360914F0570915005809151059091E9
:1032A0005205A70196010E949B191F922F936F92BE
:1032B0007F92BF92AF921F930F930E948A1BC80107
:1032C0000E942E0D0E94C5070FB6F894DEBF0FBEF8
:1032D000CDBF809126058B3019F0843109F0B1CF34
:1032E0000E94A007AECFAA1BBB1B51E107C0AA1FBB
:1032F000BB1FA617B70710F0A61BB70B881F991F97
:103300005A95A9F780959095BC01CD01089597FB3A
:10331000072E16F4009407D077FD09D00E94731988
:1033200007FC05D03EF4909581959F4F08957095C8
:1033300061957F4F0895A1E21A2EAA1BBB1BFD01C8
:103340000DC0AA1FBB1FEE1FFF1FA217B307E40784
:10335000F50720F0A21BB30BE40BF50B661F771FDC
:10336000881F991F1A9469F76095709580959095BC
:103370009B01AC01BD01CF010895052E97FB1EF402
:1033800000940E94D41957FD07D00E949B1907FC96
:1033900003D04EF40C94D419509540953095219556
:1033A0003F4F4F4F5F4F0895909580957095619571
:1033B0007F4F8F4F9F4F0895A29FB001B39FC001D1
:1033C000A39F700D811D1124911DB29F700D811D51
:1033D0001124911D08950E94DC19B7FF0895821BE6
:1033E000930B08950E94DC19A59F900DB49F900D3A
:1033F000A49F800D911D11240895B7FF0C94F2191C
:103400000E94F219821B930B0895DF93CF931F93B1
:103410000F939A9DF02D219FF00D8B9DF00D8A9DAD
:10342000E02DF10D039FF00D029FE00DF11D4E9D6B
:10343000E00DF11D5E9DF00D4F9DF00D7F936F939C
:10344000BF92AF925F934F93D5010E94DC198B011D
:10345000AC01D7010E94DC19EB01E80FF91FD6017E
:103460000E94551A2F913F91D6010E94DC19C60F78
:10347000D71FE81FF91FAF91BF910E94551A2F91D6
:103480003F910E94DC19C60FD71FE81FF91FD60114
:103490000E94DC19E60FF71F9801BE01CF0111242D
:1034A0000F911F91CF91DF9108950E94DC19460F73
:1034B000571FC81FD91F08F431960895689401C09A
:1034C000E894F92FF12B12F00C94921AA0E0B0E0DE
:1034D000ECE6FAE10C94041B092E059422F40E94F8
:1034E000EE1A112392F4F0E80F26FFEFE094F09427
:1034F00000951095B094C094D094A194BF0ACF0ABF
:10350000DF0AEF0AFF0A0F0B1F0B0E949D1A07FC30
:103510000E94EE1ACDB7DEB7ECE00C94201B689445
:1035200001C0E8948F929F92CF93DF930E949D1ADF
:10353000DF91CF919F908F90089588249924F40172
:10354000E401B0E49F93AA279A158B049C04ED052F
:10355000FE05CF05D007A10798F4AD2FDC2FCF2FA4
:10356000FE2FE92D982C892E982F872F762F652FE7
:10357000542F432F322F2227B85031F7BF9127C045
:103580001B2EBF91BB27220F331F441F551F661FE1
:10359000771F881F991F881C991CEE1FFF1FCC1FC7
:1035A000DD1FAA1FBB1F8A149B04EC05FD05CE0579
:1035B000DF05A007B10748F08A189B08EC09FD0950
:1035C000CE09DF09A00BB10B21601A94E1F62EF4AD
:1035D0009401AF01BE01CD01000C08956095709576
:1035E0008095909530954095509521953F4F4F4F40
:1035F0005F4F6F4F7F4F8F4F9F4F08952F923F9296
:103600004F925F926F927F928F929F92AF92BF92F2
:10361000CF92DF92EF92FF920F931F93CF93DF939E
:10362000CDB7DEB7CA1BDB0B0FB6F894DEBF0FBEFB
:10363000CDBF09942A88398848885F846E847D8448
:103640008C849B84AA84B984C884DF80EE80FD804A
:103650000C811B81AA81B981CE0FD11D0FB6F894C0
:10366000DEBF0FBECDBFED0108950F93083090F07F
:10367000982F872F762F652F542F432F322F2227F5
:103680000850F4CF220F331F441F551F661F771FAA
:10369000881F991F0A95B2F70F91089597FB10F8AC
:1036A000169400080F93083098F00850232F342FF9
:1036B000452F562F672F782F892F902DF4CF059403
:1036C000979587957795679557954795379527955A
:1036D0000A95AAF70F9108952A0D3B1D4C1D5D1DFB
:1036E0006E1D7F1D801F911F08952A193B094C09EB
:1036F0005D096E097F09800B910B08950024A7FDD9
:1037000000942A17300540055005600570058005B6
:1037100090050895AEE0B0E0E0E9FBE10C940C1BED
:103720000D891E8986E08C831A8309838FEF9FE7BA
:103730009E838D83AE01475E5F4F6F89788DCE018A
:1037400001960E94AC1BEF81F885E00FF11F1082FB
:103750002E96E4E00C94281BACE0B0E0E2EBFBE139
:103760000C94FE1A7C016B018A01FC0117821682FF
:10377000838181FFBDC1CE0101964C01F701938188
:10378000F60193FD859193FF81916F01882309F4E0
:10379000ABC1853239F493FD859193FF81916F011F
:1037A000853229F4B70190E00E94BC1DE7CF512C6F
:1037B000312C20E02032A0F48B3269F030F48032DA
:1037C00059F0833269F420612CC08D3239F0803396
:1037D00039F4216026C02260246023C0286021C003
:1037E00027FD27C030ED380F3A3078F426FF06C0A9
:1037F000FAE05F9E300D1124532E13C08AE0389EEC
:10380000300D1124332E20620CC08E3221F426FD9F
:103810006BC1206406C08C3611F4206802C0883663
:1038200041F4F60193FD859193FF81916F01811120
:10383000C1CF982F9F7D9554933028F40C5F1F4F74
:10384000FFE3F9830DC0833631F0833771F08335A0
:1038500009F05BC022C0F801808189830E5F1F4F91
:1038600044244394512C540115C03801F2E06F0EEA
:10387000711CF801A080B18026FF03C0652D70E0A7
:1038800002C06FEF7FEFC5012C870E94B11D2C0194
:1038900083012C852F77222E17C03801F2E06F0E9E
:1038A000711CF801A080B18026FF03C0652D70E077
:1038B00002C06FEF7FEFC5012C870E94A61D2C016F
:1038C0002C852068222E830123FC1BC0832D90E0D1
:1038D00048165906B0F4B70180E290E00E94BC1D82
:1038E0003A94F4CFF50127FC859127FE81915F0181
:1038F000B70190E00E94BC1D31103A94F1E04F1ADC
:1039000051084114510471F7E5C0843611F089362D
:1039100039F5F80127FF07C06081718182819381A9
:103920000C5F1F4F08C060817181882777FD8095EB
:10393000982F0E5F1F4F2F76B22E97FF09C09095DC
:103940008095709561957F4F8F4F9F4F2068B22E65
:103950002AE030E0A4010E94EE1DA82EA81844C061
:10396000853729F42F7EB22E2AE030E025C0F22FD1
:10397000F97FBF2E8F36C1F018F4883579F0B4C0C6
:10398000803719F0883721F0AFC02F2F2061B22E79
:10399000B4FE0DC08B2D8460B82E09C024FF0AC070
:1039A0009F2F9660B92E06C028E030E005C020E1C8
:1039B00030E002C020E132E0F801B7FE07C06081CC
:1039C0007181828193810C5F1F4F06C0608171817C
:1039D00080E090E00E5F1F4FA4010E94EE1DA82E14
:1039E000A818FB2DFF77BF2EB6FE0BC02B2D2E7F08
:1039F000A51450F4B4FE0AC0B2FC08C02B2D2E7ED4
:103A000005C07A2C2B2D03C07A2C01C0752C24FF05
:103A10000DC0FE01EA0DF11D8081803311F4297E75
:103A200009C022FF06C07394739404C0822F867865
:103A300009F0739423FD13C020FF06C05A2C7314A1
:103A400018F4530C5718732C731468F4B70180E200
:103A500090E02C870E94BC1D73942C85F5CF7314C5
:103A600010F4371801C0312C24FF12C0B70180E3D5
:103A700090E02C870E94BC1D2C8522FF17C021FFDF
:103A800003C088E590E002C088E790E0B7010CC071
:103A9000822F867859F021FD02C080E201C08BE2BE
:103AA00027FD8DE2B70190E00E94BC1DA51438F4FB
:103AB000B70180E390E00E94BC1D5A94F7CFAA940E
:103AC000F401EA0DF11D8081B70190E00E94BC1D58
:103AD000A110F5CF332009F451CEB70180E290E078
:103AE0000E94BC1D3A94F6CFF7018681978102C0EF
:103AF0008FEF9FEF2C96E2E10C941A1BDC01CB01B7
:103B0000FC01F999FECF06C0F2BDE1BDF89A3196ED
:103B100000B40D9241505040B8F70895DC01CB013C
:103B200003C02D910E94991D41505040D0F7089537
:103B3000262FF999FECF1FBA92BD81BD20BD0FB6C9
:103B4000F894FA9AF99A0FBE01960895FC0105902F
:103B5000615070400110D8F7809590958E0F9F1F8F
:103B60000895FC016150704001900110D8F78095D4
:103B700090958E0F9F1F08950F931F93CF93DF9300
:103B8000182F092FEB018B8181FD03C08FEF9FEF71
:103B900020C082FF10C04E815F812C813D81421781
:103BA00053077CF4E881F9819F012F5F3F4F3983F0
:103BB0002883108306C0E885F985812F0995892B14
:103BC00029F72E813F812F5F3F4F3F832E83812F27
:103BD000902FDF91CF911F910F910895FA01AA279D
:103BE000283051F1203181F1E8946F936E7F6E5F40
:103BF0007F4F8F4F9F4FAF4FB1E03ED0B4E03CD0EE
:103C0000670F781F891F9A1FA11D680F791F8A1FD0
:103C1000911DA11D6A0F711D811D911DA11D20D037
:103C200009F468943F912AE0269F11243019305DF1
:103C30003193DEF6CF010895462F4770405D4193E2
:103C4000B3E00FD0C9F7F6CF462F4F70405D4A332F
:103C500018F0495D31FD4052419302D0A9F7EACFF7
:103C6000B4E0A6959795879577956795BA95C9F726
:103C700000976105710508959B01AC010A2E069419
:103C80005795479537952795BA95C9F7620F731FD2
:0C3C9000841F951FA01D0895F894FFCF1D
:103C9C0001FFFFFFFF55415254204672616D6520B4
:103CAC004572726F723A200055415254204F76651E
:103CBC007272756E204572726F723A200042756690
:103CCC00666572206F766572666C6F7720657272AE
:103CDC006F723A2000544F444F3A20507574207341
:103CEC006F6D6520646562756720696E666F00573D
:103CFC00656C636F6D6520746F20626C656E6465B6
:103D0C0072203A290D0A00253032752F2530327574
:103D1C002C20253035640D0A0053313A2025356CA2
:103D2C00697556202020203E0053323A2025356CF0
:103D3C0069755620202532647300506C656173657B
:103D4C002C207475726E206F6E2000796F75722046
:103D5C00636F6D70726573736F722100496E697455
:103D6C00696E672E2E2E00414443204572726F728D
:103D7C00210053312E2E2E004F4B202053322E2E4D
:103D8C002E004F4B002020202052756E205465735E
:103D9C00742020203E0020202020202020202020C5
:103DAC002020202020200020202043616C6962729A
:103DBC006174652020203E004F323C20204F7879E2
:103DCC0067656E202020202B0048652020202020B5
:103DDC0020202020202020202D004F322020204881
:103DEC00656C69756D202020202B0048653C2020D7
:103DFC00202020202020202020202D002020427256
:103E0C00696768746E65737320202B002020202056
:103E1C00436F6E74726173742020202B002020205D
:103E2C002020202020202020202020202D00202099
:103E3C00456D657267656E6379204F32202B0020CB
:103E4C0020536574204F322076616C7665202B00F0
:103E5C0020205365742048652076616C7665202B94
:103E6C000053313A25326C692E2530316C69205360
:103E7C00323A25326C692E2530316C692020005481
:103E8C006D58202532752F25327520202532752F3F
:103E9C002532750045414E782532752020526561DA
:103EAC006C3A25327520007425303275632530321A
:103EBC0075207374253032752076253033750043A8
:103ECC00616E27742063616C696272617465210094
:103EDC0053656E736F7273206661696C75726521C0
:103EEC0000204D617820646576696174696F6E3A63
:103EFC0020002020202025357520755620202020DC
:103F0C002000202020436865636B696E672E2E2E7F
:103F1C00202000202020202020444F4E452120200E
:103F2C0020202000253033752000253032752525C2
:103F3C00002533752000202020456D657267656E65
:103F4C006379212020200020204F3220746F6F20B5
:103F5C006869676821202000436F6D707265737308
:0A3F6C006F723A20204F4646000015
:00000001FF
