:100000000C945E000C947B000C947B000C947B00A1
:100010000C947B000C947B000C947B000C947B0074
:100020000C947B000C947B000C947B000C947B0064
:100030000C947B000C947B000C947B000C947B0054
:100040000C947B000C947B000C94D5060C947B00E4
:100050000C94710B0C94A60B0C947B000C947B00FD
:100060000C947B000C947B000C947B000C947B0024
:100070000C947B000C947B000C947B00001F000010
:1000800000001F00001F101010101F00001F181884
:1000900018181F00001F1C1C1C1C1F00001F1E1E08
:1000A0001E1E1F00001F1F1F1F1F1F0003070F1F03
:1000B0000F070300181C1E1F1E1C180011241FBE52
:1000C000CFEFD0E1DEBFCDBF13E0A0E0B1E0E2E8CA
:1000D000F8E302C005900D92A43BB107D9F715E0F3
:1000E000A4EBB3E001C01D92AA36B107E1F70E946C
:1000F000C9160C943F1C0C9400004F925F926F92B3
:100100007F928F929F92AF92BF92CF92DF92EF92A7
:10011000FF920F931F93CF93DF9381E00E945B06C2
:10012000DC01CB019C01AD0160E070E080E090E07B
:1001300040585109610971098109910959016A0100
:100140007B01E82F192F02E00E9428190E2F0E9430
:100150005F1959016A017B01E82F192F04E00E9401
:1001600028190E2F0E94681959016A017B01E82F96
:10017000192F04E00E9428190E2F0E9468194901C6
:10018000D42FC52FB62FA72FF82FE92F06E00E94F6
:10019000281959016A017B018C0194014D2F5C2FB4
:1001A0006B2F7A2F8F2F9E2F0E945F19D22EE32E56
:1001B000F42ED52FC62FB72FF82FE92FA0E00E94DD
:1001C000711984F42150310940485F4F6F4F7F4FC0
:1001D0008F4F9F4FD22EE32EF42ED52FC62FB72F41
:1001E000F82FE92F2D2D3E2D4F2D5D2F6C2F7B2FBE
:1001F0008F2F9E2F07E10E944119C22FB32FF42F9A
:10020000E52F762E872E982ED92FA0E00E94711907
:1002100054F40E94E118C22FB32FF42FE52F762E4D
:10022000872E982ED92F8091B603811167C0C09375
:100230001905B0931A05F0931B05E0931C05A090D7
:100240002905B0902A05C0902B05D0902C05E09090
:100250002D05F0902E0500912F05109130052C2FC3
:100260003B2F4F2F5E2F672D782D892D9D2F0E94BC
:100270002F18B0E1AB2EC7E2BC2EC12CD12CE12C43
:10028000F12C00E010E00E94F2172093210530933A
:100290002205409323055093240581E08093B60303
:1002A0000E94C3168B3009F09EC0609121057091A9
:1002B00022058091230590912405AAE0CA2ED12C15
:1002C000E12CF12CA70196010E94B71749015A01B0
:1002D00060910105709102058091030590910405DC
:1002E000A70196010E94B717DA01C9014EEE54E04A
:1002F000B4010E94B20ABC0180E073C0C0931D0526
:10030000B0931E05F0931F05E0932005A0903105E2
:10031000B0903205C0903305D0903405E09035059B
:10032000F090360500913705109138052C2F3B2FA2
:100330004F2F5E2F672D782D892D9D2F0E942F180E
:10034000E0E1AE2EF7E2BF2EC12CD12CE12CF12C36
:1003500000E010E00E94F217209325053093260557
:1003600040932705509328051092B6030E94C316A8
:100370008B30C9F58090050590900605A090070583
:10038000B09008058091010590910205A0910305A8
:10039000B091040588159905AA05BB0521F1609166
:1003A00025057091260580912705909128052AE062
:1003B000C22ED12CE12CF12CA70196010E94B71777
:1003C00029013A01C501B401A70196010E94B7179E
:1003D000DA01C9014CED54E0B2010E94B20ABC013D
:1003E00081E00E9419098091B603DF91CF911F919E
:1003F0000F91FF90EF90DF90CF90BF90AF909F90C4
:100400008F907F906F905F904F900C94CC061F93CD
:10041000CF93DF930E94EB0B182FEC01D0FD1EC091
:10042000D3FF04C085E091E00E943B0CD2FF04C0E2
:1004300088E191E00E943B0CD1FF04C08DE291E085
:100440000E943B0C1F3321F485E491E00E943B0C99
:10045000812FDF91CF911F910C94220CDF91CF91CE
:100460001F91089582B9299A289A8FEF91E10197F7
:10047000F1F700C00000289829988FEF91E10197CB
:10048000F1F700C00000089582B9289A8FEF91E13A
:100490000197F1F700C0000028988FEF91E10197D4
:1004A000F1F700C00000089581E00C94440282E05E
:1004B0000C944402EF92FF921F93CF93DF931F920D
:1004C000CDB7DEB7009771F0182F7C018E2D811B00
:1004D000861740F4F70181917F0169830E943202FF
:1004E0006981F4CF0F90DF91CF911F91FF90EF9032
:1004F0000895623031F0633031F0613029F4805C6E
:1005000003C08C5E01C08C5A80680C9444021F9317
:10051000CF93DF93EC01862F642F0E94790210E0C5
:10052000FE01E10FF11D8491882321F00E94320227
:100530001F5FF6CFDF91CF911F910895EF92FF9249
:100540000F931F93CF93DF938C0188E0689FB001D6
:100550001124862F8064E82EC0E0D0E0F801EC0F73
:10056000FD1FF4908C2F8E0D0E9444028F2D0E944F
:1005700032022196C830D10589F7DF91CF911F91C2
:100580000F91FF90EF9008951F93CF93DF932FEF7C
:1005900087ED90E0215080409040E1F700C00000DE
:1005A00012B815B881B18FEF81B984B1836084B975
:1005B00080E382B9289A8FEF91E10197F1F700C0AB
:1005C000000028988FEF91E10197F1F700C000003B
:1005D00080E382B9289A8FEF91E10197F1F700C08B
:1005E000000028988FEF91E10197F1F700C000001B
:1005F00080E382B9289A8FEF91E10197F1F700C06B
:10060000000028988FEF91E10197F1F700C00000FA
:1006100088E382B9289A8FEF91E10197F1F700C042
:10062000000028988FEF91E10197F1F700C00000DA
:100630008CE082B9289A8FEF91E10197F1F700C021
:10064000000028988FEF99E50197F1F700C00000AE
:10065000CCE7D0E060E011E0160FCE010E949E02D0
:100660002896183011F0612FF6CFDF91CF911F91AE
:100670000895CF93DF93D82FC0E0CD1729F08EE1F6
:100680000E944402CF5FF9CFDF91CF910895CF93BD
:10069000DF93D82FC0E0CD1729F088E10E944402F3
:1006A000CF5FF9CFDF91CF9108958EE00C94440293
:1006B0008FE00C9444028CE00C94440288E00C948B
:1006C00044028CE00C944402CF93DF93D82FC0E017
:1006D000CD1729F080E10E944402CF5FF9CFDF916E
:1006E000CF910895CF93DF93D82FC0E0CD1729F095
:1006F00084E10E944402CF5FF9CFDF91CF9108954A
:10070000CF92DF92EF92FF920F931F93CF93DF93DD
:100710001F92CDB7DEB756E0459F90011124E82F18
:10072000E29FC001E39F900D112470E00E94A31787
:100730008B01CB0166E070E00E948F17E82EC12C80
:10074000D12CF12CF416B9F096012B5F3F4F021714
:10075000130728F40C151D0520F08E2D03C085E02D
:1007600001C080E049830E943202F394F6E0CF0E8C
:10077000D11C4981E7CF0F90DF91CF911F910F914D
:10078000FF90EF90DF90CF900895EF92FF920F933C
:10079000CF93DF93CDB7DEB76B970FB6F894DEBF7C
:1007A0000FBECDBFF82E80E84A993EC0288F398F02
:1007B0004A8F5B8F6D8B7E8B9F8B0E9444029F893B
:1007C0009F93FF927E897F936D896F9384E991E077
:1007D0009F938F93CE0101967C01FF928F930E948D
:1007E0007D1968E0C7010E945A021F920F935B8D2A
:1007F0005F934A8D4F93398D3F93288D2F9383EAD2
:1008000091E09F938F93FF92EF920E947D1980EC6D
:100810000E94440268E0C7010E945A020FB6F89491
:10082000DEBF0FBECDBF0FC00E94440260E183EB6C
:1008300091E00E945A0280EC0E94440260E184EC44
:1008400091E00E945A026B960FB6F894DEBF0FBE7D
:10085000CDBFDF91CF910F91FF90EF9008950F934F
:100860001F9394B19F7094B994B1906B94B994E034
:10087000099F80011124016598E0299F90011124AE
:10088000022B20E2829FC0011124082B0CBD81E0C5
:100890001F910F910895CF93DF9300D000D0CDB773
:1008A000DEB7FC01819119821A821B821C829E0193
:1008B0002F5F3F4FD901422F9A2F921B961718F4A2
:1008C00091919D93F9CF813009F42C98F9019E2FD5
:1008D000941B961730F491919EBD0DB407FEFDCF89
:1008E000F6CF813009F42C9A862F0F900F900F903D
:1008F0000F90DF91CF910895CF93DF93CDB7DEB7FF
:1009000028970FB6F894DEBF0FBECDBFFC017191E2
:100910001D821E821F82188619821A821B821C82E7
:10092000AE014B5F5F4FDA012A2F241B261718F404
:1009300021912D93F9CF713009F42C989E012F5FEE
:100940003F4FDA01F901422F5E2F521B561740F438
:100950005D915EBD0DB407FEFDCF5EB55193F4CF42
:10096000713009F42C9AFC01D9018A2F841B861757
:1009700018F48D918193F9CF862F28960FB6F894AD
:10098000DEBF0FBECDBFDF91CF9108958091B4033C
:10099000882371F08091B4038F5F8093B4038091BA
:1009A000B4038C3728F081E08093B5031092B40330
:1009B00008950F93CF93DF9300D000D01F92CDB74F
:1009C000DEB785E0E0E0F1E0DE01119601900D92E6
:1009D0008A95E1F701E021E040E452E46FE070E045
:1009E00080E00E942F0464E0CE0101960E944B0437
:1009F0000F900F900F900F900F90DF91CF910F916C
:100A00000895FF920F931F93CF93DF9300D000D0F0
:100A10001F92CDB7DEB7F62E8E010F5F1F4F95E008
:100A2000F80111929A95E9F749838770F8E08F9F52
:100A3000C001112480648A8361E06F0DC8010E94A7
:100A40007C04E1E060E070E0CB014F2D50E02E2F00
:100A500030E04217530774F0982F872F762F6627C0
:100A6000D801A20FB31F2C91620F711D811D911D22
:100A7000EF5FEDCF0F900F900F900F900F90DF91E1
:100A8000CF911F910F91FF90089541E061E084E0C4
:100A90000E9401051092B4031092B5036F7081E0BB
:100AA0006B3009F080E008950F93CF93DF93CDB7BB
:100AB000DEB729970FB6F894DEBF0FBECDBF4E83C9
:100AC0005F8368877987FE01319695E0DF011D928B
:100AD0009A95E9F72F5F09838770880F880F880F31
:100AE0008A83322FBE016A5F7F4F323050F0CF01D0
:100AF000830F911DDB014D91BD01DC014C93315001
:100B0000F4CF622FCF010E944B0429960FB6F894C0
:100B1000DEBF0FBECDBFDF91CF910F9108951E991B
:100B2000FECF0895CF92DF92EF92FF920F936B0169
:100B30007C0141E062E081E00E940105AB01BC0163
:100B40005F7166277727D701C6010DE0880F991FCF
:100B5000AA1FBB1F0A95D1F7AA27BB27482B592BE1
:100B60006A2B7B2B01E022E081E00E9454050F916B
:100B7000FF90EF90DF90CF900895CF92DF92EF92A9
:100B8000FF920F936B017C0141E062E082E00E94E2
:100B90000105AB01BC01487F87E0C822DD24EE24BB
:100BA000FF244C295D296E297F2901E022E082E0A3
:100BB0000E9454050F91FF90EF90DF90CF90089521
:100BC000CF92DF92EF92FF920F936B017C0141E095
:100BD00062E082E00E940105AB01BC01587F87E022
:100BE000C822DD24EE24FF24FE2CED2CDC2CCC24AA
:100BF0004C295D296E297F2901E022E082E00E94D4
:100C000054050F91FF90EF90DF90CF9008950F93D0
:100C1000CF93C82F41E062E082E00E940105AB0162
:100C2000BC014F7720E8C29FC00111249927AA2751
:100C300097FDA095BA2F482B592B6A2B7B2B01E0EF
:100C400022E082E00E945405CF910F9108950F9306
:100C5000CF93C82F70E080E090E00E94BD0541E096
:100C600062E081E00E9401054C2F50E0542F4427A0
:100C70005295550F507E60E070E001E022E081E087
:100C80000E945405CF910F910C948F050F932C98CF
:100C900000E022E040E050E260E070E081E00E948D
:100CA00054050E948F0540E063E083E00E94010547
:100CB0002C9A0F910895CF92DF92EF92FF920F93AB
:100CC000CF93DF93C82F01E022E040E050E0BA016B
:100CD00081E00E945405D0E0C12CD12C7601DC17B4
:100CE00059F041E063E083E00E940105C60ED71E83
:100CF000E81EF91EDF5FF3CF2D2F30E040E050E01B
:100D0000C701B6010E94B717CA01B901DF91CF919F
:100D10000F91FF90EF90DF90CF9008950F931F9366
:100D2000613029F000E810E020E030E004C000E885
:100D300010E420E030E0482F477050E060E070E0C1
:100D400040615C60402B512B622B732B01E022E051
:100D500082E00E9454051F910F9108950F93CF9345
:100D6000C82F61E00E948E06369B13C00E948F053B
:100D70006C2F84E00E9427066C2F85E00E942706D6
:100D800001E022E049E050E060E070E081E00E9494
:100D90005405CF910F91089560E00E948E0681E086
:100DA0008093B4031092B50308951F920F920FB66B
:100DB0000F9211242F933F934F935F936F937F93E1
:100DC0008F939F93AF93BF93EF93FF9380914905C8
:100DD0008F5F8093490580914905893068F0809143
:100DE00045059091460501969093460580934505EB
:100DF000109249050E94C6048091450590914605D0
:100E000062E370E00E948F17892B11F40E94990C05
:100E1000809145059091460564E670E00E948F1729
:100E2000892B19F481E080934805809145059091C4
:100E300046056AEF70E00E948F17892B19F481E054
:100E400080934705809145059091460564EF71E0D8
:100E50000E948F17892B31F49091B90381E0891B8F
:100E60008093B903809145059091460568EE73E043
:100E70000E948F17892B99F480914A0590914B0518
:100E8000A0914C05B0914D050196A11DB11D809317
:100E90004A0590934B05A0934C05B0934D05FF91E7
:100EA000EF91BF91AF919F918F917F916F915F91E2
:100EB0004F913F912F910F900FBE0F901F9018955B
:100EC0008091B90308958091B903882351F08091EE
:100ED000B8038111419A8091B703882321F0439A86
:100EE00008954198439808958091B803089580919A
:100EF000B70308951092B80308951092B7030895A8
:100F00008093B8036093B7030895809148050895CE
:100F1000109247050895109248050895809147055D
:100F2000089560914A0570914B0580914C05909110
:100F30004D0508954EE050E06CE070E08BE095E0E8
:100F40000E94711B4CE050E060E070E080E595E0AD
:100F50000E94711B8091500590915105A0E0B0E076
:100F60008093010590930205A0930305B0930405B7
:100F70008093050590930605A0930705B093080597
:100F800008954EE050E06CE070E08CE595E00E9442
:100F9000711B20910B0530910C0580915C0590919F
:100FA0005D052817390709F043C020910D053091E0
:100FB0000E0580915E0590915F0528173907C1F5F0
:100FC00020910F0530911005809160059091610589
:100FD0002817390769F52091110530911205809184
:100FE0006205909163052817390711F520911305C3
:100FF0003091140580916405909165052817390793
:10100000B9F49091150580916605981311C09091DF
:1010100016058091670598130BC020911705309134
:10102000180580916805909169052817390741F0E6
:101030004EE050E06CE070E08BE095E00C94811B9A
:1010400008954CE050E060E070E089E395E00E9494
:10105000711B2091390530913A058091500590918E
:10106000510528173907A9F440913B0550913C05DB
:1010700060913D0570913E05809152059091530518
:10108000A0915405B0915505481759076A077B0789
:1010900041F04CE050E060E070E080E595E00C94B9
:1010A000811B089584B18C6084B987B18F6087B942
:1010B0008AB1806C8AB9529853985A9A5B9A3C9834
:1010C0003D983E983F98449A459A469A479AE0EB55
:1010D000F0E08081836A8083E1EBF0E080818660CC
:1010E0008083809115058093B300809116058093CD
:1010F000B40085B5826085BD16BCEEE6F0E0808167
:1011000081608083E0E8F0E08081826A8083E1E8AA
:10111000F0E080818B6180838091130590911405AC
:1011200090938700809386008AB180638AB980910A
:101130000B0590910C059093890080938800809115
:101140000D0590910E0590938B0080938A00089571
:101150008093B30008958093B40008950E945402D0
:1011600060E083E00E9479026AE085ED91E00E94F0
:101170005A020E94D9040E94450581110BC00E94A9
:10118000540260E082E00E9479026AE080EE91E021
:101190000C945A0261E080E00E94790265E08BEED7
:1011A00091E00E945A0280E00E94AE0669E081EF61
:1011B00091E00E945A0281E00E94AE0662E08BEF4D
:1011C00091E00E945A021092B6038091B6030E94E9
:1011D000CC060C9454020E949A070E9452080E9466
:1011E000C4020E9454020E94AE0889E090E00E946E
:1011F000D20B809150059091510581349C4930F07B
:1012000080E49CE99093510580935005349BFECF78
:10121000359BFCCF369BFACF379BF8CF8FEF9FE6FD
:1012200028E0815090402040E1F700C00000789411
:101230000895CF93DF93DB016F3F710509F02CF424
:1012400077FF05C0A0E0B0E002C0AFEFB0E08111D1
:101250001DC0A0930905C0910B05D0910C052091EC
:101260000F05309110052C1B3D0B0E9475172FEFB9
:1012700030E040E050E00E94B7172C0F3D1F411DA9
:10128000511D30938900209388001CC0A0930A054B
:10129000C0910D05D0910E052091110530911205D8
:1012A0002C1B3D0B0E9475172FEF30E040E050E003
:1012B0000E94B7172C0F3D1F411D511D30938B000D
:1012C00020938A00DF91CF91089560E070E080E084
:1012D0000E94190960E070E081E00E9419092FEF77
:1012E0008FE19CE1215080409040E1F700C0000078
:1012F0006FEF70E080E00E9419096FEF70E081E00D
:101300000E9419092FEF8FE398E32150804090400D
:10131000E1F700C0000060E070E080E00E94190981
:101320002FEF8FE398E3215080409040E1F700C019
:10133000000060E070E081E00E9419092FEF8FE368
:1013400098E3215080409040E1F700C000002A9AC5
:10135000429A2FEF8FE19CE1215080409040E1F7CD
:1013600000C000002B9A409A2FEF8FE19CE12150A2
:1013700080409040E1F700C00000419A439A2FEF6F
:101380008FE19CE1215080409040E1F700C00000D7
:101390002A982B98429840984198439808950F9323
:1013A0001F938091560590915705209150053091DB
:1013B0005105A90148515C4F4817590768F461E08D
:1013C0006093B8031092B703A9014053584F4817D0
:1013D000590710F46093B703A901485E534084177E
:1013E000950760F441E04093B8031092B703205D85
:1013F00037408217930710F44093B7038091580544
:1014000090915905A0915A05B0915B054091520504
:101410005091530560915405709155058A019B01C7
:1014200008511C4F2F4F3F4F081719072A073B073A
:1014300090F4E1E0E093B8031092B7038A019B01B6
:101440000053184F2F4F3F4F081719072A073B0724
:1014500010F4E093B7038A019B01085E1340210951
:10146000310980179107A207B30780F421E0209388
:10147000B8031092B703405D5740610971098417A2
:101480009507A607B70710F42093B7031F910F9194
:1014900008954A9913C04091170550911805E4E644
:1014A000E49F9001E59F300D11242817390730F093
:1014B00081E02617370718F080E0089581E008954D
:1014C0008091190590911A05A0911B05B0911C05FA
:1014D00080579741A109B109893D9945A105B105F9
:1014E00090F440911D0550911E0560911F0570916B
:1014F0002005405757416109710981E0493D59452F
:101500006105710508F080E00895CF93DF93FB013A
:10151000E9011A821B821C821D82198218829F8314
:101520008E83798768875B874A87BC016F5F7F4FAF
:101530008FEF9FE70E94A3177D876C879F012F5F26
:101540003F4F442737FD4095542F6FEF7FEF8FEFCC
:101550009FE30E94D9172E873F87488B598BDF91D5
:10156000CF9108958F929F92AF92BF92CF92DF92C8
:10157000EF92FF92CF93DF93EB01FA016C01E12C24
:10158000F12CC61AD70AE108F10824853585C9016E
:10159000AA2797FDA095BA2F8C159D05AE05BF050E
:1015A000B4F088279927821B930BAA2797FDA09553
:1015B000BA2FC816D906EA06FB0684F0A681B781C1
:1015C000A70196010E9487174B015C010EC0882479
:1015D0008A949FE7992EA12CB12C07C0882483946C
:1015E00080E8982EAA24AA94BA2C228133814481BF
:1015F00055812C0D3D1D4E1D5F1D86859785A0894B
:10160000B18982179307A407B5074CF482839383AB
:10161000A483B5836FEF7FEF8FEF9FE31DC0B0957D
:10162000A095909581959F4FAF4FBF4F28173907D1
:101630004A075B074CF482839383A483B58361E0FC
:1016400070E080E090EC08C02283338344835583AC
:10165000A085B1850E948717408151814C1B5D0B8D
:10166000A285B3854A9F90014B9F300D5A9F300D44
:101670001124D183C083680D791D8A1D9B1D620FC3
:10168000731F811D911D20E830E040E050E00E9472
:10169000D917213080E838078FEF4807580724F41E
:1016A00021E030E84FEF5FEFDA01C901811520E852
:1016B0009207A105B10524F08FEF9FE7A0E0B0E00D
:1016C000DF91CF91FF90EF90DF90CF90BF90AF90E0
:1016D0009F908F900895FC011282138214821582CC
:1016E00008951F920F920FB60F9211242F933F93DC
:1016F0004F935F938F939F93EF93FF934091C0001D
:101700005091C60048718091BC0390E001968F779C
:1017100099272091BB0330E08217930739F080931B
:10172000BC03FC01E154FC4F508301C042E04093F4
:10173000BA03FF91EF919F918F915F914F913F91EC
:101740002F910F900FBE0F901F9018951F920F9220
:101750000FB60F9211248F939F93EF93FF93909165
:10176000BE038091BD03981779F08091BD0390E08E
:1017700001968F7799278093BD03FC01E15CFB4FB5
:1017800080818093C60005C08091C1008F7D8093C9
:10179000C100FF91EF919F918F910F900FBE0F901D
:1017A0001F9018951092BE031092BD031092BC03B7
:1017B0001092BB0397FF04C022E02093C0009F77E4
:1017C0009093C5008093C40088E98093C10086E0AF
:1017D0008093C20008959091BC038091BB03981739
:1017E000A1F08091BB0390E001968F7799278093B9
:1017F000BB03FC01E154FC4F20818091BA0390E0CF
:10180000982F8827820F911D089580E091E0089518
:101810009091BC038091BB03981789F0E091BB03C2
:10182000F0E03196EF77FF27E154FC4F2081809163
:10183000BA0390E0982F8827820F911D089580E0C9
:1018400091E008952091BE0330E02F5F3F4F2F7746
:1018500033274091BD0350E024173507D1F3F90138
:10186000E15CFB4F80832093BE038091C1008062C6
:101870008093C1000895CF93DF93EC018991882371
:1018800019F00E94220CFACFDF91CF910895CF93E7
:10189000DF93FC018491EF012196882321F00E94BF
:1018A000220CFE01F7CFDF91CF9108958091BC0308
:1018B0002091BB0390E080589F4F821B91098F7746
:1018C000992708958091BB038093BC030895CF931B
:1018D000C82F0E9491076C0F711D811D911D60938F
:1018E000C0047093C1048093C2049093C304CF9149
:1018F0000895CF92DF92EF92FF92C090C004D090F3
:10190000C104E090C204F090C3040E9491076C15DA
:101910007D058E059F0538F4F090C0040E94910764
:101920008F2D861B01C080E0FF90EF90DF90CF905D
:101930000895349908C080914E058F3F31F08F5F34
:1019400080934E0502C010924E05359908C08091D3
:101950004F058F3F31F08F5F80934F0508951092B0
:101960004F05089586E4809300052A982B984298A5
:10197000409860E080E00E94790260E18EEF91E0A3
:101980000E945A0261E080E00E94790260E18FE0EB
:1019900092E00C945A0287E4809300052A982B98D1
:1019A0004298409860E080E00E94790260E180E225
:1019B00092E00E945A0261E080E00E94790260E1B8
:1019C0008FE092E00C945A0284E1809300052A98FB
:1019D0002B984298409860E070E080E00E941909DE
:1019E00060E070E081E00E94190960E080E00E9400
:1019F000790260E181E392E00E945A0261E080E0B6
:101A00000E94790260E182E492E00C945A0285E13E
:101A1000809300052A982B984298409860E080E0D7
:101A20000E94790260E183E592E00E945A0261E03F
:101A300080E00E94790260E182E492E00C945A0214
:101A400082E3809300052A982B984298409860E0A2
:101A500080E00E94790260E184E692E00E945A02EE
:101A600061E080E00E94790260E186E892E00C94F7
:101A70005A0283E3809300052A982B984298409855
:101A800060E080E00E94790260E184E792E00E94D9
:101A90005A0261E080E00E94790260E185E892E00C
:101AA0000C945A0284E3809300052A982B9842985C
:101AB000409860E080E00E94790260E186E992E06F
:101AC0000E945A0261E080E00E94790260E185E8AC
:101AD00092E00C945A028CE3809300052A9A2B988A
:101AE000429A409860E080E00E94790260E187EAD3
:101AF00092E00E945A0261E080E00E94790260E177
:101B000085E892E00C945A028DE3809300052A98B0
:101B10002B9A4298409A60E080E00E94790260E14E
:101B200088EB92E00E945A0261E080E00E94790214
:101B300060E185E892E00C945A022F923F924F9216
:101B40005F926F927F928F929F92AF92BF92CF924D
:101B5000DF92EF92FF920F931F93CF93DF93CDB756
:101B6000DEB768970FB6F894DEBF0FBECDBF6091A9
:101B70002505709126058091270590912805809074
:101B8000210590902205A0902305B090240528EE11
:101B9000C22E23E0D22EE12CF12CA70196010E9447
:101BA000B717122F032F342E252E34E6432E512C37
:101BB000612C712CA30192010E94B7175F934F9380
:101BC0003F932F932F923F920F931F93C501B40120
:101BD000A70196010E94B717122F032FB42EA52E2E
:101BE000A30192010E94B7175F934F933F932F93E6
:101BF000AF92BF920F931F9389EC92E09F938F93C4
:101C00008E010F5F1F4F1F930F930E947D198090CD
:101C1000250590902605A0902705B0902805909264
:101C2000570580925605A501940144275527A4E63F
:101C3000B0E00E947C17209121053091220540914F
:101C40002305509124050E94B717D301C201821BBE
:101C5000930BA40BB50B8D8B9E8BAF8BB88F8093A2
:101C6000580590935905A0935A05B0935B05809150
:101C700050059091510528EE33E0B9010E948F176D
:101C80001B01409052055090530560905405709090
:101C90005505C401B9010E948F17B62EA72E0FB6A5
:101CA000F894DEBF0FBECDBF41145104610471042E
:101CB000B1F14091010550910205609103057091C9
:101CC00004058091050590910605A0910705B09146
:101CD0000805481759076A077B0709F1409A2B9AAC
:101CE0006D897E898F89988DA70196010E94B7170B
:101CF0001F922F93AF92BF92C301B201A701960129
:101D00000E94B7171F922F933F922F9287EE92E077
:101D10009F938F931F930F930E947D190CC0AF92D6
:101D2000BF923F922F928CEF92E09F938F931F93DD
:101D30000F930E947D190FB6F894DEBF0FBECDBF82
:101D400060E080E00E94790260E1C8010E945A02CE
:101D500068960FB6F894DEBF0FBECDBFDF91CF916E
:101D60001F910F91FF90EF90DF90CF90BF90AF90B9
:101D70009F908F907F906F905F904F903F902F90AB
:101D800008958BE080930005429A2A9A0E949D0D47
:101D90000E94C1070E9421080C949D0D2F923F9232
:101DA0004F925F926F927F928F929F92AF92BF926B
:101DB000CF92DF92EF92FF920F931F93CF93DF9317
:101DC000CDB7DEB769970FB6F894DEBF0FBECDBFB3
:101DD000809150059091510568EE73E00E948F1735
:101DE000362E072F609121057091220580912305E1
:101DF0009091240548EEC42E43E0D42EE12CF12C22
:101E0000A70196010E94B717122F609101057091EA
:101E100002058091030590910405A70196010E9497
:101E2000B7178090520590905305A0905405B0903C
:101E30005505409025055090260560902705709027
:101E400028058091050590910605A0910705B091A0
:101E500008058D8B9E8BAF8BB88F60E080E0298F5B
:101E60000E947902809109051F928F931F92298DFC
:101E70002F931F921F930F933F925FE0252E53E005
:101E8000352E3F922F928E010F5F1F4F1F930F939E
:101E90000E947D1960E1C8010E945A0261E080E061
:101EA0000E9479020FB6F894DEBF0FBECDBF4091FD
:101EB0000105509102056091030570910405809120
:101EC000050590910605A0910705B09108054817F2
:101ED00059076A077B0771F180910A051F928F935A
:101EE0006D897E898F89988DA70196010E94B71709
:101EF0001F922F93C301B201A70196010E94B71749
:101F00001F922F93C501B401A70196010E94B71734
:101F10001F922F933F922F921F930F930E947D1930
:101F200060E1C8010E945A020FB6F894DEBF0FBEEE
:101F3000CDBF05C060E18FE092E00E945A02699631
:101F40000FB6F894DEBF0FBECDBFDF91CF911F91CA
:101F50000F91FF90EF90DF90CF90BF90AF909F9048
:101F60008F907F906F905F904F903F902F9008954B
:101F7000419A60E080E00E94790260E187E293E0AC
:101F80000E945A0260E188E393E00C945A02809127
:101F900000059CEE980F923050F44A9913C04B996B
:101FA00011C00E94C10E8EE10E94670C08C08B30E8
:101FB00049F44A9902C04B9B05C00E94E40C81E0A1
:101FC0008093C6048091C6048111A6C0349B06C0CC
:101FD000359B04C0369B02C037999EC08091000596
:101FE0008A3009F043C04A9941C034990AC00E941E
:101FF000600A8823D9F00E94E40C81E08093C60433
:102000000DC0359BF4CF369BF2CF379BF0CF0E94AB
:10201000790C882361F32AC0359903C0349BFECF25
:10202000FBCF369BFBCF379BF9CF76C00E94B80F12
:102030002FEF8FE790E7215080409040E1F700C0FC
:102040000000439A2FEF8FEB98EA21508040904098
:10205000E1F700C00000349BFECF359BFCCF369BE0
:10206000FACF379BF8CF4198439856C0809100052E
:10207000843129F4369950C00E94070D12C0853171
:1020800029F4379949C00E94E40C0BC0823369F4EB
:10209000369903C00E94390D04C037993DC00E9493
:1020A000CB0C81E08093C60437C0833351F436995A
:1020B00003C00E94520DF5CF37992EC00E94200D0B
:1020C000F0CF843341F4369903C00E946B0DE9CF01
:1020D000379BE0CF21C08C3341F4369903C00E9476
:1020E000840DDFCF379BE5CF17C08D3341F4369990
:1020F00003C00E94B20CD5CF379BE7CF0DC086340A
:1021000029F4369BCCCF379BEACF06C0873421F425
:10211000369BD4CF379BEDCF349B09C0359B07C08E
:10212000369B05C0379B03C01092C604089580916A
:10213000C604813079F480910005823358F03799D4
:1021400009C0369907C00E94E40C0E94C10782E0D2
:102150008093C6048091C604813071F4809100059B
:102160008451823048F4379907C0369905C00E94DF
:10217000200D82E08093C6048091C604882349F034
:102180002FEF8FEC92E0215080409040E1F700C0AB
:102190000000089560E08FE00E94790261E08EE126
:1021A00092E00E945A0261E080E00E94790260E1C0
:1021B00089E493E00E945A020E94650961E080E090
:1021C0000E94790260E18AE593E00E945A022FEFB3
:1021D0008FE398E3215080409040E1F700C0000079
:1021E0000C94B20C80914F05882381F08F3F11F43D
:1021F0009AE001C091E080911505981720F4891BA1
:102200008093150503C081111092150580914E052C
:102210008823C9F08F3F11F45AE001C051E040918A
:102220001505242F30E08FEF90E0851B91092817CA
:10223000390724F4450F4093150505C04F3F19F0A9
:102240008FEF80931505809115051F928F938BE674
:1022500093E09F938F9388EC94E09F938F930E94D9
:102260007D1961E080E00E94790264E088EC94E0EE
:102270000E945A0261E084E00E9479024AE06FEF16
:10228000809115050E9480030F900F900F900F9082
:102290000F900F90809115050C94A80880914F0520
:1022A000882381F08F3F11F49AE001C091E0809182
:1022B0001605981720F4891B8093160503C0811119
:1022C0001092160580914E058823C9F08F3F11F4B6
:1022D0005AE001C051E040911605242F30E08FEF05
:1022E00090E0851B91092817390724F4450F409386
:1022F000160505C04F3F19F08FEF809316058091AA
:1023000016051F928F938BE693E09F938F9388EC33
:1023100094E09F938F930E947D1961E080E00E947A
:10232000790264E088EC94E00E945A0261E084E063
:102330000E9479024AE06FEF809116050E948003A7
:102340000F900F900F900F900F900F9080911605A7
:102350000C94AB0880914F058823F1F08F3F19F45E
:1023600080ED97E002C088EE93E020911705309150
:102370001805AC01485F5D4A4217530738F4281B23
:10238000390B309318052093170506C088E092E5B5
:10239000909318058093170580914E05882341F18D
:1023A0008F3F19F420ED37E002C028EE33E0E091D2
:1023B0001705F0911805AF0160E070E088EE9DEF21
:1023C000A0E0B0E0821B930BA109B109481759079F
:1023D0006A077B073CF42E0F3F1F309318052093AC
:1023E000170506C088EE9DEF90931805809317059A
:1023F000809117059091180568EE73E00E948F1781
:102400007F936F9385E793E09F938F9388EC94E09D
:102410009F938F930E947D1961E087E00E9479026B
:102420000F900F900F900F900F900F9063E088EC3B
:1024300094E00C945A0280914F05882379F08F3FE5
:1024400011F48AE001C081E09091C504891720F45D
:10245000981B9093C50402C01092C50480914E054C
:102460008823B9F08F3F11F44AE001C041E0509158
:10247000C504252F30E08FEF90E0841B91092817C9
:10248000390724F4450F4093C50403C08FEF8093B0
:10249000C5048091C5041F928F938CE793E09F93AE
:1024A0008F9388EC94E09F938F930E947D1961E055
:1024B00080E00E94790264E088EC94E00E945A0275
:1024C00061E084E00E9479024AE06FEF8091C504E8
:1024D0000E9480030F900F900F900F900F900F901D
:1024E0006091C50470E080E00C94190980914F055B
:1024F000882379F08F3F11F48AE001C081E0909148
:10250000C404891720F4981B9093C40402C010924D
:10251000C40480914E058823B9F08F3F11F44AE03E
:1025200001C041E05091C404252F30E08FEF90E0CE
:10253000841B91092817390724F4450F4093C404DC
:1025400003C08FEF8093C4048091C4041F928F93C3
:102550008CE793E09F938F9388EC94E09F938F9305
:102560000E947D1961E080E00E94790264E088ECBD
:1025700094E00E945A0261E084E00E9479024AE0FD
:102580006FEF8091C4040E9480030F900F900F9012
:102590000F900F900F906091C40470E081E00C9454
:1025A00019098F929F92AF92BF92CF92DF92EF92D2
:1025B000FF9280914F058823F1F08F3F19F480ED51
:1025C00097E002C088EE93E02091500530915105CC
:1025D000AC014053584F4217530738F4281B390BAE
:1025E000309351052093500506C080ED97E09093FD
:1025F00051058093500580914E05882311F18F3F3E
:1026000019F480ED97E002C088EE93E04091500508
:1026100050915105209117053091180528583341E4
:10262000B901681B790B4617570738F4840F951FBB
:10263000909351058093500504C030935105209329
:102640005005809150059091510568EE73E00E940D
:102650008F177F936F9385E793E09F938F9388EC19
:1026600094E09F938F930E947D1961E087E00E9420
:10267000790263E088EC94E00E945A0220915005B0
:10268000309151056901E12CF12C80915205909116
:102690005305A0915405B09155058C0D9D1DAE1D9F
:1026A000BF1D0F900F900F900F900F900F90813AD9
:1026B0009648A140B10580F080EA96E8A1E0B0E03C
:1026C0008C199D09AE09BF0980935205909353055B
:1026D000A0935405B0935505409101055091020512
:1026E00060910305709104058091050590910605A0
:1026F000A0910705B0910805481759076A077B079D
:1027000049F4C0920105D0920205E0920305F092CF
:1027100004052AC0A4E6B0E00E9466174B015C01E4
:102720006091520570915305809154059091550523
:1027300028EE33E040E050E00E94B717DA01C9010B
:1027400024E630E040E050E0281B390B4A0B5B0BDD
:10275000C501B4010E94B71720930105309302050B
:102760004093030550930405C0920505D0920605D9
:10277000E0920705F0920805FF90EF90DF90CF9070
:10278000BF90AF909F908F90089580914F058823C0
:10279000D9F08F3F19F420ED37E002C028EE33E086
:1027A0008091500590915105A901485F5D4A4817F5
:1027B000590718F4821B930B02C088E092E59093AE
:1027C00051058093500502C020E030E080914E0515
:1027D000882311F18F3F19F420ED37E002C028EE75
:1027E00033E040915005509151058091170590912B
:1027F000180588589341BC01621B730B4617570795
:1028000038F4420F531F509351054093500504C0B4
:1028100090935105809350058091500590915105FA
:10282000A0E0B0E08093010590930205A09303051A
:10283000B09304058093050590930605A0930705C2
:10284000B0930805232B29F00E94C10E8AE00C9456
:10285000670C08958F929F92AF92BF92CF92DF92B2
:10286000EF92FF920F931F93CF93DF9380914F05C9
:10287000882359F18F3F19F480ED97E002C088EE6C
:1028800093E0409152055091530560915405709129
:102890005505A0E0B0E084179507A607B70768F4D0
:1028A000481B590B6A0B7B0B409352055093530501
:1028B000609354057093550508C01092520510920C
:1028C0005305109254051092550580914E058823AA
:1028D000E9F18F3F19F400ED17E002C008EE13E0B4
:1028E00040915205509153056091540570915505E2
:1028F00020E030E0E0915005F091510580EA96E843
:10290000A1E0B0E08E1B9F0BA109B1096C017D0114
:10291000C01AD10AE20AF30A4C155D056E057F055F
:1029200068F4400F511F621F731F4093520550936C
:102930005305609354057093550508C08093520564
:1029400090935305A0935405B0935505609152059B
:10295000709153058091540590915505E8EECE2E67
:10296000E3E0DE2EE12CF12CA70196010E94B717BF
:102970001F922F9385E793E09F938F9388EC94E0C9
:102980009F938F930E947D1961E087E00E947902F6
:1029900063E088EC94E00E945A02C0915005D09107
:1029A00051059E01A4E6B0E00E9466174B015C0150
:1029B0006091520570915305809154059091550591
:1029C000A70196010E94B717DA01C90124E630E099
:1029D00040E050E0281B390B4A0B5B0BC501B401EA
:1029E0000E94B71720930105309302054093030519
:1029F00050930405CE01A0E0B0E0809305059093CC
:102A00000605A0930705B09308050F900F900F904F
:102A10000F900F900F90DF91CF911F910F91FF902A
:102A2000EF90DF90CF90BF90AF909F908F900895E0
:102A30004F925F926F927F928F929F92AF92BF92CE
:102A4000CF92DF92EF92FF920F931F93CF93DF937A
:102A500060912505709126058091210590912205B0
:102A60000E94490A882381F181E080930005419A00
:102A7000439A2A982B984298409860E080E00E9400
:102A8000790260E181E893E00E945A0261E080E00F
:102A90000E94790260E14A9903C082E993E002C092
:102AA00083EA93E0DF91CF911F910F91FF90EF9018
:102AB000DF90CF90BF90AF909F908F907F906F905E
:102AC0005F904F900C945A028091C704811161C0AD
:102AD0000E949D0D60912505709126058091270526
:102AE0009091280540902105509022056090230583
:102AF00070902405F8EE8F2EF3E09F2EA12CB12CC0
:102B0000A50194010E94B717E901142F052FA4E62F
:102B1000CA2ED12CE12CF12CA70196010E94B717E7
:102B20005F934F933F932F930F931F93DF93CF9315
:102B3000C301B201A50194010E94B717E901142F46
:102B4000052FA70196010E94B7175F934F933F93FC
:102B50002F930F931F93DF93CF9389EC92E09F9372
:102B60008F9388EC94E09F938F930E947D1961E08E
:102B700080E00E94790260E188EC94E00E945A02B1
:102B80008DB79EB744960FB6F8949EBF0FBE8DBF0B
:102B900002C00E94CE0EDF91CF911F910F91FF9046
:102BA000EF90DF90CF90BF90AF909F908F907F90ED
:102BB0006F905F904F900C94790CCF92DF92EF92D0
:102BC000FF920F93CF93DF93809100058A3009F035
:102BD0005AC0B0E2CB2EBBE1DB2EBCE7EB2EBCE053
:102BE000FB2E2091190530911A0540911B0550913B
:102BF0001C05C701B6010E94B717DA01C90120936D
:102C0000290590932A05A0932B05B0932C051092CB
:102C10002D0510922E0510922F051092300520914F
:102C20001D0530911E0540911F0550912005C701DB
:102C3000B6010E94B717DA01C901209331059093BC
:102C40003205A0933305B0933405109235051092E8
:102C5000360510923705109238050E94790C082F1E
:102C600020911D0530911E0540911F0550912005B2
:102C70006091190570911A0580911B0590911C05B2
:102C80000E94C5036BC0863429F4349967C00E9442
:102C9000CA1064C0873489F4349960C08AE0809394
:102CA0000005349BFECF359BFCCF369BFACF379B7C
:102CB000F8CF8FE00E94670C51C0823319F40E9454
:102CC000F2104CC0833319F40E944E1147C0843374
:102CD00019F40E94AA1142C08C3319F40E941B12ED
:102CE0003DC08D3319F40E94761238C0843119F436
:102CF0000E94D11233C08B3069F5349B02C03599E4
:102D000018C0409101055091020560910305709132
:102D100004058091050590910605A0910705B091E5
:102D20000805481759076A077B0719F40E94C5135D
:102D300015C0369906C0379904C081E08093C70456
:102D40000DC037990BC0369B09C01092C7040E9472
:102D5000C10E04C0853111F40E942A14809100052F
:102D60008B3049F4DF91CF910F91FF90EF90DF907E
:102D7000CF900C941815DF91CF910F91FF90EF90A9
:102D8000DF90CF900895809100050895809300050D
:102D90000895CF93DF93CDB7DEB76A970FB6F89457
:102DA000DEBF0FBECDBF0E94EB088AE00E94C616B0
:102DB0008FE00E94670C8FE591E00E943B0C2EEEA5
:102DC00034E040E050E060E070E080E890E00E9495
:102DD000850A2CED34E040E050E060E070E080E8EF
:102DE00090E00E94850A18EE812E13E0912E08EEE5
:102DF000C02E03E0D02EE12CF12C87E7A82E81E035
:102E0000B82E8E010F5F1F4F0E9407028091B503FD
:102E100081110E947D000E94C70F0E9485078823B0
:102E200021F00E94DD150E948B070E948E078823E7
:102E300009F444C08091500590915105B4010E945D
:102E40008F17762E672E6091210570912205809153
:102E5000230590912405A70196010E94B717522ED1
:102E60006091010570910205809103059091040520
:102E7000A70196010E94B71760E070E080E090E043
:102E80002A8F0E947902809109051F928F931F92C9
:102E90002A8D2F931F925F926F927F92BF92AF9273
:102EA0001F930F930E947D19C8010E943B0C0E9442
:102EB00088070FB6F894DEBF0FBECDBF0E94C316C1
:102EC0008B3009F0A1CF0E9463079ECFA29FB00173
:102ED000B39FC001A39F700D811D1124911DB29F4E
:102EE000700D811D1124911D08950E946617B7FF72
:102EF0000895821B930B08950E946617A59F900D5D
:102F0000B49F900DA49F800D911D11240895B7FFCB
:102F10000C947C170E947C17821B930B0895AA1BAC
:102F2000BB1B51E107C0AA1FBB1FA617B70710F0B4
:102F3000A61BB70B881F991F5A95A9F780959095E6
:102F4000BC01CD01089597FB072E16F4009407D01D
:102F500077FD09D00E948F1707FC05D03EF49095AD
:102F600081959F4F0895709561957F4F0895A1E2D7
:102F70001A2EAA1BBB1BFD010DC0AA1FBB1FEE1FF3
:102F8000FF1FA217B307E407F50720F0A21BB30B3E
:102F9000E40BF50B661F771F881F991F1A9469F7BA
:102FA00060957095809590959B01AC01BD01CF0116
:102FB0000895052E97FB1EF400940E94D91857FD22
:102FC00007D00E94B71707FC03D04EF40C94D91811
:102FD00050954095309521953F4F4F4F5F4F089545
:102FE000689401C0E894F92FF12B12F00C94241886
:102FF000A0E0B0E0EEEFF7E10C94F718092E05948D
:1030000022F40E94E118112392F4F0E80F26FFEF5A
:10301000E094F09400951095B094C094D094A1944D
:10302000BF0ACF0ADF0AEF0AFF0A0F0B1F0B0E942D
:10303000881807FC0E94E118CDB7DEB7ECE00C94CD
:103040001319689401C0E8948F929F92CF93DF93F5
:103050000E948818DF91CF919F908F900895DF9301
:10306000CF931F930F939A9DF02D219FF00D8B9D71
:10307000F00D8A9DE02DF10D039FF00D029FE00DF4
:10308000F11D4E9DE00DF11D5E9DF00D4F9DF00D6B
:103090007F936F93BF92AF925F934F93D5010E943E
:1030A00066178B01AC01D7010E946617EB01E80F90
:1030B000F91FD6010E947F182F913F91D6010E94DF
:1030C0006617C60FD71FE81FF91FAF91BF910E9467
:1030D0007F182F913F910E946617C60FD71FE81FD8
:1030E000F91FD6010E946617E60FF71F9801BE016F
:1030F000CF0111240F911F91CF91DF9108950E946C
:103100006617460F571FC81FD91F08F43196089538
:1031100088249924F401E401B0E49F93AA279A1526
:103120008B049C04ED05FE05CF05D007A10798F49C
:10313000AD2FDC2FCF2FFE2FE92D982C892E982F25
:10314000872F762F652F542F432F322F2227B850E9
:1031500031F7BF9127C01B2EBF91BB27220F331F12
:10316000441F551F661F771F881F991F881C991CB5
:10317000EE1FFF1FCC1FDD1FAA1FBB1F8A149B045D
:10318000EC05FD05CE05DF05A007B10748F08A185C
:103190009B08EC09FD09CE09DF09A00BB10B2160EA
:1031A0001A94E1F62EF49401AF01BE01CD01000C9A
:1031B000089590958095709561957F4F8F4F9F4FA3
:1031C00008956095709580959095309540955095AF
:1031D00021953F4F4F4F5F4F6F4F7F4F8F4F9F4F07
:1031E00008952F923F924F925F926F927F928F92AB
:1031F0009F92AF92BF92CF92DF92EF92FF920F9386
:103200001F93CF93DF93CDB7DEB7CA1BDB0B0FB68F
:10321000F894DEBF0FBECDBF09942A88398848884C
:103220005F846E847D848C849B84AA84B984C884E2
:10323000DF80EE80FD800C811B81AA81B981CE0FD9
:10324000D11D0FB6F894DEBF0FBECDBFED010895BE
:103250000F93083090F0982F872F762F652F542FDB
:10326000432F322F22270850F4CF220F331F441F41
:10327000551F661F771F881F991F0A95B2F70F9178
:10328000089597FB10F8169400080F93083098F0F3
:103290000850232F342F452F562F672F782F892F33
:1032A000902DF4CF059497958795779567955795C9
:1032B0004795379527950A95AAF70F9108952A0DF6
:1032C0003B1D4C1D5D1D6E1D7F1D801F911F0895B0
:1032D0002A193B094C095D096E097F09800B910B86
:1032E00008950024A7FD00942A17300540055005D5
:1032F00060057005800590050895AEE0B0E0E3E854
:10330000F9E10C94FF180D891E8986E08C831A83DD
:1033100009838FEF9FE79E838D83AE01475E5F4FEA
:103320006F89788DCE0101960E949F19EF81F885F3
:10333000E00FF11F10822E96E4E00C941B19ACE014
:10334000B0E0E5EAF9E10C94F1187C016B018A0127
:10335000FC0117821682838181FFBDC1CE010196D7
:103360004C01F7019381F60193FD859193FF8191C3
:103370006F01882309F4ABC1853239F493FD85913F
:1033800093FF81916F01853229F4B70190E00E948B
:10339000AF1BE7CF512C312C20E02032A0F48B3230
:1033A00069F030F4803259F0833269F420612CC026
:1033B0008D3239F0803339F4216026C022602460D8
:1033C00023C0286021C027FD27C030ED380F3A30D8
:1033D00078F426FF06C0FAE05F9E300D1124532ECC
:1033E00013C08AE0389E300D1124332E20620CC0A9
:1033F0008E3221F426FD6BC1206406C08C3611F498
:10340000206802C0883641F4F60193FD859193FF50
:1034100081916F018111C1CF982F9F7D9554933079
:1034200028F40C5F1F4FFFE3F9830DC0833631F0A2
:10343000833771F0833509F05BC022C0F8018081C9
:1034400089830E5F1F4F44244394512C540115C0AF
:103450003801F2E06F0E711CF801A080B18026FFE8
:1034600003C0652D70E002C06FEF7FEFC5012C87B0
:103470000E94A41B2C0183012C852F77222E17C0BC
:103480003801F2E06F0E711CF801A080B18026FFB8
:1034900003C0652D70E002C06FEF7FEFC5012C8780
:1034A0000E94991B2C012C852068222E830123FC6D
:1034B0001BC0832D90E048165906B0F4B70180E296
:1034C00090E00E94AF1B3A94F4CFF50127FC859160
:1034D00027FE81915F01B70190E00E94AF1B311080
:1034E0003A94F1E04F1A51084114510471F7E5C0C4
:1034F000843611F0893639F5F80127FF07C060815D
:103500007181828193810C5F1F4F08C0608171813E
:10351000882777FD8095982F0E5F1F4F2F76B22E4C
:1035200097FF09C090958095709561957F4F8F4F5B
:103530009F4F2068B22E2AE030E0A4010E94E11BD8
:10354000A82EA81844C0853729F42F7EB22E2AE071
:1035500030E025C0F22FF97FBF2E8F36C1F018F46E
:10356000883579F0B4C0803719F0883721F0AFC0C2
:103570002F2F2061B22EB4FE0DC08B2D8460B82E8B
:1035800009C024FF0AC09F2F9660B92E06C028E00C
:1035900030E005C020E130E002C020E132E0F80177
:1035A000B7FE07C060817181828193810C5F1F4FDC
:1035B00006C06081718180E090E00E5F1F4FA40122
:1035C0000E94E11BA82EA818FB2DFF77BF2EB6FE88
:1035D0000BC02B2D2E7FA51450F4B4FE0AC0B2FCF4
:1035E00008C02B2D2E7E05C07A2C2B2D03C07A2CE3
:1035F00001C0752C24FF0DC0FE01EA0DF11D808174
:10360000803311F4297E09C022FF06C0739473949D
:1036100004C0822F867809F0739423FD13C020FF25
:1036200006C05A2C731418F4530C5718732C7314C7
:1036300068F4B70180E290E02C870E94AF1B73947E
:103640002C85F5CF731410F4371801C0312C24FFEA
:1036500012C0B70180E390E02C870E94AF1B2C853D
:1036600022FF17C021FF03C088E590E002C088E771
:1036700090E0B7010CC0822F867859F021FD02C07E
:1036800080E201C08BE227FD8DE2B70190E00E944D
:10369000AF1BA51438F4B70180E390E00E94AF1B84
:1036A0005A94F7CFAA94F401EA0DF11D8081B70175
:1036B00090E00E94AF1BA110F5CF332009F451CE4A
:1036C000B70180E290E00E94AF1B3A94F6CFF70179
:1036D0008681978102C08FEF9FEF2C96E2E10C94D8
:1036E0000D19DC01CB01FC01F999FECF06C0F2BD3A
:1036F000E1BDF89A319600B40D9241505040B8F7B0
:103700000895DC01CB0103C02D910E948C1B415018
:103710005040D0F70895262FF999FECF1FBA92BDD9
:1037200081BD20BD0FB6F894FA9AF99A0FBE0196A2
:103730000895FC010590615070400110D8F7809504
:1037400090958E0F9F1F0895FC016150704001906D
:103750000110D8F7809590958E0F9F1F08950F93B5
:103760001F93CF93DF93182F092FEB018B8181FDDE
:1037700003C08FEF9FEF20C082FF10C04E815F819A
:103780002C813D81421753077CF4E881F9819F0128
:103790002F5F3F4F39832883108306C0E885F98562
:1037A000812F0995892B29F72E813F812F5F3F4F6C
:1037B0003F832E83812F902FDF91CF911F910F9107
:1037C0000895FA01AA27283051F1203181F1E894B7
:1037D0006F936E7F6E5F7F4F8F4F9F4FAF4FB1E004
:1037E0003ED0B4E03CD0670F781F891F9A1FA11DFF
:1037F000680F791F8A1F911DA11D6A0F711D811D00
:10380000911DA11D20D009F468943F912AE0269FC4
:1038100011243019305D3193DEF6CF010895462F23
:103820004770405D4193B3E00FD0C9F7F6CF462F04
:103830004F70405D4A3318F0495D31FD405241936D
:1038400002D0A9F7EACFB4E0A6959795879577952A
:103850006795BA95C9F700976105710508959B01B1
:10386000AC010A2E06945795479537952795BA953A
:10387000C9F7620F731F841F951FA01D0895F89448
:02388000FFCF78
:1038820001FFFFFFFF55415254204672616D6520D2
:103892004572726F723A200055415254204F76653C
:1038A2007272756E204572726F723A2000427566AE
:1038B200666572206F766572666C6F7720657272CC
:1038C2006F723A2000544F444F3A2050757420735F
:1038D2006F6D6520646562756720696E666F00575B
:1038E200656C636F6D6520746F20626C656E6465D4
:1038F20072203A290D0A0053313A20253032752CB4
:1039020020253032752C20253032752C202530337D
:10391200750D0A0053313A2025366C697556202000
:10392200203E0053323A2025366C697556202532E6
:10393200647300506C656173652C207475726E201F
:103942006F6E2000796F757220636F6D7072657390
:10395200736F722100496E6974696E672E2E2E0094
:10396200414443204572726F72210053312E2E2E34
:10397200004F4B202053322E2E2E004F4B00202082
:10398200202052756E20546573742020203E002042
:103992002020202020202020202020202020200045
:1039A20020202043616C6962726174652020203E90
:1039B200004F322020204F787967656E202020202A
:1039C2002B0048652020202020202020202020209D
:1039D200202D004F3220202048656C69756D202013
:1039E20020202B0020204272696768746E65737311
:1039F20020202B0020202020436F6E74726173748C
:103A02002020202B002020202020202020202020C9
:103A1200202020202D002020456D657267656E6391
:103A220079204F32202B002020536574204F322002
:103A320076616C7665202B002020536574204865E2
:103A42002076616C7665202B0053313A25326C6901
:103A52002E2530316C692053323A25326C692E257D
:103A620030316C69202000546D58202532752F2585
:103A7200327520202532752F2532750045414E784A
:103A820025327520205265616C3A2532752000740A
:103A920025303275632530327520737425303275C6
:103AA2002076253033750043616E27742063616C84
:103AB200696272617465210053656E736F7273205F
:103AC2006661696C75726521002020204368656318
:103AD2006B696E672E2E2E202000202020202020B1
:103AE200444F4E45212020202020002530337520D0
:103AF2002020202000253032752525002533752011
:103B020000202020456D657267656E637921202053
:103B1200200020204F3220746F6F2068696768216F
:103B2200202000436F6D70726573736F723A2020AC
:043B32004F464600B4
:00000001FF
