:100000000C945E000C947B000C947B000C947B00A1
:100010000C947B000C947B000C947B000C947B0074
:100020000C947B000C947B000C947B000C947B0064
:100030000C947B000C947B000C947B000C947B0054
:100040000C947B000C947B000C948C000C947B0033
:100050000C9477080C94AC080C947B000C947B00F7
:100060000C947B000C947B000C947B000C947B0024
:100070000C947B000C947B000C947B00001F000010
:1000800000001F00001F101010101F00001F181884
:1000900018181F00001F1C1C1C1C1F00001F1E1E08
:1000A0001E1E1F00001F1F1F1F1F1F0003070F1F03
:1000B0000F070300181C1E1F1E1C180011241FBE52
:1000C000CFEFD0E1DEBFCDBF11E0A0E0B1E0E2E2D2
:1000D000FFE102C005900D92A236B107D9F722E0E8
:1000E000A2E6B1E001C01D92A33FB207E1F70E9472
:1000F0006D090C948F0F0C9400001A9B0AC080911C
:10010000A7028F3F41F08091A7028F5F8093A702E3
:1001100008951092A70208951F920F920FB60F92A2
:1001200011242F933F934F935F936F937F938F93FC
:100130009F93AF93BF93EF93FF938091A4028F5F40
:100140008093A4028091A402893068F080918C028F
:1001500090918D02019690938D0280938C02109263
:10016000A4020E947004FF91EF91BF91AF919F9103
:100170008F917F916F915F914F913F912F910F9050
:100180000FBE0F901F9018957F928F929F92AF9203
:10019000BF92CF92DF92EF92FF920F931F93CF9374
:1001A000DF9381E00E940506DC01CB019C01AD01DB
:1001B00060E070E080E090E0405851096109710909
:1001C0008109910959016A017B01E82F192F02E089
:1001D0000E943C0C0E2F0E94730C59016A017B0196
:1001E000E82F192F04E00E943C0C0E2F0E947C0C7B
:1001F00059016A017B01E82F192F04E00E943C0C91
:100200000E2F0E947C0C4901D42FC52FB62FA72F8B
:10021000F82FE92F06E00E943C0C59016A017B018E
:100220008C0194014D2F5C2F6B2F7A2F8F2F9E2FD7
:100230000E94730C722E832E942ED52FC62FB72FAB
:10024000F82FE92FA0E00E94850C84F42150310999
:1002500040485F4F6F4F7F4F8F4F9F4F722E832EBF
:10026000942ED52FC62FB72FF82FE92F272D382DF5
:10027000492D5D2F6C2F7B2F8F2F9E2F07E10E9422
:10028000550CC22FB32FF42FE52F762E872E982EE4
:10029000D92FA0E00E94850C54F40E94F50BC22FC8
:1002A000B32FF42FE52F762E872E982ED92F8091FD
:1002B0006401811143C0C0938E02B0938F02F0930A
:1002C0009002E0939102A090B102B090B202C0906F
:1002D000B302D090B402E090B502F090B602009163
:1002E000B7021091B8022C2F3B2F4F2F5E2F672D96
:1002F000782D892D9D2F0E940C0BA0E1AA2EB7E22C
:10030000BB2EC12CD12CE12CF12C00E010E00E947E
:10031000670B2093A9023093AA024093AB0250933B
:10032000AC0281E08093640142E952E0B90180911E
:100330006A0290916B020E94C20738C0C093AD025E
:10034000B093AE02F093AF02E093B002A0908402AB
:10035000B0908502C0908602D0908702E09088021B
:10036000F090890200918A0210918B022C2F3B2F72
:100370004F2F5E2F672D782D892D9D2F0E940C0BFE
:10038000E0E1AE2EF7E2BF2EC12CD12CE12CF12CF6
:1003900000E010E00E94670B20936C0230936D0226
:1003A00040936E0250936F02109264018091640139
:1003B000DF91CF911F910F91FF90EF90DF90CF9041
:1003C000BF90AF909F908F907F900C94740682B9ED
:1003D000299A289A8FEF91E10197F1F700C0000068
:1003E000289829988FEF91E10197F1F700C000005C
:1003F000089582B9289A8FEF91E10197F1F700C033
:10040000000028988FEF91E10197F1F700C00000FC
:10041000089581E00C94F90182E00C94F901EF92C7
:10042000FF921F93CF93DF931F92CDB7DEB7009754
:1004300071F0182F7C018E2D811B861740F4F70177
:1004400081917F0169830E94E7016981F4CF0F9058
:10045000DF91CF911F91FF90EF900895623031F0BE
:10046000633031F0613029F4805C03C08C5E01C0E0
:100470008C5A80680C94F9011F93CF93DF93EC01A1
:10048000862F642F0E942E0210E0FE01E10FF11D65
:100490008491882329F084910E94E7011F5FF5CFA2
:1004A000DF91CF911F910895EF92FF920F931F93C9
:1004B000CF93DF938C0188E0689FB0011124862FD1
:1004C0008064E82EC0E0D0E0F801EC0FFD1FF4904E
:1004D0008C2F8E0D0E94F9018F2D0E94E70121962D
:1004E000C830D10589F7DF91CF911F910F91FF900F
:1004F000EF9008951F93CF93DF932FEF87ED90E058
:10050000215080409040E1F700C0000012B815B8BB
:1005100081B18FEF81B984B1836084B980E382B9FE
:10052000289A8FEF91E10197F1F700C00000289819
:100530008FEF91E10197F1F700C0000080E382B9ED
:10054000289A8FEF91E10197F1F700C000002898F9
:100550008FEF91E10197F1F700C0000080E382B9CD
:10056000289A8FEF91E10197F1F700C000002898D9
:100570008FEF91E10197F1F700C0000088E382B9A5
:10058000289A8FEF91E10197F1F700C000002898B9
:100590008FEF91E10197F1F700C000008CE082B984
:1005A000289A8FEF91E10197F1F700C00000289899
:1005B0008FEF99E50197F1F700C00000CCE7D0E09C
:1005C00060E011E0160FCE010E9454022896183008
:1005D00011F0612FF6CFDF91CF911F910895CF9346
:1005E000DF93D82FC0E0CD1729F08EE10E94F901EA
:1005F000CF5FF9CFDF91CF910895CF93DF93D82FBD
:10060000C0E0CD1729F088E10E94F901CF5FF9CF52
:10061000DF91CF9108958EE00C94F9018FE00C9456
:10062000F9018CE00C94F90188E00C94F9018CE05C
:100630000C94F901CF93DF93D82FC0E0CD1729F0A8
:1006400080E10E94F901CF5FF9CFDF91CF9108954A
:10065000CF93DF93D82FC0E0CD1729F084E10E941B
:10066000F901CF5FF9CFDF91CF910895CF92DF925B
:10067000EF92FF920F931F93CF93DF931F92CDB70B
:10068000DEB756E0459F90011124E82FE29FC0019C
:10069000E39F900D112470E00E94A40A8B01CB010E
:1006A00066E070E00E94900AE82EC12CD12CF12C5B
:1006B000F416B9F096012B5F3F4F0217130728F489
:1006C0000C151D0520F08E2D03C085E001C080E0D3
:1006D00049830E94E701F394F6E0CF0ED11C4981D3
:1006E000E7CF0F90DF91CF911F910F91FF90EF9087
:1006F000DF90CF900895EF92FF920F931F93CF93C7
:10070000DF93CDB7DEB72D970FB6F894DEBF0FBEDF
:10071000CDBF162F082FF92E80E82A873B874C87FC
:100720005D8779870E94F90160E188E291E00E948B
:100730000F02FF920F9379857F931F9384E1E82E38
:1007400081E0F82EFF92EF928E010F5F1F4F1F93F3
:100750000F930E94FF0C80EC0E94F90168E0C80131
:100760000E940F025D855F934C854F933B853F93BD
:100770002A852F93FF92EF921F930F930E94FF0CF5
:1007800088EC0E94F90168E0C8010E940F020FB6D0
:10079000F894DEBF0FBECDBF2D960FB6F894DEBF26
:1007A0000FBECDBFDF91CF911F910F91FF90EF90C2
:1007B00008950F931F9394B19F7094B994B1906B67
:1007C00094B994E0099F80011124016598E0299F64
:1007D00090011124022B20E2829FC0011124082BDA
:1007E0000CBD81E01F910F910895CF93DF9300D04E
:1007F00000D0CDB7DEB7FC01819119821A821B822D
:100800001C829E012F5F3F4FD901422F9A2F921BCE
:10081000961718F491919D93F9CF813009F42C9893
:10082000F9019E2F941B961730F491919EBD0DB443
:1008300007FEFDCFF6CF813009F42C9A862F0F905A
:100840000F900F900F90DF91CF910895CF93DF938A
:10085000CDB7DEB728970FB6F894DEBF0FBECDBF79
:10086000FC0171911D821E821F82188619821A82D4
:100870001B821C82AE014B5F5F4FDA012A2F241BC3
:10088000261718F421912D93F9CF713009F42C9883
:100890009E012F5F3F4FDA01F901422F5E2F521B5D
:1008A000561740F45D915EBD0DB407FEFDCF5EB5F9
:1008B0005193F4CF713009F42C9AFC01D9018A2F9D
:1008C000841B861718F48D918193F9CF862F289673
:1008D0000FB6F894DEBF0FBECDBFDF91CF91089564
:1008E00080916201882371F0809162018F5F809313
:1008F000620180916201803F28F081E08093630172
:100900001092620108950F93CF93DF9300D000D02F
:100910001F92CDB7DEB785E0E1E0F1E0DE01119690
:1009200001900D928A95E1F701E021E040E452E464
:100930006FE070E080E00E94D90364E0CE01019690
:100940000E94F5030F900F900F900F900F90DF9182
:10095000CF910F910895FF920F931F93CF93DF9341
:1009600000D000D01F92CDB7DEB7F62E8E010F5FFC
:100970001F4F95E0F80111929A95E9F74983877026
:10098000F8E08F9FC001112480648A8361E06F0DBD
:10099000C8010E942604E1E060E070E0CB014F2D29
:1009A00050E02E2F30E04217530774F0982F872F16
:1009B000762F6627D801A20FB31F2C91620F711DED
:1009C000811D911DEF5FEDCF0F900F900F900F9055
:1009D0000F90DF91CF911F910F91FF90089541E00B
:1009E00061E084E00E94AB04109262011092630106
:1009F0006F7081E06B3009F080E008950F93CF9322
:100A0000DF93CDB7DEB729970FB6F894DEBF0FBEE0
:100A1000CDBF4E835F8368877987FE01319695E06D
:100A2000DF011D929A95E9F72F5F09838770880F80
:100A3000880F880F8A83322FBE016A5F7F4F323062
:100A400050F0CF01830F911DDB014D91BD01DC0101
:100A50004C933150F4CF622FCF010E94F5032996B9
:100A60000FB6F894DEBF0FBECDBFDF91CF910F91CF
:100A700008951E99FECF0895CF92DF92EF92FF92D4
:100A80000F936B017C0141E062E081E00E94AB04C6
:100A9000AB01BC015F7166277727D701C6010DE066
:100AA000880F991FAA1FBB1F0A95D1F7AA27BB273A
:100AB000482B592B6A2B7B2B01E022E081E00E941E
:100AC000FE040F91FF90EF90DF90CF900895CF92AA
:100AD000DF92EF92FF920F936B017C0141E062E0A5
:100AE00082E00E94AB04AB01BC01487F87E0C822D2
:100AF000DD24EE24FF244C295D296E297F2901E0A5
:100B000022E082E00E94FE040F91FF90EF90DF90C0
:100B1000CF900895CF92DF92EF92FF920F936B01E7
:100B20007C0141E062E082E00E94AB04AB01BC01C9
:100B3000587F87E0C822DD24EE24FF24FE2CED2C14
:100B4000DC2CCC244C295D296E297F2901E022E090
:100B500082E00E94FE040F91FF90EF90DF90CF9013
:100B600008950F93CF93C82F41E062E082E00E9486
:100B7000AB04AB01BC014F7720E8C29FC001112438
:100B80009927AA2797FDA095BA2F482B592B6A2B96
:100B90007B2B01E022E082E00E94FE04CF910F91C6
:100BA00008950F93CF93C82F70E080E090E00E94EB
:100BB000670541E062E081E00E94AB044C2F50E009
:100BC000542F44275295550F507E60E070E001E0AD
:100BD00022E081E00E94FE04CF910F910C94390530
:100BE0000F932C9800E022E040E050E260E070E0DB
:100BF00081E00E94FE040E94390540E063E083E04A
:100C00000E94AB042C9A0F910895CF92DF92EF923D
:100C1000FF920F93CF93DF93C82F01E022E040E0D3
:100C200050E0BA0181E00E94FE04D0E0C12CD12C3A
:100C30007601DC1759F041E063E083E00E94AB04E9
:100C4000C60ED71EE81EF91EDF5FF3CF2D2F30E052
:100C500040E050E0C701B6010E94B80ACA01B901DC
:100C6000DF91CF910F91FF90EF90DF90CF9008959B
:100C70000F931F93613029F000E810E020E030E08E
:100C800004C000E810E420E030E0482F477050E056
:100C900060E070E040615C60402B512B622B732B55
:100CA00001E022E082E00E94FE041F910F9108956E
:100CB0000F93CF93C82F61E00E9438060E94390538
:100CC0006C2F84E00E94D1056C2F85E00E94D10535
:100CD00001E022E049E050E060E070E081E00E9445
:100CE000FE04CF910F91089560E00E94380681E0E4
:100CF000809362011092630108954EE050E060E03D
:100D000070E08FED92E00C94F30E4EE050E060E066
:100D100070E08FED92E00C94030F84B18C6084B985
:100D200087B18F6087B98AB1806C8AB9E0EBF0E057
:100D30008081836A8083E1EBF0E08081866080833C
:100D40008091EB028093B3008091EC028093B40019
:100D500085B5826085BD16BCEEE6F0E080818160DD
:100D60008083E0E8F0E08081826A8083E1E8F0E05F
:100D700080818B6180838091E9029091EA02909357
:100D80008700809386008AB180638AB98091DF02F0
:100D90009091E00290938900809388008091E10215
:100DA0009091E20290938B0080938A000895809343
:100DB000B30008958093B40008950E94090260E092
:100DC00083E00E942E026AE089E391E00E940F0214
:100DD0000E9483040E94EF0481110BC00E9409024B
:100DE00060E082E00E942E026AE084E491E00C94CC
:100DF0000F0261E080E00E942E0265E08FE491E046
:100E00000E940F0280E00E94580669E085E591E0AB
:100E10000E940F0281E00E94580662E08FE591E097
:100E20000E940F0210926401809164010E94740676
:100E30000C940902CF93DF93CDB7DEB72E970FB690
:100E4000F894DEBF0FBECDBF0E947D060E948D06C6
:100E50000E947A020E9409020E94DD068FEF9FEF36
:100E60000E94D808FE0131968EE0DF011D928A951E
:100E7000E9F783E08C8388E299E09A87898781EF9C
:100E800098E09C878B87F093EE02E093ED02F0935D
:100E9000F002E093EF0278942E960FB6F894DEBF3E
:100EA0000FBECDBFDF91CF910895653671052CF44B
:100EB00077FF05C060E070E002C064E670E0811179
:100EC00019C0E091DF02F091E0022091E30230913D
:100ED000E4022E1B3F0B44E6429FC001439F900D4E
:100EE00011240E94900A6E0F7F1F709389006093F7
:100EF00088000895E091E102F091E2022091E5027C
:100F00003091E6022E1B3F0B44E6429FC001439FF7
:100F1000900D11240E94900A6E0F7F1F70938B001A
:100F200060938A00089580E00895CF93DF93FB01DA
:100F3000E9011A821B821C821D82198218829F83FA
:100F40008E83798768875B874A87BC016F5F7F4F95
:100F50008FEF9FE70E94A40A7D876C879F012F5F18
:100F60003F4F442737FD4095542F6FEF7FEF8FEFB2
:100F70009FE30E94DA0A2E873F87488B598BDF91C7
:100F8000CF910895CF92DF92EF92FF920F931F932C
:100F9000CF93DF938B01FA019C01261B370B8485CD
:100FA00095858217930784F091958195910928176B
:100FB00039076CF086819781289FE001299FD00D29
:100FC000389FD00D112405C0CFEFDFE702C0C1E08C
:100FD000D0E8442737FD4095542F82819381A48126
:100FE000B581280F391F4A1F5B1F86859785A08909
:100FF000B18982179307A407B5075CF482839383B2
:10100000A483B583CC24CA94DC2CEC2C9FE3F92E6A
:1010100021C0B095A095909581959F4FAF4FBF4F40
:10102000281739074A075B075CF482839383A483FC
:10103000B583CC24C394D12CE12C80ECF82E0AC0CB
:101040002283338344835583A085B1850E94040B9A
:101050006B017C0180819181801B910BA285B385FE
:101060008A9F90018B9F300D9A9F300D1124118320
:101070000083BE01882777FD8095982F6C0D7D1D1C
:101080008E1D9F1D8901222717FD2095322F600F8D
:10109000711F821F931F20E830E040E050E00E9463
:1010A000DA0A213080E838078FEF4807580724F420
:1010B00021E030E84FEF5FEFDA01C901811520E848
:1010C0009207A105B10524F08FEF9FE7A0E0B0E003
:1010D000DF91CF911F910F91FF90EF90DF90CF9014
:1010E0000895FC01128213821482158208951F92C2
:1010F0000F920FB60F9211242F933F934F935F934C
:101100008F939F93EF93FF934091C0005091C6003F
:1011100048718091670190E001968F77992720911F
:10112000660130E08217930739F080936701FC0174
:10113000E659FE4F508301C042E040936501FF91A4
:10114000EF919F918F915F914F913F912F910F90D0
:101150000FBE0F901F9018951F920F920FB60F920F
:1011600011248F939F93EF93FF9390916901809146
:101170006801981779F08091680190E001968F7767
:10118000992780936801FC01E651FE4F808180938E
:10119000C60005C08091C1008F7D8093C100FF9182
:1011A000EF919F918F910F900FBE0F901F90189508
:1011B0001092690110926801109267011092660105
:1011C00097FF04C022E02093C0009F779093C50052
:1011D0008093C40088E98093C10086E08093C200B8
:1011E000089590916701809166019817A1F0809110
:1011F000660190E001968F77992780936601FC0144
:10120000E659FE4F20818091650190E0982F882754
:10121000820F911D089580E091E0089590916701FB
:1012200080916601981789F0E0916601F0E03196AF
:10123000EF77FF27E659FE4F20818091650190E00E
:10124000982F8827820F911D089580E091E00895DE
:101250002091690130E02F5F3F4F2F773327409176
:10126000680150E024173507D1F3F901E651FE4F2C
:101270008083209369018091C10080628093C100C6
:101280000895CF93DF93EC018991882319F00E9490
:101290002809FACFDF91CF910895CF93DF93FC0116
:1012A0008491EF012196882321F00E942809FE01F4
:1012B000F7CFDF91CF91089580916701209166016A
:1012C00090E080589F4F821B91098F77992708954E
:1012D00080916601809367010895CF93DF93CDB726
:1012E000DEB728970FB6F894DEBF0FBECDBF0E94C1
:1012F0001A0786E091E00E94D20C22E932E040E039
:1013000050E060E070E080E890E00E94950720E700
:1013100032E040E050E060E070E080E890E00E9461
:10132000950714E6212E312C00E2C02E0BE1D02EC1
:101330000CE7E02E0CE0F02E8E010F5F1F4F809126
:101340008C0290918D0262E370E00E94900A892BDA
:1013500011F40E947D008091630181110E94C400FC
:1013600080910001813051F480918C0290918D0226
:101370008131974218F032E03093000180918C0265
:1013800090918D02B1010E94900A892BC1F6609163
:10139000EF027091F00286E490E00E94A00C809130
:1013A0000001813009F046C080908E0290908F023B
:1013B000A0909002B0909102C701B601A5019401DE
:1013C0000E94B80ABA01A9014093B1025093B20237
:1013D0006093B3027093B4021092B5021092B602F9
:1013E0001092B7021092B8024090AD025090AE0237
:1013F0006090AF027090B002C701B601A3019201E4
:101400000E94B80ABA01A901409384025093850250
:10141000609386027093870210928802109289026C
:1014200010928A0210928B02A3019201C501B401AD
:101430000E947B0380910001811125C0B090D902E8
:10144000AB2DB0E020EA36E841E050E00E94F90A16
:101450002091DA02A101421B51099A01442737FD6C
:101460004095542F0E94B80A3093DC022093DB028F
:1014700028EE33E0B29EC001B39E900D11249093EC
:10148000DE028093DD0280910001823009F057CFA7
:10149000809191028F93809190028F9380918F021F
:1014A0008F9380918E028F9384E191E09F938F932D
:1014B0001F930F930E94FF0C60E080E00E942E02B9
:1014C00068E0C8010E940F026091A9027091AA020F
:1014D0008091AB029091AC0228EE33E040E050E006
:1014E0000E94B80A9F938F937F936F935F934F935C
:1014F0003F932F938BE191E09F938F931F930F93D3
:101500000E94FF0C61E080E00E942E0268E0C801AA
:101510000E940F020FB6F894DEBF0FBECDBF0FCFF3
:10152000AA1BBB1B51E107C0AA1FBB1FA617B70709
:1015300010F0A61BB70B881F991F5A95A9F7809525
:101540009095BC01CD01089597FB072E16F40094E9
:1015500007D077FD09D00E94900A07FC05D03EF421
:10156000909581959F4F0895709561957F4F08954F
:10157000A1E21A2EAA1BBB1BFD010DC0AA1FBB1F97
:10158000EE1FFF1FA217B307E407F50720F0A21B09
:10159000B30BE40BF50B661F771F881F991F1A9476
:1015A00069F760957095809590959B01AC01BD01A0
:1015B000CF010895052E97FB1EF400940E94F10AB6
:1015C00057FD07D00E94B80A07FC03D04EF40C94D4
:1015D000F10A50954095309521953F4F4F4F5F4F01
:1015E000089590958095709561957F4F8F4F9F4F8F
:1015F00008950E94910CA59F900DB49F900DA49FFB
:10160000800D911D11240895B7FF0C94F90A0E94D2
:10161000F90A821B930B0895DF93CF931F930F93C7
:101620009A9DF02D219FF00D8B9DF00D8A9DE02D50
:10163000F10D039FF00D029FE00DF11D4E9DE00D99
:10164000F11D5E9DF00D4F9DF00D7F936F93BF9246
:10165000AF925F934F93D5010E94910C8B01AC0127
:10166000D7010E94910CEB01E80FF91FD6010E94EF
:101670005C0B2F913F91D6010E94910CC60FD71F92
:10168000E81FF91FAF91BF910E945C0B2F913F9112
:101690000E94910CC60FD71FE81FF91FD6010E94A8
:1016A000910CE60FF71F9801BE01CF0111240F9195
:1016B0001F91CF91DF9108950E94910C460F571F03
:1016C000C81FD91F08F431960895689401C0E894A2
:1016D000F92FF12B12F00C94990BA0E0B0E0E3E7A6
:1016E000FBE00C940B0C092E059422F40E94F50BE0
:1016F000112392F4F0E80F26FFEFE094F0940095A8
:101700001095B094C094D094A194BF0ACF0ADF0A78
:10171000EF0AFF0A0F0B1F0B0E94A40B07FC0E948D
:10172000F50BCDB7DEB7ECE00C94270C689401C044
:10173000E8948F929F92CF93DF930E94A40BDF9146
:10174000CF919F908F90089588249924F401E4010B
:10175000B0E49F93AA279A158B049C04ED05FE051F
:10176000CF05D007A10798F4AD2FDC2FCF2FFE2F88
:10177000E92D982C892E982F872F762F652F542F9F
:10178000432F322F2227B85031F7BF9127C01B2E8D
:10179000BF91BB27220F331F441F551F661F771FA2
:1017A000881F991F881C991CEE1FFF1FCC1FDD1F6F
:1017B000AA1FBB1F8A149B04EC05FD05CE05DF059F
:1017C000A007B10748F08A189B08EC09FD09CE096B
:1017D000DF09A00BB10B21601A94E1F62EF49401FD
:1017E000AF01BE01CD01000C089560957095809504
:1017F000909530954095509521953F4F4F4F5F4FB5
:101800006F4F7F4F8F4F9F4F08952F923F924F9270
:101810005F926F927F928F929F92AF92BF92CF9280
:10182000DF92EF92FF920F931F93CF93DF93CDB789
:10183000DEB7CA1BDB0B0FB6F894DEBF0FBECDBF01
:1018400009942A88398848885F846E847D848C84D2
:101850009B84AA84B984C884DF80EE80FD800C81DB
:101860001B81AA81B981CE0FD11D0FB6F894DEBFBE
:101870000FBECDBFED0108950F93083090F0982F63
:10188000872F762F652F542F432F322F2227085072
:10189000F4CF220F331F441F551F661F771F881F69
:1018A000991F0A95B2F70F91089597FB10F81694B7
:1018B00000080F93083098F00850232F342F452F3D
:1018C000562F672F782F892F902DF4CF0594979559
:1018D00087957795679557954795379527950A95F5
:1018E000AAF70F9108952A0D3B1D4C1D5D1D6E1D1D
:1018F0007F1D801F911F08952A193B094C095D091E
:101900006E097F09800B910B08950024A7FD0094B8
:101910002A173005400550056005700580059005C3
:101920000895A29FB001B39FC001A39F700D811DB8
:101930001124911DB29F700D811D1124911D0895D8
:101940000F931F93CF93DF93182F092FEB018B81F8
:1019500081FD03C08FEF9FEF20C082FF10C04E813A
:101960005F812C813D81421753077CF4E881F98126
:101970009F012F5F3F4F39832883108306C0E8857E
:10198000F985812F0995892B29F72E813F812F5FBA
:101990003F4F3F832E83812F902FDF91CF911F9157
:1019A0000F9108950F931F93CF93DF93E091EF0270
:1019B000F091F002238121FF1BC0EC0100E010E058
:1019C00089916091EF027091F002DB011896ED9120
:1019D000FC911997882331F00995892B89F30FEF32
:1019E0001FEFEECF8AE00995892B11F4C80102C0E0
:1019F0008FEF9FEFDF91CF911F910F910895AEE090
:101A0000B0E0E5E0FDE00C94130C0D891E8986E042
:101A10008C831A8309838FEF9FE79E838D83AE01AA
:101A2000475E5F4F6F89788DCE0101960E94210D30
:101A3000EF81F885E00FF11F10822E96E4E00C9400
:101A40002F0CACE0B0E0E7E2FDE00C94050C7C016B
:101A50006B018A01FC0117821682838181FFBDC15F
:101A6000CE0101964C01F7019381F60193FD85911A
:101A700093FF81916F01882309F4ABC1853239F45A
:101A800093FD859193FF81916F01853229F4B70110
:101A900090E00E94A00CE7CF512C312C20E02032A6
:101AA000A0F48B3269F030F4803259F0833269F45B
:101AB00020612CC08D3239F0803339F4216026C08A
:101AC0002260246023C0286021C027FD27C030ED9C
:101AD000380F3A3078F426FF06C0FAE05F9E300DEA
:101AE0001124532E13C08AE0389E300D1124332E5A
:101AF00020620CC08E3221F426FD6BC1206406C02A
:101B00008C3611F4206802C0883641F4F60193FD4A
:101B1000859193FF81916F018111C1CF982F9F7D96
:101B20009554933028F40C5F1F4FFFE3F9830DC0E9
:101B3000833631F0833771F0833509F05BC022C002
:101B4000F801808189830E5F1F4F44244394512CF8
:101B5000540115C03801F2E06F0E711CF801A0802D
:101B6000B18026FF03C0652D70E002C06FEF7FEFEC
:101B7000C5012C870E94260F2C0183012C852F770D
:101B8000222E17C03801F2E06F0E711CF801A08000
:101B9000B18026FF03C0652D70E002C06FEF7FEFBC
:101BA000C5012C870E941B0F2C012C852068222E3A
:101BB000830123FC1BC0832D90E048165906B0F426
:101BC000B70180E290E00E94A00C3A94F4CFF501B6
:101BD00027FC859127FE81915F01B70190E00E946B
:101BE000A00C31103A94F1E04F1A510841145104FD
:101BF00071F7E5C0843611F0893639F5F80127FF11
:101C000007C060817181828193810C5F1F4F08C082
:101C100060817181882777FD8095982F0E5F1F4F17
:101C20002F76B22E97FF09C090958095709561959B
:101C30007F4F8F4F9F4F2068B22E2AE030E0A401E3
:101C40000E94310FA82EA81844C0853729F42F7E92
:101C5000B22E2AE030E025C0F22FF97FBF2E8F365A
:101C6000C1F018F4883579F0B4C0803719F088379E
:101C700021F0AFC02F2F2061B22EB4FE0DC08B2DEE
:101C80008460B82E09C024FF0AC09F2F9660B92E29
:101C900006C028E030E005C020E130E002C020E1CD
:101CA00032E0F801B7FE07C06081718182819381C3
:101CB0000C5F1F4F06C06081718180E090E00E5F75
:101CC0001F4FA4010E94310FA82EA818FB2DFF77EB
:101CD000BF2EB6FE0BC02B2D2E7FA51450F4B4FEE4
:101CE0000AC0B2FC08C02B2D2E7E05C07A2C2B2DED
:101CF00003C07A2C01C0752C24FF0DC0FE01EA0D33
:101D0000F11D8081803311F4297E09C022FF06C0B5
:101D10007394739404C0822F867809F0739423FD22
:101D200013C020FF06C05A2C731418F4530C571814
:101D3000732C731468F4B70180E290E02C870E9442
:101D4000A00C73942C85F5CF731410F4371801C0D0
:101D5000312C24FF12C0B70180E390E02C870E9451
:101D6000A00C2C8522FF17C021FF03C088E590E05E
:101D700002C088E790E0B7010CC0822F867859F046
:101D800021FD02C080E201C08BE227FD8DE2B70198
:101D900090E00E94A00CA51438F4B70180E390E015
:101DA0000E94A00C5A94F7CFAA94F401EA0DF11DF9
:101DB0008081B70190E00E94A00CA110F5CF3320E4
:101DC00009F451CEB70180E290E00E94A00C3A9451
:101DD000F6CFF7018681978102C08FEF9FEF2C9697
:101DE000E2E10C94210CDC01CB01FC01F999FECF5E
:101DF00006C0F2BDE1BDF89A319600B40D92415093
:101E00005040B8F70895DC01CB0103C02D910E942A
:101E10000E0F41505040D0F70895262FF999FECF6C
:101E20001FBA92BD81BD20BD0FB6F894FA9AF99AF7
:101E30000FBE01960895FC0105906150704001109D
:101E4000D8F7809590958E0F9F1F0895FC016150E3
:101E5000704001900110D8F7809590958E0F9F1FCC
:101E60000895FA01AA27283051F1203181F1E89430
:101E70006F936E7F6E5F7F4F8F4F9F4FAF4FB1E07D
:101E80003ED0B4E03CD0670F781F891F9A1FA11D78
:101E9000680F791F8A1F911DA11D6A0F711D811D79
:101EA000911DA11D20D009F468943F912AE0269F3E
:101EB00011243019305D3193DEF6CF010895462F9D
:101EC0004770405D4193B3E00FD0C9F7F6CF462F7E
:101ED0004F70405D4A3318F0495D31FD40524193E7
:101EE00002D0A9F7EACFB4E0A695979587957795A4
:101EF0006795BA95C9F700976105710508959B012B
:101F0000AC010A2E06945795479537952795BA95B3
:101F1000C9F7620F731F841F951FA01D0895F894C1
:021F2000FFCFF1
:101F22000101FFFFFFFF48656C6C6F20776F726CD9
:101F3200640D0A0025366C69755600202025326C26
:101F4200692E2530336C6900204F787967656E20E1
:101F52002048656C69756D2000496E6974696E6709
:101F62002E2E2E00414443204572726F722100438F
:101F7200312E2E2E004F4B202043322E2E2E004F7C
:021F82004B0012
:00000001FF
