:100000000C943A010C9457010C9457010C9457012D
:100010000C9457010C9457010C9457010C94570100
:100020000C9457010C9457010C9457010C945701F0
:100030000C9457010C9457010C9457010C945701E0
:100040000C9457010C9457010C948B070C94570196
:100050000C94C70D0C94FC0D0C9457010C94570193
:100060000C9457010C9457010C9457010C945701B0
:100070000C9457010C9457010C9457019B109D1040
:100080009F10A110A310A510A710AC10AC10AC10BD
:10009000A910AC10AC10AC10A910AE10B010B2107A
:1000A000B410B610731E781E7D1E821E871E8C1E15
:1000B000911E961ED61EDE1EE61EEE1EF61EFE1EAD
:1000C000061F0F1F001F000000001F00001F101060
:1000D00010101F00001F181818181F00001F1C1CEC
:1000E0001C1C1F00001F1E1E1E1E1F00001F1F1FA6
:1000F0001F1F1F0003070F1F0F070300181C1E1FE1
:100100001E1C18003C214532332054696D65723144
:100110002076616C75650A0D003C21453232205312
:100120006572766F32206D61780A0D003C21453290
:100130003120536572766F31206D61780A0D003C75
:100140002145323020536572766F32206D696E0A18
:100150000D003C2145313920536572766F31206D99
:10016000696E0A0D003C2145323520504944322049
:100170004D41580A0D003C21453138205049443248
:1001800020440A0D003C214531372050494432209B
:10019000490A0D003C214531362050494432205057
:1001A0000A0D003C214532342050494431204D4154
:1001B000580A0D003C214531352050494431204436
:1001C0000A0D003C21453134205049443120490A70
:1001D0000D003C21453133205049443120500A0D57
:1001E000003C2145313220536572766F320A0D0092
:1001F0003C2145313120536572766F310A0D003C48
:10020000214531302056616C7665320A0D003C2163
:1002100045392056616C7665310A0D003C21453820
:100220002048656C69756D0A0D003C214537204FEB
:10023000787967656E0A0D003C21453620456D656D
:100240007267656E6379204F320A0D003C21453597
:1002500020436F6E74726173740A0D003C4F4B0A39
:100260000D003C214534204272696768746E6573E5
:10027000730A0D0011241FBECFEFD0E1DEBFCDBF4A
:1002800015E0A0E0B1E0E0E8F5E502C005900D92D0
:10029000A23DB107D9F727E0A2EDB5E001C01D925C
:1002A000AC39B207E1F70E9487250C94BE2A0C9462
:1002B000000082B9299A289A8FEF91E10197F1F70E
:1002C00000C00000289829988FEF91E10197F1F77D
:1002D00000C00000089582B9289A8FEF91E101973C
:1002E000F1F700C0000028988FEF91E10197F1F736
:1002F00000C00000089581E00C946B0182E00C9432
:100300006B01EF92FF921F93CF93DF931F92CDB7B4
:10031000DEB7009771F0182F7C018E2D811B861798
:1003200040F4F70181917F0169830E94590169813D
:10033000F4CF0F90DF91CF911F91FF90EF90089530
:10034000623031F0633031F0613029F4805C03C0F9
:100350008C5E01C08C5A80680C946B011F93CF9304
:10036000DF93EC01862F642F0E94A00110E0FE01B4
:10037000E10FF11D8491882329F084910E94590195
:100380001F5FF5CFDF91CF911F910895EF92FF92FC
:100390000F931F93CF93DF938C0188E0689FB00188
:1003A0001124862F8064E82EC0E0D0E0F801EC0F25
:1003B000FD1FF4908C2F8E0D0E946B018F2D0E94DB
:1003C00059012196C830D10589F7DF91CF911F914E
:1003D0000F91FF90EF9008951F93CF93DF932FEF2E
:1003E00087ED90E0215080409040E1F700C0000090
:1003F00012B815B881B18FEF81B984B1836084B927
:1004000080E382B9289A8FEF91E10197F1F700C05C
:10041000000028988FEF91E10197F1F700C00000EC
:1004200080E382B9289A8FEF91E10197F1F700C03C
:10043000000028988FEF91E10197F1F700C00000CC
:1004400080E382B9289A8FEF91E10197F1F700C01C
:10045000000028988FEF91E10197F1F700C00000AC
:1004600088E382B9289A8FEF91E10197F1F700C0F4
:10047000000028988FEF91E10197F1F700C000008C
:100480008CE082B9289A8FEF91E10197F1F700C0D3
:10049000000028988FEF99E50197F1F700C0000060
:1004A000C4ECD0E060E011E0160FCE010E94C6015E
:1004B0002896183011F0612FF6CFDF91CF911F9160
:1004C0000895CF93DF93D82FC0E0CD1729F08EE1A8
:1004D0000E946B01CF5FF9CFDF91CF910895CF9349
:1004E000DF93D82FC0E0CD1729F088E10E946B017F
:1004F000CF5FF9CFDF91CF9108958EE00C946B011F
:100500008FE00C946B018CE00C946B0188E00C94F0
:100510006B018CE00C946B01CF93DF93D82FC0E07C
:10052000CD1729F080E10E946B01CF5FF9CFDF91F9
:10053000CF910895CF93DF93D82FC0E0CD1729F046
:1005400084E10E946B01CF5FF9CFDF91CF910895D5
:10055000CF92DF92EF92FF920F931F93CF93DF938F
:100560001F92CDB7DEB756E0459F90011124E82FCA
:10057000E29FC001E39F900D112470E00E94BE2510
:100580008B01CB0166E070E00E94AA25E82EC12C09
:10059000D12CF12CF416B9F096012B5F3F4F0217C6
:1005A000130728F40C151D0520F08E2D03C085E0DF
:1005B00001C080E049830E945901F394F6E0CF0E18
:1005C000D11C4981E7CF0F90DF91CF911F910F91FF
:1005D000FF90EF90DF90CF9008950F931F9394B109
:1005E0009F7094B994B1906B94B994E0099F800185
:1005F0001124016598E0299F90011124022B20E22B
:10060000829FC0011124082B0CBD81E01F910F9126
:100610000895CF93DF9300D000D0CDB7DEB7FC01B3
:10062000819119821A821B821C829E012F5F3F4F8B
:10063000D901422F9A2F921B961718F491919D93EE
:10064000F9CF813009F42C98F9019E2F941B96174D
:1006500030F491919EBD0DB407FEFDCFF6CF8130F1
:1006600009F42C9A862F0F900F900F900F90DF9126
:10067000CF910895CF93DF93CDB7DEB728970FB60C
:10068000F894DEBF0FBECDBFFC0171911D821E82AA
:100690001F82188619821A821B821C82AE014B5F50
:1006A0005F4FDA012A2F241B261718F421912D936E
:1006B000F9CF713009F42C989E012F5F3F4FDA017A
:1006C000F901422F5E2F521B561740F45D915EBD1B
:1006D0000DB407FEFDCF5EB55193F4CF713009F430
:1006E0002C9AFC01D9018A2F841B861718F48D914E
:1006F0008193F9CF862F28960FB6F894DEBF0FBEF0
:10070000CDBFDF91CF9108958091D205882371F0FC
:100710008091D2058F5F8093D2058091D20582337C
:1007200028F081E08093D3051092D20508950F93AD
:10073000CF93DF9300D000D01F92CDB7DEB785E016
:10074000E2E0F1E0DE01119601900D928A95E1F769
:1007500001E021E040E452E46FE070E080E00E94BC
:10076000ED0264E0CE0101960E9409030F900F9004
:100770000F900F900F90DF91CF910F910895FF92FE
:100780000F931F93CF93DF9300D000D01F92CDB76C
:10079000DEB7F62E8E010F5F1F4F95E0F801119224
:1007A0009A95E9F749838770F8E08F9FC00111247B
:1007B00080648A8361E06F0DC8010E943A03E1E022
:1007C00060E070E0CB014F2D50E02E2F30E042175B
:1007D000530774F0982F872F762F6627D801A20F22
:1007E000B31F2C91620F711D811D911DEF5FEDCF25
:1007F0000F900F900F900F900F90DF91CF911F915E
:100800000F91FF90089541E061E084E00E94BF03F2
:100810001092D2051092D3056F7081E06B3009F011
:1008200080E008950F93CF93DF93CDB7DEB729977C
:100830000FB6F894DEBF0FBECDBF4E835F836887CF
:100840007987FE01319695E0DF011D929A95E9F7CF
:100850002F5F09838770880F880F880F8A83322F54
:10086000BE016A5F7F4F323050F0CF01830F911D80
:10087000DB014D91BD01DC014C933150F4CF622F6F
:10088000CF010E94090329960FB6F894DEBF0FBE70
:10089000CDBFDF91CF910F9108951E99FECF08959E
:1008A000CF92DF92EF92FF920F936B017C0141E0B8
:1008B00062E081E00E94BF03AB01BC015F7166276B
:1008C0007727D701C6010DE0880F991FAA1FBB1F0C
:1008D0000A95D1F7AA27BB27482B592B6A2B7B2BCC
:1008E00001E022E081E00E9412040F91FF90EF905E
:1008F000DF90CF900895CF92DF92EF92FF920F9307
:100900006B017C0141E062E082E00E94BF03AB0129
:10091000BC01487F87E0C822DD24EE24FF244C2957
:100920005D296E297F2901E022E082E00E94120405
:100930000F91FF90EF90DF90CF900895CF92DF92CC
:10094000EF92FF920F936B017C0141E062E082E045
:100950000E94BF03AB01BC01587F87E0C822DD24A1
:10096000EE24FF24FE2CED2CDC2CCC244C295D291C
:100970006E297F2901E022E082E00E9412040F919B
:10098000FF90EF90DF90CF9008950F93CF93C82FF3
:1009900041E062E082E00E94BF03AB01BC014F77FF
:1009A00020E8C29FC00111249927AA2797FDA0958E
:1009B000BA2F482B592B6A2B7B2B01E022E082E0D7
:1009C0000E941204CF910F9108950F93CF93C82FD7
:1009D00070E080E090E00E947B0441E062E081E012
:1009E0000E94BF034C2F50E0542F44275295550FBF
:1009F000507E60E070E001E022E081E00E9412049D
:100A0000CF910F910C944D040F932C9800E022E0AD
:100A100040E050E260E070E081E00E9412040E9439
:100A20004D0440E063E083E00E94BF032C9A0F91E5
:100A30000895CF92DF92EF92FF920F93CF93DF93BF
:100A4000C82F01E022E040E050E0BA0181E00E94BE
:100A50001204D0E0C12CD12C7601DC1759F041E012
:100A600063E083E00E94BF03C60ED71EE81EF91E96
:100A7000DF5FF3CF2D2F30E040E050E0C701B6013B
:100A80000E94D225CA01B901DF91CF910F91FF9049
:100A9000EF90DF90CF9008950F931F93613029F06E
:100AA00000E810E020E030E004C000E810E420E0BE
:100AB00030E0482F477050E060E070E040615C60DB
:100AC000402B512B622B732B01E022E082E00E942D
:100AD00012041F910F9108950F93CF93C82F61E0D7
:100AE0000E944C05369B13C00E944D046C2F84E07D
:100AF0000E94E5046C2F85E00E94E50401E022E0FD
:100B000043E050E060E070E081E00E941204CF9189
:100B10000F91089560E00E944C0581E08093D2051A
:100B20001092D30508953F924F925F926F927F92F9
:100B30008F929F92AF92BF92CF92DF92EF92FF92ED
:100B40000F931F93CF93DF938091D305882309F4EC
:100B5000D0C181E00E941905DC01CB019C01AD01EF
:100B600060E070E080E090E040585109610971094F
:100B70008109910959016A017B01E82F192F02E0CF
:100B80000E9472270E2F0E94A92759016A017B013A
:100B9000E82F192F04E00E9472270E2F0E94B2271F
:100BA00059016A017B01E82F192F04E00E94722786
:100BB0000E2F0E94B2274901D42FC52FB62FA72F81
:100BC000F82FE92F06E00E94722759016A017B0184
:100BD0008C0194014D2F5C2F6B2F7A2F8F2F9E2F1E
:100BE0000E94A927922EA32EB42ED52FC62FB72F41
:100BF000F82FE92FA0E00E94BB2784F4215031098F
:100C000040485F4F6F4F7F4F8F4F9F4F922EA32EC5
:100C1000B42ED52FC62FB72FF82FE92F292D3A2D17
:100C20004B2D5D2F6C2F7B2F8F2F9E2F07E10E9466
:100C30008B27C22FB32FF42FE52F362E472E982E59
:100C4000D92FA0E00E94BB2754F40E942B27C22F6B
:100C5000B32FF42FE52F362E472E982ED92F8091C3
:100C6000D405811192C05C2E6B2E7F2E8E2EC093E8
:100C7000A406B093A506F093A606E093A706A0905D
:100C8000B406B090B506C090B606D090B706E09016
:100C9000B806F090B9060091BA061091BB062C2F49
:100CA0003B2F4F2F5E2F632D742D892D9D2F0E947A
:100CB0004226B0E1AB2EC7E2BC2EC12CD12CE12CD8
:100CC000F12C00E010E00E949D262093AC063093AA
:100CD000AD064093AE065093AF06E091D80684E08F
:100CE000E89FF0011124E351F94F50826182728232
:100CF000838281E08093D4050E94661F8B30D1F5FA
:100D0000609188067091890680918A0690918B0681
:100D1000A2E34A2E512C612C712CA30192010E9456
:100D2000D22549015A016091AC067091AD068091BF
:100D3000AE069091AF06A30192010E94D225CA018E
:100D4000B90139014DE357E0C4010E94FD0C209127
:100D50008406309185062817390724F4681479042D
:100D600008F0C9019093850680938406BC0180E059
:100D70000E94950A8091D8068F5F8093D8068A30AA
:100D800008F4A2C01092D8069FC08B2E6F2E5E2E44
:100D9000C093A806B093A906F093AA06E093AB0609
:100DA000A090BC06B090BD06C090BE06D090BF0615
:100DB000E090C006F090C1060091C2061091C306F3
:100DC0002C2F3B2F4F2F5E2F632D742D892D9D2FA0
:100DD0000E944226E0E1AE2EF7E2BF2EC12CD12CBC
:100DE000E12CF12C00E010E00E949D262093B0063B
:100DF0003093B1064093B2065093B306E091D90602
:100E000084E0E89FF0011124EB5EF84FC0838182FB
:100E1000628253821092D4050E94661F8B3009F0C3
:100E20004AC060918C0670918D0680918E069091DB
:100E30008F068090880690908906A0908A06B090D0
:100E40008B0686169706A806B906A9F122E3822E1C
:100E5000912CA12CB12CA50194010E94D22529012D
:100E60003A016091B0067091B1068091B2069091FE
:100E7000B306A50194010E94D225CA01B901590106
:100E800044EC56E0C2010E94FD0C66277727681BE0
:100E9000790B80918606909187068617970724F430
:100EA0004A145B0408F0BC017093870660938606C1
:100EB00081E00E94950A8091D9068F5F8093D906C0
:100EC0008A3010F01092D9068091D405DF91CF912D
:100ED0001F910F91FF90EF90DF90CF90BF90AF9058
:100EE0009F908F907F906F905F904F903F900C9469
:100EF0008A05DF91CF911F910F91FF90EF90DF90C6
:100F0000CF90BF90AF909F908F907F906F905F90A9
:100F10004F903F9008951F920F920FB60F92112499
:100F20002F933F934F935F936F937F938F939F93F1
:100F3000AF93BF93EF93FF93809155078930D0F023
:100F40008091EA069091EB0601969093EB068093D0
:100F5000EA06109255070E9484038091EA06909158
:100F6000EB0662E370E00E94AA25892BB9F50E9486
:100F7000E10E34C080915507813081F58091EA06F9
:100F80009091EB0664E670E00E94AA25892B31F56A
:100F90008091EA069091EB0664EF71E00E94AA2529
:100FA000892BC9F48091EA069091EB0668EE73E014
:100FB0000E94AA25892B49F48091560790915707E2
:100FC000019690935707809356079091D70581E03B
:100FD000891B8093D70581E08093EC0680915507AB
:100FE0008F5F80935507FF91EF91BF91AF919F91D4
:100FF0008F917F916F915F914F913F912F910F90C2
:101000000FBE0F901F9018957F928F929F92AF9274
:10101000BF92CF92DF92EF92FF920F931F93CF93E5
:10102000DF937C01A62EFA01690111821082BB2494
:10103000B394DC018C918D3209F0B12CC0E0D0E08A
:1010400099249A949A0C8C2E8B0C8A1430F5D70123
:10105000A80DB11D2C9180ED820F8A3010F08FEF1A
:1010600030C0332727FD309520533109442737FD01
:101070004095542F792C781441F0AAE0B0E00E94FA
:101080002F269B01AC017A94F6CF80819181820F4B
:10109000931F918380832196D6CFBB2039F0808126
:1010A00091819195819591099183808320813181EE
:1010B00002171307A4F281E02C153D050CF080E027
:1010C0008195DF91CF911F910F91FF90EF90DF906D
:1010D000CF90BF90AF909F908F907F900895809118
:1010E000D70508958091D705882351F08091D605C2
:1010F0008111419A8091D505882321F0439A089562
:101100004198439808958091D60508958091D5051A
:1011100008951092D60508951092D50508958093EC
:10112000D6056093D50508958091EC060895109238
:10113000EC060895809156079091570708954EE068
:1011400050E06CE170E082E996E00E94F0294CE00A
:1011500050E060E170E08EE797E00E94F02940E106
:1011600050E060E070E08AE597E00E94F02980910D
:101170007E0790917F07A0E0B0E08093880690936F
:101180008906A0938A06B0938B0680938C06909371
:101190008D06A0938E06B0938F0608954EE050E022
:1011A0006CE170E08AE897E00E94F02920919206B5
:1011B0003091930680918A0790918B072817390701
:1011C00009F043C0209194063091950680918C07D8
:1011D00090918D0728173907C1F520919606309117
:1011E000970680918E0790918F072817390769F528
:1011F00020919806309199068091900790919107DF
:101200002817390711F520919A0630919B06809195
:1012100092079091930728173907B9F490919C068B
:1012200080919407981311C090919D068091950725
:1012300098130BC020919E0630919F0680919607CF
:10124000909197072817390741F04EE050E06CE184
:1012500070E082E996E00C94002A08954CE050E09A
:1012600060E170E08AED96E00E94F0292091DA06B4
:101270003091DB0680917E0790917F072817390710
:10128000A9F44091DC065091DD066091DE06709174
:10129000DF068091800790918107A0918207B0912D
:1012A0008307481759076A077B0741F04CE050E075
:1012B00060E170E08EE797E00C94002A089540E129
:1012C00050E060E070E08EE697E00E94F029209107
:1012D0006E0730916F0780915A0790915B0728172E
:1012E000390709F04EC02091700730917107809145
:1012F0005C0790915D072817390709F042C02091DB
:1013000072073091730780915E0790915F072817ED
:101310003907B9F5209174073091750780916007FE
:10132000909161072817390761F520917607309170
:10133000770780916207909163072817390709F5AD
:101340002091780730917907809164079091650723
:1013500028173907B1F420917A0730917B078091E3
:101360006607909167072817390759F420917C0781
:1013700030917D0780916807909169072817390798
:1013800041F040E150E060E070E08AE597E00C94C5
:10139000002A089584B18C6084B987B18F6087B9C1
:1013A0008AB1806C8AB9529853985A9A5B9A3C9841
:1013B0003D983E983F98449A459A469A479AE0EB62
:1013C000F0E08081836A8083E1EBF0E080818660D9
:1013D000808380919C068093B30080919D068093CA
:1013E000B40085B5826085BD16BCEEE6F0E0808174
:1013F00081608083E0E8F0E08081826A8083E1E8B8
:10140000F0E080818B61808380919A0690919B06A9
:1014100090938700809386008AB180638AB9809117
:101420009206909193069093890080938800809112
:1014300094069091950690938B0080938A0008956E
:101440008093B30008958093B40008950E949F088C
:101450000E94CA090E94EC010E947B010E947B014C
:1014600060E083E00E94A0016AE087E091E00E94D2
:1014700081010E9497030E94030481110CC00E9405
:101480007B0160E082E00E94A0016AE082E191E0DD
:101490000E94810121C061E080E00E94A00165E01E
:1014A0008DE191E00E94810180E00E946C0569E07D
:1014B00083E291E00E94810181E00E946C0562E07C
:1014C0008DE291E00E9481011092D4058091D405B3
:1014D0000E948A050E947B0189E090E00E94280E0C
:1014E00080917E0790917F0781349C4930F080E4A1
:1014F0009CE990937F0780937E07349BFECF359BBA
:10150000FCCF369BFACF379BF8CF8FEF9FE628E0D2
:10151000815090402040E1F700C0000078948AE0BC
:101520000E94691F8FE00C94BC0ECF93DF93DB0108
:101530006F3F710509F02CF477FF05C0A0E0B0E023
:1015400002C0AFEFB0E081111DC0A0939006C09122
:101550009206D091930620919606309197062C1B07
:101560003D0B0E9428262FEF30E040E050E00E9423
:10157000D2252C0F3D1F411D511D30938B00209310
:101580008A001CC0A0939106C0919406D091950644
:1015900020919806309199062C1B3D0B0E9428261D
:1015A0002FEF30E040E050E00E94D2252C0F3D1F8D
:1015B000411D511D3093890020938800DF91CF9108
:1015C000089560E070E080E00E94950A60E070E0BD
:1015D00081E00E94950A2FEF8FE19CE1215080402D
:1015E0009040E1F700C000006FEF70E080E00E94E3
:1015F000950A6FEF70E081E00E94950A2FEF8FE36C
:1016000098E3215080409040E1F700C0000060E086
:1016100070E080E00E94950A2FEF8FE398E321505D
:1016200080409040E1F700C0000060E070E081E0A1
:101630000E94950A2FEF8FE398E32150804090405D
:10164000E1F700C000002A9A429A2FEF8FE19CE157
:10165000215080409040E1F700C000002B9A409A52
:101660002FEF8FE19CE1215080409040E1F700C0D6
:101670000000419A439A2FEF8FE19CE12150804076
:101680009040E1F700C000002A982B9842984098BB
:101690004198439808950F931F93809184079091E8
:1016A000850720917E0730917F07A90148515C4F43
:1016B0004817590748F4E1E048515C4F481759076B
:1016C00008F0E0E0F1E002C0E0E0F0E0A901485EEF
:1016D00053408417950738F4205D374082179307ED
:1016E00008F4E1E0F1E040918806509189066091AC
:1016F0008A0670918B0680918C0690918D06A09140
:101700008E06B0918F06481759076A077B07F1F1DB
:101710008091860790918707A0918807B0918907EB
:1017200040918007509181076091820770918307F3
:101730008A019B0108511C4F2F4F3F4F0817190773
:101740002A073B0768F48A019B010053184F2F4F6B
:101750003F4F081719072A073B0708F4E1E0F1E0BB
:101760008A019B01085E1340210931098017910706
:10177000A207B30758F4405D574061097109841707
:101780009507A607B70708F4E1E0F1E0F093D60566
:10179000E093D5051F910F9108950F931F934A99D8
:1017A00028C040919E0650919F06CA018053984FD1
:1017B000A0E0B0E00091AC061091AD062091AE061D
:1017C0003091AF0680179107A207B30790F060E051
:1017D00070E081E00091B0061091B1062091B20650
:1017E0003091B306401751076207730718F080E085
:1017F00001C081E01F910F9108954F925F926F9207
:101800007F928F929F92AF92BF92CF92DF92EF9290
:10181000FF920F931F930091ED061091EE06209119
:10182000EF063091F006480159014091150750919B
:1018300016076091170770911807EDEEF6E0A5E125
:10184000B7E06A017B014190519061907190401620
:1018500051066206730610F4930182018414950404
:10186000A604B70410F4530142014D905D906D90B1
:101870007D90441655066606770610F4B301A20162
:10188000C414D504E604F70410F47301620187E080
:10189000E531F807C1F60093A0061093A106209346
:1018A000A2063093A3068092E6069092E706A092E5
:1018B000E806B092E90640935107509352076093AF
:1018C000530770935407C0926A07D0926B07E09257
:1018D0006C07F0926D07801A910AA20AB30A970169
:1018E0008601041B150B260B370BC901B80108151F
:1018F00019052A053B0510F4C501B4011F910F918C
:10190000FF90EF90DF90CF90BF90AF909F908F901F
:101910007F906F905F904F9008950E94FD0B653609
:10192000710581059105A8F58091A0069091A10609
:10193000A091A206B091A30680379741A105B105F9
:1019400040F18091510790915207A0915307B091B7
:10195000540780379741A105B105D8F08091E6067C
:101960009091E706A091E806B091E9068934914785
:10197000A105B10570F481E040916A0750916B07B1
:1019800060916C0770916D0749345147610571058D
:1019900008F080E008950F931F93CF93DF93EB013E
:1019A000F8011282138214821582118210829783A9
:1019B00086837187608753874287BC016F5F7F4F43
:1019C0008FEF9FE70E94BE2575876487BE016F5F1A
:1019D0007F4F8FEF9FE30E94BE25CB01AA2797FD83
:1019E000A095BA2F86879787A08BB18B338B228BDC
:1019F000DF91CF911F910F9108958F929F92AF9297
:101A0000BF92CF92DF92EF92FF92CF93DF93FB01D1
:101A1000EA016C01E12CF12CC61AD70AE108F108A1
:101A20002C853D85C901AA2797FDA095BA2F8C1555
:101A30009D05AE05BF05B4F088279927821B930B3F
:101A4000AA2797FDA095BA2FC816D906EA06FB0665
:101A500084F0AE81BF81A70196010E943A264B0116
:101A60005C010EC088248A949FE7992EA12CB12C8A
:101A700007C08824839480E8982EAA24AA94BA2CBC
:101A80002A813B814C815D812C0D3D1D4E1D5F1DCA
:101A90008E859F85A889B98982179307A407B50702
:101AA0004CF48A839B83AC83BD836FEF7FE380E03C
:101AB00090E01DC0B095A095909581959F4FAF4F38
:101AC000BF4F281739074A075B074CF48A839B836B
:101AD000AC83BD8361E070EC8FEF9FEF08C02A8379
:101AE0003B834C835D83A885B9850E943A26288173
:101AF00039812E1B3F0B4A855B85249F6001259F02
:101B0000D00C349FD00C1124EE24D7FCE094FE2C92
:101B1000F983E883680D791D8A1D9B1D6C0D7D1D61
:101B20008E1D9F1D20E830E040E050E00E94F4252B
:101B30006A897B89CB01AA2797FDA095BA2F8217C6
:101B40009307A407B50794F088279927861B970B5E
:101B50006C01EE24D7FCE094FE2CDA01C9012C15AF
:101B60003D054E055F0514F4D701C601DF91CF9105
:101B7000FF90EF90DF90CF90BF90AF909F908F90AD
:101B80000895FC01128213821482158208951F9217
:101B90000F920FB60F9211242F933F934F935F93A1
:101BA0008F939F93EF93FF934091C0005091C60095
:101BB00048718091DA0590E001968F709927209105
:101BC000D90530E08217930739F08093DA05FC01DC
:101BD000E352FA4F508301C042E04093D805FF9191
:101BE000EF919F918F915F914F913F912F910F9026
:101BF0000FBE0F901F9018951F920F920FB60F9265
:101C000011248F939F93EF93FF939091DC05809124
:101C1000DB05981779F08091DB0590E001968F77CE
:101C200099278093DB05FC01E351FA4F8081809373
:101C3000C60005C08091C1008F7D8093C100FF91D7
:101C4000EF919F918F910F900FBE0F901F9018955D
:101C50001092DC051092DB051092DA051092D9057E
:101C600097FF04C022E02093C0009F779093C500A7
:101C70008093C40088E98093C10086E08093C2000D
:101C800008959091DA058091D9059817A1F0809177
:101C9000D90590E001968F7099278093D905FC01B2
:101CA000E352FA4F20818091D80590E0982F882741
:101CB000820F911D089580E091E008959091DA05DA
:101CC0008091D905981789F0E091D905F0E0319617
:101CD000EF70FF27E352FA4F20818091D80590E002
:101CE000982F8827820F911D089580E091E0089534
:101CF0002091DC0530E02F5F3F4F2F773327409155
:101D0000DB0550E024173507D1F3F901E351FA4F11
:101D100080832093DC058091C10080628093C100A4
:101D20000895CF93DF93EC018991882319F00E94E5
:101D3000780EFACFDF91CF910895CF93DF93FC0116
:101D40008491EF012196882321F00E94780EFE01F4
:101D5000F7CFDF91CF9108958091DA052091D905D1
:101D600090E04096821B91098F7099270895809189
:101D7000D9058093DA050895CF93C82F0E949A0859
:101D80008C0F911D90936F0680936E06CF910895EE
:101D9000CF93DF93C0916E06D0916F060E949A0890
:101DA0008C179D0750F4C0916E06D0916F060E946B
:101DB0009A089C2F981B892F01C080E0DF91CF915A
:101DC0000895349908C0809158078F3F31F0815FA2
:101DD0008093580702C010925807359908C0809127
:101DE00059078F3F31F0815F809359070895109212
:101DF0005907089585E0809301018093000186E4EE
:101E0000809383062A982B984298409860E080E05F
:101E10000E94A00160E180E391E00E94810161E005
:101E200080E00E94A00160E181E491E00C948101D6
:101E300087E4809383062A982B984298409860E024
:101E400080E00E94A00160E182E591E00E948101B2
:101E500061E080E00E94A00160E181E491E00C94E7
:101E6000810184E1809383062A982B9842984098B8
:101E700060E080E00E948F0860E070E080E00E94F7
:101E8000950A60E070E081E00E94950A60E080E0E1
:101E90000E94A00160E183E691E00E94810161E07F
:101EA00080E00E94A00160E184E791E00C94810150
:101EB00085E1809383062A982B984298409860E0A9
:101EC00080E00E94A00160E185E891E00E9481012C
:101ED00061E080E00E94A00160E186E991E00C945D
:101EE000810182E3809383062A982B984298409838
:101EF00060E080E00E94A00160E187EA91E00E943A
:101F0000810161E080E00E94A00160E188EB91E046
:101F10000C94810183E3809383062A982B9842983E
:101F2000409860E080E00E94A00160E189EC91E0CF
:101F30000E94810161E080E00E94A00160E188EBE5
:101F400091E00C94810184E3809383062A982B9876
:101F50004298409860E080E00E94A00160E18AED34
:101F600091E00E94810161E080E00E94A00160E1B7
:101F700088EB91E00C9481018CE3809383062A9A8C
:101F80002B98429A409860E080E00E94A00160E1B6
:101F90008BEE91E00E94810161E080E00E94A0014F
:101FA00060E188EB91E00C9481018DE380938306DE
:101FB0002A982B9A4298409A60E080E00E94A00103
:101FC00060E18CEF91E00E94810161E080E00E947D
:101FD000A00160E188EB91E00C948101CF93C82FC0
:101FE00081E5809383062A982B984298409860E078
:101FF00080E00E94A00160E1CC2319F08DE092E026
:1020000002C08EE192E00E94810161E080E00E94C6
:10201000A00160E188EB91E0CF910C9481018BE508
:10202000809383062A9A2B98429A409860E080E039
:102030000E94A00160E18FE292E00E94810161E0D4
:1020400080E00E94A00160E188EB91E00C948101A6
:102050008CE5809383062A9A2B98429A409860E0F8
:1020600080E00E94A00160E180E492E00E94810192
:1020700061E080E00E94A00160E188EB91E00C94B7
:1020800081018DE5809383062A982B9A4298409A85
:1020900060E080E00E94A00160E181E592E00E94A2
:1020A000810161E080E00E94A00160E188EB91E0A5
:1020B0000C9481018EE5809383062A982B9A42988E
:1020C000409A60E080E00E94A00160E182E692E038
:1020D0000E94810161E080E00E94A00160E188EB44
:1020E00091E00C9481018FE5809383062A982B98C8
:1020F0004298409860E080E00E94A00160E183E7A0
:1021000092E00E94810161E080E00E94A00160E114
:1021100088EB91E00C94810180910101992787FD62
:102120009095A92FB92F8431910510F5FC01E25C3F
:10213000FF4F0C9413260C94180F0C94A30F0C94BF
:10214000FA0E0C94710F0C948A0F0C94BC0F0C9423
:10215000D50F81E00C94EE0F80E0FCCF0C940F10B3
:102160000C9428100C9441100C945A100C94731079
:1021700008950F931F938091B0069091B106A0919E
:10218000B206B091B30690938507809384070091BF
:1021900088061091890620918A0630918B0640911D
:1021A0008C0650918D0660918E0670918F060417F3
:1021B00015072607370749F41092860710928707FC
:1021C00010928807109289072DC09C01AD01442709
:1021D0005527A0E1B7E20E942F262091AC0630914E
:1021E000AD064091AE065091AF060E94D225AAE0FE
:1021F000B0E00E942F26613A26E8720721E08207AC
:102200009105D0F600EA16E821E030E0061B170B36
:10221000280B390B009386071093870720938807B4
:10222000309389071F910F9108950F931F93209169
:102230007E0730917F07A0E1B7E20E941926209126
:102240009E0630919F06205D374040E050E00E949E
:10225000D225AAE0B0E00E942F268B019C01013A12
:1022600086E8180781E02807310548F460EA76E837
:1022700081E090E0601B710B820B930B03C060E068
:1022800070E0CB011F910F910895A0917E07B0914E
:102290007F07A83082E5B80700F520E639E74EEF62
:1022A0005FEF0E942F267B58844D924828E032E54C
:1022B00040E050E00E94D225CA01B90128EE33E087
:1022C00040E050E00E94D2252F5F3F4F4F4F5F4FBD
:1022D000A8EEB3E00E942F26089560E070E0CB01E5
:1022E0000895CF92DF92EF92FF920F931F93CF93B7
:1022F000DF9380919E0690919F0620917E073091FA
:102300007F0728573C4E8217930730F48858934133
:1023100090937F0780937E07C0908007D0908107BD
:10232000E0908207F09083070E944511C616D706F9
:10233000E806F90640F46093800770938107809364
:10234000820790938307C0908007D0908107E09028
:102350008207F09083070E9415116C157D058E058C
:102360009F0540F4609380077093810780938207F4
:1023700090938307009188061091890620918A0620
:1023800030918B0640918C0650918D0660918E069F
:1023900070918F06C0917E07D0917F0704171507B3
:1023A0002607370761F4CE01A0E0B0E080938806ED
:1023B00090938906A0938A06B0938B062EC09E0147
:1023C000A4E6B0E00E9419266B017C0160918007B1
:1023D00070918107809182079091830728EE33E006
:1023E00040E050E00E94D225DA01C90124E630E045
:1023F00040E050E0281B390B4A0B5B0BC701B601CC
:102400000E94D225209388063093890640938A063D
:1024100050938B06CE01A0E0B0E080938C069093A1
:102420008D06A0938E06B0938F06DF91CF911F91FA
:102430000F91FF90EF90DF90CF9008954F925F92B1
:102440006F927F929F92AF92BF92CF92DF92EF9264
:10245000FF920F931F93CF93DF93CDB7DEB76497AF
:102460000FB6F894DEBF0FBECDBF0E94B9108091A9
:102470007E0790917F0768EE73E00E94AA25B62E32
:10248000A72EC0908007D0908107E0908207F0903F
:102490008307809184079091850764E670E00E942D
:1024A000AA25962E609186077091870780918807EC
:1024B000909189078E010F5F1F4FC114D104E10471
:1024C000F10409F442C020918806309189064091B8
:1024D0008A0650918B0640908C0650908D06609035
:1024E0008E0670908F06241535054605570569F14F
:1024F000409A2B9A1F921F9224E630E040E050E071
:102500000E94D225822F3AE0632F0E949E251F92BF
:102510008F931F921F92892D0E949E251F928F9349
:10252000C701B60128EE33E040E050E00E94D2251A
:102530001F922F93AF92BF9284E892E09F938F9364
:102540001F930F930E94FC2712C01F921F92892D88
:102550006AE00E949E251F928F93AF92BF928FE9EF
:1025600092E09F938F931F930F930E94FC270FB6C7
:10257000F894DEBF0FBECDBF60E080E00E94A001F6
:1025800060E1C8010E94810164960FB6F894DEBF35
:102590000FBECDBFDF91CF911F910F91FF90EF90B4
:1025A000DF90CF90BF90AF909F907F906F905F90A3
:1025B0004F9008950F931F939BE090938306429A48
:1025C0002A9A882371F10E94CE080E942E090E9447
:1025D0005F09209160073091610740915E0750913B
:1025E0005F0760915C0770915D070DE317E08091D4
:1025F0005A0790915B070E94CB0C2091680730919D
:102600006907409166075091670760916407709170
:10261000650704EC16E080916207909163070E94C1
:10262000CB0C1F910F910C941E128F929F92AF9220
:10263000BF92CF92DF92EF92FF920F931F93CF93AF
:10264000DF93CDB7DEB765970FB6F894DEBF0FBE48
:10265000CDBF80917E0790917F0768EE73E00E9466
:10266000AA25062FB72E6091AC067091AD06809119
:10267000AE069091AF0628EEC22E23E0D22EE12CBA
:10268000F12CA70196010E94D225A22E6091880606
:102690007091890680918A0690918B06A701960118
:1026A0000E94D225922E60918007709181078091BF
:1026B000820790918307A70196010E94D225122FCD
:1026C0006091B0067091B1068091B2069091B30608
:1026D000A70196010E94D225822E60918C067091EE
:1026E0008D0680918E0690918F06A70196010E941B
:1026F000D22560E080E02D8B0E94A00180919006A1
:102700001F928F931F929F921F92AF92BF920F932F
:1027100035EBC32E32E0D32EDF92CF92CE0101965D
:102720007C01FF928F930E94FC2760E1C7010E9409
:10273000810161E080E00E94A001809191061F92DA
:102740008F931F922D892F931F928F921F921F9309
:10275000DF92CF92FF92EF920E94FC2760E1C701C7
:102760000E9481010FB6F894DEBF0FBECDBF659603
:102770000FB6F894DEBF0FBECDBFDF91CF911F9192
:102780000F91FF90EF90DF90CF90BF90AF909F9010
:102790008F900895419A60E080E00E94A00160E17E
:1027A0008DEC92E00E94810161E080E00E94A00136
:1027B00060E18EED92E00C9481010F931F93CF9313
:1027C000DF93CDB7DEB764970FB6F894DEBF0FBEC8
:1027D000CDBF809183069CEE980F923058F44A99B1
:1027E00014C04B9912C081E00E94DA128EE10E945F
:1027F000BC0E08C08B3049F44A9902C04B9B05C0FF
:102800000E94310F81E08093980780919807811191
:1028100083C0809183068A3009F07EC04A997CC0CB
:10282000349936C060E080E00E94A00160E18FEE44
:1028300092E00E94810161E080E00E94A0010E947C
:10284000FD0B7F936F9380E093E09F938F938E01B6
:102850000F5F1F4F1F930F930E94FC2760E1C80179
:102860000E9481012FEF8FE790E721508040904038
:10287000E1F700C000000E948D0C0F900F900F90A8
:102880000F900F900F90882329F10E94310F0EC0F6
:10289000359BC8CF369BC6CF379BC4CF0E94C80E8E
:1028A000882309F4BFCF38C0359903C0349BFECFCD
:1028B000FBCF369BFBCF379BF9CF2FEF8FE995E00E
:1028C000215080409040E1F700C0000081E08093FB
:1028D000980722C00E94CA132FEF8FE790E721507C
:1028E00080409040E1F700C00000439A2FEF8FEB4B
:1028F00098EA215080409040E1F700C00000349BEE
:10290000FECF359BFCCF369BFACF379BF8CF419853
:10291000439884E10E94BC0E8091980781113AC0CF
:10292000349B06C0359B04C0369B02C0379932C029
:1029300080918306843129F436990AC00E94580F89
:102940001AC0853129F4379903C00E94310F13C092
:102950008091010187FD12C0369906C08F5F8431D6
:1029600044F01092010107C0379908C0815008F463
:1029700083E18093010181E08093980790910001A9
:1029800080910101981731F00E948C108091010113
:1029900080930001349B09C0359B07C0369B05C05E
:1029A000379B03C0109298073BC0809198078130F5
:1029B000B1F480918306823390F0379910C0369934
:1029C0000EC08FEF80930101809300010E94310FB0
:1029D0000E9471110E94CE0882E080939807809136
:1029E0009807813081F4809183068451823058F4B5
:1029F000379909C0369907C0109201010E948C10C6
:102A000082E08093980780919807882349F02FEF00
:102A10008FEC92E0215080409040E1F700C0000030
:102A200064960FB6F894DEBF0FBECDBFDF91CF9195
:102A30001F910F91089560E08FE00E94A00161E076
:102A400080E591E00E94810161E080E00E94A001A8
:102A500060E180E193E00E9481010E94E10A61E06F
:102A600080E00E94A00160E181E293E00E94810188
:102A70002FEF8FE398E3215080409040E1F700C0B2
:102A800000000C94FA0E9F92AF92BF92CF92DF9209
:102A9000EF92FF920F931F93CF93DF93CDB7DEB7E3
:102AA00066970FB6F894DEBF0FBECDBF162FD82E97
:102AB000C22EB32EA42E952E60E080E04A9946C027
:102AC0007D8B9E8B0E94A0010E948D0C9E012F5F2A
:102AD0003F4F79017D899E89882339F09F93DF924A
:102AE0007F931F9382E393E006C09F93DF927F93CF
:102AF0001F9382E493E09F938F93FF92EF920E9443
:102B0000FC270FB6F894DEBF0FBECDBF60E1C70152
:102B10000E9481011F920F939F92AF92BF92CF921A
:102B200082E593E09F938F93FF92EF920E94FC27A0
:102B300061E080E00E94A00160E1C7010E94810184
:102B40000FB6F894DEBF0FBECDBF13C00E94A00128
:102B500060E183E693E00E94810161E080E00E94F1
:102B6000A00160E184E793E00E94810184E10E947A
:102B7000BC0E66960FB6F894DEBF0FBECDBFDF91D8
:102B8000CF911F910F91FF90EF90DF90CF90BF906A
:102B9000AF909F9008950F931F93CF93DF93CDB77E
:102BA000DEB72A970FB6F894DEBF0FBECDBF809177
:102BB0005907882381F08F3F11F49AE001C091E01A
:102BC00080919C06981720F4891B80939C0603C073
:102BD000811110929C06809158078823C9F08F3F7D
:102BE00011F45AE001C051E040919C06242F30E0DE
:102BF0008FEF90E0851B91092817390724F4450FC2
:102C000040939C0605C04F3F19F08FEF80939C06C0
:102C100080919C061F928F9385E893E09F938F93FA
:102C20008E010F5F1F4F1F930F930E94FC2761E0DF
:102C300080E00E94A00164E0C8010E94810161E07F
:102C400084E00E94A0014AE06FEF80919C060E9400
:102C5000A80261E08EE00E94A00162E086EC91E0B3
:102C60000E94810180919C060E94200A0F900F9083
:102C70000F900F900F900F902A960FB6F894DEBF2A
:102C80000FBECDBFDF91CF911F910F9108950F938C
:102C90001F93CF93DF93CDB7DEB72A970FB6F89483
:102CA000DEBF0FBECDBF80915907882381F08F3FD3
:102CB00011F49AE001C091E080919D06981720F4EC
:102CC000891B80939D0603C0811110929D068091FF
:102CD00058078823C9F08F3F11F45AE001C051E032
:102CE00040919D06242F30E08FEF90E0851B9109E5
:102CF0002817390724F4450F40939D0605C04F3F20
:102D000019F08FEF80939D0680919D061F928F93FF
:102D100085E893E09F938F938E010F5F1F4F1F9362
:102D20000F930E94FC2761E080E00E94A00164E014
:102D3000C8010E94810161E084E00E94A0014AE094
:102D40006FEF80919D060E94A80261E08EE00E94D4
:102D5000A00162E086EC91E00E94810180919D06D5
:102D60000E94230A0F900F900F900F900F900F90DA
:102D70002A960FB6F894DEBF0FBECDBFDF91CF917C
:102D80001F910F9108950F931F93CF93DF93CDB7AA
:102D9000DEB72A970FB6F894DEBF0FBECDBF809185
:102DA00059078823F1F08F3F19F480ED97E002C0B6
:102DB00088EE93E020919E0630919F06AC0140572B
:102DC0005A494217530738F4281B390B30939F0692
:102DD00020939E0606C080E995E690939F06809317
:102DE0009E0680915807882341F18F3F19F420ED0A
:102DF00037E002C028EE33E0E0919E06F0919F0696
:102E0000AF0160E070E088ED96EDA0E0B0E0821BDD
:102E1000930BA109B109481759076A077B073CF4CE
:102E20002E0F3F1F30939F0620939E0606C088ED0D
:102E300096ED90939F0680939E0680919E069091BA
:102E40009F0668EE73E00E94AA257F936F938BE83C
:102E500093E09F938F938E010F5F1F4F1F930F93EC
:102E60000E94FC2761E087E00E94A00163E0C801A6
:102E70000E9481010F900F900F900F900F900F9074
:102E80002A960FB6F894DEBF0FBECDBFDF91CF916B
:102E90001F910F9108950F931F93CF93DF93CDB799
:102EA000DEB72A970FB6F894DEBF0FBECDBF809174
:102EB0005907882379F08F3F11F48AE001C081E03F
:102EC00090919B07891720F4981B90939B0702C051
:102ED00010929B07809158078823B9F08F3F11F417
:102EE0004AE001C041E050919B07252F30E08FEF71
:102EF00090E0841B91092817390724F4450F40936B
:102F00009B0703C08FEF80939B0780919B071F92C5
:102F10008F9382E993E09F938F938E010F5F1F4FF2
:102F20001F930F930E94FC2761E080E00E94A001A4
:102F300064E0C8010E94810161E084E00E94A00178
:102F40004AE06FEF80919B070E94A80261E08EE04B
:102F50000E94A00162E086EC91E00E9481016091F4
:102F60009B0770E080E00E94950A0F900F900F90F1
:102F70000F900F900F902A960FB6F894DEBF0FBEF9
:102F8000CDBFDF91CF911F910F9108950F931F93A4
:102F9000CF93DF93CDB7DEB72A970FB6F894DEBF95
:102FA0000FBECDBF80915907882379F08F3F11F470
:102FB0008AE001C081E090919907891720F4981B5D
:102FC0009093990702C0109299078091580788231F
:102FD000B9F08F3F11F44AE001C041E050919907E8
:102FE000252F30E08FEF90E0841B910928173907D7
:102FF00024F4450F4093990703C08FEF80939907FE
:10300000809199071F928F9382E993E09F938F930A
:103010008E010F5F1F4F1F930F930E94FC2761E0EB
:1030200080E00E94A00164E0C8010E94810161E08B
:1030300084E00E94A0014AE06FEF809199070E940E
:10304000A80261E08EE00E94A00162E086EC91E0BF
:103050000E9481016091990770E081E00E94950AC9
:103060000F900F900F900F900F900F902A960FB621
:10307000F894DEBF0FBECDBFDF91CF911F910F91AE
:1030800008950F931F93CF93DF93CDB7DEB72A97A1
:103090000FB6F894DEBF0FBECDBF809159078823CD
:1030A000F1F08F3F19F480ED97E002C088EE93E0D5
:1030B00020917E0730917F07AC014053584F421753
:1030C000530738F4281B390B30937F0720937E0772
:1030D00006C080ED97E090937F0780937E078091F4
:1030E0005807882311F18F3F19F480ED97E002C053
:1030F00088EE93E040917E0750917F0720919E06D5
:1031000030919F0628583341B901681B790B461747
:10311000570738F4840F951F90937F0780937E079D
:1031200004C030937F0720937E0780917E079091A3
:103130007F0768EE73E00E94AA257F936F938BE868
:1031400093E09F938F938E010F5F1F4F1F930F93F9
:103150000E94FC2761E087E00E94A00163E0C801B3
:103160000E9481010E9471110F900F900F900F909B
:103170000F900F902A960FB6F894DEBF0FBECDBF0A
:10318000DF91CF911F910F91089580915907882366
:10319000D9F08F3F19F420ED37E002C028EE33E07C
:1031A00080917E0790917F07A901485F5D4A48178B
:1031B000590718F4821B930B02C088E092E59093A4
:1031C0007F0780937E0702C020E030E0809158079F
:1031D000882311F18F3F19F420ED37E002C028EE6B
:1031E00033E040917E0750917F0780919E06909139
:1031F0009F0688589341BC01621B730B4617570703
:1032000038F4420F531F50937F0740937E0704C04A
:1032100090937F0780937E0780917E0790917F0730
:10322000A0E0B0E08093880690938906A0938A0678
:10323000B0938B0680938C0690938D06A0938E0698
:10324000B0938F06232B51F080E00E94DA1260E0E9
:1032500080E00E948F088AE00C94BC0E08954F9283
:103260005F926F927F928F929F92AF92BF92EF92F6
:10327000FF920F931F93CF93DF93CDB7DEB72A97BB
:103280000FB6F894DEBF0FBECDBF809159078823DB
:1032900099F18F3F19F400ED17E002C008EE13E03A
:1032A0008090800790908107A0908207B09083075C
:1032B0000E94451120E030E028013901460E571EDA
:1032C000681E791E481459046A047B0468F4801A45
:1032D000910AA20AB30A8092800790928107A09275
:1032E0008207B092830708C06093800770938107BC
:1032F000809382079093830780915807882399F1E0
:103300008F3F19F400ED17E002C008EE13E0809043
:10331000800790908107A0908207B09083070E9459
:10332000151120E030E02B013C01401A510A620ADD
:10333000730A84149504A604B70468F4800E911EE1
:10334000A21EB31E8092800790928107A0928207EE
:10335000B092830708C060938007709381078093C1
:103360008207909383076091800770918107809115
:1033700082079091830748EE842E43E0942EA12C7F
:10338000B12CA50194010E94D2251F922F938BE8A6
:1033900093E09F938F938E010F5F1F4F1F930F93A7
:1033A0000E94FC2761E087E00E94A00163E0C80161
:1033B0000E948101E0907E07F0907F079701A4E6CC
:1033C000B0E00E9419262B013C01609180077091AA
:1033D00081078091820790918307A50194010E9443
:1033E000D225DA01C90124E630E040E050E0281B94
:1033F000390B4A0B5B0BC301B2010E94D22520930B
:1034000088063093890640938A0650938B06C7013D
:10341000A0E0B0E080938C0690938D06A0938E067A
:10342000B0938F060F900F900F900F900F900F900A
:103430002A960FB6F894DEBF0FBECDBFDF91CF91B5
:103440001F910F91FF90EF90BF90AF909F908F9042
:103450007F906F905F904F9008952F923F924F9280
:103460005F926F927F928F929F92AF92BF92CF9214
:10347000DF92EF92FF920F931F93CF93DF93CDB71D
:10348000DEB764970FB6F894DEBF0FBECDBF0E94C3
:10349000CD0B882309F181E080938306419A439AFA
:1034A0002A982B984298409860E080E00E94A00102
:1034B00060E187E993E00E94810161E080E00E9481
:1034C000A00160E14A9903C088EA93E002C089EB59
:1034D00093E00E9481016CC080919A07811160C0C5
:1034E0000E941E126091B0067091B1068091B206E2
:1034F0009091B3064090AC065090AD066090AE0639
:103500007090AF0658EE852E53E0952EA12CB12C6D
:10351000A50194010E94D225122F032F342E252EAF
:10352000E4E6CE2ED12CE12CF12CA70196010E94CD
:10353000D2255F934F933F932F932F923F920F93F8
:103540001F93C301B201A50194010E94D225122F3D
:10355000032FB42EA52EA70196010E94D2255F93BA
:103560004F933F932F93AF92BF920F931F938AEC89
:1035700093E09F938F938E010F5F1F4F1F930F93C5
:103580000E94FC2761E080E00E94A00160E1C80188
:103590000E9481010FB6F894DEBF0FBECDBF02C0FE
:1035A0000E9415130E94C80E811102C00E944B0B8D
:1035B00064960FB6F894DEBF0FBECDBFDF91CF91FA
:1035C0001F910F91FF90EF90DF90CF90BF90AF9041
:1035D0009F908F907F906F905F904F903F902F9033
:1035E00008950F931F93CF93DF93CDB7DEB72A973C
:1035F0000FB6F894DEBF0FBECDBF80915907882368
:10360000C9F08F3F19F48AE090E002C081E090E0B9
:1036100020919206309193068217930738F4281B65
:10362000390B309393062093920604C010929306B0
:103630001092920680915807882301F18F3F19F468
:103640008AE090E002C081E090E0409192065091C3
:1036500093062091960630919706B901681B790B65
:103660004617570738F4840F951F9093930680935D
:10367000920604C03093930620939206809193069D
:103680008F93809192068F9388EE93E09F938F9310
:103690008E010F5F1F4F1F930F930E94FC2761E065
:1036A00086E00E94A00164E0C8010E9481010E949E
:1036B000CA0960E070E080E00E94950A60E070E076
:1036C00081E00E94950A0F900F900F900F900F903D
:1036D0000F902A960FB6F894DEBF0FBECDBFDF91D4
:1036E000CF911F910F9108950F931F93CF93DF9365
:1036F000CDB7DEB72A970FB6F894DEBF0FBECDBFA9
:1037000080915907882301F18F3F19F48AE090E0F6
:1037100002C081E090E0409196065091970620917A
:10372000920630919306B901681B790B64177507EF
:1037300038F4481B590B509397064093960604C0E3
:103740003093970620939606809158078823F1F0CE
:103750008F3F19F48AE090E002C081E090E0409150
:1037600096065091970620E137E2B901681B790B64
:103770004617570738F4840F951F90939706809348
:10378000960604C03093970620939606809197067C
:103790008F93809196068F9388EE93E09F938F93FB
:1037A0008E010F5F1F4F1F930F930E94FC2761E054
:1037B00086E00E94A00164E0C8010E9481010E948D
:1037C000CA096FEF70E080E00E94950A60E070E047
:1037D00081E00E94950A0F900F900F900F900F902C
:1037E0000F902A960FB6F894DEBF0FBECDBFDF91C3
:1037F000CF911F910F9108950F931F93CF93DF9354
:10380000CDB7DEB72A970FB6F894DEBF0FBECDBF97
:10381000809159078823C9F08F3F19F48AE090E01E
:1038200002C081E090E020919406309195068217C5
:10383000930738F4281B390B309395062093940690
:1038400004C0109295061092940680915807882320
:1038500001F18F3F19F48AE090E002C081E090E02E
:1038600040919406509195062091980630919906C2
:10387000B901681B790B4617570738F4840F951F59
:10388000909395068093940604C0309395062093F8
:103890009406809195068F93809194068F9388EE7D
:1038A00093E09F938F938E010F5F1F4F1F930F9392
:1038B0000E94FC2761E086E00E94A00164E0C8014C
:1038C0000E9481010E94CA0960E070E080E00E94CD
:1038D000950A60E070E081E00E94950A0F900F90D9
:1038E0000F900F900F900F902A960FB6F894DEBFAE
:1038F0000FBECDBFDF91CF911F910F9108950F9310
:103900001F93CF93DF93CDB7DEB72A970FB6F89406
:10391000DEBF0FBECDBF80915907882301F18F3FD5
:1039200019F48AE090E002C081E090E040919806AE
:10393000509199062091940630919506B901681B23
:10394000790B6417750738F4481B590B5093990687
:103950004093980604C0309399062093980680916E
:1039600058078823F1F08F3F19F48AE090E002C0F5
:1039700081E090E0409198065091990620E137E26D
:10398000B901681B790B4617570738F4840F951F48
:10399000909399068093980604C0309399062093DB
:1039A0009806809199068F93809198068F9388EE60
:1039B00093E09F938F938E010F5F1F4F1F930F9381
:1039C0000E94FC2761E086E00E94A00164E0C8013B
:1039D0000E9481010E94CA0960E070E080E00E94BC
:1039E000950A6FEF70E081E00E94950A0F900F90AA
:1039F0000F900F900F900F902A960FB6F894DEBF9D
:103A00000FBECDBFDF91CF911F910F9108950F93FE
:103A10001F93CF93DF93CDB7DEB72A970FB6F894F5
:103A2000DEBF0FBECDBF809159078823C9F08F3FFD
:103A300019F48AE090E002C081E090E020919A06BB
:103A400030919B068217930738F4281B390B30936B
:103A50009B0620939A0604C010929B0610929A0629
:103A6000809158078823F1F08F3F19F48AE090E0A5
:103A700002C081E090E040919A0650919B0620E8B8
:103A80003EE3B901681B790B4617570738F4840FDA
:103A9000951F90939B0680939A0604C030939B06D3
:103AA00020939A0680919B068F9380919A068F931C
:103AB00088EE93E09F938F938E010F5F1F4F1F93AC
:103AC0000F930E94FC2761E086E00E94A00164E061
:103AD000C8010E9481010E94CA0960E070E080E094
:103AE0000E94950A60E070E081E00E94950A0F90C4
:103AF0000F900F900F900F900F902A960FB6F8949A
:103B0000DEBF0FBECDBFDF91CF911F910F91089502
:103B1000CF92DF92EF92FF920F931F93CF93DF9399
:103B2000CDB7DEB76B970FB6F894DEBF0FBECDBF33
:103B3000809183068A3009F05AC0F0E2CF2EFBE173
:103B4000DF2EFCE7EF2EFCE0FF2E2091A406309143
:103B5000A5064091A6065091A706C701B6010E948E
:103B6000D22589019A010093B4061093B5062093DB
:103B7000B6063093B7061092B8061092B9061092A6
:103B8000BA061092BB062091A8063091A906409172
:103B9000AA065091AB06C701B6010E94D225890141
:103BA0009A010093BC061093BD062093BE06309385
:103BB000BF061092C0061092C1061092C206109263
:103BC000C3060E94C80E082F2091A8063091A906AE
:103BD0004091AA065091AB066091A4067091A5068B
:103BE0008091A6069091A7060E9443155AC186347B
:103BF00029F4349956C10E941B1553C1873489F4A6
:103C000034994FC18AE080938306349BFECF359B65
:103C1000FCCF369BFACF379BF8CF8EE10E94BC0ECB
:103C200040C1823319F40E94CB153BC1833319F490
:103C30000E94471636C1843319F40E94C31631C15D
:103C40008C3319F40E944B172CC18D3319F40E9448
:103C5000C61727C1843119F40E94411822C18B3044
:103C600071F5349B02C0359918C040918806509177
:103C7000890660918A0670918B0680918C069091DE
:103C80008D06A0918E06B0918F06481759076A07D6
:103C90007B0719F40E94C51804C1369906C03799EC
:103CA00004C081E080939A07FCC03799FAC0369B24
:103CB000F8C010929A0780E00E94DA12F2C08531B3
:103CC00019F40E942F19EDC0813509F0D2C08091FE
:103CD0000101875090E08830910568F5FC01EE5AAB
:103CE000FF4F0C94132620915A0730915B0725C093
:103CF00020915C0730915D0720C020915E073091D4
:103D00005F071BC0209160073091610716C02091AA
:103D100062073091630711C02091640730916507F5
:103D20000CC0209166073091670707C02091680793
:103D30003091690702C020E030E0409159074423E8
:103D400091F04F3F19F44AE050E002C041E050E0EA
:103D5000BA016E5F7F47261737071CF0241B350B0F
:103D600002C021E030E840915807442399F04F3FCA
:103D700019F44AE050E002C041E050E06FEF7FE705
:103D8000641B750B261737071CF4240F351F02C060
:103D90002FEF3FE7AE014B5E5F4F8830910508F093
:103DA0004BC0FC01E65AFF4F0C94132630935B077F
:103DB00020935A0785E0EDEEF3E02FC030935D07C6
:103DC00020935C0785E0E2EFF3E027C030935F07C4
:103DD00020935E0785E0E7EFF3E01FC030936107B3
:103DE0002093600787E0E9E1F4E020C030936307A7
:103DF0002093620785E0ECEFF3E00FC03093650796
:103E00002093640785E0E1E0F4E007C030936707A2
:103E10002093660785E0E6E0F4E0DA0109C030931C
:103E200069072093680787E0E0E2F4E0DE01559639
:103E300001900D928A95E1F73F932F935F934F93F3
:103E40008BE094E09F938F938E010F5F1F4F1F9322
:103E50000F930E94FC2761E080E00E94A00160E1D6
:103E6000C8010E9481010FB6F894DEBF0FBECDBF1E
:103E700018C08B3519F40E94F11A13C08C3519F44F
:103E80000E94741B0EC08D3519F40E94FC1B09C0E2
:103E90008E3519F40E947F1C04C08F3511F40E94E6
:103EA000071D809183068B3011F40E942D1A6B96AA
:103EB0000FB6F894DEBF0FBECDBFDF91CF911F913B
:103EC0000F91FF90EF90DF90CF900895809183063F
:103ED0000895809383060895CF93DF93FC01849126
:103EE000EF012196882321F00E94780EFE01F7CF82
:103EF000DF91CF9108958CE592E00C946C1F4F9266
:103F00005F926F927F928F929F92AF92BF92CF9269
:103F1000DF92EF92FF920F931F93CF93DF93CDB772
:103F2000DEB7C458D1090FB6F894DEBF0FBECDBFBF
:103F30000E94410EF82E082F192F10FDD0C513FF37
:103F400004C087E294E00E94910E12FF04C082E355
:103F500094E00E94910E11FF04C08FE394E00E9450
:103F6000910E8EE3F8120EC08FE0E82FF0E0EF58CC
:103F7000F94F10828150C9F781E080937006F0926A
:103F800071069FC5E09170060115110521F00D30F5
:103F9000110509F08EC5EE2EF12C90E1E916F10421
:103FA00008F044C0809171068E3309F03FC060E58F
:103FB00071E081E796E00E94C7278C010097B1F17C
:103FC000E2E0EE16F10490F180917206833509F07B
:103FD0002EC46DE474E0C8010E94CC27892B49F5FA
:103FE00060E571E080E090E00E94C727FC0101904D
:103FF0000020E9F7BF0161507109681B790B0FEFD1
:1040000010E020E030E0AE014F5F5F4F0E940408F7
:1040100087FF03C082E692E09BC0898180939C0663
:104020000E94200A0E94CE080E947B1FE1E7F6E072
:104030003AC561E574E0C8010E94CC27892B19F5C7
:1040400060E571E080E090E00E94C727FC010190EC
:104050000020E9F7BF0161507109681B790B0FEF70
:1040600010E020E030E0AE014F5F5F4F0E94040897
:1040700087FF03C08CE492E06BC0898180939D062A
:104080000E94230ACFCF65E574E0C8010E94CC27C7
:10409000892B89F560E571E080E090E00E94C727F8
:1040A000FC0101900020E9F7BF0161507109681B14
:1040B000790B01E410E025E130E0AE014F5F5F4F86
:1040C0000E94040887FF03C088E392E041C0498151
:1040D0005A8128EE33E0429FC001439F900D529FCA
:1040E000900D112490939F0680939E060E94CE0807
:1040F0000E94711199CF69E574E0C8010E94CC2734
:10410000892BC9F560E571E080E090E00E94C72747
:104110007C01FC0101900020E9F73197E81BF90BC5
:1041200080919E0690919F0668EE73E00E94AA25FA
:10413000655071098B0125E130E0AE014F5F5F4FA3
:104140006E2FC7010E94040887FF05C08AE292E033
:104150000E946C1F6BCF49815A8128EE33E0429F49
:10416000C001439F900D529F900D112490937F07A3
:1041700080937E075BC06EE574E0C8010E94CC2787
:10418000892B09F058C060E571E080E090E00E9462
:10419000C7275C010E9415112B013C010E944511AB
:1041A000CF57DF4F688379838A839B83C158D04080
:1041B000F50101900020E9F7CF0101974C018A1821
:1041C0009B0848EEC42E43E0D42EE12CF12CC30111
:1041D000B201A70196010E94D22529013A01CF57C9
:1041E000DF4F688179818A819B81C158D040A701C6
:1041F00096010E94D2258201AE014F5F5F4F682D6C
:10420000C5010E94040887FF03C08CE192E0A0CFA3
:10421000A981BA8128EE33E00E94282660938007A6
:104220007093810780938207909383070E94711196
:104230000E942E09F9CE63E674E0C8010E94CC27E3
:10424000892B39F560E571E080E090E00E94C72796
:10425000FC0101900020E9F7BF0161507109681B62
:10426000790B01E010E020E030E0AE014F5F5F4FDE
:104270000E94040887FF03C08EE092E069CF898125
:104280009A81892B19F42A984298CECE2A9A429A7A
:10429000CBCE68E674E0C8010E94CC27892B39F5A3
:1042A00060E571E080E090E00E94C727FC0101908A
:1042B0000020E9F7BF0161507109681B790B01E02B
:1042C00010E020E030E0AE014F5F5F4F0E94040835
:1042D00087FF03C08FEF91E03BCF89819A81892BC3
:1042E00019F42B984098A0CE2B9A409A9DCE6DE65B
:1042F00074E0C8010E94CC27892B09F560E571E0C4
:1043000080E090E00E94C727FC0101900020E9F7BF
:10431000BF0161507109681B790B0FEF10E020E0BD
:1043200030E0AE014F5F5F4F0E94040887FF03C07B
:1043300080EF91E00DCF69817A8180E075C262E7FC
:1043400074E0C8010E94CC27892B01F560E571E07B
:1043500080E090E00E94C727FC0101900020E9F76F
:10436000BF0161507109681B790B0FEF10E020E06D
:1043700030E0AE014F5F5F4F0E94040887FF03C02B
:1043800081EE91E0E5CE69817A814DC267E774E004
:10439000C8010E94CC27892B21F560E571E080E0FF
:1043A00090E00E94C727FC0101900020E9F7BF01BF
:1043B00061507109681B790B0FEF1FE722E030E8AD
:1043C000AE014F5F5F4F0E94040887FF03C082ED7C
:1043D00091E0BECE89819A8190935B0780935A07C2
:1043E0002CC16DE774E0C8010E94CC27892B21F510
:1043F00060E571E080E090E00E94C727FC01019039
:104400000020E9F7BF0161507109681B790B0FEFBC
:104410001FE722E030E8AE014F5F5F4F0E940408C3
:1044200087FF03C083EC91E093CE89819A819093BA
:104430005D0780935C0701C163E874E0C8010E94D6
:10444000CC27892B21F560E571E080E090E00E94A7
:10445000C727FC0101900020E9F7BF0161507109F5
:10446000681B790B0FEF1FE722E030E8AE014F5FCA
:104470005F4F0E94040887FF03C084EB91E068CE81
:1044800089819A8190935F0780935E07D6C069E81F
:1044900074E0C8010E94CC27892B21F560E571E00A
:1044A00080E090E00E94C727FC0101900020E9F71E
:1044B000BF0161507109681B790B0FEF10E020E01C
:1044C00030E0AE014F5F5F4F0E94040887FF03C0DA
:1044D00083EA91E03DCE89819A8190936107809330
:1044E0006007ABC06FE874E0C8010E94CC27892B3D
:1044F00021F560E571E080E090E00E94C727FC01B3
:1045000001900020E9F7BF0161507109681B790B28
:104510000FEF1FE722E030E8AE014F5F5F4F0E94D0
:10452000040887FF03C084E991E012CE89819A8153
:10453000909363078093620780C065E974E0C801C7
:104540000E94CC27892B21F560E571E080E090E0A6
:104550000E94C727FC0101900020E9F7BF016150CC
:104560007109681B790B0FEF1FE722E030E8AE01FD
:104570004F5F5F4F0E94040887FF03C085E891E00A
:10458000E7CD89819A81909365078093640755C030
:104590006BE974E0C8010E94CC27892B21F560E506
:1045A00071E080E090E00E94C727FC0101900020AC
:1045B000E9F7BF0161507109681B790B0FEF1FE725
:1045C00022E030E8AE014F5F5F4F0E94040887FF92
:1045D00003C086E791E0BCCD89819A8190936707FB
:1045E000809366072AC061EA74E0C8010E94CC2764
:1045F000892B31F560E571E080E090E00E94C727EB
:10460000FC0101900020E9F7BF0161507109681BAE
:10461000790B0FEF10E020E030E0AE014F5F5F4F0D
:104620000E94040887FF03C085E691E091CD89814F
:104630009A8190936907809368070E945F09F4CC80
:1046400067EA74E0C8010E94CC27892B21F560E558
:1046500071E080E090E00E94C727FC0101900020FB
:10466000E9F7BF0161507109681B790B00E81EE38F
:1046700020E030E0AE014F5F5F4F0E94040887FFEB
:1046800003C082E591E064CD89819A81909393067D
:1046900080939206BDC06FEA74E0C8010E94CC27E7
:1046A000892B21F560E571E080E090E00E94C7274A
:1046B000FC0101900020E9F7BF0161507109681BFE
:1046C000790B00E81EE320E030E0AE014F5F5F4F62
:1046D0000E94040887FF03C08FE391E039CD8981F0
:1046E0009A81909395068093940692C067EB74E04C
:1046F000C8010E94CC27892B51F560E571E080E06C
:1047000090E00E94C727FC0101900020E9F7BF015B
:1047100061507109681B790B00E81EE320E030E06E
:10472000AE014F5F5F4F0E94040887FF03C08CE219
:1047300091E00ECD89819A81909397068093960699
:104740000E94CE080E94CA096FEF70E067C06FEB4D
:1047500074E0C8010E94CC27892B79F560E571E0EF
:1047600080E090E00E94C727FC0101900020E9F75B
:10477000BF0161507109681B790B00E81EE320E05E
:1047800030E0AE014F5F5F4F0E94040887FF03C017
:1047900089E191E0DDCC89819A819093990680939B
:1047A00098060E94CE080E94CA0960E070E080E08E
:1047B0000E94950A6FEF70E036C067EC74E0C801A4
:1047C0000E94CC27892B09F031CC60E571E080E0B4
:1047D00090E00E94C727FC0101900020E9F7BF018B
:1047E00061507109681B790B00E81EE320E030E09E
:1047F000AE014F5F5F4F0E94040887FF03C084E053
:1048000091E0A6CC89819A8190939B0680939A0629
:104810000E94CE080E94CA0960E070E080E00E9419
:10482000950A60E070E081E00E94950AFDCB6DEC96
:1048300074E0C8010E94CC27892BE1F580919E0687
:1048400090919F0668EE73E00E94AA257F936F9374
:1048500080919D061F928F9380919C061F928F934B
:1048600080919B068F9380919A068F9380919906F1
:104870008F93809198068F93809197068F93809164
:1048800096068F93809195068F93809194068F93CF
:10489000809193068F93809192068F9384ED94E09C
:1048A0009F938F938E010F5F1F4F1F930F930E9453
:1048B000FC27D5C066E375E0C8010E94CC27892B90
:1048C00081F5809167078F93809166078F93809120
:1048D00065078F93809164078F93809163078F930F
:1048E000809162078F9380915F078F9380915E071D
:1048F0008F9380915D078F9380915C078F93809158
:104900005B078F9380915A078F938CE395E09F9379
:104910008F938E010F5F1F4F1F930F930E94FC27F1
:104920009EC06FE775E0C8010E94CC27892B09F073
:104930009FC06091AC067091AD068091AE069091DB
:10494000AF0624E6C22ED12CE12CF12CA701960152
:104950000E94D22549015A016091B0067091B106BA
:104960008091B2069091B306A70196010E94D225CC
:10497000809191061F928F93809190061F928F9342
:10498000EAE0F0E0C901BF010E94AA259F938F933E
:104990007F936F93C401BF010E94AA259F938F93B9
:1049A0007F936F9360918C0670918D0680918E0637
:1049B00090918F0638EEC32E33E0D32EE12CF12CEC
:1049C000A70196010E94D2251F922F93609188061D
:1049D0007091890680918A0690918B06A7019601B5
:1049E0000E94D2251F922F936091860770918707AE
:1049F0008091880790918907A70196010E94D2258E
:104A00001F922F93809184079091850708EE13E001
:104A1000B8010E94AA257F936F93609180077091DF
:104A200081078091820790918307A70196010E94D8
:104A3000D2251F922F9380917E0790917F07B80116
:104A40000E94AA257F936F9382E895E09F938F93AE
:104A50008E010F5F1F4F1F930F930E94FC27C80109
:104A60000E94910E0FB6F894DEBF0FBECDBFDECA16
:104A700069EC75E0C8010E94CC27892B29F40E94BB
:104A8000FA0E0E941B15D0CA6DEC75E0C8010E9499
:104A9000CC27892B09F0CACA8AE00E94691F8EE1DF
:104AA0000E94BC0EC1CA119296E0E138F907D9F70D
:104AB00008C081E08E0F80937006F0E0EF58F94F48
:104AC000F08280917006803151F48FE0E82FF0E0A1
:104AD000EF58F94F10828150C9F710927006CC57E9
:104AE000DF4F0FB6F894DEBF0FBECDBFDF91CF9181
:104AF0001F910F91FF90EF90DF90CF90BF90AF90FC
:104B00009F908F907F906F905F904F9008950E943C
:104B1000260A0E947F1F0E9493050E94DD130E94B7
:104B20009408882321F00E94881D0E949708809194
:104B30008306813071F30E947208EBCF991B79E0F4
:104B400004C0991F961708F0961B881F7A95C9F71D
:104B500080950895AA1BBB1B51E107C0AA1FBB1F6C
:104B6000A617B70710F0A61BB70B881F991F5A95F9
:104B7000A9F780959095BC01CD01089597FB072E6C
:104B800016F4009407D077FD09D00E94AA2507FCEF
:104B900005D03EF4909581959F4F0895709561954D
:104BA0007F4F0895A1E21A2EAA1BBB1BFD010DC069
:104BB000AA1FBB1FEE1FFF1FA217B307E407F507CD
:104BC00020F0A21BB30BE40BF50B661F771F881FA9
:104BD000991F1A9469F760957095809590959B013F
:104BE000AC01BD01CF010895052E97FB1EF4009482
:104BF0000E940B2657FD07D00E94D22507FC03D048
:104C00004EF40C940B2650954095309521953F4FCE
:104C10004F4F5F4F089590958095709561957F4FA8
:104C20008F4F9F4F0895EE0FFF1F0590F491E02DD9
:104C30000994A29FB001B39FC001A39F700D811D75
:104C40001124911DB29F700D811D1124911D089595
:104C50000E941926B7FF0895821B930B08950E94A6
:104C60001926A59F900DB49F900DA49F800D911DB6
:104C700011240895B7FF0C942F260E942F26821B23
:104C8000930B0895DF93CF931F930F939A9DF02D6D
:104C9000219FF00D8B9DF00D8A9DE02DF10D039F5E
:104CA000F00D029FE00DF11D4E9DE00DF11D5E9D8A
:104CB000F00D4F9DF00D7F936F93BF92AF925F9376
:104CC0004F93D5010E9419268B01AC01D7010E9498
:104CD0001926EB01E80FF91FD6010E9492262F91A9
:104CE0003F91D6010E941926C60FD71FE81FF91F52
:104CF000AF91BF910E9492262F913F910E94192659
:104D0000C60FD71FE81FF91FD6010E941926E60F0C
:104D1000F71F9801BE01CF0111240F911F91CF9170
:104D2000DF9108950E941926460F571FC81FD91FEB
:104D300008F431960895689401C0E894F92FF12B96
:104D400012F00C94CF26A0E0B0E0E9EAF6E20C9471
:104D50004127092E059422F40E942B27112392F457
:104D6000F0E80F26FFEFE094F09400951095B094D2
:104D7000C094D094A194BF0ACF0ADF0AEF0AFF0AB9
:104D80000F0B1F0B0E94DA2607FC0E942B27CDB7C2
:104D9000DEB7ECE00C945D27689401C0E8948F9234
:104DA0009F92CF93DF930E94DA26DF91CF919F905D
:104DB0008F90089588249924F401E401B0E49F932E
:104DC000AA279A158B049C04ED05FE05CF05D00794
:104DD000A10798F4AD2FDC2FCF2FFE2FE92D982CB3
:104DE000892E982F872F762F652F542F432F322F00
:104DF0002227B85031F7BF9127C01B2EBF91BB2788
:104E0000220F331F441F551F661F771F881F991FCE
:104E1000881C991CEE1FFF1FCC1FDD1FAA1FBB1F84
:104E20008A149B04EC05FD05CE05DF05A007B1073C
:104E300048F08A189B08EC09FD09CE09DF09A00B90
:104E4000B10B21601A94E1F62EF49401AF01BE017A
:104E5000CD01000C089560957095809590953095E2
:104E60004095509521953F4F4F4F5F4F6F4F7F4F6C
:104E70008F4F9F4F08952F923F924F925F926F9264
:104E80007F928F929F92AF92BF92CF92DF92EF92DA
:104E9000FF920F931F93CF93DF93CDB7DEB7CA1B5B
:104EA000DB0B0FB6F894DEBF0FBECDBF09942A8886
:104EB000398848885F846E847D848C849B84AA842E
:104EC000B984C884DF80EE80FD800C811B81AA81BB
:104ED000B981CE0FD11D0FB6F894DEBF0FBECDBF86
:104EE000ED0108950F93083090F0982F872F762FBB
:104EF000652F542F432F322F22270850F4CF220F33
:104F0000331F441F551F661F771F881F991F0A955F
:104F1000B2F70F91089597FB10F8169400080F93BD
:104F2000083098F00850232F342F452F562F672F25
:104F3000782F892F902DF4CF0594979587957795A5
:104F4000679557954795379527950A95AAF70F9135
:104F500008952A0D3B1D4C1D5D1D6E1D7F1D801F7C
:104F6000911F08952A193B094C095D096E097F09B3
:104F7000800B910B08950024A7FD00942A1730059B
:104F8000400550056005700580059005089541E8CD
:104F900056E00E94D5270895FB01DC018D91019018
:104FA00080190110D9F3990B0895FA01A191B081EC
:104FB000009719F41097E1F0CD01DC01CD010D90BF
:104FC000002011F4C00113C0FB012191222319F02C
:104FD0002015D9F7F3CFFB012191201519F41E926A
:104FE000119606C02223C1F70D900020A1F7D00131
:104FF000FA01A193B0830895AEE0B0E0E2E0F8E2F8
:105000000C9449270D891E8986E08C831A830983B5
:105010008FEF9FE79E838D83AE01475E5F4F6F8961
:10502000788DCE0101960E941E28EF81F885E00F51
:10503000F11F10822E96E4E00C946527ACE0B0E0FE
:10504000E4E2F8E20C943B277C016B018A01FC014D
:1050500017821682838181FFBDC1CE0101964C016A
:10506000F7019381F60193FD859193FF81916F0183
:10507000882309F4ABC1853239F493FD859193FF00
:1050800081916F01853229F4B70190E00E942E2AA8
:10509000E7CF512C312C20E02032A0F48B3269F084
:1050A00030F4803259F0833269F420612CC08D32A3
:1050B00039F0803339F4216026C02260246023C097
:1050C000286021C027FD27C030ED380F3A3078F432
:1050D00026FF06C0FAE05F9E300D1124532E13C048
:1050E0008AE0389E300D1124332E20620CC08E329F
:1050F00021F426FD6BC1206406C08C3611F42068B3
:1051000002C0883641F4F60193FD859193FF8191A9
:105110006F018111C1CF982F9F7D9554933028F452
:105120000C5F1F4FFFE3F9830DC0833631F08337E7
:1051300071F0833509F05BC022C0F801808189835A
:105140000E5F1F4F44244394512C540115C0380165
:10515000F2E06F0E711CF801A080B18026FF03C041
:10516000652D70E002C06FEF7FEFC5012C870E94B4
:10517000232A2C0183012C852F77222E17C038017A
:10518000F2E06F0E711CF801A080B18026FF03C011
:10519000652D70E002C06FEF7FEFC5012C870E9484
:1051A000182A2C012C852068222E830123FC1BC089
:1051B000832D90E048165906B0F4B70180E290E0E4
:1051C0000E942E2A3A94F4CFF50127FC859127FE00
:1051D00081915F01B70190E00E942E2A31103A942C
:1051E000F1E04F1A51084114510471F7E5C08436BB
:1051F00011F0893639F5F80127FF07C06081718108
:10520000828193810C5F1F4F08C060817181882764
:1052100077FD8095982F0E5F1F4F2F76B22E97FF48
:1052200009C090958095709561957F4F8F4F9F4FE6
:105230002068B22E2AE030E0A4010E94602AA82E45
:10524000A81844C0853729F42F7EB22E2AE030E01A
:1052500025C0F22FF97FBF2E8F36C1F018F48835A4
:1052600079F0B4C0803719F0883721F0AFC02F2F04
:105270002061B22EB4FE0DC08B2D8460B82E09C003
:1052800024FF0AC09F2F9660B92E06C028E030E0A8
:1052900005C020E130E002C020E132E0F801B7FEB5
:1052A00007C060817181828193810C5F1F4F06C0AE
:1052B0006081718180E090E00E5F1F4FA4010E9429
:1052C000602AA82EA818FB2DFF77BF2EB6FE0BC0B4
:1052D0002B2D2E7FA51450F4B4FE0AC0B2FC08C0DA
:1052E0002B2D2E7E05C07A2C2B2D03C07A2C01C0CD
:1052F000752C24FF0DC0FE01EA0DF11D8081803365
:1053000011F4297E09C022FF06C07394739404C06F
:10531000822F867809F0739423FD13C020FF06C006
:105320005A2C731418F4530C5718732C731468F414
:10533000B70180E290E02C870E942E2A73942C857E
:10534000F5CF731410F4371801C0312C24FF12C0AC
:10535000B70180E390E02C870E942E2A2C8522FF43
:1053600017C021FF03C088E590E002C088E790E005
:10537000B7010CC0822F867859F021FD02C080E26F
:1053800001C08BE227FD8DE2B70190E00E942E2A3A
:10539000A51438F4B70180E390E00E942E2A5A94B5
:1053A000F7CFAA94F401EA0DF11D8081B70190E0D6
:1053B0000E942E2AA110F5CF332009F451CEB70157
:1053C00080E290E00E942E2A3A94F6CFF70186817F
:1053D000978102C08FEF9FEF2C96E2E10C94572744
:1053E000DC01CB01FC01F999FECF06C0F2BDE1BDA5
:1053F000F89A319600B40D9241505040B8F7089594
:10540000DC01CB0103C02D910E940B2A415050407A
:10541000D0F70895262FF999FECF1FBA92BD81BD0E
:1054200020BD0FB6F894FA9AF99A0FBE0196089526
:10543000FC010590615070400110D8F7809590955F
:105440008E0F9F1F0895FC01615070400190011064
:10545000D8F7809590958E0F9F1F08950F931F93F7
:10546000CF93DF93182F092FEB018B8181FD03C0B0
:105470008FEF9FEF20C082FF10C04E815F812C8193
:105480003D81421753077CF4E881F9819F012F5F2A
:105490003F4F39832883108306C0E885F985812F23
:1054A0000995892B29F72E813F812F5F3F4F3F833D
:1054B0002E83812F902FDF91CF911F910F9108950F
:1054C000FA01AA27283051F1203181F1E8946F9335
:1054D0006E7F6E5F7F4F8F4F9F4FAF4FB1E03ED0DB
:1054E000B4E03CD0670F781F891F9A1FA11D680F79
:1054F000791F8A1F911DA11D6A0F711D811D911DAC
:10550000A11D20D009F468943F912AE0269F112420
:105510003019305D3193DEF6CF010895462F477084
:10552000405D4193B3E00FD0C9F7F6CF462F4F70DF
:10553000405D4A3318F0495D31FD4052419302D03D
:10554000A9F7EACFB4E0A6959795879577956795E3
:10555000BA95C9F700976105710508959B01AC01E3
:105560000A2E06945795479537952795BA95C9F70A
:10557000620F731F841F951FA01D0895F894FFCF1D
:10558000FFFF01FFFFFFFF496E6974696E672E2EF2
:105590002E00414443204572726F72210053312E18
:1055A0002E2E004F4B202053322E2E2E004F4B001C
:1055B0002020202052756E20546573742020203ED8
:1055C00000202020202020202020202020202020FB
:1055D000200020202043616C696272617465202084
:1055E000203E004F323C20204F787967656E2020A6
:1055F00020202B0048652020202020202020202053
:105600002020202D004F3220202048656C69756DC8
:10561000202020202B0048653C2020202020202016
:1056200020202020202D0020204272696768746E9F
:105630006573732020202B00202020202020202094
:10564000202020202020202D0020202020436F6EAD
:1056500074726173742020202B002020456D6572C8
:1056600067656E6379204F32202B002020536574CC
:10567000204F322076616C7665202B002020536508
:10568000742048652076616C7665202B0050494473
:10569000207365747570204D415820202B005049AF
:1056A000442073657475702078313238202B0020C7
:1056B00020536572766F31204D494E2020202B00FB
:1056C0002020536572766F31204D41582020202BC9
:1056D000002020536572766F32204D494E202020E5
:1056E0002B002020536572766F32204D41582020C8
:1056F000202B002020202054696D6572312020204D
:1057000020202B002532752F25327520202532755B
:105710002E253031752F2532752E253031750045F7
:10572000414E25327520203E45414E2532752E25AD
:105730003031753C00742530327563253032752068
:105740007374253032752076253033750043616ED1
:1057500027742063616C696272617465210053650E
:105760006E736F7273206661696C757265210020BB
:105770004D617820646576696174696F6E3A2000C6
:10578000202020202535752075562020202020003F
:10579000202020436865636B696E672E2E2E2020C3
:1057A00000202020202020444F4E45212020202072
:1057B000200053313A2025356C6975562020202071
:1057C0003E0053313A2025356C6975562020202043
:1057D000200053323A2025356C6975562020253239
:1057E000647300506C656173652C207475726E2053
:1057F0006F6E2000796F757220636F6D70726573C4
:10580000736F7221002530337520002530327525E5
:1058100025002533752000202020456D65726765C1
:105820006E6379212020200020204F3220746F6F7A
:10583000206869676821202000436F6D707265736E
:10584000736F723A20204F46460053313A25326C2E
:10585000692E2530316C692053323A25326C692E1D
:105860002530316C69202000253034750053315FBC
:10587000500053315F490053315F440053325F5051
:105880000053325F490053325F44002573202020CB
:10589000253035642020202D0053315F4D415800C4
:1058A00053325F4D4158003C214531204672616DB5
:1058B00065003C214532204F76657272756E003C62
:1058C000214533204F766572666C6F77003E5342F8
:1058D000003E5343003E5345003E534F32003E537B
:1058E0004865003E535631003E535632003E5353F6
:1058F00031003E535332003E53503150003E53501E
:105900003149003E53503144003E5350314D003E2A
:1059100053503250003E53503249003E53503244AF
:10592000003E5350324D003E5353314D494E003EE0
:105930005353324D494E003E5353314D4158003E72
:105940005353324D4158003E53544D52003E47434D
:105950004F4E46003C53314D494E3A253034640D8C
:105960000A3C53324D494E3A253034640D0A3C53BB
:10597000314D41583A253034640D0A3C53324D4183
:10598000583A253034640D0A3C54494D45523A2565
:105990003035640D0A3C42523A253033640D0A3CDE
:1059A00043543A253033640D0A3C4F32454D3A2575
:1059B0003032640D0A003E47504944003C5031707B
:1059C0003A253033640D0A3C5031693A253033644E
:1059D0000D0A3C5031643A253033640D0A3C503294
:1059E000703A253033640D0A3C5032693A25303321
:1059F000640D0A3C5032643A253033640D0A003E8F
:105A00003F003C20253032752F253032752C202563
:105A10003032752F253032752C20253032752C20F0
:105A2000253032752C20253032752E253031752CDD
:105A300020253032752E253031752C2025303364E9
:105A40002C20253033640D0A003E5254003E524350
:025A5000000054
:00000001FF
