:100000000C9465000C9482000C9482000C94820085
:100010000C9482000C9482000C9482000C94820058
:100020000C9482000C9482000C9482000C94820048
:100030000C9482000C9482000C9482000C94820038
:100040000C9482000C9482000C9473070C94820030
:100050000C941C0D0C94510D0C9482000C94820095
:100060000C9482000C9482000C9482000C94820008
:100070000C9482000C9482000C9482004E0F500F5E
:10008000520F540F560F580F5A0F001F0000000058
:100090001F00001F101010101F00001F1818181844
:1000A0001F00001F1C1C1C1C1F00001F1E1E1E1EEC
:1000B0001F00001F1F1F1F1F1F0003070F1F0F0719
:1000C0000300181C1E1F1E1C180011241FBECFEF9A
:1000D000D0E1DEBFCDBF13E0A0E0B1E0E0E5FEE39C
:1000E00002C005900D92A23FB107D9F726E0A2EF1A
:1000F000B3E001C01D92A832B207E1F70E94C61911
:100100000C94261F0C9400003F924F925F926F92C6
:100110007F928F929F92AF92BF92CF92DF92EF9297
:10012000FF920F931F93CF93DF9381E00E94F90614
:10013000DC01CB019C01AD0160E070E080E090E06B
:1001400040585109610971098109910959016A01F0
:100150007B01E82F192F02E00E940F1C0E2F0E9436
:10016000461C59016A017B01E82F192F04E00E9407
:100170000F1C0E2F0E944F1C59016A017B01E82FB2
:10018000192F04E00E940F1C0E2F0E944F1C4901E2
:10019000D42FC52FB62FA72FF82FE92F06E00E94E6
:1001A0000F1C59016A017B018C0194014D2F5C2FBA
:1001B0006B2F7A2F8F2F9E2F0E94461C922EA32EDC
:1001C000B42ED52FC62FB72FF82FE92FA0E00E940D
:1001D000581C84F42150310940485F4F6F4F7F4FC6
:1001E0008F4F9F4F922EA32EB42ED52FC62FB72FF1
:1001F000F82FE92F292D3A2D4B2D5D2F6C2F7B2FBA
:100200008F2F9E2F07E10E94281CC22FB32FF42F9F
:10021000E52F362E472E982ED92FA0E00E94581C8D
:1002200054F40E94C81BC22FB32FF42FE52F362E93
:10023000472E982ED92F8091F4038111ACC05C2EEB
:100240006B2E7F2E8E2EC0933F05B0934005F0930A
:100250004105E0934205A0904F05B0905005C09035
:100260005105D0905205E0905305F090540500914F
:100270005505109156052C2F3B2F4F2F5E2F632DC8
:10028000742D892D9D2F0E94DF1AB0E1AB2EC7E29D
:10029000BC2EC12CD12CE12CF12C00E010E00E94EE
:1002A0003A1B2093470530934805409349055093E6
:1002B0004A05E091710584E0E89FF0011124E957B7
:1002C000FA4F508261827282838281E08093F403CC
:1002D0000E94C0198B3009F053C0609123057091C2
:1002E00024058091250590912605A4E64A2E512CDF
:1002F000612C712CA30192010E946F1A49015A01CD
:1003000030931D0520931C056091470570914805A9
:100310008091490590914A05A30192010E946F1AAC
:10032000CA01B901309319052093180547ED55E02E
:10033000C4010E945A0C90931B0580931A052091CA
:100340001E0530911F05281739077CF440911805C8
:100350005091190580911C0590911D05481759076A
:1003600020F030931B0520931A0560911A057091B7
:100370001B0570931F0560931E0580E00E940A0A0A
:10038000809171058F5F809371058A3008F4ADC04C
:1003900010927105AAC08B2E6F2E5E2EC09343055E
:1003A000B0934405F0934505E0934605A0905705AA
:1003B000B0905805C0905905D0905A05E0905B0563
:1003C000F0905C0500915D0510915E052C2F3B2F90
:1003D0004F2F5E2F632D742D892D9D2F0E94DF1AC4
:1003E000E0E1AE2EF7E2BF2EC12CD12CE12CF12C96
:1003F00000E010E00E943A1B20934B0530934C051F
:1004000040934D0550934E05E091720584E0E89FBE
:10041000F0011124E155FA4FC08381826282538238
:100420001092F4030E94C0198B3009F055C06091FE
:100430002705709128058091290590912A058090C3
:10044000230590902405A0902505B09026058616DA
:100450009706A806B90609F43FC024E6822E912C1F
:10046000A12CB12CA50194010E946F1A29013A0117
:1004700060914B0570914C0580914D0590914E0512
:10048000A50194010E946F1ACA01B901590147EDF3
:1004900055E0C2010E945A0C919581959109909363
:1004A0001B0580931A0520912005309121052817FE
:1004B00039073CF4A414B50420F030931B052093B5
:1004C0001A0560911A0570911B05709321056093C0
:1004D000200581E00E940A0A809172058F5F809357
:1004E00072058A3010F0109272058091F403DF914A
:1004F000CF911F910F91FF90EF90DF90CF90BF9021
:10050000AF909F908F907F906F905F904F903F90B3
:100510000C946A071F93CF93DF930E94960D182FB8
:10052000EC01D0FD1EC0D3FF04C087E091E00E9423
:10053000E60DD2FF04C08AE191E00E94E60DD1FFF2
:1005400004C08FE291E00E94E60D1F3321F487E49E
:1005500091E00E94E60D812FDF91CF911F910C94C5
:10056000CD0DDF91CF911F91089582B9299A289AD4
:100570008FEF91E10197F1F700C0000028982998CA
:100580008FEF91E10197F1F700C00000089582B963
:10059000289A8FEF91E10197F1F700C000002898A9
:1005A0008FEF91E10197F1F700C00000089581E01D
:1005B0000C94C70282E00C94C702EF92FF921F9343
:1005C000CF93DF931F92CDB7DEB7009771F0182F4E
:1005D0007C018E2D811B861740F4F70181917F01EC
:1005E00069830E94B5026981F4CF0F90DF91CF91AA
:1005F0001F91FF90EF900895623031F0633031F039
:10060000613029F4805C03C08C5E01C08C5A806824
:100610000C94C7021F93CF93DF93EC01862F642FB6
:100620000E94FC0210E0FE01E10FF11D849188237D
:1006300029F084910E94B5021F5FF5CFDF91CF9121
:100640001F910895EF92FF920F931F93CF93DF9323
:100650008C0188E0689FB0011124862F8064E82E09
:10066000C0E0D0E0F801EC0FFD1FF4908C2F8E0D50
:100670000E94C7028F2D0E94B5022196C830D10575
:1006800089F7DF91CF911F910F91FF90EF9008951F
:100690001F93CF93DF932FEF87ED90E021508040A1
:1006A0009040E1F700C0000012B815B881B18FEF9B
:1006B00081B984B1836084B980E382B9289A8FEFCD
:1006C00091E10197F1F700C0000028988FEF91E1C8
:1006D0000197F1F700C0000080E382B9289A8FEFFC
:1006E00091E10197F1F700C0000028988FEF91E1A8
:1006F0000197F1F700C0000080E382B9289A8FEFDC
:1007000091E10197F1F700C0000028988FEF91E187
:100710000197F1F700C0000088E382B9289A8FEFB3
:1007200091E10197F1F700C0000028988FEF91E167
:100730000197F1F700C000008CE082B9289A8FEF92
:1007400091E10197F1F700C0000028988FEF99E53B
:100750000197F1F700C00000CAE8D0E060E011E0C6
:10076000160FCE010E9422032896183011F0612F37
:10077000F6CFDF91CF911F910895CF93DF93D82FBC
:10078000C0E0CD1729F08EE10E94C702CF5FF9CFFC
:10079000DF91CF910895CF93DF93D82FC0E0CD178D
:1007A00029F088E10E94C702CF5FF9CFDF91CF9196
:1007B00008958EE00C94C7028FE00C94C7028CE081
:1007C0000C94C70288E00C94C7028CE00C94C7021A
:1007D000CF93DF93D82FC0E0CD1729F080E10E949E
:1007E000C702CF5FF9CFDF91CF910895CF93DF9309
:1007F000D82FC0E0CD1729F084E10E94C702CF5F57
:10080000F9CFDF91CF910895CF92DF92EF92FF92CF
:100810000F931F93CF93DF931F92CDB7DEB756E0B0
:10082000459F90011124E82FE29FC001E39F900DA6
:10083000112470E00E945B1A8B01CB0166E070E02E
:100840000E94471AE82EC12CD12CF12CF416B9F0D5
:1008500096012B5F3F4F0217130728F40C151D0557
:1008600020F08E2D03C085E001C080E049830E9406
:10087000B502F394F6E0CF0ED11C4981E7CF0F907B
:10088000DF91CF911F910F91FF90EF90DF90CF906C
:100890000895AF92BF92CF92DF92EF92FF920F93A3
:1008A0001F93CF93DF93CDB7DEB767970FB6F8945A
:1008B000DEBF0FBECDBF182FD22EC32EB42EA52E55
:1008C00080E84A9947C06D8B7E8B9F8B0E94C70240
:1008D0000E94FD0B9E012F5F3F4F79016D897E893C
:1008E0009F89882339F09F931F937F936F9381E9AA
:1008F00091E006C09F931F937F936F9381EA91E0ED
:100900009F938F93FF92EF920E94641C0FB6F8940E
:10091000DEBF0FBECDBF60E1C7010E94DD021F92A6
:100920000F93AF92BF92CF92DF9281EB91E09F93B2
:100930008F93FF92EF920E94641C80EC0E94C7028A
:1009400060E1C7010E94DD020FB6F894DEBF0FBE62
:10095000CDBF12C00E94C70260E182EC91E00E940C
:10096000DD0280EC0E94C70260E183ED91E00E940D
:10097000DD028FE00E94120E67960FB6F894DEBF7C
:100980000FBECDBFDF91CF911F910F91FF90EF90E0
:10099000DF90CF90BF90AF9008950F931F9394B1C5
:1009A0009F7094B994B1906B94B994E0099F8001C1
:1009B0001124016598E0299F90011124022B20E267
:1009C000829FC0011124082B0CBD81E01F910F9163
:1009D0000895CF93DF9300D000D0CDB7DEB7FC01F0
:1009E000819119821A821B821C829E012F5F3F4FC8
:1009F000D901422F9A2F921B961718F491919D932B
:100A0000F9CF813009F42C98F9019E2F941B961789
:100A100030F491919EBD0DB407FEFDCFF6CF81302D
:100A200009F42C9A862F0F900F900F900F90DF9162
:100A3000CF910895CF93DF93CDB7DEB728970FB648
:100A4000F894DEBF0FBECDBFFC0171911D821E82E6
:100A50001F82188619821A821B821C82AE014B5F8C
:100A60005F4FDA012A2F241B261718F421912D93AA
:100A7000F9CF713009F42C989E012F5F3F4FDA01B6
:100A8000F901422F5E2F521B561740F45D915EBD57
:100A90000DB407FEFDCF5EB55193F4CF713009F46C
:100AA0002C9AFC01D9018A2F841B861718F48D918A
:100AB0008193F9CF862F28960FB6F894DEBF0FBE2C
:100AC000CDBFDF91CF9108958091F203882371F01B
:100AD0008091F2038F5F8093F2038091F20382335F
:100AE00028F081E08093F3031092F20308950F93AE
:100AF000CF93DF9300D000D01F92CDB7DEB785E053
:100B0000E2E0F1E0DE01119601900D928A95E1F7A5
:100B100001E021E040E452E46FE070E080E00E94F8
:100B2000CD0464E0CE0101960E94E9040F900F907D
:100B30000F900F900F90DF91CF910F910895FF923A
:100B40000F931F93CF93DF9300D000D01F92CDB7A8
:100B5000DEB7F62E8E010F5F1F4F95E0F801119260
:100B60009A95E9F749838770F8E08F9FC0011124B7
:100B700080648A8361E06F0DC8010E941A05E1E07C
:100B800060E070E0CB014F2D50E02E2F30E0421797
:100B9000530774F0982F872F762F6627D801A20F5E
:100BA000B31F2C91620F711D811D911DEF5FEDCF61
:100BB0000F900F900F900F900F90DF91CF911F919A
:100BC0000F91FF90089541E061E084E00E949F054D
:100BD0001092F2031092F3036F7081E06B3009F012
:100BE00080E008950F93CF93DF93CDB7DEB72997B9
:100BF0000FB6F894DEBF0FBECDBF4E835F8368870C
:100C00007987FE01319695E0DF011D929A95E9F70B
:100C10002F5F09838770880F880F880F8A83322F90
:100C2000BE016A5F7F4F323050F0CF01830F911DBC
:100C3000DB014D91BD01DC014C933150F4CF622FAB
:100C4000CF010E94E90429960FB6F894DEBF0FBECB
:100C5000CDBFDF91CF910F9108951E99FECF0895DA
:100C6000CF92DF92EF92FF920F936B017C0141E0F4
:100C700062E081E00E949F05AB01BC015F716627C5
:100C80007727D701C6010DE0880F991FAA1FBB1F48
:100C90000A95D1F7AA27BB27482B592B6A2B7B2B08
:100CA00001E022E081E00E94F2050F91FF90EF90B9
:100CB000DF90CF900895CF92DF92EF92FF920F9343
:100CC0006B017C0141E062E082E00E949F05AB0184
:100CD000BC01487F87E0C822DD24EE24FF244C2994
:100CE0005D296E297F2901E022E082E00E94F20561
:100CF0000F91FF90EF90DF90CF900895CF92DF9209
:100D0000EF92FF920F936B017C0141E062E082E081
:100D10000E949F05AB01BC01587F87E0C822DD24FB
:100D2000EE24FF24FE2CED2CDC2CCC244C295D2958
:100D30006E297F2901E022E082E00E94F2050F91F6
:100D4000FF90EF90DF90CF9008950F93CF93C82F2F
:100D500041E062E082E00E949F05AB01BC014F7759
:100D600020E8C29FC00111249927AA2797FDA095CA
:100D7000BA2F482B592B6A2B7B2B01E022E082E013
:100D80000E94F205CF910F9108950F93CF93C82F32
:100D900070E080E090E00E945B0641E062E081E06C
:100DA0000E949F054C2F50E0542F44275295550F19
:100DB000507E60E070E001E022E081E00E94F205F8
:100DC000CF910F910C942D060F932C9800E022E008
:100DD00040E050E260E070E081E00E94F2050E9495
:100DE0002D0640E063E083E00E949F052C9A0F915E
:100DF0000895CF92DF92EF92FF920F93CF93DF93FC
:100E0000C82F01E022E040E050E0BA0181E00E94FA
:100E1000F205D0E0C12CD12C7601DC1759F041E06D
:100E200063E083E00E949F05C60ED71EE81EF91EF0
:100E3000DF5FF3CF2D2F30E040E050E0C701B60177
:100E40000E946F1ACA01B901DF91CF910F91FF90F3
:100E5000EF90DF90CF9008950F931F93613029F0AA
:100E600000E810E020E030E004C000E810E420E0FA
:100E700030E0482F477050E060E070E040615C6017
:100E8000402B512B622B732B01E022E082E00E9469
:100E9000F2051F910F9108950F93CF93C82F61E032
:100EA0000E942C07369B13C00E942D066C2F84E0F5
:100EB0000E94C5066C2F85E00E94C50601E022E075
:100EC00043E050E060E070E081E00E94F205CF91E5
:100ED0000F91089560E00E942C0781E08093F20357
:100EE0001092F30308951F920F920FB60F921124E0
:100EF0002F933F934F935F936F937F938F939F9322
:100F0000AF93BF93EF93FF938091ED05893040F14C
:100F10008091830590918405019690938405809338
:100F200083051092ED050E946405809183059091E0
:100F3000840522E330E0B9010E94471A892B09F0A9
:100F400043C08091830590918405B9010E94471A9E
:100F5000892B19F481E0809385050E94370E34C0F7
:100F60008091ED05813081F5809183059091840514
:100F700064E670E00E94471A892B31F58091830561
:100F80009091840564EF71E00E94471A892BC9F49F
:100F9000809183059091840568EE73E00E94471A62
:100FA000892B49F48091EE059091EF05019690937D
:100FB000EF058093EE059091F70381E0891B809304
:100FC000F70381E0809386058091ED058F5F809324
:100FD000ED05FF91EF91BF91AF919F918F917F911F
:100FE0006F915F914F913F912F910F900FBE0F9096
:100FF0001F9018958091F70308958091F703882337
:1010000051F08091F6038111419A8091F503882374
:1010100021F0439A08954198439808958091F603EA
:1010200008958091F50308951092F60308951092A3
:10103000F50308958093F6036093F5030895809176
:1010400086050895109285050895109286050895E5
:101050008091850508958091EE059091EF050895A2
:101060004EE050E068E170E08DE295E00E94581E8D
:101070004CE050E06CE070E08EE096E00E94581E7C
:101080004CE050E060E070E082EF95E00E94581E76
:1010900080910E0690910F06A0E0B0E080932305AA
:1010A00090932405A0932505B093260580932705EA
:1010B00090932805A0932905B0932A0508954EE042
:1010C00050E068E170E08AE196E00E94581E2091AD
:1010D0002D0530912E0580911A0690911B06281738
:1010E000390709F043C020912F05309130058091D8
:1010F0001C0690911D0628173907C1F5209131056E
:101100003091320580911E0690911F0628173907ED
:1011100069F5209133053091340580912006909136
:1011200021062817390711F520913505309136052C
:10113000809122069091230628173907B9F49091DF
:10114000370580912406981311C09091380580913D
:10115000250698130BC02091390530913A058091EE
:101160002606909127062817390741F04EE050E0F7
:1011700068E170E08DE295E00C94681E08954CE003
:1011800050E06CE070E083E795E00E94581E2091EB
:1011900073053091740580910E0690910F06281703
:1011A0003907A9F44091750550917605609177054E
:1011B000709178058091100690911106A091120609
:1011C000B0911306481759076A077B0741F04CE0B6
:1011D00050E06CE070E08EE096E00C94681E08959C
:1011E0004CE050E060E070E082E096E00E94581E23
:1011F00020910206309103068091F2059091F3054B
:1012000028173907B9F52091040630910506809119
:10121000F4059091F5052817390761F52091060628
:10122000309107068091F6059091F7052817390748
:1012300009F520910806309109068091F8059091F2
:10124000F90528173907B1F420910A0630910B06E9
:101250008091FA059091FB052817390759F42091E0
:101260000C0630910D068091FC059091FD05281724
:10127000390741F04CE050E060E070E082EF95E02B
:101280000C94681E089584B18C6084B987B18F6016
:1012900087B98AB1806C8AB9529853985A9A5B9AE6
:1012A0003C983D983E983F98449A459A469A479A6A
:1012B000E0EBF0E08081836A8083E1EBF0E0808105
:1012C00086608083809137058093B30080913805D4
:1012D0008093B40085B5826085BD16BCEEE6F0E073
:1012E000808181608083E0E8F0E08081826A808391
:1012F000E1E8F0E080818B618083809135059091F9
:10130000360590938700809386008AB180638AB9FE
:1013100080912D0590912E059093890080938800EF
:1013200080912F059091300590938B0080938A00D7
:1013300008958093B30008958093B40008950E94A7
:10134000D70260E083E00E94FC026AE084EE91E054
:101350000E94DD020E9477050E94E30581110BC007
:101360000E94D70260E082E00E94FC026AE08FEEF9
:1013700091E00C94DD0261E080E00E94FC0265E0F7
:101380008AEF91E00E94DD0280E00E944C0769E054
:1013900080E092E00E94DD0281E00E944C0762E062
:1013A0008AE092E00E94DD021092F4038091F4033F
:1013B0000E946A070C94D7020E9430080E944309D9
:1013C0000E9448030E94D7020E949F0989E090E092
:1013D0000E947D0D80910E0690910F0681349C49EC
:1013E00030F080E49CE990930F0680930E06349BC6
:1013F000FECF359BFCCF369BFACF379BF8CF8FEFD4
:101400009FE628E0815090402040E1F700C00000B6
:1014100078940895CF93DF93DB016F3F710509F056
:101420002CF477FF05C0A0E0B0E002C0AFEFB0E061
:1014300081111DC0A0932B05C0912D05D0912E05C3
:1014400020913105309132052C1B3D0B0E94C51AAD
:101450002FEF30E040E050E00E946F1A2C0F3D1F4C
:10146000411D511D30938B0020938A001CC0A09316
:101470002C05C0912F05D091300520913305309176
:1014800034052C1B3D0B0E94C51A2FEF30E040E0C5
:1014900050E00E946F1A2C0F3D1F411D511D3093CB
:1014A000890020938800DF91CF91089560E070E07B
:1014B00080E00E940A0A60E070E081E00E940A0A6F
:1014C0002FEF8FE19CE1215080409040E1F700C078
:1014D00000006FEF70E080E00E940A0A6FEF70E09A
:1014E00081E00E940A0A2FEF8FE398E321508040A9
:1014F0009040E1F700C0000060E070E080E00E94F2
:101500000A0A2FEF8FE398E3215080409040E1F7E3
:1015100000C0000060E070E081E00E940A0A2FEF46
:101520008FE398E3215080409040E1F700C0000035
:101530002A9A429A2FEF8FE19CE1215080409040FF
:10154000E1F700C000002B9A409A2FEF8FE19CE159
:10155000215080409040E1F700C00000419A439A3A
:101560002FEF8FE19CE1215080409040E1F700C0D7
:1015700000002A982B9842984098419843980895E3
:101580000F931F93809114069091150620910E06DB
:1015900030910F06A90148515C4F4817590748F48C
:1015A000E1E048515C4F4817590708F0E0E0F1E0EE
:1015B00002C0E0E0F0E0A901485E534084179507BF
:1015C00038F4205D37408217930708F4E1E0F1E03A
:1015D00040912305509124056091250570912605C1
:1015E0008091270590912805A0912905B0912A05A1
:1015F000481759076A077B07F1F180911606909109
:101600001706A0911806B091190640911006509146
:10161000110660911206709113068A019B01085110
:101620001C4F2F4F3F4F081719072A073B0768F435
:101630008A019B010053184F2F4F3F4F081719077E
:101640002A073B0708F4E1E0F1E08A019B01085E0C
:1016500013402109310980179107A207B30758F4F5
:10166000405D57406109710984179507A607B707C0
:1016700008F4E1E0F1E0F093F603E093F5031F9145
:101680000F9108950F931F934A9923C040913905F4
:1016900050913A0560E070E08091470590914805CF
:1016A000A0914905B0914A05481759076A077B0779
:1016B00080F081E000914B0510914C0520914D0583
:1016C00030914E05401751076207730718F080E00C
:1016D00001C081E01F910F9108954F925F926F9228
:1016E0007F928F929F92AF92BF92CF92DF92EF92B2
:1016F000FF920F931F930091870510918805209109
:10170000890530918A05480159014091AF055091F2
:10171000B0056091B1057091B205E7E8F5E0AFEA78
:10172000B5E06A017B014190519061907190401643
:1017300051066206730610F4930182018414950425
:10174000A604B70410F4530142014D905D906D90D2
:101750007D90441655066606770610F4B301A20183
:10176000C414D504E604F70410F47301620185E0A3
:10177000EF3AF807C1F600933B0510933C05209320
:101780003D0530933E0580927F0590928005A092A2
:101790008105B09282054093E9055093EA05609374
:1017A000EB057093EC05C092FE05D092FF05E09228
:1017B0000006F0920106801A910AA20AB30A970164
:1017C0008601041B150B260B370BC901B801081540
:1017D00019052A053B0510F4C501B4011F910F91AD
:1017E000FF90EF90DF90CF90BF90AF909F908F9041
:1017F0007F906F905F904F9008950E946D0B653FB2
:1018000071408105910540F580913B0590913C0523
:10181000A0913D05B0913E0580379741A105B105E6
:10182000D8F08091E9059091EA05A091EB05B0917F
:10183000EC0580379741A105B10570F081E040913A
:10184000FE055091FF056091000670910106493434
:1018500051476105710508F080E00895CF93DF934B
:10186000EB01F90112821382148215821182108217
:10187000978386837187608753874287BC016F5F38
:101880007F4F8FEF9FE70E945B1A75876487BE01C9
:101890006F5F7F4F8FEF9FE30E945B1ACB01AA27F8
:1018A00097FDA095BA2F86879787A08BB18BDF9184
:1018B000CF9108958F929F92AF92BF92CF92DF9275
:1018C000EF92FF92CF93DF93EB01FA016C01E12CD1
:1018D000F12CC61AD70AE108F10824853585C9011B
:1018E000AA2797FDA095BA2F8C159D05AE05BF05BB
:1018F000B4F088279927821B930BAA2797FDA09500
:10190000BA2FC816D906EA06FB0684F0A681B7816D
:10191000A70196010E94D71A4B015C010EC08824D2
:101920008A949FE7992EA12CB12C07C08824839418
:1019300080E8982EAA24AA94BA2C2281338144816B
:1019400055812C0D3D1D4E1D5F1D86859785A089F7
:10195000B18982179307A407B5074CF48283938358
:10196000A483B5836FEF7FE380E090E01DC0B09566
:10197000A095909581959F4FAF4FBF4F281739077E
:101980004A075B074CF482839383A483B58361E0A9
:1019900070EC8FEF9FEF08C022833383448355831D
:1019A000A085B1850E94D71A208131812C1B3D0B67
:1019B00042855385249F6001259FD00C349FD00C15
:1019C0001124EE24D7FCE094FE2CD183C083680D53
:1019D000791D8A1D9B1D6C0D7D1D8E1D9F1D20E890
:1019E00030E040E050E00E94911A213080E8380752
:1019F0008FEF4807580724F421E030E84FEF5FEFFE
:101A0000DA01C901253631054105510524F084E686
:101A100090E0A0E0B0E0DF91CF91FF90EF90DF90F9
:101A2000CF90BF90AF909F908F900895FC0112824D
:101A300013821482158208951F920F920FB60F928F
:101A400011242F933F934F935F938F939F93EF9323
:101A5000FF934091C0005091C60048718091FA03F5
:101A600090E001968F7799272091F90330E0821753
:101A7000930739F08093FA03FC01E350FC4F508345
:101A800001C042E04093F803FF91EF919F918F9145
:101A90005F914F913F912F910F900FBE0F901F902C
:101AA00018951F920F920FB60F9211248F939F9348
:101AB000EF93FF939091FC038091FB03981779F0CB
:101AC0008091FB0390E001968F7799278093FB0329
:101AD000FC01E358FB4F80818093C60005C08091D4
:101AE000C1008F7D8093C100FF91EF919F918F91F5
:101AF0000F900FBE0F901F9018951092FC0310923C
:101B0000FB031092FA031092F90397FF04C022E03E
:101B10002093C0009F779093C5008093C40088E90C
:101B20008093C10086E08093C20008959091FA03EB
:101B30008091F9039817A1F08091F90390E0019644
:101B40008F7799278093F903FC01E350FC4F2081A4
:101B50008091F80390E0982F8827820F911D0895B7
:101B600080E091E008959091FA038091F90398172D
:101B700089F0E091F903F0E03196EF77FF27E35029
:101B8000FC4F20818091F80390E0982F8827820FE6
:101B9000911D089580E091E008952091FC0330E0CC
:101BA0002F5F3F4F2F7733274091FB0350E02417DF
:101BB0003507D1F3F901E358FB4F80832093FC03F1
:101BC0008091C10080628093C1000895CF93DF931C
:101BD000EC018991882319F00E94CD0DFACFDF9195
:101BE000CF910895CF93DF93FC018491EF0121966B
:101BF000882321F00E94CD0DFE01F7CFDF91CF9118
:101C000008958091FA032091F90390E080589F4F46
:101C1000821B91098F77992708958091F90380930A
:101C2000FA030895CF93C82F0E942B088C0F911DA3
:101C30009093FF048093FE04CF910895CF93DF9398
:101C4000C091FE04D091FF040E942B088C179D07C1
:101C500050F4C091FE04D091FF040E942B089C2FE9
:101C6000981B892F01C080E0DF91CF9108953499AE
:101C700008C08091F0058F3F31F0815F8093F005BF
:101C800002C01092F005359908C08091F1058F3F90
:101C900031F0815F8093F10508951092F105089568
:101CA00086E4809322052A982B984298409860E019
:101CB00080E00E94FC0260E18DE092E00E94DD0283
:101CC00061E080E00E94FC0260E18EE192E00C9411
:101CD000DD0287E4809322052A982B984298409849
:101CE00060E080E00E94FC0260E18FE292E00E94EE
:101CF000DD0261E080E00E94FC0260E18EE192E0A2
:101D00000C94DD0284E1809322052A982B98429856
:101D1000409860E080E00E941A0860E070E080E097
:101D20000E940A0A60E070E081E00E940A0A60E016
:101D300080E00E94FC0260E180E492E00E94DD020B
:101D400061E080E00E94FC0260E181E592E00C9499
:101D5000DD0285E1809322052A982B9842984098CD
:101D600060E080E00E94FC0260E182E692E00E9476
:101D7000DD0261E080E00E94FC0260E183E792E026
:101D80000C94DD0282E3809322052A982B984298D6
:101D9000409860E080E00E94FC0260E184E892E00C
:101DA0000E94DD0261E080E00E94FC0260E185E9C2
:101DB00092E00C94DD0283E3809322052A982B980D
:101DC0004298409860E080E00E94FC0260E186EA70
:101DD00092E00E94DD0261E080E00E94FC0260E18E
:101DE00085E992E00C94DD0284E3809322052A9831
:101DF0002B984298409860E080E00E94FC0260E1ED
:101E000087EB92E00E94DD0261E080E00E94FC022C
:101E100060E185E992E00C94DD028CE38093220579
:101E20002A9A2B98429A409860E080E00E94FC0237
:101E300060E188EC92E00E94DD0261E080E00E94B7
:101E4000FC0260E185E992E00C94DD028DE3809371
:101E500022052A982B9A4298409A60E080E00E94DE
:101E6000FC0260E189ED92E00E94DD0261E080E029
:101E70000E94FC0260E185E992E00C94DD02809111
:101E80000101992787FD9095A92FB92F87309105DA
:101E900098F4FC01E25CFF4F0C94B01A0C94C20E53
:101EA0000C94DB0E0C94F40E0C940D0F0C94260F76
:101EB0000C94500E0C94690E08950F931F9380910B
:101EC0004B0590914C05A0914D05B0914E05909316
:101ED0001506809314060091230510912405209186
:101EE00025053091260540912705509128056091E0
:101EF000290570912A05041715072607370749F4A5
:101F000010921606109217061092180610921906D3
:101F10002DC09C01AD0144275527A0E1B7E20E94E6
:101F2000CC1A2091470530914805409149055091C0
:101F30004A050E946F1AAAE0B0E00E94CC1A613AEA
:101F400026E8720721E082079105D0F600EA16E83C
:101F500021E030E0061B170B280B390B0093160607
:101F60001093170620931806309319061F910F91AE
:101F700008950F931F9320910E0630910F06A0E154
:101F8000B7E20E94B61A2091390530913A05205DDA
:101F9000374040E050E00E946F1AAAE0B0E00E9493
:101FA000CC1A8B019C01013A86E8180781E02807CA
:101FB000310548F460EA76E881E090E0601B710B3F
:101FC000820B930B03C060E070E0CB011F910F9177
:101FD0000895CF92DF92EF92FF920F931F93CF93CA
:101FE000DF938091390590913A0520910E0630914A
:101FF0000F0628573C4E8217930730F488589341B8
:1020000090930F0680930E06C0901006D090110694
:10201000E0901206F09013060E94B90F6C157D0532
:102020008E059F0540F4609310067093110680930F
:102030001206909313060091230510912405209118
:10204000250530912605409127055091280560917E
:10205000290570912A05C0910E06D0910F0604172C
:1020600015072607370761F4CE01A0E0B0E08093A2
:10207000230590932405A0932505B09326052EC033
:102080009E01A4E6B0E00E94B61A6B017C0160914B
:10209000100670911106809112069091130628EE99
:1020A00033E040E050E00E946F1ADA01C90124E6F3
:1020B00030E040E050E0281B390B4A0B5B0BC701B6
:1020C000B6010E946F1A2093230530932405409394
:1020D000250550932605CE01A0E0B0E080932705AA
:1020E00090932805A0932905B0932A05DF91CF91FD
:1020F0001F910F91FF90EF90DF90CF9008952F9256
:102100003F924F925F926F927F928F929F92AF9287
:10211000BF92CF92DF92EF92FF920F931F93CF93D4
:10212000DF93CDB7DEB766970FB6F894DEBF0FBE6C
:10213000CDBF60914B0570914C0580914D059091FC
:102140004E054090470550904805609049057090B5
:102150004A0528EEC22E23E0D22EE12CF12CA70155
:1021600096010E946F1A122F032F342E252E34E66B
:10217000832E912CA12CB12CA50194010E946F1AE1
:102180005F934F933F932F932F923F920F931F9301
:10219000C301B201A70196010E946F1A122F032FEB
:1021A000742E652EA50194010E946F1A5F934F93C0
:1021B0003F932F936F927F920F931F938AEE92E03B
:1021C0009F938F938E010F5F1F4F1F930F930E945A
:1021D000641C0E945D0F80910E0690910F0628EE00
:1021E00033E0B9010E94471A762E672E80901006C0
:1021F00090901106A0901206B090130680911406DC
:1022000090911506B9010E94471A6D8B7E8B6091E3
:1022100016067091170680911806909119060FB650
:10222000F894DEBF0FBECDBF81149104A104B104A8
:10223000A1F1209023053090240540902505509071
:1022400026052091270530912805409129055091B8
:102250002A052216330644065506F9F0409A2B9AB1
:10226000A70196010E946F1A1F922F933E893F93F8
:102270008D898F93C501B401A70196010E946F1A41
:102280001F922F936F927F9288E093E09F938F939A
:102290001F930F930E94641C0EC03E893F938D894B
:1022A0008F936F927F928DE193E09F938F931F9313
:1022B0000F930E94641C0FB6F894DEBF0FBECDBF13
:1022C00060E080E00E94FC0260E1C8010E94DD0243
:1022D00066960FB6F894DEBF0FBECDBFDF91CF91EB
:1022E0001F910F91FF90EF90DF90CF90BF90AF9034
:1022F0009F908F907F906F905F904F903F902F9026
:1023000008959BE090932205429A2A9A882331F1FE
:102310000E945F080E94BF080E94F0084091F605E5
:102320005091F7056091F4057091F50527ED35E0C2
:102330008091F2059091F3050E942E0C4091FC05CE
:102340005091FD056091FA057091FB052FE535E090
:102350008091F8059091F9050E942E0C0C947F1045
:102360008F929F92AF92BF92CF92DF92EF92FF92A5
:102370000F931F93CF93DF93CDB7DEB765970FB65B
:10238000F894DEBF0FBECDBF80910E0690910F0670
:1023900068EE73E00E94471A062FB72E609147053A
:1023A000709148058091490590914A0548EEC42EE8
:1023B00043E0D42EE12CF12CA70196010E946F1A64
:1023C000A22E60912305709124058091250590919E
:1023D0002605A70196010E946F1A922E60911006A1
:1023E000709111068091120690911306A701960133
:1023F0000E946F1A122F60914B0570914C058091CD
:102400004D0590914E05A70196010E946F1A822EEC
:1024100060912705709128058091290590912A05E2
:10242000A70196010E946F1A60E080E02D8B0E9448
:10243000FC0280912B051F928F931F929F921F92F7
:10244000AF92BF920F9350E3C52E53E0D52EDF928B
:10245000CF92CE0101967C01FF928F930E94641C63
:1024600060E1C7010E94DD0261E080E00E94FC02A1
:1024700080912C051F928F931F922D892F931F926D
:102480008F921F921F93DF92CF92FF92EF920E9442
:10249000641C60E1C7010E94DD020FB6F894DEBF44
:1024A0000FBECDBF65960FB6F894DEBF0FBECDBF91
:1024B000DF91CF911F910F91FF90EF90DF90CF9020
:1024C000BF90AF909F908F900895419A60E080E018
:1024D0000E94FC0260E188E493E00E94DD0261E07A
:1024E00080E00E94FC0260E189E593E00C94DD024B
:1024F000809122059CEE980F923058F44A9914C0AE
:102500004B9912C081E00E9481118EE10E94120E4F
:1025100008C08B3049F44A9902C04B9B05C00E9409
:10252000820E81E08093020580910205811183C0B3
:10253000809122058A3009F07EC04A997CC0349986
:1025400036C060E080E00E94FC0260E18AE693E031
:102550000E94DD0261E080E00E94FC020E946D0B9F
:102560007F936F938BE793E09F938F9384E095E045
:102570009F938F930E94641C60E184E095E00E9429
:10258000DD022FEF8FE790E7215080409040E1F788
:1025900000C000000E94FD0B0F900F900F900F9055
:1025A0000F900F90882329F10E94820E0EC0359B58
:1025B000C8CF369BC6CF379BC4CF0E941E0E882340
:1025C00009F4BFCF38C0359903C0349BFECFFBCF91
:1025D000369BFBCF379BF9CF2FEF8FE995E021504A
:1025E00080409040E1F700C0000081E08093020548
:1025F00022C00E9465122FEF8FE790E721508040A4
:102600009040E1F700C00000439A2FEF8FEB98EA6B
:10261000215080409040E1F700C00000349BFECF85
:10262000359BFCCF369BFACF379BF8CF4198439828
:102630008FE00E94120E8091020581113AC0349BF6
:1026400006C0359B04C0369B02C0379932C08091CA
:102650002205843129F436990AC00E94A90E1AC0B5
:10266000853129F4379903C00E94820E13C08091EE
:10267000010187FD12C0369906C08F5F873044F094
:102680001092010107C0379908C0815008F486E014
:102690008093010181E08093020590910001809177
:1026A0000101981731F00E943F0F80910101809342
:1026B0000001349B09C0359B07C0369B05C0379B82
:1026C00003C0109202050895809102058130B1F493
:1026D00080912205823390F0379910C036990EC050
:1026E0008FEF80930101809300010E94820E0E946F
:1026F000E90F0E945F0882E0809302058091020545
:10270000813081F4809122058451823058F43799C8
:1027100009C0369907C0109201010E943F0F82E064
:102720008093020580910205882349F02FEF8FECFA
:1027300092E0215080409040E1F700C000000895F1
:1027400060E08FE00E94FC0261E08DE292E00E9476
:10275000DD0261E080E00E94FC0260E18BE893E032
:102760000E94DD020E94560A61E080E00E94FC02A5
:1027700060E18CE993E00E94DD022FEF8FE398E3A4
:10278000215080409040E1F700C000000C94500EB2
:102790008091F105882381F08F3F11F49AE001C008
:1027A00091E080913705981720F4891B80933705B5
:1027B00003C08111109237058091F0058823C9F07C
:1027C0008F3F11F45AE001C051E040913705242FAA
:1027D00030E08FEF90E0851B91092817390724F42A
:1027E000450F4093370505C04F3F19F08FEF809399
:1027F0003705809137051F928F938DEA93E09F9361
:102800008F9384E095E09F938F930E94641C61E016
:1028100080E00E94FC0264E084E095E00E94DD021A
:1028200061E084E00E94FC024AE06FEF809137058E
:102830000E94040461E08EE00E94FC0262E083EAF0
:1028400092E00E94DD020F900F900F900F900F907A
:102850000F90809137050C9499098091F105882398
:1028600081F08F3F11F49AE001C091E0809138052A
:10287000981720F4891B8093380503C081111092AA
:1028800038058091F0058823C9F08F3F11F45AE094
:1028900001C051E040913805242F30E08FEF90E0E7
:1028A000851B91092817390724F4450F40933805F3
:1028B00005C04F3F19F08FEF8093380580913805A0
:1028C0001F928F938DEA93E09F938F9384E095E01E
:1028D0009F938F930E94641C61E080E00E94FC0241
:1028E00064E084E095E00E94DD0261E084E00E9403
:1028F000FC024AE06FEF809138050E94040461E019
:102900008EE00E94FC0262E083EA92E00E94DD0217
:102910000F900F900F900F900F900F9080913805AF
:102920000C949C098091F1058823F1F08F3F19F4F4
:1029300080ED97E002C088EE93E020913905309158
:102940003A05AC01485F5D4A4217530738F4281B2B
:10295000390B30933A052093390506C088E092E59B
:1029600090933A05809339058091F005882341F1D1
:102970008F3F19F420ED37E002C028EE33E0E091FC
:102980003905F0913A05AF0160E070E088EE9DEF07
:10299000A0E0B0E0821B930BA109B10948175907C9
:1029A0006A077B073CF42E0F3F1F30933A052093B4
:1029B000390506C088EE9DEF90933A05809339055E
:1029C0008091390590913A0568EE73E00E94471AAC
:1029D0007F936F9383EB93E09F938F9384E095E0D5
:1029E0009F938F930E94641C61E087E00E94FC0229
:1029F0000F900F900F900F900F900F9063E084E076
:102A000095E00C94DD028091F105882379F08F3FE9
:102A100011F48AE001C081E090910105891720F44A
:102A2000981B9093010502C0109201058091F0055A
:102A30008823B9F08F3F11F44AE001C041E0509182
:102A40000105252F30E08FEF90E0841B91092817B6
:102A5000390724F4450F4093010503C08FEF80939D
:102A60000105809101051F928F938AEB93E09F935C
:102A70008F9384E095E09F938F930E94641C61E0A4
:102A800080E00E94FC0264E084E095E00E94DD02A8
:102A900061E084E00E94FC024AE06FEF8091010552
:102AA0000E94040461E08EE00E94FC0262E083EA7E
:102AB00092E00E94DD020F900F900F900F900F9008
:102AC0000F906091010570E080E00C940A0A8091FB
:102AD000F105882379F08F3F11F48AE001C081E08D
:102AE00090910005891720F4981B9093000502C06F
:102AF000109200058091F0058823B9F08F3F11F402
:102B00004AE001C041E050910005252F30E08FEFF1
:102B100090E0841B91092817390724F4450F40934E
:102B2000000503C08FEF80930005809100051F9280
:102B30008F938AEB93E09F938F9384E095E09F932C
:102B40008F930E94641C61E080E00E94FC0264E0BC
:102B500084E095E00E94DD0261E084E00E94FC02D6
:102B60004AE06FEF809100050E94040461E08EE06E
:102B70000E94FC0262E083EA92E00E94DD020F9074
:102B80000F900F900F900F900F906091000570E0E4
:102B900081E00C940A0ACF92DF92EF92FF920F939A
:102BA0001F93CF93DF938091F1058823F1F08F3F3E
:102BB00019F480ED97E002C088EE93E020910E06B4
:102BC00030910F06AC014053584F4217530738F469
:102BD000281B390B30930F0620930E0606C080ED9C
:102BE00097E090930F0680930E068091F00588235E
:102BF00011F18F3F19F480ED97E002C088EE93E069
:102C000040910E0650910F062091390530913A05FA
:102C100028583341B901681B790B4617570738F418
:102C2000840F951F90930F0680930E0604C0309377
:102C30000F0620930E0680910E0690910F0668EE07
:102C400073E00E94471A7F936F9383EB93E09F9307
:102C50008F9384E095E09F938F930E94641C61E0C2
:102C600087E00E94FC0263E084E095E00E94DD02C0
:102C7000C0901006D0901106E0901206F090130656
:102C80000E94B90F0F900F900F900F900F900F9020
:102C90006C157D058E059F0540F4609310067093BA
:102CA000110680931206909313060091230510914C
:102CB0002405209125053091260540912705509146
:102CC00028056091290570912A05C0910E06D091C2
:102CD0000F06041715072607370761F4CE01A0E099
:102CE000B0E08093230590932405A0932505B0932D
:102CF00026052EC09E01A4E6B0E00E94B61A6B0124
:102D00007C016091100670911106809112069091DD
:102D1000130628EE33E040E050E00E946F1ADA011B
:102D2000C90124E630E040E050E0281B390B4A0B93
:102D30005B0BC701B6010E946F1A209323053093E5
:102D400024054093250550932605CE01A0E0B0E070
:102D50008093270590932805A0932905B0932A0511
:102D6000DF91CF911F910F91FF90EF90DF90CF9067
:102D700008958091F1058823D9F08F3F19F420ED53
:102D800037E002C028EE33E080910E0690910F06E6
:102D9000A901485F5D4A4817590718F4821B930B35
:102DA00002C088E092E590930F0680930E0602C061
:102DB00020E030E08091F005882311F18F3F19F475
:102DC00020ED37E002C028EE33E040910E0650912E
:102DD0000F068091390590913A0588589341BC01BE
:102DE000621B730B4617570738F4420F531F50935B
:102DF0000F0640930E0604C090930F0680930E06B4
:102E000080910E0690910F06A0E0B0E0809323051C
:102E100090932405A0932505B0932605809327055C
:102E200090932805A0932905B0932A05232B51F0F0
:102E300080E00E94811160E080E00E941A088AE030
:102E40000C94120E08958F929F92AF92BF92CF92E0
:102E5000DF92EF92FF920F931F93CF93DF938091B6
:102E6000F105882359F18F3F19F480ED97E002C0F6
:102E700088EE93E040911006509111066091120681
:102E800070911306A0E0B0E084179507A607B70776
:102E900068F4481B590B6A0B7B0B40931006509348
:102EA0001106609312067093130608C01092100664
:102EB0001092110610921206109213068091F005DE
:102EC000882399F18F3F19F400ED17E002C008EE56
:102ED00013E0C0901006D0901106E0901206F0901A
:102EE00013060E94B90F20E030E04B015C01801A0C
:102EF000910AA20AB30AC814D904EA04FB0468F4CC
:102F0000C00ED11EE21EF31EC0921006D092110612
:102F1000E0921206F092130608C0609310067093B8
:102F2000110680931206909313066091100670911B
:102F300011068091120690911306E8EECE2EE3E082
:102F4000DE2EE12CF12CA70196010E946F1A1F9230
:102F50002F9383EB93E09F938F9384E095E09F936F
:102F60008F930E94641C61E087E00E94FC0263E092
:102F700084E095E00E94DD02C0910E06D0910F061C
:102F80009E01A4E6B0E00E94B61A4B015C0160917C
:102F90001006709111068091120690911306A701F8
:102FA00096010E946F1ADA01C90124E630E040E080
:102FB00050E0281B390B4A0B5B0BC501B4010E9482
:102FC0006F1A2093230530932405409325055093D1
:102FD0002605CE01A0E0B0E0809327059093280558
:102FE000A0932905B0932A050F900F900F900F9092
:102FF0000F900F90DF91CF911F910F91FF90EF9065
:10300000DF90CF90BF90AF909F908F9008954F9298
:103010005F926F927F928F929F92AF92BF92CF9268
:10302000DF92EF92FF920F931F93CF93DF930E9453
:10303000420B882381F181E080932205419A439AD3
:103040002A982B984298409860E080E00E94FC0209
:1030500060E18FEB93E00E94DD0261E080E00E947E
:10306000FC0260E14A9903C080ED93E002C081EE6A
:1030700093E0DF91CF911F910F91FF90EF90DF9040
:10308000CF90BF90AF909F908F907F906F905F9008
:103090004F900C94DD0280910305811161C00E9464
:1030A0007F1060914B0570914C0580914D0590917A
:1030B0004E05409047055090480560904905709036
:1030C0004A05F8EE8F2EF3E09F2EA12CB12CA5011E
:1030D00094010E946F1AE901142F052FA4E6CA2E4D
:1030E000D12CE12CF12CA70196010E946F1A5F935D
:1030F0004F933F932F930F931F93DF93CF93C3016E
:10310000B201A50194010E946F1AE901142F052F45
:10311000A70196010E946F1A5F934F933F932F93DD
:103120000F931F93DF93CF938AEE92E09F938F9339
:1031300084E095E09F938F930E94641C61E080E09F
:103140000E94FC0260E184E095E00E94DD028DB700
:103150009EB744960FB6F8949EBF0FBE8DBF02C0B7
:103160000E94B0110E941E0E811112C0DF91CF91FA
:103170001F910F91FF90EF90DF90CF90BF90AF9095
:103180009F908F907F906F905F904F900C94C00AAB
:10319000DF91CF911F910F91FF90EF90DF90CF9033
:1031A000BF90AF909F908F907F906F905F904F9067
:1031B0000895CF92DF92EF92FF920F93CF93DF9318
:1031C000809122058A3009F05AC0B0E2CB2EBBE1D3
:1031D000DB2EBCE7EB2EBCE0FB2E20913F053091AF
:1031E00040054091410550914205C701B6010E943A
:1031F0006F1ADA01C90120934F0590935005A093EF
:103200005105B09352051092530510925405109237
:103210005505109256052091430530914405409183
:10322000450550914605C701B6010E946F1ADA01A3
:10323000C9012093570590935805A0935905B09361
:103240005A0510925B0510925C0510925D05109274
:103250005E050E941E0E082F209143053091440503
:10326000409145055091460560913F05709140059C
:1032700080914105909142050E9449046CC08634BA
:1032800029F4349968C00E94A01365C0873489F47A
:10329000349961C08AE080932205349BFECF359B30
:1032A000FCCF369BFACF379BF8CF8FE00E94120EEF
:1032B00052C0823319F40E94C8134DC0833319F4ED
:1032C0000E942D1448C0843319F40E94921443C004
:1032D0008C3319F40E9403153EC08D3319F40E94FB
:1032E000671539C0843119F40E94CB1534C08B3076
:1032F00071F5349B02C0359918C040912305509157
:1033000024056091250570912605809127059091EF
:103310002805A0912905B0912A05481759076A0781
:103320007B0719F40E94B91616C0369906C0379962
:1033300004C081E0809303050EC037990CC0369B12
:103340000AC01092030580E00E94811104C08531FB
:1033500011F40E942317809122058B3049F4DF91EC
:10336000CF910F91FF90EF90DF90CF900C940718C2
:10337000DF91CF910F91FF90EF90DF90CF90089564
:10338000809122050895809322050895CF93DF93BD
:10339000CDB7DEB769970FB6F894DEBF0FBECDBFCD
:1033A0000E94DC098AE00E94C3198FE00E94120E7D
:1033B00081E691E00E94E60D18EEC12E13E0D12EB9
:1033C00004E6402E512C612C712C8AE0A82EB12CE1
:1033D00099E7E92E91E0F92E8E010F5F1F4F0E94B1
:1033E0008A028091F30381110E9484000E94781266
:1033F0000E941F08882321F00E94D9180E942508E6
:103400000E9428088823C9F180910E0690910F062A
:10341000B6010E94471A962E872E60E080E00E9437
:10342000FC02609147057091480580914905909193
:103430004A05A30192010E946F1A80911B058F9388
:1034400080911A058F93C901B5010E94471A9F9375
:103450008F937F936F938F929F92FF92EF921F9320
:103460000F930E94641CC8010E94E60D0E9422086E
:103470000FB6F894DEBF0FBECDBF809122058B3012
:1034800019F0843109F0ABCF0E94FD07A8CFAA1B29
:10349000BB1B51E107C0AA1FBB1FA617B70710F03F
:1034A000A61BB70B881F991F5A95A9F78095909571
:1034B000BC01CD01089597FB072E16F4009407D0A8
:1034C00077FD09D00E94471A07FC05D03EF490957D
:1034D00081959F4F0895709561957F4F0895A1E262
:1034E0001A2EAA1BBB1BFD010DC0AA1FBB1FEE1F7E
:1034F000FF1FA217B307E407F50720F0A21BB30BC9
:10350000E40BF50B661F771F881F991F1A9469F744
:1035100060957095809590959B01AC01BD01CF01A0
:103520000895052E97FB1EF400940E94A81A57FDDB
:1035300007D00E946F1A07FC03D04EF40C94A81A0F
:1035400050954095309521953F4F4F4F5F4F0895CF
:1035500090958095709561957F4F8F4F9F4F0895FF
:10356000EE0FFF1F0590F491E02D0994A29FB0018A
:10357000B39FC001A39F700D811D1124911DB29FA7
:10358000700D811D1124911D08950E94B61AB7FF78
:103590000895821B930B08950E94B61AA59F900D63
:1035A000B49F900DA49F800D911D11240895B7FF25
:1035B0000C94CC1A0E94CC1A821B930B0895DF93B3
:1035C000CF931F930F939A9DF02D219FF00D8B9D0C
:1035D000F00D8A9DE02DF10D039FF00D029FE00D8F
:1035E000F11D4E9DE00DF11D5E9DF00D4F9DF00D06
:1035F0007F936F93BF92AF925F934F93D5010E94D9
:10360000B61A8B01AC01D7010E94B61AEB01E80F84
:10361000F91FD6010E942F1B2F913F91D6010E94C6
:10362000B61AC60FD71FE81FF91FAF91BF910E94AE
:103630002F1B2F913F910E94B61AC60FD71FE81F6C
:10364000F91FD6010E94B61AE60FF71F9801BE01B6
:10365000CF0111240F911F91CF91DF9108950E9406
:10366000B61A460F571FC81FD91F08F43196089580
:10367000689401C0E894F92FF12B12F00C946C1BA4
:10368000A0E0B0E0E6E4FBE10C94DE1B092E05941B
:1036900022F40E94C81B112392F4F0E80F26FFEFDA
:1036A000E094F09400951095B094C094D094A194B7
:1036B000BF0ACF0ADF0AEF0AFF0A0F0B1F0B0E9497
:1036C000771B07FC0E94C81BCDB7DEB7ECE00C945B
:1036D000FA1B689401C0E8948F929F92CF93DF9376
:1036E0000E94771BDF91CF919F908F90089588243F
:1036F0009924F401E401B0E49F93AA279A158B045E
:103700009C04ED05FE05CF05D007A10798F4AD2F69
:10371000DC2FCF2FFE2FE92D982C892E982F872F65
:10372000762F652F542F432F322F2227B85031F791
:10373000BF9127C01B2EBF91BB27220F331F441FF1
:10374000551F661F771F881F991F881C991CEE1F25
:10375000FF1FCC1FDD1FAA1FBB1F8A149B04EC0593
:10376000FD05CE05DF05A007B10748F08A189B08C4
:10377000EC09FD09CE09DF09A00BB10B21601A94F9
:10378000E1F62EF49401AF01BE01CD01000C0895C5
:1037900060957095809590953095409550952195C0
:1037A0003F4F4F4F5F4F6F4F7F4F8F4F9F4F08954A
:1037B0002F923F924F925F926F927F928F929F9241
:1037C000AF92BF92CF92DF92EF92FF920F931F932F
:1037D000CF93DF93CDB7DEB7CA1BDB0B0FB6F894E0
:1037E000DEBF0FBECDBF09942A88398848885F8420
:1037F0006E847D848C849B84AA84B984C884DF8091
:10380000EE80FD800C811B81AA81B981CE0FD11D74
:103810000FB6F894DEBF0FBECDBFED0108950F9334
:10382000083090F0982F872F762F652F542F432F35
:10383000322F22270850F4CF220F331F441F551F69
:10384000661F771F881F991F0A95B2F70F91089579
:1038500097FB10F8169400080F93083098F0085062
:10386000232F342F452F562F672F782F892F902DF8
:10387000F4CF0594979587957795679557954795D4
:10388000379527950A95AAF70F9108952A0D3B1DA4
:103890004C1D5D1D6E1D7F1D801F911F08952A19EF
:1038A0003B094C095D096E097F09800B910B089556
:1038B0000024A7FD00942A17300540055005600537
:1038C0007005800590050895AEE0B0E0EAE6FCE101
:1038D0000C94E61B0D891E8986E08C831A8309836C
:1038E0008FEF9FE79E838D83AE01475E5F4F6F89A9
:1038F000788DCE0101960E94861CEF81F885E00F3D
:10390000F11F10822E96E4E00C94021CACE0B0E0B3
:10391000ECE8FCE10C94D81B7C016B018A01FC01F2
:1039200017821682838181FFBDC1CE0101964C01B1
:10393000F7019381F60193FD859193FF81916F01CA
:10394000882309F4ABC1853239F493FD859193FF47
:1039500081916F01853229F4B70190E00E94961E93
:10396000E7CF512C312C20E02032A0F48B3269F0CB
:1039700030F4803259F0833269F420612CC08D32EA
:1039800039F0803339F4216026C02260246023C0DE
:10399000286021C027FD27C030ED380F3A3078F479
:1039A00026FF06C0FAE05F9E300D1124532E13C08F
:1039B0008AE0389E300D1124332E20620CC08E32E6
:1039C00021F426FD6BC1206406C08C3611F42068FA
:1039D00002C0883641F4F60193FD859193FF8191F1
:1039E0006F018111C1CF982F9F7D9554933028F49A
:1039F0000C5F1F4FFFE3F9830DC0833631F083372F
:103A000071F0833509F05BC022C0F80180818983A1
:103A10000E5F1F4F44244394512C540115C03801AC
:103A2000F2E06F0E711CF801A080B18026FF03C088
:103A3000652D70E002C06FEF7FEFC5012C870E94FB
:103A40008B1E2C0183012C852F77222E17C0380165
:103A5000F2E06F0E711CF801A080B18026FF03C058
:103A6000652D70E002C06FEF7FEFC5012C870E94CB
:103A7000801E2C012C852068222E830123FC1BC074
:103A8000832D90E048165906B0F4B70180E290E02B
:103A90000E94961E3A94F4CFF50127FC859127FEEB
:103AA00081915F01B70190E00E94961E31103A9417
:103AB000F1E04F1A51084114510471F7E5C0843602
:103AC00011F0893639F5F80127FF07C0608171814F
:103AD000828193810C5F1F4F08C0608171818827AC
:103AE00077FD8095982F0E5F1F4F2F76B22E97FF90
:103AF00009C090958095709561957F4F8F4F9F4F2E
:103B00002068B22E2AE030E0A4010E94C81EA82E30
:103B1000A81844C0853729F42F7EB22E2AE030E061
:103B200025C0F22FF97FBF2E8F36C1F018F48835EB
:103B300079F0B4C0803719F0883721F0AFC02F2F4B
:103B40002061B22EB4FE0DC08B2D8460B82E09C04A
:103B500024FF0AC09F2F9660B92E06C028E030E0EF
:103B600005C020E130E002C020E132E0F801B7FEFC
:103B700007C060817181828193810C5F1F4F06C0F5
:103B80006081718180E090E00E5F1F4FA4010E9470
:103B9000C81EA82EA818FB2DFF77BF2EB6FE0BC09F
:103BA0002B2D2E7FA51450F4B4FE0AC0B2FC08C021
:103BB0002B2D2E7E05C07A2C2B2D03C07A2C01C014
:103BC000752C24FF0DC0FE01EA0DF11D80818033AC
:103BD00011F4297E09C022FF06C07394739404C0B7
:103BE000822F867809F0739423FD13C020FF06C04E
:103BF0005A2C731418F4530C5718732C731468F45C
:103C0000B70180E290E02C870E94961E73942C8569
:103C1000F5CF731410F4371801C0312C24FF12C0F3
:103C2000B70180E390E02C870E94961E2C8522FF2E
:103C300017C021FF03C088E590E002C088E790E04C
:103C4000B7010CC0822F867859F021FD02C080E2B6
:103C500001C08BE227FD8DE2B70190E00E94961E25
:103C6000A51438F4B70180E390E00E94961E5A94A0
:103C7000F7CFAA94F401EA0DF11D8081B70190E01D
:103C80000E94961EA110F5CF332009F451CEB70142
:103C900080E290E00E94961E3A94F6CFF70186816A
:103CA000978102C08FEF9FEF2C96E2E10C94F41BFA
:103CB000DC01CB01FC01F999FECF06C0F2BDE1BDEC
:103CC000F89A319600B40D9241505040B8F70895DB
:103CD000DC01CB0103C02D910E94731E4150504066
:103CE000D0F70895262FF999FECF1FBA92BD81BD56
:103CF00020BD0FB6F894FA9AF99A0FBE019608956E
:103D0000FC010590615070400110D8F780959095A6
:103D10008E0F9F1F0895FC016150704001900110AB
:103D2000D8F7809590958E0F9F1F08950F931F933E
:103D3000CF93DF93182F092FEB018B8181FD03C0F7
:103D40008FEF9FEF20C082FF10C04E815F812C81DA
:103D50003D81421753077CF4E881F9819F012F5F71
:103D60003F4F39832883108306C0E885F985812F6A
:103D70000995892B29F72E813F812F5F3F4F3F8384
:103D80002E83812F902FDF91CF911F910F91089556
:103D9000FA01AA27283051F1203181F1E8946F937C
:103DA0006E7F6E5F7F4F8F4F9F4FAF4FB1E03ED022
:103DB000B4E03CD0670F781F891F9A1FA11D680FC0
:103DC000791F8A1F911DA11D6A0F711D811D911DF3
:103DD000A11D20D009F468943F912AE0269F112468
:103DE0003019305D3193DEF6CF010895462F4770CC
:103DF000405D4193B3E00FD0C9F7F6CF462F4F7027
:103E0000405D4A3318F0495D31FD4052419302D084
:103E1000A9F7EACFB4E0A69597958795779567952A
:103E2000BA95C9F700976105710508959B01AC012A
:103E30000A2E06945795479537952795BA95C9F751
:103E4000620F731F841F951FA01D0895F894FFCF64
:103E5000FFFF01FFFFFFFF55415254204672616D85
:103E600065204572726F723A200055415254204FBE
:103E700076657272756E204572726F723A200042DA
:103E80007566666572206F766572666C6F77206501
:103E900072726F723A2000544F444F3A205075743A
:103EA00020736F6D6520646562756720696E666F4B
:103EB0000057656C636F6D6520746F20626C656E72
:103EC000646572203A290D0A00253032752C2025B0
:103ED0003032752E253031752C20253035640D0A91
:103EE0000053313A2025356C697556202020203E3C
:103EF0000053313A2025356C69755620202020204A
:103F00000053323A2025356C6975562020253264DD
:103F10007300506C656173652C207475726E206F30
:103F20006E2000796F757220636F6D7072657373A8
:103F30006F722100496E6974696E672E2E2E0041E2
:103F40004443204572726F72210053312E2E2E0091
:103F50004F4B202053322E2E2E004F4B002020207E
:103F60002052756E20546573742020203E0020205E
:103F70002020202020202020202020202020002061
:103F8000202043616C6962726174652020203E00CC
:103F90004F323C20204F787967656E202020202BFF
:103FA00000486520202020202020202020202020C4
:103FB0002D004F3220202048656C69756D2020202F
:103FC000202B0048653C202020202020202020207D
:103FD00020202D0020204272696768746E6573731B
:103FE0002020202B002020202020202020202020E6
:103FF000202020202D0020202020436F6E7472612D
:1040000073742020202B002020456D657267656E3B
:104010006379204F32202B002020536574204F32CB
:104020002076616C7665202B002020536574204833
:10403000652076616C7665202B0053313A25326C11
:10404000692E2530316C692053323A25326C692E45
:104050002530316C69202000546D58202532752F91
:1040600025327520202532752F2532750045414EA9
:104070007825327520205265616C3A253275200012
:1040800074253032756325303275207374253032D3
:10409000752076253033750043616E277420636187
:1040A0006C696272617465210053656E736F72731F
:1040B000206661696C7572652100204D617820640D
:1040C0006576696174696F6E3A2000202020202592
:1040D00035752075562020202020002020204368A0
:1040E00065636B696E672E2E2E2020002020202015
:1040F0002020444F4E452120202020200025303311
:1041000075200025303275252500253375200020C7
:104110002020456D657267656E637921202020003F
:1041200020204F3220746F6F20686967682120203B
:1041300000436F6D70726573736F723A20204F4643
:02414000460037
:00000001FF
