:100000000C943B010C9458010C9458010C94580129
:100010000C9458010C9458010C9458010C945801FC
:100020000C9458010C9458010C9458010C945801EC
:100030000C9458010C9458010C9458010C945801DC
:100040000C9458010C9458010C94A0070C9458017E
:100050000C94E40D0C94190E0C9458010C94580156
:100060000C9458010C9458010C9458010C945801AC
:100070000C9458010C9458010C945801CC10CE10DB
:10008000D010D210D410D610D810DD10DD10DD1035
:10009000DA10DD10DD10DD10DA10DF10E110E310F2
:1000A000E510E710E910131F181F1D1F221F271F3F
:1000B0002C1F311F361F761F7E1F861F8E1F961F17
:1000C0009E1FA61FAF1F001F000000001F00001F83
:1000D000101010101F00001F181818181F00001F04
:1000E0001C1C1C1C1F00001F1E1E1E1E1F00001FAC
:1000F0001F1F1F1F1F0003070F1F0F070300181CE0
:100100001E1F1E1C18003C214532332054696D65AA
:1001100072312076616C75650A0D003C21453232E2
:1001200020536572766F32206D61780A0D003C2194
:1001300045323120536572766F31206D61780A0D3A
:10014000003C2145323020536572766F32206D6954
:100150006E0A0D003C2145313920536572766F31AE
:10016000206D696E0A0D003C21453235205049440E
:1001700032204D41580A0D003C214531382050496C
:10018000443220440A0D003C214531372050494477
:100190003220490A0D003C21453136205049443275
:1001A00020500A0D003C2145323420504944312072
:1001B0004D41580A0D003C2145313520504944310C
:1001C00020440A0D003C214531342050494431205F
:1001D000490A0D003C21453133205049443120501B
:1001E0000A0D003C2145313220536572766F320A88
:1001F0000D003C2145313120536572766F310A0D77
:10020000003C214531302056616C7665320A0D0084
:100210003C2145392056616C7665310A0D003C2140
:1002200045382048656C69756D0A0D003C214537DD
:10023000204F787967656E0A0D003C2145362045D0
:100240006D657267656E6379204F320A0D003C213F
:10025000453520436F6E74726173740A0D003C4F14
:100260004B0A0D003C214534204272696768746E68
:100270006573730A0D0011241FBECFEFD0E1DEBFFE
:10028000CDBF15E0A0E0B1E0EEEBF6E502C00590D1
:100290000D92AC3EB107D9F727E0ACEEB5E001C056
:1002A0001D92A83BB207E1F70E942B260C945D2B10
:1002B0000C94000082B9299A289A8FEF91E1019756
:1002C000F1F700C00000289829988FEF91E101977D
:1002D000F1F700C00000089582B9289A8FEF91E1EC
:1002E0000197F1F700C0000028988FEF91E1019786
:1002F000F1F700C00000089581E00C946C0182E0E9
:100300000C946C01EF92FF921F93CF93DF931F9297
:10031000CDB7DEB7009771F0182F7C018E2D811BB1
:10032000861740F4F70181917F0169830E945A0189
:100330006981F4CF0F90DF91CF911F91FF90EF90E3
:100340000895623031F0633031F0613029F4805C1F
:1003500003C08C5E01C08C5A80680C946C011F93A2
:10036000CF93DF93EC01862F642F0E94A10110E050
:10037000FE01E10FF11D8491882329F084910E94F0
:100380005A011F5FF5CFDF91CF911F910895EF9232
:10039000FF920F931F93CF93DF938C0188E0689FA8
:1003A000B0011124862F8064E82EC0E0D0E0F8016F
:1003B000EC0FFD1FF4908C2F8E0D0E946C018F2D81
:1003C0000E945A012196C830D10589F7DF91CF915B
:1003D0001F910F91FF90EF9008951F93CF93DF939C
:1003E0002FEF87ED90E0215080409040E1F700C072
:1003F000000012B815B881B18FEF81B984B1836064
:1004000084B980E382B9289A8FEF91E10197F1F7DF
:1004100000C0000028988FEF91E10197F1F700C02C
:10042000000080E382B9289A8FEF91E10197F1F7FC
:1004300000C0000028988FEF91E10197F1F700C00C
:10044000000080E382B9289A8FEF91E10197F1F7DC
:1004500000C0000028988FEF91E10197F1F700C0EC
:10046000000088E382B9289A8FEF91E10197F1F7B4
:1004700000C0000028988FEF91E10197F1F700C0CC
:1004800000008CE082B9289A8FEF91E10197F1F793
:1004900000C0000028988FEF99E50197F1F700C0A0
:1004A0000000C6ECD0E060E011E0160FCE010E9423
:1004B000C7012896183011F0612FF6CFDF91CF9148
:1004C0001F910895CF93DF93D82FC0E0CD1729F067
:1004D0008EE10E946C01CF5FF9CFDF91CF9108953B
:1004E000CF93DF93D82FC0E0CD1729F088E10E9489
:1004F0006C01CF5FF9CFDF91CF9108958EE00C941E
:100500006C018FE00C946C018CE00C946C0188E021
:100510000C946C018CE00C946C01CF93DF93D82F7A
:10052000C0E0CD1729F080E10E946C01CF5FF9CFC8
:10053000DF91CF910895CF93DF93D82FC0E0CD17EF
:1005400029F084E10E946C01CF5FF9CFDF91CF9158
:100550000895CF92DF92EF92FF920F931F93CF9364
:10056000DF931F92CDB7DEB756E0459F900111246F
:10057000E82FE29FC001E39F900D112470E00E94DC
:1005800056268B01CB0166E070E00E944226E82EE1
:10059000C12CD12CF12CF416B9F096012B5F3F4FF2
:1005A0000217130728F40C151D0520F08E2D03C02B
:1005B00085E001C080E049830E945A01F394F6E08F
:1005C000CF0ED11C4981E7CF0F90DF91CF911F91C2
:1005D0000F91FF90EF90DF90CF9008950F931F93AE
:1005E00094B19F7094B994B1906B94B994E0099FC1
:1005F00080011124016598E0299F90011124022BAC
:1006000020E2829FC0011124082B0CBD81E01F91C4
:100610000F910895CF93DF9300D000D0CDB7DEB710
:10062000FC01819119821A821B821C829E012F5F1C
:100630003F4FD901422F9A2F921B961718F4919190
:100640009D93F9CF813009F42C98F9019E2F941BCA
:10065000961730F491919EBD0DB407FEFDCFF6CFF5
:10066000813009F42C9A862F0F900F900F900F90E5
:10067000DF91CF910895CF93DF93CDB7DEB7289761
:100680000FB6F894DEBF0FBECDBFFC0171911D8285
:100690001E821F82188619821A821B821C82AE015A
:1006A0004B5F5F4FDA012A2F241B261718F4219184
:1006B0002D93F9CF713009F42C989E012F5F3F4F95
:1006C000DA01F901422F5E2F521B561740F45D915B
:1006D0005EBD0DB407FEFDCF5EB55193F4CF713012
:1006E00009F42C9AFC01D9018A2F841B861718F46F
:1006F0008D918193F9CF862F28960FB6F894DEBF9F
:100700000FBECDBFDF91CF9108958091EC05882376
:1007100071F08091EC058F5F8093EC058091EC0582
:10072000823328F081E08093ED051092EC05089566
:100730000F93CF93DF9300D000D01F92CDB7DEB7D9
:1007400085E0E2E0F1E0DE01119601900D928A95DC
:10075000E1F701E021E040E452E46FE070E080E086
:100760000E94EE0264E0CE0101960E940A030F90FF
:100770000F900F900F900F90DF91CF910F910895F0
:10078000FF920F931F93CF93DF9300D000D01F925F
:10079000CDB7DEB7F62E8E010F5F1F4F95E0F80143
:1007A00011929A95E9F749838770F8E08F9FC0010D
:1007B000112480648A8361E06F0DC8010E943B03AD
:1007C000E1E060E070E0CB014F2D50E02E2F30E0F3
:1007D0004217530774F0982F872F762F6627D8017A
:1007E000A20FB31F2C91620F711D811D911DEF5F30
:1007F000EDCF0F900F900F900F900F90DF91CF9152
:100800001F910F91FF90089541E061E084E00E9404
:10081000C0031092EC051092ED056F7081E06B3013
:1008200009F080E008950F93CF93DF93CDB7DEB743
:1008300029970FB6F894DEBF0FBECDBF4E835F83FE
:1008400068877987FE01319695E0DF011D929A95C0
:10085000E9F72F5F09838770880F880F880F8A83D5
:10086000322FBE016A5F7F4F323050F0CF01830FCD
:10087000911DDB014D91BD01DC014C933150F4CF52
:10088000622FCF010E940A0329960FB6F894DEBFAB
:100890000FBECDBFDF91CF910F9108951E99FECF6E
:1008A0000895CF92DF92EF92FF920F936B017C013C
:1008B00041E062E081E00E94C003AB01BC015F71D6
:1008C00066277727D701C6010DE0880F991FAA1F59
:1008D000BB1F0A95D1F7AA27BB27482B592B6A2B98
:1008E0007B2B01E022E081E00E9413040F91FF9036
:1008F000EF90DF90CF900895CF92DF92EF92FF922A
:100900000F936B017C0141E062E082E00E94C00332
:10091000AB01BC01487F87E0C822DD24EE24FF2420
:100920004C295D296E297F2901E022E082E00E94A6
:1009300013040F91FF90EF90DF90CF900895CF9226
:10094000DF92EF92FF920F936B017C0141E062E036
:1009500082E00E94C003AB01BC01587F87E0C8223F
:10096000DD24EE24FF24FE2CED2CDC2CCC244C29A1
:100970005D296E297F2901E022E082E00E941304B4
:100980000F91FF90EF90DF90CF9008950F93CF934A
:10099000C82F41E062E082E00E94C003AB01BC01CD
:1009A0004F7720E8C29FC00111249927AA2797FDFD
:1009B000A095BA2F482B592B6A2B7B2B01E022E004
:1009C00082E00E941304CF910F9108950F93CF936B
:1009D000C82F70E080E090E00E947C0441E062E07B
:1009E00081E00E94C0034C2F50E0542F44275295C1
:1009F000550F507E60E070E001E022E081E00E944F
:100A00001304CF910F910C944E040F932C9800E097
:100A100022E040E050E260E070E081E00E941304D8
:100A20000E944E0440E063E083E00E94C0032C9AE1
:100A30000F910895CF92DF92EF92FF920F93CF9391
:100A4000DF93C82F01E022E040E050E0BA0181E0EE
:100A50000E941304D0E0C12CD12C7601DC1759F090
:100A600041E063E083E00E94C003C60ED71EE81E8B
:100A7000F91EDF5FF3CF2D2F30E040E050E0C701DB
:100A8000B6010E946A26CA01B901DF91CF910F9188
:100A9000FF90EF90DF90CF9008950F931F936130F8
:100AA00029F000E810E020E030E004C000E810E4A5
:100AB00020E030E0482F477050E060E070E0406197
:100AC0005C60402B512B622B732B01E022E082E013
:100AD0000E9413041F910F9108950F93CF93C82F75
:100AE00061E00E944D05369B13C00E944E046C2F9E
:100AF00084E00E94E6046C2F85E00E94E60401E099
:100B000022E043E050E060E070E081E00E941304E6
:100B1000CF910F91089560E00E944D0581E0809390
:100B2000EC051092ED0508953F924F925F926F92FF
:100B30007F928F929F92AF92BF92CF92DF92EF926D
:100B4000FF920F931F93CF93DF938091ED0588233E
:100B500009F4E4C181E00E941A05DC01CB019C018B
:100B6000AD0160E070E080E090E04058510961091B
:100B700071098109910959016A017B01E82F192F37
:100B800002E00E940A280E2F0E94412859016A01A2
:100B90007B01E82F192F04E00E940A280E2F0E94E3
:100BA0004A2859016A017B01E82F192F04E00E94AD
:100BB0000A280E2F0E944A284901D42FC52FB62F8C
:100BC000A72FF82FE92F06E00E940A2859016A0191
:100BD0007B018C0194014D2F5C2F6B2F7A2F8F2F6F
:100BE0009E2F0E944128922EA32EB42ED52FC62FC1
:100BF000B72FF82FE92FA0E00E94532884F421504A
:100C0000310940485F4F6F4F7F4F8F4F9F4F922E5C
:100C1000A32EB42ED52FC62FB72FF82FE92F292DAD
:100C20003A2D4B2D5D2F6C2F7B2F8F2F9E2F07E1A1
:100C30000E942328C22FB32FF42FE52F362E472EE4
:100C4000982ED92FA0E00E94532854F40E94C32765
:100C5000C22FB32FF42FE52F362E472E982ED92FE3
:100C60008091EE0581119BC05C2E6B2E7F2E8E2E07
:100C7000C093BF06B093C006F093C106E093C206CE
:100C8000A090CF06B090D006C090D106D090D206EA
:100C9000E090D306F090D4060091D5061091D606C8
:100CA0002C2F3B2F4F2F5E2F632D742D892D9D2FC1
:100CB0000E94DA26B0E1AB2EC7E2BC2EC12CD12CAB
:100CC000E12CF12C00E010E00E9435272093C706AC
:100CD0003093C8064093C9065093CA06E091F306C4
:100CE00084E0E89FF0011124E85FF84F50826182B0
:100CF0007282838281E08093EE050E9406208B3011
:100D000009F042C06091A2067091A3068091A406EA
:100D10009091A5066E5C7F4F8F4F9F4FA4E64A2EA1
:100D2000512C612C712CA30192010E946A26490169
:100D30005A016091C7067091C8068091C9069091CA
:100D4000CA066E5C7F4F8F4F9F4FA30192010E9496
:100D50006A26CA01B901390148E557E0C4010E9479
:100D60001A0D20919E0630919F062817390724F40A
:100D70006814790408F0C90190939F0680939E0639
:100D8000BC0180E00E94B00A8091F3068F5F8093DF
:100D9000F3068A3008F4ADC01092F306AAC08B2E79
:100DA0006F2E5E2EC093C306B093C406F093C506A3
:100DB000E093C606A090D706B090D806C090D9069A
:100DC000D090DA06E090DB06F090DC060091DD06BC
:100DD0001091DE062C2F3B2F4F2F5E2F632D742D8D
:100DE000892D9D2F0E94DA26E0E1AE2EF7E2BF2E7C
:100DF000C12CD12CE12CF12C00E010E00E94352711
:100E00002093CB063093CC064093CD065093CE066C
:100E1000E091F40684E0E89FF0011124E05DF84FD2
:100E2000C0838182628253821092EE050E94062066
:100E30008B3009F055C08091A6069091A706A0912D
:100E4000A806B091A9064091A2065091A306609110
:100E5000A4067091A506481759076A077B0709F48D
:100E60003FC0BC01CD016E5C7F4F8F4F9F4F24E68A
:100E7000822E912CA12CB12CA50194010E946A26EE
:100E800029013A016091CB067091CC068091CD0684
:100E90009091CE066E5C7F4F8F4F9F4FA5019401BE
:100EA0000E946A26CA01B90159014FED56E0C201FC
:100EB0000E941A0D66277727681B790B8091A00680
:100EC0009091A1068617970724F44A145B0408F052
:100ED000BC017093A1066093A00681E00E94B00A55
:100EE0008091F4068F5F8093F4068A3010F01092A0
:100EF000F4068091EE05DF91CF911F910F91FF9045
:100F0000EF90DF90CF90BF90AF909F908F907F90A9
:100F10006F905F904F903F900C948B05DF91CF9135
:100F20001F910F91FF90EF90DF90CF90BF90AF9007
:100F30009F908F907F906F905F904F903F9008951B
:100F40001F920F920FB60F9211242F933F934F933E
:100F50005F936F937F938F939F93AF93BF93EF9321
:100F6000FF93809170078930D0F0809105079091B0
:100F70000607019690930607809305071092700765
:100F80000E948503809105079091060762E370E057
:100F90000E944226892BB9F50E94FE0E34C0809132
:100FA0007007813081F5809105079091060764E60E
:100FB00070E00E944226892B31F5809105079091BF
:100FC000060764EF71E00E944226892BC9F48091E4
:100FD00005079091060768EE73E00E944226892B70
:100FE00049F480917107909172070196909372076E
:100FF000809371079091F10581E0891B8093F10541
:1010000081E080930707809170078F5F809370075E
:10101000FF91EF91BF91AF919F918F917F916F91D0
:101020005F914F913F912F910F900FBE0F901F90A6
:1010300018957F928F929F92AF92BF92CF92DF923C
:10104000EF92FF920F931F93CF93DF937C01A62E15
:10105000FA01690111821082BB24B394DC018C91E6
:101060008D3209F0B12CC0E0D0E099249A949A0C0A
:101070008C2E8B0C8A1430F5D701A80DB11D2C9144
:1010800080ED820F8A3010F08FEF30C0332727FDBC
:10109000309520533109442737FD4095542F792C42
:1010A000781441F0AAE0B0E00E94C7269B01AC0191
:1010B0007A94F6CF80819181820F931F91838083F0
:1010C0002196D6CFBB2039F0808191819195819571
:1010D0009109918380832081318102171307A4F243
:1010E00081E02C153D050CF080E08195DF91CF91DA
:1010F0001F910F91FF90EF90DF90CF90BF90AF9036
:101100009F908F907F9008958091F1050895809130
:10111000F105882351F08091F0058111419A809169
:10112000EF05882321F0439A089541984398089544
:101130008091F00508958091EF0508951092F005D3
:1011400008951092EF0508958093F0056093EF05E0
:1011500008958091070708951092070708958091D8
:1011600071079091720708954FE050E06CE170E0D4
:101170008CEA96E00E948F2A4CE050E060E170E03B
:1011800089E997E00E948F2A40E150E060E070E03A
:1011900085E797E00E948F2A8091990790919A079E
:1011A000A0E0B0E08093A2069093A306A093A406CB
:1011B000B093A5068093A6069093A706A093A806D1
:1011C000B093A90608954FE050E06CE170E085EA25
:1011D00097E00E948F2A2091AC063091AD06809155
:1011E000A5079091A6072817390709F049C0209153
:1011F000AE063091AF068091A7079091A8072817F7
:101200003907F1F52091B0063091B1068091A90718
:101210009091AA072817390799F52091B2063091C5
:10122000B3068091AB079091AC072817390741F5B9
:101230002091B4063091B5068091AD079091AE072C
:1012400028173907E9F49091B6068091AF079813F3
:1012500017C09091B7068091B007981311C02091E4
:10126000B8063091B9068091B1079091B20728175E
:10127000390731F49091BA068091B307981741F07D
:101280004FE050E06CE170E08CEA96E00C949F2A0D
:1012900008954CE050E060E170E085EF96E00E9438
:1012A0008F2A2091F5063091F6068091990790914A
:1012B0009A0728173907A9F44091F7065091F806C4
:1012C0006091F9067091FA0680919B0790919C07B6
:1012D000A0919D07B0919E07481759076A077B07A1
:1012E00041F04CE050E060E170E089E997E00C9457
:1012F0009F2A089540E150E060E070E089E897E0BF
:101300000E948F2A2091890730918A078091750762
:10131000909176072817390709F04EC020918B0766
:1013200030918C07809177079091780728173907BB
:1013300009F042C020918D0730918E078091790786
:1013400090917A0728173907B9F520918F073091C6
:10135000900780917B0790917C072817390761F5EA
:10136000209191073091920780917D0790917E079F
:101370002817390709F52091930730919407809138
:101380007F079091800728173907B1F420919507BE
:10139000309196078091810790918207281739072D
:1013A00059F4209197073091980780918307909185
:1013B00084072817390741F040E150E060E070E011
:1013C00085E797E00C949F2A089584B18C6084B9D6
:1013D00087B18F6087B98AB1806C8AB95298539867
:1013E0005A9A5B9A3C983D983E983F98449A459A01
:1013F000469A479AE0EBF0E08081836A8083E1EBD4
:10140000F0E08081866080838091B6068093B3008F
:101410008091B7068093B40085B5826085BD16BC07
:10142000EEE6F0E0808181608083E0E8F0E080819A
:10143000826A8083E1E8F0E080818B618083809123
:10144000B4069091B50690938700809386008AB188
:1014500080638AB98091AC069091AD069093890023
:10146000809388008091AE069091AF0690938B0098
:1014700080938A0008958093B30008958093B40008
:1014800008950E94B4080E94E5090E94ED010E949F
:101490007C010E947C0160E083E00E94A1016AE07F
:1014A00087E091E00E9482010E9498030E94040458
:1014B00081110CC00E947C0160E082E00E94A101C9
:1014C0006AE082E191E00E94820121C061E080E057
:1014D0000E94A10165E08DE191E00E94820180E01F
:1014E0000E946D0569E083E291E00E94820181E043
:1014F0000E946D0562E08DE291E00E9482011092EF
:10150000EE058091EE050E948B050E947C0189E02A
:1015100090E00E94450E8091990790919A0781343E
:101520009C4930F080E49CE990939A078093990756
:10153000349BFECF359BFCCF369BFACF379BF8CF41
:101540008FEF9FE628E0815090402040E1F700C0F7
:10155000000078948AE00E9409208FE00C94D90E54
:10156000CF93DF93DB016F3F710509F02CF477FF18
:1015700005C0A0E0B0E002C0AFEFB0E081111DC037
:10158000A093AA06C091AC06D091AD062091B006FA
:101590003091B1062C1B3D0B0E94C0262FEF30E08E
:1015A00040E050E00E946A262C0F3D1F411D511D56
:1015B00030938B0020938A001CC0A093AB06C0918F
:1015C000AE06D091AF062091B2063091B3062C1B27
:1015D0003D0B0E94C0262FEF30E040E050E00E941B
:1015E0006A262C0F3D1F411D511D30938900209309
:1015F0008800DF91CF91089560E070E080E00E9464
:10160000B00A60E070E081E00E94B00A2FEF8FE145
:101610009CE1215080409040E1F700C000006FEF56
:1016200070E080E00E94B00A6FEF70E081E00E94FD
:10163000B00A2FEF8FE398E3215080409040E1F70C
:1016400000C0000060E070E080E00E94B00A2FEF70
:101650008FE398E3215080409040E1F700C0000004
:1016600060E070E081E00E94B00A2FEF8FE398E322
:10167000215080409040E1F700C000002A9A429A31
:101680002FEF8FE19CE1215080409040E1F700C0B6
:1016900000002B9A409A2FEF8FE19CE1215080406F
:1016A0009040E1F700C00000419A439A2FEF8FE18C
:1016B0009CE1215080409040E1F700C000002A9852
:1016C0002B98429840984198439808950F931F9300
:1016D00080919F079091A0072091990730919A07D8
:1016E000A90148515C4F4817590748F4E1E04851B7
:1016F0005C4F4817590708F0E0E0F1E002C0E0E075
:10170000F0E0A901485E53408417950738F4205D46
:1017100037408217930708F4E1E0F1E04091A20618
:101720005091A3066091A4067091A5068091A6062B
:101730009091A706A091A806B091A906481759074D
:101740006A077B07F1F18091A1079091A207A09110
:10175000A307B091A40740919B0750919C0760910B
:101760009D0770919E078A019B0108511C4F2F4FC6
:101770003F4F081719072A073B0768F48A019B01A6
:101780000854144F2F4F3F4F081719072A073B07DC
:1017900008F4E1E0F1E08A019B01085E13402109B1
:1017A000310980179107A207B30758F4485B5B40E3
:1017B0006109710984179507A607B70708F4E1E0E6
:1017C000F1E0F093F005E093EF051F910F9108957C
:1017D0000F931F934091B8065091B906CA018053E8
:1017E000984FA0E0B0E00091C7061091C806209184
:1017F000C9063091CA0680179107A207B30790F077
:1018000060E070E081E00091CB061091CC06209161
:10181000CD063091CE06401751076207730718F0C6
:1018200080E001C081E01F910F9108954F925F9277
:101830006F927F928F929F92AF92BF92CF92DF92E0
:10184000EF92FF920F931F930091080710910907E1
:1018500020910A0730910B07480159014091300748
:10186000509131076091320770913307E8E0F7E05B
:10187000A0E3B7E06A017B014190519061907190C3
:10188000401651066206730610F493018201841417
:101890009504A604B70410F4530142014D905D90E5
:1018A0006D907D90441655066606770610F4B301D8
:1018B000A201C414D504E604F70410F47301620114
:1018C00087E0E033F807C1F60093BB061093BC062F
:1018D0002093BD063093BE068092010790920207C6
:1018E000A0920307B092040740936C0750936D07D2
:1018F00060936E0770936F07C0928507D09286073A
:10190000E0928707F09288078091BA06801A910AC0
:10191000A20AB30A81110DC097018601041B150BA1
:10192000260B370BC901B801081519052A053B0517
:1019300010F4C501B4011F910F91FF90EF90DF905B
:10194000CF90BF90AF909F908F907F906F905F905F
:101950004F9008950E94160C65367105810591051A
:10196000A8F58091BB069091BC06A091BD06B091F0
:10197000BE0680379741A105B10540F180916C0703
:1019800090916D07A0916E07B0916F0780379741D6
:10199000A105B105D8F08091010790910207A091AF
:1019A0000307B091040789349147A105B10570F48C
:1019B00081E040918507509186076091870770917B
:1019C0008807493451476105710508F080E00895A2
:1019D0000F931F93CF93DF93EB01F80112821382D1
:1019E00014821582118210829783868371876087A3
:1019F00053874287BC016F5F7F4F8FEF9FE70E9445
:101A0000562675876487BE016F5F7F4F8FEF9FE318
:101A10000E945626CB01AA2797FDA095BA2F86874C
:101A20009787A08BB18B338B228BDF91CF911F9146
:101A30000F9108958F929F92AF92BF92CF92DF92B3
:101A4000EF92FF92CF93DF93FB01EA016C01E12C4F
:101A5000F12CC61AD70AE108F1082C853D85C90189
:101A6000AA2797FDA095BA2F8C159D05AE05BF0539
:101A7000B4F088279927821B930BAA2797FDA0957E
:101A8000BA2FC816D906EA06FB0684F0AE81BF81DC
:101A9000A70196010E94D2264B015C010EC088244A
:101AA0008A949FE7992EA12CB12C07C08824839497
:101AB00080E8982EAA24AA94BA2C2A813B814C81D2
:101AC0005D812C0D3D1D4E1D5F1D8E859F85A88956
:101AD000B98982179307A407B5074CF48A839B83BF
:101AE000AC83BD836FEF7FE380E090E01DC0B095D5
:101AF000A095909581959F4FAF4FBF4F28173907FD
:101B00004A075B074CF48A839B83AC83BD8361E007
:101B100070EC8FEF9FEF08C02A833B834C835D837B
:101B2000A885B9850E94D226288139812E1B3F0BBA
:101B30004A855B85249F6001259FD00C349FD00C83
:101B40001124EE24D7FCE094FE2CF983E883680D81
:101B5000791D8A1D9B1D6C0D7D1D8E1D9F1D20E80E
:101B600030E040E050E00E948C266A897B89CB01FE
:101B7000AA2797FDA095BA2F82179307A407B50748
:101B800094F088279927861B970B6C01EE24D7FCCD
:101B9000E094FE2CDA01C9012C153D054E055F05C8
:101BA00014F4D701C601DF91CF91FF90EF90DF9041
:101BB000CF90BF90AF909F908F900895FC011282BC
:101BC00013821482158208951F920F920FB60F92FE
:101BD00011242F933F934F935F938F939F93EF9392
:101BE000FF934091C0005091C60048718091F40568
:101BF00090E001968F7099272091F30530E08217CD
:101C0000930739F08093F405FC01E950FA4F5083B3
:101C100001C042E04093F205FF91EF919F918F91B7
:101C20005F914F913F912F910F900FBE0F901F909A
:101C300018951F920F920FB60F9211248F939F93B6
:101C4000EF93FF939091F6058091F505981779F041
:101C50008091F50590E001968F7799278093F5059F
:101C6000FC01E95FF94F80818093C60005C0809137
:101C7000C1008F7D8093C100FF91EF919F918F9163
:101C80000F900FBE0F901F9018951092F6051092AE
:101C9000F5051092F4051092F30597FF04C022E0B9
:101CA0002093C0009F779093C5008093C40088E97B
:101CB0008093C10086E08093C20008959091F4055E
:101CC0008091F3059817A1F08091F30590E00196BB
:101CD0008F7099278093F305FC01E950FA4F20811A
:101CE0008091F20590E0982F8827820F911D08952A
:101CF00080E091E008959091F4058091F3059817A4
:101D000089F0E091F305F0E03196EF70FF27E9509C
:101D1000FA4F20818091F20590E0982F8827820F5A
:101D2000911D089580E091E008952091F60530E03E
:101D30002F5F3F4F2F7733274091F50550E0241751
:101D40003507D1F3F901E95FF94F80832093F60558
:101D50008091C10080628093C1000895CF93DF938A
:101D6000EC018991882319F00E94950EFACFDF913A
:101D7000CF910895CF93DF93FC018491EF012196D9
:101D8000882321F00E94950EFE01F7CFDF91CF91BD
:101D900008958091F4052091F30590E04096821B10
:101DA00091098F70992708958091F3058093F40528
:101DB0000895CF93C82F0E94AF088C0F911D909368
:101DC000890680938806CF910895CF93DF93C091C1
:101DD0008806D09189060E94AF088C179D0750F4A1
:101DE000C0918806D09189060E94AF089C2F981B4D
:101DF000892F01C080E0DF91CF910895349908C008
:101E0000809173078F3F31F0815F8093730702C029
:101E100010927307359908C0809174078F3F31F095
:101E2000815F80937407089510927407089586E483
:101E300080939D062A982B984298409860E080E015
:101E40000E94A10160E180E391E00E94820161E0D3
:101E500080E00E94A10160E181E491E00C948201A4
:101E600087E480939D062A982B984298409860E0DA
:101E700080E00E94A10160E182E591E00E94820180
:101E800061E080E00E94A10160E181E491E00C94B6
:101E9000820184E180939D062A982B98429840986D
:101EA00060E080E00E94A40860E070E080E00E94B2
:101EB000B00A60E070E081E00E94B00A60E080E07B
:101EC0000E94A10160E183E691E00E94820161E04D
:101ED00080E00E94A10160E184E791E00C9482011E
:101EE00085E180939D062A982B984298409860E05F
:101EF00080E00E94A10160E185E891E00E948201FA
:101F000061E080E00E94A10160E186E991E00C942B
:101F1000820182E380939D062A982B9842984098EC
:101F200060E080E00E94A10160E187EA91E00E9408
:101F3000820161E080E00E94A10160E188EB91E014
:101F40000C94820183E380939D062A982B984298F3
:101F5000409860E080E00E94A10160E189EC91E09E
:101F60000E94820161E080E00E94A10160E188EBB3
:101F700091E00C94820184E380939D062A982B982B
:101F80004298409860E080E00E94A10160E18AED03
:101F900091E00E94820161E080E00E94A10160E185
:101FA00088EB91E00C94820185E380939D062A984A
:101FB0002B984298409860E080E00E94A10160E187
:101FC0008BEE91E00E94820161E080E00E94A1011D
:101FD00060E188EB91E00C9482018CE380939D0694
:101FE0002A9A2B98429A409860E080E00E94A101D2
:101FF00060E18CEF91E00E94820161E080E00E944C
:10200000A10160E188EB91E00C9482018DE3809363
:102010009D062A982B9A4298409A60E080E00E94A0
:10202000A10160E18DE092E00E94820161E080E028
:102030000E94A10160E188EB91E00C948201CF93B2
:10204000C82F81E580939D062A982B984298409846
:1020500060E080E00E94A10160E1CC2319F08EE1F4
:1020600092E002C08FE292E00E94820161E080E093
:102070000E94A10160E188EB91E0CF910C94820174
:102080008BE580939D062A9A2B98429A409860E0AF
:1020900080E00E94A10160E180E492E00E94820160
:1020A00061E080E00E94A10160E188EB91E00C9486
:1020B00082018CE580939D062A9A2B98429A40983B
:1020C00060E080E00E94A10160E181E592E00E9471
:1020D000820161E080E00E94A10160E188EB91E073
:1020E0000C9482018DE580939D062A982B9A429844
:1020F000409A60E080E00E94A10160E182E692E007
:102100000E94820161E080E00E94A10160E188EB11
:1021100091E00C9482018EE580939D062A982B9A7B
:102120004298409A60E080E00E94A10160E183E76C
:1021300092E00E94820161E080E00E94A10160E1E2
:1021400088EB91E00C9482018FE580939D062A989C
:102150002B984298409860E080E00E94A10160E1E5
:1021600084E892E00E94820161E080E00E94A10187
:1021700060E188EB91E00C94820180910101992744
:1021800087FD9095A92FB92F8531910520F5FC0188
:10219000E25CFF4F0C94AB260C94300F0C94BB0FF9
:1021A0000C94170F0C94890F0C94A20F0C94ED0F44
:1021B0000C94061081E00C941F1080E0FCCF0C946E
:1021C00040100C9459100C9472100C948B100C94B9
:1021D000A4100C94D40F08950F931F932091BA0666
:1021E000211108C08091CB069091CC069093A00756
:1021F00080939F074091A2065091A3066091A40688
:102200007091A5068091A6069091A706A091A806B8
:10221000B091A906481759076A077B0759F422238A
:1022200031F18091C7069091C8069093A0078093E2
:102230009F071DC020919F073091A007A0E1B7E242
:102240000E94B1262091C7063091C8064091C90668
:102250005091CA060E946A26AAE0B0E00E94C726F2
:10226000613A26E8720721E08207910548F0109252
:10227000A1071092A2071092A3071092A40710C002
:1022800000EA16E821E030E0061B170B280B390B9B
:102290000093A1071093A2072093A3073093A407EC
:1022A0001F910F9108950F931F93209199073091DB
:1022B0009A07A0E1B7E20E94B1262091B8063091BA
:1022C000B906205D374040E050E00E946A26AAE04F
:1022D000B0E00E94C7268B019C01013A86E81807EE
:1022E00081E02807310548F460EA76E881E090E073
:1022F000601B710B820B930B03C060E070E0CB019D
:102300001F910F910895A0919907B0919A07A83055
:1023100082E5B80700F520E639E74EEF5FEF0E944F
:10232000C7267B58844D924828E032E540E050E0D3
:102330000E946A26CA01B90128EE33E040E050E06D
:102340000E946A262F5F3F4F4F4F5F4FA8EEB3E0CA
:102350000E94C726089560E070E0CB010895CF92F7
:10236000DF92EF92FF920F931F93CF93DF938091B1
:10237000B8069091B9062091990730919A0728578D
:102380003C4E8217930730F48858934190939A07F4
:1023900080939907C0909B07D0909C07E0909D0781
:1023A000F0909E070E948311C616D706E806F9062C
:1023B00040F460939B0770939C0780939D079093D4
:1023C0009E07C0909B07D0909C07E0909D07F090DF
:1023D0009E070E9453116C157D058E059F0540F4E4
:1023E00060939B0770939C0780939D0790939E0733
:1023F0000091A2061091A3062091A4063091A50693
:102400004091A6065091A7066091A8067091A90672
:10241000C0919907D0919A07041715072607370727
:1024200061F4CE01A0E0B0E08093A2069093A306F1
:10243000A093A406B093A5062EC09E01A4E6B0E02A
:102440000E94B1266B017C0160919B0770919C07F3
:1024500080919D0790919E0728EE33E040E050E088
:102460000E946A26DA01C90124E630E040E050E02B
:10247000281B390B4A0B5B0BC701B6010E946A2669
:102480002093A2063093A3064093A4065093A5067A
:10249000CE01A0E0B0E08093A6069093A706A0939B
:1024A000A806B093A906DF91CF911F910F91FF90DD
:1024B000EF90DF90CF9008954F925F926F927F924E
:1024C0008F929F92AF92BF92CF92DF92EF92FF9244
:1024D0000F931F93CF93DF93CDB7DEB764970FB6FB
:1024E000F894DEBF0FBECDBF0E94EC10809199071B
:1024F00090919A0768EE73E00E944226962E872EEE
:10250000C0909B07D0909C07E0909D07F0909E079D
:1025100080919F079091A00764E670E00E94422698
:102520005B016091A1077091A2078091A307909130
:10253000A4078E010F5F1F4FC114D104E104F10401
:1025400009F444C02091A2063091A3064091A4064C
:102550005091A5064090A6065090A7066090A80648
:102560007090A906241535054605570579F124E62E
:1025700030E040E050E00E946A26409A2B9AEAE060
:10258000F0E0C901BF010E9442269F938F937F9381
:102590006F93C501BF010E9442269F938F937F9343
:1025A0006F93C701B60128EE33E040E050E00E948F
:1025B0006A261F922F938F929F9285E992E09F93B4
:1025C0008F931F930F930E949B2813C0C5016AE04D
:1025D00070E00E9442269F938F937F936F938F9218
:1025E0009F9280EB92E09F938F931F930F930E9493
:1025F0009B280FB6F894DEBF0FBECDBF60E080E031
:102600000E94A10160E1C8010E94820164960FB698
:10261000F894DEBF0FBECDBFDF91CF911F910F9118
:10262000FF90EF90DF90CF90BF90AF909F908F90F2
:102630007F906F905F904F9008950F931F939BE052
:1026400090939D06429A2A9A882371F10E94E3088A
:102650000E9449090E947A0920917B0730917C07EA
:102660004091790750917A076091770770917807C8
:1026700008E517E080917507909176070E94E80CB5
:102680002091830730918407409181075091820700
:1026900060917F07709180070FED16E080917D07B4
:1026A00090917E070E94E80C1F910F910C945C1290
:1026B0008F929F92AF92BF92CF92DF92EF92FF9252
:1026C0000F931F93CF93DF93CDB7DEB765970FB608
:1026D000F894DEBF0FBECDBF8091990790919A0705
:1026E00068EE73E00E944226062FB72E6091C7065F
:1026F0007091C8068091C9069091CA0628EEC22E34
:1027000023E0D22EE12CF12CA70196010E946A262B
:10271000A22E6091A2067091A3068091A4069091CA
:10272000A506A70196010E946A26922E60919B073A
:1027300070919C0780919D0790919E07A70196013B
:102740000E946A26122F6091CB067091CC06809170
:10275000CD069091CE06A70196010E946A26822E90
:102760006091A6067091A7068091A8069091A9068F
:10277000A70196010E946A2660E080E02D8B0E94EE
:10278000A1018091AA061F928F931F929F921F9280
:10279000AF92BF920F9337ECC32E32E0D32EDF926D
:1027A000CF92CE0101967C01FF928F930E949B28CD
:1027B00060E1C7010E94820161E080E00E94A10106
:1027C0008091AB061F928F931F922D892F931F929A
:1027D0008F921F921F93DF92CF92FF92EF920E94EF
:1027E0009B2860E1C7010E9482010FB6F894DEBF0A
:1027F0000FBECDBF65960FB6F894DEBF0FBECDBF3E
:10280000DF91CF911F910F91FF90EF90DF90CF90CC
:10281000BF90AF909F908F900895419A60E080E0C4
:102820000E94A10160E18FED92E00E94820161E0CF
:1028300080E00E94A10160E180EF92E00C948201AF
:102840000F931F93CF93DF93CDB7DEB764970FB687
:10285000F894DEBF0FBECDBF80919D069CEE980F11
:10286000923058F44A9914C04B9912C081E00E94EA
:102870001D138EE10E94D90E08C08B3049F44A998D
:1028800002C04B9B05C00E94490F81E08093B407B2
:102890008091B407811183C080919D068A3009F030
:1028A0007EC04A997CC0349936C060E080E00E94C6
:1028B000A10160E181E093E00E94820161E080E09B
:1028C0000E94A1010E94160C7F936F9382E193E016
:1028D0009F938F938E010F5F1F4F1F930F930E9443
:1028E0009B2860E1C8010E9482012FEF8FE790E7EB
:1028F000215080409040E1F700C000000E94AA0CE7
:102900000F900F900F900F900F900F90882329F148
:102910000E94490F0EC0359BC8CF369BC6CF379B50
:10292000C4CF0E94E50E882309F4BFCF38C0359983
:1029300003C0349BFECFFBCF369BFBCF379BF9CF39
:102940002FEF8FE995E0215080409040E1F700C0E3
:10295000000081E08093B40722C00E940D142FEF85
:102960008FE790E7215080409040E1F700C00000E1
:10297000439A2FEF8FEB98EA215080409040E1F787
:1029800000C00000349BFECF359BFCCF369BFACFB6
:10299000379BF8CF4198439884E10E94D90E8091EB
:1029A000B40781113AC0349B06C0359B04C0369BE6
:1029B00002C0379932C080919D06843129F436993E
:1029C0000AC00E94700F1AC0853129F4379903C0DC
:1029D0000E94490F13C08091010187FD12C03699F2
:1029E00006C08F5F843144F01092010107C037990F
:1029F00008C0815008F483E18093010181E0809355
:102A0000B4079091000180910101981731F00E9464
:102A1000BD108091010180930001349B09C0359B5A
:102A200007C0369B05C0379B03C01092B4073BC05C
:102A30008091B4078130B1F480919D06823390F08B
:102A4000379910C036990EC08FEF809301018093A3
:102A500000010E94490F0E94AF110E94E30882E02A
:102A60008093B4078091B407813081F480919D06F2
:102A70008451823058F4379909C0369907C01092B2
:102A800001010E94BD1082E08093B4078091B407D9
:102A9000882349F02FEF8FEC92E021508040904046
:102AA000E1F700C0000064960FB6F894DEBF0FBED9
:102AB000CDBFDF91CF911F910F91089560E08FE01E
:102AC0000E94A10161E080E591E00E94820161E045
:102AD00080E00E94A10160E182E293E00E94820115
:102AE0000E94FC0A61E080E00E94A10160E183E3B2
:102AF00093E00E9482012FEF8FE398E32150804002
:102B00009040E1F700C000000C94170F9F92AF9225
:102B1000BF92CF92DF92EF92FF920F931F93CF93CA
:102B2000DF93CDB7DEB766970FB6F894DEBF0FBE62
:102B3000CDBF162FD82EC22EB32EA42E952E60E018
:102B400080E04A9946C07D8B9E8B0E94A1010E9425
:102B5000AA0C9E012F5F3F4F79017D899E898823B2
:102B600039F09F93DF927F931F9384E493E006C034
:102B70009F93DF927F931F9384E593E09F938F93BE
:102B8000FF92EF920E949B280FB6F894DEBF0FBE13
:102B9000CDBF60E1C7010E9482011F920F939F92F7
:102BA000AF92BF92CF9284E693E09F938F93FF9270
:102BB000EF920E949B2861E080E00E94A10160E109
:102BC000C7010E9482010FB6F894DEBF0FBECDBFD1
:102BD00013C00E94A10160E185E793E00E94820199
:102BE00061E080E00E94A10160E186E893E00E943C
:102BF000820184E10E94D90E66960FB6F894DEBF7A
:102C00000FBECDBFDF91CF911F910F91FF90EF903D
:102C1000DF90CF90BF90AF909F9008950F931F9338
:102C2000CF93DF93CDB7DEB72A970FB6F894DEBF08
:102C30000FBECDBF80917407882381F08F3F11F4C0
:102C40009AE001C091E08091B606981720F4891BA4
:102C50008093B60603C081111092B6068091730767
:102C60008823C9F08F3F11F45AE001C051E0409130
:102C7000B606242F30E08FEF90E0851B91092817CE
:102C8000390724F4450F4093B60605C04F3F19F0AD
:102C90008FEF8093B6068091B6061F928F9387E9D7
:102CA00093E09F938F938E010F5F1F4F1F930F939E
:102CB0000E949B2861E080E00E94A10164E0C801BD
:102CC0000E94820161E084E00E94A1014AE06FEF6E
:102CD0008091B6060E94A90261E08EE00E94A101E7
:102CE00062E086EC91E00E9482018091B6060E942B
:102CF0003B0A0F900F900F900F900F900F902A9615
:102D00000FB6F894DEBF0FBECDBFDF91CF911F91FC
:102D10000F9108950F931F93CF93DF93CDB7DEB735
:102D20002A970FB6F894DEBF0FBECDBF809174070F
:102D3000882381F08F3F11F49AE001C091E08091E7
:102D4000B706981720F4891B8093B70603C081113A
:102D50001092B706809173078823C9F08F3F11F452
:102D60005AE001C051E04091B706242F30E08FEFC8
:102D700090E0851B91092817390724F4450F4093EB
:102D8000B70605C04F3F19F08FEF8093B7068091CB
:102D9000B7061F928F9387E993E09F938F938E01DD
:102DA0000F5F1F4F1F930F930E949B2861E080E0ED
:102DB0000E94A10164E0C8010E94820161E084E0F8
:102DC0000E94A1014AE06FEF8091B7060E94A9021C
:102DD00061E08EE00E94A10162E086EC91E00E9439
:102DE00082018091B7060E943E0A0F900F900F90CB
:102DF0000F900F900F902A960FB6F894DEBF0FBE7B
:102E0000CDBFDF91CF911F910F9108950F931F9325
:102E1000CF93DF93CDB7DEB72A970FB6F894DEBF16
:102E20000FBECDBF809174078823F1F08F3F19F456
:102E300080ED97E002C088EE93E02091B8063091D3
:102E4000B906AC0140575A494217530738F4281BBA
:102E5000390B3093B9062093B80606C080E995E691
:102E60009093B9068093B80680917307882341F147
:102E70008F3F19F420ED37E002C028EE33E0E091F7
:102E8000B806F091B906AF0160E070E088ED96ED0C
:102E9000A0E0B0E0821B930BA109B10948175907C4
:102EA0006A077B073CF42E0F3F1F3093B90620932F
:102EB000B80606C088ED96ED9093B9068093B806E3
:102EC0008091B8069091B90668EE73E00E944226A0
:102ED0007F936F938DE993E09F938F938E010F5FA4
:102EE0001F4F1F930F930E949B2861E087E00E9471
:102EF000A10163E0C8010E9482010F900F900F9022
:102F00000F900F900F902A960FB6F894DEBF0FBE69
:102F1000CDBFDF91CF911F910F910895CF93DF9394
:102F2000CDB7DEB72A970FB6F894DEBF0FBECDBF80
:102F300080917407882329F08091BA06811110923C
:102F4000BA0680917307882339F08091BA068111FF
:102F500003C081E08093BA068091BA06882319F0F5
:102F600064EA73E002C067EA73E0CE0101960E9452
:102F70006D2861E087E00E94A10163E0CE01019627
:102F80000E9482012A960FB6F894DEBF0FBECDBF15
:102F9000DF91CF9108950F931F93CF93DF93CDB718
:102FA000DEB72A970FB6F894DEBF0FBECDBF809173
:102FB0007407882379F08F3F11F48AE001C081E023
:102FC0009091B707891720F4981B9093B70702C018
:102FD0001092B707809173078823B9F08F3F11F4DF
:102FE0004AE001C041E05091B707252F30E08FEF54
:102FF00090E0841B91092817390724F4450F40936A
:10300000B70703C08FEF8093B7078091B7071F9270
:103010008F938BEA93E09F938F938E010F5F1F4FE7
:103020001F930F930E949B2861E080E00E94A10102
:1030300064E0C8010E94820161E084E00E94A10175
:103040004AE06FEF8091B7070E94A90261E08EE02D
:103050000E94A10162E086EC91E00E9482016091F1
:10306000B70770E080E00E94B00A0F900F900F90B9
:103070000F900F900F902A960FB6F894DEBF0FBEF8
:10308000CDBFDF91CF911F910F9108950F931F93A3
:10309000CF93DF93CDB7DEB72A970FB6F894DEBF94
:1030A0000FBECDBF80917407882379F08F3F11F454
:1030B0008AE001C081E09091B507891720F4981B40
:1030C0009093B50702C01092B507809173078823CB
:1030D000B9F08F3F11F44AE001C041E05091B507CB
:1030E000252F30E08FEF90E0841B910928173907D6
:1030F00024F4450F4093B50703C08FEF8093B507C5
:103100008091B5071F928F938BEA93E09F938F93E3
:103110008E010F5F1F4F1F930F930E949B2861E04A
:1031200080E00E94A10164E0C8010E94820161E088
:1031300084E00E94A1014AE06FEF8091B5070E94F0
:10314000A90261E08EE00E94A10162E086EC91E0BC
:103150000E9482016091B50770E081E00E94B00A90
:103160000F900F900F900F900F900F902A960FB620
:10317000F894DEBF0FBECDBFDF91CF911F910F91AD
:1031800008950F931F93CF93DF93CDB7DEB72A97A0
:103190000FB6F894DEBF0FBECDBF809174078823B1
:1031A000F1F08F3F19F480ED97E002C088EE93E0D4
:1031B0002091990730919A07AC014053584F42171C
:1031C000530738F4281B390B30939A07209399073B
:1031D00006C080ED97E090939A07809399078091BD
:1031E0007307882311F18F3F19F480ED97E002C037
:1031F00088EE93E04091990750919A072091B80684
:103200003091B90628583341B901681B790B46172C
:10321000570738F4840F951F90939A078093990766
:1032200004C030939A072093990780919907909151
:103230009A0768EE73E00E9442267F936F938DE9B0
:1032400093E09F938F938E010F5F1F4F1F930F93F8
:103250000E949B2861E087E00E94A10163E0C80111
:103260000E9482010E94AF110F900F900F900F905B
:103270000F900F902A960FB6F894DEBF0FBECDBF09
:10328000DF91CF911F910F9108958091740788234A
:10329000D9F08F3F19F420ED37E002C028EE33E07B
:1032A0008091990790919A07A901485F5D4A481754
:1032B000590718F4821B930B02C088E092E59093A3
:1032C0009A078093990702C020E030E0809173074D
:1032D000882311F18F3F19F420ED37E002C028EE6A
:1032E00033E04091990750919A078091B8069091E8
:1032F000B90688589341BC01621B730B46175707E8
:1033000038F4420F531F50939A074093990704C013
:1033100090939A07809399078091990790919A07C3
:10332000A0E0B0E08093A2069093A306A093A40629
:10333000B093A5068093A6069093A706A093A8062F
:10334000B093A906232B51F080E00E941D1360E08A
:1033500080E00E94A4088AE00C94D90E08954F9250
:103360005F926F927F928F929F92AF92BF92CF9215
:10337000DF92EF92FF920F931F93CF93DF93CDB71E
:10338000DEB72A970FB6F894DEBF0FBECDBF80918F
:10339000BA068E010F5F1F4F882371F060EB73E058
:1033A000C8010E946D2861E083E00E94A1016CE0E9
:1033B000C8010E948201DAC0809174078823C1F19C
:1033C0008F3F29F4E0EDEE2EE7E0FE2E04C078EE0C
:1033D000E72E73E0F72E80909B0790909C07A090BB
:1033E0009D07B0909E070E9483116701E12CF12C8C
:1033F00026013701460E571E681E791E48145904CF
:103400006A047B0468F48C189D08AE08BF0880929B
:103410009B0790929C07A0929D07B0929E0708C0C0
:1034200060939B0770939C0780939D0790939E07E2
:10343000809173078823C1F18F3F29F460EDE62E58
:1034400067E0F62E04C058EEE52E53E0F52E80908E
:103450009B0790909C07A0909D07B0909E070E94AC
:1034600053116701E12CF12C2B013C014C185D0834
:103470006E087F0884149504A604B70468F48C0CC5
:103480009D1CAE1CBF1C80929B0790929C07A09233
:103490009D07B0929E0708C060939B0770939C079E
:1034A00080939D0790939E0760919B0770919C0766
:1034B00080919D0790919E0748EE842E43E0942EC4
:1034C000A12CB12CA50194010E946A261F922F9372
:1034D0008DE993E09F938F931F930F930E949B28F6
:1034E00061E087E00E94A10163E0C8010E948201BF
:1034F000E0909907F0909A079701A4E6B0E00E9447
:10350000B1262B013C0160919B0770919C07809133
:103510009D0790919E07A50194010E946A26DA01F9
:10352000C90124E630E040E050E0281B390B4A0B8B
:103530005B0BC301B2010E946A262093A20630935E
:10354000A3064093A4065093A506C701A0E0B0E0EF
:103550008093A6069093A706A093A806B093A90609
:103560000F900F900F900F900F900F902A960FB61C
:10357000F894DEBF0FBECDBFDF91CF911F910F91A9
:10358000FF90EF90DF90CF90BF90AF909F908F9083
:103590007F906F905F904F9008952F923F924F923F
:1035A0005F926F927F928F929F92AF92BF92CF92D3
:1035B000DF92EF92FF920F931F93CF93DF93CDB7DC
:1035C000DEB764970FB6F894DEBF0FBECDBF0E9482
:1035D000E80B8823E1F081E080939D06419A439AAD
:1035E0002A982B984298409860E080E00E94A101C0
:1035F00060E18DEB93E00E94820161E080E00E9437
:10360000A10160E18EEC93E00E9482016CC0809188
:10361000B607811160C00E945C126091CB06709168
:10362000CC068091CD069091CE064090C706509072
:10363000C8066090C9067090CA06F8EE8F2EF3E0B7
:103640009F2EA12CB12CA50194010E946A26122F55
:10365000032F342E252EA4E6CA2ED12CE12CF12CDA
:10366000A70196010E946A265F934F933F932F9381
:103670002F923F920F931F93C301B201A5019401B2
:103680000E946A26122F032FB42EA52EA7019601A1
:103690000E946A265F934F933F932F93AF92BF92FE
:1036A0000F931F938FED93E09F938F938E010F5F86
:1036B0001F4F1F930F930E949B2861E080E00E94A0
:1036C000A10160E1C8010E9482010FB6F894DEBF3B
:1036D0000FBECDBF02C00E9458130E94E50E81119B
:1036E00002C00E94660B64960FB6F894DEBF0FBE50
:1036F000CDBFDF91CF911F910F91FF90EF90DF90A1
:10370000CF90BF90AF909F908F907F906F905F9081
:103710004F903F902F9008950F931F93CF93DF9377
:10372000CDB7DEB72A970FB6F894DEBF0FBECDBF78
:10373000809174078823C9F08F3F19F48AE090E0E4
:1037400002C081E090E02091AC063091AD06821776
:10375000930738F4281B390B3093AD062093AC0641
:1037600004C01092AD061092AC06809173078823B6
:1037700001F18F3F19F48AE090E002C081E090E00F
:103780004091AC065091AD062091B0063091B10643
:10379000B901681B790B4617570738F4840F951F3A
:1037A0009093AD068093AC0604C03093AD06209391
:1037B000AC068091AD068F938091AC068F938DEF10
:1037C00093E09F938F938E010F5F1F4F1F930F9373
:1037D0000E949B2861E086E00E94A10164E0C8018C
:1037E0000E9482010E94E50960E070E080E00E9492
:1037F000B00A60E070E081E00E94B00A0F900F9084
:103800000F900F900F900F902A960FB6F894DEBF8E
:103810000FBECDBFDF91CF911F910F9108950F93F0
:103820001F93CF93DF93CDB7DEB72A970FB6F894E7
:10383000DEBF0FBECDBF80917407882301F18F3F9B
:1038400019F48AE090E002C081E090E04091B00677
:103850005091B1062091AC063091AD06B901681BBC
:10386000790B6417750738F4481B590B5093B10650
:103870004093B00604C03093B1062093B006809107
:1038800073078823F1F08F3F19F48AE090E002C0BB
:1038900081E090E04091B0065091B10620E137E21E
:1038A000B901681B790B4617570738F4840F951F29
:1038B0009093B1068093B00604C03093B106209374
:1038C000B0068091B1068F938091B0068F938DEFF3
:1038D00093E09F938F938E010F5F1F4F1F930F9362
:1038E0000E949B2861E086E00E94A10164E0C8017B
:1038F0000E9482010E94E5096FEF70E080E00E9463
:10390000B00A60E070E081E00E94B00A0F900F9072
:103910000F900F900F900F902A960FB6F894DEBF7D
:103920000FBECDBFDF91CF911F910F9108950F93DF
:103930001F93CF93DF93CDB7DEB72A970FB6F894D6
:10394000DEBF0FBECDBF809174078823C9F08F3FC3
:1039500019F48AE090E002C081E090E02091AE0688
:103960003091AF068217930738F4281B390B309338
:10397000AF062093AE0604C01092AF061092AE06BA
:1039800080917307882301F18F3F19F48AE090E05A
:1039900002C081E090E04091AE065091AF062091C8
:1039A000B2063091B306B901681B790B4617570769
:1039B00038F4840F951F9093AF068093AE0604C031
:1039C0003093AF062093AE068091AF068F9380911F
:1039D000AE068F938DEF93E09F938F938E010F5FD1
:1039E0001F4F1F930F930E949B2861E086E00E9467
:1039F000A10164E0C8010E9482010E94E50960E023
:103A000070E080E00E94B00A60E070E081E00E9417
:103A1000B00A0F900F900F900F900F900F902A9672
:103A20000FB6F894DEBF0FBECDBFDF91CF911F91CF
:103A30000F9108950F931F93CF93DF93CDB7DEB708
:103A40002A970FB6F894DEBF0FBECDBF80917407E2
:103A5000882301F18F3F19F48AE090E002C081E0F1
:103A600090E04091B2065091B3062091AE0630919D
:103A7000AF06B901681B790B6417750738F4481B4A
:103A8000590B5093B3064093B20604C03093B3066B
:103A90002093B206809173078823F1F08F3F19F4C9
:103AA0008AE090E002C081E090E04091B20650913F
:103AB000B30620E137E2B901681B790B46175707B7
:103AC00038F4840F951F9093B3068093B20604C018
:103AD0003093B3062093B2068091B3068F93809102
:103AE000B2068F938DEF93E09F938F938E010F5FBC
:103AF0001F4F1F930F930E949B2861E086E00E9456
:103B0000A10164E0C8010E9482010E94E50960E011
:103B100070E080E00E94B00A6FEF70E081E00E94E8
:103B2000B00A0F900F900F900F900F900F902A9661
:103B30000FB6F894DEBF0FBECDBFDF91CF911F91BE
:103B40000F9108950F931F93CF93DF93CDB7DEB7F7
:103B50002A970FB6F894DEBF0FBECDBF80917407D1
:103B60008823C9F08F3F19F48AE090E002C081E019
:103B700090E02091B4063091B5068217930738F48F
:103B8000281B390B3093B5062093B40604C010925D
:103B9000B5061092B406809173078823F1F08F3F29
:103BA00019F48AE090E002C081E090E04091B40610
:103BB0005091B50620E83EE3B901681B790B461722
:103BC000570738F4840F951F9093B5068093B40679
:103BD00004C03093B5062093B4068091B5068F9348
:103BE0008091B4068F938DEF93E09F938F938E0116
:103BF0000F5F1F4F1F930F930E949B2861E086E089
:103C00000E94A10164E0C8010E9482010E94E509AE
:103C100060E070E080E00E94B00A60E070E081E067
:103C20000E94B00A0F900F900F900F900F900F907E
:103C30002A960FB6F894DEBF0FBECDBFDF91CF91AD
:103C40001F910F910895CF92DF92EF92FF920F9301
:103C50001F93CF93DF93CDB7DEB76B970FB6F89472
:103C6000DEBF0FBECDBF80919D068A3009F05AC0DD
:103C7000B0E2CB2EBBE1DB2EBCE7EB2EBCE0FB2E93
:103C80002091BF063091C0064091C1065091C206F6
:103C9000C701B6010E946A2689019A010093CF06E6
:103CA0001093D0062093D1063093D2061092D306FB
:103CB0001092D4061092D5061092D6062091C30613
:103CC0003091C4064091C5065091C606C701B601A1
:103CD0000E946A2689019A010093D7061093D8069C
:103CE0002093D9063093DA061092DB061092DC0698
:103CF0001092DD061092DE060E94E50E082F20913C
:103D0000C3063091C4064091C5065091C606609125
:103D1000BF067091C0068091C1069091C2060E94B4
:103D200086155FC1863429F434995BC10E945E1503
:103D300058C1873489F4349954C18AE080939D0630
:103D4000349BFECF359BFCCF369BFACF379BF8CF09
:103D50008EE10E94D90E45C1823319F40E940E16DD
:103D600040C1833319F40E948A163BC1843319F48D
:103D70000E94061736C1853319F40E948E1731C18F
:103D80008C3319F40E94CB172CC18D3319F40E9487
:103D9000461827C1843119F40E94C11822C18B3002
:103DA00071F5349B02C0359918C04091A20650911C
:103DB000A3066091A4067091A5068091A606909135
:103DC000A706A091A806B091A906481759076A0747
:103DD0007B0719F40E94451904C1369906C037992A
:103DE00004C081E08093B607FCC03799FAC0369BC7
:103DF000F8C01092B60780E00E941D13F2C0853112
:103E000019F40E94AF19EDC0813509F0D2C080913C
:103E10000101875090E08830910568F5FC01ED5A6A
:103E2000FF4F0C94AB26209175073091760725C083
:103E3000209177073091780720C020917907309141
:103E40007A071BC020917B0730917C0716C0209118
:103E50007D0730917E0711C020917F073091800748
:103E60000CC0209181073091820707C02091830701
:103E70003091840702C020E030E040917407442371
:103E800091F04F3F19F44AE050E002C041E050E0A9
:103E9000BA016E5F7F47261737071CF0241B350BCE
:103EA00002C021E030E840917307442399F04F3F6E
:103EB00019F44AE050E002C041E050E06FEF7FE7C4
:103EC000641B750B261737071CF4240F351F02C01F
:103ED0002FEF3FE7AE014B5E5F4F8830910508F052
:103EE0004BC0FC01E55AFF4F0C94AB26309376078C
:103EF0002093750785E0E2E0F4E02FC03093780767
:103F00002093770785E0E7E0F4E027C030937A0755
:103F10002093790785E0ECE0F4E01FC030937C0744
:103F200020937B0787E0EEE2F4E020C030937E0729
:103F300020937D0785E0E1E1F4E00FC03093800736
:103F400020937F0785E0E6E1F4E007C03093820725
:103F50002093810785E0EBE1F4E0DA0109C03093BA
:103F600084072093830787E0E5E3F4E0DE015596BC
:103F700001900D928A95E1F73F932F935F934F93B2
:103F800080E294E09F938F938E010F5F1F4F1F93EA
:103F90000F930E949B2861E080E00E94A10160E1F4
:103FA000C8010E9482010FB6F894DEBF0FBECDBFDC
:103FB00018C08B3519F40E948C1B13C08C3519F472
:103FC0000E940F1C0EC08D3519F40E94971C09C069
:103FD0008E3519F40E941A1D04C08F3511F40E9409
:103FE000A21D80919D068B3011F40E94CD1A6B9614
:103FF0000FB6F894DEBF0FBECDBFDF91CF911F91FA
:104000000F91FF90EF90DF90CF90089580919D06E3
:10401000089580939D060895CF93DF93FC018491CA
:10402000EF012196882321F00E94950EFE01F7CF23
:10403000DF91CF9108958EE592E00C940C204F9281
:104040005F926F927F928F929F92AF92BF92CF9228
:10405000DF92EF92FF920F931F93CF93DF93CDB731
:10406000DEB7C458D1090FB6F894DEBF0FBECDBF7E
:104070000E945E0EF82E082F192F10FDD4C513FFD5
:1040800004C08CE394E00E94AE0E12FF04C087E4EB
:1040900094E00E94AE0E11FF04C084E594E00E94FB
:1040A000AE0E8EE3F8120EC08FE0E82FF0E0E55779
:1040B000F94F10828150C9F781E080938A06F0920F
:1040C0008B06A3C5E0918A060115110521F00D307C
:1040D000110509F092C5EE2EF12C90E1E916F104DC
:1040E00008F044C080918B068E3309F03FC060E534
:1040F00071E08BE896E00E945F288C010097B1F197
:10410000E2E0EE16F10490F180918C06833509F01F
:104110002EC462E674E0C8010E946428892B49F528
:1041200060E571E080E090E00E945F28FC01019072
:104130000020E9F7BF0161507109681B790B0FEF8F
:1041400010E020E030E0AE014F5F5F4F0E941908A1
:1041500087FF03C084E692E09BC089818093B60606
:104160000E943B0A0E94E3080E941B20EBE8F6E055
:104170003EC566E674E0C8010E946428892B19F5E3
:1041800060E571E080E090E00E945F28FC01019012
:104190000020E9F7BF0161507109681B790B0FEF2F
:1041A00010E020E030E0AE014F5F5F4F0E94190841
:1041B00087FF03C08EE492E06BC089818093B706CD
:1041C0000E943E0ACFCF6AE674E0C8010E946428CC
:1041D000892B89F560E571E080E090E00E945F281E
:1041E000FC0101900020E9F7BF0161507109681BD3
:1041F000790B01E410E025E130E0AE014F5F5F4F45
:104200000E94190887FF03C08AE392E041C04981F8
:104210005A8128EE33E0429FC001439F900D529F88
:10422000900D11249093B9068093B8060E94E3087C
:104230000E94AF1199CF6EE674E0C8010E94642815
:10424000892BC9F560E571E080E090E00E945F286D
:104250007C01FC0101900020E9F73197E81BF90B84
:104260008091B8069091B90668EE73E00E944226EC
:10427000655071098B0125E130E0AE014F5F5F4F62
:104280006E2FC7010E94190887FF05C08CE292E0DB
:104290000E940C206BCF49815A8128EE33E0429F67
:1042A000C001439F900D529F900D112490939A0747
:1042B000809399075BC063E774E0C8010E9464289B
:1042C000892B09F058C060E571E080E090E00E9421
:1042D0005F285C010E9453112B013C010E94831155
:1042E000CF57DF4F688379838A839B83C158D0403F
:1042F000F50101900020E9F7CF0101974C018A18E0
:104300009B0848EEC42E43E0D42EE12CF12CC301CF
:10431000B201A70196010E946A2629013A01CF57EE
:10432000DF4F688179818A819B81C158D040A70184
:1043300096010E946A268201AE014F5F5F4F682D91
:10434000C5010E94190887FF03C08EE192E0A0CF4B
:10435000A981BA8128EE33E00E94C02660939B07B2
:1043600070939C0780939D0790939E070E94AF11C6
:104370000E944909F9CE68E774E0C8010E946428E8
:10438000892B39F560E571E080E090E00E945F28BC
:10439000FC0101900020E9F7BF0161507109681B21
:1043A000790B01E010E020E030E0AE014F5F5F4F9D
:1043B0000E94190887FF03C080E192E069CF8981DC
:1043C0009A81892B19F42A984298CECE2A9A429A39
:1043D000CBCE6DE774E0C8010E946428892B39F5C3
:1043E00060E571E080E090E00E945F28FC010190B0
:1043F0000020E9F7BF0161507109681B790B01E0EA
:1044000010E020E030E0AE014F5F5F4F0E941908DE
:1044100087FF03C081E092E03BCF89819A81892B9D
:1044200019F42B984098A0CE2B9A409A9DCE62E822
:1044300074E0C8010E946428892B09F560E571E0E9
:1044400080E090E00E945F28FC0101900020E9F7E5
:10445000BF0161507109681B790B0FEF10E020E07C
:1044600030E0AE014F5F5F4F0E94190887FF03C025
:1044700082EF91E00DCF69817A8180E075C267E8B3
:1044800074E0C8010E946428892B01F560E571E0A1
:1044900080E090E00E945F28FC0101900020E9F795
:1044A000BF0161507109681B790B0FEF10E020E02C
:1044B00030E0AE014F5F5F4F0E94190887FF03C0D5
:1044C00083EE91E0E5CE69817A814DC26CE874E0BB
:1044D000C8010E946428892B21F560E571E080E025
:1044E00090E00E945F28FC0101900020E9F7BF01E5
:1044F00061507109681B790B0FEF1FE722E030E86C
:10450000AE014F5F5F4F0E94190887FF03C084ED23
:1045100091E0BECE89819A8190937607809375074A
:104520002CC162E974E0C8010E946428892B21F53E
:1045300060E571E080E090E00E945F28FC0101905E
:104540000020E9F7BF0161507109681B790B0FEF7B
:104550001FE722E030E8AE014F5F5F4F0E9419086D
:1045600087FF03C085EC91E093CE89819A81909377
:1045700078078093770701C168E974E0C8010E9459
:104580006428892B21F560E571E080E090E00E94CD
:104590005F28FC0101900020E9F7BF01615071091B
:1045A000681B790B0FEF1FE722E030E8AE014F5F89
:1045B0005F4F0E94190887FF03C086EB91E068CE29
:1045C00089819A8190937A0780937907D6C06EE9A2
:1045D00074E0C8010E946428892B21F560E571E030
:1045E00080E090E00E945F28FC0101900020E9F744
:1045F000BF0161507109681B790B0FEF10E020E0DB
:1046000030E0AE014F5F5F4F0E94190887FF03C083
:1046100085EA91E03DCE89819A8190937C078093D1
:104620007B07ABC064EA74E0C8010E946428892B50
:1046300021F560E571E080E090E00E945F28FC01D8
:1046400001900020E9F7BF0161507109681B790BE7
:104650000FEF1FE722E030E8AE014F5F5F4F0E948F
:10466000190887FF03C086E991E012CE89819A81FB
:1046700090937E0780937D0780C06AEA74E0C8014A
:104680000E946428892B21F560E571E080E090E0CC
:104690000E945F28FC0101900020E9F7BF016150F2
:1046A0007109681B790B0FEF1FE722E030E8AE01BC
:1046B0004F5F5F4F0E94190887FF03C087E891E0B2
:1046C000E7CD89819A819093800780937F0755C0B9
:1046D00060EB74E0C8010E946428892B21F560E535
:1046E00071E080E090E00E945F28FC0101900020D2
:1046F000E9F7BF0161507109681B790B0FEF1FE7E4
:1047000022E030E8AE014F5F5F4F0E94190887FF3B
:1047100003C088E791E0BCCD89819A81909382079C
:10472000809381072AC066EB74E0C8010E94642868
:10473000892B31F560E571E080E090E00E945F2810
:10474000FC0101900020E9F7BF0161507109681B6D
:10475000790B0FEF10E020E030E0AE014F5F5F4FCC
:104760000E94190887FF03C087E691E091CD8981F7
:104770009A8190938407809383070E947A09F4CCEE
:104780006CEB74E0C8010E946428892B21F560E578
:1047900071E080E090E00E945F28FC010190002021
:1047A000E9F7BF0161507109681B790B00E81EE34E
:1047B00020E030E0AE014F5F5F4F0E94190887FF95
:1047C00003C084E591E064CD89819A819093AD0620
:1047D0008093AC06BDC064EC74E0C8010E946428FC
:1047E000892B21F560E571E080E090E00E945F2870
:1047F000FC0101900020E9F7BF0161507109681BBD
:10480000790B00E81EE320E030E0AE014F5F5F4F20
:104810000E94190887FF03C081E491E039CD8981A6
:104820009A819093AF068093AE0692C06CEC74E0D0
:10483000C8010E946428892B51F560E571E080E091
:1048400090E00E945F28FC0101900020E9F7BF0181
:1048500061507109681B790B00E81EE320E030E02D
:10486000AE014F5F5F4F0E94190887FF03C08EE2C1
:1048700091E00ECD89819A819093B1068093B00624
:104880000E94E3080E94E5096FEF70E067C064EDE5
:1048900074E0C8010E946428892B79F560E571E015
:1048A00080E090E00E945F28FC0101900020E9F781
:1048B000BF0161507109681B790B00E81EE320E01D
:1048C00030E0AE014F5F5F4F0E94190887FF03C0C1
:1048D0008BE191E0DDCC89819A819093B30680933E
:1048E000B2060E94E3080E94E50960E070E080E003
:1048F0000E94B00A6FEF70E036C06CED74E0C80142
:104900000E946428892B09F031CC60E571E080E0D9
:1049100090E00E945F28FC0101900020E9F7BF01B0
:1049200061507109681B790B00E81EE320E030E05C
:10493000AE014F5F5F4F0E94190887FF03C086E0FA
:1049400091E0A6CC89819A819093B5068093B406B4
:104950000E94E3080E94E50960E070E080E00E94A8
:10496000B00A60E070E081E00E94B00AFDCB62EE28
:1049700074E0C8010E946428892BE1F58091B80693
:104980009091B90668EE73E00E9442267F936F9380
:104990008091B7061F928F938091B6061F928F93D6
:1049A0008091B5068F938091B4068F938091B30662
:1049B0008F938091B2068F938091B1068F938091EF
:1049C000B0068F938091AF068F938091AE068F9340
:1049D0008091AD068F938091AC068F9389EE94E021
:1049E0009F938F938E010F5F1F4F1F930F930E9412
:1049F0009B28D9C06BE475E0C8010E946428892B0C
:104A000081F5809182078F93809181078F938091A8
:104A100080078F9380917F078F9380917E078F937C
:104A200080917D078F9380917A078F93809179078A
:104A30008F93809178078F93809177078F938091E0
:104A400076078F93809175078F9381E595E09F930B
:104A50008F938E010F5F1F4F1F930F930E949B2810
:104A6000A2C064E975E0C8010E946428892B09F09E
:104A7000A3C06091C7067091C8068091C906909145
:104A8000CA0624E6C22ED12CE12CF12CA7019601F6
:104A90000E946A2649015A016091CB067091CC06AA
:104AA0008091CD069091CE06A70196010E946A26BC
:104AB0008091AB061F928F938091AA061F928F93CD
:104AC000EAE0F0E0C901BF010E9442269F938F9364
:104AD0007F936F93C401BF010E9442269F938F93DF
:104AE0007F936F936091A6067091A7068091A806A8
:104AF0009091A90638EEC32E33E0D32EE12CF12C91
:104B0000A70196010E946A261F922F936091A20628
:104B10007091A3068091A4069091A506A701960125
:104B20000E946A261F922F936091A1077091A2079D
:104B30008091A3079091A407A70196010E946A267D
:104B40001F922F9380919F079091A00708EE13E08A
:104B5000B8010E9442267F936F9360919B077091EA
:104B60009C0780919D0790919E07A70196010E9446
:104B70006A261F922F938091990790919A07B80106
:104B80000E9442267F936F9380919D061F928F9380
:104B900087E995E09F938F938E010F5F1F4F1F93BF
:104BA0000F930E949B28C8010E94AE0E0FB6F89486
:104BB000DEBF0FBECDBFDACA64EE75E0C8010E9449
:104BC0006428892B29F40E94170F0E945E15CCCA15
:104BD00068EE75E0C8010E946428892B09F0C6CAF6
:104BE0008AE00E9409208EE10E94D90EBDCA11926E
:104BF00096E0EB39F907D9F708C081E08E0F809372
:104C00008A06F0E0E557F94FF08280918A068031FC
:104C100051F48FE0E82FF0E0E557F94F1082815012
:104C2000C9F710928A06CC57DF4F0FB6F894DEBF53
:104C30000FBECDBFDF91CF911F910F91FF90EF90ED
:104C4000DF90CF90BF90AF909F908F907F906F90AC
:104C50005F904F9008950E94410A0E941F200E9479
:104C600094050E9420140E94A908882321F00E9424
:104C7000231E0E94AC0880919D06813071F30E9432
:104C80008708EBCFAA1BBB1B51E107C0AA1FBB1FA4
:104C9000A617B70710F0A61BB70B881F991F5A95C8
:104CA000A9F780959095BC01CD01089597FB072E3B
:104CB00016F4009407D077FD09D00E94422607FC25
:104CC00005D03EF4909581959F4F0895709561951C
:104CD0007F4F0895A1E21A2EAA1BBB1BFD010DC038
:104CE000AA1FBB1FEE1FFF1FA217B307E407F5079C
:104CF00020F0A21BB30BE40BF50B661F771F881F78
:104D0000991F1A9469F760957095809590959B010D
:104D1000AC01BD01CF010895052E97FB1EF4009450
:104D20000E94A32657FD07D00E946A2607FC03D0E5
:104D30004EF40C94A32650954095309521953F4F05
:104D40004F4F5F4F089590958095709561957F4F77
:104D50008F4F9F4F0895EE0FFF1F0590F491E02DA8
:104D60000994A29FB001B39FC001A39F700D811D44
:104D70001124911DB29F700D811D1124911D089564
:104D80000E94B126B7FF0895821B930B08950E94DD
:104D9000B126A59F900DB49F900DA49F800D911DED
:104DA00011240895B7FF0C94C7260E94C726821BC2
:104DB000930B0895DF93CF931F930F939A9DF02D3C
:104DC000219FF00D8B9DF00D8A9DE02DF10D039F2D
:104DD000F00D029FE00DF11D4E9DE00DF11D5E9D59
:104DE000F00D4F9DF00D7F936F93BF92AF925F9345
:104DF0004F93D5010E94B1268B01AC01D7010E94CF
:104E0000B126EB01E80FF91FD6010E942A272F9146
:104E10003F91D6010E94B126C60FD71FE81FF91F88
:104E2000AF91BF910E942A272F913F910E94B126F6
:104E3000C60FD71FE81FF91FD6010E94B126E60F43
:104E4000F71F9801BE01CF0111240F911F91CF913F
:104E5000DF9108950E94B126460F571FC81FD91F22
:104E600008F431960895689401C0E894F92FF12B65
:104E700012F00C946727A0E0B0E0E1E4F7E20C94B4
:104E8000D927092E059422F40E94C327112392F4F6
:104E9000F0E80F26FFEFE094F09400951095B094A1
:104EA000C094D094A194BF0ACF0ADF0AEF0AFF0A88
:104EB0000F0B1F0B0E94722707FC0E94C327CDB760
:104EC000DEB7ECE00C94F527689401C0E8948F926B
:104ED0009F92CF93DF930E947227DF91CF919F9093
:104EE0008F90089588249924F401E401B0E49F93FD
:104EF000AA279A158B049C04ED05FE05CF05D00763
:104F0000A10798F4AD2FDC2FCF2FFE2FE92D982C81
:104F1000892E982F872F762F652F542F432F322FCE
:104F20002227B85031F7BF9127C01B2EBF91BB2756
:104F3000220F331F441F551F661F771F881F991F9D
:104F4000881C991CEE1FFF1FCC1FDD1FAA1FBB1F53
:104F50008A149B04EC05FD05CE05DF05A007B1070B
:104F600048F08A189B08EC09FD09CE09DF09A00B5F
:104F7000B10B21601A94E1F62EF49401AF01BE0149
:104F8000CD01000C089560957095809590953095B1
:104F90004095509521953F4F4F4F5F4F6F4F7F4F3B
:104FA0008F4F9F4F08952F923F924F925F926F9233
:104FB0007F928F929F92AF92BF92CF92DF92EF92A9
:104FC000FF920F931F93CF93DF93CDB7DEB7CA1B2A
:104FD000DB0B0FB6F894DEBF0FBECDBF09942A8855
:104FE000398848885F846E847D848C849B84AA84FD
:104FF000B984C884DF80EE80FD800C811B81AA818A
:10500000B981CE0FD11D0FB6F894DEBF0FBECDBF54
:10501000ED0108950F93083090F0982F872F762F89
:10502000652F542F432F322F22270850F4CF220F01
:10503000331F441F551F661F771F881F991F0A952E
:10504000B2F70F91089597FB10F8169400080F938C
:10505000083098F00850232F342F452F562F672FF4
:10506000782F892F902DF4CF059497958795779574
:10507000679557954795379527950A95AAF70F9104
:1050800008952A0D3B1D4C1D5D1D6E1D7F1D801F4B
:10509000911F08952A193B094C095D096E097F0982
:1050A000800B910B08950024A7FD00942A1730056A
:1050B00040055005600570058005900508954BE991
:1050C00056E00E9474280895FB01DC018D91019047
:1050D00080190110D9F3990B0895FB01DC010190AF
:1050E0000D920020E1F70895FA01A191B081009797
:1050F00019F41097E1F0CD01DC01CD010D900020F5
:1051000011F4C00113C0FB012191222319F02015D5
:10511000D9F7F3CFFB012191201519F41E921196B6
:1051200006C02223C1F70D900020A1F7D001FA019B
:10513000A193B0830895AEE0B0E0E1EAF8E20C9408
:10514000E1270D891E8986E08C831A8309838FEFFE
:105150009FE79E838D83AE01475E5F4F6F89788D99
:10516000CE0101960E94BD28EF81F885E00FF11F66
:1051700010822E96E4E00C94FD27ACE0B0E0E3EC66
:10518000F8E20C94D3277C016B018A01FC011782A1
:105190001682838181FFBDC1CE0101964C01F701CA
:1051A0009381F60193FD859193FF81916F0188238F
:1051B00009F4ABC1853239F493FD859193FF819158
:1051C0006F01853229F4B70190E00E94CD2AE7CF24
:1051D000512C312C20E02032A0F48B3269F030F4D5
:1051E000803259F0833269F420612CC08D3239F05D
:1051F000803339F4216026C02260246023C02860F7
:1052000021C027FD27C030ED380F3A3078F426FF53
:1052100006C0FAE05F9E300D1124532E13C08AE0C1
:10522000389E300D1124332E20620CC08E3221F4B2
:1052300026FD6BC1206406C08C3611F4206802C0C4
:10524000883641F4F60193FD859193FF81916F01BA
:105250008111C1CF982F9F7D9554933028F40C5F16
:105260001F4FFFE3F9830DC0833631F0833771F0B0
:10527000833509F05BC022C0F801808189830E5F0D
:105280001F4F44244394512C540115C03801F2E0BF
:105290006F0E711CF801A080B18026FF03C0652D40
:1052A00070E002C06FEF7FEFC5012C870E94C22A19
:1052B0002C0183012C852F77222E17C03801F2E0B4
:1052C0006F0E711CF801A080B18026FF03C0652D10
:1052D00070E002C06FEF7FEFC5012C870E94B72AF4
:1052E0002C012C852068222E830123FC1BC0832DDA
:1052F00090E048165906B0F4B70180E290E00E94B1
:10530000CD2A3A94F4CFF50127FC859127FE8191AF
:105310005F01B70190E00E94CD2A31103A94F1E08C
:105320004F1A51084114510471F7E5C0843611F049
:10533000893639F5F80127FF07C0608171818281C4
:1053400093810C5F1F4F08C060817181882777FDB2
:105350008095982F0E5F1F4F2F76B22E97FF09C0B2
:1053600090958095709561957F4F8F4F9F4F2068E6
:10537000B22E2AE030E0A4010E94FF2AA82EA8182D
:1053800044C0853729F42F7EB22E2AE030E025C0B4
:10539000F22FF97FBF2E8F36C1F018F4883579F0DF
:1053A000B4C0803719F0883721F0AFC02F2F2061AB
:1053B000B22EB4FE0DC08B2D8460B82E09C024FF20
:1053C0000AC09F2F9660B92E06C028E030E005C0C5
:1053D00020E130E002C020E132E0F801B7FE07C072
:1053E00060817181828193810C5F1F4F06C0608153
:1053F000718180E090E00E5F1F4FA4010E94FF2AA0
:10540000A82EA818FB2DFF77BF2EB6FE0BC02B2DA4
:105410002E7FA51450F4B4FE0AC0B2FC08C02B2D98
:105420002E7E05C07A2C2B2D03C07A2C01C0752C42
:1054300024FF0DC0FE01EA0DF11D8081803311F4BF
:10544000297E09C022FF06C07394739404C0822F82
:10545000867809F0739423FD13C020FF06C05A2CF0
:10546000731418F4530C5718732C731468F4B701A1
:1054700080E290E02C870E94CD2A73942C85F5CF92
:10548000731410F4371801C0312C24FF12C0B70177
:1054900080E390E02C870E94CD2A2C8522FF17C044
:1054A00021FF03C088E590E002C088E790E0B701E3
:1054B0000CC0822F867859F021FD02C080E201C025
:1054C0008BE227FD8DE2B70190E00E94CD2AA51462
:1054D00038F4B70180E390E00E94CD2A5A94F7CFC8
:1054E000AA94F401EA0DF11D8081B70190E00E94B9
:1054F000CD2AA110F5CF332009F451CEB70180E2B7
:1055000090E00E94CD2A3A94F6CFF70186819781E8
:1055100002C08FEF9FEF2C96E2E10C94EF27DC01A5
:10552000CB01FC01F999FECF06C0F2BDE1BDF89AAE
:10553000319600B40D9241505040B8F70895DC0107
:10554000CB0103C02D910E94AA2A41505040D0F7B0
:105550000895262FF999FECF1FBA92BD81BD20BDB7
:105560000FB6F894FA9AF99A0FBE01960895FC01C5
:105570000590615070400110D8F7809590958E0F7E
:105580009F1F0895FC016150704001900110D8F7F1
:10559000809590958E0F9F1F08950F931F93CF9323
:1055A000DF93182F092FEB018B8181FD03C08FEF53
:1055B0009FEF20C082FF10C04E815F812C813D8112
:1055C000421753077CF4E881F9819F012F5F3F4F19
:1055D00039832883108306C0E885F985812F0995D2
:1055E000892B29F72E813F812F5F3F4F3F832E83E9
:1055F000812F902FDF91CF911F910F910895FA0184
:10560000AA27283051F1203181F1E8946F936E7F01
:105610006E5F7F4F8F4F9F4FAF4FB1E03ED0B4E0F2
:105620003CD0670F781F891F9A1FA11D680F791F33
:105630008A1F911DA11D6A0F711D811D911DA11D44
:1056400020D009F468943F912AE0269F1124301954
:10565000305D3193DEF6CF010895462F4770405DEF
:105660004193B3E00FD0C9F7F6CF462F4F70405D9E
:105670004A3318F0495D31FD4052419302D0A9F7F9
:10568000EACFB4E0A6959795879577956795BA95F3
:10569000C9F700976105710508959B01AC010A2EB9
:1056A00006945795479537952795BA95C9F7620F90
:0E56B000731F841F951FA01D0895F894FFCF4F
:1056BE00FFFF01FFFFFFFF496E6974696E672E2EB3
:1056CE002E00414443204572726F72210053312ED9
:1056DE002E2E004F4B202053322E2E2E004F4B00DD
:1056EE002020202052756E20546573742020203E99
:1056FE0000202020202020202020202020202020BC
:10570E00200020202043616C696272617465202044
:10571E00203E004F323C20204F787967656E202066
:10572E0020202B0048652020202020202020202013
:10573E002020202D004F3220202048656C69756D89
:10574E00202020202B0048653C20202020202020D7
:10575E0020202020202D0020204272696768746E60
:10576E006573732020202B00202020202020202055
:10577E00202020202020202D0020202020436F6E6E
:10578E0074726173742020202B002020456D657289
:10579E0067656E6379204F32202B002031207365B0
:1057AE006E732E206D6F646521202B0020205365B3
:1057BE0074204F322076616C7665202B00202053AA
:1057CE0065742048652076616C7665202B00504903
:1057DE0044207365747570204D415820202B005065
:1057EE0049442073657475702078313238202B004F
:1057FE002020536572766F31204D494E2020202B8C
:10580E00002020536572766F31204D4158202020A4
:10581E002B002020536572766F32204D494E20208A
:10582E00202B002020536572766F32204D41582078
:10583E0020202B002020202054696D6572312020FD
:10584E002020202B002532752F2532752020253261
:10585E00752E253031752F2532752E253031750078
:10586E0045414E25327520203E45414E253032753C
:10587E002E253031753C007425303275632530325B
:10588E0075207374253032752076253033750043BC
:10589E00616E27742063616C6962726174652100A8
:1058AE0053656E736F7273206661696C75726521D4
:1058BE0000204D617820646576696174696F6E3A77
:1058CE0020002020202025357520755620202020F0
:1058DE002000202020436865636B696E672E2E2E94
:1058EE00202000202020202020444F4E4521202023
:1058FE002020200053313A2025356C697556202022
:10590E0020203E0053313A2025356C6975562020F3
:10591E002020200053323A2025356C697556202000
:10592E002532647300506C656173652C207475723A
:10593E006E206F6E2000796F757220636F6D7072BE
:10594E006573736F72210025303375200025303258
:10595E00752525004F4E004F464600253375200015
:10596E00554E415641494C41424C45210020202084
:10597E00456D657267656E63792120202000526542
:10598E00626F6F7420726571756972656421005360
:10599E00313A25326C692E2530316C692053323AFA
:1059AE0025326C692E2530316C692020002530346B
:1059BE00750053315F500053315F490053315F44DE
:1059CE000053325F500053325F490053325F440040
:1059DE002573202020253035642020202D005331C2
:1059EE005F4D41580053325F4D4158003C214531C7
:1059FE00204672616D65003C214532204F766572FE
:105A0E0072756E003C214533204F766572666C6F61
:105A1E0077003E5342003E5343003E5345003E53F3
:105A2E004F32003E534865003E535631003E5356AA
:105A3E0032003E535331003E535332003E535031E9
:105A4E0050003E53503149003E53503144003E53B6
:105A5E0050314D003E53503250003E5350324900AB
:105A6E003E53503244003E5350324D003E5353315C
:105A7E004D494E003E5353324D494E003E53533125
:105A8E004D4158003E5353324D4158003E53544DF4
:105A9E0052003E47434F4E46003C53314D494E3A1D
:105AAE00253034640D0A3C53324D494E3A2530347C
:105ABE00640D0A3C53314D41583A253034640D0A79
:105ACE003C53324D41583A253034640D0A3C54490A
