:100000000C945E000C947B000C947B000C947B00A1
:100010000C947B000C947B000C947B000C947B0074
:100020000C947B000C947B000C947B000C947B0064
:100030000C947B000C947B000C947B000C947B0054
:100040000C947B000C947B000C947D000C947B0042
:100050000C9497090C94CC090C947B000C947B00B5
:100060000C947B000C947B000C947B000C947B0024
:100070000C947B000C947B000C947B00001F000010
:1000800000001F00001F101010101F00001F181884
:1000900018181F00001F1C1C1C1C1F00001F1E1E08
:1000A0001E1E1F00001F1F1F1F1F1F0003070F1F03
:1000B0000F070300181C1E1F1E1C180011241FBE52
:1000C000CFEFD0E1DEBFCDBF13E0A0E0B1E0E8E8C4
:1000D000F0E302C005900D92A036B107D9F725E0F4
:1000E000A0E6B3E001C01D92AC31B207E1F70E9477
:1000F0002C130C9442180C9400001F920F920FB610
:100100000F9211242F933F934F935F936F937F939D
:100110008F939F93AF93BF93EF93FF938091A60428
:100120008F5F8093A6048091A604893068F0809147
:100130009204909193040196909393048093920477
:100140001092A6040E94A3048091920490919304BB
:1001500062E370E00E947013892B11F40E948D0AF3
:10016000FF91EF91BF91AF919F918F917F916F918F
:100170005F914F913F912F910F900FBE0F901F9065
:1001800018957F928F929F92AF92BF92CF92DF92FB
:10019000EF92FF920F931F93CF93DF9381E00E9422
:1001A0003806DC01CB019C01AD0160E070E080E02D
:1001B00090E040585109610971098109910959017B
:1001C0006A017B01E82F192F02E00E9420150E2FF3
:1001D0000E94571559016A017B01E82F192F04E08D
:1001E0000E9420150E2F0E94601559016A017B01A3
:1001F000E82F192F04E00E9420150E2F0E94601591
:100200004901D42FC52FB62FA72FF82FE92F06E0CD
:100210000E94201559016A017B018C0194014D2F28
:100220005C2F6B2F7A2F8F2F9E2F0E945715722EC7
:10023000832E942ED52FC62FB72FF82FE92FA0E0AD
:100240000E94691584F42150310940485F4F6F4F77
:100250007F4F8F4F9F4F722E832E942ED52FC62FF8
:10026000B72FF82FE92F272D382D492D5D2F6C2F13
:100270007B2F8F2F9E2F07E10E943915C22FB32F9E
:10028000F42FE52F762E872E982ED92FA0E00E94EE
:10029000691554F40E94D914C22FB32FF42FE52FFF
:1002A000762E872E982ED92F8091620381113CC023
:1002B000C093E004B093E104F093E204E093E3041C
:1002C000A090F004B090F104C090F204D090F30438
:1002D000E090F404F090F5040091F6041091F70416
:1002E0002C2F3B2F4F2F5E2F672D782D892D9D2F83
:1002F0000E94F013A0E1AA2EB7E2BB2EC12CD12C94
:10030000E12CF12C00E010E00E944B142093E80453
:100310003093E9044093EA045093EB0481E0809326
:1003200062030E94261338C0C093E404B093E5042E
:10033000F093E604E093E704A090F804B090F90489
:10034000C090FA04D090FB04E090FC04F090FD040F
:100350000091FE041091FF042C2F3B2F4F2F5E2F96
:10036000672D782D892D9D2F0E94F013E0E1AE2E90
:10037000F7E2BF2EC12CD12CE12CF12C00E010E0D3
:100380000E944B142093EC043093ED044093EE0450
:100390005093EF041092620380916203DF91CF913A
:1003A0001F910F91FF90EF90DF90CF90BF90AF9093
:1003B0009F908F907F900C948E061F93CF93DF9326
:1003C0000E94110A182FEC01D0FD1EC0D3FF04C0FB
:1003D00085E091E00E94610AD2FF04C088E191E0CB
:1003E0000E94610AD1FF04C08DE291E00E94610A7F
:1003F0001F3321F485E491E00E94610A812FDF918F
:10040000CF911F910C94480ADF91CF911F910895CD
:1004100082B9299A289A8FEF91E10197F1F700C0EC
:100420000000289829988FEF91E10197F1F700C01B
:100430000000089582B9289A8FEF91E10197F1F7B2
:1004400000C0000028988FEF91E10197F1F700C0FC
:100450000000089581E00C941A0282E00C941A02C4
:10046000EF92FF921F93CF93DF931F92CDB7DEB72A
:10047000009771F0182F7C018E2D811B861740F498
:10048000F70181917F0169830E9408026981F4CF9D
:100490000F90DF91CF911F91FF90EF900895623000
:1004A00031F0633031F0613029F4805C03C08C5E40
:1004B00001C08C5A80680C941A021F93CF93DF936B
:1004C000EC01862F642F0E944F0210E0FE01E10F25
:1004D000F11D8491882329F084910E9408021F5FF6
:1004E000F5CFDF91CF911F910895EF92FF920F9377
:1004F0001F93CF93DF938C0188E0689FB001112494
:10050000862F8064E82EC0E0D0E0F801EC0FFD1FDC
:10051000F4908C2F8E0D0E941A028F2D0E940802DB
:100520002196C830D10589F7DF91CF911F910F91A6
:10053000FF90EF9008951F93CF93DF932FEF87EDF8
:1005400090E0215080409040E1F700C0000012B8D8
:1005500015B881B18FEF81B984B1836084B980E32C
:1005600082B9289A8FEF91E10197F1F700C000005E
:1005700028988FEF91E10197F1F700C0000080E328
:1005800082B9289A8FEF91E10197F1F700C000003E
:1005900028988FEF91E10197F1F700C0000080E308
:1005A00082B9289A8FEF91E10197F1F700C000001E
:1005B00028988FEF91E10197F1F700C0000088E3E0
:1005C00082B9289A8FEF91E10197F1F700C00000FE
:1005D00028988FEF91E10197F1F700C000008CE0BF
:1005E00082B9289A8FEF91E10197F1F700C00000DE
:1005F00028988FEF99E50197F1F700C00000CCE74C
:10060000D0E060E011E0160FCE010E94750228963E
:10061000183011F0612FF6CFDF91CF911F9108951F
:10062000CF93DF93D82FC0E0CD1729F08EE10E9441
:100630001A02CF5FF9CFDF91CF910895CF93DF9367
:10064000D82FC0E0CD1729F088E10E941A02CF5FB1
:10065000F9CFDF91CF9108958EE00C941A028FE0CC
:100660000C941A028CE00C941A0288E00C941A0282
:100670008CE00C941A02CF93DF93D82FC0E0CD17F3
:1006800029F080E10E941A02CF5FF9CFDF91CF916C
:100690000895CF93DF93D82FC0E0CD1729F084E1E0
:1006A0000E941A02CF5FF9CFDF91CF910895CF92C8
:1006B000DF92EF92FF920F931F93CF93DF931F92DE
:1006C000CDB7DEB756E0459F90011124E82FE29F99
:1006D000C001E39F900D112470E00E9484138B01F0
:1006E000CB0166E070E00E947013E82EC12CD12C83
:1006F000F12CF416B9F096012B5F3F4F0217130748
:1007000028F40C151D0520F08E2D03C085E001C0D6
:1007100080E049830E940802F394F6E0CF0ED11CDA
:100720004981E7CF0F90DF91CF911F910F91FF90FB
:10073000EF90DF90CF900895EF92FF920F931F9369
:10074000CF93DF93CDB7DEB72D970FB6F894DEBF0A
:100750000FBECDBF162F082FF92E80E84A9940C052
:100760002A873B874C875D8779870E941A0260E160
:1007700087E791E00E943002FF920F9379857F9383
:100780001F9388E8E82E81E0F82EFF92EF928E0109
:100790000F5F1F4F1F930F930E94801580EC0E94E4
:1007A0001A0268E0C8010E9430025D855F934C85A3
:1007B0004F933B853F932A852F93FF92EF921F9390
:1007C0000F930E94801588EC0E941A0268E0C8010D
:1007D0000E9430020FB6F894DEBF0FBECDBF0FC02F
:1007E0000E941A0260E18FE891E00E94300280ECE2
:1007F0000E941A0260E180EA91E00E9430022D9688
:100800000FB6F894DEBF0FBECDBFDF91CF911F9121
:100810000F91FF90EF9008950F931F9394B19F70E5
:1008200094B994B1906B94B994E0099F800111241C
:10083000016598E0299F90011124022B20E2829FFC
:10084000C0011124082B0CBD81E01F910F91089568
:10085000CF93DF9300D000D0CDB7DEB7FC018191FC
:1008600019821A821B821C829E012F5F3F4FD90181
:10087000422F9A2F921B961718F491919D93F9CFBE
:10088000813009F42C98F9019E2F941B961730F4AF
:1008900091919EBD0DB407FEFDCFF6CF813009F4D6
:1008A0002C9A862F0F900F900F900F90DF91CF9181
:1008B0000895CF93DF93CDB7DEB728970FB6F8949E
:1008C000DEBF0FBECDBFFC0171911D821E821F8253
:1008D000188619821A821B821C82AE014B5F5F4F01
:1008E000DA012A2F241B261718F421912D93F9CF12
:1008F000713009F42C989E012F5F3F4FDA01F90106
:10090000422F5E2F521B561740F45D915EBD0DB411
:1009100007FEFDCF5EB55193F4CF713009F42C9AE8
:10092000FC01D9018A2F841B861718F48D918193BD
:10093000F9CF862F28960FB6F894DEBF0FBECDBF35
:10094000DF91CF91089580916003882371F08091A9
:1009500060038F5F80936003809160038C3728F081
:1009600081E0809361031092600308950F93CF9309
:10097000DF9300D000D01F92CDB7DEB785E0E0E076
:10098000F1E0DE01119601900D928A95E1F701E008
:1009900021E040E452E46FE070E080E00E940C044B
:1009A00064E0CE0101960E9428040F900F900F90F2
:1009B0000F900F90DF91CF910F910895FF920F93B9
:1009C0001F93CF93DF9300D000D01F92CDB7DEB737
:1009D000F62E8E010F5F1F4F95E0F80111929A9548
:1009E000E9F749838770F8E08F9FC0011124806484
:1009F0008A8361E06F0DC8010E945904E1E060E064
:100A000070E0CB014F2D50E02E2F30E042175307FE
:100A100074F0982F872F762F6627D801A20FB31F67
:100A20002C91620F711D811D911DEF5FEDCF0F9015
:100A30000F900F900F900F90DF91CF911F910F911A
:100A4000FF90089541E061E084E00E94DE0410928E
:100A50006003109261036F7081E06B3009F080E0F9
:100A600008950F93CF93DF93CDB7DEB729970FB6D5
:100A7000F894DEBF0FBECDBF4E835F836887798752
:100A8000FE01319695E0DF011D929A95E9F72F5FFF
:100A900009838770880F880F880F8A83322FBE01E1
:100AA0006A5F7F4F323050F0CF01830F911DDB0121
:100AB0004D91BD01DC014C933150F4CF622FCF0139
:100AC0000E94280429960FB6F894DEBF0FBECDBF52
:100AD000DF91CF910F9108951E99FECF0895CF9287
:100AE000DF92EF92FF920F936B017C0141E062E095
:100AF00081E00E94DE04AB01BC015F7166277727AD
:100B0000D701C6010DE0880F991FAA1FBB1F0A95C8
:100B1000D1F7AA27BB27482B592B6A2B7B2B01E047
:100B200022E081E00E9431050F91FF90EF90DF906D
:100B3000CF900895CF92DF92EF92FF920F936B01C7
:100B40007C0141E062E082E00E94DE04AB01BC0176
:100B5000487F87E0C822DD24EE24FF244C295D294C
:100B60006E297F2901E022E082E00E9431050F9189
:100B7000FF90EF90DF90CF900895CF92DF92EF92A9
:100B8000FF920F936B017C0141E062E082E00E94E2
:100B9000DE04AB01BC01587F87E0C822DD24EE24CF
:100BA000FF24FE2CED2CDC2CCC244C295D296E2955
:100BB0007F2901E022E082E00E9431050F91FF9041
:100BC000EF90DF90CF9008950F93CF93C82F41E01F
:100BD00062E082E00E94DE04AB01BC014F7720E8B6
:100BE000C29FC00111249927AA2797FDA095BA2F6B
:100BF000482B592B6A2B7B2B01E022E082E00E94DC
:100C00003105CF910F9108950F93CF93C82F70E0C6
:100C100080E090E00E949A0541E062E081E00E945D
:100C2000DE044C2F50E0542F44275295550F507E30
:100C300060E070E001E022E081E00E943105CF91A8
:100C40000F910C946C050F932C9800E022E040E08B
:100C500050E260E070E081E00E9431050E946C0586
:100C600040E063E083E00E94DE042C9A0F91089537
:100C7000CF92DF92EF92FF920F93CF93DF93C82F23
:100C800001E022E040E050E0BA0181E00E9431053D
:100C9000D0E0C12CD12C7601DC1759F041E063E0A3
:100CA00083E00E94DE04C60ED71EE81EF91EDF5F39
:100CB000F3CF2D2F30E040E050E0C701B6010E9495
:100CC0009813CA01B901DF91CF910F91FF90EF9076
:100CD000DF90CF9008950F931F93613029F000E8C3
:100CE00010E020E030E004C000E810E420E030E054
:100CF000482F477050E060E070E040615C60402B3E
:100D0000512B622B732B01E022E082E00E9431051F
:100D10001F910F91089561E00C946B0660E00E94B2
:100D20006B0681E0809360031092610308954EE0AA
:100D300050E066E070E082ED94E00E94741746E0B7
:100D400050E060E070E088E095E00C9474174EE0AD
:100D500050E066E070E08EE095E00E94741720910C
:100D6000D2043091D30480910E0590910F0528177D
:100D7000390709F043C02091D4043091D504809103
:100D800010059091110528173907C1F52091D60457
:100D90003091D704809112059091130528173907D7
:100DA00069F52091D8043091D9048091140590916F
:100DB00015052817390711F52091DA043091DB0465
:100DC000809116059091170528173907B9F490916D
:100DD000DC0480911805981311C09091DD04809176
:100DE000190598130BC02091DE043091DF04809127
:100DF0001A0590911B052817390741F04EE050E085
:100E000066E070E082ED94E00C948417089546E06B
:100E100050E060E070E080E095E00E94741720915F
:100E2000000530910105809108059091090528176A
:100E30003907A9F44091020550910305609104051A
:100E40007091050580910A0590910B05A0910C0504
:100E5000B0910D05481759076A077B0741F046E036
:100E600050E060E070E088E095E00C94841708950D
:100E700084B18C6084B987B18F6087B98AB1806C86
:100E80008AB9529853985A9A5B9A3C983D983E98E2
:100E90003F98449A459A469A479AE0EBF0E0808161
:100EA000836A8083E1EBF0E08081866080838091BB
:100EB000DC048093B3008091DD048093B40085B599
:100EC000826085BD16BCEEE6F0E0808181608083A3
:100ED000E0E8F0E08081826A8083E1E8F0E08081F0
:100EE0008B6180838091DA049091DB04909387007A
:100EF000809386008AB180638AB98091D2049091F0
:100F0000D30490938900809388008091D4049091B9
:100F1000D50490938B0080938A0008958093B3004A
:100F200008958093B40008950E942A0260E083E04F
:100F30000E944F026AE081EB91E00E9430020E9421
:100F4000B6040E94220581110BC00E942A0260E0B3
:100F500082E00E944F026AE08CEB91E00C94300238
:100F600061E080E00E944F0265E087EC91E00E9422
:100F7000300280E00E948B0669E08DEC91E00E94D7
:100F8000300281E00E948B0662E087ED91E00E94D2
:100F9000300210926203809162030E948E060C94CC
:100FA0002A020E9497060E9438070E949B020E9414
:100FB0002A020E94940789E090E00E94F80980913B
:100FC00008059091090581349C4930F080E49CE942
:100FD0009093090580930805789408956536710506
:100FE0002CF477FF05C060E070E002C064E670E0BA
:100FF000811119C0E091D204F091D3042091D6045C
:101000003091D7042E1B3F0B44E6429FC001439F03
:10101000900D11240E9470136E0F7F1F7093890032
:10102000609388000895E091D404F091D504209154
:10103000D8043091D9042E1B3F0B44E6429FC001D7
:10104000439F900D11240E9470136E0F7F1F7093A9
:101050008B0060938A00089560E070E080E00E9459
:10106000EE0760E070E081E00E94EE072FEF8FE175
:101070009CE1215080409040E1F700C0000064E610
:1010800070E080E00E94EE0764E670E081E00E947C
:10109000EE072FEF8FE398E3215080409040E1F777
:1010A00000C0000060E070E080E00E94EE072FEFDB
:1010B0008FE398E3215080409040E1F700C00000AA
:1010C00060E070E081E00E94EE072FEF8FE398E38D
:1010D000215080409040E1F700C000002A9A429AD7
:1010E0002FEF8FE19CE1215080409040E1F700C05C
:1010F00000002B9A409A2FEF8FE19CE12150804015
:101100009040E1F700C00000419A439A2FEF8FE131
:101110009CE1215080409040E1F700C000002A98F7
:101120002B98429840984198439808954A9910C046
:101130004091DE045091DF0464E6649F9001659F56
:10114000300D112441E02817390718F040E001C0A4
:1011500041E0842F0895CF93DF93FB01E9011A82C8
:101160001B821C821D82198218829F838E8379873D
:1011700068875B874A87BC016F5F7F4F8FEF9FE770
:101180000E9484137D876C879F012F5F3F4F442708
:1011900037FD4095542F6FEF7FEF8FEF9FE30E9455
:1011A000BA132E873F87488B598BDF91CF910895D3
:1011B0008F929F92AF92BF92CF92DF92EF92FF9267
:1011C000CF93DF93EB01FA016C01E12CF12CC61AED
:1011D000D70AE108F10824853585C901AA2797FDBA
:1011E000A095BA2F8C159D05AE05BF05B4F08827D4
:1011F0009927821B930BAA2797FDA095BA2FC81693
:10120000D906EA06FB0684F0A681B781A7019601FC
:101210000E94E8134B015C010EC088248A949FE76A
:10122000992EA12CB12C07C08824839480E8982E95
:10123000AA24AA94BA2C22813381448155812C0D91
:101240003D1D4E1D5F1D86859785A089B18982173A
:101250009307A407B5074CF482839383A483B583D3
:101260006FEF7FEF8FEF9FE31DC0B095A095909536
:1012700081959F4FAF4FBF4F281739074A075B072C
:101280004CF482839383A483B58361E070E080E0B3
:1012900090EC08C02283338344835583A085B185B5
:1012A0000E94E813408151814C1B5D0BA285B385E0
:1012B0004A9F90014B9F300D5A9F300D1124D183CE
:1012C000C083680D791D8A1D9B1D620F731F811DD0
:1012D000911D20E830E040E050E00E94BA13213038
:1012E00080E838078FEF4807580724F421E030E8FA
:1012F0004FEF5FEFDA01C901811520E89207A105E0
:10130000B10524F08FEF9FE7A0E0B0E0DF91CF912F
:10131000FF90EF90DF90CF90BF90AF909F908F9015
:101320000895FC01128213821482158208951F927F
:101330000F920FB60F9211242F933F934F935F9309
:101340008F939F93EF93FF934091C0005091C600FD
:1013500048718091650390E001968F7799272091DD
:10136000640330E08217930739F080936503FC0132
:10137000E859FC4F508301C042E040936303FF9162
:10138000EF919F918F915F914F913F912F910F908E
:101390000FBE0F901F9018951F920F920FB60F92CD
:1013A00011248F939F93EF93FF9390916703809104
:1013B0006603981779F08091660390E001968F7725
:1013C000992780936603FC01E851FC4F808180934C
:1013D000C60005C08091C1008F7D8093C100FF9140
:1013E000EF919F918F910F900FBE0F901F901895C6
:1013F00010926703109266031092650310926403C3
:1014000097FF04C022E02093C0009F779093C5000F
:101410008093C40088E98093C10086E08093C20075
:10142000089590916503809164039817A1F08091CD
:10143000640390E001968F77992780936403FC0101
:10144000E859FC4F20818091630390E0982F882712
:10145000820F911D089580E091E0089590916503B9
:1014600080916403981789F0E0916403F0E031966D
:10147000EF77FF27E859FC4F20818091630390E0CC
:10148000982F8827820F911D089580E091E008959C
:101490002091670330E02F5F3F4F2F773327409134
:1014A000660350E024173507D1F3F901E851FC4FEA
:1014B0008083209367038091C10080628093C10084
:1014C0000895CF93DF93EC018991882319F00E944E
:1014D000480AFACFDF91CF910895CF93DF93FC01B3
:1014E0008491EF012196882321F00E94480AFE0191
:1014F000F7CFDF91CF910895809165032091640328
:1015000090E080589F4F821B91098F77992708950B
:1015100080916403809365030895349908C0809195
:1015200006058F3F31F08F5F8093060502C0109251
:101530000605359908C0809107058F3F31F08F5F10
:1015400080930705089510920705089586E4809317
:10155000A7042A982B984298409860E080E00E9467
:101560004F0260E18AED91E00E94300261E080E08C
:101570000E944F0260E18BEE91E00C94300284E116
:101580008093A7042A982B984298409860E080E0C6
:101590000E944F0260E18CEF91E00E94300261E016
:1015A00080E00E944F0260E18DE092E00C943002F6
:1015B00085E18093A7042A982B984298409860E090
:1015C00080E00E944F0260E18EE192E00E943002D2
:1015D00061E080E00E944F0260E18DE092E00C94B7
:1015E000300282E38093A7042A982B98429840986F
:1015F00060E080E00E944F0260E18FE292E00E9492
:10160000300261E080E00E944F0260E18DE092E0F4
:101610000C94300283E38093A7042A982B98429875
:10162000409860E080E00E944F0260E180E492E038
:101630000E94300261E080E00E944F0260E18DE094
:1016400092E00C94300284E38093A7042A982B98AC
:101650004298409860E080E00E944F0260E181E59E
:1016600092E00E94300261E080E00E944F0260E15F
:101670008DE092E00C9430028CE38093A7042A9AC8
:101680002B98429A409860E080E00E944F0260E10F
:1016900082E692E00E94300261E080E00E944F0208
:1016A00060E18DE092E00C9430028DE38093A7041A
:1016B0002A982B9A4298409A60E080E00E944F025C
:1016C00060E183E792E00E94300261E080E00E94E6
:1016D0004F0260E18DE092E00C9430026F927F92B5
:1016E0008F929F92AF92BF92CF92DF92EF92FF9232
:1016F0000F931F93CF93DF93CDB7DEB764970FB6E9
:10170000F894DEBF0FBECDBF8BE08093A70480911D
:10171000080590910905892B11F0429A2A9A809127
:1017200008059091090568EE73E00E947013762E0B
:10173000672E60910A0570910B0580910C059091C0
:101740000D058E010F5F1F4F611571058105910514
:1017500079F18090C8049090C904A090CA04B09018
:10176000CB04C090CC04D090CD04E090CE04F09097
:10177000CF048C149D04AE04BF04D1F0409A2B9A80
:1017800028EE33E040E050E00E9498131F922F9320
:101790006F927F9284E892E09F938F931F930F93B1
:1017A0000E9480150FB6F894DEBF0FBECDBF10C0EB
:1017B0006F927F9289E992E09F938F931F930F938B
:1017C0000E9480150F900F900F900F900F900F9028
:1017D0000E94A7060E94070760E080E00E944F0277
:1017E00060E1C8010E94300264960FB6F894DEBF33
:1017F0000FBECDBFDF91CF911F910F91FF90EF9062
:10180000DF90CF90BF90AF909F908F907F906F9020
:1018100008952F923F924F925F926F927F928F9294
:101820009F92AF92BF92CF92DF92EF92FF920F936F
:101830001F93CF93DF93CDB7DEB769970FB6F894B8
:10184000DEBF0FBECDBF809108059091090568EEFF
:1018500073E00E947013362E072F6091E804709198
:10186000E9048091EA049091EB0428EEC22E23E073
:10187000D22EE12CF12CA70196010E949813122F71
:101880006091C8047091C9048091CA049091CB04FE
:10189000A70196010E94981380900A0590900B056D
:1018A000A0900C05B0900D054090EC045090ED0414
:1018B0006090EE047090EF048091CC049091CD0480
:1018C000A091CE04B091CF048D8B9E8BAF8BB88F3F
:1018D00060E080E0298F0E944F028091D0041F9227
:1018E0008F931F92298D2F931F921F930F933F92D7
:1018F0003BEA232E32E0332E3F922F928E010F5F70
:101900001F4F1F930F930E94801560E1C8010E9432
:10191000300261E080E00E944F020FB6F894DEBF13
:101920000FBECDBF4091C8045091C9046091CA0454
:101930007091CB048091CC049091CD04A091CE0401
:10194000B091CF04481759076A077B0771F180915E
:10195000D1041F928F936D897E898F89988DA701FD
:1019600096010E9498131F922F93C301B201A70101
:1019700096010E9498131F922F93C501B401A701ED
:1019800096010E9498131F922F933F922F921F93BC
:101990000F930E94801560E1C8010E9430020FB6CB
:1019A000F894DEBF0FBECDBF05C060E184EC92E0CD
:1019B0000E94300269960FB6F894DEBF0FBECDBF0D
:1019C000DF91CF911F910F91FF90EF90DF90CF901B
:1019D000BF90AF909F908F907F906F905F904F904F
:1019E0003F902F9008958091A7049CEE980F92301D
:1019F00038F44A9910C04B990EC00E946E0B08C073
:101A00008B3049F44A9902C04B9B05C00E94BF0A23
:101A100081E080936A0480916A04811161C0349BE3
:101A200006C0359B04C0369B02C0379959C08091CF
:101A3000A7048A3069F4349B06C0359B04C0369BEA
:101A400002C037994DC04A994BC00E94BF0A23C0BB
:101A5000843129F4369944C00E94D80A1CC08531CB
:101A600019F4379BF2CF3CC0823351F4369903C04E
:101A70000E940A0B10C0379933C00E94A60A0BC0FF
:101A8000833369F4369903C00E94230B04C037994D
:101A900027C00E94F10A81E080936A0421C0843348
:101AA00041F4369903C00E943C0BF5CF379BE0CF41
:101AB00017C08C3341F4369903C00E94550BEBCF0D
:101AC000379BE2CF0DC08D3329F4369BD6CF379BA1
:101AD000EACF06C0863421F4369BDBCF379BEDCFAF
:101AE000349B09C0359B07C0369B05C0379B03C09C
:101AF00010926A04089580916A04813079F480918B
:101B0000A704823358F0379909C0369907C00E945C
:101B1000BF0A0E94A70682E080936A0480916A044B
:101B2000813071F48091A7048451823048F4379950
:101B300007C0369905C00E94F10A82E080936A04CA
:101B400080916A04882349F02FEF8FEC92E02150B6
:101B500080409040E1F700C0000008954F925F92EE
:101B60006F927F928F929F92AF92BF92CF92DF92AD
:101B7000EF92FF920F931F93CF93DF938091A7046F
:101B80008A3009F04FC0C090E004D090E104E090AA
:101B9000E204F090E304B0E24B2EBBE15B2EBCE725
:101BA0006B2EBCE07B2EC301B201A70196010E94FF
:101BB0009813DA01C9012093F0049093F104A093E3
:101BC000F204B093F3041092F4041092F50410920E
:101BD000F6041092F7048090E4049090E504A0903D
:101BE000E604B090E704C301B201A50194010E948C
:101BF0009813DA01C9012093F8049093F904A09393
:101C0000FA04B093FB041092FC041092FD041092AD
:101C1000FE041092FF04A5019401C701B6010E94C1
:101C20009C0353C4863469F5359B02C034994DC476
:101C300060E08FE00E944F0261E083ED92E00E943D
:101C4000300261E080E00E944F0260E185ED92E0A9
:101C50000E9430020E942C0861E080E00E944F0246
:101C600060E186EE92E00E9430022FEF4FE388E3BE
:101C7000215040408040E1F700C000000E94A60AC9
:101C800024C4823309F057C080910705882381F06E
:101C90008F3F11F49AE001C091E08091DC04981725
:101CA00020F4891B8093DC0403C081111092DC04B2
:101CB000809106058823C9F08F3F11F45AE001C0D6
:101CC00051E04091DC04242F30E08FEF90E0851B41
:101CD00091092817390724F4450F4093DC0405C007
:101CE0004F3F19F08FEF8093DC048091DC041F924A
:101CF0008F9387EF92E09F938F938CE694E09F936E
:101D00008F930E94801561E080E00E944F0264E0A2
:101D10008CE694E00E94300261E084E00E944F0271
:101D20004AE06FEF8091DC040E9457038091DC044D
:101D30000E948E07C4C3833309F057C08091070502
:101D4000882381F08F3F11F49AE001C091E08091E7
:101D5000DD04981720F4891B8093DD0403C08111F2
:101D60001092DD04809106058823C9F08F3F11F49D
:101D70005AE001C051E04091DD04242F30E08FEFA4
:101D800090E0851B91092817390724F4450F4093EB
:101D9000DD0405C04F3F19F08FEF8093DD04809183
:101DA000DD041F928F9387EF92E09F938F938CE6D1
:101DB00094E09F938F930E94801561E080E00E94E1
:101DC0004F0264E08CE694E00E94300261E084E01F
:101DD0000E944F024AE06FEF8091DD040E9457039A
:101DE0008091DD040E9491076AC3843309F06CC0BE
:101DF000809107058823F1F08F3F19F480ED97E07B
:101E000002C088EE93E02091DE043091DF04AC0143
:101E1000485F5D4A4217530738F4281B390B30934B
:101E2000DF042093DE0406C088E092E59093DF048F
:101E30008093DE0480910605882341F18F3F19F4D9
:101E400020ED37E002C028EE33E0E091DE04F091AF
:101E5000DF04AF0160E070E088EE9DEFA0E0B0E04D
:101E6000821B930BA109B109481759076A077B0721
:101E70003CF42E0F3F1F3093DF042093DE0406C096
:101E800088EE9DEF9093DF048093DE048091DE0462
:101E90009091DF0468EE73E00E9470137F936F935C
:101EA00081E093E09F938F938CE694E09F938F93D0
:101EB0000E94801561E087E00E944F0263E08CE69B
:101EC00094E00E943002FBC28C3309F054C0809130
:101ED0000705882379F08F3F11F48AE001C081E083
:101EE00090916904891720F4981B9093690402C0AB
:101EF00010926904809106058823B9F08F3F11F490
:101F00004AE001C041E050916904252F30E084E6A9
:101F100090E0841B91092817390724F4450F40935A
:101F2000690403C084E680936904809169041F9268
:101F30008F9388E093E09F938F938CE694E09F9338
:101F40008F930E94801561E080E00E944F0264E060
:101F50008CE694E00E94300261E084E00E944F022F
:101F60004AE064E6809169040E9457036091690425
:101F700070E080E056C08D3309F056C080910705AF
:101F8000882379F08F3F11F48AE001C081E09091BD
:101F90006804891720F4981B9093680402C010927B
:101FA0006804809106058823B9F08F3F11F44AE058
:101FB00001C041E050916804252F30E084E690E0B4
:101FC000841B91092817390724F4450F40936804AE
:101FD00003C084E680936804809168041F928F9305
:101FE00088E093E09F938F938CE694E09F938F9388
:101FF0000E94801561E080E00E944F0264E08CE660
:1020000094E00E94300261E084E00E944F024AE0C6
:1020100064E6809168040E9457036091680470E050
:1020200081E00E94EE074BC2843109F0E5C0809147
:1020300007058823F1F08F3F19F480ED97E002C087
:1020400088EE93E02091080530910905AC014053DA
:10205000584F4217530738F4281B390B30930905A2
:102060002093080506C080ED97E0909309058093C2
:10207000080580910605882311F18F3F19F480ED42
:1020800097E002C088EE93E0409108055091090561
:102090002091DE043091DF0428583341B901681BD8
:1020A000790B4617570738F4840F951F909309054D
:1020B0008093080504C0309309052093080580919A
:1020C00008059091090568EE73E00E9470137F93F4
:1020D0006F9381E093E09F938F938CE694E09F93BE
:1020E0008F930E94801561E087E00E944F0263E0B9
:1020F0008CE694E00E943002209108053091090599
:102100006901E12CF12C80910A0590910B05A091B9
:102110000C05B0910D058C0D9D1DAE1DBF1D0F90C2
:102120000F900F900F900F900F90813A9648A1401A
:10213000B10580F080EA96E8A1E0B0E08C199D0935
:10214000AE09BF0980930A0590930B05A0930C0577
:10215000B0930D054091C8045091C9046091CA0420
:102160007091CB048091CC049091CD04A091CE04C9
:10217000B091CF04481759076A077B0749F4C0920A
:10218000C804D092C904E092CA04F092CB042BC0D8
:10219000A4E6B0E00E94D9132B013C0160910A052E
:1021A00070910B0580910C0590910D0528EE33E0A0
:1021B00040E050E00E949813A4E68A2E912CA12CB6
:1021C000B12C821A930AA40AB50AC301B201A5016F
:1021D00094010E9498132093C8043093C90440933B
:1021E000CA045093CB04C092CC04D092CD04E092A8
:1021F000CE04F092CF0469C18B3009F08CC0349BBF
:1022000002C0359977C04091C8045091C9046091CB
:10221000CA047091CB048091CC049091CD04A0911C
:10222000CE04B091CF04481759076A077B0709F01D
:1022300061C0809107058823D9F08F3F19F420ED04
:1022400037E002C028EE33E080910805909109053F
:10225000A901485F5D4A4817590718F4821B930B80
:1022600002C088E092E5909309058093080502C0BA
:1022700020E030E080910605882311F18F3F19F4AA
:1022800020ED37E002C028EE33E040910805509180
:1022900009058091DE049091DF0488589341BC01C8
:1022A000621B730B4617570738F4420F531F5093A6
:1022B00009054093080504C090930905809308051B
:1022C0008091080590910905A0E0B0E08093C804D2
:1022D0009093C904A093CA04B093CB048093CC0418
:1022E0009093CD04A093CE04B093CF04232B09F494
:1022F000ECC00EC0369906C0379904C081E08093C7
:102300006B04E3C03799E1C0369BDFC010926B04C9
:102310000E946E0BDAC0853109F0D7C080910705A5
:10232000882359F18F3F19F480ED97E002C088EEC1
:1023300093E040910A0550910B0560910C05709156
:102340000D05A0E0B0E084179507A607B70768F46D
:10235000481B590B6A0B7B0B40930A0550930B05E6
:1023600060930C0570930D0508C010920A05109239
:102370000B0510920C0510920D058091060588231F
:10238000F1F18F3F19F480ED97E002C088EE93E001
:1023900040910A0550910B0560910C0570910D0557
:1023A0006C01E12CF12C209108053091090580EA9F
:1023B00096E8A1E0B0E0821B930BA109B1098C0162
:1023C0009D010C191D092E093F094017510762078D
:1023D000730768F44C0D5D1D6E1D7F1D40930A054B
:1023E00050930B0560930C0570930D0508C0809306
:1023F0000A0590930B05A0930C05B0930D05609111
:102400000A0570910B0580910C0590910D05E8EE81
:10241000CE2EE3E0DE2EE12CF12CA70196010E94E6
:1024200098131F922F9381E093E09F938F938CE6F4
:1024300094E09F938F930E94801561E087E00E9453
:102440004F0263E08CE694E00E943002C0910805E0
:10245000D09109059E01A4E6B0E00E94D9134B017A
:102460005C0160910A0570910B0580910C059091BB
:102470000D05A70196010E949813F4E6CF2ED12CEA
:10248000E12CF12CC21AD30AE40AF50AC501B40101
:10249000A70196010E9498132093C8043093C904A1
:1024A0004093CA045093CB04CE01A0E0B0E08093E7
:1024B000CC049093CD04A093CE04B093CF040F909E
:1024C0000F900F900F900F900F908091A7048B307A
:1024D00009F0ABC08091EC049091ED040E94960845
:1024E000882381F181E08093A704419A439A2A9836
:1024F0002B984298409860E080E00E944F0260E193
:102500008EE093E00E94300261E080E00E944F0282
:1025100060E14A9903C08FE193E002C080E393E059
:10252000DF91CF911F910F91FF90EF90DF90CF90AF
:10253000BF90AF909F908F907F906F905F904F90E3
:102540000C94300280916B0481115DC06091EC04A9
:102550007091ED048091EE049091EF044090E804B6
:102560005090E9046090EA047090EB0448EE842EE9
:1025700043E0942EA12CB12CA50194010E94981344
:10258000E901142F052F54E6C52ED12CE12CF12C96
:10259000A70196010E9498135F934F933F932F9347
:1025A0000F931F93DF93CF93C301B201A501940151
:1025B0000E949813E901142F052FA70196010E948C
:1025C00098135F934F933F932F930F931F93DF9332
:1025D000CF9381E493E09F938F938CE694E09F9355
:1025E0008F930E94801561E080E00E944F028DB7BA
:1025F0009EB744960FB6F8949EBF0FBE8DBF60E1A4
:102600008CE694E08DCFDF91CF911F910F91FF90D9
:10261000EF90DF90CF90BF90AF909F908F907F9082
:102620006F905F904F900C94090CDF91CF911F91A8
:102630000F91FF90EF90DF90CF90BF90AF909F9061
:102640008F907F906F905F904F9008958091A70436
:1026500008958093A70408950E94D1078AE00E94FC
:1026600029138FE591E00E94610A24E934E040E0FB
:1026700050E060E070E080E890E00E94AB0820E865
:1026800034E040E050E060E070E080E890E00E94DC
:10269000AB081092C8041092C9041092CA04109298
:1026A000CB041092CC041092CD041092CE04109260
:1026B000CF04C4E6D0E00E94DD0180916103811166
:1026C0000E94C1000E94F30C8091920490919304A7
:1026D000BE010E947013892B71F70E94AE0DEBCFE3
:1026E000AA1BBB1B51E107C0AA1FBB1FA617B70738
:1026F00010F0A61BB70B881F991F5A95A9F7809554
:102700009095BC01CD01089597FB072E16F4009417
:1027100007D077FD09D00E94701307FC05D03EF466
:10272000909581959F4F0895709561957F4F08957D
:10273000A1E21A2EAA1BBB1BFD010DC0AA1FBB1FC5
:10274000EE1FFF1FA217B307E407F50720F0A21B37
:10275000B30BE40BF50B661F771F881F991F1A94A4
:1027600069F760957095809590959B01AC01BD01CE
:10277000CF010895052E97FB1EF400940E94D113FB
:1027800057FD07D00E94981307FC03D04EF40C9419
:10279000D11350954095309521953F4F4F4F5F4F46
:1027A000089590958095709561957F4F8F4F9F4FBD
:1027B0000895A29FB001B39FC001A39F700D811D1A
:1027C0001124911DB29F700D811D1124911D08953A
:1027D000B7FF0C9475150E947515821B930B089515
:1027E000DF93CF931F930F939A9DF02D219FF00DB0
:1027F0008B9DF00D8A9DE02DF10D039FF00D029F42
:10280000E00DF11D4E9DE00DF11D5E9DF00D4F9D03
:10281000F00D7F936F93BF92AF925F934F93D5016B
:102820000E94D9138B01AC01D7010E94D913EB018F
:10283000E80FF91FD6010E9440142F913F91D60155
:102840000E94D913C60FD71FE81FF91FAF91BF9180
:102850000E9440142F913F910E94D913C60FD71F99
:10286000E81FF91FD6010E94D913E60FF71F980140
:10287000BE01CF0111240F911F91CF91DF910895D7
:102880000E94D913460F571FC81FD91F08F431964D
:102890000895689401C0E894F92FF12B12F00C947C
:1028A0007D14A0E0B0E0E7E5F4E10C94EF14092E0C
:1028B000059422F40E94D914112392F4F0E80F2613
:1028C000FFEFE094F09400951095B094C094D094EC
:1028D000A194BF0ACF0ADF0AEF0AFF0A0F0B1F0BF2
:1028E0000E94881407FC0E94D914CDB7DEB7ECE033
:1028F0000C940B15689401C0E8948F929F92CF932B
:10290000DF930E948814DF91CF919F908F9008955C
:1029100088249924F401E401B0E49F93AA279A152E
:102920008B049C04ED05FE05CF05D007A10798F4A4
:10293000AD2FDC2FCF2FFE2FE92D982C892E982F2D
:10294000872F762F652F542F432F322F2227B850F1
:1029500031F7BF9127C01B2EBF91BB27220F331F1A
:10296000441F551F661F771F881F991F881C991CBD
:10297000EE1FFF1FCC1FDD1FAA1FBB1F8A149B0465
:10298000EC05FD05CE05DF05A007B10748F08A1864
:102990009B08EC09FD09CE09DF09A00BB10B2160F2
:1029A0001A94E1F62EF49401AF01BE01CD01000CA2
:1029B00008956095709580959095309540955095C7
:1029C00021953F4F4F4F5F4F6F4F7F4F8F4F9F4F1F
:1029D00008952F923F924F925F926F927F928F92C3
:1029E0009F92AF92BF92CF92DF92EF92FF920F939E
:1029F0001F93CF93DF93CDB7DEB7CA1BDB0B0FB6A8
:102A0000F894DEBF0FBECDBF09942A883988488864
:102A10005F846E847D848C849B84AA84B984C884FA
:102A2000DF80EE80FD800C811B81AA81B981CE0FF1
:102A3000D11D0FB6F894DEBF0FBECDBFED010895D6
:102A40000F93083090F0982F872F762F652F542FF3
:102A5000432F322F22270850F4CF220F331F441F59
:102A6000551F661F771F881F991F0A95B2F70F9190
:102A7000089597FB10F8169400080F93083098F00B
:102A80000850232F342F452F562F672F782F892F4B
:102A9000902DF4CF059497958795779567955795E1
:102AA0004795379527950A95AAF70F9108952A0D0E
:102AB0003B1D4C1D5D1D6E1D7F1D801F911F0895C8
:102AC0002A193B094C095D096E097F09800B910B9E
:102AD00008950024A7FD00942A17300540055005ED
:102AE000600570058005900508950E94D913A59F83
:102AF000900DB49F900DA49F800D911D11240895F9
:102B0000AEE0B0E0E6E8F5E10C94F7140D891E891B
:102B100086E08C831A8309838FEF9FE79E838D83E2
:102B2000AE01475E5F4F6F89788DCE0101960E949E
:102B3000A215EF81F885E00FF11F10822E96E4E0D8
:102B40000C941315ACE0B0E0E8EAF5E10C94E9145C
:102B50007C016B018A01FC0117821682838181FF4F
:102B6000BDC1CE0101964C01F7019381F60193FDA1
:102B7000859193FF81916F01882309F4ABC1853260
:102B800039F493FD859193FF81916F01853229F48A
:102B9000B70190E00E94B217E7CF512C312C20E012
:102BA0002032A0F48B3269F030F4803259F0833255
:102BB00069F420612CC08D3239F0803339F4216002
:102BC00026C02260246023C0286021C027FD27C0C2
:102BD00030ED380F3A3078F426FF06C0FAE05F9EF9
:102BE000300D1124532E13C08AE0389E300D11246D
:102BF000332E20620CC08E3221F426FD6BC120647E
:102C000006C08C3611F4206802C0883641F4F60103
:102C100093FD859193FF81916F018111C1CF982F11
:102C20009F7D9554933028F40C5F1F4FFFE3F98389
:102C30000DC0833631F0833771F0833509F05BC006
:102C400022C0F801808189830E5F1F4F4424439482
:102C5000512C540115C03801F2E06F0E711CF801BF
:102C6000A080B18026FF03C0652D70E002C06FEF29
:102C70007FEFC5012C870E94A7172C0183012C85AB
:102C80002F77222E17C03801F2E06F0E711CF80169
:102C9000A080B18026FF03C0652D70E002C06FEFF9
:102CA0007FEFC5012C870E949C172C012C85206882
:102CB000222E830123FC1BC0832D90E04816590669
:102CC000B0F4B70180E290E00E94B2173A94F4CFDA
:102CD000F50127FC859127FE81915F01B70190E006
:102CE0000E94B21731103A94F1E04F1A5108411482
:102CF000510471F7E5C0843611F0893639F5F801D1
:102D000027FF07C060817181828193810C5F1F4F13
:102D100008C060817181882777FD8095982F0E5FAC
:102D20001F4F2F76B22E97FF09C090958095709512
:102D300061957F4F8F4F9F4F2068B22E2AE030E081
:102D4000A4010E94E417A82EA81844C0853729F4CE
:102D50002F7EB22E2AE030E025C0F22FF97FBF2E61
:102D60008F36C1F018F4883579F0B4C0803719F087
:102D7000883721F0AFC02F2F2061B22EB4FE0DC0D6
:102D80008B2D8460B82E09C024FF0AC09F2F966047
:102D9000B92E06C028E030E005C020E130E002C0D6
:102DA00020E132E0F801B7FE07C0608171818281C5
:102DB00093810C5F1F4F06C06081718180E090E0BD
:102DC0000E5F1F4FA4010E94E417A82EA818FB2D28
:102DD000FF77BF2EB6FE0BC02B2D2E7FA51450F40F
:102DE000B4FE0AC0B2FC08C02B2D2E7E05C07A2C82
:102DF0002B2D03C07A2C01C0752C24FF0DC0FE01C1
:102E0000EA0DF11D8081803311F4297E09C022FF73
:102E100006C07394739404C0822F867809F073946B
:102E200023FD13C020FF06C05A2C731418F4530C52
:102E30005718732C731468F4B70180E290E02C8764
:102E40000E94B21773942C85F5CF731410F43718C1
:102E500001C0312C24FF12C0B70180E390E02C8721
:102E60000E94B2172C8522FF17C021FF03C088E5FE
:102E700090E002C088E790E0B7010CC0822F86780E
:102E800059F021FD02C080E201C08BE227FD8DE2F6
:102E9000B70190E00E94B217A51438F4B70180E39F
:102EA00090E00E94B2175A94F7CFAA94F401EA0D69
:102EB000F11D8081B70190E00E94B217A110F5CFFB
:102EC000332009F451CEB70180E290E00E94B2179E
:102ED0003A94F6CFF7018681978102C08FEF9FEF7A
:102EE0002C96E2E10C940515DC01CB01FC01F9996B
:102EF000FECF06C0F2BDE1BDF89A319600B40D9246
:102F000041505040B8F70895DC01CB0103C02D912A
:102F10000E948F1741505040D0F70895262FF999FD
:102F2000FECF1FBA92BD81BD20BD0FB6F894FA9AAC
:102F3000F99A0FBE01960895FC010590615070400A
:102F40000110D8F7809590958E0F9F1F0895FC0172
:102F50006150704001900110D8F7809590958E0FC8
:102F60009F1F08950F931F93CF93DF93182F092F5F
:102F7000EB018B8181FD03C08FEF9FEF20C082FFAB
:102F800010C04E815F812C813D81421753077CF434
:102F9000E881F9819F012F5F3F4F39832883108398
:102FA00006C0E885F985812F0995892B29F72E819F
:102FB0003F812F5F3F4F3F832E83812F902FDF91E3
:102FC000CF911F910F910895FA01AA27283051F14E
:102FD000203181F1E8946F936E7F6E5F7F4F8F4F4A
:102FE0009F4FAF4FB1E03ED0B4E03CD0670F781FA9
:102FF000891F9A1FA11D680F791F8A1F911DA11D8E
:103000006A0F711D811D911DA11D20D009F46894C6
:103010003F912AE0269F11243019305D3193DEF66E
:10302000CF010895462F4770405D4193B3E00FD024
:10303000C9F7F6CF462F4F70405D4A3318F0495D0F
:1030400031FD4052419302D0A9F7EACFB4E0A695F2
:103050009795879577956795BA95C9F70097610514
:10306000710508959B01AC010A2E0694579547956A
:1030700037952795BA95C9F7620F731F841F951F5F
:08308000A01D0895F894FFCF94
:1030880001FFFFFFFF55415254204672616D6520D4
:103098004572726F723A200055415254204F76653E
:1030A8007272756E204572726F723A2000427566B0
:1030B800666572206F766572666C6F7720657272CE
:1030C8006F723A2000544F444F3A20507574207361
:1030D8006F6D6520646562756720696E666F00575D
:1030E800656C636F6D6520746F20626C656E6465D6
:1030F80072203A290D0A00204F787967656E2020E2
:1031080048656C69756D200025366C6975560050E8
:103118006C656173652C207475726E206F6E20006B
:10312800796F757220636F6D70726573736F72213A
:1031380000496E6974696E672E2E2E004144432043
:103148004572726F72210043312E2E2E004F4B2094
:103158002043322E2E2E004F4B0020202020527567
:103168006E20546573742020203E002020202020EB
:10317800202020202020202020203E002020202049
:10318800204F787967656E202020202B0020202092
:103198002020202020202020202020202D0020203A
:1031A80020202048656C69756D202020202B002088
:1031B80020204272696768746E65737320202B0043
:1031C80020202020436F6E74726173742020202B9E
:1031D800002020456D657267656E6379204F322047
:1031E8002B002020536574204F322076616C766561
:1031F800202B0020205365742048652076616C766A
:1032080065202B004D6978696E6720546D5820251C
:1032180032752F2532752020004D6978696E672038
:1032280045414E78253275202020007425303275AE
:10323800632530327520737425303275202530337C
:103248007525250020202020202020202020202037
:103258002020202000202020436865636B696E676A
:103268002E2E2E202000202020202020444F4E45A6
:1032780021202020202000253033752020202020E8
:103288000025303275252500253375252500202099
:1032980020456D657267656E6379212020200020C6
:1032A800204F3220746F6F206869676821202000E2
:1032B800436F6D70726573736F723A20204F464684
:1032C8000053313A25326C692E2530316C69205310
:1032D800323A25326C692E2530316C692020000085
:00000001FF
