:100000000C945E000C947B000C947B000C947B00A1
:100010000C947B000C947B000C947B000C947B0074
:100020000C947B000C947B000C947B000C947B0064
:100030000C947B000C947B000C947B000C947B0054
:100040000C947B000C947B000C947D000C947B0042
:100050000C94700A0C94A50A0C947B000C947B0001
:100060000C947B000C947B000C947B000C947B0024
:100070000C947B000C947B000C947B00001F000010
:1000800000001F00001F101010101F00001F181884
:1000900018181F00001F1C1C1C1C1F00001F1E1E08
:1000A0001E1E1F00001F1F1F1F1F1F0003070F1F03
:1000B0000F070300181C1E1F1E1C180011241FBE52
:1000C000CFEFD0E1DEBFCDBF13E0A0E0B1E0E0E3D1
:1000D000F4E302C005900D92AC38B107D9F715E0F2
:1000E000ACE8B3E001C01D92AA34B107E1F70E9469
:1000F000AB140C94161A0C9400001F920F920FB6BA
:100100000F9211242F933F934F935F936F937F939D
:100110008F939F93AF93BF93EF93FF938091D404FA
:100120008F5F8093D4048091D404893068F08091EB
:10013000C0049091C10401969093C1048093C004BF
:100140001092D4040E942B058091C0049091C104A8
:1001500062E370E00E945B15892B11F40E94660B2C
:100160008091C0049091C10464E670E00E945B1528
:10017000892B19F481E08093BF048091C004909191
:10018000C1046AEF70E00E945B15892B19F481E0CD
:100190008093BE04FF91EF91BF91AF919F918F919A
:1001A0007F916F915F914F913F912F910F900FBE73
:1001B0000F901F9018954F925F926F927F928F923F
:1001C0009F92AF92BF92CF92DF92EF92FF920F93E6
:1001D0001F93CF93DF9381E00E94C006DC01CB0127
:1001E0009C01AD0160E070E080E090E04058510972
:1001F000610971098109910959016A017B01E82F9F
:10020000192F02E00E94F4160E2F0E942B1759019D
:100210006A017B01E82F192F04E00E94F4160E2FCB
:100220000E94341759016A017B01E82F192F04E05D
:100230000E94F4160E2F0E9434174901D42FC52FA7
:10024000B62FA72FF82FE92F06E00E94F4165901C8
:100250006A017B018C0194014D2F5C2F6B2F7A2F4B
:100260008F2F9E2F0E942B17D22EE32EF42ED52FE8
:10027000C62FB72FF82FE92FA0E00E943D1784F476
:100280002150310940485F4F6F4F7F4F8F4F9F4F35
:10029000D22EE32EF42ED52FC62FB72FF82FE92F0D
:1002A0002D2D3E2D4F2D5D2F6C2F7B2F8F2F9E2FB1
:1002B00007E10E940D17C22FB32FF42FE52F762EE2
:1002C000872E982ED92FA0E00E943D1754F40E944B
:1002D000AD16C22FB32FF42FE52F762E872E982E32
:1002E000D92F80918E03811167C0C0930E05B09302
:1002F0000F05F0931005E0931105A0901E05B09036
:100300001F05C0902005D0902105E0902205F090B7
:10031000230500912405109125052C2F3B2F4F2FED
:100320005E2F672D782D892D9D2F0E94FB15B0E142
:10033000AB2EC7E2BC2EC12CD12CE12CF12C00E05D
:1003400010E00E94BE1520931605309317054093C8
:1003500018055093190581E080938E030E94A5141F
:100360008B3009F09EC06091160570911705809141
:10037000180590911905AAE0CA2ED12CE12CF12C78
:10038000A70196010E94831549015A016091F60464
:100390007091F7048091F8049091F904A7019601F7
:1003A0000E948315DA01C90142EC54E0B4010E94B5
:1003B000B109BC0180E073C0C0931205B09313056E
:1003C000F0931405E0931505A0902605B09027053D
:1003D000C0902805D0902905E0902A05F0902B05C3
:1003E00000912C0510912D052C2F3B2F4F2F5E2FA8
:1003F000672D782D892D9D2F0E94FB15E0E1AE2EF3
:10040000F7E2BF2EC12CD12CE12CF12C00E010E042
:100410000E94BE1520931A0530931B0540931C05BE
:1004200050931D0510928E030E94A5148B30C9F5C0
:100430008090FA049090FB04A090FC04B090FD041E
:100440008091F6049091F704A091F804B091F9041A
:1004500088159905AA05BB0521F160911A057091CF
:100460001B0580911C0590911D052AE0C22ED12C00
:10047000E12CF12CA70196010E94831529013A0174
:10048000C501B401A70196010E948315DA01C901D3
:100490004CEA54E0B2010E94B109BC0181E00E9423
:1004A000B90880918E03DF91CF911F910F91FF903A
:1004B000EF90DF90CF90BF90AF909F908F907F9004
:1004C0006F905F904F900C9431071F93CF93DF9301
:1004D0000E94EA0A182FEC01D0FD1EC0D3FF04C011
:1004E00085E091E00E943A0BD2FF04C088E191E0E0
:1004F0000E943A0BD1FF04C08DE291E00E943A0BBA
:100500001F3321F485E491E00E943A0B812FDF91A3
:10051000CF911F910C94210BDF91CF911F910895E2
:1005200082B9299A289A8FEF91E10197F1F700C0DB
:100530000000289829988FEF91E10197F1F700C00A
:100540000000089582B9289A8FEF91E10197F1F7A1
:1005500000C0000028988FEF91E10197F1F700C0EB
:100560000000089581E00C94A20282E00C94A202A3
:10057000EF92FF921F93CF93DF931F92CDB7DEB719
:10058000009771F0182F7C018E2D811B861740F487
:10059000F70181917F0169830E9490026981F4CF04
:1005A0000F90DF91CF911F91FF90EF9008956230EF
:1005B00031F0633031F0613029F4805C03C08C5E2F
:1005C00001C08C5A80680C94A2021F93CF93DF93D2
:1005D000EC01862F642F0E94D70210E0FE01E10F8C
:1005E000F11D8491882329F084910E9490021F5F5D
:1005F000F5CFDF91CF911F910895EF92FF920F9366
:100600001F93CF93DF938C0188E0689FB001112482
:10061000862F8064E82EC0E0D0E0F801EC0FFD1FCB
:10062000F4908C2F8E0D0E94A2028F2D0E949002BA
:100630002196C830D10589F7DF91CF911F910F9195
:10064000FF90EF9008951F93CF93DF932FEF87EDE7
:1006500090E0215080409040E1F700C0000012B8C7
:1006600015B881B18FEF81B984B1836084B980E31B
:1006700082B9289A8FEF91E10197F1F700C000004D
:1006800028988FEF91E10197F1F700C0000080E317
:1006900082B9289A8FEF91E10197F1F700C000002D
:1006A00028988FEF91E10197F1F700C0000080E3F7
:1006B00082B9289A8FEF91E10197F1F700C000000D
:1006C00028988FEF91E10197F1F700C0000088E3CF
:1006D00082B9289A8FEF91E10197F1F700C00000ED
:1006E00028988FEF91E10197F1F700C000008CE0AE
:1006F00082B9289A8FEF91E10197F1F700C00000CD
:1007000028988FEF99E50197F1F700C00000CCE73A
:10071000D0E060E011E0160FCE010E94FD022896A5
:10072000183011F0612FF6CFDF91CF911F9108950E
:10073000CF93DF93D82FC0E0CD1729F08EE10E9430
:10074000A202CF5FF9CFDF91CF910895CF93DF93CE
:10075000D82FC0E0CD1729F088E10E94A202CF5F18
:10076000F9CFDF91CF9108958EE00C94A2028FE033
:100770000C94A2028CE00C94A20288E00C94A202D9
:100780008CE00C94A202CF93DF93D82FC0E0CD175A
:1007900029F080E10E94A202CF5FF9CFDF91CF91D3
:1007A0000895CF93DF93D82FC0E0CD1729F084E1CF
:1007B0000E94A202CF5FF9CFDF91CF910895CF922F
:1007C000DF92EF92FF920F931F93CF93DF931F92CD
:1007D000CDB7DEB756E0459F90011124E82FE29F88
:1007E000C001E39F900D112470E00E946F158B01F2
:1007F000CB0166E070E00E945B15E82EC12CD12C85
:10080000F12CF416B9F096012B5F3F4F0217130736
:1008100028F40C151D0520F08E2D03C085E001C0C5
:1008200080E049830E949002F394F6E0CF0ED11C41
:100830004981E7CF0F90DF91CF911F910F91FF90EA
:10084000EF90DF90CF900895EF92FF920F931F9358
:10085000CF93DF93CDB7DEB72D970FB6F894DEBFF9
:100860000FBECDBF162F082FF92E80E84A9940C041
:100870002A873B874C875D8779870E94A20260E1C7
:1008800084E991E00E94B802FF920F9379857F93EB
:100890001F9385EAE82E81E0F82EFF92EF928E01F9
:1008A0000F5F1F4F1F930F930E94541780EC0E94FD
:1008B000A20268E0C8010E94B8025D855F934C8582
:1008C0004F933B853F932A852F93FF92EF921F937F
:1008D0000F930E94541788EC0E94A20268E0C8019E
:1008E0000E94B8020FB6F894DEBF0FBECDBF0FC096
:1008F0000E94A20260E18CEA91E00E94B80280ECC2
:100900000E94A20260E18DEB91E00E94B8022D9658
:100910000FB6F894DEBF0FBECDBFDF91CF911F9110
:100920000F91FF90EF9008950F931F9394B19F70D4
:1009300094B994B1906B94B994E0099F800111240B
:10094000016598E0299F90011124022B20E2829FEB
:10095000C0011124082B0CBD81E01F910F91089557
:10096000CF93DF9300D000D0CDB7DEB7FC018191EB
:1009700019821A821B821C829E012F5F3F4FD90170
:10098000422F9A2F921B961718F491919D93F9CFAD
:10099000813009F42C98F9019E2F941B961730F49E
:1009A00091919EBD0DB407FEFDCFF6CF813009F4C5
:1009B0002C9A862F0F900F900F900F90DF91CF9170
:1009C0000895CF93DF93CDB7DEB728970FB6F8948D
:1009D000DEBF0FBECDBFFC0171911D821E821F8242
:1009E000188619821A821B821C82AE014B5F5F4FF0
:1009F000DA012A2F241B261718F421912D93F9CF01
:100A0000713009F42C989E012F5F3F4FDA01F901F4
:100A1000422F5E2F521B561740F45D915EBD0DB400
:100A200007FEFDCF5EB55193F4CF713009F42C9AD7
:100A3000FC01D9018A2F841B861718F48D918193AC
:100A4000F9CF862F28960FB6F894DEBF0FBECDBF24
:100A5000DF91CF91089580918C03882371F080916C
:100A60008C038F5F80938C0380918C038C3728F0EC
:100A700081E080938D0310928C0308950F93CF93A0
:100A8000DF9300D000D01F92CDB7DEB785E0E0E065
:100A9000F1E0DE01119601900D928A95E1F701E0F7
:100AA00021E040E452E46FE070E080E00E949404B2
:100AB00064E0CE0101960E94B0040F900F900F9059
:100AC0000F900F90DF91CF910F910895FF920F93A8
:100AD0001F93CF93DF9300D000D01F92CDB7DEB726
:100AE000F62E8E010F5F1F4F95E0F80111929A9537
:100AF000E9F749838770F8E08F9FC0011124806473
:100B00008A8361E06F0DC8010E94E104E1E060E0CA
:100B100070E0CB014F2D50E02E2F30E042175307ED
:100B200074F0982F872F762F6627D801A20FB31F56
:100B30002C91620F711D811D911DEF5FEDCF0F9004
:100B40000F900F900F900F90DF91CF911F910F9109
:100B5000FF90089541E061E084E00E9466051092F4
:100B60008C0310928D036F7081E06B3009F080E090
:100B700008950F93CF93DF93CDB7DEB729970FB6C4
:100B8000F894DEBF0FBECDBF4E835F836887798741
:100B9000FE01319695E0DF011D929A95E9F72F5FEE
:100BA00009838770880F880F880F8A83322FBE01D0
:100BB0006A5F7F4F323050F0CF01830F911DDB0110
:100BC0004D91BD01DC014C933150F4CF622FCF0128
:100BD0000E94B00429960FB6F894DEBF0FBECDBFB9
:100BE000DF91CF910F9108951E99FECF0895CF9276
:100BF000DF92EF92FF920F936B017C0141E062E084
:100C000081E00E946605AB01BC015F716627772712
:100C1000D701C6010DE0880F991FAA1FBB1F0A95B7
:100C2000D1F7AA27BB27482B592B6A2B7B2B01E036
:100C300022E081E00E94B9050F91FF90EF90DF90D4
:100C4000CF900895CF92DF92EF92FF920F936B01B6
:100C50007C0141E062E082E00E946605AB01BC01DC
:100C6000487F87E0C822DD24EE24FF244C295D293B
:100C70006E297F2901E022E082E00E94B9050F91F0
:100C8000FF90EF90DF90CF900895CF92DF92EF9298
:100C9000FF920F936B017C0141E062E082E00E94D1
:100CA0006605AB01BC01587F87E0C822DD24EE2435
:100CB000FF24FE2CED2CDC2CCC244C295D296E2944
:100CC0007F2901E022E082E00E94B9050F91FF90A8
:100CD000EF90DF90CF9008950F93CF93C82F41E00E
:100CE00062E082E00E946605AB01BC014F7720E81C
:100CF000C29FC00111249927AA2797FDA095BA2F5A
:100D0000482B592B6A2B7B2B01E022E082E00E94CA
:100D1000B905CF910F9108950F93CF93C82F70E02D
:100D200080E090E00E94220641E062E081E00E94C3
:100D300066054C2F50E0542F44275295550F507E96
:100D400060E070E001E022E081E00E94B905CF910F
:100D50000F910C94F4050F932C9800E022E040E0F2
:100D600050E260E070E081E00E94B9050E94F40565
:100D700040E063E083E00E9466052C9A0F9108959D
:100D8000CF92DF92EF92FF920F93CF93DF93C82F12
:100D900001E022E040E050E0BA0181E00E94B905A4
:100DA000D0E0C12CD12C7601DC1759F041E063E092
:100DB00083E00E946605C60ED71EE81EF91EDF5F9F
:100DC000F3CF2D2F30E040E050E0C701B6010E9484
:100DD0008315CA01B901DF91CF910F91FF90EF9078
:100DE000DF90CF9008950F931F93613029F000E8B2
:100DF00010E020E030E004C000E810E420E030E043
:100E0000482F477050E060E070E040615C60402B2C
:100E1000512B622B732B01E022E082E00E94B90586
:100E20001F910F9108950F93CF93C82F61E00E94F7
:100E3000F306369B13C00E94F4056C2F84E00E94D9
:100E40008C066C2F85E00E948C0601E022E049E0D0
:100E500050E060E070E081E00E94B905CF910F9111
:100E6000089560E00E94F30681E080938C03109265
:100E70008D0308954EE050E066E070E080E095E07C
:100E80000E94481946E050E060E070E086E395E09B
:100E90000E9448198091360590913705A0E0B0E096
:100EA0008093F6049093F704A093F804B093F904A8
:100EB0008093FA049093FB04A093FC04B093FD0488
:100EC00008954EE050E066E070E08CE395E00E940B
:100ED0004819209100053091010580913C059091C1
:100EE0003D052817390709F043C0209102053091CC
:100EF000030580913E0590913F0528173907C1F5FC
:100F0000209104053091050580914005909141059F
:100F10002817390769F5209106053091070580915A
:100F20004205909143052817390711F520910805CE
:100F3000309109058091440590914505281739079E
:100F4000B9F490910A0580914605981311C09091CB
:100F50000B058091470598130BC020910C0530912B
:100F60000D0580914805909149052817390741F0F2
:100F70004EE050E066E070E080E095E00C94581997
:100F8000089546E050E060E070E08EE295E00E9457
:100F9000481920912E0530912F05809136059091AA
:100FA000370528173907A9F44091300550913105CC
:100FB0006091320570913305809138059091390523
:100FC000A0913A05B0913B05481759076A077B077E
:100FD00041F046E050E060E070E086E395E00C947C
:100FE0005819089584B18C6084B987B18F6087B92E
:100FF0008AB1806C8AB9529853985A9A5B9A3C98F5
:101000003D983E983F98449A459A469A479AE0EB15
:10101000F0E08081836A8083E1EBF0E0808186608C
:10102000808380910A058093B30080910B058093A3
:10103000B40085B5826085BD16BCEEE6F0E0808127
:1010400081608083E0E8F0E08081826A8083E1E86B
:10105000F0E080818B618083809108059091090583
:1010600090938700809386008AB180638AB98091CB
:1010700000059091010590938900809388008091EC
:1010800002059091030590938B0080938A00089548
:101090008093B30008958093B40008950E94B20233
:1010A00060E083E00E94D7026AE08EEC91E00E944B
:1010B000B8020E943E050E94AA0581110BC00E9441
:1010C000B20260E082E00E94D7026AE089ED91E01E
:1010D0000C94B80261E080E00E94D70265E084EEE3
:1010E00091E00E94B80280E00E94130769E08AEE56
:1010F00091E00E94B80281E00E94130762E084EF51
:1011000091E00E94B80210928E0380918E030E949B
:1011100031070C94B2020E943A070E94F2070E9423
:1011200023030E94B2020E944E0889E090E00E94D0
:10113000D10A809136059091370581349C4930F071
:1011400080E49CE99093370580933605349BFECF6D
:10115000359BFCCF369BFACF379BF8CF8FEF9FE6BE
:1011600028E0815090402040E1F700C000007894D2
:101170000895CF93DF93DB016F3F710509F02CF4E5
:1011800077FF05C0A0E0B0E002C0AFEFB0E0811192
:101190001DC0A093FE04C0910005D09101052091CF
:1011A0000405309105052C1B3D0B0E944C152FEFBB
:1011B00030E040E050E00E9483152C0F3D1F411DA0
:1011C000511D30938900209388001CC0A093FF0418
:1011D000C0910205D09103052091060530910705C5
:1011E0002C1B3D0B0E944C152FEF30E040E050E0EF
:1011F0000E9483152C0F3D1F411D511D30938B0004
:1012000020938A00DF91CF91089560E070E080E044
:101210000E94B90860E070E081E00E94B9082FEFF9
:101220008FE19CE1215080409040E1F700C0000038
:101230006FEF70E080E00E94B9086FEF70E081E02E
:101240000E94B9082FEF8FE398E32150804090402F
:10125000E1F700C0000060E070E080E00E94B908A3
:101260002FEF8FE398E3215080409040E1F700C0DA
:10127000000060E070E081E00E94B9082FEF8FE38A
:1012800098E3215080409040E1F700C000002A9A86
:10129000429A2FEF8FE19CE1215080409040E1F78E
:1012A00000C000002B9A409A2FEF8FE19CE1215063
:1012B00080409040E1F700C00000419A439A2FEF30
:1012C0008FE19CE1215080409040E1F700C0000098
:1012D0002A982B98429840984198439808954A99A3
:1012E00010C040910C0550910D0564E6649F90017B
:1012F000659F300D112441E02817390718F040E0B0
:1013000001C041E0842F0895CF93DF93FB01E901F1
:101310001A821B821C821D82198218829F838E83EF
:10132000798768875B874A87BC016F5F7F4F8FEF44
:101330009FE70E946F157D876C879F012F5F3F4F4E
:10134000442737FD4095542F6FEF7FEF8FEF9FE3DA
:101350000E94A5152E873F87488B598BDF91CF912F
:1013600008958F929F92AF92BF92CF92DF92EF92A9
:10137000FF92CF93DF93EB01FA016C01E12CF12C8A
:10138000C61AD70AE108F10824853585C901AA27BC
:1013900097FDA095BA2F8C159D05AE05BF05B4F03D
:1013A00088279927821B930BAA2797FDA095BA2F10
:1013B000C816D906EA06FB0684F0A681B781A70104
:1013C00096010E9453154B015C010EC088248A943B
:1013D0009FE7992EA12CB12C07C08824839480E824
:1013E000982EAA24AA94BA2C228133814481558153
:1013F0002C0D3D1D4E1D5F1D86859785A089B189E9
:1014000082179307A407B5074CF482839383A483C0
:10141000B5836FEF7FEF8FEF9FE31DC0B095A09571
:10142000909581959F4FAF4FBF4F281739074A07B7
:101430005B074CF482839383A483B58361E070E0FF
:1014400080E090EC08C02283338344835583A085D9
:10145000B1850E945315408151814C1B5D0BA285C3
:10146000B3854A9F90014B9F300D5A9F300D112438
:10147000D183C083680D791D8A1D9B1D620F731F68
:10148000811D911D20E830E040E050E00E94A5154C
:10149000213080E838078FEF4807580724F421E00F
:1014A00030E84FEF5FEFDA01C901811520E89207BC
:1014B000A105B10524F08FEF9FE7A0E0B0E0DF9138
:1014C000CF91FF90EF90DF90CF90BF90AF909F9023
:1014D0008F900895FC011282138214821582089560
:1014E0001F920F920FB60F9211242F933F934F9399
:1014F0005F938F939F93EF93FF934091C000509120
:10150000C60048718091910390E001968F779927EA
:101510002091900330E08217930739F08093910374
:10152000FC01EC56FC4F508301C042E040938F0316
:10153000FF91EF919F918F915F914F913F912F91EB
:101540000F900FBE0F901F9018951F920F920FB61D
:101550000F9211248F939F93EF93FF939091930396
:1015600080919203981779F08091920390E0019610
:101570008F77992780939203FC01EC5EFB4F80816B
:101580008093C60005C08091C1008F7D8093C1000B
:10159000FF91EF919F918F910F900FBE0F901F9031
:1015A0001895109293031092920310929103109247
:1015B000900397FF04C022E02093C0009F77909390
:1015C000C5008093C40088E98093C10086E08093C1
:1015D000C200089590919103809190039817A1F013
:1015E0008091900390E001968F77992780939003E4
:1015F000FC01EC56FC4F208180918F0390E0982FE6
:101600008827820F911D089580E091E008959091C0
:10161000910380919003981789F0E0919003F0E096
:101620003196EF77FF27EC56FC4F208180918F0396
:1016300090E0982F8827820F911D089580E091E017
:1016400008952091930330E02F5F3F4F2F7733278A
:101650004091920350E024173507D1F3F901EC5E75
:10166000FB4F8083209393038091C100806280931D
:10167000C1000895CF93DF93EC018991882319F07D
:101680000E94210BFACFDF91CF910895CF93DF9382
:10169000FC018491EF012196882321F00E94210B07
:1016A000FE01F7CFDF91CF910895809191032091B2
:1016B000900390E080589F4F821B91098F77992764
:1016C000089580919003809391030895349908C000
:1016D000809134058F3F31F08F5F8093340502C0D5
:1016E00010923405359908C0809135058F3F31F04F
:1016F0008F5F80933505089510923505089586E42F
:101700008093D5042A982B984298409860E080E016
:101710000E94D70260E187EF91E00E94B80261E089
:1017200080E00E94D70260E188E092E00C94B80269
:1017300087E48093D5042A982B984298409860E0DB
:1017400080E00E94D70260E189E192E00E94B80245
:1017500061E080E00E94D70260E188E092E00C94B2
:10176000B80284E18093D5042A982B984298409837
:1017700060E070E080E00E94B90860E070E081E025
:101780000E94B90860E080E00E94D70260E18AE22E
:1017900092E00E94B80261E080E00E94D70260E11E
:1017A0008BE392E00C94B80285E18093D5042A98EB
:1017B0002B984298409860E080E00E94D70260E158
:1017C0008CE492E00E94B80261E080E00E94D702BF
:1017D00060E18BE392E00C94B80282E38093D5043D
:1017E0002A982B984298409860E080E00E94D702A7
:1017F00060E18DE592E00E94B80261E080E00E9425
:10180000D70260E18BE392E00C94B80283E380930B
:10181000D5042A982B984298409860E080E00E9476
:10182000D70260E18EE692E00E94B80261E080E0BB
:101830000E94D70260E18BE392E00C94B80284E34B
:101840008093D5042A982B984298409860E080E0D5
:101850000E94D70260E18FE792E00E94B80261E047
:1018600080E00E94D70260E18BE392E00C94B80222
:101870008CE38093D5042A9A2B98429A409860E092
:1018800080E00E94D70260E180E992E00E94B80205
:1018900061E080E00E94D70260E18BE392E00C946B
:1018A000B8028DE38093D5042A982B9A4298409AE7
:1018B00060E080E00E94D70260E181EA92E00E944D
:1018C000B80261E080E00E94D70260E18BE392E021
:1018D0000C94B8026F927F928F929F92AF92BF92B8
:1018E000CF92DF92EF92FF920F931F93CF93DF93EC
:1018F000CDB7DEB764970FB6F894DEBF0FBECDBF8D
:101900008BE08093D504429A2A9A80913605909173
:10191000370568EE73E00E945B15762E672E6091A6
:1019200038057091390580913A0590913B058E01FB
:101930000F5F1F4F611571058105910579F1809049
:10194000F6049090F704A090F804B090F904C090C9
:10195000FA04D090FB04E090FC04F090FD048C1499
:101960009D04AE04BF04D1F0409A2B9A28EE33E0D8
:1019700040E050E00E9483151F922F936F927F9258
:1019800082EB92E09F938F931F930F930E945417C3
:101990000FB6F894DEBF0FBECDBF10C06F927F921E
:1019A00087EC92E09F938F931F930F930E9454179D
:1019B0000F900F900F900F900F900F900E94610763
:1019C0000E94C10760E080E00E94D70260E1C80188
:1019D0000E94B80264960FB6F894DEBF0FBECDBF6A
:1019E000DF91CF911F910F91FF90EF90DF90CF90FB
:1019F000BF90AF909F908F907F906F9008952F929F
:101A00003F924F925F926F927F928F929F92AF928E
:101A1000BF92CF92DF92EF92FF920F931F93CF93DB
:101A2000DF93CDB7DEB769970FB6F894DEBF0FBE70
:101A3000CDBF809136059091370568EE73E00E9426
:101A40005B15362E072F6091160570911705809152
:101A500018059091190528EEC22E23E0D22EE12C14
:101A6000F12CA70196010E948315122F6091F604B4
:101A70007091F7048091F8049091F904A701960100
:101A80000E9483158090380590903905A0903A0502
:101A9000B0903B0540901A0550901B0560901C05C6
:101AA00070901D058091FA049091FB04A091FC04B4
:101AB000B091FD048D8B9E8BAF8BB88F60E080E082
:101AC000298F0E94D7028091FE041F928F931F924C
:101AD000298D2F931F921F930F933F9239ED232E41
:101AE00032E0332E3F922F928E010F5F1F4F1F93D4
:101AF0000F930E94541760E1C8010E94B80261E090
:101B000080E00E94D7020FB6F894DEBF0FBECDBFB3
:101B10004091F6045091F7046091F8047091F90433
:101B20008091FA049091FB04A091FC04B091FD0413
:101B3000481759076A077B0771F18091FF041F92CC
:101B40008F936D897E898F89988DA70196010E9458
:101B500083151F922F93C301B201A70196010E9422
:101B600083151F922F93C501B401A70196010E940E
:101B700083151F922F933F922F921F930F930E94D2
:101B8000541760E1C8010E94B8020FB6F894DEBF96
:101B90000FBECDBF05C060E181EF92E00E94B802A8
:101BA00069960FB6F894DEBF0FBECDBFDF91CF911F
:101BB0001F910F91FF90EF90DF90CF90BF90AF906B
:101BC0009F908F907F906F905F904F903F902F905D
:101BD00008958091D5049CEE980F923038F44A997C
:101BE00010C04B990EC00E946A0C08C08B3049F49B
:101BF0004A9902C04B9B05C00E94B10B81E08093C3
:101C000096048091960481116BC0349B06C0359B6D
:101C100004C0369B02C0379963C08091D5048A30D6
:101C200069F4349B06C0359B04C0369B02C03799CB
:101C300057C04A9955C00E94B10B17C0843129F48E
:101C400036994EC00E94D40B10C0853119F4379BD1
:101C5000F2CF46C0823369F4369903C00E94060C65
:101C600004C037993DC00E94980B81E08093960490
:101C700037C0833351F4369903C00E941F0CF5CF4F
:101C800037992EC00E94ED0BF0CF843341F4369982
:101C900003C00E94380CE9CF379BE0CF21C08C33C2
:101CA00041F4369903C00E94510CDFCF379BE5CF3A
:101CB00017C08D3341F4369903C00E947F0BD5CFF6
:101CC000379BE7CF0DC0863429F4369BCCCF379BAA
:101CD000EACF06C0873421F4369BD4CF379BEDCFB3
:101CE000349B09C0359B07C0369B05C0379B03C09A
:101CF00010929604089580919604813079F4809131
:101D0000D504823358F0379909C0369907C00E942C
:101D1000B10B0E94610782E0809396048091960443
:101D2000813071F48091D5048451823048F4379920
:101D300007C0369905C00E94ED0B82E0809396049F
:101D400080919604882349F02FEF8FEC92E0215088
:101D500080409040E1F700C00000089560E08FE00F
:101D60000E94D70261E080E093E00E94B80261E047
:101D700080E00E94D70260E182E093E00E94B80216
:101D80000E94050961E080E00E94D70260E183E1E2
:101D900093E00E94B8022FEF8FE398E32150804038
:101DA0009040E1F700C000000C947F0B8091350556
:101DB000882381F08F3F11F49AE001C091E0809177
:101DC0000A05981720F4891B80930A0503C0811126
:101DD00010920A05809134058823C9F08F3F11F4D1
:101DE0005AE001C051E040910A05242F30E08FEF06
:101DF00090E0851B91092817390724F4450F40937B
:101E00000A0505C04F3F19F08FEF80930A058091B6
:101E10000A051F928F9384E293E09F938F9388E942
:101E200094E09F938F930E94541761E080E00E949A
:101E3000D70264E088E994E00E94B80261E084E09F
:101E40000E94D7024AE06FEF80910A050E94DF03EB
:101E50000F900F900F900F900F900F9080910A05A8
:101E60000C94480880913505882381F08F3F11F448
:101E70009AE001C091E080910B05981720F4891B2E
:101E800080930B0503C0811110920B0580913405DE
:101E90008823C9F08F3F11F45AE001C051E040910E
:101EA0000B05242F30E08FEF90E0851B9109281758
:101EB000390724F4450F40930B0505C04F3F19F037
:101EC0008FEF80930B0580910B051F928F9384E217
:101ED00093E09F938F9388E994E09F938F930E9460
:101EE000541761E080E00E94D70264E088E994E042
:101EF0000E94B80261E084E00E94D7024AE06FEFDE
:101F000080910B050E94DF030F900F900F900F90B0
:101F10000F900F9080910B050C944B088091350524
:101F20008823F1F08F3F19F480ED97E002C088EE2E
:101F300093E020910C0530910D05AC01485F5D4A9E
:101F40004217530738F4281B390B30930D052093A3
:101F50000C0506C088E092E590930D0580930C0572
:101F600080913405882341F18F3F19F420ED37E04B
:101F700002C028EE33E0E0910C05F0910D05AF01B1
:101F800060E070E088EE9DEFA0E0B0E0821B930B74
:101F9000A109B109481759076A077B073CF42E0FBE
:101FA0003F1F30930D0520930C0506C088EE9DEF72
:101FB00090930D0580930C0580910C0590910D0573
:101FC00068EE73E00E945B157F936F938EE293E05F
:101FD0009F938F9388E994E09F938F930E94541767
:101FE00061E087E00E94D7020F900F900F900F9052
:101FF0000F900F9063E088E994E00C94B802809110
:102000003505882379F08F3F11F48AE001C081E023
:1020100090919504891720F4981B9093950402C021
:1020200010929504809134058823B9F08F3F11F404
:102030004AE001C041E050919504252F30E08FEF38
:1020400090E0841B91092817390724F4450F409329
:10205000950403C08FEF80939504809195041F929F
:102060008F9385E393E09F938F9388E994E09F9308
:102070008F930E94541761E080E00E94D70264E0D1
:1020800088E994E00E94B80261E084E00E94D702EF
:102090004AE06FEF809195040E94DF030F900F904C
:1020A0000F900F900F900F906091950470E080E07A
:1020B0000C94B90880913505882379F08F3F11F48D
:1020C0008AE001C081E090919404891720F4981B64
:1020D0009093940402C01092940480913405882354
:1020E000B9F08F3F11F44AE001C041E050919404EF
:1020F000252F30E08FEF90E0841B910928173907D6
:1021000024F4450F4093940403C08FEF809394040C
:10211000809194041F928F9385E393E09F938F9314
:1021200088E994E09F938F930E94541761E080E0C8
:102130000E94D70264E088E994E00E94B80261E05E
:1021400084E00E94D7024AE06FEF809194040E94DD
:10215000DF030F900F900F900F900F900F906091F2
:10216000940470E081E00C94B9088F929F92AF9232
:10217000BF92CF92DF92EF92FF9280913505882334
:10218000F1F08F3F19F480ED97E002C088EE93E004
:102190002091360530913705AC014053584F421716
:1021A000530738F4281B390B309337052093360535
:1021B00006C080ED97E090933705809336058091B7
:1021C0003405882311F18F3F19F480ED97E002C0A8
:1021D00088EE93E0409136055091370520910C052B
:1021E00030910D0528583341B901681B790B46170A
:1021F000570738F4840F951F909337058093360561
:1022000004C03093370520933605809136059091B0
:10221000370568EE73E00E945B157F936F938EE243
:1022200093E09F938F9388E994E09F938F930E940C
:10223000541761E087E00E94D70263E088E994E0E8
:102240000E94B80220913605309137056901E12CD2
:10225000F12C8091380590913905A0913A05B09103
:102260003B058C0D9D1DAE1DBF1D0F900F900F9057
:102270000F900F900F90813A9648A140B10580F0E1
:1022800080EA96E8A1E0B0E08C199D09AE09BF098B
:102290008093380590933905A0933A05B0933B0598
:1022A0004091F6045091F7046091F8047091F9049C
:1022B0008091FA049091FB04A091FC04B091FD047C
:1022C000481759076A077B0749F4C092F604D09271
:1022D000F704E092F804F092F9042AC0A4E6B0E012
:1022E0000E943D154B015C016091380570913905E4
:1022F00080913A0590913B0528EE33E040E050E0B4
:102300000E948315DA01C90124E630E040E050E084
:10231000281B390B4A0B5B0BC501B4010E948315C6
:102320002093F6043093F7044093F8045093F90493
:10233000C092FA04D092FB04E092FC04F092FD04F7
:10234000FF90EF90DF90CF90BF90AF909F908F90D5
:102350000895809135058823D9F08F3F19F420ED39
:1023600037E002C028EE33E08091360590913705C2
:10237000A901485F5D4A4817590718F4821B930B5F
:1023800002C088E092E5909337058093360502C03D
:1023900020E030E080913405882311F18F3F19F45B
:1023A00020ED37E002C028EE33E040913605509131
:1023B000370580910C0590910D0588589341BC011B
:1023C000621B730B4617570738F4420F531F509385
:1023D00037054093360504C0909337058093360542
:1023E0008091360590913705A0E0B0E08093F60427
:1023F0009093F704A093F804B093F9048093FA043F
:102400009093FB04A093FC04B093FD04232B11F0E4
:102410000C946A0C08958F929F92AF92BF92CF92C4
:10242000DF92EF92FF920F931F93CF93DF938091F0
:102430003505882359F18F3F19F480ED97E002C0EC
:1024400088EE93E0409138055091390560913A0546
:1024500070913B05A0E0B0E084179507A607B70789
:1024600068F4481B590B6A0B7B0B4093380550935B
:10247000390560933A0570933B0508C01092380502
:102480001092390510923A0510923B05809134055F
:102490008823E9F18F3F19F400ED17E002C008EE40
:1024A00013E0409138055091390560913A057091DB
:1024B0003B0520E030E0E0913605F091370580EAF9
:1024C00096E8A1E0B0E08E1B9F0BA109B1096C0159
:1024D0007D01C01AD10AE20AF30A4C155D056E05AA
:1024E0007F0568F4400F511F621F731F409338052A
:1024F0005093390560933A0570933B0508C080936B
:10250000380590933905A0933A05B0933B05609147
:1025100038057091390580913A0590913B0548EE58
:10252000C42E43E0D42EE12CF12CA70196010E9489
:1025300083151F922F938EE293E09F938F9388E9E8
:1025400094E09F938F930E94541761E087E00E946C
:10255000D70263E088E994E00E94B802C091360592
:10256000D09137059E01A4E6B0E00E943D154B01D5
:102570005C01609138057091390580913A05909120
:102580003B05A70196010E948315DA01C90124E6E3
:1025900030E040E050E0281B390B4A0B5B0BC501D3
:1025A000B4010E9483152093F6043093F7044093FE
:1025B000F8045093F904CE01A0E0B0E08093FA044F
:1025C0009093FB04A093FC04B093FD040F900F9034
:1025D0000F900F900F900F90DF91CF911F910F915F
:1025E000FF90EF90DF90CF90BF90AF909F908F9033
:1025F00008954F925F926F927F928F929F92AF92C7
:10260000BF92CF92DF92EF92FF920F931F93CF93DF
:10261000DF9380911A0590911B050E946F09882312
:1026200081F181E08093D504419A439A2A982B98AE
:102630004298409860E080E00E94D70260E18AE31F
:1026400093E00E94B80261E080E00E94D70260E15E
:102650004A9903C08BE493E002C08CE593E0DF91DC
:10266000CF911F910F91FF90EF90DF90CF90BF908F
:10267000AF909F908F907F906F905F904F900C9451
:10268000B8028091970481115DC060911A05709124
:102690001B0580911C0590911D05409016055090DA
:1026A0001705609018057090190558EE852E53E0B7
:1026B000952EA12CB12CA50194010E948315E9014E
:1026C000142F052FE4E6CE2ED12CE12CF12CA701FE
:1026D00096010E9483155F934F933F932F930F931F
:1026E0001F93DF93CF93C301B201A50194010E9410
:1026F0008315E901142F052FA70196010E94831568
:102700005F934F933F932F930F931F93DF93CF9339
:102710008DE693E09F938F9388E994E09F938F9346
:102720000E94541761E080E00E94D7028DB79EB7E7
:1027300044960FB6F8949EBF0FBE8DBF60E188E946
:1027400094E08DCFDF91CF911F910F91FF90EF908B
:10275000DF90CF90BF90AF909F908F907F906F90C1
:102760005F904F900C94FF0C4F925F926F927F920C
:102770008F929F92AF92BF92CF92DF92EF92FF9291
:10278000CF93DF938091D5048A3009F04FC0C09079
:102790000E05D0900F05E0901005F0901105F0E2C5
:1027A0004F2EFBE15F2EFCE76F2EFCE07F2EC30176
:1027B000B201A70196010E948315DA01C901209395
:1027C0001E0590931F05A0932005B093210510923C
:1027D0002205109223051092240510922505809061
:1027E000120590901305A0901405B0901505C30133
:1027F000B201A50194010E948315DA01C901209359
:10280000260590932705A0932805B09329051092DB
:102810002A0510922B0510922C0510922D05A5016A
:102820009401C701B6010E9424046CC0863439F4B7
:10283000359B02C0349966C00E94AE0E63C08734D7
:1028400081F4359B02C034995DC08AE08093D50441
:10285000349BFECF359BFCCF369BFACF379BF8CF0E
:1028600051C0823319F40E94D60E4CC0833319F440
:102870000E94320F47C0843319F40E948E0F42C069
:102880008C3319F40E94FF0F3DC08D3319F40E9460
:102890005A1038C0843119F40E94B51033C08B30FF
:1028A00069F5349B02C0359918C04091F6045091E7
:1028B000F7046091F8047091F9048091FA04909102
:1028C000FB04A091FC04B091FD04481759076A0766
:1028D0007B0719F40E94A91115C0369906C03799D3
:1028E00004C081E0809397040DC037990BC0369BDC
:1028F00009C0109297040E946A0C04C0853111F43B
:102900000E940B128091D5048B3081F4DF91CF911E
:10291000FF90EF90DF90CF90BF90AF909F908F90FF
:102920007F906F905F904F900C94F912DF91CF9150
:10293000FF90EF90DF90CF90BF90AF909F908F90DF
:102940007F906F905F904F9008958091D504089587
:102950008093D5040895CF93DF93CDB7DEB76A9700
:102960000FB6F894DEBF0FBECDBF0E948B088AE081
:102970000E94A8148FE591E00E943A0B22EC34E00B
:1029800040E050E060E070E080E890E00E94840960
:102990002CEA34E040E050E060E070E080E890E055
:1029A0000E94840918EE812E13E0912E08EEC02EAD
:1029B00003E0D02EE12CF12C87E7A82E81E0B82E81
:1029C0008E010F5F1F4F0E94650280918D03811160
:1029D0000E94DB000E94E90D8091BF04882321F052
:1029E0000E94B4131092BF048091BE04882359F34F
:1029F0008091360590913705B4010E945B15762EC3
:102A0000672E6091160570911705809118059091B9
:102A10001905A70196010E948315522E6091F604B4
:102A20007091F7048091F8049091F904A701960140
:102A30000E94831560E070E080E090E02A8F0E94A1
:102A4000D7028091FE041F928F931F922A8D2F939D
:102A50001F925F926F927F92BF92AF921F930F93DC
:102A60000E945417C8010E943A0B1092BE040FB680
:102A7000F894DEBF0FBECDBFA6CFA29FB001B39F1B
:102A8000C001A39F700D811D1124911DB29F700D77
:102A9000811D1124911D08950E943D15B7FF0895D1
:102AA000821B930B0895B7FF0C9449170E94491796
:102AB000821B930B0895AA1BBB1B51E107C0AA1FE1
:102AC000BB1FA617B70710F0A61BB70B881F991FCF
:102AD0005A95A9F780959095BC01CD01089597FB73
:102AE000072E16F4009407D077FD09D00E945B15DD
:102AF00007FC05D03EF4909581959F4F0895709501
:102B000061957F4F0895A1E21A2EAA1BBB1BFD0100
:102B10000DC0AA1FBB1FEE1FFF1FA217B307E407BC
:102B2000F50720F0A21BB30BE40BF50B661F771F14
:102B3000881F991F1A9469F76095709580959095F4
:102B40009B01AC01BD01CF010895052E97FB1EF43A
:102B500000940E94A51657FD07D00E94831507FC1C
:102B600003D04EF40C94A5165095409530952195C0
:102B70003F4F4F4F5F4F0895689401C0E894F92F7D
:102B8000F12B12F00C94F015A0E0B0E0EAECF5E1C6
:102B90000C94C316092E059422F40E94AD1611233D
:102BA00092F4F0E80F26FFEFE094F0940095109572
:102BB000B094C094D094A194BF0ACF0ADF0AEF0A60
:102BC000FF0A0F0B1F0B0E94541607FC0E94AD1644
:102BD000CDB7DEB7ECE00C94DF16689401C0E89442
:102BE0008F929F92CF93DF930E945416DF91CF91E3
:102BF0009F908F900895DF93CF931F930F939A9D8B
:102C0000F02D219FF00D8B9DF00D8A9DE02DF10D93
:102C1000039FF00D029FE00DF11D4E9DE00DF11D93
:102C20005E9DF00D4F9DF00D7F936F93BF92AF921D
:102C30005F934F93D5010E943D158B01AC01D701E5
:102C40000E943D15EB01E80FF91FD6010E944B16BB
:102C50002F913F91D6010E943D15C60FD71FE81F47
:102C6000F91FAF91BF910E944B162F913F910E9487
:102C70003D15C60FD71FE81FF91FD6010E943D154D
:102C8000E60FF71F9801BE01CF0111240F911F918C
:102C9000CF91DF9108950E943D15460F571FC81F21
:102CA000D91F08F43196089588249924F401E40189
:102CB000B0E49F93AA279A158B049C04ED05FE05AA
:102CC000CF05D007A10798F4AD2FDC2FCF2FFE2F13
:102CD000E92D982C892E982F872F762F652F542F2A
:102CE000432F322F2227B85031F7BF9127C01B2E18
:102CF000BF91BB27220F331F441F551F661F771F2D
:102D0000881F991F881C991CEE1FFF1FCC1FDD1FF9
:102D1000AA1FBB1F8A149B04EC05FD05CE05DF0529
:102D2000A007B10748F08A189B08EC09FD09CE09F5
:102D3000DF09A00BB10B21601A94E1F62EF4940187
:102D4000AF01BE01CD01000C08959095809570955E
:102D500061957F4F8F4F9F4F089560957095809537
:102D6000909530954095509521953F4F4F4F5F4F2F
:102D70006F4F7F4F8F4F9F4F08952F923F924F92EB
:102D80005F926F927F928F929F92AF92BF92CF92FB
:102D9000DF92EF92FF920F931F93CF93DF93CDB704
:102DA000DEB7CA1BDB0B0FB6F894DEBF0FBECDBF7C
:102DB00009942A88398848885F846E847D848C844D
:102DC0009B84AA84B984C884DF80EE80FD800C8156
:102DD0001B81AA81B981CE0FD11D0FB6F894DEBF39
:102DE0000FBECDBFED0108950F93083090F0982FDE
:102DF000872F762F652F542F432F322F22270850ED
:102E0000F4CF220F331F441F551F661F771F881FE3
:102E1000991F0A95B2F70F91089597FB10F8169431
:102E200000080F93083098F00850232F342F452FB7
:102E3000562F672F782F892F902DF4CF05949795D3
:102E400087957795679557954795379527950A956F
:102E5000AAF70F9108952A0D3B1D4C1D5D1D6E1D97
:102E60007F1D801F911F08952A193B094C095D0998
:102E70006E097F09800B910B08950024A7FD009433
:102E80002A1730054005500560057005800590053E
:102E900008950E943D15A59F900DB49F900DA49F8D
:102EA000800D911D11240895AEE0B0E0EAE5F7E150
:102EB0000C94CB160D891E8986E08C831A830983B6
:102EC0008FEF9FE79E838D83AE01475E5F4F6F89D3
:102ED000788DCE0101960E947617EF81F885E00F7C
:102EE000F11F10822E96E4E00C94E716ACE0B0E0FF
:102EF000ECE7F7E10C94BD167C016B018A01FC0143
:102F000017821682838181FFBDC1CE0101964C01DB
:102F1000F7019381F60193FD859193FF81916F01F4
:102F2000882309F4ABC1853239F493FD859193FF71
:102F300081916F01853229F4B70190E00E948619D2
:102F4000E7CF512C312C20E02032A0F48B3269F0F5
:102F500030F4803259F0833269F420612CC08D3214
:102F600039F0803339F4216026C02260246023C008
:102F7000286021C027FD27C030ED380F3A3078F4A3
:102F800026FF06C0FAE05F9E300D1124532E13C0B9
:102F90008AE0389E300D1124332E20620CC08E3210
:102FA00021F426FD6BC1206406C08C3611F4206824
:102FB00002C0883641F4F60193FD859193FF81911B
:102FC0006F018111C1CF982F9F7D9554933028F4C4
:102FD0000C5F1F4FFFE3F9830DC0833631F0833759
:102FE00071F0833509F05BC022C0F80180818983CC
:102FF0000E5F1F4F44244394512C540115C03801D7
:10300000F2E06F0E711CF801A080B18026FF03C0B2
:10301000652D70E002C06FEF7FEFC5012C870E9425
:103020007B192C0183012C852F77222E17C03801A4
:10303000F2E06F0E711CF801A080B18026FF03C082
:10304000652D70E002C06FEF7FEFC5012C870E94F5
:1030500070192C012C852068222E830123FC1BC0B3
:10306000832D90E048165906B0F4B70180E290E055
:103070000E9486193A94F4CFF50127FC859127FE2A
:1030800081915F01B70190E00E94861931103A9456
:10309000F1E04F1A51084114510471F7E5C084362C
:1030A00011F0893639F5F80127FF07C06081718179
:1030B000828193810C5F1F4F08C0608171818827D6
:1030C00077FD8095982F0E5F1F4F2F76B22E97FFBA
:1030D00009C090958095709561957F4F8F4F9F4F58
:1030E0002068B22E2AE030E0A4010E94B819A82E70
:1030F000A81844C0853729F42F7EB22E2AE030E08C
:1031000025C0F22FF97FBF2E8F36C1F018F4883515
:1031100079F0B4C0803719F0883721F0AFC02F2F75
:103120002061B22EB4FE0DC08B2D8460B82E09C074
:1031300024FF0AC09F2F9660B92E06C028E030E019
:1031400005C020E130E002C020E132E0F801B7FE26
:1031500007C060817181828193810C5F1F4F06C01F
:103160006081718180E090E00E5F1F4FA4010E949A
:10317000B819A82EA818FB2DFF77BF2EB6FE0BC0DE
:103180002B2D2E7FA51450F4B4FE0AC0B2FC08C04B
:103190002B2D2E7E05C07A2C2B2D03C07A2C01C03E
:1031A000752C24FF0DC0FE01EA0DF11D80818033D6
:1031B00011F4297E09C022FF06C07394739404C0E1
:1031C000822F867809F0739423FD13C020FF06C078
:1031D0005A2C731418F4530C5718732C731468F486
:1031E000B70180E290E02C870E94861973942C85A9
:1031F000F5CF731410F4371801C0312C24FF12C01E
:10320000B70180E390E02C870E9486192C8522FF6D
:1032100017C021FF03C088E590E002C088E790E076
:10322000B7010CC0822F867859F021FD02C080E2E0
:1032300001C08BE227FD8DE2B70190E00E94861964
:10324000A51438F4B70180E390E00E9486195A94DF
:10325000F7CFAA94F401EA0DF11D8081B70190E047
:103260000E948619A110F5CF332009F451CEB70181
:1032700080E290E00E9486193A94F6CFF7018681A9
:10328000978102C08FEF9FEF2C96E2E10C94D91644
:10329000DC01CB01FC01F999FECF06C0F2BDE1BD16
:1032A000F89A319600B40D9241505040B8F7089505
:1032B000DC01CB0103C02D910E94631941505040A5
:1032C000D0F70895262FF999FECF1FBA92BD81BD80
:1032D00020BD0FB6F894FA9AF99A0FBE0196089598
:1032E000FC010590615070400110D8F780959095D1
:1032F0008E0F9F1F0895FC016150704001900110D6
:10330000D8F7809590958E0F9F1F08950F931F9368
:10331000CF93DF93182F092FEB018B8181FD03C021
:103320008FEF9FEF20C082FF10C04E815F812C8104
:103330003D81421753077CF4E881F9819F012F5F9B
:103340003F4F39832883108306C0E885F985812F94
:103350000995892B29F72E813F812F5F3F4F3F83AE
:103360002E83812F902FDF91CF911F910F91089580
:10337000FA01AA27283051F1203181F1E8946F93A6
:103380006E7F6E5F7F4F8F4F9F4FAF4FB1E03ED04C
:10339000B4E03CD0670F781F891F9A1FA11D680FEA
:1033A000791F8A1F911DA11D6A0F711D811D911D1D
:1033B000A11D20D009F468943F912AE0269F112492
:1033C0003019305D3193DEF6CF010895462F4770F6
:1033D000405D4193B3E00FD0C9F7F6CF462F4F7051
:1033E000405D4A3318F0495D31FD4052419302D0AF
:1033F000A9F7EACFB4E0A695979587957795679555
:10340000BA95C9F700976105710508959B01AC0154
:103410000A2E06945795479537952795BA95C9F77B
:10342000620F731F841F951FA01D0895F894FFCF8E
:1034300001FFFFFFFF55415254204672616D652028
:103440004572726F723A200055415254204F766592
:103450007272756E204572726F723A200042756604
:10346000666572206F766572666C6F772065727222
:103470006F723A2000544F444F3A205075742073B5
:103480006F6D6520646562756720696E666F0057B1
:10349000656C636F6D6520746F20626C656E64652A
:1034A00072203A290D0A0053313A20253032752C0A
:1034B00020253032752C20253032752C20253033D4
:1034C000750D0A00204F787967656E202048656C7D
:1034D00069756D200025366C69755600506C656104
:1034E00073652C207475726E206F6E2000796F7575
:1034F0007220636F6D70726573736F722100496E15
:103500006974696E672E2E2E004144432045727205
:103510006F72210043312E2E2E004F4B202043325C
:103520002E2E2E004F4B002020202052756E20544E
:103530006573742020203E002020202020202020A1
:10354000202020202020203E0020202043616C6984
:1035500062726174652020203E0020202020204FD0
:10356000787967656E202020202B002020202020E5
:10357000202020202020202020202D00202020205E
:103580002048656C69756D202020202B00202020AC
:103590004272696768746E65737320202B00202067
:1035A0002020436F6E74726173742020202B0020E2
:1035B00020456D657267656E6379204F32202B0060
:1035C0002020536574204F322076616C7665202B65
:1035D0000020205365742048652076616C76652054
:1035E0002B004D6978696E6720546D58202532751F
:1035F0002F2532752020004D6978696E672045417E
:103600004E782532752020200074253032756325D0
:10361000303275207374253032752076253033753D
:1036200000202020202020202020202020202020BA
:103630002000202020436865636B696E672E2E2E64
:10364000202000202020202020444F4E45212020F3
:103650002020200025303375202020202000253018
:1036600032752525002533752000202020456D6505
:103670007267656E6379212020200020204F322060
:10368000746F6F206869676821202000436F6D7038
:10369000726573736F723A20204F46460053313A79
:1036A00025326C692E2530316C692053323A25322F
:0C36B0006C692E2530316C692020000070
:00000001FF
