:100000000C945E000C947B000C947B000C947B00A1
:100010000C947B000C947B000C947B000C947B0074
:100020000C947B000C947B000C947B000C947B0064
:100030000C947B000C947B000C947B000C947B0054
:100040000C947B000C947B000C949A000C947B0025
:100050000C946E0A0C94A30A0C947B000C947B0005
:100060000C947B000C947B000C947B000C947B0024
:100070000C947B000C947B000C947B00001F000010
:1000800000001F00001F101010101F00001F181884
:1000900018181F00001F1C1C1C1C1F00001F1E1E08
:1000A0001E1E1F00001F1F1F1F1F1F0003070F1F03
:1000B0000F070300181C1E1F1E1C180011241FBE52
:1000C000CFEFD0E1DEBFCDBF13E0A0E0B1E0EEECBA
:1000D000F5E202C005900D92A631B107D9F724E0F0
:1000E000A6E1B3E001C01D92AD3AB207E1F70E946C
:1000F000640B0C94E5120C94000034990AC08091B2
:1001000057048F3F41F0809157048F5F80935704CD
:1001100002C01092570435990AC0809158048F3F4D
:1001200041F0809158048F5F809358040895109295
:10013000580408951F920F920FB60F9211242F9317
:100140003F934F935F936F937F938F939F93AF935F
:10015000BF93EF93FF93809156048F5F8093560473
:1001600080915604893068F080913E0490913F045C
:10017000019690933F0480933E04109256040E948F
:10018000290680913E0490913F0462E370E00E9452
:10019000130E892B11F40E947D00FF91EF91BF9106
:1001A000AF919F918F917F916F915F914F913F910F
:1001B0002F910F900FBE0F901F9018957F928F92E6
:1001C0009F92AF92BF92CF92DF92EF92FF920F93E6
:1001D0001F93CF93DF9381E00E94BE07DC01CB0128
:1001E0009C01AD0160E070E080E090E04058510972
:1001F000610971098109910959016A017B01E82F9F
:10020000192F02E00E94B40F0E2F0E94EB0F59012C
:100210006A017B01E82F192F04E00E94B40F0E2F12
:100220000E94F40F59016A017B01E82F192F04E0A5
:100230000E94B40F0E2F0E94F40F4901D42FC52F36
:10024000B62FA72FF82FE92F06E00E94B40F59010F
:100250006A017B018C0194014D2F5C2F6B2F7A2F4B
:100260008F2F9E2F0E94EB0F722E832E942ED52F50
:10027000C62FB72FF82FE92FA0E00E94FD0F84F4BE
:100280002150310940485F4F6F4F7F4F8F4F9F4F35
:10029000722E832E942ED52FC62FB72FF82FE92F2D
:1002A000272D382D492D5D2F6C2F7B2F8F2F9E2FC3
:1002B00007E10E94CD0FC22FB32FF42FE52F762E2A
:1002C000872E982ED92FA0E00E94FD0F54F40E9493
:1002D0006D0FC22FB32FF42FE52F762E872E982E79
:1002E000D92F8091180381113CC0C0934004B09372
:1002F0004104F0934204E0934304A0906104B09061
:100300006204C0906304D0906404E0906504F090AF
:10031000660400916704109168042C2F3B2F4F2F27
:100320005E2F672D782D892D9D2F0E94840EA0E1D0
:10033000AA2EB7E2BB2EC12CD12CE12CF12C00E06F
:1003400010E00E94DF0E2093590430935A0440932A
:100350005B0450935C0481E0809318038091020158
:1003600038C0C0935D04B0935E04F0935F04E093E3
:100370006004A0903604B0903704C0903804D09048
:100380003904E0903A04F0903B0400913C04109151
:100390003D042C2F3B2F4F2F5E2F672D782D892D5D
:1003A0009D2F0E94840EE0E1AE2EF7E2BF2EC12CFD
:1003B000D12CE12CF12C00E010E00E94DF0E209304
:1003C0001E0430931F044093200450932104109284
:1003D000180380911803DF91CF911F910F91FF9027
:1003E000EF90DF90CF90BF90AF909F908F907F90D5
:1003F0000C94200860E070E080E00E943B0960E01F
:1004000070E081E00E943B092FEF8FE19CE12150D9
:1004100080409040E1F700C0000064E670E080E0BA
:100420000E943B0964E670E081E00E943B092FEFE7
:100430008FE398E3215080409040E1F700C0000036
:1004400060E070E080E00E943B092FEF8FE398E3CB
:10045000215080409040E1F700C0000060E070E073
:1004600081E00E943B092FEF8FE398E32150804009
:100470009040E1F700C000002A9A429A2FEF8FE1E6
:100480009CE1215080409040E1F700C000002B9A91
:10049000409A2FEF8FE19CE1215080409040E1F79E
:1004A00000C00000419A439A2FEF8FE19CE1215058
:1004B00080409040E1F700C000002A982B984298B5
:1004C00040984198439808951F93CF93DF930E94DB
:1004D000E80A182FEC01D0FD1EC0D3FF04C088E04D
:1004E00091E00E94380BD2FF04C08BE191E00E94A2
:1004F000380BD1FF04C080E391E00E94380B1F331A
:1005000021F488E491E00E94380B812FDF91CF9194
:100510001F910C941F0BDF91CF911F91089586E4DA
:10052000809302012A982B984298409860E080E0DE
:100530000E94D50360E182E691E00E94B60361E08B
:1005400080E00E94D50360E183E791E00C94B6035C
:1005500084E1809302012A982B984298409860E0A9
:1005600080E00E94D50360E184E891E00E94B60338
:1005700061E080E00E94D50360E185E991E00C94A0
:10058000B60385E1809302012A982B9842984098FF
:1005900060E080E00E94D50360E186EA91E00E947D
:1005A000B60361E080E00E94D50360E185E991E057
:1005B0000C94B60382E3809302012A982B98429808
:1005C000409860E080E00E94D50360E187EB91E015
:1005D0000E94B60361E080E00E94D50360E185E9F6
:1005E00091E00C94B60383E3809302012A982B9840
:1005F0004298409860E080E00E94D50360E188EC7A
:1006000091E00E94B60361E080E00E94D50360E1C2
:1006100085E991E00C94B60384E3809302012A9863
:100620002B984298409860E080E00E94D50360E1FA
:1006300089ED91E00E94B60361E080E00E94D5035D
:1006400060E185E991E00C94B60385E380930201B3
:100650002A982B984298409860E080E00E94D50349
:1006600060E18AEE91E00E94B60361E080E00E94C2
:10067000D50360E185E991E00C94B6038CE38093A7
:1006800002012A9A2B98429A409860E080E00E94EA
:10069000D50360E18BEF91E00E94B60361E080E05A
:1006A0000E94D50360E185E991E00C94B6038DE3E7
:1006B000809302012A982B9A4298409A60E080E049
:1006C0000E94D50360E18CE092E00E94B60361E0F5
:1006D00080E00E94D50360E185E991E00C94B603C7
:1006E0008BE0809302018091890490918A04892B88
:1006F00011F0429A2A9A80918B0490918C04892B54
:1007000011F0409A2B9A0E94310860E080E00E942C
:10071000D50360E18DE192E00C94B60382B9299A89
:10072000289A8FEF91E10197F1F700C00000289817
:1007300029988FEF91E10197F1F700C0000008952B
:1007400082B9289A8FEF91E10197F1F700C000007C
:1007500028988FEF91E10197F1F700C0000008950C
:1007600081E00C94A00382E00C94A003EF92FF922E
:100770001F93CF93DF931F92CDB7DEB7009771F031
:10078000182F7C018E2D811B861740F4F701819173
:100790007F0169830E948E036981F4CF0F90DF91FE
:1007A000CF911F91FF90EF900895623031F0633048
:1007B00031F0613029F4805C03C08C5E01C08C5A3A
:1007C00080680C94A0031F93CF93DF93EC01862FD6
:1007D000642F0E94D50310E0FE01E10FF11D84910A
:1007E000882329F084910E948E031F5FF5CFDF914B
:1007F000CF911F910895EF92FF920F931F93CF9384
:10080000DF938C0188E0689FB0011124862F8064FB
:10081000E82EC0E0D0E0F801EC0FFD1FF4908C2F23
:100820008E0D0E94A0038F2D0E948E032196C8304A
:10083000D10589F7DF91CF911F910F91FF90EF9034
:1008400008951F93CF93DF932FEF87ED90E0215012
:1008500080409040E1F700C0000012B815B881B1A7
:100860008FEF81B984B1836084B980E382B9289A1B
:100870008FEF91E10197F1F700C0000028988FEF0A
:1008800091E10197F1F700C0000080E382B9289A56
:100890008FEF91E10197F1F700C0000028988FEFEA
:1008A00091E10197F1F700C0000080E382B9289A36
:1008B0008FEF91E10197F1F700C0000028988FEFCA
:1008C00091E10197F1F700C0000088E382B9289A0E
:1008D0008FEF91E10197F1F700C0000028988FEFAA
:1008E00091E10197F1F700C000008CE082B9289AED
:1008F0008FEF91E10197F1F700C0000028988FEF8A
:1009000099E50197F1F700C00000CCE7D0E060E086
:1009100011E0160FCE010E94FB032896183011F04B
:10092000612FF6CFDF91CF911F910895CF93DF9381
:10093000D82FC0E0CD1729F08EE10E94A003CF5F31
:10094000F9CFDF91CF910895CF93DF93D82FC0E0F7
:10095000CD1729F088E10E94A003CF5FF9CFDF9186
:10096000CF9108958EE00C94A0038FE00C94A00327
:100970008CE00C94A00388E00C94A0038CE00C9411
:10098000A003CF93DF93D82FC0E0CD1729F080E1EB
:100990000E94A003CF5FF9CFDF91CF910895CF934D
:1009A000DF93D82FC0E0CD1729F084E10E94A00387
:1009B000CF5FF9CFDF91CF910895CF92DF92EF9281
:1009C000FF920F931F93CF93DF931F92CDB7DEB7A4
:1009D00056E0459F90011124E82FE29FC001E39F5C
:1009E000900D112470E00E94270E8B01CB0166E070
:1009F00070E00E94130EE82EC12CD12CF12CF416BD
:100A0000B9F096012B5F3F4F0217130728F40C151E
:100A10001D0520F08E2D03C085E001C080E04983D4
:100A20000E948E03F394F6E0CF0ED11C4981E7CFEC
:100A30000F90DF91CF911F910F91FF90EF90DF907A
:100A4000CF900895EF92FF920F931F93CF93DF9370
:100A5000CDB7DEB72D970FB6F894DEBF0FBECDBF72
:100A6000162F082FF92E80E84A9940C02A873B8725
:100A70004C875D8779870E94A00360E182EB92E05A
:100A80000E94B603FF920F9379857F931F9383ECA7
:100A9000E82E82E0F82EFF92EF928E010F5F1F4F3B
:100AA0001F930F930E94231080EC0E94A00368E024
:100AB000C8010E94B6035D855F934C854F933B85CB
:100AC0003F932A852F93FF92EF921F930F930E94DB
:100AD000231088EC0E94A00368E0C8010E94B603BE
:100AE0000FB6F894DEBF0FBECDBF0FC00E94A003AB
:100AF00060E18AEC92E00E94B60380EC0E94A003C1
:100B000060E18BED92E00E94B6032D960FB6F8944B
:100B1000DEBF0FBECDBFDF91CF911F910F91FF9030
:100B2000EF9008950F931F9394B19F7094B994B16F
:100B3000906B94B994E0099F80011124016598E0BD
:100B4000299F90011124022B20E2829FC0011124D1
:100B5000082B0CBD81E01F910F910895CF93DF9377
:100B600000D000D0CDB7DEB7FC01819119821A8286
:100B70001B821C829E012F5F3F4FD901422F9A2F6B
:100B8000921B961718F491919D93F9CF813009F437
:100B90002C98F9019E2F941B961730F491919EBDCD
:100BA0000DB407FEFDCFF6CF813009F42C9A862FC5
:100BB0000F900F900F900F90DF91CF910895CF93EA
:100BC000DF93CDB7DEB728970FB6F894DEBF0FBE20
:100BD000CDBFFC0171911D821E821F821886198271
:100BE0001A821B821C82AE014B5F5F4FDA012A2FF3
:100BF000241B261718F421912D93F9CF713009F495
:100C00002C989E012F5F3F4FDA01F901422F5E2F92
:100C1000521B561740F45D915EBD0DB407FEFDCF2B
:100C20005EB55193F4CF713009F42C9AFC01D901CF
:100C30008A2F841B861718F48D918193F9CF862F04
:100C400028960FB6F894DEBF0FBECDBFDF91CF91CF
:100C5000089580911603882371F0809116038F5FA9
:100C600080931603809116038C3728F081E08093DF
:100C700017031092160308950F93CF93DF9300D0BC
:100C800000D01F92CDB7DEB785E0E3E0F1E0DE01F2
:100C9000119601900D928A95E1F701E021E040E480
:100CA00052E46FE070E080E00E94920564E0CE01C3
:100CB00001960E94AE050F900F900F900F900F902D
:100CC000DF91CF910F910895FF920F931F93CF93D0
:100CD000DF9300D000D01F92CDB7DEB7F62E8E0185
:100CE0000F5F1F4F95E0F80111929A95E9F749833C
:100CF0008770F8E08F9FC001112480648A8361E0CF
:100D00006F0DC8010E94DF05E1E060E070E0CB01FB
:100D10004F2D50E02E2F30E04217530774F0982FDC
:100D2000872F762F6627D801A20FB31F2C91620F51
:100D3000711D811D911DEF5FEDCF0F900F900F90F2
:100D40000F900F90DF91CF911F910F91FF90089519
:100D500041E061E084E00E94640610921603109264
:100D600017036F7081E06B3009F080E008950F93F6
:100D7000CF93DF93CDB7DEB729970FB6F894DEBFD8
:100D80000FBECDBF4E835F8368877987FE013196A2
:100D900095E0DF011D929A95E9F72F5F098387702F
:100DA000880F880F880F8A83322FBE016A5F7F4FBA
:100DB000323050F0CF01830F911DDB014D91BD0109
:100DC000DC014C933150F4CF622FCF010E94AE056D
:100DD00029960FB6F894DEBF0FBECDBFDF91CF913D
:100DE0000F9108951E99FECF0895CF92DF92EF9252
:100DF000FF920F936B017C0141E062E081E00E9471
:100E00006406AB01BC015F7166277727D701C60175
:100E10000DE0880F991FAA1FBB1F0A95D1F7AA27BB
:100E2000BB27482B592B6A2B7B2B01E022E081E06A
:100E30000E94B7060F91FF90EF90DF90CF9008953A
:100E4000CF92DF92EF92FF920F936B017C0141E012
:100E500062E082E00E946406AB01BC01487F87E04B
:100E6000C822DD24EE24FF244C295D296E297F2928
:100E700001E022E082E00E94B7060F91FF90EF9020
:100E8000DF90CF900895CF92DF92EF92FF920F9371
:100E90006B017C0141E062E082E00E946406AB01EC
:100EA000BC01587F87E0C822DD24EE24FF24FE2CFD
:100EB000ED2CDC2CCC244C295D296E297F2901E006
:100EC00022E082E00E94B7060F91FF90EF90DF9042
:100ED000CF9008950F93CF93C82F41E062E082E056
:100EE0000E946406AB01BC014F7720E8C29FC0019D
:100EF00011249927AA2797FDA095BA2F482B592B83
:100F00006A2B7B2B01E022E082E00E94B706CF91A2
:100F10000F9108950F93CF93C82F70E080E090E079
:100F20000E94200741E062E081E00E9464064C2FAD
:100F300050E0542F44275295550F507E60E070E0EA
:100F400001E022E081E00E94B706CF910F910C945E
:100F5000F2060F932C9800E022E040E050E260E0BF
:100F600070E081E00E94B7060E94F20640E063E074
:100F700083E00E9464062C9A0F910895CF92DF922D
:100F8000EF92FF920F93CF93DF93C82F01E022E0FF
:100F900040E050E0BA0181E00E94B706D0E0C12CE9
:100FA000D12C7601DC1759F041E063E083E00E9428
:100FB0006406C60ED71EE81EF91EDF5FF3CF2D2F85
:100FC00030E040E050E0C701B6010E943B0ECA018C
:100FD000B901DF91CF910F91FF90EF90DF90CF900B
:100FE00008950F931F93613029F000E810E020E08E
:100FF00030E004C000E810E420E030E0482F477003
:1010000050E060E070E040615C60402B512B622B4F
:10101000732B01E022E082E00E94B7061F910F913E
:1010200008950F9361E00E94F10701E022E049E09A
:1010300050E060E070E081E00E94B7060F910895F3
:1010400060E00E94F10781E080931603109217037D
:1010500008954EE050E060E070E081E994E00C9487
:1010600017124EE050E060E070E08FE994E00E94DB
:101070001712209191043091920480919F049091D5
:10108000A0042817390709F044C020919304309137
:1010900094048091A1049091A20428173907C9F5FE
:1010A00020919504309196048091A3049091A4041A
:1010B0002817390771F52091970430919804809191
:1010C000A5049091A6042817390719F59091990461
:1010D0008091A70498131DC090919A048091A80450
:1010E000981317C020919B0430919C048091A9040F
:1010F0009091AA042817390761F490919D0480917A
:10110000AB04981306C090919E048091AC0498178C
:1011100041F04EE050E060E070E081E994E00C9432
:101120002712089584B18C6084B987B18F6087B924
:101130008AB1806C8AB9529853985A9A5B9A3C98B3
:101140003D983E983F98449A459A469A479AE0EBD4
:10115000F0E08081836A8083E1EBF0E0808186604B
:10116000808380919D048093B30080919E0480933E
:10117000B40085B5826085BD16BCEEE6F0E08081E6
:1011800081608083E0E8F0E08081826A8083E1E82A
:10119000F0E080818B61808380919B0490919C041E
:1011A00090938700809386008AB180638AB980918A
:1011B000910490919204909389008093880080918B
:1011C00093049091940490938B0080938A000895E7
:1011D0008093B30008958093B40008950E94B003F3
:1011E00060E083E00E94D5036AE08CEE92E00E940A
:1011F000B6030E943C060E94A80681110BC00E9403
:10120000B00360E082E00E94D5036AE087EF92E0DD
:101210000C94B60361E080E00E94D50365E082E0B3
:1012200093E00E94B60380E00E94110869E088E024
:1012300093E00E94B60381E00E94110862E082E11F
:1012400093E00E94B60310921803809118030E9445
:1012500020080C94B0030E9429080E9492080E9462
:1012600021040E94B0030E94EE0889E090E00E94F1
:10127000CF0A78940895653671052CF477FF05C080
:1012800060E070E002C064E670E0811119C0E09196
:101290009104F091920420919504309196042E1BB4
:1012A0003F0B44E6429FC001439F900D11240E94D2
:1012B000130E6E0F7F1F709389006093880008954E
:1012C000E0919304F0919404209197043091980454
:1012D0002E1B3F0B44E6429FC001439F900D1124FB
:1012E0000E94130E6E0F7F1F70938B0060938A0015
:1012F000089521E04A9904C0893C9F4A08F420E0FF
:10130000822F0895CF93DF93FB01E9011A821B829C
:101310001C821D82198218829F838E837987688739
:101320005B874A87BC016F5F7F4F8FEF9FE70E940B
:10133000270E7D876C879F012F5F3F4F442737FD26
:101340004095542F6FEF7FEF8FEF9FE30E945D0E6C
:101350002E873F87488B598BDF91CF9108958F92CD
:101360009F92AF92BF92CF92DF92EF92FF92CF9374
:10137000DF93EB01FA016C01E12CF12CC61AD70ABC
:10138000E108F10824853585C901AA2797FDA095B4
:10139000BA2F8C159D05AE05BF05B4F08827992797
:1013A000821B930BAA2797FDA095BA2FC816D906C2
:1013B000EA06FB0684F0A681B781A70196010E9488
:1013C0007C0E4B015C010EC088248A949FE7992E05
:1013D000A12CB12C07C08824839480E8982EAA24DD
:1013E000AA94BA2C22813381448155812C0D3D1D54
:1013F0004E1D5F1D86859785A089B1898217930749
:10140000A407B5074CF482839383A483B5836FEF5D
:101410007FEF8FEF9FE31DC0B095A09590958195CC
:101420009F4FAF4FBF4F281739074A075B074CF450
:1014300082839383A483B58361E070E080E090ECC5
:1014400008C02283338344835583A085B1850E94DD
:101450007C0E408151814C1B5D0BA285B3854A9F58
:1014600090014B9F300D5A9F300D1124D183C083C2
:10147000680D791D8A1D9B1D620F731F811D911DB3
:1014800020E830E040E050E00E945D0E213080E82E
:1014900038078FEF4807580724F421E030E84FEF72
:1014A0005FEFDA01C901811520E89207A105B105B6
:1014B00024F08FEF9FE7A0E0B0E0DF91CF91FF90A5
:1014C000EF90DF90CF90BF90AF909F908F90089556
:1014D000FC01128213821482158208951F920F92CA
:1014E0000FB60F9211242F933F934F935F938F93D7
:1014F0009F93EF93FF934091C0005091C6004871B5
:1015000080911B0390E001968F77992720911A0311
:1015100030E08217930739F080931B03FC01E25EF1
:10152000FC4F508301C042E040931903FF91EF91BB
:101530009F918F915F914F913F912F910F900FBE8F
:101540000F901F9018951F920F920FB60F921124B3
:101550008F939F93EF93FF9390911D0380911C03B2
:10156000981779F080911C0390E001968F77992766
:1015700080931C03FC01E256FC4F80818093C600DF
:1015800005C08091C1008F7D8093C100FF91EF91D4
:101590009F918F910F900FBE0F901F9018951092F2
:1015A0001D0310921C0310921B0310921A0397FF45
:1015B00004C022E02093C0009F779093C5008093E1
:1015C000C40088E98093C10086E08093C20008953A
:1015D00090911B0380911A039817A1F080911A0330
:1015E00090E001968F77992780931A03FC01E25EC1
:1015F000FC4F20818091190390E0982F8827820F5B
:10160000911D089580E091E0089590911B038091D1
:101610001A03981789F0E0911A03F0E03196EF77FA
:10162000FF27E25EFC4F20818091190390E0982F04
:101630008827820F911D089580E091E00895209100
:101640001D0330E02F5F3F4F2F77332740911C035E
:1016500050E024173507D1F3F901E256FC4F80839F
:1016600020931D038091C10080628093C100089582
:10167000CF93DF93EC018991882319F00E941F0B0F
:10168000FACFDF91CF910895CF93DF93FC0184913E
:10169000EF012196882321F00E941F0BFE01F7CF56
:1016A000DF91CF91089580911B0320911A0390E060
:1016B00080589F4F821B91098F77992708958091B9
:1016C0001A0380931B030895CF93DF93CDB7DEB742
:1016D00028970FB6F894DEBF0FBECDBF0E942B092E
:1016E0008EE292E00E94380B24E434E040E050E0C7
:1016F00060E070E080E890E00E94820922E234E03D
:1017000040E050E060E070E080E890E00E948209F4
:1017100080E09DE790938A0480938904312C2224F1
:1017200023948E010F5F1F4F90E2C92E9BE1D92EAB
:101730009CE7E92E9CE0F92E0E9464028091170339
:1017400081110E94DE0080910201843121F080919C
:101750000201853139F44A9905C04B9903C00E94B2
:1017600070034DC0809102018B3021F44A991AC058
:101770004B9918C031107BC0349B06C0359B04C008
:10178000369B02C0379973C0809102018A3069F498
:10179000349B06C0359B04C0369B02C0379905C0F8
:1017A0004A9903C00E94A8022AC080910201843194
:1017B00029F4369903C00E94C10221C08091020120
:1017C000853111F4379BEECF80910201823351F4C1
:1017D000369903C00E94F30212C0379948C00E9494
:1017E0008F020DC080910201833361F4369903C0EA
:1017F0000E940C0304C037993AC00E94DA023324D5
:10180000339435C080910201843341F4369903C08A
:101810000E942503F4CF379BDDCF29C080910201C0
:10182000853341F4369903C00E943E03E8CF379BCD
:10183000DFCF1DC0809102018C3341F4369903C083
:101840000E945703DCCF379BE3CF11C08091020188
:101850008D3329F4369BC3CF379BE6CF08C08091E8
:101860000201863421F4369BC8CF379BE9CF349BE5
:1018700006C0359B04C0369B02C037992AC021E0C0
:101880003212CDC180910201823348F0379907C0EE
:10189000369905C00E94A8020E9431080EC08091AE
:1018A0000201853121F080910201843141F43799A0
:1018B00006C0369904C00E94DA0282E0382E8FEF0B
:1018C0009FECA2E081509040A040E1F700C00000F2
:1018D00001C0312C80913E0490913F0464E670E099
:1018E0000E94130E892B09F027CF809102018A30C4
:1018F00009F046C08090400490904104A0904204BA
:10190000B0904304C701B601A50194010E943B0EAB
:10191000BA01A90140936104509362046093630487
:101920007093640410926504109266041092670428
:101930001092680440905D0450905E0460905F04D3
:1019400070906004C701B601A30192010E943B0E92
:10195000BA01A901409336045093370460933804C8
:101960007093390410923A0410923B0410923C0494
:1019700010923D04A3019201C501B4010E94220509
:1019800080910201863461F5359B02C0349928C0EC
:1019900060E08FE00E94D50361E086E692E00E945D
:1019A000B60361E080E00E94D50360E186E492E046
:1019B0000E94B6030E94FA0161E080E00E94D50314
:1019C00060E187E592E00E94B603BFEF2FE388E372
:1019D000B15020408040E1F700C000000E948F021B
:1019E00080910201823309F05DC080915804882300
:1019F00091F0809158048F3F11F49AE001C091E07A
:101A000080919D04981720F4891B80939D0403C046
:101A1000811110929D04809157048823D9F0809100
:101A200057048F3F11F45AE001C051E040919D04EA
:101A3000242F30E08FEF90E0851B9109281739079C
:101A400024F4450F40939D0405C04F3F19F08FEFDC
:101A500080939D0480919D041F928F93A8E6B2E02D
:101A6000BF93AF931F930F930E94231061E080E018
:101A70000E94D50364E0C8010E94B60361E084E0DF
:101A80000E94D5034AE06FEF80919D040E94DD041F
:101A900080919D040E94E8080F900F900F900F9086
:101AA0000F900F9080910201833309F05DC0809107
:101AB0005804882391F0809158048F3F11F49AE0E4
:101AC00001C091E080919E04981720F4891B8093B7
:101AD0009E0403C0811110929E04809157048823B4
:101AE000D9F0809157048F3F11F45AE001C051E0C2
:101AF00040919E04242F30E08FEF90E0851B9109E8
:101B00002817390724F4450F40939E0405C04F3F22
:101B100019F08FEF80939E0480919E041F928F9303
:101B2000A8E6B2E0BF93AF931F930F930E942310D8
:101B300061E080E00E94D50364E0C8010E94B60322
:101B400061E084E00E94D5034AE06FEF80919E043B
:101B50000E94DD0480919E040E94EB080F900F907C
:101B60000F900F900F900F908091020180910201D1
:101B70008B3009F0E1CD80911E0490911F040E94EA
:101B80007909882301F120920201419A439A2A9807
:101B90002B984298409860E080E00E94D50360E175
:101BA00082E792E00E94B60361E080E00E94D503E4
:101BB00060E14A9903C083E892E002C084E992E0C0
:101BC0000E94B603B9CD6091590470915A04809176
:101BD0005B0490915C0428EE33E040E050E00E940A
:101BE0003B0E9F938F937F936F935F934F933F939E
:101BF0002F93A5EAB2E0BF93AF931F930F930E9478
:101C0000231061E080E00E94D50368E0C8010E94D3
:101C1000B6030FB6F894DEBF0FBECDBF8DCD332017
:101C200009F458CE4CCEAA1BBB1B51E107C0AA1F1A
:101C3000BB1FA617B70710F0A61BB70B881F991F6D
:101C40005A95A9F780959095BC01CD01089597FB11
:101C5000072E16F4009407D077FD09D00E94130ECA
:101C600007FC05D03EF4909581959F4F089570959F
:101C700061957F4F0895A1E21A2EAA1BBB1BFD019F
:101C80000DC0AA1FBB1FEE1FFF1FA217B307E4075B
:101C9000F50720F0A21BB30BE40BF50B661F771FB3
:101CA000881F991F1A9469F7609570958095909593
:101CB0009B01AC01BD01CF010895052E97FB1EF4D9
:101CC00000940E94740E57FD07D00E943B0E07FC43
:101CD00003D04EF40C94740E509540953095219598
:101CE0003F4F4F4F5F4F0895909580957095619548
:101CF0007F4F8F4F9F4F0895B7FF0C9418100E948D
:101D00001810821B930B0895DF93CF931F930F93AB
:101D10009A9DF02D219FF00D8B9DF00D8A9DE02D59
:101D2000F10D039FF00D029FE00DF11D4E9DE00DA2
:101D3000F11D5E9DF00D4F9DF00D7F936F93BF924F
:101D4000AF925F934F93D5010E9409108B01AC01B4
:101D5000D7010E940910EB01E80FF91FD6010E947C
:101D6000D40E2F913F91D6010E940910C60FD71FA4
:101D7000E81FF91FAF91BF910E94D40E2F913F91A0
:101D80000E940910C60FD71FE81FF91FD6010E9435
:101D90000910E60FF71F9801BE01CF0111240F9122
:101DA0001F91CF91DF9108950E940910460F571F90
:101DB000C81FD91F08F431960895689401C0E894AB
:101DC000F92FF12B12F00C94110FA0E0B0E0EBEE24
:101DD000FEE00C94830F092E059422F40E946D0FEF
:101DE000112392F4F0E80F26FFEFE094F0940095B1
:101DF0001095B094C094D094A194BF0ACF0ADF0A82
:101E0000EF0AFF0A0F0B1F0B0E941C0F07FC0E941A
:101E10006D0FCDB7DEB7ECE00C949F0F689401C056
:101E2000E8948F929F92CF93DF930E941C0FDF91D3
:101E3000CF919F908F90089588249924F401E40114
:101E4000B0E49F93AA279A158B049C04ED05FE0528
:101E5000CF05D007A10798F4AD2FDC2FCF2FFE2F91
:101E6000E92D982C892E982F872F762F652F542FA8
:101E7000432F322F2227B85031F7BF9127C01B2E96
:101E8000BF91BB27220F331F441F551F661F771FAB
:101E9000881F991F881C991CEE1FFF1FCC1FDD1F78
:101EA000AA1FBB1F8A149B04EC05FD05CE05DF05A8
:101EB000A007B10748F08A189B08EC09FD09CE0974
:101EC000DF09A00BB10B21601A94E1F62EF4940106
:101ED000AF01BE01CD01000C08956095709580950D
:101EE000909530954095509521953F4F4F4F5F4FBE
:101EF0006F4F7F4F8F4F9F4F08952F923F924F927A
:101F00005F926F927F928F929F92AF92BF92CF9289
:101F1000DF92EF92FF920F931F93CF93DF93CDB792
:101F2000DEB7CA1BDB0B0FB6F894DEBF0FBECDBF0A
:101F300009942A88398848885F846E847D848C84DB
:101F40009B84AA84B984C884DF80EE80FD800C81E4
:101F50001B81AA81B981CE0FD11D0FB6F894DEBFC7
:101F60000FBECDBFED0108950F93083090F0982F6C
:101F7000872F762F652F542F432F322F222708507B
:101F8000F4CF220F331F441F551F661F771F881F72
:101F9000991F0A95B2F70F91089597FB10F81694C0
:101FA00000080F93083098F00850232F342F452F46
:101FB000562F672F782F892F902DF4CF0594979562
:101FC00087957795679557954795379527950A95FE
:101FD000AAF70F9108952A0D3B1D4C1D5D1D6E1D26
:101FE0007F1D801F911F08952A193B094C095D0927
:101FF0006E097F09800B910B08950024A7FD0094C2
:102000002A173005400550056005700580059005CC
:102010000895A29FB001B39FC001A39F700D811DC1
:102020001124911DB29F700D811D1124911D0895E1
:102030000E940910A59F900DB49F900DA49F800D44
:10204000911D11240895AEE0B0E0E9E2F0E10C94B6
:102050008B0F0D891E8986E08C831A8309838FEF8D
:102060009FE79E838D83AE01475E5F4F6F89788DBA
:10207000CE0101960E944510EF81F885E00FF11F17
:1020800010822E96E4E00C94A70FACE0B0E0EBE4F5
:10209000F0E10C947D0F7C016B018A01FC01178239
:1020A0001682838181FFBDC1CE0101964C01F701EB
:1020B0009381F60193FD859193FF81916F018823B0
:1020C00009F4ABC1853239F493FD859193FF819179
:1020D0006F01853229F4B70190E00E945512E7CFD5
:1020E000512C312C20E02032A0F48B3269F030F4F6
:1020F000803259F0833269F420612CC08D3239F07E
:10210000803339F4216026C02260246023C0286017
:1021100021C027FD27C030ED380F3A3078F426FF74
:1021200006C0FAE05F9E300D1124532E13C08AE0E2
:10213000389E300D1124332E20620CC08E3221F4D3
:1021400026FD6BC1206406C08C3611F4206802C0E5
:10215000883641F4F60193FD859193FF81916F01DB
:102160008111C1CF982F9F7D9554933028F40C5F37
:102170001F4FFFE3F9830DC0833631F0833771F0D1
:10218000833509F05BC022C0F801808189830E5F2E
:102190001F4F44244394512C540115C03801F2E0E0
:1021A0006F0E711CF801A080B18026FF03C0652D61
:1021B00070E002C06FEF7FEFC5012C870E944A12CA
:1021C0002C0183012C852F77222E17C03801F2E0D5
:1021D0006F0E711CF801A080B18026FF03C0652D31
:1021E00070E002C06FEF7FEFC5012C870E943F12A5
:1021F0002C012C852068222E830123FC1BC0832DFB
:1022000090E048165906B0F4B70180E290E00E94D1
:1022100055123A94F4CFF50127FC859127FE819160
:102220005F01B70190E00E94551231103A94F1E03D
:102230004F1A51084114510471F7E5C0843611F06A
:10224000893639F5F80127FF07C0608171818281E5
:1022500093810C5F1F4F08C060817181882777FDD3
:102260008095982F0E5F1F4F2F76B22E97FF09C0D3
:1022700090958095709561957F4F8F4F9F4F206807
:10228000B22E2AE030E0A4010E948712A82EA818DE
:1022900044C0853729F42F7EB22E2AE030E025C0D5
:1022A000F22FF97FBF2E8F36C1F018F4883579F000
:1022B000B4C0803719F0883721F0AFC02F2F2061CC
:1022C000B22EB4FE0DC08B2D8460B82E09C024FF41
:1022D0000AC09F2F9660B92E06C028E030E005C0E6
:1022E00020E130E002C020E132E0F801B7FE07C093
:1022F00060817181828193810C5F1F4F06C0608174
:10230000718180E090E00E5F1F4FA4010E94871250
:10231000A82EA818FB2DFF77BF2EB6FE0BC02B2DC5
:102320002E7FA51450F4B4FE0AC0B2FC08C02B2DB9
:102330002E7E05C07A2C2B2D03C07A2C01C0752C63
:1023400024FF0DC0FE01EA0DF11D8081803311F4E0
:10235000297E09C022FF06C07394739404C0822FA3
:10236000867809F0739423FD13C020FF06C05A2C11
:10237000731418F4530C5718732C731468F4B701C2
:1023800080E290E02C870E94551273942C85F5CF43
:10239000731410F4371801C0312C24FF12C0B70198
:1023A00080E390E02C870E9455122C8522FF17C0F5
:1023B00021FF03C088E590E002C088E790E0B70104
:1023C0000CC0822F867859F021FD02C080E201C046
:1023D0008BE227FD8DE2B70190E00E945512A51413
:1023E00038F4B70180E390E00E9455125A94F7CF79
:1023F000AA94F401EA0DF11D8081B70190E00E94DA
:102400005512A110F5CF332009F451CEB70180E267
:1024100090E00E9455123A94F6CFF7018681978199
:1024200002C08FEF9FEF2C96E2E10C94990FDC0134
:10243000CB01FC01F999FECF06C0F2BDE1BDF89ACF
:10244000319600B40D9241505040B8F70895DC0128
:10245000CB0103C02D910E94321241505040D0F761
:102460000895262FF999FECF1FBA92BD81BD20BDD8
:102470000FB6F894FA9AF99A0FBE01960895FC01E6
:102480000590615070400110D8F7809590958E0F9F
:102490009F1F0895FC016150704001900110D8F712
:1024A000809590958E0F9F1F08950F931F93CF9344
:1024B000DF93182F092FEB018B8181FD03C08FEF74
:1024C0009FEF20C082FF10C04E815F812C813D8133
:1024D000421753077CF4E881F9819F012F5F3F4F3A
:1024E00039832883108306C0E885F985812F0995F3
:1024F000892B29F72E813F812F5F3F4F3F832E830A
:10250000812F902FDF91CF911F910F910895FA01A4
:10251000AA27283051F1203181F1E8946F936E7F22
:102520006E5F7F4F8F4F9F4FAF4FB1E03ED0B4E013
:102530003CD0670F781F891F9A1FA11D680F791F54
:102540008A1F911DA11D6A0F711D811D911DA11D65
:1025500020D009F468943F912AE0269F1124301975
:10256000305D3193DEF6CF010895462F4770405D10
:102570004193B3E00FD0C9F7F6CF462F4F70405DBF
:102580004A3318F0495D31FD4052419302D0A9F71A
:10259000EACFB4E0A6959795879577956795BA9514
:1025A000C9F700976105710508959B01AC010A2EDA
:1025B00006945795479537952795BA95C9F7620FB1
:0E25C000731F841F951FA01D0895F894FFCF70
:1025CE0008520A01FFFFFFFF554152542046726127
:1025DE006D65204572726F723A200055415254203B
:1025EE004F76657272756E204572726F723A200068
:1025FE00427566666572206F766572666C6F7720BF
:10260E006572726F723A2000544F444F3A205075E3
:10261E007420736F6D6520646562756720696E66E0
:10262E006F002020202052756E2054657374202078
:10263E00203E00202020202020202020202020208E
:10264E0020203E0020202020204F787967656E20C4
:10265E002020202B00202020202020202020202081
:10266E00202020202D00202020202048656C697518
:10267E006D202020202B0020202042726967687474
:10268E006E65737320202B0020202020436F6E7404
:10269E00726173742020202B002020205761726EEF
:1026AE00696E67204F3220202B002020456D657209
:1026BE0067656E6379204F32202B0020205365749E
:1026CE00204F322076616C7665202B0020205365DA
:1026DE00742048652076616C7665202B00202020C2
:1026EE0020204D6978696E672020202020005765D4
:1026FE006C636F6D6520746F20626C656E646572BD
:10270E00203A290D0A00202020436865636B696E0C
:10271E00672E2E2E202000202020202020444F4ED9
:10272E004521202020202000253033752020202018
:10273E002000202020456D657267656E637921202B
:10274E0020200020204F3220746F6F206869676848
:10275E0021202000436F6D70726573736F723A2083
:10276E00204F464600202025326C692E2530336CD2
:10277E006900204F787967656E202048656C697511
:10278E006D200025366C69755600506C6561736559
:10279E002C207475726E206F6E2000796F7572200A
:1027AE00636F6D70726573736F722100496E697419
:1027BE00696E672E2E2E00414443204572726F7251
:1027CE00210043312E2E2E004F4B202043322E2E31
:0627DE002E004F4B00002D
:00000001FF
