:100000000C945E000C947B000C947B000C947B00A1
:100010000C947B000C947B000C947B000C947B0074
:100020000C947B000C947B000C947B000C947B0064
:100030000C947B000C947B000C947B000C947B0054
:100040000C947B000C947B000C94D5060C947B00E4
:100050000C94710B0C94A60B0C947B000C947B00FD
:100060000C947B000C947B000C947B000C947B0024
:100070000C947B000C947B000C947B00001F000010
:1000800000001F00001F101010101F00001F181884
:1000900018181F00001F1C1C1C1C1F00001F1E1E08
:1000A0001E1E1F00001F1F1F1F1F1F0003070F1F03
:1000B0000F070300181C1E1F1E1C180011241FBE52
:1000C000CFEFD0E1DEBFCDBF13E0A0E0B1E0E0EDC7
:1000D000FAE302C005900D92A03BB107D9F715E0F5
:1000E000A0EBB3E001C01D92A636B107E1F70E9474
:1000F000F2170C94661D0C9400004F925F926F9261
:100100007F928F929F92AF92BF92CF92DF92EF92A7
:10011000FF920F931F93CF93DF9381E00E945B06C2
:10012000DC01CB019C01AD0160E070E080E090E07B
:1001300040585109610971098109910959016A0100
:100140007B01E82F192F02E00E944F1A0E2F0E9408
:10015000861A59016A017B01E82F192F04E00E94D9
:100160004F1A0E2F0E948F1A59016A017B01E82F46
:10017000192F04E00E944F1A0E2F0E948F1A490176
:10018000D42FC52FB62FA72FF82FE92F06E00E94F6
:100190004F1A59016A017B018C0194014D2F5C2F8C
:1001A0006B2F7A2F8F2F9E2F0E94861AD22EE32E2E
:1001B000F42ED52FC62FB72FF82FE92FA0E00E94DD
:1001C000981A84F42150310940485F4F6F4F7F4F98
:1001D0008F4F9F4FD22EE32EF42ED52FC62FB72F41
:1001E000F82FE92F2D2D3E2D4F2D5D2F6C2F7B2FBE
:1001F0008F2F9E2F07E10E94681AC22FB32FF42F72
:10020000E52F762E872E982ED92FA0E00E94981ADF
:1002100054F40E94081AC22FB32FF42FE52F762E24
:10022000872E982ED92F8091B203811167C0C09379
:100230001505B0931605F0931705E0931805A090E7
:100240002505B0902605C0902705D0902805E090A0
:100250002905F0902A0500912B0510912C052C2FD3
:100260003B2F4F2F5E2F672D782D892D9D2F0E94BC
:100270005619B0E1AB2EC7E2BC2EC12CD12CE12C1B
:10028000F12C00E010E00E94191920931D05309315
:100290001E0540931F055093200581E08093B20313
:1002A0000E94EC178B3009F09EC060911D05709183
:1002B0001E0580911F0590912005AAE0CA2ED12C21
:1002C000E12CF12CA70196010E94DE1849015A0188
:1002D0006091FD047091FE048091FF0490910005EF
:1002E000A70196010E94DE18DA01C9014AEE54E026
:1002F000B4010E94B20ABC0180E073C0C09319052A
:10030000B0931A05F0931B05E0931C05A0902D05F2
:10031000B0902E05C0902F05D0903005E0903105AB
:10032000F090320500913305109134052C2F3B2FAE
:100330004F2F5E2F672D782D892D9D2F0E945619E6
:10034000E0E1AE2EF7E2BF2EC12CD12CE12CF12C36
:1003500000E010E00E941919209321053093220536
:1003600040932305509324051092B2030E94EC178A
:100370008B30C9F58090010590900205A09003058F
:10038000B09004058091FD049091FE04A091FF04BB
:10039000B091000588159905AA05BB0521F160916A
:1003A00021057091220580912305909124052AE072
:1003B000C22ED12CE12CF12CA70196010E94DE184F
:1003C00029013A01C501B401A70196010E94DE1876
:1003D000DA01C90148ED54E0B2010E94B20ABC0141
:1003E00081E00E9419098091B203DF91CF911F91A2
:1003F0000F91FF90EF90DF90CF90BF90AF909F90C4
:100400008F907F906F905F904F900C94CC061F93CD
:10041000CF93DF930E94EB0B182FEC01D0FD1EC091
:10042000D3FF04C085E091E00E943B0CD2FF04C0E2
:1004300088E191E00E943B0CD1FF04C08DE291E085
:100440000E943B0C1F3321F485E491E00E943B0C99
:10045000812FDF91CF911F910C94220CDF91CF91CE
:100460001F91089582B9299A289A8FEF91E10197F7
:10047000F1F700C00000289829988FEF91E10197CB
:10048000F1F700C00000089582B9289A8FEF91E13A
:100490000197F1F700C0000028988FEF91E10197D4
:1004A000F1F700C00000089581E00C94440282E05E
:1004B0000C944402EF92FF921F93CF93DF931F920D
:1004C000CDB7DEB7009771F0182F7C018E2D811B00
:1004D000861740F4F70181917F0169830E943202FF
:1004E0006981F4CF0F90DF91CF911F91FF90EF9032
:1004F0000895623031F0633031F0613029F4805C6E
:1005000003C08C5E01C08C5A80680C9444021F9317
:10051000CF93DF93EC01862F642F0E94790210E0C5
:10052000FE01E10FF11D8491882321F00E94320227
:100530001F5FF6CFDF91CF911F910895EF92FF9249
:100540000F931F93CF93DF938C0188E0689FB001D6
:100550001124862F8064E82EC0E0D0E0F801EC0F73
:10056000FD1FF4908C2F8E0D0E9444028F2D0E944F
:1005700032022196C830D10589F7DF91CF911F91C2
:100580000F91FF90EF9008951F93CF93DF932FEF7C
:1005900087ED90E0215080409040E1F700C00000DE
:1005A00012B815B881B18FEF81B984B1836084B975
:1005B00080E382B9289A8FEF91E10197F1F700C0AB
:1005C000000028988FEF91E10197F1F700C000003B
:1005D00080E382B9289A8FEF91E10197F1F700C08B
:1005E000000028988FEF91E10197F1F700C000001B
:1005F00080E382B9289A8FEF91E10197F1F700C06B
:10060000000028988FEF91E10197F1F700C00000FA
:1006100088E382B9289A8FEF91E10197F1F700C042
:10062000000028988FEF91E10197F1F700C00000DA
:100630008CE082B9289A8FEF91E10197F1F700C021
:10064000000028988FEF99E50197F1F700C00000AE
:10065000CCE7D0E060E011E0160FCE010E949E02D0
:100660002896183011F0612FF6CFDF91CF911F91AE
:100670000895CF93DF93D82FC0E0CD1729F08EE1F6
:100680000E944402CF5FF9CFDF91CF910895CF93BD
:10069000DF93D82FC0E0CD1729F088E10E944402F3
:1006A000CF5FF9CFDF91CF9108958EE00C94440293
:1006B0008FE00C9444028CE00C94440288E00C948B
:1006C00044028CE00C944402CF93DF93D82FC0E017
:1006D000CD1729F080E10E944402CF5FF9CFDF916E
:1006E000CF910895CF93DF93D82FC0E0CD1729F095
:1006F00084E10E944402CF5FF9CFDF91CF9108954A
:10070000CF92DF92EF92FF920F931F93CF93DF93DD
:100710001F92CDB7DEB756E0459F90011124E82F18
:10072000E29FC001E39F900D112470E00E94CA185F
:100730008B01CB0166E070E00E94B618E82EC12C58
:10074000D12CF12CF416B9F096012B5F3F4F021714
:10075000130728F40C151D0520F08E2D03C085E02D
:1007600001C080E049830E943202F394F6E0CF0E8C
:10077000D11C4981E7CF0F90DF91CF911F910F914D
:10078000FF90EF90DF90CF900895EF92FF920F933C
:10079000CF93DF93CDB7DEB76B970FB6F894DEBF7C
:1007A0000FBECDBFF82E80E84A993EC0288F398F02
:1007B0004A8F5B8F6D8B7E8B9F8B0E9444029F893B
:1007C0009F93FF927E897F936D896F9384E991E077
:1007D0009F938F93CE0101967C01FF928F930E948D
:1007E000A41A68E0C7010E945A021F920F935B8D02
:1007F0005F934A8D4F93398D3F93288D2F9383EAD2
:1008000091E09F938F93FF92EF920E94A41A80EC45
:100810000E94440268E0C7010E945A020FB6F89491
:10082000DEBF0FBECDBF0FC00E94440260E183EB6C
:1008300091E00E945A0280EC0E94440260E184EC44
:1008400091E00E945A026B960FB6F894DEBF0FBE7D
:10085000CDBFDF91CF910F91FF90EF9008950F934F
:100860001F9394B19F7094B994B1906B94B994E034
:10087000099F80011124016598E0299F90011124AE
:10088000022B20E2829FC0011124082B0CBD81E0C5
:100890001F910F910895CF93DF9300D000D0CDB773
:1008A000DEB7FC01819119821A821B821C829E0193
:1008B0002F5F3F4FD901422F9A2F921B961718F4A2
:1008C00091919D93F9CF813009F42C98F9019E2FD5
:1008D000941B961730F491919EBD0DB407FEFDCF89
:1008E000F6CF813009F42C9A862F0F900F900F903D
:1008F0000F90DF91CF910895CF93DF93CDB7DEB7FF
:1009000028970FB6F894DEBF0FBECDBFFC017191E2
:100910001D821E821F82188619821A821B821C82E7
:10092000AE014B5F5F4FDA012A2F241B261718F404
:1009300021912D93F9CF713009F42C989E012F5FEE
:100940003F4FDA01F901422F5E2F521B561740F438
:100950005D915EBD0DB407FEFDCF5EB55193F4CF42
:10096000713009F42C9AFC01D9018A2F841B861757
:1009700018F48D918193F9CF862F28960FB6F894AD
:10098000DEBF0FBECDBFDF91CF9108958091B00340
:10099000882371F08091B0038F5F8093B0038091C2
:1009A000B0038C3728F081E08093B1031092B0033C
:1009B00008950F93CF93DF9300D000D01F92CDB74F
:1009C000DEB785E0E0E0F1E0DE01119601900D92E6
:1009D0008A95E1F701E021E040E452E46FE070E045
:1009E00080E00E942F0464E0CE0101960E944B0437
:1009F0000F900F900F900F900F90DF91CF910F916C
:100A00000895FF920F931F93CF93DF9300D000D0F0
:100A10001F92CDB7DEB7F62E8E010F5F1F4F95E008
:100A2000F80111929A95E9F749838770F8E08F9F52
:100A3000C001112480648A8361E06F0DC8010E94A7
:100A40007C04E1E060E070E0CB014F2D50E02E2F00
:100A500030E04217530774F0982F872F762F6627C0
:100A6000D801A20FB31F2C91620F711D811D911D22
:100A7000EF5FEDCF0F900F900F900F900F90DF91E1
:100A8000CF911F910F91FF90089541E061E084E0C4
:100A90000E9401051092B0031092B1036F7081E0C3
:100AA0006B3009F080E008950F93CF93DF93CDB7BB
:100AB000DEB729970FB6F894DEBF0FBECDBF4E83C9
:100AC0005F8368877987FE01319695E0DF011D928B
:100AD0009A95E9F72F5F09838770880F880F880F31
:100AE0008A83322FBE016A5F7F4F323050F0CF01D0
:100AF000830F911DDB014D91BD01DC014C93315001
:100B0000F4CF622FCF010E944B0429960FB6F894C0
:100B1000DEBF0FBECDBFDF91CF910F9108951E991B
:100B2000FECF0895CF92DF92EF92FF920F936B0169
:100B30007C0141E062E081E00E940105AB01BC0163
:100B40005F7166277727D701C6010DE0880F991FCF
:100B5000AA1FBB1F0A95D1F7AA27BB27482B592BE1
:100B60006A2B7B2B01E022E081E00E9454050F916B
:100B7000FF90EF90DF90CF900895CF92DF92EF92A9
:100B8000FF920F936B017C0141E062E082E00E94E2
:100B90000105AB01BC01487F87E0C822DD24EE24BB
:100BA000FF244C295D296E297F2901E022E082E0A3
:100BB0000E9454050F91FF90EF90DF90CF90089521
:100BC000CF92DF92EF92FF920F936B017C0141E095
:100BD00062E082E00E940105AB01BC01587F87E022
:100BE000C822DD24EE24FF24FE2CED2CDC2CCC24AA
:100BF0004C295D296E297F2901E022E082E00E94D4
:100C000054050F91FF90EF90DF90CF9008950F93D0
:100C1000CF93C82F41E062E082E00E940105AB0162
:100C2000BC014F7720E8C29FC00111249927AA2751
:100C300097FDA095BA2F482B592B6A2B7B2B01E0EF
:100C400022E082E00E945405CF910F9108950F9306
:100C5000CF93C82F70E080E090E00E94BD0541E096
:100C600062E081E00E9401054C2F50E0542F4427A0
:100C70005295550F507E60E070E001E022E081E087
:100C80000E945405CF910F910C948F050F932C98CF
:100C900000E022E040E050E260E070E081E00E948D
:100CA00054050E948F0540E063E083E00E94010547
:100CB0002C9A0F910895CF92DF92EF92FF920F93AB
:100CC000CF93DF93C82F01E022E040E050E0BA016B
:100CD00081E00E945405D0E0C12CD12C7601DC17B4
:100CE00059F041E063E083E00E940105C60ED71E83
:100CF000E81EF91EDF5FF3CF2D2F30E040E050E01B
:100D0000C701B6010E94DE18CA01B901DF91CF9177
:100D10000F91FF90EF90DF90CF9008950F931F9366
:100D2000613029F000E810E020E030E004C000E885
:100D300010E420E030E0482F477050E060E070E0C1
:100D400040615C60402B512B622B732B01E022E051
:100D500082E00E9454051F910F9108950F93CF9345
:100D6000C82F61E00E948E06369B13C00E948F053B
:100D70006C2F84E00E9427066C2F85E00E942706D6
:100D800001E022E049E050E060E070E081E00E9494
:100D90005405CF910F91089560E00E948E0681E086
:100DA0008093B0031092B10308951F920F920FB673
:100DB0000F9211242F933F934F935F936F937F93E1
:100DC0008F939F93AF93BF93EF93FF9380914505CC
:100DD0008F5F8093450580914505893068F080914B
:100DE00041059091420501969093420580934105FB
:100DF000109245050E94C6048091410590914205DC
:100E000062E370E00E94B618892B11F40E94990CDD
:100E1000809141059091420564E670E00E94B61809
:100E2000892B19F481E080934405809141059091CC
:100E300042056AEF70E00E94B618892B19F481E030
:100E400080934305809141059091420564EF71E0E4
:100E50000E94B618892B31F49091B50381E0891B6B
:100E60008093B503809141059091420568EE73E04F
:100E70000E94B618892B99F48091460590914705F8
:100E8000A0914805B09149050196A11DB11D80931F
:100E9000460590934705A0934805B0934905FF91F7
:100EA000EF91BF91AF919F918F917F916F915F91E2
:100EB0004F913F912F910F900FBE0F901F9018955B
:100EC0008091B50308958091B503882351F08091F6
:100ED000B4038111419A8091B303882321F0439A8E
:100EE00008954198439808958091B403089580919E
:100EF000B30308951092B40308951092B3030895B4
:100F00008093B4036093B3030895809144050895DA
:100F10001092430508951092440508958091430569
:100F2000089560914605709147058091480590911C
:100F3000490508954EE050E06CE070E087E095E0F0
:100F40000E94981C4CE050E060E070E08CE495E07A
:100F50000E94981C80914C0590914D05A0E0B0E056
:100F60008093FD049093FE04A093FF04B0930005CA
:100F70008093010590930205A0930305B0930405A7
:100F800008954EE050E06CE070E088E595E00E9446
:100F9000981C209107053091080580915805909183
:100FA00059052817390709F043C0209109053091E8
:100FB0000A0580915A0590915B0528173907C1F5FC
:100FC00020910B0530910C0580915C0590915D0599
:100FD0002817390769F520910D0530910E0580918C
:100FE0005E0590915F052817390711F520910F05CF
:100FF000309110058091600590916105281739079F
:10100000B9F49091110580916205981311C09091E7
:1010100012058091630598130BC020911305309140
:10102000140580916405909165052817390741F0F2
:101030004EE050E06CE070E087E095E00C94A81C76
:1010400008954CE050E060E070E085E395E00E9498
:10105000981C209135053091360580914C05909172
:101060004D0528173907A9F44091370550913805E7
:101070006091390570913A0580914E0590914F0528
:10108000A0915005B0915105481759076A077B0791
:1010900041F04CE050E060E070E08CE495E00C94AE
:1010A000A81C089584B18C6084B987B18F6087B91A
:1010B0008AB1806C8AB9529853985A9A5B9A3C9834
:1010C0003D983E983F98449A459A469A479AE0EB55
:1010D000F0E08081836A8083E1EBF0E080818660CC
:1010E0008083809111058093B300809112058093D5
:1010F000B40085B5826085BD16BCEEE6F0E0808167
:1011000081608083E0E8F0E08081826A8083E1E8AA
:10111000F0E080818B61808380910F0590911005B4
:1011200090938700809386008AB180638AB980910A
:10113000070590910805909389008093880080911D
:10114000090590910A0590938B0080938A00089579
:101150008093B30008958093B40008950E945402D0
:1011600060E083E00E9479026AE085ED91E00E94F0
:101170005A020E94D9040E94450581110BC00E94A9
:10118000540260E082E00E9479026AE080EE91E021
:101190000C945A0261E080E00E94790265E08BEED7
:1011A00091E00E945A0280E00E94AE0669E081EF61
:1011B00091E00E945A0281E00E94AE0662E08BEF4D
:1011C00091E00E945A021092B2038091B2030E94F1
:1011D000CC060C9454020E949A070E9452080E9466
:1011E000C4020E9454020E94AE0889E090E00E946E
:1011F000D20B80914C0590914D0581349C4930F083
:1012000080E49CE990934D0580934C05349BFECF80
:10121000359BFCCF369BFACF379BF8CF8FEF9FE6FD
:1012200028E0815090402040E1F700C00000789411
:101230000895CF93DF93DB016F3F710509F02CF424
:1012400077FF05C0A0E0B0E002C0AFEFB0E08111D1
:101250001DC0A0930505C0910705D09108052091F8
:101260000B0530910C052C1B3D0B0E949C182FEF99
:1012700030E040E050E00E94DE182C0F3D1F411D81
:10128000511D30938900209388001CC0A09306054F
:10129000C0910905D0910A0520910D0530910E05E8
:1012A0002C1B3D0B0E949C182FEF30E040E050E0DB
:1012B0000E94DE182C0F3D1F411D511D30938B00E5
:1012C00020938A00DF91CF91089560E070E080E084
:1012D0000E94190960E070E081E00E9419092FEF77
:1012E0008FE19CE1215080409040E1F700C0000078
:1012F0006FEF70E080E00E9419096FEF70E081E00D
:101300000E9419092FEF8FE398E32150804090400D
:10131000E1F700C0000060E070E080E00E94190981
:101320002FEF8FE398E3215080409040E1F700C019
:10133000000060E070E081E00E9419092FEF8FE368
:1013400098E3215080409040E1F700C000002A9AC5
:10135000429A2FEF8FE19CE1215080409040E1F7CD
:1013600000C000002B9A409A2FEF8FE19CE12150A2
:1013700080409040E1F700C00000419A439A2FEF6F
:101380008FE19CE1215080409040E1F700C00000D7
:101390002A982B98429840984198439808950F9323
:1013A0001F93809152059091530520914C053091E7
:1013B0004D05A90148515C4F4817590768F461E091
:1013C0006093B4031092B303A9014053584F4817D8
:1013D000590710F46093B303A901485E5340841782
:1013E000950760F441E04093B4031092B303205D8D
:1013F00037408217930710F44093B303809154054C
:1014000090915505A0915605B091570540914E0514
:1014100050914F0560915005709151058A019B01D3
:1014200008511C4F2F4F3F4F081719072A073B073A
:1014300090F4E1E0E093B4031092B3038A019B01BE
:101440000053184F2F4F3F4F081719072A073B0724
:1014500010F4E093B3038A019B01085E1340210955
:10146000310980179107A207B30780F421E0209388
:10147000B4031092B303405D5740610971098417AA
:101480009507A607B70710F42093B3031F910F9198
:1014900008954A9913C04091130550911405E4E64C
:1014A000E49F9001E59F300D11242817390730F093
:1014B00081E02617370718F080E0089581E008954D
:1014C0008091150590911605A0911705B09118050A
:1014D00080579741A109B109893D9945A105B105F9
:1014E00090F44091190550911A0560911B05709177
:1014F0001C05405757416109710981E0493D594533
:101500006105710508F080E00895CF93DF93FB013A
:10151000E9011A821B821C821D82198218829F8314
:101520008E83798768875B874A87BC016F5F7F4FAF
:101530008FEF9FE70E94CA187D876C879F012F5FFE
:101540003F4F442737FD4095542F6FEF7FEF8FEFCC
:101550009FE30E9400192E873F87488B598BDF91AC
:10156000CF9108958F929F92AF92BF92CF92DF92C8
:10157000EF92FF92CF93DF93EB01FA016C01E12C24
:10158000F12CC61AD70AE108F10824853585C9016E
:10159000AA2797FDA095BA2F8C159D05AE05BF050E
:1015A000B4F088279927821B930BAA2797FDA09553
:1015B000BA2FC816D906EA06FB0684F0A681B781C1
:1015C000A70196010E94AE184B015C010EC0882451
:1015D0008A949FE7992EA12CB12C07C0882483946C
:1015E00080E8982EAA24AA94BA2C228133814481BF
:1015F00055812C0D3D1D4E1D5F1D86859785A0894B
:10160000B18982179307A407B5074CF482839383AB
:10161000A483B5836FEF7FEF8FEF9FE31DC0B0957D
:10162000A095909581959F4FAF4FBF4F28173907D1
:101630004A075B074CF482839383A483B58361E0FC
:1016400070E080E090EC08C02283338344835583AC
:10165000A085B1850E94AE18408151814C1B5D0B65
:10166000A285B3854A9F90014B9F300D5A9F300D44
:101670001124D183C083680D791D8A1D9B1D620FC3
:10168000731F811D911D20E830E040E050E00E9472
:101690000019213080E838078FEF4807580724F4F5
:1016A00021E030E84FEF5FEFDA01C901811520E852
:1016B0009207A105B10524F08FEF9FE7A0E0B0E00D
:1016C000DF91CF91FF90EF90DF90CF90BF90AF90E0
:1016D0009F908F900895FC011282138214821582CC
:1016E00008951F920F920FB60F9211242F933F93DC
:1016F0004F935F938F939F93EF93FF934091C0001D
:101700005091C60048718091B80390E001968F77A0
:1017100099272091B70330E08217930739F080931F
:10172000B803FC01E554FC4F508301C042E04093F4
:10173000B603FF91EF919F918F915F914F913F91F0
:101740002F910F900FBE0F901F9018951F920F9220
:101750000FB60F9211248F939F93EF93FF93909165
:10176000BA038091B903981779F08091B90390E09A
:1017700001968F7799278093B903FC01E55CFB4FB5
:1017800080818093C60005C08091C1008F7D8093C9
:10179000C100FF91EF919F918F910F900FBE0F901D
:1017A0001F9018951092BA031092B9031092B803C3
:1017B0001092B70397FF04C022E02093C0009F77E8
:1017C0009093C5008093C40088E98093C10086E0AF
:1017D0008093C20008959091B8038091B703981741
:1017E000A1F08091B70390E001968F7799278093BD
:1017F000B703FC01E554FC4F20818091B60390E0D3
:10180000982F8827820F911D089580E091E0089518
:101810009091B8038091B703981789F0E091B703CE
:10182000F0E03196EF77FF27E554FC4F208180915F
:10183000B60390E0982F8827820F911D089580E0CD
:1018400091E008952091BA0330E02F5F3F4F2F774A
:1018500033274091B90350E024173507D1F3F9013C
:10186000E55CFB4F80832093BA038091C1008062C6
:101870008093C1000895CF93DF93EC018991882371
:1018800019F00E94220CFACFDF91CF910895CF93E7
:10189000DF93FC018491EF012196882321F00E94BF
:1018A000220CFE01F7CFDF91CF9108958091B8030C
:1018B0002091B70390E080589F4F821B91098F774A
:1018C000992708958091B7038093B8030895CF9323
:1018D000C82F0E9491076C0F711D811D911D60938F
:1018E000BC047093BD048093BE049093BF04CF9159
:1018F0000895CF92DF92EF92FF92C090BC04D090F7
:10190000BD04E090BE04F090BF040E9491076C15E6
:101910007D058E059F0538F4F090BC040E94910768
:101920008F2D861B01C080E0FF90EF90DF90CF905D
:101930000895349908C080914A058F3F31F08F5F38
:1019400080934A0502C010924A05359908C08091DB
:101950004B058F3F31F08F5F80934B0508951092B8
:101960004B05089586E48093FC042A982B984298AE
:10197000409860E080E00E94790260E18EEF91E0A3
:101980000E945A0261E080E00E94790260E18FE0EB
:1019900092E00C945A0287E48093FC042A982B98D6
:1019A0004298409860E080E00E94790260E180E225
:1019B00092E00E945A0261E080E00E94790260E1B8
:1019C0008FE092E00C945A0284E18093FC042A9800
:1019D0002B984298409860E070E080E00E941909DE
:1019E00060E070E081E00E94190960E080E00E9400
:1019F000790260E181E392E00E945A0261E080E0B6
:101A00000E94790260E182E492E00C945A0285E13E
:101A10008093FC042A982B984298409860E080E0DC
:101A20000E94790260E183E592E00E945A0261E03F
:101A300080E00E94790260E182E492E00C945A0214
:101A400082E38093FC042A982B984298409860E0A7
:101A500080E00E94790260E184E692E00E945A02EE
:101A600061E080E00E94790260E186E892E00C94F7
:101A70005A0283E38093FC042A982B98429840985A
:101A800060E080E00E94790260E184E792E00E94D9
:101A90005A0261E080E00E94790260E185E892E00C
:101AA0000C945A0284E38093FC042A982B98429861
:101AB000409860E080E00E94790260E186E992E06F
:101AC0000E945A0261E080E00E94790260E185E8AC
:101AD00092E00C945A028CE38093FC042A9A2B988F
:101AE000429A409860E080E00E94790260E187EAD3
:101AF00092E00E945A0261E080E00E94790260E177
:101B000085E892E00C945A028DE38093FC042A98B5
:101B10002B9A4298409A60E080E00E94790260E14E
:101B200088EB92E00E945A0261E080E00E94790214
:101B300060E185E892E00C945A020F931F93809124
:101B4000210590912205A0912305B0912405909341
:101B50005305809352050091FD041091FE042091DD
:101B6000FF043091000540910105509102056091FC
:101B7000030570910405041715072607370749F474
:101B80001092540510925505109256051092570563
:101B90002DC09C01AD0144275527A0E1B7E20E946A
:101BA000A31820911D0530911E0540911F055091ED
:101BB00020050E94DE18AAE0B0E00E94A318613A56
:101BC00026E8720721E082079105D0F600EA16E8C0
:101BD00021E030E0061B170B280B390B009354054E
:101BE0001093550520935605309357051F910F917B
:101BF00008950F931F9320914C0530914D05A0E15E
:101C0000B7E20E948D182091130530911405205DD4
:101C1000374040E050E00E94DE18AAE0B0E00E94A9
:101C2000A3188B019C01013A86E8180781E0280778
:101C3000310548F460EA76E881E090E0601B710BC2
:101C4000820B930B03C060E070E0CB011F910F91FA
:101C50000895CF92DF92EF92FF920F931F93CF934D
:101C6000DF93809113059091140520914C053091DC
:101C70004D0528573C4E8217930730F488589341FE
:101C800090934D0580934C05C0904E05D0904F0524
:101C9000E0905005F09051050E94F90D6C157D05FE
:101CA0008E059F0540F460934E0570934F05809319
:101CB0005005909351050091FD041091FE04209170
:101CC000FF0430910005409101055091020560919B
:101CD000030570910405C0914C05D0914D05041782
:101CE00015072607370761F4CE01A0E0B0E0809326
:101CF000FD049093FE04A093FF04B09300052EC052
:101D00009E01A4E6B0E00E948D186B017C016091F9
:101D10004E0570914F05809150059091510528EE28
:101D200033E040E050E00E94DE18DA01C90124E609
:101D300030E040E050E0281B390B4A0B5B0BC70139
:101D4000B6010E94DE182093FD043093FE044093F8
:101D5000FF0450930005CE01A0E0B0E080930105A0
:101D600090930205A0930305B0930405DF91CF91F2
:101D70001F910F91FF90EF90DF90CF9008952F92D9
:101D80003F924F925F926F927F928F929F92AF920B
:101D9000BF92CF92DF92EF92FF920F931F93CF9358
:101DA000DF93CDB7DEB766970FB6F894DEBF0FBEF0
:101DB000CDBF6091210570912205809123059091FE
:101DC000240540901D0550901E0560901F057090E1
:101DD000200528EEC22E23E0D22EE12CF12CA70103
:101DE00096010E94DE18122F032F342E252E34E682
:101DF000832E912CA12CB12CA50194010E94DE18F8
:101E00005F934F933F932F932F923F920F931F9384
:101E1000C301B201A70196010E94DE18122F032F01
:101E2000742E652EA50194010E94DE185F934F93D6
:101E30003F932F936F927F920F931F9389EC92E0C1
:101E40009F938F938E010F5F1F4F1F930F930E94DD
:101E5000A41A0E949D0D80914C0590914D0528EE8D
:101E600033E0B9010E94B618762E672E80904E0599
:101E700090904F05A0905005B0905105809152056B
:101E800090915305B9010E94B6186D8B7E8B6091BD
:101E900054057091550580915605909157050FB6E0
:101EA000F894DEBF0FBECDBF81149104A104B1042C
:101EB000A1F12090FD043090FE044090FF0450906A
:101EC00000052091010530910205409103055091D4
:101ED00004052216330644065506F9F0409A2B9A5B
:101EE000A70196010E94DE181F922F933E893F930F
:101EF0008D898F93C501B401A70196010E94DE1858
:101F00001F922F936F927F9287EE92E09F938F9311
:101F10001F930F930E94A41A0EC03E893F938D8990
:101F20008F936F927F928CEF92E09F938F931F938A
:101F30000F930E94A41A0FB6F894DEBF0FBECDBF58
:101F400060E080E00E94790260E1C8010E945A02CC
:101F500066960FB6F894DEBF0FBECDBFDF91CF916E
:101F60001F910F91FF90EF90DF90CF90BF90AF90B7
:101F70009F908F907F906F905F904F903F902F90A9
:101F800008958BE08093FC04429A2A9A0E94C1072C
:101F90000E9421080C94BF0E2F923F924F925F92A5
:101FA0006F927F928F929F92AF92BF92CF92DF9269
:101FB000EF92FF920F931F93CF93DF93CDB7DEB7CE
:101FC00069970FB6F894DEBF0FBECDBF80914C0568
:101FD00090914D0568EE73E00E94B618362E072FDB
:101FE00060911D0570911E0580911F05909120053F
:101FF00048EEC42E43E0D42EE12CF12CA70196012B
:102000000E94DE18122F6091FD047091FE048091F1
:10201000FF0490910005A70196010E94DE188090B0
:102020004E0590904F05A0905005B09051054090FE
:102030002105509022056090230570902405809121
:10204000010590910205A0910305B09104058D8BC7
:102050009E8BAF8BB88F60E080E0298F0E94790261
:10206000809105051F928F931F92298D2F931F92A8
:102070001F930F933F925FE0252E53E0352E3F9242
:102080002F928E010F5F1F4F1F930F930E94A41A70
:1020900060E1C8010E945A0261E080E00E9479027A
:1020A0000FB6F894DEBF0FBECDBF4091FD04509136
:1020B000FE046091FF0470910005809101059091EC
:1020C0000205A0910305B0910405481759076A0756
:1020D0007B0771F1809106051F928F936D897E8930
:1020E0008F89988DA70196010E94DE181F922F9369
:1020F000C301B201A70196010E94DE181F922F931F
:10210000C501B401A70196010E94DE181F922F930A
:102110003F922F921F930F930E94A41A60E1C8016F
:102120000E945A020FB6F894DEBF0FBECDBF05C0A5
:1021300060E18FE092E00E945A0269960FB6F8942F
:10214000DEBF0FBECDBFDF91CF911F910F91FF90EA
:10215000EF90DF90CF90BF90AF909F908F907F9047
:102160006F905F904F903F902F900895419A60E05C
:1021700080E00E94790260E187E293E00E945A02C7
:1021800060E188E393E00C945A028091FC049CEE99
:10219000980F923050F44A9913C04B9911C00E9485
:1021A000C10F8EE10E94670C08C08B3049F44A9938
:1021B00002C04B9B05C00E94E40C81E08093C204E6
:1021C0008091C2048111A6C0349B06C0359B04C017
:1021D000369B02C037999EC08091FC048A3009F07A
:1021E00043C04A9941C034990AC00E94600A8823BA
:1021F000D9F00E94E40C81E08093C2040DC0359BAD
:10220000F4CF369BF2CF379BF0CF0E94790C882316
:1022100061F32AC0359903C0349BFECFFBCF369BB8
:10222000FBCF379BF9CF76C00E94B6102FEF8FE718
:1022300090E7215080409040E1F700C00000439AB1
:102240002FEF8FEB98EA215080409040E1F700C0DB
:102250000000349BFECF359BFCCF369BFACF379BDB
:10226000F8CF4198439856C08091FC04843129F4FA
:10227000369950C00E94070D12C0853129F4379954
:1022800049C00E94E40C0BC0823369F4369903C044
:102290000E94390D04C037993DC00E94CB0C81E0EB
:1022A0008093C20437C0833351F4369903C00E942F
:1022B000520DF5CF37992EC00E94200DF0CF8433F8
:1022C00041F4369903C00E946B0DE9CF379BE0CFF4
:1022D00021C08C3341F4369903C00E94840DDFCFB6
:1022E000379BE5CF17C08D3341F4369903C00E9468
:1022F000B20CD5CF379BE7CF0DC0863429F4369B7F
:10230000CCCF379BEACF06C0873421F4369BD4CF9D
:10231000379BEDCF349B09C0359B07C0369B05C06A
:10232000379B03C01092C20408958091C20481308B
:1023300089F48091FC04823368F037990BC0369998
:1023400009C00E94E40C0E94290E0E94C10782E08D
:102350008093C2048091C204813071F48091FC04A6
:102360008451823048F4379907C0369905C00E94DD
:10237000200D82E08093C2048091C204882349F03A
:102380002FEF8FEC92E0215080409040E1F700C0A9
:102390000000089560E08FE00E94790261E08EE124
:1023A00092E00E945A0261E080E00E94790260E1BE
:1023B00089E493E00E945A020E94650961E080E08E
:1023C0000E94790260E18AE593E00E945A022FEFB1
:1023D0008FE398E3215080409040E1F700C0000077
:1023E0000C94B20C80914B05882381F08F3F11F43F
:1023F0009AE001C091E080911105981720F4891BA3
:102400008093110503C081111092110580914A0536
:102410008823C9F08F3F11F45AE001C051E0409188
:102420001105242F30E08FEF90E0851B91092817CC
:10243000390724F4450F4093110505C04F3F19F0AB
:102440008FEF80931105809111051F928F938BE67A
:1024500093E09F938F9384EC94E09F938F930E94DB
:10246000A41A61E080E00E94790264E084EC94E0C8
:102470000E945A0261E084E00E9479024AE06FEF14
:10248000809111050E94800361E08EE00E94790234
:1024900062E083E992E00E945A020F900F900F9041
:1024A0000F900F900F90809111050C94A8088091C7
:1024B0004B05882381F08F3F11F49AE001C091E031
:1024C00080911205981720F4891B8093120503C090
:1024D00081111092120580914A058823C9F08F3F1F
:1024E00011F45AE001C051E040911205242F30E070
:1024F0008FEF90E0851B91092817390724F4450FC9
:102500004093120505C04F3F19F08FEF80931205DD
:10251000809112051F928F938BE693E09F938F9388
:1025200084EC94E09F938F930E94A41A61E080E072
:102530000E94790264E084EC94E00E945A0261E017
:1025400084E00E9479024AE06FEF809112050E94B8
:10255000800361E08EE00E94790262E083E992E00C
:102560000E945A020F900F900F900F900F900F90B3
:10257000809112050C94AB0880914B058823F1F0F3
:102580008F3F19F480ED97E002C088EE93E0209130
:10259000130530911405AC01485F5D4A421753079B
:1025A00038F4281B390B309314052093130506C00B
:1025B00088E092E5909314058093130580914A0575
:1025C000882341F18F3F19F420ED37E002C028EE57
:1025D00033E0E0911305F0911405AF0160E070E085
:1025E00088EE9DEFA0E0B0E0821B930BA109B1093A
:1025F000481759076A077B073CF42E0F3F1F30939B
:1026000014052093130506C088EE9DEF90931405E2
:1026100080931305809113059091140568EE73E083
:102620000E94B6187F936F9381E793E09F938F93F7
:1026300084EC94E09F938F930E94A41A61E087E05A
:102640000E9479020F900F900F900F900F900F90B3
:1026500063E084EC94E00C945A0280914B0588234B
:1026600079F08F3F11F48AE001C081E09091C104BC
:10267000891720F4981B9093C10402C01092C104E2
:1026800080914A058823B9F08F3F11F44AE001C0D8
:1026900041E05091C104252F30E08FEF90E0841B82
:1026A00091092817390724F4450F4093C10403C04A
:1026B0008FEF8093C1048091C1041F928F9388E7AC
:1026C00093E09F938F9384EC94E09F938F930E9469
:1026D000A41A61E080E00E94790264E084EC94E056
:1026E0000E945A0261E084E00E9479024AE06FEFA2
:1026F0008091C1040E94800361E08EE00E94790213
:1027000062E083E992E00E945A020F900F900F90CE
:102710000F900F900F906091C10470E080E00C94D6
:10272000190980914B05882379F08F3F11F48AE0D5
:1027300001C081E09091C004891720F4981B909308
:10274000C00402C01092C00480914A058823B9F0E9
:102750008F3F11F44AE001C041E05091C004252FA1
:1027600030E08FEF90E0841B91092817390724F49B
:10277000450F4093C00403C08FEF8093C004809145
:10278000C0041F928F9388E793E09F938F9384EC0C
:1027900094E09F938F930E94A41A61E080E00E94CE
:1027A000790264E084EC94E00E945A0261E084E0E3
:1027B0000E9479024AE06FEF8091C0040E9480037A
:1027C00061E08EE00E94790262E083E992E00E947B
:1027D0005A020F900F900F900F900F900F906091F2
:1027E000C00470E081E00C941909CF92DF92EF925F
:1027F000FF920F931F93CF93DF9380914B05882314
:10280000F1F08F3F19F480ED97E002C088EE93E07D
:1028100020914C0530914D05AC014053584F421763
:10282000530738F4281B390B30934D0520934C0582
:1028300006C080ED97E090934D0580934C05809104
:102840004A05882311F18F3F19F480ED97E002C00B
:1028500088EE93E040914C0550914D052091130571
:102860003091140528583341B901681B790B46177C
:10287000570738F4840F951F90934D0580934C05AE
:1028800004C030934D0520934C0580914C059091E8
:102890004D0568EE73E00E94B6187F936F9381E751
:1028A00093E09F938F9384EC94E09F938F930E9487
:1028B000A41A61E087E00E94790263E084EC94E06E
:1028C0000E945A02C0904E05D0904F05E0905005EE
:1028D000F09051050E94F90D0F900F900F900F90FE
:1028E0000F900F906C157D058E059F0540F4609349
:1028F0004E0570934F0580935005909351050091BC
:10290000FD041091FE042091FF04309100054091D8
:102910000105509102056091030570910405C09175
:102920004C05D0914D05041715072607370761F4AC
:10293000CE01A0E0B0E08093FD049093FE04A0934C
:10294000FF04B09300052EC09E01A4E6B0E00E94F3
:102950008D186B017C0160914E0570914F0580913F
:1029600050059091510528EE33E040E050E00E9480
:10297000DE18DA01C90124E630E040E050E0281B0F
:10298000390B4A0B5B0BC701B6010E94DE1820937E
:10299000FD043093FE044093FF0450930005CE01E4
:1029A000A0E0B0E08093010590930205A093030599
:1029B000B0930405DF91CF911F910F91FF90EF909D
:1029C000DF90CF90089580914B058823D9F08F3FF9
:1029D00019F420ED37E002C028EE33E080914C0579
:1029E00090914D05A901485F5D4A4817590718F4B1
:1029F000821B930B02C088E092E590934D05809373
:102A00004C0502C020E030E080914A05882311F196
:102A10008F3F19F420ED37E002C028EE33E04091FB
:102A20004C0550914D0580911305909114058858DF
:102A30009341BC01621B730B4617570738F4420FD2
:102A4000531F50934D0540934C0504C090934D0582
:102A500080934C0580914C0590914D05A0E0B0E02D
:102A60008093FD049093FE04A093FF04B0930005AF
:102A70008093010590930205A0930305B09304058C
:102A8000232B29F00E94C10F8AE00C94670C089553
:102A90008F929F92AF92BF92CF92DF92EF92FF926E
:102AA0000F931F93CF93DF9380914B05882359F1A8
:102AB0008F3F19F480ED97E002C088EE93E04091DB
:102AC0004E0550914F056091500570915105A0E061
:102AD000B0E084179507A607B70768F4481B590BA1
:102AE0006A0B7B0B40934E0550934F056093500546
:102AF0007093510508C010924E0510924F05109228
:102B000050051092510580914A05882399F18F3F15
:102B100019F400ED17E002C008EE13E0C0904E0576
:102B2000D0904F05E0905005F09051050E94F90DAE
:102B300020E030E04B015C01801A910AA20AB30A3E
:102B4000C814D904EA04FB0468F4C00ED11EE21EC6
:102B5000F31EC0924E05D0924F05E0925005F092C0
:102B6000510508C060934E0570934F058093500542
:102B70009093510560914E0570914F0580915005DD
:102B800090915105E8EECE2EE3E0DE2EE12CF12C03
:102B9000A70196010E94DE181F922F9381E793E010
:102BA0009F938F9384EC94E09F938F930E94A41A39
:102BB00061E087E00E94790263E084EC94E00E9487
:102BC0005A02C0914C05D0914D059E01A4E6B0E09B
:102BD0000E948D184B015C0160914E0570914F056C
:102BE0008091500590915105A70196010E94DE1831
:102BF000DA01C90124E630E040E050E0281B390B3F
:102C00004A0B5B0BC501B4010E94DE182093FD0442
:102C10003093FE044093FF0450930005CE01A0E0E2
:102C2000B0E08093010590930205A0930305B09353
:102C300004050F900F900F900F900F900F90DF9161
:102C4000CF911F910F91FF90EF90DF90CF90BF90A9
:102C5000AF909F908F9008954F925F926F927F9266
:102C60008F929F92AF92BF92CF92DF92EF92FF929C
:102C70000F931F93CF93DF936091210570912205ED
:102C800080911D0590911E050E94490A882381F1BB
:102C900081E08093FC04419A439A2A982B984298A9
:102CA000409860E080E00E94790260E18DE793E067
:102CB0000E945A0261E080E00E94790260E14A9934
:102CC00003C08EE893E002C08FE993E0DF91CF91DB
:102CD0001F910F91FF90EF90DF90CF90BF90AF903A
:102CE0009F908F907F906F905F904F900C945A02BE
:102CF0008091C304811161C00E94BF0E60912105C3
:102D000070912205809123059091240540901D0526
:102D100050901E0560901F0570902005F8EE8F2ED4
:102D2000F3E09F2EA12CB12CA50194010E94DE1886
:102D3000E901142F052FA4E6CA2ED12CE12CF12C89
:102D4000A70196010E94DE185F934F933F932F9344
:102D50000F931F93DF93CF93C301B201A501940199
:102D60000E94DE18E901142F052FA70196010E9489
:102D7000DE185F934F933F932F930F931F93DF932F
:102D8000CF9389EC92E09F938F9384EC94E09F9390
:102D90008F930E94A41A61E080E00E94790260E1B2
:102DA00084EC94E00E945A028DB79EB744960FB609
:102DB000F8949EBF0FBE8DBF02C00E94CC0F0E9430
:102DC000790C811112C0DF91CF911F910F91FF906B
:102DD000EF90DF90CF90BF90AF909F908F907F90BB
:102DE0006F905F904F900C94CF09DF91CF911F911E
:102DF0000F91FF90EF90DF90CF90BF90AF909F909A
:102E00008F907F906F905F904F900895CF92DF9258
:102E1000EF92FF920F93CF93DF938091FC048A305F
:102E200009F05AC0B0E2CB2EBBE1DB2EBCE7EB2EA3
:102E3000BCE0FB2E20911505309116054091170539
:102E400050911805C701B6010E94DE18DA01C901C8
:102E50002093250590932605A0932705B093280578
:102E60001092290510922A0510922B0510922C051C
:102E70002091190530911A0540911B0550911C05B0
:102E8000C701B6010E94DE18DA01C90120932D05A1
:102E900090932E05A0932F05B09330051092310525
:102EA0001092320510923305109234050E94790C6D
:102EB000082F2091190530911A0540911B0550915A
:102EC0001C0560911505709116058091170590916C
:102ED00018050E94C5036BC0863429F4349967C075
:102EE0000E94CA1164C0873489F4349960C08AE0B2
:102EF0008093FC04349BFECF359BFCCF369BFACFEE
:102F0000379BF8CF8FE00E94670C51C0823319F4D1
:102F10000E94F2114CC0833319F40E94571247C02B
:102F2000843319F40E94BC1242C08C3319F40E94FD
:102F30002D133DC08D3319F40E94911338C0843194
:102F400019F40E94F51333C08B3069F5349B02C02D
:102F5000359918C04091FD045091FE046091FF0422
:102F6000709100058091010590910205A0910305E3
:102F7000B0910405481759076A077B0719F40E94A6
:102F8000E31415C0369906C0379904C081E08093D8
:102F9000C3040DC037990BC0369B09C01092C304FF
:102FA0000E94C10F04C0853111F40E944815809120
:102FB000FC048B3049F4DF91CF910F91FF90EF909B
:102FC000DF90CF900C942C16DF91CF910F91FF9052
:102FD000EF90DF90CF9008958091FC040895809346
:102FE000FC040895CF93DF93CDB7DEB76A970FB691
:102FF000F894DEBF0FBECDBF0E94EB088AE00E94AE
:10300000EF178FE00E94670C8FE591E00E943B0C68
:103010002AEE34E040E050E060E070E080E890E0CC
:103020000E94850A28ED34E040E050E060E070E066
:1030300080E890E00E94850A18EE812E13E0912E20
:1030400008EEC02E03E0D02EE12CF12C87E7A82E4D
:1030500081E0B82E8E010F5F1F4F0E940702809102
:10306000B10381110E947D000E94C5100E94850756
:10307000882321F00E9406170E948B070E948E076A
:10308000882309F442C080914C0590914D05B4010C
:103090000E94B618762E672E60911D0570911E0550
:1030A00080911F0590912005A70196010E94DE18CE
:1030B000522E6091FD047091FE048091FF04909166
:1030C0000005A70196010E94DE1860E080E02A8FCB
:1030D0000E947902809105051F928F931F922A8D7D
:1030E0002F931F925F926F927F92BF92AF921F9326
:1030F0000F930E94A41AC8010E943B0C0E948807EB
:103100000FB6F894DEBF0FBECDBF0E94EC178B3018
:1031100009F0A3CF0E946307A0CFA29FB001B39F85
:10312000C001A39F700D811D1124911DB29F700DD0
:10313000811D1124911D08950E948D18B7FF0895D7
:10314000821B930B08950E948D18A59F900DB49F2C
:10315000900DA49F800D911D11240895B7FF0C942C
:10316000A3180E94A318821B930B0895AA1BBB1BD4
:1031700051E107C0AA1FBB1FA617B70710F0A61B77
:10318000B70B881F991F5A95A9F780959095BC0198
:10319000CD01089597FB072E16F4009407D077FD14
:1031A00009D00E94B61807FC05D03EF49095819591
:1031B0009F4F0895709561957F4F0895A1E21A2E53
:1031C000AA1BBB1BFD010DC0AA1FBB1FEE1FFF1FCB
:1031D000A217B307E407F50720F0A21BB30BE40B1B
:1031E000F50B661F771F881F991F1A9469F7609562
:1031F0007095809590959B01AC01BD01CF0108951C
:10320000052E97FB1EF400940E94001A57FD07D06C
:103210000E94DE1807FC03D04EF40C94001A50955F
:103220004095309521953F4F4F4F5F4F08956894DB
:1032300001C0E894F92FF12B12F00C944B19A0E087
:10324000B0E0E5E2F9E10C941E1A092E059422F48F
:103250000E94081A112392F4F0E80F26FFEFE09481
:10326000F09400951095B094C094D094A194BF0AA6
:10327000CF0ADF0AEF0AFF0A0F0B1F0B0E94AF19DC
:1032800007FC0E94081ACDB7DEB7ECE00C943A1A9E
:10329000689401C0E8948F929F92CF93DF930E942D
:1032A000AF19DF91CF919F908F900895DF93CF93C7
:1032B0001F930F939A9DF02D219FF00D8B9DF00D84
:1032C0008A9DE02DF10D039FF00D029FE00DF11D91
:1032D0004E9DE00DF11D5E9DF00D4F9DF00D7F9315
:1032E0006F93BF92AF925F934F93D5010E948D1859
:1032F0008B01AC01D7010E948D18EB01E80FF91F7B
:10330000D6010E94A6192F913F91D6010E948D18D7
:10331000C60FD71FE81FF91FAF91BF910E94A619D2
:103320002F913F910E948D18C60FD71FE81FF91FDC
:10333000D6010E948D18E60FF71F9801BE01CF013C
:1033400011240F911F91CF91DF9108950E948D1844
:10335000460F571FC81FD91F08F4319608958824B7
:103360009924F401E401B0E49F93AA279A158B04F1
:103370009C04ED05FE05CF05D007A10798F4AD2FFD
:10338000DC2FCF2FFE2FE92D982C892E982F872FF9
:10339000762F652F542F432F322F2227B85031F725
:1033A000BF9127C01B2EBF91BB27220F331F441F85
:1033B000551F661F771F881F991F881C991CEE1FB9
:1033C000FF1FCC1FDD1FAA1FBB1F8A149B04EC0527
:1033D000FD05CE05DF05A007B10748F08A189B0858
:1033E000EC09FD09CE09DF09A00BB10B21601A948D
:1033F000E1F62EF49401AF01BE01CD01000C089559
:1034000090958095709561957F4F8F4F9F4F089550
:103410006095709580959095309540955095219543
:103420003F4F4F4F5F4F6F4F7F4F8F4F9F4F0895CD
:103430002F923F924F925F926F927F928F929F92C4
:10344000AF92BF92CF92DF92EF92FF920F931F93B2
:10345000CF93DF93CDB7DEB7CA1BDB0B0FB6F89463
:10346000DEBF0FBECDBF09942A88398848885F84A3
:103470006E847D848C849B84AA84B984C884DF8014
:10348000EE80FD800C811B81AA81B981CE0FD11DF8
:103490000FB6F894DEBF0FBECDBFED0108950F93B8
:1034A000083090F0982F872F762F652F542F432FB9
:1034B000322F22270850F4CF220F331F441F551FED
:1034C000661F771F881F991F0A95B2F70F910895FD
:1034D00097FB10F8169400080F93083098F00850E6
:1034E000232F342F452F562F672F782F892F902D7C
:1034F000F4CF059497958795779567955795479558
:10350000379527950A95AAF70F9108952A0D3B1D27
:103510004C1D5D1D6E1D7F1D801F911F08952A1972
:103520003B094C095D096E097F09800B910B0895D9
:103530000024A7FD00942A173005400550056005BA
:103540007005800590050895AEE0B0E0EAEAFAE182
:103550000C94261A0D891E8986E08C831A830983B0
:103560008FEF9FE79E838D83AE01475E5F4F6F892C
:10357000788DCE0101960E94C61AEF81F885E00F82
:10358000F11F10822E96E4E00C94421AACE0B0E0F9
:10359000ECECFAE10C94181A7C016B018A01FC0135
:1035A00017821682838181FFBDC1CE0101964C0135
:1035B000F7019381F60193FD859193FF81916F014E
:1035C000882309F4ABC1853239F493FD859193FFCB
:1035D00081916F01853229F4B70190E00E94D61CD9
:1035E000E7CF512C312C20E02032A0F48B3269F04F
:1035F00030F4803259F0833269F420612CC08D326E
:1036000039F0803339F4216026C02260246023C061
:10361000286021C027FD27C030ED380F3A3078F4FC
:1036200026FF06C0FAE05F9E300D1124532E13C012
:103630008AE0389E300D1124332E20620CC08E3269
:1036400021F426FD6BC1206406C08C3611F420687D
:1036500002C0883641F4F60193FD859193FF819174
:103660006F018111C1CF982F9F7D9554933028F41D
:103670000C5F1F4FFFE3F9830DC0833631F08337B2
:1036800071F0833509F05BC022C0F8018081898325
:103690000E5F1F4F44244394512C540115C0380130
:1036A000F2E06F0E711CF801A080B18026FF03C00C
:1036B000652D70E002C06FEF7FEFC5012C870E947F
:1036C000CB1C2C0183012C852F77222E17C03801AB
:1036D000F2E06F0E711CF801A080B18026FF03C0DC
:1036E000652D70E002C06FEF7FEFC5012C870E944F
:1036F000C01C2C012C852068222E830123FC1BC0BA
:10370000832D90E048165906B0F4B70180E290E0AE
:103710000E94D61C3A94F4CFF50127FC859127FE30
:1037200081915F01B70190E00E94D61C31103A945C
:10373000F1E04F1A51084114510471F7E5C0843685
:1037400011F0893639F5F80127FF07C060817181D2
:10375000828193810C5F1F4F08C06081718188272F
:1037600077FD8095982F0E5F1F4F2F76B22E97FF13
:1037700009C090958095709561957F4F8F4F9F4FB1
:103780002068B22E2AE030E0A4010E94081DA82E75
:10379000A81844C0853729F42F7EB22E2AE030E0E5
:1037A00025C0F22FF97FBF2E8F36C1F018F488356F
:1037B00079F0B4C0803719F0883721F0AFC02F2FCF
:1037C0002061B22EB4FE0DC08B2D8460B82E09C0CE
:1037D00024FF0AC09F2F9660B92E06C028E030E073
:1037E00005C020E130E002C020E132E0F801B7FE80
:1037F00007C060817181828193810C5F1F4F06C079
:103800006081718180E090E00E5F1F4FA4010E94F3
:10381000081DA82EA818FB2DFF77BF2EB6FE0BC0E3
:103820002B2D2E7FA51450F4B4FE0AC0B2FC08C0A4
:103830002B2D2E7E05C07A2C2B2D03C07A2C01C097
:10384000752C24FF0DC0FE01EA0DF11D808180332F
:1038500011F4297E09C022FF06C07394739404C03A
:10386000822F867809F0739423FD13C020FF06C0D1
:103870005A2C731418F4530C5718732C731468F4DF
:10388000B70180E290E02C870E94D61C73942C85AF
:10389000F5CF731410F4371801C0312C24FF12C077
:1038A000B70180E390E02C870E94D61C2C8522FF74
:1038B00017C021FF03C088E590E002C088E790E0D0
:1038C000B7010CC0822F867859F021FD02C080E23A
:1038D00001C08BE227FD8DE2B70190E00E94D61C6B
:1038E000A51438F4B70180E390E00E94D61C5A94E6
:1038F000F7CFAA94F401EA0DF11D8081B70190E0A1
:103900000E94D61CA110F5CF332009F451CEB70187
:1039100080E290E00E94D61C3A94F6CFF7018681AF
:10392000978102C08FEF9FEF2C96E2E10C94341A3E
:10393000DC01CB01FC01F999FECF06C0F2BDE1BD6F
:10394000F89A319600B40D9241505040B8F708955E
:10395000DC01CB0103C02D910E94B31C41505040AB
:10396000D0F70895262FF999FECF1FBA92BD81BDD9
:1039700020BD0FB6F894FA9AF99A0FBE01960895F1
:10398000FC010590615070400110D8F7809590952A
:103990008E0F9F1F0895FC0161507040019001102F
:1039A000D8F7809590958E0F9F1F08950F931F93C2
:1039B000CF93DF93182F092FEB018B8181FD03C07B
:1039C0008FEF9FEF20C082FF10C04E815F812C815E
:1039D0003D81421753077CF4E881F9819F012F5FF5
:1039E0003F4F39832883108306C0E885F985812FEE
:1039F0000995892B29F72E813F812F5F3F4F3F8308
:103A00002E83812F902FDF91CF911F910F910895D9
:103A1000FA01AA27283051F1203181F1E8946F93FF
:103A20006E7F6E5F7F4F8F4F9F4FAF4FB1E03ED0A5
:103A3000B4E03CD0670F781F891F9A1FA11D680F43
:103A4000791F8A1F911DA11D6A0F711D811D911D76
:103A5000A11D20D009F468943F912AE0269F1124EB
:103A60003019305D3193DEF6CF010895462F47704F
:103A7000405D4193B3E00FD0C9F7F6CF462F4F70AA
:103A8000405D4A3318F0495D31FD4052419302D008
:103A9000A9F7EACFB4E0A6959795879577956795AE
:103AA000BA95C9F700976105710508959B01AC01AE
:103AB0000A2E06945795479537952795BA95C9F7D5
:103AC000620F731F841F951FA01D0895F894FFCFE8
:103AD00001FFFFFFFF55415254204672616D652082
:103AE0004572726F723A200055415254204F7665EC
:103AF0007272756E204572726F723A20004275665E
:103B0000666572206F766572666C6F77206572727B
:103B10006F723A2000544F444F3A2050757420730E
:103B20006F6D6520646562756720696E666F00570A
:103B3000656C636F6D6520746F20626C656E646583
:103B400072203A290D0A0053313A20253032752C63
:103B500020253032752C20253032752C202530332D
:103B6000750D0A0053313A2025366C6975562020B0
:103B7000203E0053323A2025366C69755620253296
:103B8000647300506C656173652C207475726E20CF
:103B90006F6E2000796F757220636F6D7072657340
:103BA000736F722100496E6974696E672E2E2E0044
:103BB000414443204572726F72210053312E2E2EE4
:103BC000004F4B202053322E2E2E004F4B00202032
:103BD000202052756E20546573742020203E0020F2
:103BE00020202020202020202020202020202000F5
:103BF00020202043616C6962726174652020203E40
:103C0000004F322020204F787967656E20202020D9
:103C10002B0048652020202020202020202020204C
:103C2000202D004F3220202048656C69756D2020C2
:103C300020202B0020204272696768746E657373C0
:103C400020202B0020202020436F6E74726173743B
:103C50002020202B00202020202020202020202079
:103C6000202020202D002020456D657267656E6341
:103C700079204F32202B002020536574204F3220B2
:103C800076616C7665202B00202053657420486592
:103C90002076616C7665202B0053313A25326C69B1
:103CA0002E2530316C692053323A25326C692E252D
:103CB00030316C69202000546D58202532752F2535
:103CC000327520202532752F2532750045414E78FA
:103CD00025327520205265616C3A253275200074BA
:103CE0002530327563253032752073742530327576
:103CF0002076253033750043616E27742063616C34
:103D0000696272617465210053656E736F7273200E
:103D10006661696C757265210020202043686563C7
:103D20006B696E672E2E2E20200020202020202060
:103D3000444F4E452120202020200025303375207F
:103D400000253032752525002533752000202020E0
:103D5000456D657267656E63792120202000202003
:103D60004F3220746F6F20686967682120200043FC
:103D70006F6D70726573736F723A20204F46460004
:00000001FF
