:100000000C945E000C947B000C947B000C947B00A1
:100010000C947B000C947B000C947B000C947B0074
:100020000C947B000C947B000C947B000C947B0064
:100030000C947B000C947B000C947B000C947B0054
:100040000C947B000C947B000C94DA060C947B00DF
:100050000C94760B0C94AB0B0C947B000C947B00F3
:100060000C947B000C947B000C947B000C947B0024
:100070000C947B000C947B000C947B00001F000010
:1000800000001F00001F101010101F00001F181884
:1000900018181F00001F1C1C1C1C1F00001F1E1E08
:1000A0001E1E1F00001F1F1F1F1F1F0003070F1F03
:1000B0000F070300181C1E1F1E1C180011241FBE52
:1000C000CFEFD0E1DEBFCDBF13E0A0E0B1E0E6EFBF
:1000D000FAE302C005900D92A43CB107D9F725E0E0
:1000E000A4ECB3E001C01D92A637B207E1F70E946D
:1000F00005180C94791D0C9400004F925F926F923A
:100100007F928F929F92AF92BF92CF92DF92EF92A7
:10011000FF920F931F93CF93DF9381E00E946006BD
:10012000DC01CB019C01AD0160E070E080E090E07B
:1001300040585109610971098109910959016A0100
:100140007B01E82F192F02E00E94621A0E2F0E94F5
:10015000991A59016A017B01E82F192F04E00E94C6
:10016000621A0E2F0E94A21A59016A017B01E82F20
:10017000192F04E00E94621A0E2F0E94A21A490150
:10018000D42FC52FB62FA72FF82FE92F06E00E94F6
:10019000621A59016A017B018C0194014D2F5C2F79
:1001A0006B2F7A2F8F2F9E2F0E94991AD22EE32E1B
:1001B000F42ED52FC62FB72FF82FE92FA0E00E94DD
:1001C000AB1A84F42150310940485F4F6F4F7F4F85
:1001D0008F4F9F4FD22EE32EF42ED52FC62FB72F41
:1001E000F82FE92F2D2D3E2D4F2D5D2F6C2F7B2FBE
:1001F0008F2F9E2F07E10E947B1AC22FB32FF42F5F
:10020000E52F762E872E982ED92FA0E00E94AB1ACC
:1002100054F40E941B1AC22FB32FF42FE52F762E11
:10022000872E982ED92F8091C603811167C0C09365
:100230002705B0932805F0932905E0932A05A0909F
:100240003705B0903805C0903905D0903A05E09058
:100250003B05F0903C0500913D0510913E052C2F8B
:100260003B2F4F2F5E2F672D782D892D9D2F0E94BC
:100270003219B0E1AB2EC7E2BC2EC12CD12CE12C3F
:10028000F12C00E010E00E948D1920932F0530938F
:100290003005409331055093320581E08093C603C9
:1002A0000E94FF178B3009F09EC060912F0570915E
:1002B00030058091310590913205AAE0CA2ED12CEB
:1002C000E12CF12CA70196010E94C81849015A019E
:1002D00060910F05709110058091110590911205A4
:1002E000A70196010E94C818DA01C9014CEF54E039
:1002F000B4010E94B70ABC0180E073C0C0932B0513
:10030000B0932C05F0932D05E0932E05A0903F05AA
:10031000B0904005C0904105D0904205E090430563
:10032000F090440500914505109146052C2F3B2F78
:100330004F2F5E2F672D782D892D9D2F0E9432190A
:10034000E0E1AE2EF7E2BF2EC12CD12CE12CF12C36
:1003500000E010E00E948D1920933305309334059E
:1003600040933505509336051092C6030E94FF173F
:100370008B30C9F58090130590901405A090150559
:10038000B090160580910F0590911005A091110570
:10039000B091120588159905AA05BB0521F1609158
:1003A00033057091340580913505909136052AE02A
:1003B000C22ED12CE12CF12CA70196010E94C81865
:1003C00029013A01C501B401A70196010E94C8188C
:1003D000DA01C9014AEE54E0B2010E94B70ABC0139
:1003E00081E00E9416098091C603DF91CF911F9191
:1003F0000F91FF90EF90DF90CF90BF90AF909F90C4
:100400008F907F906F905F904F900C94D1061F93C8
:10041000CF93DF930E94F00B182FEC01D0FD1EC08C
:10042000D3FF04C085E091E00E94400CD2FF04C0DD
:1004300088E191E00E94400CD1FF04C08DE291E080
:100440000E94400C1F3321F485E491E00E94400C8F
:10045000812FDF91CF911F910C94270CDF91CF91C9
:100460001F91089582B9299A289A8FEF91E10197F7
:10047000F1F700C00000289829988FEF91E10197CB
:10048000F1F700C00000089582B9289A8FEF91E13A
:100490000197F1F700C0000028988FEF91E10197D4
:1004A000F1F700C00000089581E00C94440282E05E
:1004B0000C944402EF92FF921F93CF93DF931F920D
:1004C000CDB7DEB7009771F0182F7C018E2D811B00
:1004D000861740F4F70181917F0169830E943202FF
:1004E0006981F4CF0F90DF91CF911F91FF90EF9032
:1004F0000895623031F0633031F0613029F4805C6E
:1005000003C08C5E01C08C5A80680C9444021F9317
:10051000CF93DF93EC01862F642F0E94790210E0C5
:10052000FE01E10FF11D8491882329F084910E943E
:1005300032021F5FF5CFDF91CF911F910895EF92A7
:10054000FF920F931F93CF93DF938C0188E0689FF6
:10055000B0011124862F8064E82EC0E0D0E0F801BD
:10056000EC0FFD1FF4908C2F8E0D0E9444028F2DF6
:100570000E9432022196C830D10589F7DF91CF91D0
:100580001F910F91FF90EF9008951F93CF93DF93EA
:100590002FEF87ED90E0215080409040E1F700C0C0
:1005A000000012B815B881B18FEF81B984B18360B2
:1005B00084B980E382B9289A8FEF91E10197F1F72E
:1005C00000C0000028988FEF91E10197F1F700C07B
:1005D000000080E382B9289A8FEF91E10197F1F74B
:1005E00000C0000028988FEF91E10197F1F700C05B
:1005F000000080E382B9289A8FEF91E10197F1F72B
:1006000000C0000028988FEF91E10197F1F700C03A
:10061000000088E382B9289A8FEF91E10197F1F702
:1006200000C0000028988FEF91E10197F1F700C01A
:1006300000008CE082B9289A8FEF91E10197F1F7E1
:1006400000C0000028988FEF99E50197F1F700C0EE
:100650000000CCE7D0E060E011E0160FCE010E9470
:100660009F022896183011F0612FF6CFDF91CF91BD
:100670001F910895CF93DF93D82FC0E0CD1729F0B5
:100680008EE10E944402CF5FF9CFDF91CF910895B0
:10069000CF93DF93D82FC0E0CD1729F088E10E94D7
:1006A0004402CF5FF9CFDF91CF9108958EE00C9493
:1006B00044028FE00C9444028CE00C94440288E0E5
:1006C0000C9444028CE00C944402CF93DF93D82F17
:1006D000C0E0CD1729F080E10E944402CF5FF9CF3E
:1006E000DF91CF910895CF93DF93D82FC0E0CD173E
:1006F00029F084E10E944402CF5FF9CFDF91CF91CE
:100700000895CF92DF92EF92FF920F931F93CF93B2
:10071000DF931F92CDB7DEB756E0459F90011124BD
:10072000E82FE29FC001E39F900D112470E00E942A
:10073000B4188B01CB0166E070E00E94A018E82E8F
:10074000C12CD12CF12CF416B9F096012B5F3F4F40
:100750000217130728F40C151D0520F08E2D03C079
:1007600085E001C080E049830E943202F394F6E004
:10077000CF0ED11C4981E7CF0F90DF91CF911F9110
:100780000F91FF90EF90DF90CF900895EF92FF923E
:100790000F93CF93DF93CDB7DEB76B970FB6F89477
:1007A000DEBF0FBECDBFF82E80E84A993EC0288F2D
:1007B000398F4A8F5B8F6D8B7E8B9F8B0E9444029B
:1007C0009F899F93FF927E897F936D896F9384E9C0
:1007D00091E09F938F93CE0101967C01FF928F93BE
:1007E0000E94B71A60E1C7010E945A021F920F933C
:1007F0005B8D5F934A8D4F93398D3F93288D2F9357
:1008000084EA91E09F938F93FF92EF920E94B71A30
:1008100080EC0E94440260E1C7010E945A020FB6B8
:10082000F894DEBF0FBECDBF13C00E94440260E14A
:1008300085EB91E00E945A0280EC0E94440260E144
:1008400086EC91E00E945A028FE090E00E946C0CCE
:100850006B960FB6F894DEBF0FBECDBFDF91CF9180
:100860000F91FF90EF9008950F931F9394B19F7095
:1008700094B994B1906B94B994E0099F80011124CC
:10088000016598E0299F90011124022B20E2829FAC
:10089000C0011124082B0CBD81E01F910F91089518
:1008A000CF93DF9300D000D0CDB7DEB7FC018191AC
:1008B00019821A821B821C829E012F5F3F4FD90131
:1008C000422F9A2F921B961718F491919D93F9CF6E
:1008D000813009F42C98F9019E2F941B961730F45F
:1008E00091919EBD0DB407FEFDCFF6CF813009F486
:1008F0002C9A862F0F900F900F900F90DF91CF9131
:100900000895CF93DF93CDB7DEB728970FB6F8944D
:10091000DEBF0FBECDBFFC0171911D821E821F8202
:10092000188619821A821B821C82AE014B5F5F4FB0
:10093000DA012A2F241B261718F421912D93F9CFC1
:10094000713009F42C989E012F5F3F4FDA01F901B5
:10095000422F5E2F521B561740F45D915EBD0DB4C1
:1009600007FEFDCF5EB55193F4CF713009F42C9A98
:10097000FC01D9018A2F841B861718F48D9181936D
:10098000F9CF862F28960FB6F894DEBF0FBECDBFE5
:10099000DF91CF9108958091C403882371F08091F5
:1009A000C4038F5F8093C4038091C4038C3728F005
:1009B00081E08093C5031092C40308950F93CF93F1
:1009C000DF9300D000D01F92CDB7DEB785E0E0E026
:1009D000F1E0DE01119601900D928A95E1F701E0B8
:1009E00021E040E452E46FE070E080E00E943404D3
:1009F00064E0CE0101960E9450040F900F900F907A
:100A00000F900F90DF91CF910F910895FF920F9368
:100A10001F93CF93DF9300D000D01F92CDB7DEB7E6
:100A2000F62E8E010F5F1F4F95E0F80111929A95F7
:100A3000E9F749838770F8E08F9FC0011124806433
:100A40008A8361E06F0DC8010E948104E1E060E0EB
:100A500070E0CB014F2D50E02E2F30E042175307AE
:100A600074F0982F872F762F6627D801A20FB31F17
:100A70002C91620F711D811D911DEF5FEDCF0F90C5
:100A80000F900F900F900F90DF91CF911F910F91CA
:100A9000FF90089541E061E084E00E940605109215
:100AA000C4031092C5036F7081E06B3009F080E0E1
:100AB00008950F93CF93DF93CDB7DEB729970FB685
:100AC000F894DEBF0FBECDBF4E835F836887798702
:100AD000FE01319695E0DF011D929A95E9F72F5FAF
:100AE00009838770880F880F880F8A83322FBE0191
:100AF0006A5F7F4F323050F0CF01830F911DDB01D1
:100B00004D91BD01DC014C933150F4CF622FCF01E8
:100B10000E94500429960FB6F894DEBF0FBECDBFD9
:100B2000DF91CF910F9108951E99FECF0895CF9236
:100B3000DF92EF92FF920F936B017C0141E062E044
:100B400081E00E940605AB01BC015F716627772733
:100B5000D701C6010DE0880F991FAA1FBB1F0A9578
:100B6000D1F7AA27BB27482B592B6A2B7B2B01E0F7
:100B700022E081E00E9459050F91FF90EF90DF90F5
:100B8000CF900895CF92DF92EF92FF920F936B0177
:100B90007C0141E062E082E00E940605AB01BC01FD
:100BA000487F87E0C822DD24EE24FF244C295D29FC
:100BB0006E297F2901E022E082E00E9459050F9111
:100BC000FF90EF90DF90CF900895CF92DF92EF9259
:100BD000FF920F936B017C0141E062E082E00E9492
:100BE0000605AB01BC01587F87E0C822DD24EE2456
:100BF000FF24FE2CED2CDC2CCC244C295D296E2905
:100C00007F2901E022E082E00E9459050F91FF90C8
:100C1000EF90DF90CF9008950F93CF93C82F41E0CE
:100C200062E082E00E940605AB01BC014F7720E83C
:100C3000C29FC00111249927AA2797FDA095BA2F1A
:100C4000482B592B6A2B7B2B01E022E082E00E948B
:100C50005905CF910F9108950F93CF93C82F70E04E
:100C600080E090E00E94C20541E062E081E00E94E5
:100C700006054C2F50E0542F44275295550F507EB7
:100C800060E070E001E022E081E00E945905CF9130
:100C90000F910C9494050F932C9800E022E040E013
:100CA00050E260E070E081E00E9459050E949405E6
:100CB00040E063E083E00E9406052C9A0F910895BE
:100CC000CF92DF92EF92FF920F93CF93DF93C82FD3
:100CD00001E022E040E050E0BA0181E00E945905C5
:100CE000D0E0C12CD12C7601DC1759F041E063E053
:100CF00083E00E940605C60ED71EE81EF91EDF5FC0
:100D0000F3CF2D2F30E040E050E0C701B6010E9444
:100D1000C818CA01B901DF91CF910F91FF90EF90F0
:100D2000DF90CF9008950F931F93613029F000E872
:100D300010E020E030E004C000E810E420E030E003
:100D4000482F477050E060E070E040615C60402BED
:100D5000512B622B732B01E022E082E00E945905A7
:100D60001F910F9108950F93CF93C82F61E00E94B8
:100D70009306369B13C00E9494056C2F84E00E945A
:100D80002C066C2F85E00E942C0601E022E049E051
:100D900050E060E070E081E00E945905CF910F9132
:100DA000089560E00E94930681E08093C40310924E
:100DB000C50308951F920F920FB60F9211242F931F
:100DC0003F934F935F936F937F938F939F93AF93D3
:100DD000BF93EF93FF9380915705893040F1809145
:100DE00053059091540501969093540580935305B3
:100DF000109257050E94CB048091530590915405A1
:100E000062E370E00E94A018892B09F044C0809131
:100E10005305909154056AEF70E00E94A018892B49
:100E200019F481E0809355050E94910C34C08091A3
:100E30005705813081F5809153059091540564E602
:100E400070E00E94A018892B31F580915305909194
:100E5000540564EF71E00E94A018892BC9F48091B9
:100E600053059091540568EE73E00E94A018892BF9
:100E700049F4809158059091590501969093590530
:100E8000809358059091C90381E0891B8093C90321
:100E900081E080935605809157058F5F80935705B9
:100EA000FF91EF91BF91AF919F918F917F916F9142
:100EB0005F914F913F912F910F900FBE0F901F9018
:100EC00018958091C90308958091C903882351F032
:100ED0008091C8038111419A8091C703882321F032
:100EE000439A08954198439808958091C8030895BE
:100EF0008091C70308951092C80308951092C70304
:100F000008958093C8036093C703089580915605A0
:100F100008951092550508951092560508958091F0
:100F200055050895809158059091590508954EE012
:100F300050E06CE070E089E195E00E94AB1C4CE071
:100F400050E060E070E08CE595E00E94AB1C809181
:100F50005C0590915D05A0E0B0E080930F05909353
:100F60001005A0931105B09312058093130590937B
:100F70001405A0931505B093160508954EE050E0B2
:100F80006CE070E088E695E00E94AB1C20911905AA
:100F900030911A05809168059091690528173907E5
:100FA00009F043C020911B0530911C0580916A0512
:100FB00090916B0528173907C1F520911D053091D7
:100FC0001E0580916C0590916D052817390769F50C
:100FD00020911F053091200580916E0590916F053D
:100FE0002817390711F520912105309122058091AC
:100FF00070059091710528173907B9F49091230570
:1010000080917205981311C0909124058091730509
:1010100098130BC020912505309126058091740509
:10102000909175052817390741F04EE050E06CE0CB
:1010300070E089E195E00C94BB1C08954CE050E011
:1010400060E070E087E495E00E94AB1C20914705CA
:101050003091480580915C0590915D05281739070E
:10106000A9F44091490550914A0560914B05709152
:101070004C0580915E0590915F05A0916005B0914F
:101080006105481759076A077B0741F04CE050E0BB
:1010900060E070E08CE595E00C94BB1C089584B191
:1010A0008C6084B987B18F6087B98AB1806C8AB946
:1010B000529853985A9A5B9A3C983D983E983F981C
:1010C000449A459A469A479AE0EBF0E08081836A19
:1010D0008083E1EBF0E0808186608083809123054E
:1010E0008093B300809124058093B40085B582601D
:1010F00085BD16BCEEE6F0E0808181608083E0E88B
:10110000F0E08081826A8083E1E8F0E080818B6199
:101110008083809121059091220590938700809390
:1011200086008AB180638AB98091190590911A0569
:10113000909389008093880080911B0590911C05F5
:1011400090938B0080938A0008958093B300089554
:101150008093B40008950E94540260E083E00E94EE
:1011600079026AE087ED91E00E945A020E94DE0453
:101170000E944A0581110BC00E94540260E082E087
:101180000E9479026AE082EE91E00C945A0261E0DA
:1011900080E00E94790265E08DEE91E00E945A02A3
:1011A00080E00E94B30669E083EF91E00E945A025A
:1011B00081E00E94B30662E08DEF91E00E945A0246
:1011C0001092C6038091C6030E94D1060C9454026B
:1011D0000E9497070E944F080E94C5020E94540275
:1011E0000E94AB0889E090E00E94D70B80915C05DB
:1011F00090915D0581349C4930F080E49CE99093A6
:101200005D0580935C05349BFECF359BFCCF369B00
:10121000FACF379BF8CF8FEF9FE628E081509040C0
:101220002040E1F700C0000078940895CF93DF9349
:10123000DB016F3F710509F02CF477FF05C0A0E0DA
:10124000B0E002C0AFEFB0E081111DC0A093170560
:10125000C0911905D0911A0520911D0530911E05E8
:101260002C1B3D0B0E9418192FEF30E040E050E09E
:101270000E94C8182C0F3D1F411D511D309389003D
:10128000209388001CC0A0931805C0911B05D09125
:101290001C0520911F05309120052C1B3D0B0E9441
:1012A00018192FEF30E040E050E00E94C8182C0FD2
:1012B0003D1F411D511D30938B0020938A00DF910B
:1012C000CF91089560E070E080E00E94160960E030
:1012D00070E081E00E9416092FEF8FE19CE1215020
:1012E00080409040E1F700C000006FEF70E080E0C8
:1012F0000E9416096FEF70E081E00E9416092FEF3F
:101300008FE398E3215080409040E1F700C0000057
:1013100060E070E080E00E9416092FEF8FE398E311
:10132000215080409040E1F700C0000060E070E094
:1013300081E00E9416092FEF8FE398E3215080404F
:101340009040E1F700C000002A9A429A2FEF8FE107
:101350009CE1215080409040E1F700C000002B9AB2
:10136000409A2FEF8FE19CE1215080409040E1F7BF
:1013700000C00000419A439A2FEF8FE19CE1215079
:1013800080409040E1F700C000002A982B984298D6
:1013900040984198439808950F931F938091620558
:1013A0009091630520915C0530915D05A90148513C
:1013B0005C4F4817590748F4E1E048515C4F481723
:1013C000590708F0E0E0F1E002C0E0E0F0E0A90138
:1013D000485E53408417950738F4205D37408217E4
:1013E000930708F4E1E0F1E040910F0550911005FA
:1013F000609111057091120580911305909114056B
:10140000A0911505B0911605481759076A077B0783
:10141000F1F18091640590916505A0916605B09108
:10142000670540915E0550915F0560916005709180
:1014300061058A019B0108511C4F2F4F3F4F081730
:1014400019072A073B0768F48A019B010053184FCC
:101450002F4F3F4F081719072A073B0708F4E1E011
:10146000F1E08A019B01085E1340210931098017D0
:101470009107A207B30758F4405D5740610971090D
:1014800084179507A607B70708F4E1E0F1E0F093A9
:10149000C803E093C7031F910F9108954A9913C0A1
:1014A0004091250550912605E4E6E49F9001E59FD3
:1014B000300D11242817390730F081E0261737073F
:1014C00018F080E0089581E00895809127059091BB
:1014D0002805A0912905B0912A0580579741A109B7
:1014E000B109893D9945A105B10590F440912B05BD
:1014F00050912C0560912D0570912E054057574154
:101500006109710981E0493D59456105710508F09E
:1015100080E00895CF93DF93FB01E9011A821B82DB
:101520001C821D82198218829F838E837987688727
:101530005B874A87BC016F5F7F4F8FEF9FE70E94F9
:10154000B4187D876C879F012F5F3F4F442737FD7D
:101550004095542F6FEF7FEF8FEF9FE30E94EA18C3
:101560002E873F87488B598BDF91CF9108958F92BB
:101570009F92AF92BF92CF92DF92EF92FF92CF9362
:10158000DF93EB01FA016C01E12CF12CC61AD70AAA
:10159000E108F10824853585C901AA2797FDA095A2
:1015A000BA2F8C159D05AE05BF05B4F08827992785
:1015B000821B930BAA2797FDA095BA2FC816D906B0
:1015C000EA06FB0684F0A681B781A70196010E9476
:1015D0002A194B015C010EC088248A949FE7992E3A
:1015E000A12CB12C07C08824839480E8982EAA24CB
:1015F000AA94BA2C22813381448155812C0D3D1D42
:101600004E1D5F1D86859785A089B1898217930736
:10161000A407B5074CF482839383A483B5836FEF4B
:101620007FEF8FEF9FE31DC0B095A09590958195BA
:101630009F4FAF4FBF4F281739074A075B074CF43E
:1016400082839383A483B58361E070E080E090ECB3
:1016500008C02283338344835583A085B1850E94CB
:101660002A19408151814C1B5D0BA285B3854A9F8D
:1016700090014B9F300D5A9F300D1124D183C083B0
:10168000680D791D8A1D9B1D620F731F811D911DA1
:1016900020E830E040E050E00E94EA18213080E885
:1016A00038078FEF4807580724F421E030E84FEF60
:1016B0005FEFDA01C901811520E89207A105B105A4
:1016C00024F08FEF9FE7A0E0B0E0DF91CF91FF9093
:1016D000EF90DF90CF90BF90AF909F908F90089544
:1016E000FC01128213821482158208951F920F92B8
:1016F0000FB60F9211242F933F934F935F938F93C5
:101700009F93EF93FF934091C0005091C6004871A2
:101710008091CC0390E001968F7799272091CB039D
:1017200030E08217930739F08093CC03FC01E1533A
:10173000FC4F508301C042E04093CA03FF91EF91F8
:101740009F918F915F914F913F912F910F900FBE7D
:101750000F901F9018951F920F920FB60F921124A1
:101760008F939F93EF93FF939091CE038091CD033E
:10177000981779F08091CD0390E001968F779927A3
:101780008093CD03FC01E15BFB4F80818093C60019
:1017900005C08091C1008F7D8093C100FF91EF91C2
:1017A0009F918F910F900FBE0F901F9018951092E0
:1017B000CE031092CD031092CC031092CB0397FF6F
:1017C00004C022E02093C0009F779093C5008093CF
:1017D000C40088E98093C10086E08093C200089528
:1017E0009091CC038091CB039817A1F08091CB030B
:1017F00090E001968F7799278093CB03FC01E1530A
:10180000FC4F20818091CA0390E0982F8827820F97
:10181000911D089580E091E008959091CC0380910E
:10182000CB03981789F0E091CB03F0E03196EF7786
:10183000FF27E153FC4F20818091CA0390E0982F4D
:101840008827820F911D089580E091E008952091EE
:10185000CE0330E02F5F3F4F2F7733274091CD03EA
:1018600050E024173507D1F3F901E15BFB4F80838A
:101870002093CE038091C10080628093C1000895BF
:10188000CF93DF93EC018991882319F00E94270CF4
:10189000FACFDF91CF910895CF93DF93FC0184912C
:1018A000EF012196882321F00E94270CFE01F7CF3B
:1018B000DF91CF9108958091CC032091CB0390E0EC
:1018C00080589F4F821B91098F77992708958091A7
:1018D000CB038093CC030895CF93C82F0E94920727
:1018E0008C0F911D9093D1048093D004CF910895D3
:1018F000CF93DF93C091D004D091D1040E9492077E
:101900008C179D0750F4C091D004D091D1040E944F
:1019100092079C2F981B892F01C080E0DF91CF9107
:101920000895349908C080915A058F3F31F0815F46
:1019300080935A0502C010925A05359908C08091CB
:101940005B058F3F31F0815F80935B0508951092B6
:101950005B05089586E480930E052A982B9842989B
:10196000409860E080E00E94790260E180E092E0CF
:101970000E945A0261E080E00E94790260E181E108
:1019800092E00C945A0287E480930E052A982B98D3
:101990004298409860E080E00E94790260E182E233
:1019A00092E00E945A0261E080E00E94790260E1C8
:1019B00081E192E00C945A0284E180930E052A980A
:1019C0002B984298409860E080E00E94810760E098
:1019D00070E080E00E94160960E070E081E00E9403
:1019E000160960E080E00E94790260E183E392E002
:1019F0000E945A0261E080E00E94790260E184E482
:101A000092E00C945A0285E180930E052A982B9857
:101A10004298409860E080E00E94790260E185E5AC
:101A200092E00E945A0261E080E00E94790260E147
:101A300086E692E00C945A0282E380930E052A987F
:101A40002B984298409860E080E00E94790260E123
:101A500087E792E00E945A0261E080E00E947902EA
:101A600060E189E992E00C945A0283E380930E05C9
:101A70002A982B984298409860E080E00E94790272
:101A800060E187E892E00E945A0261E080E00E94F3
:101A9000790260E188E992E00C945A0284E3809331
:101AA0000E052A982B984298409860E080E00E94AA
:101AB000790260E189EA92E00E945A0261E080E0E6
:101AC0000E94790260E188E992E00C945A028CE36A
:101AD00080930E052A9A2B98429A409860E080E005
:101AE0000E94790260E18AEB92E00E945A0261E072
:101AF00080E00E94790260E188E992E00C945A0249
:101B00008DE380930E052A982B9A4298409A60E0C4
:101B100080E00E94790260E18BEC92E00E945A0220
:101B200061E080E00E94790260E188E992E00C9433
:101B30005A020F931F938091330590913405A09121
:101B40003505B09136059093630580936205009149
:101B50000F0510911005209111053091120540914B
:101B60001305509114056091150570911605041721
:101B700015072607370749F410926405109265058A
:101B800010926605109267052DC09C01AD01442797
:101B90005527A0E1B7E20E941F1920912F0530912F
:101BA000300540913105509132050E94C818AAE0D5
:101BB000B0E00E941F19613A26E8720721E082070F
:101BC0009105D0F600EA16E821E030E0061B170B7D
:101BD000280B390B00936405109365052093660567
:101BE000309367051F910F9108950F931F932091D4
:101BF0005C0530915D05A0E1B7E20E9409192091D2
:101C0000250530912605205D374040E050E00E94D8
:101C1000C818AAE0B0E00E941F198B019C01013A8C
:101C200086E8180781E02807310548F460EA76E87D
:101C300081E090E0601B710B820B930B03C060E0AE
:101C400070E0CB011F910F910895CF92DF92EF9238
:101C5000FF920F931F93CF93DF938091250590916F
:101C6000260520915C0530915D0528573C4E821772
:101C7000930730F48858934190935D0580935C05F9
:101C8000C0905E05D0905F05E0906005F090610522
:101C90000E94F50D6C157D058E059F0540F460933F
:101CA0005E0570935F0580936005909361050091D8
:101CB0000F051091100520911105309112054091EA
:101CC0001305509114056091150570911605C0918A
:101CD0005C05D0915D05041715072607370761F4E9
:101CE000CE01A0E0B0E080930F0590931005A09383
:101CF0001105B09312052EC09E01A4E6B0E00E942B
:101D000009196B017C0160915E0570915F058091FE
:101D100060059091610528EE33E040E050E00E94BC
:101D2000C818DA01C90124E630E040E050E0281B81
:101D3000390B4A0B5B0BC701B6010E94C8182093F0
:101D40000F05309310054093110550931205CE01F5
:101D5000A0E0B0E08093130590931405A0931505BF
:101D6000B0931605DF91CF911F910F91FF90EF90E7
:101D7000DF90CF9008952F923F924F925F926F9293
:101D80007F928F929F92AF92BF92CF92DF92EF920B
:101D9000FF920F931F93CF93DF93CDB7DEB7669774
:101DA0000FB6F894DEBF0FBECDBF609133057091C2
:101DB0003405809135059091360540902F0550905F
:101DC0003005609031057090320528EEC22E23E078
:101DD000D22EE12CF12CA70196010E94C818122FD7
:101DE000032F342E252E34E6832E912CA12CB12CDA
:101DF000A50194010E94C8185F934F933F932F93BE
:101E00002F923F920F931F93C301B201A701960136
:101E10000E94C818122F032F742E652EA50194015D
:101E20000E94C8185F934F933F932F936F927F92B6
:101E30000F931F938CED92E09F938F938E010F5F12
:101E40001F4F1F930F930E94B71A0E94990D809104
:101E50005C0590915D0528EE33E0B9010E94A01861
:101E6000762E672E80905E0590905F05A0906005AD
:101E7000B09061058091620590916305B9010E945F
:101E8000A0186D8B7E8B60916405709165058091C3
:101E90006605909167050FB6F894DEBF0FBECDBF03
:101EA00081149104A104B104A1F120900F05309098
:101EB00010054090110550901205209113053091A6
:101EC0001405409115055091160522163306440657
:101ED0005506F9F0409A2B9AA70196010E94C8185E
:101EE0001F922F933E893F938D898F93C501B40133
:101EF000A70196010E94C8181F922F936F927F929C
:101F00008AEF92E09F938F931F930F930E94B71ACB
:101F10000EC03E893F938D898F936F927F928FE0A1
:101F200093E09F938F931F930F930E94B71A0FB65E
:101F3000F894DEBF0FBECDBF60E080E00E94790262
:101F400060E1C8010E945A0266960FB6F894DEBF9F
:101F50000FBECDBFDF91CF911F910F91FF90EF90FA
:101F6000DF90CF90BF90AF909F908F907F906F90B9
:101F70005F904F903F902F9008958BE080930E05D7
:101F8000429A2A9A0E94BE070E941E080C94BB0E19
:101F90002F923F924F925F926F927F928F929F9279
:101FA000AF92BF92CF92DF92EF92FF920F931F9367
:101FB000CF93DF93CDB7DEB769970FB6F894DEBF46
:101FC0000FBECDBF80915C0590915D0568EE73E01A
:101FD0000E94A018362E072F60912F0570913005B2
:101FE000809131059091320548EEC42E43E0D42E05
:101FF000E12CF12CA70196010E94C818122F6091C4
:102000000F05709110058091110590911205A7019F
:1020100096010E94C81880905E0590905F05A09080
:102020006005B09061054090330550903405609094
:102030003505709036058091130590911405A09197
:102040001505B09116058D8B9E8BAF8BB88F60E018
:1020500080E0298F0E947902809117051F928F934B
:102060001F92298D2F931F921F930F933F9252E23D
:10207000252E53E0352E3F922F928E010F5F1F4F7A
:102080001F930F930E94B71A60E1C8010E945A0281
:1020900061E080E00E9479020FB6F894DEBF0FBEC7
:1020A000CDBF40910F0550911005609111057091C1
:1020B00012058091130590911405A0911505B0911A
:1020C0001605481759076A077B0771F180911805B3
:1020D0001F928F936D897E898F89988DA7019601B4
:1020E0000E94C8181F922F93C301B201A701960145
:1020F0000E94C8181F922F93C501B401A701960131
:102100000E94C8181F922F933F922F921F930F93F4
:102110000E94B71A60E1C8010E945A020FB6F894F3
:10212000DEBF0FBECDBF05C060E181E192E00E943D
:102130005A0269960FB6F894DEBF0FBECDBFDF918D
:10214000CF911F910F91FF90EF90DF90CF90BF90B4
:10215000AF909F908F907F906F905F904F903F9047
:102160002F900895419A60E080E00E94790260E13A
:102170008AE393E00E945A0261E080E00E947902C3
:1021800060E18BE493E00C945A0280910E059CEE82
:10219000980F923050F44A9913C04B9911C00E9485
:1021A000BD0F8EE10E946C0C08C08B3049F44A9937
:1021B00002C04B9B05C00E94DC0C81E08093D404DC
:1021C0008091D404811153C080910E058A3009F0AA
:1021D0004EC04A994CC0349907C00E94650A8823B2
:1021E00021F10E94DC0C0DC0359BF7CF369BF5CF5B
:1021F000379BF3CF0E94780C882379F338C0359948
:1022000003C0349BFECFFBCF369BFBCF379BF9CF70
:102210002FEF8FE995E0215080409040E1F700C01A
:10222000000081E08093D40422C00E94B2102FEFFE
:102230008FE790E7215080409040E1F700C0000018
:10224000439A2FEF8FEB98EA215080409040E1F7BE
:1022500000C00000349BFECF359BFCCF369BFACFED
:10226000379BF8CF419843988FE00E946C0C809187
:10227000D40481115EC0349B06C0359B04C0369BDC
:1022800002C0379956C080910E05843129F43699E1
:1022900050C00E94030D19C0853129F4379949C0F7
:1022A0000E94DC0C12C0823351F4369903C00E94A4
:1022B000350D0BC037993DC00E94C30C06C0833357
:1022C00069F4369906C00E944E0D81E08093D404D3
:1022D00030C037992EC00E941C0DF7CF843341F4D3
:1022E000369903C00E94670DF0CF379BE0CF21C025
:1022F0008C3341F4369903C00E94800DE6CF379BA2
:10230000E2CF17C08D3341F4369903C00E94AA0C66
:10231000DCCF379BE7CF0DC0863429F4369BCCCF7A
:10232000379BEACF06C0873421F4369BD4CF379B46
:10233000EDCF349B09C0359B07C0369B05C0379B4A
:1023400003C01092D40408958091D404813089F49C
:1023500080910E05823368F037990BC0369909C019
:102360000E94DC0C0E94250E0E94BE0782E0809332
:10237000D4048091D404813071F480910E0584518D
:10238000823048F4379907C0369905C00E941C0D69
:1023900082E08093D4048091D404882349F02FEF05
:1023A0008FEC92E0215080409040E1F700C00000A7
:1023B000089560E08FE00E94790261E080E292E09F
:1023C0000E945A0261E080E00E94790260E18CE59F
:1023D00093E00E945A020E94620961E080E00E943C
:1023E000790260E18DE693E00E945A022FEF8FE3BD
:1023F00098E3215080409040E1F700C000000C9429
:10240000AA0C80915B05882381F08F3F11F49AE03C
:1024100001C091E080912305981720F4891B8093D7
:10242000230503C081111092230580915A0588234A
:10243000C9F08F3F11F45AE001C051E040912305EB
:10244000242F30E08FEF90E0851B91092817390782
:1024500024F4450F4093230505C04F3F19F08FEF3B
:1024600080932305809123051F928F938EE793E03D
:102470009F938F9386ED94E09F938F930E94B71A5A
:1024800061E080E00E94790264E086ED94E00E94C1
:102490005A0261E084E00E9479024AE06FEF809185
:1024A00023050E94810361E08EE00E94790262E0D0
:1024B00086EA92E00E945A020F900F900F900F90C0
:1024C0000F900F90809123050C94A50880915B05D7
:1024D000882381F08F3F11F49AE001C091E0809150
:1024E0002405981720F4891B8093240503C08111CB
:1024F0001092240580915A058823C9F08F3F11F46A
:102500005AE001C051E040912405242F30E08FEFC4
:1025100090E0851B91092817390724F4450F409353
:10252000240505C04F3F19F08FEF8093240580915B
:1025300024051F928F938EE793E09F938F9386EDF0
:1025400094E09F938F930E94B71A61E080E00E940D
:10255000790264E086ED94E00E945A0261E084E032
:102560000E9479024AE06FEF809124050E94810366
:1025700061E08EE00E94790262E086EA92E00E94C9
:102580005A020F900F900F900F900F900F90809124
:1025900024050C94A80880915B058823F1F08F3FF7
:1025A00019F480ED97E002C088EE93E020912505B4
:1025B00030912605AC01485F5D4A4217530738F455
:1025C000281B390B309326052093250506C088E08B
:1025D00092E5909326058093250580915A058823DE
:1025E00041F18F3F19F420ED37E002C028EE33E0CF
:1025F000E0912505F0912605AF0160E070E088EEDE
:102600009DEFA0E0B0E0821B930BA109B109481730
:1026100059076A077B073CF42E0F3F1F30932605AE
:102620002093250506C088EE9DEF909326058093A4
:102630002505809125059091260568EE73E00E949E
:10264000A0187F936F9384E893E09F938F9386ED18
:1026500094E09F938F930E94B71A61E087E00E94F5
:1026600079020F900F900F900F900F900F9063E0F2
:1026700086ED94E00C945A0280915B05882379F0F2
:102680008F3F11F48AE001C081E09091D304891753
:1026900020F4981B9093D30402C01092D30480912D
:1026A0005A058823B9F08F3F11F44AE001C041E098
:1026B0005091D304252F30E08FEF90E0841B9109D7
:1026C0002817390724F4450F4093D30403C08FEF34
:1026D0008093D3048091D3041F928F938BE893E06F
:1026E0009F938F9386ED94E09F938F930E94B71AE8
:1026F00061E080E00E94790264E086ED94E00E944F
:102700005A0261E084E00E9479024AE06FEF809112
:10271000D3040E94810361E08EE00E94790262E0AE
:1027200086EA92E00E945A020F900F900F900F904D
:102730000F900F906091D30470E080E00C94160924
:1027400080915B05882379F08F3F11F48AE001C006
:1027500081E09091D204891720F4981B9093D204C1
:1027600002C01092D20480915A058823B9F08F3F9D
:1027700011F44AE001C041E05091D204252F30E02D
:102780008FEF90E0841B91092817390724F4450F37
:102790004093D20403C08FEF8093D2048091D2047F
:1027A0001F928F938BE893E09F938F9386ED94E035
:1027B0009F938F930E94B71A61E080E00E94790294
:1027C00064E086ED94E00E945A0261E084E00E9499
:1027D00079024AE06FEF8091D2040E94810361E0A8
:1027E0008EE00E94790262E086EA92E00E945A023C
:1027F0000F900F900F900F900F900F906091D20458
:1028000070E081E00C941609CF92DF92EF92FF9274
:102810000F931F93CF93DF9380915B058823F1F093
:102820008F3F19F480ED97E002C088EE93E020918D
:102830005C0530915D05AC014053584F421753077A
:1028400038F4281B390B30935D0520935C0506C0D6
:1028500080ED97E090935D0580935C0580915A052B
:10286000882311F18F3F19F480ED97E002C088EEC4
:1028700093E040915C0550915D05209125053091D4
:10288000260528583341B901681B790B46175707AD
:1028900038F4840F951F90935D0580935C0504C008
:1028A00030935D0520935C0580915C0590915D05FA
:1028B00068EE73E00E94A0187F936F9384E893E022
:1028C0009F938F9386ED94E09F938F930E94B71A06
:1028D00061E087E00E94790263E086ED94E00E9467
:1028E0005A02C0905E05D0905F05E0906005F090C0
:1028F00061050E94F50D0F900F900F900F900F90B3
:102900000F906C157D058E059F0540F460935E0564
:1029100070935F05809360059093610500910F05AA
:102920001091100520911105309112054091130569
:10293000509114056091150570911605C0915C05C4
:10294000D0915D05041715072607370761F4CE01FE
:10295000A0E0B0E080930F0590931005A0931105BF
:10296000B09312052EC09E01A4E6B0E00E940919A2
:102970006B017C0160915E0570915F05809160053F
:102980009091610528EE33E040E050E00E94C818C5
:10299000DA01C90124E630E040E050E0281B390BA1
:1029A0004A0B5B0BC701B6010E94C81820930F05A4
:1029B000309310054093110550931205CE01A0E00D
:1029C000B0E08093130590931405A0931505B09380
:1029D0001605DF91CF911F910F91FF90EF90DF903F
:1029E000CF90089580915B058823D9F08F3F19F42B
:1029F00020ED37E002C028EE33E080915C05909135
:102A00005D05A901485F5D4A4817590718F4821B04
:102A1000930B02C088E092E590935D0580935C057E
:102A200002C020E030E080915A05882311F18F3FE9
:102A300019F420ED37E002C028EE33E040915C0548
:102A400050915D0580912505909126058858934108
:102A5000BC01621B730B4617570738F4420F531F14
:102A600050935D0540935C0504C090935D05809391
:102A70005C0580915C0590915D05A0E0B0E08093DD
:102A80000F0590931005A0931105B0931205809344
:102A9000130590931405A0931505B0931605232BE9
:102AA00049F00E94BD0F60E080E00E9481078AE04B
:102AB0000C946C0C08958F929F92AF92BF92CF921C
:102AC000DF92EF92FF920F931F93CF93DF9380914A
:102AD0005B05882359F18F3F19F480ED97E002C020
:102AE00088EE93E040915E0550915F05609160052E
:102AF00070916105A0E0B0E084179507A607B707BD
:102B000068F4481B590B6A0B7B0B40935E0550938E
:102B10005F05609360057093610508C010925E05C3
:102B200010925F05109260051092610580915A0520
:102B3000882399F18F3F19F400ED17E002C008EEE9
:102B400013E0C0905E05D0905F05E0906005F090C6
:102B500061050E94F50D20E030E04B015C01801A18
:102B6000910AA20AB30AC814D904EA04FB0468F45F
:102B7000C00ED11EE21EF31EC0925E05D0925F050C
:102B8000E0926005F092610508C060935E05709365
:102B90005F05809360059093610560915E0570917B
:102BA0005F058091600590916105E8EECE2EE3E02F
:102BB000DE2EE12CF12CA70196010E94C8181F926D
:102BC0002F9384E893E09F938F9386ED94E09F93F7
:102BD0008F930E94B71A61E087E00E94790263E058
:102BE00086ED94E00E945A02C0915C05D0915D058B
:102BF0009E01A4E6B0E00E9409194B015C016091BE
:102C00005E0570915F058091600590916105A70157
:102C100096010E94C818DA01C90124E630E040E0BC
:102C200050E0281B390B4A0B5B0BC501B4010E9415
:102C3000C81820930F053093100540931105509349
:102C40001205CE01A0E0B0E0809313059093140527
:102C5000A0931505B09316050F900F900F900F904D
:102C60000F900F90DF91CF911F910F91FF90EF90F8
:102C7000DF90CF90BF90AF909F908F9008954F922C
:102C80005F926F927F928F929F92AF92BF92CF92FC
:102C9000DF92EF92FF920F931F93CF93DF93609198
:102CA00033057091340580912F05909130050E9475
:102CB0004E0A882381F181E080930E05419A439A60
:102CC0002A982B984298409860E080E00E94790210
:102CD00060E180E993E00E945A0261E080E00E9496
:102CE000790260E14A9903C081EA93E002C082EB75
:102CF00093E0DF91CF911F910F91FF90EF90DF90C4
:102D0000CF90BF90AF909F908F907F906F905F908B
:102D10004F900C945A028091D504811161C00E9499
:102D2000BB0E60913305709134058091350590910B
:102D3000360540902F055090300560903105709019
:102D40003205F8EE8F2EF3E09F2EA12CB12CA501B9
:102D500094010E94C818E901142F052FA4E6CA2E79
:102D6000D12CE12CF12CA70196010E94C8185F9389
:102D70004F933F932F930F931F93DF93CF93C301F1
:102D8000B201A50194010E94C818E901142F052F72
:102D9000A70196010E94C8185F934F933F932F930A
:102DA0000F931F93DF93CF938CED92E09F938F93BC
:102DB00086ED94E09F938F930E94B71A61E080E0C4
:102DC0000E94790260E186ED94E00E945A028DB77C
:102DD0009EB744960FB6F8949EBF0FBE8DBF02C03B
:102DE0000E94C80F0E94780C811112C0DF91CF9110
:102DF0001F910F91FF90EF90DF90CF90BF90AF9019
:102E00009F908F907F906F905F904F900C94CC0923
:102E1000DF91CF911F910F91FF90EF90DF90CF90B6
:102E2000BF90AF909F908F907F906F905F904F90EA
:102E30000895CF92DF92EF92FF920F93CF93DF939B
:102E400080910E058A3009F05AC0B0E2CB2EBBE16A
:102E5000DB2EBCE7EB2EBCE0FB2E2091270530914A
:102E600028054091290550912A05C701B6010E9405
:102E7000C818DA01C9012093370590933805A0934B
:102E80003905B0933A0510923B0510923C0510921B
:102E90003D0510923E0520912B0530912C05409167
:102EA0002D0550912E05C701B6010E94C818DA0100
:102EB000C90120933F0590934005A0934105B0932D
:102EC0004205109243051092440510924505109258
:102ED00046050E94780C082F20912B0530912C0577
:102EE00040912D0550912E05609127057091280580
:102EF0008091290590912A050E94C6036BC08634F3
:102F000029F4349967C00E94D91164C0873489F4C8
:102F1000349960C08AE080930E05349BFECF359BC8
:102F2000FCCF369BFACF379BF8CF8FE00E946C0C1A
:102F300051C0823319F40E9401124CC0833319F43A
:102F40000E94661247C0843319F40E94CB1242C01B
:102F50008C3319F40E943C133DC08D3319F40E9448
:102F6000A01338C0843119F40E94041433C08B308C
:102F700069F5349B02C0359918C040910F055091F6
:102F800010056091110570911205809113059091C3
:102F90001405A0911505B0911605481759076A0741
:102FA0007B0719F40E94F21415C0369906C03799B0
:102FB00004C081E08093D5040DC037990BC0369BC7
:102FC00009C01092D5040E94BD0F04C0853111F4D0
:102FD0000E945B1580910E058B3049F4DF91CF91F3
:102FE0000F91FF90EF90DF90CF900C943F16DF9100
:102FF000CF910F91FF90EF90DF90CF900895809147
:103000000E05089580930E050895CF93DF93CDB7F5
:10301000DEB76A970FB6F894DEBF0FBECDBF0E9431
:10302000E8088AE00E9402188FE00E946C0C8FE58D
:1030300091E00E94400C2CEF34E040E050E060E072
:1030400070E080E890E00E948A0A2AEE34E040E0D6
:1030500050E060E070E080E890E00E948A0A18EE9C
:10306000812E13E0912E08EEC02E03E0D02EE12C2D
:10307000F12C87E7A82E81E0B82E8E010F5F1F4F3D
:103080000E9407028091C50381110E947D000E9469
:10309000C5100E948607882321F00E9419170E94FC
:1030A0008C070E948F07882309F442C080915C0539
:1030B00090915D05B4010E94A018762E672E609154
:1030C0002F05709130058091310590913205A7014F
:1030D00096010E94C818522E60910F05709110053C
:1030E0008091110590911205A70196010E94C818C0
:1030F00060E080E02A8F0E947902809117051F927C
:103100008F931F922A8D2F931F925F926F927F92BF
:10311000BF92AF921F930F930E94B71AC8010E94EB
:10312000400C0E9489070FB6F894DEBF0FBECDBFDA
:103130000E94FF178B3009F0A3CF0E946407A0CF35
:10314000AA1BBB1B51E107C0AA1FBB1FA617B707CD
:1031500010F0A61BB70B881F991F5A95A9F78095E9
:103160009095BC01CD01089597FB072E16F40094AD
:1031700007D077FD09D00E94A01807FC05D03EF4C7
:10318000909581959F4F0895709561957F4F089513
:10319000A1E21A2EAA1BBB1BFD010DC0AA1FBB1F5B
:1031A000EE1FFF1FA217B307E407F50720F0A21BCD
:1031B000B30BE40BF50B661F771F881F991F1A943A
:1031C00069F760957095809590959B01AC01BD0164
:1031D000CF010895052E97FB1EF400940E9401195B
:1031E00057FD07D00E94C81807FC03D04EF40C947A
:1031F000011950954095309521953F4F4F4F5F4FA6
:10320000089590958095709561957F4F8F4F9F4F52
:103210000895A29FB001B39FC001A39F700D811DAF
:103220001124911DB29F700D811D1124911D0895CF
:103230000E940919B7FF0895821B930B08950E94FD
:103240000919A59F900DB49F900DA49F800D911D0D
:1032500011240895B7FF0C941F190E941F19821B97
:10326000930B0895DF93CF931F930F939A9DF02DA7
:10327000219FF00D8B9DF00D8A9DE02DF10D039F98
:10328000F00D029FE00DF11D4E9DE00DF11D5E9DC4
:10329000F00D4F9DF00D7F936F93BF92AF925F93B0
:1032A0004F93D5010E9409198B01AC01D7010E94EF
:1032B0000919EB01E80FF91FD6010E9482192F911D
:1032C0003F91D6010E940919C60FD71FE81FF91FA9
:1032D000AF91BF910E9482192F913F910E940919CD
:1032E000C60FD71FE81FF91FD6010E940919E60F64
:1032F000F71F9801BE01CF0111240F911F91CF91AB
:10330000DF9108950E940919460F571FC81FD91F42
:1033100008F431960895689401C0E894F92FF12BD0
:1033200012F00C94BF19A0E0B0E0E9E9F9E10C94C7
:10333000311A092E059422F40E941B1A112392F4CB
:10334000F0E80F26FFEFE094F09400951095B0940C
:10335000C094D094A194BF0ACF0ADF0AEF0AFF0AF3
:103360000F0B1F0B0E94CA1907FC0E941B1ACDB736
:10337000DEB7ECE00C944D1A689401C0E8948F928B
:103380009F92CF93DF930E94CA19DF91CF919F90B4
:103390008F90089588249924F401E401B0E49F9368
:1033A000AA279A158B049C04ED05FE05CF05D007CE
:1033B000A10798F4AD2FDC2FCF2FFE2FE92D982CED
:1033C000892E982F872F762F652F542F432F322F3A
:1033D0002227B85031F7BF9127C01B2EBF91BB27C2
:1033E000220F331F441F551F661F771F881F991F09
:1033F000881C991CEE1FFF1FCC1FDD1FAA1FBB1FBF
:103400008A149B04EC05FD05CE05DF05A007B10776
:1034100048F08A189B08EC09FD09CE09DF09A00BCA
:10342000B10B21601A94E1F62EF49401AF01BE01B4
:10343000CD01000C0895609570958095909530951C
:103440004095509521953F4F4F4F5F4F6F4F7F4FA6
:103450008F4F9F4F08952F923F924F925F926F929E
:103460007F928F929F92AF92BF92CF92DF92EF9214
:10347000FF920F931F93CF93DF93CDB7DEB7CA1B95
:10348000DB0B0FB6F894DEBF0FBECDBF09942A88C0
:10349000398848885F846E847D848C849B84AA8468
:1034A000B984C884DF80EE80FD800C811B81AA81F5
:1034B000B981CE0FD11D0FB6F894DEBF0FBECDBFC0
:1034C000ED0108950F93083090F0982F872F762FF5
:1034D000652F542F432F322F22270850F4CF220F6D
:1034E000331F441F551F661F771F881F991F0A959A
:1034F000B2F70F91089597FB10F8169400080F93F8
:10350000083098F00850232F342F452F562F672F5F
:10351000782F892F902DF4CF0594979587957795DF
:10352000679557954795379527950A95AAF70F916F
:1035300008952A0D3B1D4C1D5D1D6E1D7F1D801FB6
:10354000911F08952A193B094C095D096E097F09ED
:10355000800B910B08950024A7FD00942A173005D5
:103560004005500560057005800590050895AEE0A2
:10357000B0E0EDEBFAE10C94391A0D891E8986E072
:103580008C831A8309838FEF9FE79E838D83AE011F
:10359000475E5F4F6F89788DCE0101960E94D91AE0
:1035A000EF81F885E00FF11F10822E96E4E00C9475
:1035B000551AACE0B0E0EFEDFAE10C942B1A7C0167
:1035C0006B018A01FC0117821682838181FFBDC1D4
:1035D000CE0101964C01F7019381F60193FD85918F
:1035E00093FF81916F01882309F4ABC1853239F4CF
:1035F00093FD859193FF81916F01853229F4B70185
:1036000090E00E94E91CE7CF512C312C20E02032C1
:10361000A0F48B3269F030F4803259F0833269F4CF
:1036200020612CC08D3239F0803339F4216026C0FE
:103630002260246023C0286021C027FD27C030ED10
:10364000380F3A3078F426FF06C0FAE05F9E300D5E
:103650001124532E13C08AE0389E300D1124332ECE
:1036600020620CC08E3221F426FD6BC1206406C09E
:103670008C3611F4206802C0883641F4F60193FDBF
:10368000859193FF81916F018111C1CF982F9F7D0B
:103690009554933028F40C5F1F4FFFE3F9830DC05E
:1036A000833631F0833771F0833509F05BC022C077
:1036B000F801808189830E5F1F4F44244394512C6D
:1036C000540115C03801F2E06F0E711CF801A080A2
:1036D000B18026FF03C0652D70E002C06FEF7FEF61
:1036E000C5012C870E94DE1C2C0183012C852F77BD
:1036F000222E17C03801F2E06F0E711CF801A08075
:10370000B18026FF03C0652D70E002C06FEF7FEF30
:10371000C5012C870E94D31C2C012C852068222EE9
:10372000830123FC1BC0832D90E048165906B0F49A
:10373000B70180E290E00E94E91C3A94F4CFF501D1
:1037400027FC859127FE81915F01B70190E00E94DF
:10375000E91C31103A94F1E04F1A51084114510418
:1037600071F7E5C0843611F0893639F5F80127FF85
:1037700007C060817181828193810C5F1F4F08C0F7
:1037800060817181882777FD8095982F0E5F1F4F8C
:103790002F76B22E97FF09C0909580957095619510
:1037A0007F4F8F4F9F4F2068B22E2AE030E0A40158
:1037B0000E941B1DA82EA81844C0853729F42F7E0F
:1037C000B22E2AE030E025C0F22FF97FBF2E8F36CF
:1037D000C1F018F4883579F0B4C0803719F0883713
:1037E00021F0AFC02F2F2061B22EB4FE0DC08B2D63
:1037F0008460B82E09C024FF0AC09F2F9660B92E9E
:1038000006C028E030E005C020E130E002C020E141
:1038100032E0F801B7FE07C0608171818281938137
:103820000C5F1F4F06C06081718180E090E00E5FE9
:103830001F4FA4010E941B1DA82EA818FB2DFF7767
:10384000BF2EB6FE0BC02B2D2E7FA51450F4B4FE58
:103850000AC0B2FC08C02B2D2E7E05C07A2C2B2D61
:1038600003C07A2C01C0752C24FF0DC0FE01EA0DA7
:10387000F11D8081803311F4297E09C022FF06C02A
:103880007394739404C0822F867809F0739423FD97
:1038900013C020FF06C05A2C731418F4530C571889
:1038A000732C731468F4B70180E290E02C870E94B7
:1038B000E91C73942C85F5CF731410F4371801C0EC
:1038C000312C24FF12C0B70180E390E02C870E94C6
:1038D000E91C2C8522FF17C021FF03C088E590E07A
:1038E00002C088E790E0B7010CC0822F867859F0BB
:1038F00021FD02C080E201C08BE227FD8DE2B7010D
:1039000090E00E94E91CA51438F4B70180E390E030
:103910000E94E91C5A94F7CFAA94F401EA0DF11D14
:103920008081B70190E00E94E91CA110F5CF3320FF
:1039300009F451CEB70180E290E00E94E91C3A946C
:10394000F6CFF7018681978102C08FEF9FEF2C960B
:10395000E2E10C94471ADC01CB01FC01F999FECF9E
:1039600006C0F2BDE1BDF89A319600B40D92415007
:103970005040B8F70895DC01CB0103C02D910E949F
:10398000C61C41505040D0F70895262FF999FECF1C
:103990001FBA92BD81BD20BD0FB6F894FA9AF99A6C
:1039A0000FBE01960895FC01059061507040011012
:1039B000D8F7809590958E0F9F1F0895FC01615058
:1039C000704001900110D8F7809590958E0F9F1F41
:1039D00008950F931F93CF93DF93182F092FEB01B7
:1039E0008B8181FD03C08FEF9FEF20C082FF10C04D
:1039F0004E815F812C813D81421753077CF4E88121
:103A0000F9819F012F5F3F4F39832883108306C0C0
:103A1000E885F985812F0995892B29F72E813F812A
:103A20002F5F3F4F3F832E83812F902FDF91CF91C8
:103A30001F910F910895FA01AA27283051F12031E2
:103A400081F1E8946F936E7F6E5F7F4F8F4F9F4F32
:103A5000AF4FB1E03ED0B4E03CD0670F781F891F74
:103A60009A1FA11D680F791F8A1F911DA11D6A0F42
:103A7000711D811D911DA11D20D009F468943F91F5
:103A80002AE0269F11243019305D3193DEF6CF01F4
:103A90000895462F4770405D4193B3E00FD0C9F7BA
:103AA000F6CF462F4F70405D4A3318F0495D31FD27
:103AB0004052419302D0A9F7EACFB4E0A69597957A
:103AC000879577956795BA95C9F700976105710550
:103AD00008959B01AC010A2E06945795479537959A
:103AE0002795BA95C9F7620F731F841F951FA01DF4
:063AF0000895F894FFCFD9
:103AF60001FFFFFFFF55415254204672616D65205C
:103B06004572726F723A200055415254204F7665C5
:103B16007272756E204572726F723A200042756637
:103B2600666572206F766572666C6F772065727255
:103B36006F723A2000544F444F3A205075742073E8
:103B46006F6D6520646562756720696E666F0057E4
:103B5600656C636F6D6520746F20626C656E64655D
:103B660072203A290D0A0053313A20253032752C3D
:103B760020253032752C20253032752C2025303307
:103B8600750D0A0053313A2025356C69755620208B
:103B960020203E0053323A2025356C697556202088
:103BA6002532647300506C656173652C20747572E0
:103BB6006E206F6E2000796F757220636F6D707264
:103BC6006573736F722100496E6974696E672E2E74
:103BD6002E00414443204572726F72210053312EEC
:103BE6002E2E004F4B202053322E2E2E004F4B00F0
:103BF6002020202052756E20546573742020203EAC
:103C060000202020202020202020202020202020CE
:103C1600200020202043616C696272617465202057
:103C2600203E004F323C20204F787967656E202079
:103C360020202B0048652020202020202020202026
:103C46002020202D004F3220202048656C69756D9C
:103C5600202020202B0048653C20202020202020EA
:103C660020202020202D0020204272696768746E73
:103C760065737320202B0020202020436F6E747202
:103C86006173742020202B0020202020202020205B
:103C9600202020202020202D002020456D657267E1
:103CA600656E6379204F32202B00202053657420E7
:103CB6004F322076616C7665202B00202053657488
:103CC6002048652076616C7665202B0053313A25B5
:103CD600326C692E2530316C692053323A25326CAC
:103CE600692E2530316C69202000546D582025320C
:103CF600752F25327520202532752F253275004502
:103D0600414E7825327520205265616C3A25327510
:103D16002000742530327563253032752073742582
:103D26003032752076253033750043616E27742056
:103D360063616C696272617465210053656E736FAD
:103D46007273206661696C757265210020202043BC
:103D56006865636B696E672E2E2E2020002020205A
:103D6600202020444F4E45212020202020002530B1
:103D76003375200025303275252500253375200042
:103D8600202020456D657267656E637921202020AD
:103D96000020204F3220746F6F20686967682120E9
:103DA6002000436F6D70726573736F723A20204FF7
:043DB600464600007D
:00000001FF
