:100000000C9417010C9434010C9434010C943401B9
:100010000C9434010C9434010C9434010C9434018C
:100020000C9434010C9434010C9434010C9434017C
:100030000C9434010C9434010C9434010C9434016C
:100040000C9434010C9434010C9468070C94340122
:100050000C946C0D0C94A10D0C9434010C9434018F
:100060000C9434010C9434010C9434010C9434013C
:100070000C9434010C9434010C94340138103A106F
:100080003C103E10401042104410461046104610DE
:1000900046104610461048104A104C104E10501092
:1000A000001F000000001F00001F101010101F0094
:1000B000001F181818181F00001F1C1C1C1C1F00F4
:1000C000001F1E1E1E1E1F00001F1F1F1F1F1F00C0
:1000D00003070F1F0F070300181C1E1F1E1C18000C
:1000E0003C214532332054696D6572312076616C54
:1000F00075650A0D003C2145323220536572766FDA
:1001000032206D61780A0D003C2145323120536563
:1001100072766F31206D61780A0D003C21453230D6
:1001200020536572766F32206D696E0A0D003C2196
:1001300045313920536572766F31206D696E0A0D35
:10014000003C21453138205049443220440A0D00FA
:100150003C21453137205049443220490A0D003CAA
:1001600021453136205049443220500A0D003C21AF
:10017000453135205049443120440A0D003C214589
:100180003134205049443120490A0D003C21453189
:1001900033205049443120500A0D003C2145313272
:1001A00020536572766F320A0D003C2145313120B3
:1001B000536572766F310A0D003C2145313020566F
:1001C000616C7665320A0D003C2145392056616C20
:1001D0007665310A0D003C2145382048656C69750B
:1001E0006D0A0D003C214537204F787967656E0A0E
:1001F0000D003C21453620456D657267656E63795B
:10020000204F320A0D003C21453520436F6E747239
:100210006173740A0D003C4F4B0A0D003C214534BC
:10022000204272696768746E6573730A0D00112449
:100230001FBECFEFD0E1DEBFCDBF15E0A0E0B1E043
:10024000E6E5F3E502C005900D92AE39B107D9F7A6
:1002500027E0AEE9B5E001C01D92AC35B207E1F789
:100260000E947E240C94A9290C94000082B9299A3A
:10027000289A8FEF91E10197F1F700C000002898CC
:1002800029988FEF91E10197F1F700C000000895E0
:1002900082B9289A8FEF91E10197F1F700C0000031
:1002A00028988FEF91E10197F1F700C000000895C1
:1002B00081E00C94480182E00C944801EF92FF9297
:1002C0001F93CF93DF931F92CDB7DEB7009771F0E6
:1002D000182F7C018E2D811B861740F4F701819128
:1002E0007F0169830E9436016981F4CF0F90DF910D
:1002F000CF911F91FF90EF900895623031F06330FD
:1003000031F0613029F4805C03C08C5E01C08C5AEE
:1003100080680C9448011F93CF93DF93EC01862FE4
:10032000642F0E947D0110E0FE01E10FF11D849118
:10033000882329F084910E9436011F5FF5CFDF9159
:10034000CF911F910895EF92FF920F931F93CF9338
:10035000DF938C0188E0689FB0011124862F8064B0
:10036000E82EC0E0D0E0F801EC0FFD1FF4908C2FD8
:100370008E0D0E9448018F2D0E9436012196C830B3
:10038000D10589F7DF91CF911F910F91FF90EF90E9
:1003900008951F93CF93DF932FEF87ED90E02150C7
:1003A00080409040E1F700C0000012B815B881B15C
:1003B0008FEF81B984B1836084B980E382B9289AD0
:1003C0008FEF91E10197F1F700C0000028988FEFBF
:1003D00091E10197F1F700C0000080E382B9289A0B
:1003E0008FEF91E10197F1F700C0000028988FEF9F
:1003F00091E10197F1F700C0000080E382B9289AEB
:100400008FEF91E10197F1F700C0000028988FEF7E
:1004100091E10197F1F700C0000088E382B9289AC2
:100420008FEF91E10197F1F700C0000028988FEF5E
:1004300091E10197F1F700C000008CE082B9289AA1
:100440008FEF91E10197F1F700C0000028988FEF3E
:1004500099E50197F1F700C00000C0EAD0E060E044
:1004600011E0160FCE010E94A3012896183011F05A
:10047000612FF6CFDF91CF911F910895CF93DF9336
:10048000D82FC0E0CD1729F08EE10E944801CF5F40
:10049000F9CFDF91CF910895CF93DF93D82FC0E0AC
:1004A000CD1729F088E10E944801CF5FF9CFDF9195
:1004B000CF9108958EE00C9448018FE00C94480190
:1004C0008CE00C94480188E00C9448018CE00C947A
:1004D0004801CF93DF93D82FC0E0CD1729F080E1FA
:1004E0000E944801CF5FF9CFDF91CF910895CF935C
:1004F000DF93D82FC0E0CD1729F084E10E94480196
:10050000CF5FF9CFDF91CF910895CF92DF92EF9235
:10051000FF920F931F93CF93DF931F92CDB7DEB758
:1005200056E0459F90011124E82FE29FC001E39F10
:10053000900D112470E00E94A9248B01CB0166E08C
:1005400070E00E949524E82EC12CD12CF12CF416D9
:10055000B9F096012B5F3F4F0217130728F40C15D3
:100560001D0520F08E2D03C085E001C080E0498389
:100570000E943601F394F6E0CF0ED11C4981E7CFFB
:100580000F90DF91CF911F910F91FF90EF90DF902F
:10059000CF9008950F931F9394B19F7094B994B125
:1005A000906B94B994E0099F80011124016598E053
:1005B000299F90011124022B20E2829FC001112467
:1005C000082B0CBD81E01F910F910895CF93DF930D
:1005D00000D000D0CDB7DEB7FC01819119821A821C
:1005E0001B821C829E012F5F3F4FD901422F9A2F01
:1005F000921B961718F491919D93F9CF813009F4CD
:100600002C98F9019E2F941B961730F491919EBD62
:100610000DB407FEFDCFF6CF813009F42C9A862F5A
:100620000F900F900F900F90DF91CF910895CF937F
:10063000DF93CDB7DEB728970FB6F894DEBF0FBEB5
:10064000CDBFFC0171911D821E821F821886198206
:100650001A821B821C82AE014B5F5F4FDA012A2F88
:10066000241B261718F421912D93F9CF713009F42A
:100670002C989E012F5F3F4FDA01F901422F5E2F28
:10068000521B561740F45D915EBD0DB407FEFDCFC1
:100690005EB55193F4CF713009F42C9AFC01D90165
:1006A0008A2F841B861718F48D918193F9CF862F9A
:1006B00028960FB6F894DEBF0FBECDBFDF91CF9165
:1006C000089580919E05882371F080919E058F5F2B
:1006D00080939E0580919E05823328F081E080936F
:1006E0009F0510929E0508950F93CF93DF9300D03E
:1006F00000D01F92CDB7DEB785E0E2E0F1E0DE0189
:10070000119601900D928A95E1F701E021E040E415
:1007100052E46FE070E080E00E94CA0264E0CE0123
:1007200001960E94E6020F900F900F900F900F908D
:10073000DF91CF910F910895FF920F931F93CF9365
:10074000DF9300D000D01F92CDB7DEB7F62E8E011A
:100750000F5F1F4F95E0F80111929A95E9F74983D1
:100760008770F8E08F9FC001112480648A8361E064
:100770006F0DC8010E941703E1E060E070E0CB015B
:100780004F2D50E02E2F30E04217530774F0982F72
:10079000872F762F6627D801A20FB31F2C91620FE7
:1007A000711D811D911DEF5FEDCF0F900F900F9088
:1007B0000F900F90DF91CF911F910F91FF900895AF
:1007C00041E061E084E00E949C0310929E0510923B
:1007D0009F056F7081E06B3009F080E008950F9302
:1007E000CF93DF93CDB7DEB729970FB6F894DEBF6E
:1007F0000FBECDBF4E835F8368877987FE01319638
:1008000095E0DF011D929A95E9F72F5F09838770C4
:10081000880F880F880F8A83322FBE016A5F7F4F4F
:10082000323050F0CF01830F911DDB014D91BD019E
:10083000DC014C933150F4CF622FCF010E94E602CD
:1008400029960FB6F894DEBF0FBECDBFDF91CF91D2
:100850000F9108951E99FECF0895CF92DF92EF92E7
:10086000FF920F936B017C0141E062E081E00E9406
:100870009C03AB01BC015F7166277727D701C601D6
:100880000DE0880F991FAA1FBB1F0A95D1F7AA2751
:10089000BB27482B592B6A2B7B2B01E022E081E000
:1008A0000E94EF030F91FF90EF90DF90CF9008959B
:1008B000CF92DF92EF92FF920F936B017C0141E0A8
:1008C00062E082E00E949C03AB01BC01487F87E0AC
:1008D000C822DD24EE24FF244C295D296E297F29BE
:1008E00001E022E082E00E94EF030F91FF90EF9081
:1008F000DF90CF900895CF92DF92EF92FF920F9307
:100900006B017C0141E062E082E00E949C03AB014C
:10091000BC01587F87E0C822DD24EE24FF24FE2C92
:10092000ED2CDC2CCC244C295D296E297F2901E09B
:1009300022E082E00E94EF030F91FF90EF90DF90A2
:10094000CF9008950F93CF93C82F41E062E082E0EB
:100950000E949C03AB01BC014F7720E8C29FC001FD
:1009600011249927AA2797FDA095BA2F482B592B18
:100970006A2B7B2B01E022E082E00E94EF03CF9103
:100980000F9108950F93CF93C82F70E080E090E00F
:100990000E94580441E062E081E00E949C034C2FD9
:1009A00050E0542F44275295550F507E60E070E080
:1009B00001E022E081E00E94EF03CF910F910C94BF
:1009C0002A040F932C9800E022E040E050E260E01F
:1009D00070E081E00E94EF030E942A0440E063E09F
:1009E00083E00E949C032C9A0F910895CF92DF928E
:1009F000EF92FF920F93CF93DF93C82F01E022E095
:100A000040E050E0BA0181E00E94EF03D0E0C12C49
:100A1000D12C7601DC1759F041E063E083E00E94BD
:100A20009C03C60ED71EE81EF91EDF5FF3CF2D2FE5
:100A300030E040E050E0C701B6010E94BD24CA0189
:100A4000B901DF91CF910F91FF90EF90DF90CF90A0
:100A500008950F931F93613029F000E810E020E023
:100A600030E004C000E810E420E030E0482F477098
:100A700050E060E070E040615C60402B512B622BE5
:100A8000732B01E022E082E00E94EF031F910F919F
:100A900008950F93CF93C82F61E00E942905369BDC
:100AA00013C00E942A046C2F84E00E94C2046C2FA1
:100AB00085E00E94C20401E022E043E050E060E0F3
:100AC00070E081E00E94EF03CF910F91089560E004
:100AD0000E94290581E080939E0510929F0508954C
:100AE0003F924F925F926F927F928F929F92AF92BE
:100AF000BF92CF92DF92EF92FF920F931F93CF930B
:100B0000DF9380919F05882309F4D0C181E00E9482
:100B1000F604DC01CB019C01AD0160E070E080E0F7
:100B200090E0405851096109710981099109590101
:100B30006A017B01E82F192F02E00E945D260E2F2B
:100B40000E94942659016A017B01E82F192F04E0C5
:100B50000E945D260E2F0E949D2659016A017B018D
:100B6000E82F192F04E00E945D260E2F0E949D267B
:100B70004901D42FC52FB62FA72FF82FE92F06E054
:100B80000E945D2659016A017B018C0194014D2F61
:100B90005C2F6B2F7A2F8F2F9E2F0E949426922EE0
:100BA000A32EB42ED52FC62FB72FF82FE92FA0E0F4
:100BB0000E94A62684F42150310940485F4F6F4FB0
:100BC0007F4F8F4F9F4F922EA32EB42ED52FC62F1F
:100BD000B72FF82FE92F292D3A2D4B2D5D2F6C2F94
:100BE0007B2F8F2F9E2F07E10E947626C22FB32FD7
:100BF000F42FE52F362E472E982ED92FA0E00E94F5
:100C0000A62654F40E941626C22FB32FF42FE52FE8
:100C1000362E472E982ED92F8091A005811192C093
:100C20005C2E6B2E7F2E8E2EC0937006B0937106B5
:100C3000F0937206E0937306A0908006B090810650
:100C4000C0908206D0908306E0908406F0908506DE
:100C500000918606109187062C2F3B2F4F2F5E2F79
:100C6000632D742D892D9D2F0E942D25B0E1AB2E73
:100C7000C7E2BC2EC12CD12CE12CF12C00E010E0FD
:100C80000E948825209378063093790640937A064F
:100C900050937B06E091A20684E0E89FF0011124C6
:100CA000E954F94F508261827282838281E080939D
:100CB000A0050E94D91E8B30D1F560915406709129
:100CC00055068091560690915706A4E64A2E512C5F
:100CD000612C712CA30192010E94BD2449015A018B
:100CE000609178067091790680917A0690917B06E2
:100CF000A30192010E94BD24CA01B901390147E054
:100D000057E0C4010E94AA0C209150063091510670
:100D10002817390724F46814790408F0C90190935E
:100D2000510680935006BC0180E00E945A0A8091CF
:100D3000A2068F5F8093A2068A3008F4A2C01092A8
:100D4000A2069FC08B2E6F2E5E2EC0937406B093AA
:100D50007506F0937606E0937706A0908806B0902B
:100D60008906C0908A06D0908B06E0908C06F090A1
:100D70008D0600918E0610918F062C2F3B2F4F2F42
:100D80005E2F632D742D892D9D2F0E942D25E0E16E
:100D9000AE2EF7E2BF2EC12CD12CE12CF12C00E0BD
:100DA00010E00E94882520937C0630937D064093B6
:100DB0007E0650937F06E091A30684E0E89FF00151
:100DC0001124E152F94FC0838182628253821092D2
:100DD000A0050E94D91E8B3009F04AC060915806C8
:100DE0007091590680915A0690915B068090540646
:100DF00090905506A0905606B09057068616970616
:100E0000A806B906A9F124E6822E912CA12CB12CBA
:100E1000A50194010E94BD2429013A0160917C063C
:100E200070917D0680917E0690917F06A5019401C8
:100E30000E94BD24CA01B901590147E057E0C2012F
:100E40000E94AA0C66277727681B790B80915206AF
:100E5000909153068617970724F4A414B50408F05C
:100E6000BC01709353066093520681E00E945A0AB7
:100E70008091A3068F5F8093A3068A3010F01092B2
:100E8000A3068091A005DF91CF911F910F91FF9054
:100E9000EF90DF90CF90BF90AF909F908F907F901A
:100EA0006F905F904F903F900C946705DF91CF91CA
:100EB0001F910F91FF90EF90DF90CF90BF90AF9078
:100EC0009F908F907F906F905F904F903F9008958C
:100ED0001F920F920FB60F9211242F933F934F93AF
:100EE0005F936F937F938F939F93AF93BF93EF9392
:100EF000FF9380911D078930D0F08091B4069091C6
:100F0000B50601969093B5068093B40610921D071E
:100F10000E9461038091B4069091B50662E370E08F
:100F20000E949524892BB9F50E94860E34C08091C9
:100F30001D07813081F58091B4069091B50664E675
:100F400070E00E949524892B31F58091B406909130
:100F5000B50664EF71E00E949524892BC9F4809155
:100F6000B4069091B50668EE73E00E949524892B33
:100F700049F480911E0790911F07019690931F07D7
:100F800080931E079091A30581E0891B8093A305A0
:100F900081E08093B60680911D078F5F80931D07C7
:100FA000FF91EF91BF91AF919F918F917F916F9141
:100FB0005F914F913F912F910F900FBE0F901F9017
:100FC00018957F928F929F92AF92BF92CF92DF92AD
:100FD000EF92FF920F931F93CF93DF937C01A62E86
:100FE000FA01690111821082BB24B394DC018C9157
:100FF0008D3209F0B12CC0E0D0E099249A949A0C7B
:101000008C2E8B0C8A1430F5D701A80DB11D2C91B4
:1010100080ED820F8A3010F08FEF30C0332727FD2C
:10102000309520533109442737FD4095542F792CB2
:10103000781441F0AAE0B0E00E941A259B01AC01AF
:101040007A94F6CF80819181820F931F9183808360
:101050002196D6CFBB2039F08081918191958195E1
:101060009109918380832081318102171307A4F2B3
:1010700081E02C153D050CF080E08195DF91CF914A
:101080001F910F91FF90EF90DF90CF90BF90AF90A6
:101090009F908F907F9008958091A30508958091EF
:1010A000A305882351F08091A2058111419A809176
:1010B000A105882321F0439A089541984398089503
:1010C0008091A20508958091A10508951092A2052E
:1010D00008951092A10508958093A2056093A1053B
:1010E00008958091B60608951092B60608958091ED
:1010F0001E0790911F0708954EE050E068E170E0F0
:101100008EE596E00E94DB284CE050E06CE070E059
:101110008EE397E00E94DB284CE050E060E070E056
:1011200082E297E00E94DB2880913E0790913F0782
:10113000A0E0B0E08093540690935506A093560625
:10114000B09357068093580690935906A0935A0679
:10115000B0935B0608954EE050E068E170E08AE4E9
:1011600097E00E94DB2820915E0630915F06809117
:101170004A0790914B072817390709F043C020917F
:1011800060063091610680914C0790914D072817B9
:101190003907C1F5209162063091630680914E07B0
:1011A00090914F072817390769F52091640630910F
:1011B000650680915007909151072817390711F55E
:1011C00020916606309167068091520790915307EF
:1011D00028173907B9F4909168068091540798133D
:1011E00011C0909169068091550798130BC020910A
:1011F0006A0630916B068091560790915707281721
:10120000390741F04EE050E068E170E08EE596E08D
:101210000C94EB2808954CE050E06CE070E084EA18
:1012200096E00E94DB282091A4063091A5068091CB
:101230003E0790913F0728173907A9F44091A60669
:101240005091A7066091A8067091A9068091400769
:1012500090914107A0914207B09143074817590761
:101260006A077B0741F04CE050E06CE070E08EE3F1
:1012700097E00C94EB2808954CE050E060E070E0BB
:1012800082E397E00E94DB282091320730913307F8
:10129000809122079091230728173907B9F52091EB
:1012A000340730913507809124079091250728173E
:1012B000390761F52091360730913707809126076D
:1012C000909127072817390709F5209138073091A1
:1012D0003907809128079091290728173907B1F419
:1012E00020913A0730913B0780912A0790912B0774
:1012F0002817390759F420913C0730913D07809118
:101300002C0790912D072817390741F04CE050E049
:1013100060E070E082E297E00C94EB28089584B1DD
:101320008C6084B987B18F6087B98AB1806C8AB9C3
:10133000529853985A9A5B9A3C983D983E983F9899
:10134000449A459A469A479AE0EBF0E08081836A96
:101350008083E1EBF0E08081866080838091680685
:101360008093B300809169068093B40085B5826054
:1013700085BD16BCEEE6F0E0808181608083E0E808
:10138000F0E08081826A8083E1E8F0E080818B6117
:101390008083809166069091670690938700809382
:1013A00086008AB180638AB980915E0690915F065B
:1013B00090938900809388008091600690916106E7
:1013C00090938B0080938A0008958093B3000895D2
:1013D0008093B40008950E947C080E948F090E94A7
:1013E000C9010E9458010E94580160E083E00E94F8
:1013F0007D016AE087E091E00E945E010E94740333
:101400000E94E00381110CC00E94580160E082E05C
:101410000E947D016AE082E191E00E945E0121C0AC
:1014200061E080E00E947D0165E08DE191E00E9435
:101430005E0180E00E94490569E083E291E00E943C
:101440005E0181E00E94490562E08DE291E00E9428
:101450005E011092A0058091A0050E9467050E9480
:10146000580189E090E00E94CD0D80913E07909157
:101470003F0781349C4930F080E49CE990933F071A
:1014800080933E07349BFECF359BFCCF369BFACF33
:10149000379BF8CF8FEF9FE628E0815090402040A7
:1014A000E1F700C0000078948AE00E94DC1E8FE023
:1014B0000C94610ECF93DF93DB016F3F710509F050
:1014C0002CF477FF05C0A0E0B0E002C0AFEFB0E0C1
:1014D00081111DC0A0935C06C0915E06D0915F068D
:1014E00020916206309163062C1B3D0B0E94132550
:1014F0002FEF30E040E050E00E94BD242C0F3D1F54
:10150000411D511D30938B0020938A001CC0A09375
:101510005D06C0916006D09161062091640630910D
:1015200065062C1B3D0B0E9413252FEF30E040E099
:1015300050E00E94BD242C0F3D1F411D511D3093D2
:10154000890020938800DF91CF91089560E070E0DA
:1015500080E00E945A0A60E070E081E00E945A0A2E
:101560002FEF8FE19CE1215080409040E1F700C0D7
:1015700000006FEF70E080E00E945A0A6FEF70E0A9
:1015800081E00E945A0A2FEF8FE398E321508040B8
:101590009040E1F700C0000060E070E080E00E9451
:1015A0005A0A2FEF8FE398E3215080409040E1F7F3
:1015B00000C0000060E070E081E00E945A0A2FEF56
:1015C0008FE398E3215080409040E1F700C0000095
:1015D0002A9A429A2FEF8FE19CE12150804090405F
:1015E000E1F700C000002B9A409A2FEF8FE19CE1B9
:1015F000215080409040E1F700C00000419A439A9A
:101600002FEF8FE19CE1215080409040E1F700C036
:1016100000002A982B984298409841984398089542
:101620000F931F93809144079091450720913E07A7
:1016300030913F07A90148515C4F4817590748F4BA
:10164000E1E048515C4F4817590708F0E0E0F1E04D
:1016500002C0E0E0F0E0A901485E5340841795071E
:1016600038F4205D37408217930708F4E1E0F1E099
:101670004091540650915506609156067091570658
:101680008091580690915906A0915A06B0915B0638
:10169000481759076A077B07F1F180914607909137
:1016A0004707A0914807B0914907409140075091E2
:1016B000410760914207709143078A019B010851DD
:1016C0001C4F2F4F3F4F081719072A073B0768F495
:1016D0008A019B010053184F2F4F3F4F08171907DE
:1016E0002A073B0708F4E1E0F1E08A019B01085E6C
:1016F00013402109310980179107A207B30758F455
:10170000405D57406109710984179507A607B7071F
:1017100008F4E1E0F1E0F093A205E093A1051F9148
:101720000F9108950F931F934A9923C040916A0621
:1017300050916B0660E070E0809178069091790698
:10174000A0917A06B0917B06481759076A077B0774
:1017500080F081E000917C0610917D0620917E064C
:1017600030917F06401751076207730718F080E039
:1017700001C081E01F910F9108954F925F926F9287
:101780007F928F929F92AF92BF92CF92DF92EF9211
:10179000FF920F931F930091B7061091B806209106
:1017A000B9063091BA06480159014091DF065091BF
:1017B000E0066091E1067091E206E7EBF6E0AFED3E
:1017C000B6E06A017B0141905190619071904016A2
:1017D00051066206730610F4930182018414950485
:1017E000A604B70410F4530142014D905D906D9032
:1017F0007D90441655066606770610F4B301A201E3
:10180000C414D504E604F70410F47301620186E001
:10181000EF3DF807C1F600936C0610936D06209318
:101820006E0630936F068092B0069092B106A09239
:10183000B206B092B3064093190750931A0760930B
:101840001B0770931C07C0922E07D0922F07E092BF
:101850003007F0923107801A910AA20AB30A970161
:101860008601041B150B260B370BC901B80108159F
:1018700019052A053B0510F4C501B4011F910F910C
:10188000FF90EF90DF90CF90BF90AF909F908F90A0
:101890007F906F905F904F9008950E94BD0B653FC1
:1018A00071408105910540F580916C0690916D061F
:1018B000A0916E06B0916F0680379741A105B105E2
:1018C000D8F08091190790911A07A0911B07B09149
:1018D0001C0780379741A105B10570F081E0409168
:1018E0002E0750912F0760913007709131074934CE
:1018F00051476105710508F080E00895CF93DF93AB
:10190000EB01F90112821382148215821182108276
:10191000978386837187608753874287BC016F5F97
:101920007F4F8FEF9FE70E94A92475876487BE01D0
:101930006F5F7F4F8FEF9FE30E94A924CB01AA27FF
:1019400097FDA095BA2F86879787A08BB18BDF91E3
:10195000CF9108958F929F92AF92BF92CF92DF92D4
:10196000EF92FF92CF93DF93EB01FA016C01E12C30
:10197000F12CC61AD70AE108F10824853585C9017A
:10198000AA2797FDA095BA2F8C159D05AE05BF051A
:10199000B4F088279927821B930BAA2797FDA0955F
:1019A000BA2FC816D906EA06FB0684F0A681B781CD
:1019B000A70196010E9425254B015C010EC08824D9
:1019C0008A949FE7992EA12CB12C07C08824839478
:1019D00080E8982EAA24AA94BA2C228133814481CB
:1019E00055812C0D3D1D4E1D5F1D86859785A08957
:1019F000B18982179307A407B5074CF482839383B8
:101A0000A483B5836FEF7FE380E090E01DC0B095C5
:101A1000A095909581959F4FAF4FBF4F28173907DD
:101A20004A075B074CF482839383A483B58361E008
:101A300070EC8FEF9FEF08C022833383448355837C
:101A4000A085B1850E942525208131812C1B3D0B6D
:101A500042855385249F6001259FD00C349FD00C74
:101A60001124EE24D7FCE094FE2CD183C083680DB2
:101A7000791D8A1D9B1D6C0D7D1D8E1D9F1D20E8EF
:101A800030E040E050E00E94DF24213080E8380759
:101A90008FEF4807580724F421E030E84FEF5FEF5D
:101AA000DA01C901253631054105510524F084E6E6
:101AB00090E0A0E0B0E0DF91CF91FF90EF90DF9059
:101AC000CF90BF90AF909F908F900895FC011282AD
:101AD00013821482158208951F920F920FB60F92EF
:101AE00011242F933F934F935F938F939F93EF9383
:101AF000FF934091C0005091C60048718091A605A7
:101B000090E001968F7099272091A50530E082170B
:101B1000930739F08093A605FC01E755FA4F5083EF
:101B200001C042E04093A405FF91EF919F918F91F6
:101B30005F914F913F912F910F900FBE0F901F908B
:101B400018951F920F920FB60F9211248F939F93A7
:101B5000EF93FF939091A8058091A705981779F0CE
:101B60008091A70590E001968F7799278093A7052C
:101B7000FC01E754FA4F80818093C60005C0809134
:101B8000C1008F7D8093C100FF91EF919F918F9154
:101B90000F900FBE0F901F9018951092A8051092ED
:101BA000A7051092A6051092A50597FF04C022E094
:101BB0002093C0009F779093C5008093C40088E96C
:101BC0008093C10086E08093C20008959091A6059D
:101BD0008091A5059817A1F08091A50590E0019648
:101BE0008F7099278093A505FC01E755FA4F208156
:101BF0008091A40590E0982F8827820F911D089569
:101C000080E091E008959091A6058091A505981730
:101C100089F0E091A505F0E03196EF70FF27E755D8
:101C2000FA4F20818091A40590E0982F8827820F99
:101C3000911D089580E091E008952091A80530E07D
:101C40002F5F3F4F2F7733274091A70550E0241790
:101C50003507D1F3F901E754FA4F80832093A805A3
:101C60008091C10080628093C1000895CF93DF937B
:101C7000EC018991882319F00E941D0EFACFDF91A3
:101C8000CF910895CF93DF93FC018491EF012196CA
:101C9000882321F00E941D0EFE01F7CFDF91CF9126
:101CA00008958091A6052091A50590E04096821B9D
:101CB00091098F70992708958091A5058093A605B5
:101CC0000895CF93C82F0E9477088C0F911D909391
:101CD0003B0680933A06CF910895CF93DF93C0914E
:101CE0003A06D0913B060E9477088C179D0750F466
:101CF000C0913A06D0913B060E9477089C2F981B12
:101D0000892F01C080E0DF91CF910895349908C0F8
:101D1000809120078F3F31F0815F8093200702C0C0
:101D200010922007359908C0809121078F3F31F02C
:101D3000815F80932107089510922107089585E01F
:101D4000809301018093000186E480934F062A98D6
:101D50002B984298409860E080E00E947D0160E10D
:101D600080E391E00E945E0161E080E00E947D01DD
:101D700060E181E491E00C945E0187E480934F067A
:101D80002A982B984298409860E080E00E947D015C
:101D900060E182E591E00E945E0161E080E00E94E6
:101DA0007D0160E181E491E00C945E0184E1809327
:101DB0004F062A982B984298409860E080E00E9455
:101DC0006C0860E070E080E00E945A0A60E070E019
:101DD00081E00E945A0A60E080E00E947D0160E19B
:101DE00083E691E00E945E0161E080E00E947D0157
:101DF00060E184E791E00C945E0185E180934F06F9
:101E00002A982B984298409860E080E00E947D01DB
:101E100060E185E891E00E945E0161E080E00E945F
:101E20007D0160E186E991E00C945E0182E380939C
:101E30004F062A982B984298409860E080E00E94D4
:101E40007D0160E187EA91E00E945E0161E080E04F
:101E50000E947D0160E188EB91E00C945E0183E3D8
:101E600080934F062A982B984298409860E080E033
:101E70000E947D0160E189EC91E00E945E0161E0D9
:101E800080E00E947D0160E188EB91E00C945E01AE
:101E900084E380934F062A982B984298409860E0FC
:101EA00080E00E947D0160E18AED91E00E945E0188
:101EB00061E080E00E947D0160E188EB91E00C949C
:101EC0005E018CE380934F062A9A2B98429A4098A1
:101ED00060E080E00E947D0160E18BEE91E00E9475
:101EE0005E0161E080E00E947D0160E188EB91E0AD
:101EF0000C945E018DE380934F062A982B9A4298AA
:101F0000409A60E080E00E947D0160E18CEF91E00A
:101F10000E945E0161E080E00E947D0160E188EB4B
:101F200091E00C945E0181E580934F062A982B98EE
:101F30004298409860E080E00E947D0160E18DE081
:101F400092E00E945E0161E080E00E947D0160E11C
:101F500088EB91E00C945E018BE580934F062A9804
:101F60002B984298409860E080E00E947D0160E1FB
:101F70008EE192E00E945E0161E080E00E947D01BE
:101F800060E188EB91E00C945E018CE580934F0654
:101F90002A982B984298409860E080E00E947D014A
:101FA00060E18FE292E00E945E0161E080E00E94C9
:101FB0007D0160E188EB91E00C945E018DE58093FA
:101FC0004F062A982B984298409860E080E00E9443
:101FD0007D0160E180E492E00E945E0161E080E0CA
:101FE0000E947D0160E188EB91E00C945E018EE53A
:101FF00080934F062A982B984298409860E080E0A2
:102000000E947D0160E181E592E00E945E0161E055
:1020100080E00E947D0160E188EB91E00C945E011C
:102020008FE580934F062A982B984298409860E05D
:1020300080E00E947D0160E182E692E00E945E0104
:1020400061E080E00E947D0160E188EB91E00C940A
:102050005E0180910101992787FD9095A92FB92FE5
:1020600082319105F8F4FC01E25CFF4F0C94FE24F0
:102070000C94160F0C942F0F0C94480F0C94610FB6
:102080000C947A0F0C949F0E0C94BD0E0C94930F2D
:102090000C94AC0F0C94C50F0C94DE0F0C94F70F3E
:1020A0000C94101008950F931F9380917C069091CB
:1020B0007D06A0917E06B0917F06909345078093A0
:1020C0004407009154061091550620915606309110
:1020D0005706409158065091590660915A067091E2
:1020E0005B06041715072607370749F410924607C1
:1020F0001092470710924807109249072DC09C0183
:10210000AD0144275527A0E1B7E20E941A2520918E
:1021100078063091790640917A0650917B060E94AC
:10212000BD24AAE0B0E00E941A25613A26E87207B1
:1021300021E082079105D0F600EA16E821E030E0C0
:10214000061B170B280B390B009346071093470704
:1021500020934807309349071F910F9108950F93DB
:102160001F9320913E0730913F07A0E1B7E20E9404
:10217000042520916A0630916B06205D374040E0CF
:1021800050E00E94BD24AAE0B0E00E941A258B0115
:102190009C01013A86E8180781E02807310548F4D8
:1021A00060EA76E881E090E0601B710B820B930B94
:1021B00003C060E070E0CB011F910F910895CF92B2
:1021C000DF92EF92FF920F931F93CF93DF93809153
:1021D0006A0690916B0620913E0730913F07285781
:1021E0003C4E8217930730F48858934190933F07F1
:1021F00080933E07C0904007D0904107E09042078F
:10220000F09043070E94AF106C157D058E059F0569
:1022100040F4609340077093410780934207909386
:1022200043070091540610915506209156063091AF
:102230005706409158065091590660915A06709180
:102240005B06C0913E07D0913F070417150726078C
:10225000370761F4CE01A0E0B0E08093540690937C
:102260005506A0935606B09357062EC09E01A4E6CD
:10227000B0E00E9404256B017C01609140077091E1
:102280004107809142079091430728EE33E040E0F8
:1022900050E00E94BD24DA01C90124E630E040E0AC
:1022A00050E0281B390B4A0B5B0BC701B6010E949B
:1022B000BD24209354063093550640935606509300
:1022C0005706CE01A0E0B0E08093580690935906DF
:1022D000A0935A06B0935B06DF91CF911F910F91A7
:1022E000FF90EF90DF90CF9008952F923F924F9202
:1022F0005F926F927F928F929F92AF92BF92CF9296
:10230000DF92EF92FF920F931F93CF93DF93CDB79E
:10231000DEB766970FB6F894DEBF0FBECDBF6091F3
:102320007C0670917D0680917E0690917F0640909C
:1023300078065090790660907A0670907B0628EEB9
:10234000C22E23E0D22EE12CF12CA70196010E948F
:10235000BD24122F032F342E252E34E6832E912CEC
:10236000A12CB12CA50194010E94BD245F934F9331
:102370003F932F932F923F920F931F93C301B2016C
:10238000A70196010E94BD24122F032F742E652EE3
:10239000A50194010E94BD245F934F933F932F9317
:1023A0006F927F920F931F9383E792E09F938F9397
:1023B0008E010F5F1F4F1F930F930E94E7260E940D
:1023C000531080913E0790913F0728EE33E0B9010A
:1023D0000E949524762E672E8090400790904107AA
:1023E000A0904207B0904307809144079091450721
:1023F000B9010E9495246D8B7E8B60914607709188
:10240000470780914807909149070FB6F894DEBFBF
:102410000FBECDBF81149104A104B104A1F120909D
:10242000540630905506409056065090570620911D
:1024300058063091590640915A0650915B06221673
:10244000330644065506F9F0409A2B9AA7019601E7
:102450000E94BD241F922F933E893F938D898F93B5
:10246000C501B401A70196010E94BD241F922F93BC
:102470006F927F9281E992E09F938F931F930F93C6
:102480000E94E7260EC03E893F938D898F936F92FD
:102490007F9286EA92E09F938F931F930F930E94FF
:1024A000E7260FB6F894DEBF0FBECDBF60E080E038
:1024B0000E947D0160E1C8010E945E0166960FB630
:1024C000F894DEBF0FBECDBFDF91CF911F910F916A
:1024D000FF90EF90DF90CF90BF90AF909F908F9044
:1024E0007F906F905F904F903F902F9008959BE06A
:1024F00090934F06429A2A9A882331F10E94AB08A2
:102500000E940B090E943C09409126075091270721
:10251000609124077091250727E037E0809122071A
:10252000909123070E947E0C40912C0750912D071B
:1025300060912A0770912B0720E936E080912807E7
:10254000909129070E947E0C0C9475118F929F9296
:10255000AF92BF92CF92DF92EF92FF920F931F93B1
:10256000CF93DF93CDB7DEB765970FB6F894DEBF94
:102570000FBECDBF80913E0790913F0768EE73E09C
:102580000E949524062FB72E6091780670917906E7
:1025900080917A0690917B0648EEC42E43E0D42EBB
:1025A000E12CF12CA70196010E94BD24A22E60917E
:1025B0005406709155068091560690915706A701D2
:1025C00096010E94BD24922E6091400770914107B0
:1025D0008091420790914307A70196010E94BD2474
:1025E000122F60917C0670917D0680917E069091FD
:1025F0007F06A70196010E94BD24822E6091580695
:102600007091590680915A0690915B06A701960138
:102610000E94BD2460E080E02D8B0E947D018091AE
:102620005C061F928F931F929F921F92AF92BF9250
:102630000F9359EBC52E52E0D52EDF92CF92CE01EB
:1026400001967C01FF928F930E94E72660E1C7010B
:102650000E945E0161E080E00E947D0180915D0644
:102660001F928F931F922D892F931F928F921F92EB
:102670001F93DF92CF92FF92EF920E94E72660E1D4
:10268000C7010E945E010FB6F894DEBF0FBECDBF3A
:1026900065960FB6F894DEBF0FBECDBFDF91CF9128
:1026A0001F910F91FF90EF90DF90CF90BF90AF9070
:1026B0009F908F900895419A60E080E00E947D0194
:1026C00060E181ED92E00E945E0161E080E00E94A5
:1026D0007D0160E182EE92E00C945E010F931F9306
:1026E000CF93DF93CDB7DEB764970FB6F894DEBF14
:1026F0000FBECDBF80914F069CEE980F923058F4DC
:102700004A9914C04B9912C081E00E9477128EE161
:102710000E94610E08C08B3049F44A9902C04B9B5D
:1027200005C00E94D60E81E080935807809158071B
:10273000811183C080914F068A3009F07EC04A998A
:102740007CC0349936C060E080E00E947D0160E189
:1027500083EF92E00E945E0161E080E00E947D01D3
:102760000E94BD0B7F936F9384E093E09F938F93C0
:102770008E010F5F1F4F1F930F930E94E72660E1AA
:10278000C8010E945E012FEF8FE790E72150804043
:102790009040E1F700C000000E944D0C0F900F9098
:1027A0000F900F900F900F90882329F10E94D60E62
:1027B0000EC0359BC8CF369BC6CF379BC4CF0E9477
:1027C0006D0E882309F4BFCF38C0359903C0349B00
:1027D000FECFFBCF369BFBCF379BF9CF2FEF8FE997
:1027E00095E0215080409040E1F700C0000081E07A
:1027F0008093580722C00E945B132FEF8FE790E76A
:10280000215080409040E1F700C00000439A2FEF34
:102810008FEB98EA215080409040E1F700C0000023
:10282000349BFECF359BFCCF369BFACF379BF8CF3E
:10283000419843988FE00E94610E80915807811162
:102840003AC0349B06C0359B04C0369B02C0379902
:1028500032C080914F06843129F436990AC00E9413
:10286000FD0E1AC0853129F4379903C00E94D60E97
:1028700013C08091010187FD12C0369906C08F5F99
:10288000823144F01092010107C0379908C081508D
:1028900008F481E18093010181E0809358079091D1
:1028A000000180910101981731F00E942910809158
:1028B000010180930001349B09C0359B07C0369B02
:1028C00005C0379B03C0109258073BC08091580742
:1028D0008130B1F480914F06823390F0379910C067
:1028E00036990EC08FEF80930101809300010E9402
:1028F000D60E0E94DF100E94AB0882E0809358073A
:1029000080915807813081F480914F068451823044
:1029100058F4379909C0369907C0109201010E94F6
:10292000291082E08093580780915807882349F046
:102930002FEF8FEC92E0215080409040E1F700C0F3
:10294000000064960FB6F894DEBF0FBECDBFDF91D6
:10295000CF911F910F91089560E08FE00E947D015B
:1029600061E080E591E00E945E0161E080E00E940C
:102970007D0160E184E193E00E945E010E94A60A6D
:1029800061E080E00E947D0160E185E293E00E94C9
:102990005E012FEF8FE398E3215080409040E1F7F4
:1029A00000C000000C949F0E9F92AF92BF92CF92F6
:1029B000DF92EF92FF920F931F93CF93DF93CDB7E8
:1029C000DEB766970FB6F894DEBF0FBECDBF162FE9
:1029D000D82EC22EB32EA42E952E60E080E04A9908
:1029E00046C07D8B9E8B0E947D010E944D0C9E01F6
:1029F0002F5F3F4F79017D899E89882339F09F930E
:102A0000DF927F931F9386E393E006C09F93DF924C
:102A10007F931F9386E493E09F938F93FF92EF92AF
:102A20000E94E7260FB6F894DEBF0FBECDBF60E16F
:102A3000C7010E945E011F920F939F92AF92BF92B7
:102A4000CF9286E593E09F938F93FF92EF920E943F
:102A5000E72661E080E00E947D0160E1C7010E94FD
:102A60005E010FB6F894DEBF0FBECDBF13C00E944B
:102A70007D0160E187E693E00E945E0161E080E015
:102A80000E947D0160E188E793E00E945E018FE093
:102A90000E94610E66960FB6F894DEBF0FBECDBFE2
:102AA000DF91CF911F910F91FF90EF90DF90CF902A
:102AB000BF90AF909F9008950F931F93CF93DF9394
:102AC000CDB7DEB72A970FB6F894DEBF0FBECDBFE5
:102AD00080912107882381F08F3F11F49AE001C093
:102AE00091E080916806981720F4891B809368060E
:102AF00003C0811110926806809120078823C9F0D5
:102B00008F3F11F45AE001C051E040916806242F34
:102B100030E08FEF90E0851B91092817390724F4E6
:102B2000450F4093680605C04F3F19F08FEF809323
:102B30006806809168061F928F9389E893E09F93BF
:102B40008F938E010F5F1F4F1F930F930E94E726F5
:102B500061E080E00E947D0164E0C8010E945E01A6
:102B600061E084E00E947D014AE06FEF8091680699
:102B70000E94850261E08EE00E947D0162E086ECA9
:102B800091E00E945E01809168060E94E5090F9025
:102B90000F900F900F900F900F902A960FB6F89409
:102BA000DEBF0FBECDBFDF91CF911F910F91089572
:102BB0000F931F93CF93DF93CDB7DEB72A970FB64E
:102BC000F894DEBF0FBECDBF80912107882381F02E
:102BD0008F3F11F49AE001C091E080916906981747
:102BE00020F4891B8093690603C081111092690645
:102BF000809120078823C9F08F3F11F45AE001C06B
:102C000051E040916906242F30E08FEF90E0851B62
:102C100091092817390724F4450F4093690605C028
:102C20004F3F19F08FEF80936906809169061F92DC
:102C30008F9389E893E09F938F938E010F5F1F4FCF
:102C40001F930F930E94E72661E080E00E947D01C0
:102C500064E0C8010E945E0161E084E00E947D01A1
:102C60004AE06FEF809169060E94850261E08EE084
:102C70000E947D0162E086EC91E00E945E018091FD
:102C800069060E94E8090F900F900F900F900F9027
:102C90000F902A960FB6F894DEBF0FBECDBFDF911E
:102CA000CF911F910F9108950F931F93CF93DF93AF
:102CB000CDB7DEB72A970FB6F894DEBF0FBECDBFF3
:102CC000809121078823F1F08F3F19F480ED97E080
:102CD00002C088EE93E020916A0630916B06AC0149
:102CE000485F5D4A4217530738F4281B390B30936D
:102CF0006B0620936A0606C088E092E590936B0607
:102D000080936A0680912007882341F18F3F19F450
:102D100020ED37E002C028EE33E0E0916A06F09142
:102D20006B06AF0160E070E088EE9DEFA0E0B0E0E0
:102D3000821B930BA109B109481759076A077B0742
:102D40003CF42E0F3F1F30936B0620936A0606C09B
:102D500088EE9DEF90936B0680936A0680916A06D9
:102D600090916B0668EE73E00E9495247F936F93B9
:102D70008FE893E09F938F938E010F5F1F4F1F93F8
:102D80000F930E94E72661E087E00E947D0163E0E7
:102D9000C8010E945E010F900F900F900F900F904E
:102DA0000F902A960FB6F894DEBF0FBECDBFDF910D
:102DB000CF911F910F9108950F931F93CF93DF939E
:102DC000CDB7DEB72A970FB6F894DEBF0FBECDBFE2
:102DD00080912107882379F08F3F11F48AE001C0A8
:102DE00081E090915B07891720F4981B90935B0713
:102DF00002C010925B07809120078823B9F08F3FB3
:102E000011F44AE001C041E050915B07252F30E00A
:102E10008FEF90E0841B91092817390724F4450FA0
:102E200040935B0703C08FEF80935B0780915B0744
:102E30001F928F9386E993E09F938F938E010F5F8C
:102E40001F4F1F930F930E94E72661E080E00E94CE
:102E50007D0164E0C8010E945E0161E084E00E949F
:102E60007D014AE06FEF80915B070E94850261E07F
:102E70008EE00E947D0162E086EC91E00E945E019E
:102E800060915B0770E080E00E945A0A0F900F90FB
:102E90000F900F900F900F902A960FB6F894DEBF08
:102EA0000FBECDBFDF91CF911F910F9108950F936A
:102EB0001F93CF93DF93CDB7DEB72A970FB6F89461
:102EC000DEBF0FBECDBF80912107882379F08F3FF1
:102ED00011F48AE001C081E090915907891720F42C
:102EE000981B9093590702C01092590780912007B0
:102EF0008823B9F08F3F11F44AE001C041E05091BE
:102F00005907252F30E08FEF90E0841B9109281797
:102F1000390724F4450F4093590703C08FEF80937E
:102F20005907809159071F928F9386E993E09F93E9
:102F30008F938E010F5F1F4F1F930F930E94E72601
:102F400061E080E00E947D0164E0C8010E945E01B2
:102F500061E084E00E947D014AE06FEF80915907B3
:102F60000E94850261E08EE00E947D0162E086ECB5
:102F700091E00E945E016091590770E081E00E943B
:102F80005A0A0F900F900F900F900F900F902A9663
:102F90000FB6F894DEBF0FBECDBFDF91CF911F916A
:102FA0000F9108950F931F93CF93DF93CDB7DEB7A3
:102FB0002A970FB6F894DEBF0FBECDBF80912107D0
:102FC0008823F1F08F3F19F480ED97E002C088EE7E
:102FD00093E020913E0730913F07AC014053584F9A
:102FE0004217530738F4281B390B30933F072093BF
:102FF0003E0706C080ED97E090933F0780933E0721
:1030000080912007882311F18F3F19F480ED97E01C
:1030100002C088EE93E040913E0750913F07209117
:103020006A0630916B0628583341B901681B790B49
:103030004617570738F4840F951F90933F078093E6
:103040003E0704C030933F0720933E0780913E0720
:1030500090913F0768EE73E00E9495247F936F93F1
:103060008FE893E09F938F938E010F5F1F4F1F9305
:103070000F930E94E72661E087E00E947D0163E0F4
:10308000C8010E945E010E94DF100F900F900F9008
:103090000F900F900F902A960FB6F894DEBF0FBED8
:1030A000CDBFDF91CF911F910F910895809121079E
:1030B0008823D9F08F3F19F420ED37E002C028EEC5
:1030C00033E080913E0790913F07A901485F5D4A38
:1030D0004817590718F4821B930B02C088E092E549
:1030E00090933F0780933E0702C020E030E080913C
:1030F0002007882311F18F3F19F420ED37E002C03B
:1031000028EE33E040913E0750913F0780916A06D8
:1031100090916B0688589341BC01621B730B461754
:10312000570738F4420F531F50933F0740933E0711
:1031300004C090933F0780933E0780913E07909193
:103140003F07A0E0B0E08093540690935506A0930B
:103150005606B09357068093580690935906A0934D
:103160005A06B0935B06232B51F080E00E94771241
:1031700060E080E00E946C088AE00C94610E089583
:103180004F925F926F927F928F929F92AF92BF9277
:10319000EF92FF920F931F93CF93DF93CDB7DEB7DC
:1031A0002A970FB6F894DEBF0FBECDBF80912107DE
:1031B000882359F18F3F19F480ED97E002C088EE23
:1031C00093E0409140075091410760914207709110
:1031D0004307A0E0B0E084179507A607B70768F497
:1031E000481B590B6A0B7B0B4093400750934107D8
:1031F000609342077093430708C0109240071092F3
:1032000041071092420710924307809120078823BC
:1032100099F18F3F19F400ED17E002C008EE13E0BA
:103220008090400790904107A0904207B0904307DC
:103230000E94AF1020E030E02B013C01401A510AFF
:10324000620A730A84149504A604B70468F4800E15
:10325000911EA21EB31E8092400790924107A09239
:103260004207B092430708C060934007709341073C
:103270008093420790934307609140077091410704
:103280008091420790914307E8EE8E2EE3E09E2E58
:10329000A12CB12CA50194010E94BD241F922F9353
:1032A0008FE893E09F938F938E010F5F1F4F1F93C3
:1032B0000F930E94E72661E087E00E947D0163E0B2
:1032C000C8010E945E01E0903E07F0903F07970121
:1032D000A4E6B0E00E9404252B013C016091400768
:1032E000709141078091420790914307A501940195
:1032F0000E94BD24DA01C90124E630E040E050E03C
:10330000281B390B4A0B5B0BC301B2010E94BD2481
:103310002093540630935506409356065093570613
:10332000C701A0E0B0E08093580690935906A0939F
:103330005A06B0935B060F900F900F900F900F906E
:103340000F902A960FB6F894DEBF0FBECDBFDF9167
:10335000CF911F910F91FF90EF90BF90AF909F90F2
:103360008F907F906F905F904F9008952F923F9233
:103370004F925F926F927F928F929F92AF92BF9285
:10338000CF92DF92EF92FF920F931F93CF93DF9331
:10339000CDB7DEB764970FB6F894DEBF0FBECDBFD2
:1033A0000E94920B882309F181E080934F06419A95
:1033B000439A2A982B984298409860E080E00E94B7
:1033C0007D0160E18BE993E00E945E0161E080E0B5
:1033D0000E947D0160E14A9903C08CEA93E002C03B
:1033E0008DEB93E00E945E016CC080915A078111C1
:1033F00060C00E94751160917C0670917D0680917D
:103400007E0690917F0640907806509079066090F5
:103410007A0670907B06F8EE8F2EF3E09F2EA12C9B
:10342000B12CA50194010E94BD24122F032F342E2C
:10343000252EA4E6CA2ED12CE12CF12CA701960151
:103440000E94BD245F934F933F932F932F923F92FF
:103450000F931F93C301B201A50194010E94BD24E3
:10346000122F032FB42EA52EA70196010E94BD2472
:103470005F934F933F932F93AF92BF920F931F93FE
:1034800083E792E09F938F938E010F5F1F4F1F93EF
:103490000F930E94E72661E080E00E947D0160E1D9
:1034A000C8010E945E010FB6F894DEBF0FBECDBF0B
:1034B00002C00E94A6120E946D0E811102C00E94DD
:1034C000100B64960FB6F894DEBF0FBECDBFDF9130
:1034D000CF911F910F91FF90EF90DF90CF90BF9011
:1034E000AF909F908F907F906F905F904F903F90A4
:1034F0002F9008950F931F93CF93DF93CDB7DEB72F
:103500002A970FB6F894DEBF0FBECDBF809121077A
:103510008823C9F08F3F19F48AE090E002C081E06F
:1035200090E020915E0630915F068217930738F491
:10353000281B390B30935F0620935E0604C010925F
:103540005F0610925E0680912007882301F18F3F6D
:1035500019F48AE090E002C081E090E040915E06BC
:1035600050915F062091620630916306B901681B95
:10357000790B4617570738F4840F951F90935F0611
:1035800080935E0604C030935F0620935E068091B0
:103590005F068F9380915E068F938EEC93E09F93EE
:1035A0008F938E010F5F1F4F1F930F930E94E7268B
:1035B00061E086E00E947D0164E0C8010E945E0136
:1035C0000E948F0960E070E080E00E945A0A60E08B
:1035D00070E081E00E945A0A0F900F900F900F90B8
:1035E0000F900F902A960FB6F894DEBF0FBECDBF96
:1035F000DF91CF911F910F9108950F931F93CF9358
:10360000DF93CDB7DEB72A970FB6F894DEBF0FBEB3
:10361000CDBF80912107882301F18F3F19F48AE003
:1036200090E002C081E090E0409162065091630614
:1036300020915E0630915F06B901681B790B641713
:10364000750738F4481B590B509363064093620684
:1036500004C030936306209362068091200788237C
:10366000F1F08F3F19F48AE090E002C081E090E031
:10367000409162065091630620E137E2B901681B70
:10368000790B4617570738F4840F951F90936306FC
:103690008093620604C03093630620936206809193
:1036A00063068F93809162068F938EEC93E09F93D5
:1036B0008F938E010F5F1F4F1F930F930E94E7267A
:1036C00061E086E00E947D0164E0C8010E945E0125
:1036D0000E948F0964E670E080E00E945A0A60E070
:1036E00070E081E00E945A0A0F900F900F900F90A7
:1036F0000F900F902A960FB6F894DEBF0FBECDBF85
:10370000DF91CF911F910F9108950F931F93CF9346
:10371000DF93CDB7DEB72A970FB6F894DEBF0FBEA2
:10372000CDBF809121078823C9F08F3F19F48AE02B
:1037300090E002C081E090E0209160063091610647
:103740008217930738F4281B390B309361062093B6
:10375000600604C0109261061092600680912007F6
:10376000882301F18F3F19F48AE090E002C081E0E4
:1037700090E040916006509161062091640630917E
:103780006506B901681B790B4617570738F4840F93
:10379000951F909361068093600604C03093610684
:1037A00020936006809161068F93809160068F93CD
:1037B0008EEC93E09F938F938E010F5F1F4F1F93AB
:1037C0000F930E94E72661E086E00E947D0164E09D
:1037D000C8010E945E010E948F0960E070E080E0F5
:1037E0000E945A0A60E070E081E00E945A0A0F903D
:1037F0000F900F900F900F900F902A960FB6F8949D
:10380000DEBF0FBECDBFDF91CF911F910F91089505
:103810000F931F93CF93DF93CDB7DEB72A970FB6E1
:10382000F894DEBF0FBECDBF80912107882301F140
:103830008F3F19F48AE090E002C081E090E040916F
:103840006406509165062091600630916106B901C9
:10385000681B790B6417750738F4481B590B509394
:1038600065064093640604C03093650620936406A1
:10387000809120078823F1F08F3F19F48AE090E0CF
:1038800002C081E090E0409164065091650620E11D
:1038900037E2B901681B790B4617570738F4840FD4
:1038A000951F909365068093640604C03093650667
:1038B00020936406809165068F93809164068F93B0
:1038C0008EEC93E09F938F938E010F5F1F4F1F939A
:1038D0000F930E94E72661E086E00E947D0164E08C
:1038E000C8010E945E010E948F0960E070E080E0E4
:1038F0000E945A0A64E670E081E00E945A0A0F9022
:103900000F900F900F900F900F902A960FB6F8948B
:10391000DEBF0FBECDBFDF91CF911F910F910895F4
:103920000F931F93CF93DF93CDB7DEB72A970FB6D0
:10393000F894DEBF0FBECDBF809121078823C9F068
:103940008F3F19F48AE090E002C081E090E020917E
:103950006606309167068217930738F4281B390BE7
:10396000309367062093660604C010926706109293
:103970006606809120078823F1F08F3F19F48AE0D2
:1039800090E002C081E090E04091660650916706A9
:1039900020E83EE3B901681B790B4617570738F456
:1039A000840F951F909367068093660604C030933A
:1039B000670620936606809167068F93809166065E
:1039C0008F938EEC93E09F938F938E010F5F1F4F29
:1039D0001F930F930E94E72661E086E00E947D011D
:1039E00064E0C8010E945E010E948F0960E070E0FF
:1039F00080E00E945A0A60E070E081E00E945A0A6A
:103A00000F900F900F900F900F900F902A960FB677
:103A1000F894DEBF0FBECDBFDF91CF911F910F9104
:103A20000895CF92DF92EF92FF920F931F93CF935F
:103A3000DF93CDB7DEB769970FB6F894DEBF0FBE40
:103A4000CDBF80914F068A3009F05AC0B0E2CB2E2C
:103A5000BBE1DB2EBCE7EB2EBCE0FB2E2091700619
:103A6000309171064091720650917306C701B601FC
:103A70000E94BD2489019A0100938006109381065B
:103A80002093820630938306109284061092850656
:103A90001092860610928706209174063091750662
:103AA0004091760650917706C701B6010E94BD2469
:103AB00089019A01009388061093890620938A064B
:103AC00030938B0610928C0610928D0610928E0603
:103AD00010928F060E946D0E082F2091740630916F
:103AE0007506409176065091770660917006709148
:103AF000710680917206909173060E94D41444C19D
:103B0000863429F4349940C10E94AC143DC18734F5
:103B100089F4349939C18AE080934F06349BFECFF3
:103B2000359BFCCF369BFACF379BF8CF8FE00E94B6
:103B3000610E2AC1823319F40E945C1525C18333BA
:103B400019F40E94D81520C1843319F40E94541628
:103B50001BC18C3319F40E94DC1616C18D3319F485
:103B60000E94571711C1843119F40E94D2170CC159
:103B70008B3071F5349B02C0359918C040915406C2
:103B800050915506609156067091570680915806DF
:103B900090915906A0915A06B0915B0648175907B3
:103BA0006A077B0719F40E945618EEC0369906C0C2
:103BB000379904C081E080935A07E6C03799E4C082
:103BC000369BE2C010925A0780E00E947712DCC058
:103BD000853119F40E94C018D7C0813509F0BCC0E6
:103BE0006091010167506230C9F048F4662389F0A2
:103BF000613019F5809124079091250720C0643029
:103C0000B9F088F06530C9F480912C0790912D07A8
:103C100016C0809122079091230711C0809126073A
:103C2000909127070CC0809128079091290707C021
:103C300080912A0790912B0702C080E090E02091AC
:103C40002107222391F02F3F19F42AE030E002C02F
:103C500021E030E0A9014E5F5F47841795071CF013
:103C6000821B930B02C081E090E820912007222361
:103C700099F02F3F19F42AE030E002C021E030E053
:103C80004FEF5FE7421B530B841795071CF4820F1D
:103C9000931F02C08FEF9FE7623011F160F466233B
:103CA000B9F06130D1F5909325078093240725E082
:103CB000E1EEF3E02CC0643019F1D0F0653069F525
:103CC00090932D0780932C0725E0E6EEF3E01FC0CC
:103CD000909323078093220725E0EBEEF3E017C0D3
:103CE000909327078093260725E0E0EFF3E00FC0CD
:103CF000909329078093280725E0E5EFF3E007C0BC
:103D000090932B0780932A0725E0EAEFF3E0DE018A
:103D1000559601900D922A95E1F79F938F93CE01CE
:103D200045969F938F9383ED93E09F938F938E019E
:103D30000F5F1F4F1F930F930E94E72661E080E003
:103D40000E947D0160E1C8010E945E010FB6F894F7
:103D5000DEBF0FBECDBF18C08B3519F40E947A1A92
:103D600013C08C3519F40E94FD1A0EC08D3519F45C
:103D70000E94851B09C08E3519F40E94081C04C0DE
:103D80008F3511F40E94901C80914F068B3011F4F6
:103D90000E94B61969960FB6F894DEBF0FBECDBF6C
:103DA000DF91CF911F910F91FF90EF90DF90CF9017
:103DB000089580914F06089580934F060895CF93FC
:103DC000DF93FC018491EF012196882321F00E946A
:103DD0001D0EFE01F7CFDF91CF91089586E192E0AD
:103DE0000C94DF1E8F929F92AF92BF92CF92DF9280
:103DF000EF92FF920F931F93CF93DF93CDB7DEB770
:103E0000C058D1090FB6F894DEBF0FBECDBF0E94D7
:103E1000E60DF82E082F192F10FD5CC513FF04C006
:103E20008FEF93E00E94360E12FF04C08AE094E008
:103E30000E94360E11FF04C087E194E00E94360E06
:103E40002EE3F2120EC08FE0E82FF0E0E35CF94FB2
:103E500010828150C9F781E080933C06F0923D06C4
:103E60002BC5E0913C060115110521F00D3011051F
:103E700009F01AC5EE2EF12C30E1E316F10408F03A
:103E800044C080913D068E3309F03FC060E571E08B
:103E90008DE396E00E94B2268C010097B1F182E09A
:103EA000E816F10490F180913E06833509F0BAC31B
:103EB00065E274E0C8010E94B726892B49F560E5E8
:103EC00071E080E090E00E94B226FC0101900020A9
:103ED000E9F7BF0161507109681B790B0FEF10E022
:103EE00020E030E0AE014F5F5F4F0E94E10787FFA7
:103EF00003C08CE192E09BC08981809368060E9498
:103F0000E5090E94AB080E94EE1EEDE3F6E0C6C490
:103F100069E274E0C8010E94B726892B19F560E5B3
:103F200071E080E090E00E94B226FC010190002048
:103F3000E9F7BF0161507109681B790B0FEF10E0C1
:103F400020E030E0AE014F5F5F4F0E94E10787FF46
:103F500003C086E092E06BC08981809369060E946D
:103F6000E809CFCF6DE274E0C8010E94B726892B23
:103F700089F560E571E080E090E00E94B226FC01E6
:103F800001900020E9F7BF0161507109681B790BAE
:103F900001E410E025E130E0AE014F5F5F4F0E9489
:103FA000E10787FF03C082EF91E041C049815A8158
:103FB00028EE33E0429FC001439F900D529F900D29
:103FC000112490936B0680936A060E94AB080E94AE
:103FD000DF1099CF61E374E0C8010E94B726892BF6
:103FE000C9F560E571E080E090E00E94B2267C01B6
:103FF000FC0101900020E9F73197E81BF90B809153
:104000006A0690916B0668EE73E00E9495246550F5
:1040100071098B0125E130E0AE014F5F5F4F6E2FDC
:10402000C7010E94E10787FF05C084EE91E00E946E
:10403000DF1E6BCF49815A8128EE33E0429FC001D9
:10404000439F900D529F900D112490933F078093B2
:104050003E073DC066E374E0C8010E94B726892B85
:10406000D9F560E571E080E090E00E94B2266C0135
:104070000E94AF10F60101900020E9F79F01215046
:1040800031097901EC18FD0828EE33E040E050E0FA
:104090000E94BD24890120E030E0AE014F5F5F4FF8
:1040A0006E2DC6010E94E10787FF03C086ED91E0F7
:1040B000BECFA981BA8128EE33E00E941325609318
:1040C00040077093410780934207909343070E94F3
:1040D000DF100E940B0917CF6BE374E0C8010E9448
:1040E000B726892B39F560E571E080E090E00E9409
:1040F000B226FC0101900020E9F7BF01615071096F
:10410000681B790B01E010E020E030E0AE014F5F6A
:104110005F4F0E94E10787FF03C088EC91E087CFE3
:1041200089819A81892B19F42A984298ECCE2A9A8F
:10413000429AE9CE60E474E0C8010E94B726892B58
:1041400039F560E571E080E090E00E94B226FC0164
:1041500001900020E9F7BF0161507109681B790BDC
:1041600001E010E020E030E0AE014F5F5F4F0E94C1
:10417000E10787FF03C089EB91E059CF89819A81DC
:10418000892B19F42B984098BECE2B9A409ABBCE1F
:1041900065E474E0C8010E94B726892B09F560E543
:1041A00071E080E090E00E94B226FC0101900020C6
:1041B000E9F7BF0161507109681B790B0FEF10E03F
:1041C00020E030E0AE014F5F5F4F0E94E10787FFC4
:1041D00003C08AEA91E02BCF69817A8180E01FC217
:1041E0006AE474E0C8010E94B726892B01F560E5F6
:1041F00071E080E090E00E94B226FC010190002076
:10420000E9F7BF0161507109681B790B0FEF10E0EE
:1042100020E030E0AE014F5F5F4F0E94E10787FF73
:1042200003C08BE991E003CF69817A81F7C16FE424
:1042300074E0C8010E94B726892B21F560E571E082
:1042400080E090E00E94B226FC0101900020E9F796
:10425000BF0161507109681B790B0FEF1FE722E066
:1042600030E8AE014F5F5F4F0E94E10787FF03C058
:104270008CE891E0DCCE89819A819093230780932A
:104280002207D6C065E574E0C8010E94B726892BD5
:1042900021F560E571E080E090E00E94B226FC012B
:1042A00001900020E9F7BF0161507109681B790B8B
:1042B0000FEF1FE722E030E8AE014F5F5F4F0E9433
:1042C000E10787FF03C08DE791E0B1CE89819A8134
:1042D0009093250780932407ABC06BE574E0C80179
:1042E0000E94B726892B21F560E571E080E090E01F
:1042F0000E94B226FC0101900020E9F7BF01615045
:104300007109681B790B0FEF1FE722E030E8AE015F
:104310004F5F5F4F0E94E10787FF03C08EE691E089
:1043200086CE89819A81909327078093260780C043
:1043300061E674E0C8010E94B726892B21F560E58B
:1043400071E080E090E00E94B226FC010190002024
:10435000E9F7BF0161507109681B790B0FEF1FE787
:1043600022E030E8AE014F5F5F4F0E94E10787FF18
:1043700003C08FE591E05BCE89819A8190932907F4
:104380008093280755C067E674E0C8010E94B726ED
:10439000892B21F560E571E080E090E00E94B22673
:1043A000FC0101900020E9F7BF0161507109681B11
:1043B000790B0FEF1FE722E030E8AE014F5F5F4F50
:1043C0000E94E10787FF03C080E591E030CE89813C
:1043D0009A8190932B0780932A072AC06DE674E098
:1043E000C8010E94B726892B31F560E571E080E0B5
:1043F00090E00E94B226FC0101900020E9F7BF0185
:1044000061507109681B790B0FEF1FE722E030E85C
:10441000AE014F5F5F4F0E94E10787FF03C081E459
:1044200091E005CE89819A8190932D0780932C0786
:104430000E943C0968CD63E774E0C8010E94B7267A
:10444000892B21F560E571E080E090E00E94B226C2
:10445000FC0101900020E9F7BF0161507109681B60
:10446000790B00E81EE320E030E0AE014F5F5F4FC4
:104470000E94E10787FF03C08EE291E0D8CD8981D9
:104480009A8190935F0680935E06BDC06BE774E0EF
:10449000C8010E94B726892B21F560E571E080E014
:1044A00090E00E94B226FC0101900020E9F7BF01D4
:1044B00061507109681B790B00E81EE320E030E0D1
:1044C000AE014F5F5F4F0E94E10787FF03C08BE1A2
:1044D00091E0ADCD89819A819093610680936006C9
:1044E00092C063E874E0C8010E94B726892B51F599
:1044F00060E571E080E090E00E94B226FC0101904E
:104500000020E9F7BF0161507109681B790B00E8D1
:104510001EE320E030E0AE014F5F5F4F0E94E107F5
:1045200087FF03C088E091E082CD89819A819093D2
:104530006306809362060E94AB080E948F0964E6BE
:1045400070E067C06BE874E0C8010E94B726892B51
:1045500079F560E571E080E090E00E94B226FC0110
:1045600001900020E9F7BF0161507109681B790BC8
:1045700000E81EE320E030E0AE014F5F5F4F0E9495
:10458000E10787FF03C085EF90E051CD89819A81D3
:1045900090936506809364060E94AB080E948F0981
:1045A00060E070E080E00E945A0A64E670E036C085
:1045B00063E974E0C8010E94B726892B09F0A5CCF5
:1045C00060E571E080E090E00E94B226FC0101907D
:1045D0000020E9F7BF0161507109681B790B00E801
:1045E0001EE320E030E0AE014F5F5F4F0E94E10725
:1045F00087FF03C080EE90E01ACD89819A81909365
:104600006706809366060E94AB080E948F0960E0EF
:1046100070E080E00E945A0A60E070E081E00E9451
:104620005A0A71CC69E974E0C8010E94B726892B47
:10463000E1F580916A0690916B0668EE73E00E9446
:1046400095247F936F93809169061F928F93809139
:1046500068061F928F93809167068F9380916606FC
:104660008F93809165068F93809164068F938091DC
:1046700063068F93809162068F93809161068F937A
:10468000809160068F9380915F068F9380915E0684
:104690008F9380EA94E09F938F938E010F5F1F4F5B
:1046A0001F930F930E94E726D5C062E075E0C80112
:1046B0000E94B726892B81F580912D078F938091D9
:1046C0002C078F9380912B078F9380912A078F93CC
:1046D000809129078F93809128078F9380912707D6
:1046E0008F93809126078F93809125078F938091D8
:1046F00024078F93809123078F93809122078F93B4
:1047000088E095E09F938F938E010F5F1F4F1F935B
:104710000F930E94E7269EC06BE475E0C8010E94DB
:10472000B726892B09F09FC06091780670917906B1
:1047300080917A0690917B0624E6C22ED12CE12C42
:10474000F12CA70196010E94BD2449015A016091F4
:104750007C0670917D0680917E0690917F06A70170
:1047600096010E94BD2480915D061F928F938091D7
:104770005C061F928F93EAE0F0E0C901BF010E943E
:1047800095249F938F937F936F93C401BF010E94E1
:1047900095249F938F937F936F93609158067091A8
:1047A000590680915A0690915B0638EEC32E33E08D
:1047B000D32EE12CF12CA70196010E94BD241F925B
:1047C0002F936091540670915506809156069091F2
:1047D0005706A70196010E94BD241F922F93609156
:1047E0004607709147078091480790914907A701B4
:1047F00096010E94BD241F922F93809144079091AF
:10480000450708EE13E0B8010E9495247F936F934B
:104810006091400770914107809142079091430752
:10482000A70196010E94BD241F922F9380913E07FD
:1048300090913F07B8010E9495247F936F938EE477
:1048400095E09F938F938E010F5F1F4F1F930F93E0
:104850000E94E726C8010E94360E0FB6F894DEBF0C
:104860000FBECDBF52CB65E975E0C8010E94B726E7
:10487000892B29F40E949F0E0E94AC1444CB69E955
:1048800075E0C8010E94B726892B09F03ECB8AE06B
:104890000E94DC1E8FE00E94610E35CB119226E053
:1048A000ED34F207D9F708C081E08E0F80933C0603
:1048B000F0E0E35CF94FF08280913C06803151F4E6
:1048C0008FE0E82FF0E0E35CF94F10828150C9F7E8
:1048D00010923C06C058DF4F0FB6F894DEBF0FBEF3
:1048E000CDBFDF91CF911F910F91FF90EF90DF909F
:1048F000CF90BF90AF909F908F9008950E94EB094A
:104900000E94F21E0E9470050E946E130E947108A0
:10491000882321F00E94111D0E94740880914F0687
:10492000813071F30E944F08EBCFAA1BBB1B51E1F2
:1049300007C0AA1FBB1FA617B70710F0A61BB70B0F
:10494000881F991F5A95A9F780959095BC01CD01B4
:10495000089597FB072E16F4009407D077FD09D031
:104960000E94952407FC05D03EF4909581959F4FB9
:104970000895709561957F4F0895A1E21A2EAA1BA4
:10498000BB1BFD010DC0AA1FBB1FEE1FFF1FA217FF
:10499000B307E407F50720F0A21BB30BE40BF50BFC
:1049A000661F771F881F991F1A9469F76095709585
:1049B000809590959B01AC01BD01CF010895052E16
:1049C00097FB1EF400940E94F62457FD07D00E9426
:1049D000BD2407FC03D04EF40C94F624509540956A
:1049E000309521953F4F4F4F5F4F0895909580959B
:1049F000709561957F4F8F4F9F4F0895EE0FFF1F6A
:104A00000590F491E02D0994A29FB001B39FC001DD
:104A1000A39F700D811D1124911DB29F700D811DEA
:104A20001124911D08950E940425B7FF0895821B4B
:104A3000930B08950E940425A59F900DB49F900D9F
:104A4000A49F800D911D11240895B7FF0C941A2581
:104A50000E941A25821B930B0895DF93CF931F9317
:104A60000F939A9DF02D219FF00D8B9DF00D8A9D47
:104A7000E02DF10D039FF00D029FE00DF11D4E9D05
:104A8000E00DF11D5E9DF00D4F9DF00D7F936F9336
:104A9000BF92AF925F934F93D5010E9404258B0183
:104AA000AC01D7010E940425EB01E80FF91FD601E4
:104AB0000E947D252F913F91D6010E940425C60FAB
:104AC000D71FE81FF91FAF91BF910E947D252F913D
:104AD0003F910E940425C60FD71FE81FF91FD6017A
:104AE0000E940425E60FF71F9801BE01CF01112493
:104AF0000F911F91CF91DF9108950E940425460FD9
:104B0000571FC81FD91F08F431960895689401C033
:104B1000E894F92FF12B12F00C94BA25A0E0B0E044
:104B2000E4E9F5E20C942C26092E059422F40E9467
:104B30001626112392F4F0E80F26FFEFE094F0948C
:104B400000951095B094C094D094A194BF0ACF0A58
:104B5000DF0AEF0AFF0A0F0B1F0B0E94C52507FC97
:104B60000E941626CDB7DEB7ECE00C944826689478
:104B700001C0E8948F929F92CF93DF930E94C52546
:104B8000DF91CF919F908F90089588249924F4010C
:104B9000E401B0E49F93AA279A158B049C04ED05C9
:104BA000FE05CF05D007A10798F4AD2FDC2FCF2F3E
:104BB000FE2FE92D982C892E982F872F762F652F81
:104BC000542F432F322F2227B85031F7BF9127C0DF
:104BD0001B2EBF91BB27220F331F441F551F661F7B
:104BE000771F881F991F881C991CEE1FFF1FCC1F61
:104BF000DD1FAA1FBB1F8A149B04EC05FD05CE0513
:104C0000DF05A007B10748F08A189B08EC09FD09E9
:104C1000CE09DF09A00BB10B21601A94E1F62EF446
:104C20009401AF01BE01CD01000C0895609570950F
:104C30008095909530954095509521953F4F4F4FD9
:104C40005F4F6F4F7F4F8F4F9F4F08952F923F922F
:104C50004F925F926F927F928F929F92AF92BF928C
:104C6000CF92DF92EF92FF920F931F93CF93DF9338
:104C7000CDB7DEB7CA1BDB0B0FB6F894DEBF0FBE95
:104C8000CDBF09942A88398848885F846E847D84E2
:104C90008C849B84AA84B984C884DF80EE80FD80E4
:104CA0000C811B81AA81B981CE0FD11D0FB6F8945A
:104CB000DEBF0FBECDBFED0108950F93083090F019
:104CC000982F872F762F652F542F432F322F22278F
:104CD0000850F4CF220F331F441F551F661F771F44
:104CE000881F991F0A95B2F70F91089597FB10F846
:104CF000169400080F93083098F00850232F342F93
:104D0000452F562F672F782F892F902DF4CF05949C
:104D100097958795779567955795479537952795F3
:104D20000A95AAF70F9108952A0D3B1D4C1D5D1D94
:104D30006E1D7F1D801F911F08952A193B094C0984
:104D40005D096E097F09800B910B08950024A7FD72
:104D500000942A1730054005500560057005800550
:104D6000900508954DE456E00E94C0260895FB0189
:104D7000DC018D91019080190110D9F3990B0895F0
:104D8000FA01A191B081009719F41097E1F0CD01DB
:104D9000DC01CD010D90002011F4C00113C0FB0116
:104DA0002191222319F02015D9F7F3CFFB0121918E
:104DB000201519F41E92119606C02223C1F70D90FA
:104DC0000020A1F7D001FA01A193B0830895AEE0CD
:104DD000B0E0EDEEF6E20C9434260D891E8986E0F3
:104DE0008C831A8309838FEF9FE79E838D83AE01A7
:104DF000475E5F4F6F89788DCE0101960E9409272B
:104E0000EF81F885E00FF11F10822E96E4E00C94FC
:104E10005026ACE0B0E0EFE0F7E20C9426267C01EF
:104E20006B018A01FC0117821682838181FFBDC15B
:104E3000CE0101964C01F7019381F60193FD859116
:104E400093FF81916F01882309F4ABC1853239F456
:104E500093FD859193FF81916F01853229F4B7010C
:104E600090E00E941929E7CF512C312C20E020320C
:104E7000A0F48B3269F030F4803259F0833269F457
:104E800020612CC08D3239F0803339F4216026C086
:104E90002260246023C0286021C027FD27C030ED98
:104EA000380F3A3078F426FF06C0FAE05F9E300DE6
:104EB0001124532E13C08AE0389E300D1124332E56
:104EC00020620CC08E3221F426FD6BC1206406C026
:104ED0008C3611F4206802C0883641F4F60193FD47
:104EE000859193FF81916F018111C1CF982F9F7D93
:104EF0009554933028F40C5F1F4FFFE3F9830DC0E6
:104F0000833631F0833771F0833509F05BC022C0FE
:104F1000F801808189830E5F1F4F44244394512CF4
:104F2000540115C03801F2E06F0E711CF801A08029
:104F3000B18026FF03C0652D70E002C06FEF7FEFE8
:104F4000C5012C870E940E292C0183012C852F7707
:104F5000222E17C03801F2E06F0E711CF801A080FC
:104F6000B18026FF03C0652D70E002C06FEF7FEFB8
:104F7000C5012C870E9403292C012C852068222E34
:104F8000830123FC1BC0832D90E048165906B0F422
:104F9000B70180E290E00E9419293A94F4CFF5011C
:104FA00027FC859127FE81915F01B70190E00E9467
:104FB000192931103A94F1E04F1A51084114510463
:104FC00071F7E5C0843611F0893639F5F80127FF0D
:104FD00007C060817181828193810C5F1F4F08C07F
:104FE00060817181882777FD8095982F0E5F1F4F14
:104FF0002F76B22E97FF09C0909580957095619598
:105000007F4F8F4F9F4F2068B22E2AE030E0A401DF
:105010000E944B29A82EA81844C0853729F42F7E5A
:10502000B22E2AE030E025C0F22FF97FBF2E8F3656
:10503000C1F018F4883579F0B4C0803719F088379A
:1050400021F0AFC02F2F2061B22EB4FE0DC08B2DEA
:105050008460B82E09C024FF0AC09F2F9660B92E25
:1050600006C028E030E005C020E130E002C020E1C9
:1050700032E0F801B7FE07C06081718182819381BF
:105080000C5F1F4F06C06081718180E090E00E5F71
:105090001F4FA4010E944B29A82EA818FB2DFF77B3
:1050A000BF2EB6FE0BC02B2D2E7FA51450F4B4FEE0
:1050B0000AC0B2FC08C02B2D2E7E05C07A2C2B2DE9
:1050C00003C07A2C01C0752C24FF0DC0FE01EA0D2F
:1050D000F11D8081803311F4297E09C022FF06C0B2
:1050E0007394739404C0822F867809F0739423FD1F
:1050F00013C020FF06C05A2C731418F4530C571811
:10510000732C731468F4B70180E290E02C870E943E
:10511000192973942C85F5CF731410F4371801C036
:10512000312C24FF12C0B70180E390E02C870E944D
:1051300019292C8522FF17C021FF03C088E590E0C4
:1051400002C088E790E0B7010CC0822F867859F042
:1051500021FD02C080E201C08BE227FD8DE2B70194
:1051600090E00E941929A51438F4B70180E390E07B
:105170000E9419295A94F7CFAA94F401EA0DF11D5F
:105180008081B70190E00E941929A110F5CF33204A
:1051900009F451CEB70180E290E00E9419293A94B7
:1051A000F6CFF7018681978102C08FEF9FEF2C9693
:1051B000E2E10C944226DC01CB01FC01F999FECF1F
:1051C00006C0F2BDE1BDF89A319600B40D9241508F
:1051D0005040B8F70895DC01CB0103C02D910E9427
:1051E000F62841505040D0F70895262FF999FECF68
:1051F0001FBA92BD81BD20BD0FB6F894FA9AF99AF4
:105200000FBE01960895FC01059061507040011099
:10521000D8F7809590958E0F9F1F0895FC016150DF
:10522000704001900110D8F7809590958E0F9F1FC8
:1052300008950F931F93CF93DF93182F092FEB013E
:105240008B8181FD03C08FEF9FEF20C082FF10C0D4
:105250004E815F812C813D81421753077CF4E881A8
:10526000F9819F012F5F3F4F39832883108306C048
:10527000E885F985812F0995892B29F72E813F81B2
:105280002F5F3F4F3F832E83812F902FDF91CF9150
:105290001F910F910895FA01AA27283051F120316A
:1052A00081F1E8946F936E7F6E5F7F4F8F4F9F4FBA
:1052B000AF4FB1E03ED0B4E03CD0670F781F891FFC
:1052C0009A1FA11D680F791F8A1F911DA11D6A0FCA
:1052D000711D811D911DA11D20D009F468943F917D
:1052E0002AE0269F11243019305D3193DEF6CF017C
:1052F0000895462F4770405D4193B3E00FD0C9F742
:10530000F6CF462F4F70405D4A3318F0495D31FDAE
:105310004052419302D0A9F7EACFB4E0A695979501
:10532000879577956795BA95C9F7009761057105D7
:1053300008959B01AC010A2E069457954795379521
:105340002795BA95C9F7620F731F841F951FA01D7B
:065350000895F894FFCF60
:10535600FFFF01FFFFFFFF496E6974696E672E2E1E
:105366002E00414443204572726F72210053312E44
:105376002E2E004F4B202053322E2E2E004F4B0048
:105386002020202052756E20546573742020203E04
:105396000020202020202020202020202020202027
:1053A600200020202043616C6962726174652020B0
:1053B600203E004F323C20204F787967656E2020D2
:1053C60020202B004865202020202020202020207F
:1053D6002020202D004F3220202048656C69756DF5
:1053E600202020202B0048653C2020202020202043
:1053F60020202020202D0020204272696768746ECC
:105406006573732020202B002020202020202020C0
:10541600202020202020202D0020202020436F6ED9
:1054260074726173742020202B002020456D6572F4
:1054360067656E6379204F32202B002020536574F8
:10544600204F322076616C7665202B002020536534
:10545600742048652076616C7665202B005049449F
:105466002073657475702078313238202B00202027
:10547600536572766F31204D494E2020202B002037
:1054860020536572766F31204D41582020202B0025
:105496002020536572766F32204D494E2020202BF6
:1054A600002020536572766F32204D41582020200F
:1054B6002B002020202054696D6572312020202089
:1054C600202B0053313A25326C692E2530316C6918
:1054D6002053323A25326C692E2530316C692020F2
:1054E60000544D582532752F253275203E253275CC
:1054F6002F2532753C0045414E253275202020204F
:105506003E45414E2532753C007425303275632583
:105516003032752073742530327520762530337518
:105526000043616E27742063616C69627261746501
:10553600210053656E736F7273206661696C7572B4
:10554600652100204D617820646576696174696F14
:105556006E3A200020202020253575207556202003
:1055660020202000202020436865636B696E672E2B
:105576002E2E202000202020202020444F4E452182
:1055860020202020200053313A2025356C6975569D
:10559600202020203E0053313A2025356C6975566F
:1055A60020202020200053323A2025356C6975567C
:1055B60020202532647300506C656173652C20745D
:1055C60075726E206F6E2000796F757220636F6D35
:1055D60070726573736F7221002530337520002554
:1055E6003032752525002533752000202020456D95
:1055F600657267656E6379212020200020204F3276
:1056060020746F6F206869676821202000436F6DE2
:1056160070726573736F723A20204F4646002530CC
:105626003475002573202020253035642020202D58
:105636000053315F490053325F440053315F5000DD
:1056460053315F440053325F500053325F49003C90
:10565600214531204672616D65003C214532204F5F
:1056660076657272756E003C214533204F76657201
:10567600666C6F77003E5342003E5343003E5345EF
:10568600003E534F32003E534865003E53563100AC
:105696003E535632003E535331003E535332003E82
:1056A60053503150003E53503149003E535031441F
:1056B600003E53503250003E53503249003E535044
:1056C6003244003E5353314D494E003E5353324D02
:1056D600494E003E5353314D4158003E5353324DCF
:1056E6004158003E53544D52003E47434F4E4600EC
:1056F6003C53314D494E3A253034640D0A3C533201
:105706004D494E3A253034640D0A3C53314D4158CB
:105716003A253034640D0A3C53324D41583A25300F
:1057260034640D0A3C54494D45523A253035640DD2
:105736000A3C42523A253033640D0A3C43543A251A
:105746003033640D0A3C4F32454D3A253032640DF4
:105756000A003E47504944003C5031703A253033E8
:10576600640D0A3C5031693A253033640D0A3C50C9
:1057760031643A253033640D0A3C5032703A253094
:1057860033640D0A3C5032693A253033640D0A3CC5
:105796005032643A253033640D0A003E3F003C2007
:1057A600253032752F253032752C20253032752F55
:1057B600253032752C20253032752C202530327557
:1057C6002C20253032752E253031752C202530328F
:1057D600752E253031752C20253033642C2025304C
:0E57E60033640D0A003E5254003E5243000050
:00000001FF
