:100000000C9465000C9482000C9482000C94820085
:100010000C9482000C9482000C9482000C94820058
:100020000C9482000C9482000C9482000C94820048
:100030000C9482000C9482000C9482000C94820038
:100040000C9482000C9482000C9408090C94820099
:100050000C949D0E0C94D20E0C9482000C94820091
:100060000C9482000C9482000C9482000C94820008
:100070000C9482000C9482000C948200E810EA1028
:10008000EC10EE10F010F210F410001F0000000051
:100090001F00001F101010101F00001F1818181844
:1000A0001F00001F1C1C1C1C1F00001F1E1E1E1EEC
:1000B0001F00001F1F1F1F1F1F0003070F1F0F0719
:1000C0000300181C1E1F1E1C180011241FBECFEF9A
:1000D000D0E1DEBFCDBF14E0A0E0B1E0E8EDF2E496
:1000E00002C005900D92AC36B107D9F727E0ACE617
:1000F000B4E001C01D92AA32B207E1F70E94301CA1
:100100000C946A210C9400003F924F925F926F9280
:100110007F928F929F92AF92BF92CF92DF92EF9297
:10012000FF920F931F93CF93DF9381E00E948E087D
:10013000DC01CB019C01AD0160E070E080E090E06B
:1001400040585109610971098109910959016A01F0
:100150007B01E82F192F02E00E941E1E0E2F0E9425
:10016000551E59016A017B01E82F192F04E00E94F6
:100170001E1E0E2F0E945E1E59016A017B01E82F90
:10018000192F04E00E941E1E0E2F0E945E1E4901C0
:10019000D42FC52FB62FA72FF82FE92F06E00E94E6
:1001A0001E1E59016A017B018C0194014D2F5C2FA9
:1001B0006B2F7A2F8F2F9E2F0E94551E922EA32ECB
:1001C000B42ED52FC62FB72FF82FE92FA0E00E940D
:1001D000671E84F42150310940485F4F6F4F7F4FB5
:1001E0008F4F9F4F922EA32EB42ED52FC62FB72FF1
:1001F000F82FE92F292D3A2D4B2D5D2F6C2F7B2FBA
:100200008F2F9E2F07E10E94371EC22FB32FF42F8E
:10021000E52F362E472E982ED92FA0E00E94671E7C
:1002200054F40E94D71DC22FB32FF42FE52F362E82
:10023000472E982ED92F809191048111ACC05C2E4D
:100240006B2E7F2E8E2EC0934206B0934306F09302
:100250004406E0934506A0905206B0905306C09025
:100260005406D0905506E0905606F090570600913F
:100270005806109159062C2F3B2F4F2F5E2F632DC0
:10028000742D892D9D2F0E94EE1CB0E1AB2EC7E28C
:10029000BC2EC12CD12CE12CF12C00E010E00E94EE
:1002A000491D20934A0630934B0640934C065093C9
:1002B0004D06E091740684E0E89FF0011124E757B1
:1002C000F94F508261827282838281E0809391042F
:1002D0000E942A1C8B3009F053C060912606709151
:1002E00027068091280690912906A4E64A2E512CD3
:1002F000612C712CA30192010E947E1C49015A01BC
:100300003093200620931F0660914A0670914B0699
:1003100080914C0690914D06A30192010E947E1C93
:10032000CA01B90130931C0620931B0649ED56E023
:10033000C4010E94DB0D90931E0680931D06209140
:10034000210630912206281739077CF440911B06BC
:1003500050911C0680911F0690912006481759075E
:1003600020F030931E0620931D0660911D067091AB
:100370001E06709322066093210680E00E948B0B7C
:10038000809174068F5F809374068A3008F4ADC044
:1003900010927406AAC08B2E6F2E5E2EC093460656
:1003A000B0934706F0934806E0934906A0905A069A
:1003B000B0905B06C0905C06D0905D06E0905E0653
:1003C000F0905F0600916006109161062C2F3B2F84
:1003D0004F2F5E2F632D742D892D9D2F0E94EE1CB3
:1003E000E0E1AE2EF7E2BF2EC12CD12CE12CF12C96
:1003F00000E010E00E94491D20934E0630934F0606
:100400004093500650935106E091750684E0E89FB2
:10041000F0011124EF54F94FC0838182628253822C
:10042000109291040E942A1C8B3009F055C06091F3
:100430002A0670912B0680912C0690912D068090B3
:10044000260690902706A0902806B09029068616CA
:100450009706A806B90609F43FC024E6822E912C1F
:10046000A12CB12CA50194010E947E1C29013A0106
:1004700060914E0670914F06809150069091510602
:10048000A50194010E947E1CCA01B901590149EDE0
:1004900056E0C2010E94DB0D9195819591099093E0
:1004A0001E0680931D0620912306309124062817EE
:1004B00039073CF4A414B50420F030931E062093B1
:1004C0001D0660911D0670911E06709324066093B0
:1004D000230681E00E948B0B809175068F5F8093CD
:1004E00075068A3010F01092750680919104DF91A4
:1004F000CF911F910F91FF90EF90DF90CF90BF9021
:10050000AF909F908F907F906F905F904F903F90B3
:100510000C94FF088F929F92AF92BF92CF92DF927E
:10052000EF92FF92CF93DF9360914A0670914B0652
:1005300080914C0690914D06D4E6CD2ED12CE12C25
:10054000F12CA70196010E947E1C49015A0160917D
:100550004E0670914F068091500690915106A7016A
:1005600096010E947E1C80912F061F928F9380918E
:100570002E061F928F93EAE0F0E0C901BF010E94AE
:10058000561C9F938F937F936F93C401BF010E946A
:10059000561C9F938F937F936F9360912A0670915F
:1005A0002B0680912C0690912D0628EEC22E23E07A
:1005B000D22EE12CF12CA70196010E947E1C1F92E5
:1005C0002F936091260670912706809128069091BE
:1005D0002906A70196010E947E1C1F922F9360910D
:1005E00018077091190780911A0790911B07A701AE
:1005F00096010E947E1C1F922F9380911607909166
:100600001707C8EED3E0BE010E94561C7F936F937C
:10061000609112077091130780911407909115074C
:10062000A70196010E947E1C1F922F9380911007B4
:1006300090911107BE010E94561C7F936F9387E033
:1006400091E09F938F9383EA95E09F938F930E940D
:10065000A81E8DB79EB74C960FB6F8949EBF0FBEDE
:100660008DBF83EA95E0DF91CF91FF90EF90DF900F
:10067000CF90BF90AF909F908F900C94670FBF92D8
:10068000CF92DF92EF92FF920F931F93CF93DF935E
:100690008C01D62EFA0111821082FF24F394DC0122
:1006A0008C918D3209F0F12CC0E0D0E0CC24CA94BA
:1006B000CD0CEC2EEF0CED1420F5D801AE0DB11DD4
:1006C0002C9180ED820F8A3030F5332727FD30954D
:1006D00020533109442737FD4095542FBC2CBE14BC
:1006E00041F0AAE0B0E00E94DB1C9B01AC01BA948F
:1006F000F6CFA081B181A20FB31FB183A083219651
:10070000D8CFFF2059F080819181919581959109F1
:100710009183808303C08FEF9FEF02C080E090E061
:10072000DF91CF911F910F91FF90EF90DF90CF90CD
:10073000BF900895CF93DF9300D0CDB7DEB76AE6C0
:1007400072E080E090E00E94731EFC0101900020A6
:10075000E9F7BF0161507109681B790BAE014F5F6A
:100760005F4F0E943F0397FF03C08EE491E009C0F2
:10077000898180933A060E941A0B0E94E00985E65F
:1007800091E00E94670F80E00F900F90DF91CF9172
:100790000895CF93DF93809710F080E021C080917F
:1007A0006F048E33D1F76AE672E08FE694E00E9420
:1007B000731EEC01009789F369E671E00E94781ED0
:1007C000892B21F4CE010E949A0309C06DE671E0E5
:1007D000CE010E94781E892B01F70E948A0281E0D7
:1007E000DF91CF9108951F93CF93DF930E94170F4E
:1007F000182FEC01D0FD4AC0D3FF04C080E791E080
:100800000E94670FD2FF04C086E891E00E94670F44
:10081000D1FF04C08EE991E00E94670F1E3371F48E
:100820008FE1E82FF0E0E159FB4F10828150C9F7CA
:1008300081E080936E0410936F041AC080916E045F
:10084000209711F02D9759F490E00E94C903EFE62C
:10085000F4E0119284E0EF38F807D9F709C091E08D
:10086000980F90936E04E82FF0E0E159FB4F10834E
:1008700080916E04803251F48FE1E82FF0E0E1596D
:10088000FB4F10828150C9F710926E04DF91CF9117
:100890001F91089582B9299A289A8FEF91E10197C3
:1008A000F1F700C00000289829988FEF91E1019797
:1008B000F1F700C00000089582B9289A8FEF91E106
:1008C0000197F1F700C0000028988FEF91E10197A0
:1008D000F1F700C00000089581E00C945C0482E010
:1008E0000C945C04EF92FF921F93CF93DF931F92BF
:1008F000CDB7DEB7009771F0182F7C018E2D811BCC
:10090000861740F4F70181917F0169830E944A04B0
:100910006981F4CF0F90DF91CF911F91FF90EF90FD
:100920000895623031F0633031F0613029F4805C39
:1009300003C08C5E01C08C5A80680C945C041F93C9
:10094000CF93DF93EC01862F642F0E94910410E077
:10095000FE01E10FF11D8491882329F084910E940A
:100960004A041F5FF5CFDF91CF911F910895EF9259
:10097000FF920F931F93CF93DF938C0188E0689FC2
:10098000B0011124862F8064E82EC0E0D0E0F80189
:10099000EC0FFD1FF4908C2F8E0D0E945C048F2DA8
:1009A0000E944A042196C830D10589F7DF91CF9182
:1009B0001F910F91FF90EF9008951F93CF93DF93B6
:1009C0002FEF87ED90E0215080409040E1F700C08C
:1009D000000012B815B881B18FEF81B984B183607E
:1009E00084B980E382B9289A8FEF91E10197F1F7FA
:1009F00000C0000028988FEF91E10197F1F700C047
:100A0000000080E382B9289A8FEF91E10197F1F716
:100A100000C0000028988FEF91E10197F1F700C026
:100A2000000080E382B9289A8FEF91E10197F1F7F6
:100A300000C0000028988FEF91E10197F1F700C006
:100A4000000088E382B9289A8FEF91E10197F1F7CE
:100A500000C0000028988FEF91E10197F1F700C0E6
:100A600000008CE082B9289A8FEF91E10197F1F7AD
:100A700000C0000028988FEF99E50197F1F700C0BA
:100A80000000CAE8D0E060E011E0160FCE010E943D
:100A9000B7042896183011F0612FF6CFDF91CF916F
:100AA0001F910895CF93DF93D82FC0E0CD1729F081
:100AB0008EE10E945C04CF5FF9CFDF91CF91089562
:100AC000CF93DF93D82FC0E0CD1729F088E10E94A3
:100AD0005C04CF5FF9CFDF91CF9108958EE00C9445
:100AE0005C048FE00C945C048CE00C945C0488E063
:100AF0000C945C048CE00C945C04CF93DF93D82FAF
:100B0000C0E0CD1729F080E10E945C04CF5FF9CFEF
:100B1000DF91CF910895CF93DF93D82FC0E0CD1709
:100B200029F084E10E945C04CF5FF9CFDF91CF917F
:100B30000895CF92DF92EF92FF920F931F93CF937E
:100B4000DF931F92CDB7DEB756E0459F9001112489
:100B5000E82FE29FC001E39F900D112470E00E94F6
:100B60006A1C8B01CB0166E070E00E94561CE82EE7
:100B7000C12CD12CF12CF416B9F096012B5F3F4F0C
:100B80000217130728F40C151D0520F08E2D03C045
:100B900085E001C080E049830E944A04F394F6E0B6
:100BA000CF0ED11C4981E7CF0F90DF91CF911F91DC
:100BB0000F91FF90EF90DF90CF900895AF92BF928A
:100BC000CF92DF92EF92FF920F931F93CF93DF9319
:100BD000CDB7DEB767970FB6F894DEBF0FBECDBFB7
:100BE000182FD22EC32EB42EA52E80E84A9947C0C6
:100BF0006D8B7E8B9F8B0E945C040E947E0D9E01FC
:100C00002F5F3F4F79016D897E899F89882339F055
:100C10009F931F937F936F9381ED91E006C09F9305
:100C20001F937F936F9381EE91E09F938F93FF9239
:100C3000EF920E94A81E0FB6F894DEBF0FBECDBF84
:100C400060E1C7010E9472041F920F93AF92BF929E
:100C5000CF92DF9281EF91E09F938F93FF92EF927B
:100C60000E94A81E80EC0E945C0460E1C7010E9403
:100C700072040FB6F894DEBF0FBECDBF12C00E9443
:100C80005C0460E182E092E00E94720480EC0E94C9
:100C90005C0460E183E192E00E9472048FE00E94B4
:100CA000930F67960FB6F894DEBF0FBECDBFDF91EE
:100CB000CF911F910F91FF90EF90DF90CF90BF9059
:100CC000AF9008950F931F9394B19F7094B994B10E
:100CD000906B94B994E0099F80011124016598E01C
:100CE000299F90011124022B20E2829FC001112430
:100CF000082B0CBD81E01F910F910895CF93DF93D6
:100D000000D000D0CDB7DEB7FC01819119821A82E4
:100D10001B821C829E012F5F3F4FD901422F9A2FC9
:100D2000921B961718F491919D93F9CF813009F495
:100D30002C98F9019E2F941B961730F491919EBD2B
:100D40000DB407FEFDCFF6CF813009F42C9A862F23
:100D50000F900F900F900F90DF91CF910895CF9348
:100D6000DF93CDB7DEB728970FB6F894DEBF0FBE7E
:100D7000CDBFFC0171911D821E821F8218861982CF
:100D80001A821B821C82AE014B5F5F4FDA012A2F51
:100D9000241B261718F421912D93F9CF713009F4F3
:100DA0002C989E012F5F3F4FDA01F901422F5E2FF1
:100DB000521B561740F45D915EBD0DB407FEFDCF8A
:100DC0005EB55193F4CF713009F42C9AFC01D9012E
:100DD0008A2F841B861718F48D918193F9CF862F63
:100DE00028960FB6F894DEBF0FBECDBFDF91CF912E
:100DF000089580918F04882371F080918F048F5F14
:100E000080938F0480918F04823328F081E0809357
:100E1000900410928F0408950F93CF93DF9300D026
:100E200000D01F92CDB7DEB785E0E2E0F1E0DE0151
:100E3000119601900D928A95E1F701E021E040E4DE
:100E400052E46FE070E080E00E94620664E0CE0150
:100E500001960E947E060F900F900F900F900F90BA
:100E6000DF91CF910F910895FF920F931F93CF932E
:100E7000DF9300D000D01F92CDB7DEB7F62E8E01E3
:100E80000F5F1F4F95E0F80111929A95E9F749839A
:100E90008770F8E08F9FC001112480648A8361E02D
:100EA0006F0DC8010E94AF06E1E060E070E0CB0189
:100EB0004F2D50E02E2F30E04217530774F0982F3B
:100EC000872F762F6627D801A20FB31F2C91620FB0
:100ED000711D811D911DEF5FEDCF0F900F900F9051
:100EE0000F900F90DF91CF911F910F91FF90089578
:100EF00041E061E084E00E94340710928F04109278
:100F000090046F7081E06B3009F080E008950F93DA
:100F1000CF93DF93CDB7DEB729970FB6F894DEBF36
:100F20000FBECDBF4E835F8368877987FE01319600
:100F300095E0DF011D929A95E9F72F5F098387708D
:100F4000880F880F880F8A83322FBE016A5F7F4F18
:100F5000323050F0CF01830F911DDB014D91BD0167
:100F6000DC014C933150F4CF622FCF010E947E06FA
:100F700029960FB6F894DEBF0FBECDBFDF91CF919B
:100F80000F9108951E99FECF0895CF92DF92EF92B0
:100F9000FF920F936B017C0141E062E081E00E94CF
:100FA0003407AB01BC015F7166277727D701C60103
:100FB0000DE0880F991FAA1FBB1F0A95D1F7AA271A
:100FC000BB27482B592B6A2B7B2B01E022E081E0C9
:100FD0000E9487070F91FF90EF90DF90CF900895C8
:100FE000CF92DF92EF92FF920F936B017C0141E071
:100FF00062E082E00E943407AB01BC01487F87E0D9
:10100000C822DD24EE24FF244C295D296E297F2986
:1010100001E022E082E00E9487070F91FF90EF90AD
:10102000DF90CF900895CF92DF92EF92FF920F93CF
:101030006B017C0141E062E082E00E943407AB0179
:10104000BC01587F87E0C822DD24EE24FF24FE2C5B
:10105000ED2CDC2CCC244C295D296E297F2901E064
:1010600022E082E00E9487070F91FF90EF90DF90CF
:10107000CF9008950F93CF93C82F41E062E082E0B4
:101080000E943407AB01BC014F7720E8C29FC0012A
:1010900011249927AA2797FDA095BA2F482B592BE1
:1010A0006A2B7B2B01E022E082E00E948707CF9130
:1010B0000F9108950F93CF93C82F70E080E090E0D8
:1010C0000E94F00741E062E081E00E9434074C2F6B
:1010D00050E0542F44275295550F507E60E070E049
:1010E00001E022E081E00E948707CF910F910C94EC
:1010F000C2070F932C9800E022E040E050E260E04D
:1011000070E081E00E9487070E94C20740E063E030
:1011100083E00E9434072C9A0F910895CF92DF92BA
:10112000EF92FF920F93CF93DF93C82F01E022E05D
:1011300040E050E0BA0181E00E948707D0E0C12C76
:10114000D12C7601DC1759F041E063E083E00E9486
:101150003407C60ED71EE81EF91EDF5FF3CF2D2F12
:1011600030E040E050E0C701B6010E947E1CCA0199
:10117000B901DF91CF910F91FF90EF90DF90CF9069
:1011800008950F931F93613029F000E810E020E0EC
:1011900030E004C000E810E420E030E0482F477061
:1011A00050E060E070E040615C60402B512B622BAE
:1011B000732B01E022E082E00E9487071F910F91CC
:1011C00008950F93CF93C82F61E00E94C108369B0A
:1011D00013C00E94C2076C2F84E00E945A086C2F33
:1011E00085E00E945A0801E022E043E050E060E020
:1011F00070E081E00E948707CF910F91089560E031
:101200000E94C10881E080938F0410929004089599
:101210001F920F920FB60F9211242F933F934F936B
:101220005F936F937F938F939F93AF93BF93EF934E
:10123000FF938091EF068930D0F0809186069091DF
:101240008706019690938706809386061092EF0694
:101250000E94F906809186069091870662E370E00D
:101260000E94561C892BB9F50E94B80F34C080919A
:10127000EF06813081F5809186069091870664E6BD
:1012800070E00E94561C892B31F580918606909162
:10129000870664EF71E00E94561C892BC9F4809187
:1012A00086069091870668EE73E00E94561C892B93
:1012B00049F48091F0069091F10601969093F10621
:1012C0008093F0069091940481E0891B80939404AC
:1012D00081E0809388068091EF068F5F8093EF0610
:1012E000FF91EF91BF91AF919F918F917F916F91FE
:1012F0005F914F913F912F910F900FBE0F901F90D4
:10130000189580919404089580919404882351F055
:10131000809193048111419A80919204882321F055
:10132000439A0895419843980895809193040895AD
:10133000809192040895109293040895109292045B
:101340000895809393046093920408958091880691
:1013500008951092880608958091F0069091F10604
:1013600008954EE050E068E170E080E396E00E946E
:101370009C204CE050E06CE070E080E197E00E943F
:101380009C204CE050E060E070E084EF96E00E942A
:101390009C208091100790911107A0E0B0E080930D
:1013A000260690932706A0932806B09329068093DB
:1013B0002A0690932B06A0932C06B0932D06089531
:1013C0004EE050E068E170E08CE197E00E949C20E4
:1013D000209130063091310680911C0790911D07B5
:1013E0002817390709F043C020913206309133069F
:1013F00080911E0790911F0728173907C1F520918A
:1014000034063091350680912007909121072817E6
:10141000390769F520913606309137068091220709
:10142000909123072817390711F52091380630913C
:101430003906809124079091250728173907B9F4B8
:1014400090913A0680912607981311C090913B061F
:101450008091270798130BC020913C0630913D06E0
:1014600080912807909129072817390741F04EE00D
:1014700050E068E170E080E396E00C94AC200895C1
:101480004CE050E06CE070E086E796E00E949C2023
:101490002091760630917706809110079091110780
:1014A00028173907A9F44091780650917906609180
:1014B0007A0670917B068091120790911307A09194
:1014C0001407B0911507481759076A077B0741F0C1
:1014D0004CE050E06CE070E080E197E00C94AC20D0
:1014E00008954CE050E060E070E084E097E00E94F6
:1014F0009C2020910407309105078091F40690917B
:10150000F50628173907B9F5209106073091070726
:101510008091F6069091F7062817390761F520911A
:101520000807309109078091F8069091F90628176D
:10153000390709F520910A0730910B078091FA06C7
:101540009091FB0628173907B1F420910C073091D0
:101550000D078091FC069091FD062817390759F474
:1015600020910E0730910F078091FE069091FF06A3
:101570002817390741F04CE050E060E070E084EF5C
:1015800096E00C94AC20089584B18C6084B987B146
:101590008F6087B98AB1806C8AB9529853985A9AE9
:1015A0005B9A3C983D983E983F98449A459A469A53
:1015B000479AE0EBF0E08081836A8083E1EBF0E022
:1015C00080818660808380913A068093B300809109
:1015D0003B068093B40085B5826085BD16BCEEE6FF
:1015E000F0E0808181608083E0E8F0E08081826AC1
:1015F0008083E1E8F0E080818B6180838091380610
:101600009091390690938700809386008AB1806319
:101610008AB9809130069091310690938900809329
:101620008800809132069091330690938B008093CE
:101630008A0008958093B30008958093B4000895BC
:101640000E946C0460E083E00E9491046AE084E2FE
:1016500092E00E9472040E940C070E947807811198
:101660000BC00E946C0460E082E00E9491046AE07A
:101670008FE292E00C94720461E080E00E94910499
:1016800065E08AE392E00E94720480E00E94E10833
:1016900069E080E492E00E94720481E00E94E10827
:1016A00062E086E691E00E947204109291048091BB
:1016B00091040E94FF080C946C040E94B1090E94DE
:1016C000C40A0E94DD040E946C040E94200B89E081
:1016D00090E00E94FE0E80911007909111078134D6
:1016E0009C4930F080E49CE99093110780931007A7
:1016F000349BFECF359BFCCF369BFACF379BF8CF80
:101700008FEF9FE628E0815090402040E1F700C035
:10171000000078940895CF93DF93DB016F3F71054C
:1017200009F02CF477FF05C0A0E0B0E002C0AFEFF5
:10173000B0E081111DC0A0932E06C0913006D0915B
:10174000310620913406309135062C1B3D0B0E944A
:10175000D41C2FEF30E040E050E00E947E1C2C0FA4
:101760003D1F411D511D30938B0020938A001CC0EA
:10177000A0932F06C0913206D091330620913606F1
:10178000309137062C1B3D0B0E94D41C2FEF30E00C
:1017900040E050E00E947E1C2C0F3D1F411D511D5A
:1017A0003093890020938800DF91CF91089560E005
:1017B00070E080E00E948B0B60E070E081E00E94AE
:1017C0008B0B2FEF8FE19CE1215080409040E1F79F
:1017D00000C000006FEF70E080E00E948B0B6FEFA5
:1017E00070E081E00E948B0B2FEF8FE398E3215094
:1017F00080409040E1F700C0000060E070E080E0D1
:101800000E948B0B2FEF8FE398E321508040904094
:10181000E1F700C0000060E070E081E00E948B0B07
:101820002FEF8FE398E3215080409040E1F700C014
:1018300000002A9A429A2FEF8FE19CE121508040CC
:101840009040E1F700C000002B9A409A2FEF8FE103
:101850009CE1215080409040E1F700C00000419A97
:10186000439A2FEF8FE19CE1215080409040E1F7B7
:1018700000C000002A982B984298409841984398BD
:1018800008950F931F938091160790911707209149
:10189000100730911107A90148515C4F48175907AB
:1018A00048F4E1E048515C4F4817590708F0E0E080
:1018B000F1E002C0E0E0F0E0A901485E5340841787
:1018C000950738F4205D37408217930708F4E1E06C
:1018D000F1E040912606509127066091280670910C
:1018E000290680912A0690912B06A0912C06B09192
:1018F0002D06481759076A077B07F1F180911807F1
:1019000090911907A0911A07B0911B0740911207F7
:101910005091130760911407709115078A019B017C
:1019200008511C4F2F4F3F4F081719072A073B0735
:1019300068F48A019B010053184F2F4F3F4F08173F
:1019400019072A073B0708F4E1E0F1E08A019B014F
:10195000085E13402109310980179107A207B307D8
:1019600058F4405D57406109710984179507A6072F
:10197000B70708F4E1E0F1E0F0939304E0939204F8
:101980001F910F9108950F931F934A9923C040917F
:101990003C0650913D0660E070E080914A069091CF
:1019A0004B06A0914C06B0914D06481759076A079F
:1019B0007B0780F081E000914E0610914F06209148
:1019C000500630915106401751076207730718F00F
:1019D00080E001C081E01F910F9108954F925F92C6
:1019E0006F927F928F929F92AF92BF92CF92DF922F
:1019F000EF92FF920F931F930091890610918A0630
:101A000020918B0630918C06480159014091B10616
:101A10005091B2066091B3067091B406E9E8F6E021
:101A2000A1EBB6E06A017B01419051906190719009
:101A3000401651066206730610F493018201841465
:101A40009504A604B70410F4530142014D905D9033
:101A50006D907D90441655066606770610F4B30126
:101A6000A201C414D504E604F70410F47301620162
:101A700086E0E13BF807C1F600933E0610933F066F
:101A8000209340063093410680928206909283060E
:101A9000A0928406B09285064093EB065093EC0624
:101AA0006093ED067093EE06C0920007D092010796
:101AB000E0920207F0920307801A910AA20AB30A81
:101AC00097018601041B150B260B370BC901B801C2
:101AD000081519052A053B0510F4C501B4011F912D
:101AE0000F91FF90EF90DF90CF90BF90AF909F90BD
:101AF0008F907F906F905F904F9008950E94EE0CB2
:101B0000653F71408105910540F580913E069091B9
:101B10003F06A0914006B091410680379741A1054C
:101B2000B105D8F08091EB069091EC06A091ED06FE
:101B3000B091EE0680379741A105B10570F081E0C4
:101B400040910007509101076091020770910307CF
:101B5000493451476105710508F080E00895CF933D
:101B6000DF93EB01F9011282138214821582118234
:101B70001082978386837187608753874287BC0171
:101B80006F5F7F4F8FEF9FE70E946A1C75876487A6
:101B9000BE016F5F7F4F8FEF9FE30E946A1CCB01F6
:101BA000AA2797FDA095BA2F86879787A08BB18B20
:101BB000DF91CF9108958F929F92AF92BF92CF9273
:101BC000DF92EF92FF92CF93DF93EB01FA016C016A
:101BD000E12CF12CC61AD70AE108F10824853585D5
:101BE000C901AA2797FDA095BA2F8C159D05AE05B2
:101BF000BF05B4F088279927821B930BAA2797FD6E
:101C0000A095BA2FC816D906EA06FB0684F0A6816D
:101C1000B781A70196010E94E61C4B015C010EC032
:101C200088248A949FE7992EA12CB12C07C0882480
:101C3000839480E8982EAA24AA94BA2C2281338116
:101C4000448155812C0D3D1D4E1D5F1D8685978558
:101C5000A089B18982179307A407B5074CF4828342
:101C60009383A483B5836FEF7FE380E090E01DC092
:101C7000B095A095909581959F4FAF4FBF4F281776
:101C800039074A075B074CF482839383A483B583A7
:101C900061E070EC8FEF9FEF08C0228333834483B1
:101CA0005583A085B1850E94E61C208131812C1BC3
:101CB0003D0B42855385249F6001259FD00C349FA6
:101CC000D00C1124EE24D7FCE094FE2CD183C083E9
:101CD000680D791D8A1D9B1D6C0D7D1D8E1D9F1D20
:101CE00020E830E040E050E00E94A01C213080E875
:101CF00038078FEF4807580724F421E030E84FEF0A
:101D00005FEFDA01C901253631054105510524F09F
:101D100084E690E0A0E0B0E0DF91CF91FF90EF90FB
:101D2000DF90CF90BF90AF909F908F900895FC016F
:101D3000128213821482158208951F920F920FB699
:101D40000F9211242F933F934F935F938F939F9301
:101D5000EF93FF934091C0005091C600487180916D
:101D6000970490E001968F7799272091960430E0B0
:101D70008217930739F080939704FC01E656FB4FD6
:101D8000508301C042E040939504FF91EF919F91F1
:101D90008F915F914F913F912F910F900FBE0F90B8
:101DA0001F9018951F920F920FB60F9211248F93C8
:101DB0009F93EF93FF9390919904809198049817C3
:101DC00079F08091980490E001968F77992780931D
:101DD0009804FC01E65EFA4F80818093C60005C03E
:101DE0008091C1008F7D8093C100FF91EF919F9101
:101DF0008F910F900FBE0F901F901895109299041D
:101E000010929804109297041092960497FF04C0C1
:101E100022E02093C0009F779093C5008093C40078
:101E200088E98093C10086E08093C2000895909174
:101E30009704809196049817A1F08091960490E001
:101E400001968F77992780939604FC01E656FB4F05
:101E500020818091950490E0982F8827820F911D12
:101E6000089580E091E00895909197048091960400
:101E7000981789F0E0919604F0E03196EF77FF270C
:101E8000E656FB4F20818091950490E0982F88279B
:101E9000820F911D089580E091E0089520919904AA
:101EA00030E02F5F3F4F2F7733274091980450E069
:101EB00024173507D1F3F901E65EFA4F80832093AA
:101EC00099048091C10080628093C1000895CF93EE
:101ED000DF93EC018991882319F00E944E0FFACF0D
:101EE000DF91CF910895CF93DF93FC018491EF01AF
:101EF0002196882321F00E944E0FFE01F7CFDF913B
:101F0000CF910895809197042091960490E0805895
:101F10009F4F821B91098F7799270895809196048E
:101F2000809397040895CF93C82F0E94AC098C0F1B
:101F3000911D90939C0580939B05CF910895CF931D
:101F4000DF93C0919B05D0919C050E94AC098C1732
:101F50009D0750F4C0919B05D0919C050E94AC094F
:101F60009C2F981B892F01C080E0DF91CF910895AD
:101F7000349908C08091F2068F3F31F0815F8093E1
:101F8000F20602C01092F206359908C08091F3065D
:101F90008F3F31F0815F8093F30608951092F3062E
:101FA000089586E4809325062A982B9842984098B5
:101FB00060E080E00E94910460E18AE492E00E9487
:101FC000720461E080E00E94910460E18BE592E0A0
:101FD0000C94720487E4809325062A982B984298E3
:101FE000409860E080E00E94910460E18CE692E01D
:101FF0000E94720461E080E00E94910460E18BE540
:1020000092E00C94720484E1809325062A982B9820
:102010004298409860E080E00E94A10960E070E092
:1020200080E00E948B0B60E070E081E00E948B0BEF
:1020300060E080E00E94910460E18DE792E00E9400
:10204000720461E080E00E94910460E18EE892E019
:102050000C94720485E1809325062A982B98429867
:10206000409860E080E00E94910460E18FE992E096
:102070000E94720461E080E00E94910460E180EBC4
:1020800092E00C94720482E3809325062A982B98A0
:102090004298409860E080E00E94910460E181EC09
:1020A00092E00E94720461E080E00E94910460E18D
:1020B00082ED92E00C94720483E3809325062A98C3
:1020C0002B984298409860E080E00E94910460E183
:1020D00083EE92E00E94720461E080E00E9491042D
:1020E00060E182ED92E00C94720484E38093250613
:1020F0002A982B984298409860E080E00E949104D2
:1021000060E184EF92E00E94720461E080E00E944E
:10211000910460E182ED92E00C9472048CE3809370
:1021200025062A9A2B98429A409860E080E00E9407
:10213000910460E185E093E00E94720461E080E038
:102140000E94910460E182ED92E00C9472048DE3B0
:10215000809325062A982B9A4298409A60E080E066
:102160000E94910460E186E193E00E94720461E0C4
:1021700080E00E94910460E182ED92E00C94720490
:1021800081E5809325062A982B984298409860E034
:1021900080E00E94910460E187E293E00E94720473
:1021A00061E080E00E94910460E182ED92E00C9495
:1021B000720480910101992787FD9095A92FB92F6D
:1021C0008730910598F4FC01E25CFF4F0C94BF1C32
:1021D0000C9443100C945C100C9475100C948E109D
:1021E0000C94A7100C94D10F0C94EA0F0C94C0100F
:1021F0000F931F9380914E0690914F06A091500629
:10220000B091510690931707809316070091260608
:1022100010912706209128063091290640912A0620
:1022200050912B0660912C0670912D06041715070E
:102230002607370749F410921807109219071092D1
:102240001A0710921B072DC09C01AD01442755278A
:10225000A0E1B7E20E94DB1C20914A0630914B06B8
:1022600040914C0650914D060E947E1CAAE0B0E0C1
:102270000E94DB1C613A26E8720721E08207910583
:10228000D0F600EA16E821E030E0061B170B280B19
:10229000390B009318071093190720931A073093EE
:1022A0001B071F910F9108950F931F932091100703
:1022B00030911107A0E1B7E20E94C51C20913C06B5
:1022C00030913D06205D374040E050E00E947E1C8A
:1022D000AAE0B0E00E94DB1C8B019C01013A86E879
:1022E000180781E02807310548F460EA76E881E0C4
:1022F00090E0601B710B820B930B03C060E070E0F9
:10230000CB011F910F910895CF92DF92EF92FF9230
:102310000F931F93CF93DF9380913C0690913D06DE
:10232000209110073091110728573C4E82179307D0
:1023300030F4885893419093110780931007C09010
:102340001207D0901307E0901407F09015070E9431
:1023500054116C157D058E059F0540F4609312079E
:102360007093130780931407909315070091260626
:1023700010912706209128063091290640912A06BF
:1023800050912B0660912C0670912D06C09110077C
:10239000D0911107041715072607370761F4CE01FE
:1023A000A0E0B0E08093260690932706A09328062D
:1023B000B09329062EC09E01A4E6B0E00E94C51C81
:1023C0006B017C01609112077091130780911407D3
:1023D0009091150728EE33E040E050E00E947E1C0B
:1023E000DA01C90124E630E040E050E0281B390B57
:1023F0004A0B5B0BC701B6010E947E1C2093260688
:10240000309327064093280650932906CE01A0E07A
:10241000B0E080932A0690932B06A0932C06B093ED
:102420002D06DF91CF911F910F91FF90EF90DF90DC
:10243000CF9008952F923F924F925F926F927F922A
:102440008F929F92AF92BF92CF92DF92EF92FF92C4
:102450000F931F93CF93DF93CDB7DEB766970FB679
:10246000F894DEBF0FBECDBF60914E0670914F064F
:10247000809150069091510640904A0650904B062C
:1024800060904C0670904D0628EEC22E23E0D22EAE
:10249000E12CF12CA70196010E947E1C122F032F24
:1024A000342E252E34E6832E912CA12CB12CA5019F
:1024B00094010E947E1C5F934F933F932F932F9222
:1024C0003F920F931F93C301B201A70196010E948F
:1024D0007E1C122F032F742E652EA50194010E94DD
:1024E0007E1C5F934F933F932F936F927F920F9336
:1024F0001F9388E393E09F938F938E010F5F1F4F8D
:102500001F930F930E94A81E0E94F810809110073D
:102510009091110728EE33E0B9010E94561C762EE7
:10252000672E8090120790901307A0901407B09028
:1025300015078091160790911707B9010E94561C44
:102540006D8B7E8B609118077091190780911A0727
:1025500090911B070FB6F894DEBF0FBECDBF81145C
:102560009104A104B104A1F1209026063090270621
:10257000409028065090290620912A0630912B067B
:1025800040912C0650912D0622163306440655061E
:10259000F9F0409A2B9AA70196010E947E1C1F9287
:1025A0002F933E893F938D898F93C501B401A70175
:1025B00096010E947E1C1F922F936F927F9286E558
:1025C00093E09F938F931F930F930E94A81E0EC0BA
:1025D0003E893F938D898F936F927F928BE693E034
:1025E0009F938F931F930F930E94A81E0FB6F8948A
:1025F000DEBF0FBECDBF60E080E00E94910460E1CD
:10260000C8010E94720466960FB6F894DEBF0FBE32
:10261000CDBFDF91CF911F910F91FF90EF90DF9091
:10262000CF90BF90AF909F908F907F906F905F9072
:102630004F903F902F9008959BE090932506429AEB
:102640002A9A882331F10E94E0090E94400A0E94E0
:10265000710A4091F8065091F9066091F606709162
:10266000F70629ED36E08091F4069091F5060E9478
:10267000AF0D4091FE065091FF066091FC067091EF
:10268000FD0622E636E08091FA069091FB060E9454
:10269000AF0D0C941A128F929F92AF92BF92CF926D
:1026A000DF92EF92FF920F931F93CF93DF93CDB7FB
:1026B000DEB765970FB6F894DEBF0FBECDBF809131
:1026C00010079091110768EE73E00E94561C062FC8
:1026D000B72E60914A0670914B0680914C069091FE
:1026E0004D0648EEC42E43E0D42EE12CF12CA70178
:1026F00096010E947E1CA22E6091260670912706EC
:102700008091280690912906A70196010E947E1CBF
:10271000922E609112077091130780911407909187
:102720001507A70196010E947E1C122F60914E068C
:1027300070914F068091500690915106A701960125
:102740000E947E1C822E60912A0670912B06809139
:102750002C0690912D06A70196010E947E1C60E038
:1027600080E02D8B0E94910480912E061F928F9302
:102770001F929F921F92AF92BF920F935EE7C52E5A
:1027800053E0D52EDF92CF92CE0101967C01FF92CD
:102790008F930E94A81E60E1C7010E94720461E04D
:1027A00080E00E94910480912F061F928F931F92C8
:1027B0002D892F931F928F921F921F93DF92CF929A
:1027C000FF92EF920E94A81E60E1C7010E9472046E
:1027D0000FB6F894DEBF0FBECDBF65960FB6F89466
:1027E000DEBF0FBECDBFDF91CF911F910F91FF9044
:1027F000EF90DF90CF90BF90AF909F908F90089513
:10280000419A60E080E00E94910460E186E993E0F3
:102810000E94720461E080E00E94910460E187EA16
:1028200093E00C947204809125069CEE980F9230F0
:1028300058F44A9914C04B9912C081E00E941C13AD
:102840008EE10E94930F08C08B3049F44A9902C070
:102850004B9B05C00E94031081E080939F058091EF
:102860009F05811183C0809125068A3009F07EC0C2
:102870004A997CC0349936C060E080E00E9491049F
:1028800060E188EB93E00E94720461E080E00E94C6
:1028900091040E94EE0C7F936F9389EC93E09F93D9
:1028A0008F9387E096E09F938F930E94A81E60E12C
:1028B00087E096E00E9472042FEF8FE790E72150A7
:1028C00080409040E1F700C000000E947E0D0F9014
:1028D0000F900F900F900F900F90882329F10E9476
:1028E00003100EC0359BC8CF369BC6CF379BC4CFD5
:1028F0000E949F0F882309F4BFCF38C0359903C0C9
:10290000349BFECFFBCF369BFBCF379BF9CF2FEF0E
:102910008FE995E0215080409040E1F700C0000031
:1029200081E080939F0522C00E9400142FEF8FE763
:1029300090E7215080409040E1F700C00000439AAA
:102940002FEF8FEB98EA215080409040E1F700C0D4
:102950000000349BFECF359BFCCF369BFACF379BD4
:10296000F8CF419843988FE00E94930F80919F0584
:1029700081113AC0349B06C0359B04C0369B02C00F
:10298000379932C080912506843129F436990AC0DE
:102990000E942A101AC0853129F4379903C00E9479
:1029A000031013C08091010187FD12C0369906C043
:1029B0008F5F8D3044F01092010107C0379908C035
:1029C000815008F48CE08093010181E080939F05A1
:1029D0009091000180910101981731F00E94D91067
:1029E0008091010180930001349B09C0359B07C091
:1029F000369B05C0379B03C010929F0508958091B8
:102A00009F058130B1F480912506823390F037998B
:102A100010C036990EC08FEF8093010180930001A2
:102A20000E9403100E9484110E94E00982E08093BA
:102A30009F0580919F05813081F480912506845106
:102A4000823058F4379909C0369907C010920101B5
:102A50000E94D91082E080939F0580919F05882372
:102A600049F02FEF8FEC92E0215080409040E1F749
:102A700000C00000089560E08FE00E94910461E0D2
:102A80008AE692E00E94720461E080E00E94910474
:102A900060E189ED93E00E9472040E94D70B61E02F
:102AA00080E00E94910460E18AEE93E00E9472044B
:102AB0002FEF8FE398E3215080409040E1F700C072
:102AC00000000C94D10F8091F306882381F08F3F92
:102AD00011F49AE001C091E080913A06981720F431
:102AE000891B80933A0603C0811110923A068091A7
:102AF000F2068823C9F08F3F11F45AE001C051E07B
:102B000040913A06242F30E08FEF90E0851B910929
:102B10002817390724F4450F40933A0605C04F3F64
:102B200019F08FEF80933A0680913A061F928F93A7
:102B30008BEF93E09F938F9387E096E09F938F9323
:102B40000E94A81E61E080E00E94910464E087E09A
:102B500096E00E94720461E084E00E9491044AE0E1
:102B60006FEF80913A060E94990561E08EE00E9425
:102B7000910462E080EE92E00E9472040F900F9048
:102B80000F900F900F900F9080913A060C941A0BB3
:102B90008091F306882381F08F3F11F49AE001C001
:102BA00091E080913B06981720F4891B80933B06A7
:102BB00003C0811110923B068091F2068823C9F070
:102BC0008F3F11F45AE001C051E040913B06242FA1
:102BD00030E08FEF90E0851B91092817390724F426
:102BE000450F40933B0605C04F3F19F08FEF809390
:102BF0003B0680913B061F928F938BEF93E09F9350
:102C00008F9387E096E09F938F930E94A81E61E0C8
:102C100080E00E94910464E087E096E00E947204E4
:102C200061E084E00E9491044AE06FEF80913B06EE
:102C30000E94990561E08EE00E94910462E080EEBE
:102C400092E00E9472040F900F900F900F900F90DF
:102C50000F9080913B060C941D0B8091F306882306
:102C6000F1F08F3F19F480ED97E002C088EE93E019
:102C700020913C0630913D06AC01485F5D4A421709
:102C8000530738F4281B390B30933D0620933C063C
:102C900006C088E092E590933D0680933C068091C3
:102CA000F206882341F18F3F19F420ED37E002C08E
:102CB00028EE33E0E0913C06F0913D06AF0160E084
:102CC00070E088EE9DEFA0E0B0E0821B930BA109BD
:102CD000B109481759076A077B073CF42E0F3F1FBD
:102CE00030933D0620933C0606C088EE9DEF9093FE
:102CF0003D0680933C0680913C0690913D0668EE2F
:102D000073E00E94561C7F936F9381E094E09F9341
:102D10008F9387E096E09F938F930E94A81E61E0B7
:102D200087E00E9491040F900F900F900F900F90EA
:102D30000F9063E087E096E00C9472048091F306B4
:102D4000882379F08F3F11F48AE001C081E09091EF
:102D50009E05891720F4981B90939E0502C010923F
:102D60009E058091F2068823B9F08F3F11F44AE066
:102D700001C041E050919E05252F30E08FEF90E09B
:102D8000841B91092817390724F4450F40939E05A9
:102D900003C08FEF80939E0580919E051F928F93B5
:102DA00088E094E09F938F9387E096E09F938F93C2
:102DB0000E94A81E61E080E00E94910464E087E028
:102DC00096E00E94720461E084E00E9491044AE06F
:102DD0006FEF80919E050E94990561E08EE00E9450
:102DE000910462E080EE92E00E9472040F900F90D6
:102DF0000F900F900F900F9060919E0570E080E013
:102E00000C948B0B8091F306882379F08F3F11F49B
:102E10008AE001C081E090919D05891720F4981BFC
:102E200090939D0502C010929D058091F206882323
:102E3000B9F08F3F11F44AE001C041E050919D0587
:102E4000252F30E08FEF90E0841B91092817390778
:102E500024F4450F40939D0503C08FEF80939D059B
:102E600080919D051F928F9388E094E09F938F93AC
:102E700087E096E09F938F930E94A81E61E080E018
:102E80000E94910464E087E096E00E94720461E091
:102E900084E00E9491044AE06FEF80919D050E94BA
:102EA000990561E08EE00E94910462E080EE92E07C
:102EB0000E9472040F900F900F900F900F900F9040
:102EC00060919D0570E081E00C948B0BCF92DF92B6
:102ED000EF92FF920F931F93CF93DF938091F306AE
:102EE0008823F1F08F3F19F480ED97E002C088EE5F
:102EF00093E02091100730911107AC014053584FD7
:102F00004217530738F4281B390B309311072093CD
:102F1000100706C080ED97E090931107809310078B
:102F20008091F206882311F18F3F19F480ED97E02C
:102F300002C088EE93E04091100750911107209154
:102F40003C0630913D0628583341B901681B790B86
:102F50004617570738F4840F951F909311078093F5
:102F6000100704C0309311072093100780911007B9
:102F70009091110768EE73E00E94561C7F936F9347
:102F800081E094E09F938F9387E096E09F938F93E7
:102F90000E94A81E61E087E00E94910463E087E040
:102FA00096E00E947204C0901207D0901307E09040
:102FB0001407F09015070E9454110F900F900F9076
:102FC0000F900F900F906C157D058E059F0540F4B6
:102FD000609312077093130780931407909315075B
:102FE0000091260610912706209128063091290687
:102FF00040912A0650912B0660912C0670912D0667
:10300000C0911007D091110704171507260737073D
:1030100061F4CE01A0E0B0E08093260690932706ED
:10302000A0932806B09329062EC09E01A4E6B0E026
:103030000E94C51C6B017C016091120770911307FF
:10304000809114079091150728EE33E040E050E09E
:103050000E947E1CDA01C90124E630E040E050E025
:10306000281B390B4A0B5B0BC701B6010E947E1C63
:10307000209326063093270640932806509329066E
:10308000CE01A0E0B0E080932A0690932B06A09397
:103090002C06B0932D06DF91CF911F910F91FF90D9
:1030A000EF90DF90CF9008958091F3068823D9F0B8
:1030B0008F3F19F420ED37E002C028EE33E0809115
:1030C000100790911107A901485F5D4A48175907F9
:1030D00018F4821B930B02C088E092E590931107CD
:1030E0008093100702C020E030E08091F206882330
:1030F00011F18F3F19F420ED37E002C028EE33E0E4
:10310000409110075091110780913C0690913D0627
:1031100088589341BC01621B730B4617570738F45C
:10312000420F531F509311074093100704C0909310
:103130001107809310078091100790911107A0E06C
:10314000B0E08093260690932706A0932806B093BC
:10315000290680932A0690932B06A0932C06B09301
:103160002D06232B51F080E00E941C1360E080E0CC
:103170000E94A1098AE00C94930F08958F929F9268
:10318000AF92BF92CF92DF92EF92FF920F931F9375
:10319000CF93DF938091F306882359F18F3F19F481
:1031A00080ED97E002C088EE93E0409112075091C5
:1031B00013076091140770911507A0E0B0E0841721
:1031C0009507A607B70768F4481B590B6A0B7B0BDA
:1031D00040931207509313076093140770931507D9
:1031E00008C0109212071092130710921407109241
:1031F00015078091F206882399F18F3F19F400EDAD
:1032000017E002C008EE13E0C0901207D090130739
:10321000E0901407F09015070E94541120E030E070
:103220004B015C01801A910AA20AB30AC814D9049E
:10323000EA04FB0468F4C00ED11EE21EF31EC09225
:103240001207D0921307E0921407F092150708C0F6
:1032500060931207709313078093140790931507D8
:1032600060911207709113078091140790911507D0
:10327000E8EECE2EE3E0DE2EE12CF12CA701960144
:103280000E947E1C1F922F9381E094E09F938F9366
:1032900087E096E09F938F930E94A81E61E087E0ED
:1032A0000E94910463E087E096E00E947204C0915E
:1032B0001007D09111079E01A4E6B0E00E94C51C42
:1032C0004B015C0160911207709113078091140704
:1032D00090911507A70196010E947E1CDA01C90191
:1032E00024E630E040E050E0281B390B4A0B5B0B32
:1032F000C501B4010E947E1C209326063093270648
:103300004093280650932906CE01A0E0B0E08093B8
:103310002A0690932B06A0932C06B0932D060F90AF
:103320000F900F900F900F900F90DF91CF911F9102
:103330000F91FF90EF90DF90CF90BF90AF909F9054
:103340008F9008954F925F926F927F928F929F928B
:10335000AF92BF92CF92DF92EF92FF920F931F93A3
:10336000CF93DF930E94C30C882381F181E0809387
:103370002506419A439A2A982B984298409860E0F3
:1033800080E00E94910460E18DE094E00E9472046C
:1033900061E080E00E94910460E14A9903C08EE1FF
:1033A00094E002C08FE294E0DF91CF911F910F91E2
:1033B000FF90EF90DF90CF90BF90AF909F908F9055
:1033C0007F906F905F904F900C9472048091A00555
:1033D000811161C00E941A1260914E0670914F06D1
:1033E000809150069091510640904A0650904B06AD
:1033F00060904C0670904D06F8EE8F2EF3E09F2EF5
:10340000A12CB12CA50194010E947E1CE901142F6E
:10341000052FA4E6CA2ED12CE12CF12CA701960190
:103420000E947E1C5F934F933F932F930F931F93A4
:10343000DF93CF93C301B201A50194010E947E1CCA
:10344000E901142F052FA70196010E947E1C5F93AE
:103450004F933F932F930F931F93DF93CF9388E363
:1034600093E09F938F9387E096E09F938F930E94C2
:10347000A81E61E080E00E94910460E187E096E090
:103480000E9472048DB79EB744960FB6F8949EBF03
:103490000FBE8DBF02C00E944B130E949F0F81116F
:1034A00012C0DF91CF911F910F91FF90EF90DF90AD
:1034B000CF90BF90AF909F908F907F906F905F90D4
:1034C0004F900C94410CDF91CF911F910F91FF9081
:1034D000EF90DF90CF90BF90AF909F908F907F90B4
:1034E0006F905F904F900895CF93DF9300D000D0FE
:1034F0001F92CDB7DEB78230C9F048F4882389F037
:10350000813019F52091F6063091F70620C08430FD
:10351000B9F088F08530C9F42091FE063091FF069D
:1035200016C02091F4063091F50611C02091F806DE
:103530003091F9060CC02091FA063091FB0607C0C5
:103540002091FC063091FD0602C020E030E0909111
:10355000F306992391F09F3F19F44AE050E002C02E
:1035600041E050E0BA016E5F7F47261737071CF035
:10357000241B350B02C021E030E89091F20699231C
:1035800099F09F3F19F44AE050E002C041E050E05A
:103590006FEF7FE7641B750B261737071CF4240FAA
:1035A000351F02C02FEF3FE7AE014F5F5F4F823004
:1035B00011F160F48823B9F08130C9F53093F70632
:1035C0002093F60685E0EEE4F4E02CC0843019F197
:1035D000D0F0853061F53093FF062093FE0685E03C
:1035E000E3E5F4E01FC03093F5062093F40685E090
:1035F000E8E5F4E017C03093F9062093F80685E07B
:10360000EDE5F4E00FC03093FB062093FA0685E069
:10361000E2E6F4E007C03093FD062093FC0685E067
:10362000E7E6F4E0DA0101900D928A95E1F73F9325
:103630002F935F934F9380E494E09F938F9387E061
:1036400096E09F938F930E94A81E61E080E00E9405
:10365000910460E187E096E00E9472040FB6F8944E
:10366000DEBF0FBECDBF0F900F900F900F900F9049
:10367000DF91CF910895CF92DF92EF92FF920F9357
:10368000CF93DF93809125068A3009F05AC0B0E2CB
:10369000CB2EBBE1DB2EBCE7EB2EBCE0FB2E20915A
:1036A0004206309143064091440650914506C701B9
:1036B000B6010E947E1CDA01C90120935206909344
:1036C0005306A0935406B0935506109256061092D6
:1036D00057061092580610925906209146063091CE
:1036E00047064091480650914906C701B6010E941D
:1036F0007E1CDA01C90120935A0690935B06A093C1
:103700005C06B0935D0610925E0610925F06109202
:103710006006109261060E949F0F082F20914606B6
:103720003091470640914806509149066091420603
:103730007091430680914406909145060E94DE05F3
:1037400074C0863429F4349970C00E943B156DC052
:10375000873489F4349969C08AE080932506349BC4
:10376000FECF359BFCCF369BFACF379BF8CF8FE04F
:103770000E94930F5AC0823319F40E94631555C0FA
:10378000833319F40E94C81550C0843319F40E9481
:103790002D164BC08C3319F40E949E1646C08D33F3
:1037A00019F40E94021741C0843119F40E9466176F
:1037B0003CC08B3071F5349B02C0359918C04091E4
:1037C000260650912706609128067091290680915F
:1037D0002A0690912B06A0912C06B0912D06481731
:1037E00059076A077B0719F40E9454181EC03699BE
:1037F00006C0379904C081E08093A00516C03799B0
:1038000014C0369B12C01092A00580E00E941C13C9
:103810000CC0853119F40E94BE1807C0813529F407
:103820008091010187500E94741A809125068B3087
:1038300049F4DF91CF910F91FF90EF90DF90CF90FF
:103840000C94A219DF91CF910F91FF90EF90DF9030
:10385000CF900895809125060895809325060895B8
:103860000E945D0B8AE00E942D1C8FE00E94930F46
:1038700089EB91E00E94670F0E94F303809190040E
:1038800081110E9484000E9413140E94A6098823BB
:1038900021F00E943B1B0E94A909809125068B30D4
:1038A00011F0843149F70E948409E6CFAA1BBB1BA3
:1038B00051E107C0AA1FBB1FA617B70710F0A61B30
:1038C000B70B881F991F5A95A9F780959095BC0151
:1038D000CD01089597FB072E16F4009407D077FDCD
:1038E00009D00E94561C07FC05D03EF490958195A6
:1038F0009F4F0895709561957F4F0895A1E21A2E0C
:10390000AA1BBB1BFD010DC0AA1FBB1FEE1FFF1F83
:10391000A217B307E407F50720F0A21BB30BE40BD3
:10392000F50B661F771F881F991F1A9469F760951A
:103930007095809590959B01AC01BD01CF010895D4
:10394000052E97FB1EF400940E94B71C57FD07D06C
:103950000E947E1C07FC03D04EF40C94B71C5095BB
:103960004095309521953F4F4F4F5F4F089590956B
:103970008095709561957F4F8F4F9F4F0895EE0F03
:10398000FF1F0590F491E02D0994A29FB001B39F11
:10399000C001A39F700D811D1124911DB29F700D58
:1039A000811D1124911D08950E94C51CB7FF089523
:1039B000821B930B08950E94C51CA59F900DB49F78
:1039C000900DA49F800D911D11240895B7FF0C94B4
:1039D000DB1C0E94DB1C821B930B0895DF93CF93AB
:1039E0001F930F939A9DF02D219FF00D8B9DF00D4D
:1039F0008A9DE02DF10D039FF00D029FE00DF11D5A
:103A00004E9DE00DF11D5E9DF00D4F9DF00D7F93DD
:103A10006F93BF92AF925F934F93D5010E94C51CE5
:103A20008B01AC01D7010E94C51CEB01E80FF91F07
:103A3000D6010E943E1D2F913F91D6010E94C51CC8
:103A4000C60FD71FE81FF91FAF91BF910E943E1DFF
:103A50002F913F910E94C51CC60FD71FE81FF91F69
:103A6000D6010E94C51CE60FF71F9801BE01CF01C9
:103A700011240F911F91CF91DF9108950E94C51CD1
:103A8000460F571FC81FD91F08F431960895689430
:103A900001C0E894F92FF12B12F00C947B1DA0E0EB
:103AA000B0E0E5E5FDE10C94ED1D092E059422F44E
:103AB0000E94D71D112392F4F0E80F26FFEFE09447
:103AC000F09400951095B094C094D094A194BF0A3E
:103AD000CF0ADF0AEF0AFF0A0F0B1F0B0E94861D99
:103AE00007FC0E94D71DCDB7DEB7ECE00C94091E91
:103AF000689401C0E8948F929F92CF93DF930E94C5
:103B0000861DDF91CF919F908F90089588249924EE
:103B1000F401E401B0E49F93AA279A158B049C0456
:103B2000ED05FE05CF05D007A10798F4AD2FDC2FDA
:103B3000CF2FFE2FE92D982C892E982F872F762FA7
:103B4000652F542F432F322F2227B85031F7BF91C2
:103B500027C01B2EBF91BB27220F331F441F551FA9
:103B6000661F771F881F991F881C991CEE1FFF1F57
:103B7000CC1FDD1FAA1FBB1F8A149B04EC05FD058B
:103B8000CE05DF05A007B10748F08A189B08EC09AD
:103B9000FD09CE09DF09A00BB10B21601A94E1F6F3
:103BA0002EF49401AF01BE01CD01000C0895609583
:103BB00070958095909530954095509521953F4F03
:103BC0004F4F5F4F6F4F7F4F8F4F9F4F08952F92F3
:103BD0003F924F925F926F927F928F929F92AF929D
:103BE000BF92CF92DF92EF92FF920F931F93CF93EA
:103BF000DF93CDB7DEB7CA1BDB0B0FB6F894DEBF81
:103C00000FBECDBF09942A88398848885F846E84A6
:103C10007D848C849B84AA84B984C884DF80EE80F0
:103C2000FD800C811B81AA81B981CE0FD11D0FB6F9
:103C3000F894DEBF0FBECDBFED0108950F9308309D
:103C400090F0982F872F762F652F542F432F322FE8
:103C500022270850F4CF220F331F441F551F661F21
:103C6000771F881F991F0A95B2F70F91089597FB48
:103C700010F8169400080F93083098F00850232F7E
:103C8000342F452F562F672F782F892F902DF4CF63
:103C900005949795879577956795579547953795A7
:103CA00027950A95AAF70F9108952A0D3B1D4C1DE3
:103CB0005D1D6E1D7F1D801F911F08952A193B09F0
:103CC0004C095D096E097F09800B910B0895002452
:103CD000A7FD00942A1730054005500560057005C2
:103CE00080059005089541EA55E00E94811E0895DF
:103CF000FB01DC018D91019080190110D9F3990B22
:103D00000895FA01A191B081009719F41097E1F09C
:103D1000CD01DC01CD010D90002011F4C00113C0D4
:103D2000FB012191222319F02015D9F7F3CFFB01D4
:103D30002191201519F41E92119606C02223C1F775
:103D40000D900020A1F7D001FA01A193B08308954E
:103D5000AEE0B0E0EEEAFEE10C94F51D0D891E899F
:103D600086E08C831A8309838FEF9FE79E838D8380
:103D7000AE01475E5F4F6F89788DCE0101960E943C
:103D8000CA1EEF81F885E00FF11F10822E96E4E045
:103D90000C94111EACE0B0E0E0EDFEE10C94E71DE8
:103DA0007C016B018A01FC0117821682838181FFED
:103DB000BDC1CE0101964C01F7019381F60193FD3F
:103DC000859193FF81916F01882309F4ABC18532FE
:103DD00039F493FD859193FF81916F01853229F428
:103DE000B70190E00E94DA20E7CF512C312C20E07F
:103DF0002032A0F48B3269F030F4803259F08332F3
:103E000069F420612CC08D3239F0803339F421609F
:103E100026C02260246023C0286021C027FD27C05F
:103E200030ED380F3A3078F426FF06C0FAE05F9E96
:103E3000300D1124532E13C08AE0389E300D11240A
:103E4000332E20620CC08E3221F426FD6BC120641B
:103E500006C08C3611F4206802C0883641F4F601A1
:103E600093FD859193FF81916F018111C1CF982FAF
:103E70009F7D9554933028F40C5F1F4FFFE3F98327
:103E80000DC0833631F0833771F0833509F05BC0A4
:103E900022C0F801808189830E5F1F4F4424439420
:103EA000512C540115C03801F2E06F0E711CF8015D
:103EB000A080B18026FF03C0652D70E002C06FEFC7
:103EC0007FEFC5012C870E94CF202C0183012C8518
:103ED0002F77222E17C03801F2E06F0E711CF80107
:103EE000A080B18026FF03C0652D70E002C06FEF97
:103EF0007FEFC5012C870E94C4202C012C852068EF
:103F0000222E830123FC1BC0832D90E04816590606
:103F1000B0F4B70180E290E00E94DA203A94F4CF46
:103F2000F50127FC859127FE81915F01B70190E0A3
:103F30000E94DA2031103A94F1E04F1A51084114EE
:103F4000510471F7E5C0843611F0893639F5F8016E
:103F500027FF07C060817181828193810C5F1F4FB1
:103F600008C060817181882777FD8095982F0E5F4A
:103F70001F4F2F76B22E97FF09C0909580957095B0
:103F800061957F4F8F4F9F4F2068B22E2AE030E01F
:103F9000A4010E940C21A82EA81844C0853729F43A
:103FA0002F7EB22E2AE030E025C0F22FF97FBF2EFF
:103FB0008F36C1F018F4883579F0B4C0803719F025
:103FC000883721F0AFC02F2F2061B22EB4FE0DC074
:103FD0008B2D8460B82E09C024FF0AC09F2F9660E5
:103FE000B92E06C028E030E005C020E130E002C074
:103FF00020E132E0F801B7FE07C060817181828163
:1040000093810C5F1F4F06C06081718180E090E05A
:104010000E5F1F4FA4010E940C21A82EA818FB2D93
:10402000FF77BF2EB6FE0BC02B2D2E7FA51450F4AC
:10403000B4FE0AC0B2FC08C02B2D2E7E05C07A2C1F
:104040002B2D03C07A2C01C0752C24FF0DC0FE015E
:10405000EA0DF11D8081803311F4297E09C022FF11
:1040600006C07394739404C0822F867809F0739409
:1040700023FD13C020FF06C05A2C731418F4530CF0
:104080005718732C731468F4B70180E290E02C8702
:104090000E94DA2073942C85F5CF731410F437182E
:1040A00001C0312C24FF12C0B70180E390E02C87BF
:1040B0000E94DA202C8522FF17C021FF03C088E56B
:1040C00090E002C088E790E0B7010CC0822F8678AC
:1040D00059F021FD02C080E201C08BE227FD8DE294
:1040E000B70190E00E94DA20A51438F4B70180E30C
:1040F00090E00E94DA205A94F7CFAA94F401EA0DD6
:10410000F11D8081B70190E00E94DA20A110F5CF67
:10411000332009F451CEB70180E290E00E94DA200A
:104120003A94F6CFF7018681978102C08FEF9FEF17
:104130002C96E2E10C94031EDC01CB01FC01F99901
:10414000FECF06C0F2BDE1BDF89A319600B40D92E3
:1041500041505040B8F70895DC01CB0103C02D91C8
:104160000E94B72041505040D0F70895262FF9996A
:10417000FECF1FBA92BD81BD20BD0FB6F894FA9A4A
:10418000F99A0FBE01960895FC01059061507040A8
:104190000110D8F7809590958E0F9F1F0895FC0110
:1041A0006150704001900110D8F7809590958E0F66
:1041B0009F1F08950F931F93CF93DF93182F092FFD
:1041C000EB018B8181FD03C08FEF9FEF20C082FF49
:1041D00010C04E815F812C813D81421753077CF4D2
:1041E000E881F9819F012F5F3F4F39832883108336
:1041F00006C0E885F985812F0995892B29F72E813D
:104200003F812F5F3F4F3F832E83812F902FDF9180
:10421000CF911F910F910895FA01AA27283051F1EB
:10422000203181F1E8946F936E7F6E5F7F4F8F4FE7
:104230009F4FAF4FB1E03ED0B4E03CD0670F781F46
:10424000891F9A1FA11D680F791F8A1F911DA11D2B
:104250006A0F711D811D911DA11D20D009F4689464
:104260003F912AE0269F11243019305D3193DEF60C
:10427000CF010895462F4770405D4193B3E00FD0C2
:10428000C9F7F6CF462F4F70405D4A3318F0495DAD
:1042900031FD4052419302D0A9F7EACFB4E0A69590
:1042A0009795879577956795BA95C9F700976105B2
:1042B000710508959B01AC010A2E06945795479508
:1042C00037952795BA95C9F7620F731F841F951FFD
:0842D000A01D0895F894FFCF32
:1042D800FFFF01FFFFFFFF3C20253032752F2530FF
:1042E80032752C20253032752F253032752C20253B
:1042F8003032752C20253032752C20253032752E21
:10430800253031752C20253032752E253031752C0D
:1043180020253033642C20253033640D0A003C45B9
:1043280021204272696768746E657373206E6F74BA
:1043380020736574003C4F4B003E5342003E3F00E3
:104348003C2145312055415254204672616D65200B
:104358004572726F72003C214532205541525420FB
:104368004F76657272756E204572726F72003C21CD
:10437800453320427566666572206F766572666C95
:104388006F77206572726F720057656C636F6D6529
:1043980020746F20626C656E646572203A290D0A7C
:1043A8000053313A2025356C697556202020203E6F
:1043B8000053313A2025356C69755620202020207D
:1043C8000053323A2025356C697556202025326411
:1043D8007300506C656173652C207475726E206F64
:1043E8006E2000796F757220636F6D7072657373DC
:1043F8006F722100496E6974696E672E2E2E004116
:104408004443204572726F72210053312E2E2E00C4
:104418004F4B202053322E2E2E0020202020527564
:104428006E20546573742020203E00202020202018
:104438002020202020202020202020002020204371
:10444800616C6962726174652020203E004F323CC5
:1044580020204F787967656E202020202B00486542
:10446800202020202020202020202020202D004F28
:104478003220202048656C69756D202020202B0093
:1044880048653C2020202020202020202020202D8E
:104498000020204272696768746E6573732020205B
:1044A8002B00202020202020202020202020202019
:1044B800202D0020202020436F6E747261737420B9
:1044C80020202B002020456D657267656E6379207A
:1044D8004F32202B002020536574204F3220766104
:1044E8006C7665202B002020536574204865207663
:1044F800616C7665202B0050494420736574757093
:104508002078313238202B0053313A25326C692E0D
:104518002530316C692053323A25326C692E2530AA
:10452800316C69202000546D58202532752F2532B2
:104538007520202532752F2532750045414E782586
:10454800327520205265616C3A2532752000742539
:1045580030327563253032752073742530327520FA
:1045680076253033750043616E27742063616C696A
:104578006272617465210053656E736F7273206691
:1045880061696C7572652100204D617820646576DB
:10459800696174696F6E3A200020202020253575E6
:1045A80020755620202020200020202043686563A5
:1045B8006B696E672E2E2E202000202020202020C0
:1045C800444F4E45212020202020002530337520DF
:1045D8000025303275252500253375200020202040
:1045E800456D657267656E63792120202000202063
:1045F8004F3220746F6F206869676821202000435C
:104608006F6D70726573736F723A20204F46460063
:104618002573202020253035642020202D0053319B
:104628005F490053325F440053315F500053315F9C
:0C463800440053325F500053325F4900D1
:00000001FF
